{
  "contractName": "Account",
  "abi": [
    {
      "anonymous": false,
      "inputs": [
        {
          "indexed": true,
          "internalType": "address",
          "name": "previousOwner",
          "type": "address"
        },
        {
          "indexed": true,
          "internalType": "address",
          "name": "newOwner",
          "type": "address"
        }
      ],
      "name": "OwnershipTransferPrepared",
      "type": "event"
    },
    {
      "anonymous": false,
      "inputs": [
        {
          "indexed": true,
          "internalType": "address",
          "name": "previousOwner",
          "type": "address"
        },
        {
          "indexed": true,
          "internalType": "address",
          "name": "newOwner",
          "type": "address"
        }
      ],
      "name": "OwnershipTransferred",
      "type": "event"
    },
    {
      "inputs": [],
      "name": "ADMIN",
      "outputs": [
        {
          "internalType": "contract Admin",
          "name": "",
          "type": "address"
        }
      ],
      "stateMutability": "view",
      "type": "function"
    },
    {
      "inputs": [],
      "name": "PRICING",
      "outputs": [
        {
          "internalType": "contract Pricing",
          "name": "",
          "type": "address"
        }
      ],
      "stateMutability": "view",
      "type": "function"
    },
    {
      "inputs": [],
      "name": "_BASE_BALANCE_",
      "outputs": [
        {
          "internalType": "uint256",
          "name": "",
          "type": "uint256"
        }
      ],
      "stateMutability": "view",
      "type": "function"
    },
    {
      "inputs": [],
      "name": "_COLLATERAL_POOL_TOKEN_",
      "outputs": [
        {
          "internalType": "address",
          "name": "",
          "type": "address"
        }
      ],
      "stateMutability": "view",
      "type": "function"
    },
    {
      "inputs": [
        {
          "internalType": "address",
          "name": "",
          "type": "address"
        }
      ],
      "name": "_MARGIN_ACCOUNT_",
      "outputs": [
        {
          "internalType": "enum Types.Side",
          "name": "SIDE",
          "type": "uint8"
        },
        {
          "internalType": "uint256",
          "name": "SIZE",
          "type": "uint256"
        },
        {
          "internalType": "uint256",
          "name": "ENTRY_VALUE",
          "type": "uint256"
        },
        {
          "internalType": "int256",
          "name": "CASH_BALANCE",
          "type": "int256"
        },
        {
          "internalType": "uint256",
          "name": "ENTRY_SLOSS",
          "type": "uint256"
        }
      ],
      "stateMutability": "view",
      "type": "function"
    },
    {
      "inputs": [],
      "name": "_NEW_OWNER_",
      "outputs": [
        {
          "internalType": "address",
          "name": "",
          "type": "address"
        }
      ],
      "stateMutability": "view",
      "type": "function"
    },
    {
      "inputs": [],
      "name": "_OWNER_",
      "outputs": [
        {
          "internalType": "address",
          "name": "",
          "type": "address"
        }
      ],
      "stateMutability": "view",
      "type": "function"
    },
    {
      "inputs": [],
      "name": "_POOL_INSURANCE_BALANCE_",
      "outputs": [
        {
          "internalType": "uint256",
          "name": "",
          "type": "uint256"
        }
      ],
      "stateMutability": "view",
      "type": "function"
    },
    {
      "inputs": [],
      "name": "_QUOTE_BALANCE_",
      "outputs": [
        {
          "internalType": "uint256",
          "name": "",
          "type": "uint256"
        }
      ],
      "stateMutability": "view",
      "type": "function"
    },
    {
      "inputs": [],
      "name": "_R_STATUS_",
      "outputs": [
        {
          "internalType": "enum Types.Side",
          "name": "",
          "type": "uint8"
        }
      ],
      "stateMutability": "view",
      "type": "function"
    },
    {
      "inputs": [
        {
          "internalType": "uint256",
          "name": "",
          "type": "uint256"
        }
      ],
      "name": "_SLOSS_PER_CONTRACT_",
      "outputs": [
        {
          "internalType": "uint256",
          "name": "",
          "type": "uint256"
        }
      ],
      "stateMutability": "view",
      "type": "function"
    },
    {
      "inputs": [],
      "name": "_TARGET_BASE_TOKEN_AMOUNT_",
      "outputs": [
        {
          "internalType": "uint256",
          "name": "",
          "type": "uint256"
        }
      ],
      "stateMutability": "view",
      "type": "function"
    },
    {
      "inputs": [],
      "name": "_TARGET_QUOTE_TOKEN_AMOUNT_",
      "outputs": [
        {
          "internalType": "uint256",
          "name": "",
          "type": "uint256"
        }
      ],
      "stateMutability": "view",
      "type": "function"
    },
    {
      "inputs": [],
      "name": "_TOTAL_LONG_SIZE_",
      "outputs": [
        {
          "internalType": "uint256",
          "name": "",
          "type": "uint256"
        }
      ],
      "stateMutability": "view",
      "type": "function"
    },
    {
      "inputs": [],
      "name": "claimOwnership",
      "outputs": [],
      "stateMutability": "nonpayable",
      "type": "function"
    },
    {
      "inputs": [
        {
          "internalType": "address",
          "name": "newOwner",
          "type": "address"
        }
      ],
      "name": "transferOwnership",
      "outputs": [],
      "stateMutability": "nonpayable",
      "type": "function"
    },
    {
      "inputs": [],
      "name": "getSloss",
      "outputs": [
        {
          "internalType": "uint256[3]",
          "name": "",
          "type": "uint256[3]"
        }
      ],
      "stateMutability": "view",
      "type": "function"
    },
    {
      "inputs": [],
      "name": "getTotalSize",
      "outputs": [
        {
          "internalType": "uint256[3]",
          "name": "",
          "type": "uint256[3]"
        }
      ],
      "stateMutability": "view",
      "type": "function"
    },
    {
      "inputs": [],
      "name": "getPoolMarginSide",
      "outputs": [
        {
          "internalType": "enum Types.Side",
          "name": "",
          "type": "uint8"
        }
      ],
      "stateMutability": "view",
      "type": "function"
    },
    {
      "inputs": [],
      "name": "getPoolMarginCashBalance",
      "outputs": [
        {
          "internalType": "int256",
          "name": "",
          "type": "int256"
        }
      ],
      "stateMutability": "view",
      "type": "function"
    },
    {
      "inputs": [],
      "name": "getPoolMarginSize",
      "outputs": [
        {
          "internalType": "uint256",
          "name": "",
          "type": "uint256"
        }
      ],
      "stateMutability": "view",
      "type": "function"
    },
    {
      "inputs": [],
      "name": "getPoolMarginEntryValue",
      "outputs": [
        {
          "internalType": "uint256",
          "name": "",
          "type": "uint256"
        }
      ],
      "stateMutability": "view",
      "type": "function"
    },
    {
      "inputs": [],
      "name": "getPoolMarginEntrySloss",
      "outputs": [
        {
          "internalType": "uint256",
          "name": "",
          "type": "uint256"
        }
      ],
      "stateMutability": "view",
      "type": "function"
    }
  ],
  "bytecode": "0x6080604052600a805460ff1916905534801561001a57600080fd5b506107f58061002a6000396000f3fe608060405234801561001057600080fd5b506004361061014d5760003560e01c8063a163805c116100c3578063c43893511161007c578063c438935114610235578063d38b52091461023d578063d6b4129814610250578063eab5d20e14610258578063f2fde38b14610260578063f9f8eda8146102735761014d565b8063a163805c146101e9578063a8b13ddf146101f1578063b192a3eb146101f9578063b1e0736614610201578063b2094fd314610225578063b4cab9551461022d5761014d565b80632efc6ee7116101155780632efc6ee7146101aa5780634e71e0c8146101bf57806372decd7a146101c95780637c9b8e89146101d15780638456db15146101d95780639103b8b7146101e15761014d565b806316048bc41461015257806317be952e14610170578063245c9685146101855780632a0acc6a1461019a5780632b32812a146101a2575b600080fd5b61015a61027b565b6040516101679190610677565b60405180910390f35b61017861028a565b60405161016791906106bc565b61018d610293565b60405161016791906106ff565b61015a610299565b61018d6102a8565b6101b26102be565b604051610167919061068b565b6101c761035f565b005b61018d6103f6565b61018d61040c565b61015a610412565b61018d610421565b61015a610437565b61018d610446565b61015a61044c565b61021461020f366004610638565b61045b565b6040516101679594939291906106d0565b61018d61048e565b61018d610494565b6101b26104aa565b61018d61024b36600461065f565b6104e5565b6101786104f9565b61018d61050f565b6101c761026e366004610638565b610515565b61018d6105c0565b6000546001600160a01b031681565b600a5460ff1681565b60075481565b6002546001600160a01b031681565b3060009081526005602052604090206001015490565b6102c661061a565b600060023060009081526005602052604090205460ff1660028111156102e857fe5b146103175730600090815260056020526040902060010154600b546103129163ffffffff6105c616565b61033c565b30600090815260056020526040902060010154600b5461033c9163ffffffff6105ee16565b60408051606081018252600081526020810192909252600b549082015291505090565b6001546001600160a01b031633146103925760405162461bcd60e51b815260040161038990610708565b60405180910390fd5b600154600080546040516001600160a01b0393841693909116917f8be0079c531659141344cd1fd0a4f28419497f9722a3daafe3b4186f6b6457e091a360018054600080546001600160a01b03199081166001600160a01b03841617909155169055565b3060009081526005602052604090206003015490565b60095481565b6001546001600160a01b031681565b3060009081526005602052604090206004015490565b6003546001600160a01b031681565b600b5481565b6004546001600160a01b031681565b6005602052600090815260409020805460018201546002830154600384015460049094015460ff90931693919290919085565b60065481565b3060009081526005602052604090206002015490565b6104b261061a565b60408051606081019182905290600c9060039082845b8154815260200190600101908083116104c8575050505050905090565b600c81600381106104f257fe5b0154905081565b3060009081526005602052604090205460ff1690565b60085481565b6000546001600160a01b0316331461053f5760405162461bcd60e51b815260040161038990610779565b6001600160a01b0381166105655760405162461bcd60e51b815260040161038990610752565b600080546040516001600160a01b03808516939216917fdcf55418cee3220104fef63f979ff3c4097ad240c0c43dcb33ce837748983e6291a3600180546001600160a01b0319166001600160a01b0392909216919091179055565b600f5481565b6000828211156105e85760405162461bcd60e51b81526004016103899061072f565b50900390565b6000828201838110156106135760405162461bcd60e51b81526004016103899061079c565b9392505050565b60405180606001604052806003906020820280368337509192915050565b600060208284031215610649578081fd5b81356001600160a01b0381168114610613578182fd5b600060208284031215610670578081fd5b5035919050565b6001600160a01b0391909116815260200190565b60608101818360005b60038110156106b3578151835260209283019290910190600101610694565b50505092915050565b60208101600383106106ca57fe5b91905290565b60a08101600387106106de57fe5b95815260208101949094526040840192909252606083015260809091015290565b90815260200190565b6020808252600d908201526c494e56414c49445f434c41494d60981b604082015260600190565b60208082526009908201526829aaa12fa2a92927a960b91b604082015260600190565b6020808252600d908201526c24a72b20a624a22fa7aba722a960991b604082015260600190565b6020808252600990820152682727aa2fa7aba722a960b91b604082015260600190565b60208082526009908201526820a2222fa2a92927a960b91b60408201526060019056fea2646970667358221220317c0df5c416e383b62fe21d18eac06594f3c763a6e892aaffeb80a150be397d64736f6c63430006090033",
  "immutableReferences": {},
  "source": "/*\n\n    Copyright 2020 DODO ZOO.\n    SPDX-License-Identifier: Apache-2.0\n\n*/\n\npragma solidity 0.6.9;\npragma experimental ABIEncoderV2;\n\nimport {SafeMath} from \"../lib/SafeMath.sol\";\nimport {SignedSafeMath} from \"../lib/SignedSafeMath.sol\";\nimport {InitializableOwnable} from \"../lib/InitializableOwnable.sol\";\nimport {ReentrancyGuard} from \"../lib/ReentrancyGuard.sol\";\nimport {Types} from \"../lib/Types.sol\";\nimport {Admin} from \"../admin/Admin.sol\";\nimport {Pricing} from \"./Pricing.sol\";\n\n/**\n * @title Storage\n * @author Parapara\n *\n * @notice Local Variables\n */\ncontract Account is InitializableOwnable, ReentrancyGuard {\n    using SafeMath for uint256;\n    using SignedSafeMath for int256;\n    // ============ Variables for Control ============\n    bool internal _INITIALIZED_;\n    Admin public ADMIN;\n    Pricing public PRICING;\n    address public _COLLATERAL_POOL_TOKEN_;\n//    Types.MarginAccount public _MARGIN_ACCOUNT_[address(this)];\n    mapping(address => Types.MarginAccount) public _MARGIN_ACCOUNT_;\n    uint256 public _TARGET_BASE_TOKEN_AMOUNT_;\n    uint256 public _TARGET_QUOTE_TOKEN_AMOUNT_;\n    uint256 public _BASE_BALANCE_;\n    uint256 public _QUOTE_BALANCE_;\n    Types.Side public _R_STATUS_ = Types.Side.FLAT;\n\n    uint256 public _TOTAL_LONG_SIZE_;\n    uint256[3] public _SLOSS_PER_CONTRACT_;\n    uint256 public _POOL_INSURANCE_BALANCE_;\n\n    function getSloss() public view returns (uint256[3] memory) {\n        return _SLOSS_PER_CONTRACT_;\n    }\n\n    function getTotalSize() public view returns (uint256[3] memory) {\n        uint256 totalSizeShort = _MARGIN_ACCOUNT_[address(this)].SIDE == Types.Side.LONG?\n            _TOTAL_LONG_SIZE_.add(_MARGIN_ACCOUNT_[address(this)].SIZE): _TOTAL_LONG_SIZE_.sub(_MARGIN_ACCOUNT_[address(this)].SIZE);\n        return [0, totalSizeShort, _TOTAL_LONG_SIZE_];\n    }\n\n    function getPoolMarginSide() external view returns (Types.Side) {\n        return _MARGIN_ACCOUNT_[address(this)].SIDE;\n    }\n\n    function getPoolMarginCashBalance() external view returns (int256) {\n        return _MARGIN_ACCOUNT_[address(this)].CASH_BALANCE;\n    }\n\n    function getPoolMarginSize() external view returns (uint256) {\n        return _MARGIN_ACCOUNT_[address(this)].SIZE;\n    }\n\n    function getPoolMarginEntryValue() external view returns (uint256) {\n        return _MARGIN_ACCOUNT_[address(this)].ENTRY_VALUE;\n    }\n\n    function getPoolMarginEntrySloss() external view returns (uint256) {\n        return _MARGIN_ACCOUNT_[address(this)].ENTRY_SLOSS;\n    }\n\n    function updateVirtualBalance (\n        uint256 baseTarget,\n        uint256 baseBalance,\n        uint256 quoteTarget,\n        uint256 quoteBalance,\n        Types.Side newSide\n        ) internal {\n        if (_TARGET_QUOTE_TOKEN_AMOUNT_ != quoteTarget) {\n            _TARGET_QUOTE_TOKEN_AMOUNT_ = quoteTarget;\n        }\n        if (_TARGET_BASE_TOKEN_AMOUNT_ != baseTarget) {\n            _TARGET_BASE_TOKEN_AMOUNT_ = baseTarget;\n        }\n        if (_BASE_BALANCE_ != baseBalance) {\n            _BASE_BALANCE_ = baseBalance;\n        }\n        if (_QUOTE_BALANCE_ != quoteBalance) {\n            _QUOTE_BALANCE_ = quoteBalance;\n        }\n        if (_R_STATUS_ != newSide) {\n            _R_STATUS_ = newSide;\n        }\n    }\n}\n",
  "sourcePath": "/Users/daniel/Codes/parapara/para_dapp_v6/contracts/perpetual/Account.sol",
  "compiler": {
    "name": "solc",
    "version": "0.6.9+commit.3e3065ac.Emscripten.clang"
  },
  "schemaVersion": "3.3.4",
  "updatedAt": "2021-03-28T10:55:46.444Z",
  "devdoc": {
    "author": "Parapara",
    "methods": {},
    "title": "Storage"
  },
  "userdoc": {
    "methods": {},
    "notice": "Local Variables"
  }
}