{
  "contractName": "Account",
  "abi": [
    {
      "anonymous": false,
      "inputs": [
        {
          "indexed": true,
          "internalType": "address",
          "name": "previousOwner",
          "type": "address"
        },
        {
          "indexed": true,
          "internalType": "address",
          "name": "newOwner",
          "type": "address"
        }
      ],
      "name": "OwnershipTransferPrepared",
      "type": "event"
    },
    {
      "anonymous": false,
      "inputs": [
        {
          "indexed": true,
          "internalType": "address",
          "name": "previousOwner",
          "type": "address"
        },
        {
          "indexed": true,
          "internalType": "address",
          "name": "newOwner",
          "type": "address"
        }
      ],
      "name": "OwnershipTransferred",
      "type": "event"
    },
    {
      "inputs": [],
      "name": "ADMIN",
      "outputs": [
        {
          "internalType": "contract Admin",
          "name": "",
          "type": "address"
        }
      ],
      "stateMutability": "view",
      "type": "function"
    },
    {
      "inputs": [],
      "name": "PRICING",
      "outputs": [
        {
          "internalType": "contract Pricing",
          "name": "",
          "type": "address"
        }
      ],
      "stateMutability": "view",
      "type": "function"
    },
    {
      "inputs": [],
      "name": "_BASE_BALANCE_",
      "outputs": [
        {
          "internalType": "uint256",
          "name": "",
          "type": "uint256"
        }
      ],
      "stateMutability": "view",
      "type": "function"
    },
    {
      "inputs": [],
      "name": "_COLLATERAL_POOL_TOKEN_",
      "outputs": [
        {
          "internalType": "address",
          "name": "",
          "type": "address"
        }
      ],
      "stateMutability": "view",
      "type": "function"
    },
    {
      "inputs": [
        {
          "internalType": "address",
          "name": "",
          "type": "address"
        }
      ],
      "name": "_MARGIN_ACCOUNT_",
      "outputs": [
        {
          "internalType": "enum Types.Side",
          "name": "SIDE",
          "type": "uint8"
        },
        {
          "internalType": "uint256",
          "name": "SIZE",
          "type": "uint256"
        },
        {
          "internalType": "uint256",
          "name": "ENTRY_VALUE",
          "type": "uint256"
        },
        {
          "internalType": "int256",
          "name": "CASH_BALANCE",
          "type": "int256"
        }
      ],
      "stateMutability": "view",
      "type": "function"
    },
    {
      "inputs": [],
      "name": "_NEW_OWNER_",
      "outputs": [
        {
          "internalType": "address",
          "name": "",
          "type": "address"
        }
      ],
      "stateMutability": "view",
      "type": "function"
    },
    {
      "inputs": [],
      "name": "_OWNER_",
      "outputs": [
        {
          "internalType": "address",
          "name": "",
          "type": "address"
        }
      ],
      "stateMutability": "view",
      "type": "function"
    },
    {
      "inputs": [],
      "name": "_POOL_INSURANCE_BALANCE_",
      "outputs": [
        {
          "internalType": "uint256",
          "name": "",
          "type": "uint256"
        }
      ],
      "stateMutability": "view",
      "type": "function"
    },
    {
      "inputs": [],
      "name": "_POOL_MARGIN_ACCOUNT_",
      "outputs": [
        {
          "internalType": "enum Types.Side",
          "name": "SIDE",
          "type": "uint8"
        },
        {
          "internalType": "uint256",
          "name": "SIZE",
          "type": "uint256"
        },
        {
          "internalType": "uint256",
          "name": "ENTRY_VALUE",
          "type": "uint256"
        },
        {
          "internalType": "int256",
          "name": "CASH_BALANCE",
          "type": "int256"
        }
      ],
      "stateMutability": "view",
      "type": "function"
    },
    {
      "inputs": [],
      "name": "_QUOTE_BALANCE_",
      "outputs": [
        {
          "internalType": "uint256",
          "name": "",
          "type": "uint256"
        }
      ],
      "stateMutability": "view",
      "type": "function"
    },
    {
      "inputs": [],
      "name": "_R_STATUS_",
      "outputs": [
        {
          "internalType": "enum Types.Side",
          "name": "",
          "type": "uint8"
        }
      ],
      "stateMutability": "view",
      "type": "function"
    },
    {
      "inputs": [],
      "name": "_TARGET_BASE_TOKEN_AMOUNT_",
      "outputs": [
        {
          "internalType": "uint256",
          "name": "",
          "type": "uint256"
        }
      ],
      "stateMutability": "view",
      "type": "function"
    },
    {
      "inputs": [],
      "name": "_TARGET_QUOTE_TOKEN_AMOUNT_",
      "outputs": [
        {
          "internalType": "uint256",
          "name": "",
          "type": "uint256"
        }
      ],
      "stateMutability": "view",
      "type": "function"
    },
    {
      "inputs": [],
      "name": "claimOwnership",
      "outputs": [],
      "stateMutability": "nonpayable",
      "type": "function"
    },
    {
      "inputs": [
        {
          "internalType": "address",
          "name": "newOwner",
          "type": "address"
        }
      ],
      "name": "transferOwnership",
      "outputs": [],
      "stateMutability": "nonpayable",
      "type": "function"
    },
    {
      "inputs": [],
      "name": "getPoolMarginSide",
      "outputs": [
        {
          "internalType": "enum Types.Side",
          "name": "",
          "type": "uint8"
        }
      ],
      "stateMutability": "view",
      "type": "function"
    },
    {
      "inputs": [],
      "name": "getPoolMarginCashBalance",
      "outputs": [
        {
          "internalType": "int256",
          "name": "",
          "type": "int256"
        }
      ],
      "stateMutability": "view",
      "type": "function"
    },
    {
      "inputs": [],
      "name": "getPoolMarginSize",
      "outputs": [
        {
          "internalType": "uint256",
          "name": "",
          "type": "uint256"
        }
      ],
      "stateMutability": "view",
      "type": "function"
    },
    {
      "inputs": [],
      "name": "getPoolMarginEntryValue",
      "outputs": [
        {
          "internalType": "uint256",
          "name": "",
          "type": "uint256"
        }
      ],
      "stateMutability": "view",
      "type": "function"
    }
  ],
  "bytecode": "0x6080604052600e805460ff1916905534801561001a57600080fd5b506105558061002a6000396000f3fe608060405234801561001057600080fd5b50600436106101215760003560e01c80638bc60bff116100ad578063b4cab95511610071578063b4cab955146101e3578063d6b41298146101eb578063eab5d20e146101f3578063f2fde38b146101fb578063f9f8eda81461020e57610121565b80638bc60bff146101a0578063a163805c146101b8578063b192a3eb146101c0578063b1e07366146101c8578063b2094fd3146101db57610121565b80632b32812a116100f45780632b32812a146101765780634e71e0c81461017e57806372decd7a146101885780637c9b8e89146101905780638456db151461019857610121565b806316048bc41461012657806317be952e14610144578063245c9685146101595780632a0acc6a1461016e575b600080fd5b61012e610216565b60405161013b9190610453565b60405180910390f35b61014c610225565b60405161013b9190610467565b61016161022e565b60405161013b91906104a5565b61012e610234565b610161610243565b610186610249565b005b6101616102e0565b6101616102e6565b61012e6102ec565b6101a86102fb565b60405161013b949392919061047b565b61012e610310565b61012e61031f565b6101a86101d6366004610425565b61032e565b610161610359565b61016161035f565b61014c610365565b61016161036e565b610186610209366004610425565b610374565b61016161041f565b6000546001600160a01b031681565b600e5460ff1681565b600b5481565b6002546001600160a01b031681565b60065490565b6001546001600160a01b0316331461027c5760405162461bcd60e51b8152600401610273906104ae565b60405180910390fd5b600154600080546040516001600160a01b0393841693909116917f8be0079c531659141344cd1fd0a4f28419497f9722a3daafe3b4186f6b6457e091a360018054600080546001600160a01b03199081166001600160a01b03841617909155169055565b60085490565b600d5481565b6001546001600160a01b031681565b60055460065460075460085460ff9093169284565b6003546001600160a01b031681565b6004546001600160a01b031681565b600960205260009081526040902080546001820154600283015460039093015460ff90921692909184565b600a5481565b60075490565b60055460ff1690565b600c5481565b6000546001600160a01b0316331461039e5760405162461bcd60e51b8152600401610273906104fc565b6001600160a01b0381166103c45760405162461bcd60e51b8152600401610273906104d5565b600080546040516001600160a01b03808516939216917fdcf55418cee3220104fef63f979ff3c4097ad240c0c43dcb33ce837748983e6291a3600180546001600160a01b0319166001600160a01b0392909216919091179055565b600f5481565b600060208284031215610436578081fd5b81356001600160a01b038116811461044c578182fd5b9392505050565b6001600160a01b0391909116815260200190565b602081016003831061047557fe5b91905290565b608081016003861061048957fe5b9481526020810193909352604083019190915260609091015290565b90815260200190565b6020808252600d908201526c494e56414c49445f434c41494d60981b604082015260600190565b6020808252600d908201526c24a72b20a624a22fa7aba722a960991b604082015260600190565b6020808252600990820152682727aa2fa7aba722a960b91b60408201526060019056fea2646970667358221220d15604f9a1e8581bd221dfc5c261e7aa4919c8a61bef2e4932e2a21bbf1527a764736f6c63430006090033",
  "immutableReferences": {},
  "source": "/*\n\n    Copyright 2020 DODO ZOO.\n    SPDX-License-Identifier: Apache-2.0\n\n*/\n\npragma solidity 0.6.9;\npragma experimental ABIEncoderV2;\n\nimport {InitializableOwnable} from \"../lib/InitializableOwnable.sol\";\nimport {ReentrancyGuard} from \"../lib/ReentrancyGuard.sol\";\nimport {Types} from \"../lib/Types.sol\";\nimport {Admin} from \"../admin/Admin.sol\";\nimport {Pricing} from \"./Pricing.sol\";\n\n/**\n * @title Storage\n * @author Parapara\n *\n * @notice Local Variables\n */\ncontract Account is InitializableOwnable, ReentrancyGuard {\n    // ============ Variables for Control ============\n    bool internal _INITIALIZED_;\n    Admin public ADMIN;\n    Pricing public PRICING;\n    address public _COLLATERAL_POOL_TOKEN_;\n    Types.MarginAccount public _POOL_MARGIN_ACCOUNT_;\n    mapping(address => Types.MarginAccount) public _MARGIN_ACCOUNT_;\n    uint256 public _TARGET_BASE_TOKEN_AMOUNT_;\n    uint256 public _TARGET_QUOTE_TOKEN_AMOUNT_;\n    uint256 public _BASE_BALANCE_;\n    uint256 public _QUOTE_BALANCE_;\n    Types.Side public _R_STATUS_ = Types.Side.FLAT;\n\n    uint256 public _POOL_INSURANCE_BALANCE_;\n\n    function getPoolMarginSide() external view returns (Types.Side) {\n        return _POOL_MARGIN_ACCOUNT_.SIDE;\n    }\n\n    function getPoolMarginCashBalance() external view returns (int256) {\n        return _POOL_MARGIN_ACCOUNT_.CASH_BALANCE;\n    }\n\n    function getPoolMarginSize() external view returns (uint256) {\n        return _POOL_MARGIN_ACCOUNT_.SIZE;\n    }\n\n    function getPoolMarginEntryValue() external view returns (uint256) {\n        return _POOL_MARGIN_ACCOUNT_.ENTRY_VALUE;\n    }\n\n    function updateVirtualBalance (\n        uint256 baseTarget,\n        uint256 baseBalance,\n        uint256 quoteTarget,\n        uint256 quoteBalance,\n        Types.Side newSide\n        ) internal {\n        if (_TARGET_QUOTE_TOKEN_AMOUNT_ != quoteTarget) {\n            _TARGET_QUOTE_TOKEN_AMOUNT_ = quoteTarget;\n        }\n        if (_TARGET_BASE_TOKEN_AMOUNT_ != baseTarget) {\n            _TARGET_BASE_TOKEN_AMOUNT_ = baseTarget;\n        }\n        if (_BASE_BALANCE_ != baseBalance) {\n            _BASE_BALANCE_ = baseBalance;\n        }\n        if (_QUOTE_BALANCE_ != quoteBalance) {\n            _QUOTE_BALANCE_ = quoteBalance;\n        }\n        if (_R_STATUS_ != newSide) {\n            _R_STATUS_ = newSide;\n        }\n    }\n}\n",
  "sourcePath": "/Users/daniel/Codes/parapara/para_dapp_v6/contracts/perpetual/Account.sol",
  "compiler": {
    "name": "solc",
    "version": "0.6.9+commit.3e3065ac.Emscripten.clang"
  },
  "schemaVersion": "3.3.4",
  "updatedAt": "2021-03-25T08:51:25.683Z",
  "devdoc": {
    "author": "Parapara",
    "methods": {},
    "title": "Storage"
  },
  "userdoc": {
    "methods": {},
    "notice": "Local Variables"
  }
}