{
  "contractName": "Admin",
  "abi": [
    {
      "anonymous": false,
      "inputs": [],
      "name": "CreateAdmin",
      "type": "event"
    },
    {
      "anonymous": false,
      "inputs": [
        {
          "indexed": true,
          "internalType": "address",
          "name": "previousOwner",
          "type": "address"
        },
        {
          "indexed": true,
          "internalType": "address",
          "name": "newOwner",
          "type": "address"
        }
      ],
      "name": "OwnershipTransferPrepared",
      "type": "event"
    },
    {
      "anonymous": false,
      "inputs": [
        {
          "indexed": true,
          "internalType": "address",
          "name": "previousOwner",
          "type": "address"
        },
        {
          "indexed": true,
          "internalType": "address",
          "name": "newOwner",
          "type": "address"
        }
      ],
      "name": "OwnershipTransferred",
      "type": "event"
    },
    {
      "anonymous": false,
      "inputs": [
        {
          "indexed": false,
          "internalType": "uint256",
          "name": "oldGasPriceLimit",
          "type": "uint256"
        },
        {
          "indexed": false,
          "internalType": "uint256",
          "name": "newGasPriceLimit",
          "type": "uint256"
        }
      ],
      "name": "UpdateGasPriceLimit",
      "type": "event"
    },
    {
      "anonymous": false,
      "inputs": [
        {
          "indexed": false,
          "internalType": "uint256",
          "name": "oldK",
          "type": "uint256"
        },
        {
          "indexed": false,
          "internalType": "uint256",
          "name": "newK",
          "type": "uint256"
        }
      ],
      "name": "UpdateK",
      "type": "event"
    },
    {
      "anonymous": false,
      "inputs": [
        {
          "indexed": false,
          "internalType": "uint256",
          "name": "oldLiquidityProviderFeeRate",
          "type": "uint256"
        },
        {
          "indexed": false,
          "internalType": "uint256",
          "name": "newLiquidityProviderFeeRate",
          "type": "uint256"
        }
      ],
      "name": "UpdateLiquidityProviderFeeRate",
      "type": "event"
    },
    {
      "anonymous": false,
      "inputs": [
        {
          "indexed": false,
          "internalType": "uint256",
          "name": "oldMaintainerFeeRate",
          "type": "uint256"
        },
        {
          "indexed": false,
          "internalType": "uint256",
          "name": "newMaintainerFeeRate",
          "type": "uint256"
        }
      ],
      "name": "UpdateMaintainerFeeRate",
      "type": "event"
    },
    {
      "inputs": [],
      "name": "_BUYING_ALLOWED_",
      "outputs": [
        {
          "internalType": "bool",
          "name": "",
          "type": "bool"
        }
      ],
      "stateMutability": "view",
      "type": "function"
    },
    {
      "inputs": [],
      "name": "_CLOSED_",
      "outputs": [
        {
          "internalType": "bool",
          "name": "",
          "type": "bool"
        }
      ],
      "stateMutability": "view",
      "type": "function"
    },
    {
      "inputs": [],
      "name": "_COLLATERAL_TOKEN_",
      "outputs": [
        {
          "internalType": "address",
          "name": "",
          "type": "address"
        }
      ],
      "stateMutability": "view",
      "type": "function"
    },
    {
      "inputs": [],
      "name": "_DEPOSIT_ALLOWED_",
      "outputs": [
        {
          "internalType": "bool",
          "name": "",
          "type": "bool"
        }
      ],
      "stateMutability": "view",
      "type": "function"
    },
    {
      "inputs": [],
      "name": "_GAS_PRICE_LIMIT_",
      "outputs": [
        {
          "internalType": "uint256",
          "name": "",
          "type": "uint256"
        }
      ],
      "stateMutability": "view",
      "type": "function"
    },
    {
      "inputs": [],
      "name": "_INITIAL_MARGIN_RATE_",
      "outputs": [
        {
          "internalType": "uint256",
          "name": "",
          "type": "uint256"
        }
      ],
      "stateMutability": "view",
      "type": "function"
    },
    {
      "inputs": [],
      "name": "_K_",
      "outputs": [
        {
          "internalType": "uint256",
          "name": "",
          "type": "uint256"
        }
      ],
      "stateMutability": "view",
      "type": "function"
    },
    {
      "inputs": [],
      "name": "_LIQUIDATION_PENALTY_POOL_RATE_",
      "outputs": [
        {
          "internalType": "uint256",
          "name": "",
          "type": "uint256"
        }
      ],
      "stateMutability": "view",
      "type": "function"
    },
    {
      "inputs": [],
      "name": "_LIQUIDATION_PENALTY_RATE_",
      "outputs": [
        {
          "internalType": "uint256",
          "name": "",
          "type": "uint256"
        }
      ],
      "stateMutability": "view",
      "type": "function"
    },
    {
      "inputs": [],
      "name": "_LP_FEE_RATE_",
      "outputs": [
        {
          "internalType": "uint256",
          "name": "",
          "type": "uint256"
        }
      ],
      "stateMutability": "view",
      "type": "function"
    },
    {
      "inputs": [],
      "name": "_MAINTAINER_",
      "outputs": [
        {
          "internalType": "address",
          "name": "",
          "type": "address"
        }
      ],
      "stateMutability": "view",
      "type": "function"
    },
    {
      "inputs": [],
      "name": "_MAINTENANCE_MARGIN_RATE_",
      "outputs": [
        {
          "internalType": "uint256",
          "name": "",
          "type": "uint256"
        }
      ],
      "stateMutability": "view",
      "type": "function"
    },
    {
      "inputs": [],
      "name": "_MT_FEE_RATE_",
      "outputs": [
        {
          "internalType": "uint256",
          "name": "",
          "type": "uint256"
        }
      ],
      "stateMutability": "view",
      "type": "function"
    },
    {
      "inputs": [],
      "name": "_NEW_OWNER_",
      "outputs": [
        {
          "internalType": "address",
          "name": "",
          "type": "address"
        }
      ],
      "stateMutability": "view",
      "type": "function"
    },
    {
      "inputs": [],
      "name": "_ORACLE_",
      "outputs": [
        {
          "internalType": "address",
          "name": "",
          "type": "address"
        }
      ],
      "stateMutability": "view",
      "type": "function"
    },
    {
      "inputs": [],
      "name": "_OWNER_",
      "outputs": [
        {
          "internalType": "address",
          "name": "",
          "type": "address"
        }
      ],
      "stateMutability": "view",
      "type": "function"
    },
    {
      "inputs": [],
      "name": "_PAUSED_",
      "outputs": [
        {
          "internalType": "bool",
          "name": "",
          "type": "bool"
        }
      ],
      "stateMutability": "view",
      "type": "function"
    },
    {
      "inputs": [],
      "name": "_POOL_LIQUIDATE_TH_",
      "outputs": [
        {
          "internalType": "uint256",
          "name": "",
          "type": "uint256"
        }
      ],
      "stateMutability": "view",
      "type": "function"
    },
    {
      "inputs": [],
      "name": "_POOL_OPEN_TH_",
      "outputs": [
        {
          "internalType": "uint256",
          "name": "",
          "type": "uint256"
        }
      ],
      "stateMutability": "view",
      "type": "function"
    },
    {
      "inputs": [],
      "name": "_SELLING_ALLOWED_",
      "outputs": [
        {
          "internalType": "bool",
          "name": "",
          "type": "bool"
        }
      ],
      "stateMutability": "view",
      "type": "function"
    },
    {
      "inputs": [],
      "name": "_SUPERVISOR_",
      "outputs": [
        {
          "internalType": "address",
          "name": "",
          "type": "address"
        }
      ],
      "stateMutability": "view",
      "type": "function"
    },
    {
      "inputs": [],
      "name": "buyingAllowed",
      "outputs": [],
      "stateMutability": "view",
      "type": "function"
    },
    {
      "inputs": [],
      "name": "checkNotClosed",
      "outputs": [],
      "stateMutability": "view",
      "type": "function"
    },
    {
      "inputs": [],
      "name": "checkNotPaused",
      "outputs": [],
      "stateMutability": "view",
      "type": "function"
    },
    {
      "inputs": [],
      "name": "checkOnlySupervisorOrOwner",
      "outputs": [],
      "stateMutability": "view",
      "type": "function"
    },
    {
      "inputs": [],
      "name": "checkParaParameters",
      "outputs": [],
      "stateMutability": "view",
      "type": "function"
    },
    {
      "inputs": [],
      "name": "claimOwnership",
      "outputs": [],
      "stateMutability": "nonpayable",
      "type": "function"
    },
    {
      "inputs": [],
      "name": "depositAllowed",
      "outputs": [],
      "stateMutability": "view",
      "type": "function"
    },
    {
      "inputs": [],
      "name": "gasPriceLimit",
      "outputs": [],
      "stateMutability": "view",
      "type": "function"
    },
    {
      "inputs": [],
      "name": "sellingAllowed",
      "outputs": [],
      "stateMutability": "view",
      "type": "function"
    },
    {
      "inputs": [],
      "name": "tradeAllowed",
      "outputs": [],
      "stateMutability": "view",
      "type": "function"
    },
    {
      "inputs": [
        {
          "internalType": "address",
          "name": "newOwner",
          "type": "address"
        }
      ],
      "name": "transferOwnership",
      "outputs": [],
      "stateMutability": "nonpayable",
      "type": "function"
    },
    {
      "inputs": [],
      "name": "version",
      "outputs": [
        {
          "internalType": "uint256",
          "name": "",
          "type": "uint256"
        }
      ],
      "stateMutability": "pure",
      "type": "function"
    },
    {
      "inputs": [
        {
          "internalType": "address",
          "name": "owner",
          "type": "address"
        },
        {
          "internalType": "address",
          "name": "supervisor",
          "type": "address"
        },
        {
          "internalType": "address",
          "name": "maintainer",
          "type": "address"
        },
        {
          "internalType": "address",
          "name": "collateralToken",
          "type": "address"
        },
        {
          "internalType": "address",
          "name": "oracle",
          "type": "address"
        },
        {
          "internalType": "uint256",
          "name": "lpFeeRate",
          "type": "uint256"
        },
        {
          "internalType": "uint256",
          "name": "mtFeeRate",
          "type": "uint256"
        },
        {
          "internalType": "uint256",
          "name": "k",
          "type": "uint256"
        },
        {
          "internalType": "uint256",
          "name": "gasPriceLimit",
          "type": "uint256"
        }
      ],
      "name": "init",
      "outputs": [],
      "stateMutability": "nonpayable",
      "type": "function"
    },
    {
      "inputs": [
        {
          "internalType": "address",
          "name": "newOracle",
          "type": "address"
        }
      ],
      "name": "setOracle",
      "outputs": [],
      "stateMutability": "nonpayable",
      "type": "function"
    },
    {
      "inputs": [
        {
          "internalType": "address",
          "name": "newSupervisor",
          "type": "address"
        }
      ],
      "name": "setSupervisor",
      "outputs": [],
      "stateMutability": "nonpayable",
      "type": "function"
    },
    {
      "inputs": [
        {
          "internalType": "address",
          "name": "newMaintainer",
          "type": "address"
        }
      ],
      "name": "setMaintainer",
      "outputs": [],
      "stateMutability": "nonpayable",
      "type": "function"
    },
    {
      "inputs": [
        {
          "internalType": "uint256",
          "name": "newLiquidityPorviderFeeRate",
          "type": "uint256"
        }
      ],
      "name": "setLiquidityProviderFeeRate",
      "outputs": [],
      "stateMutability": "nonpayable",
      "type": "function"
    },
    {
      "inputs": [
        {
          "internalType": "uint256",
          "name": "newMaintainerFeeRate",
          "type": "uint256"
        }
      ],
      "name": "setMaintainerFeeRate",
      "outputs": [],
      "stateMutability": "nonpayable",
      "type": "function"
    },
    {
      "inputs": [
        {
          "internalType": "uint256",
          "name": "newK",
          "type": "uint256"
        }
      ],
      "name": "setK",
      "outputs": [],
      "stateMutability": "nonpayable",
      "type": "function"
    },
    {
      "inputs": [
        {
          "internalType": "uint256",
          "name": "newGasPriceLimit",
          "type": "uint256"
        }
      ],
      "name": "setGasPriceLimit",
      "outputs": [],
      "stateMutability": "nonpayable",
      "type": "function"
    },
    {
      "inputs": [],
      "name": "enablePaused",
      "outputs": [],
      "stateMutability": "nonpayable",
      "type": "function"
    },
    {
      "inputs": [],
      "name": "disablePaused",
      "outputs": [],
      "stateMutability": "nonpayable",
      "type": "function"
    },
    {
      "inputs": [],
      "name": "enableClosed",
      "outputs": [],
      "stateMutability": "nonpayable",
      "type": "function"
    },
    {
      "inputs": [],
      "name": "disableClosed",
      "outputs": [],
      "stateMutability": "nonpayable",
      "type": "function"
    },
    {
      "inputs": [],
      "name": "disableDeposit",
      "outputs": [],
      "stateMutability": "nonpayable",
      "type": "function"
    },
    {
      "inputs": [],
      "name": "enableDeposit",
      "outputs": [],
      "stateMutability": "nonpayable",
      "type": "function"
    },
    {
      "inputs": [],
      "name": "disableBuying",
      "outputs": [],
      "stateMutability": "nonpayable",
      "type": "function"
    },
    {
      "inputs": [],
      "name": "enableBuying",
      "outputs": [],
      "stateMutability": "nonpayable",
      "type": "function"
    },
    {
      "inputs": [],
      "name": "disableSelling",
      "outputs": [],
      "stateMutability": "nonpayable",
      "type": "function"
    },
    {
      "inputs": [],
      "name": "enableSelling",
      "outputs": [],
      "stateMutability": "nonpayable",
      "type": "function"
    },
    {
      "inputs": [],
      "name": "enableTrading",
      "outputs": [],
      "stateMutability": "nonpayable",
      "type": "function"
    },
    {
      "inputs": [],
      "name": "disableTrading",
      "outputs": [],
      "stateMutability": "nonpayable",
      "type": "function"
    },
    {
      "inputs": [
        {
          "internalType": "uint256",
          "name": "newInitialMarginRate",
          "type": "uint256"
        }
      ],
      "name": "setInitialMarginRate",
      "outputs": [],
      "stateMutability": "nonpayable",
      "type": "function"
    },
    {
      "inputs": [
        {
          "internalType": "uint256",
          "name": "newMaintenanceMarginRate",
          "type": "uint256"
        }
      ],
      "name": "setMaintenanceMarginRate",
      "outputs": [],
      "stateMutability": "nonpayable",
      "type": "function"
    },
    {
      "inputs": [
        {
          "internalType": "uint256",
          "name": "newPoolOpenTH",
          "type": "uint256"
        }
      ],
      "name": "setPoolOpenTH",
      "outputs": [],
      "stateMutability": "nonpayable",
      "type": "function"
    },
    {
      "inputs": [
        {
          "internalType": "uint256",
          "name": "newPoolLiquidateTH",
          "type": "uint256"
        }
      ],
      "name": "setPoolLiquidateTH",
      "outputs": [],
      "stateMutability": "nonpayable",
      "type": "function"
    },
    {
      "inputs": [
        {
          "internalType": "uint256",
          "name": "newLiquidationPenaltyRate",
          "type": "uint256"
        }
      ],
      "name": "setLiquidationPenaltyRate",
      "outputs": [],
      "stateMutability": "nonpayable",
      "type": "function"
    },
    {
      "inputs": [
        {
          "internalType": "uint256",
          "name": "newLiquidationPenaltyPoolRate",
          "type": "uint256"
        }
      ],
      "name": "setLiquidationPenaltyPoolRate",
      "outputs": [],
      "stateMutability": "nonpayable",
      "type": "function"
    },
    {
      "inputs": [],
      "name": "getOraclePrice",
      "outputs": [
        {
          "internalType": "uint256",
          "name": "",
          "type": "uint256"
        }
      ],
      "stateMutability": "view",
      "type": "function"
    }
  ],
  "bytecode": "0x608060405234801561001057600080fd5b506116bd806100206000396000f3fe608060405234801561001057600080fd5b50600436106103a45760003560e01c80637adbf973116101e9578063aceecbc81161010f578063e5ca3ca3116100ad578063f22204161161007c578063f22204161461062a578063f2fde38b1461063d578063f5cdd20214610650578063fe73ee7314610658576103a4565b8063e5ca3ca3146105ff578063e65c36ef14610612578063ec2fd46d1461061a578063ee3dfe2b14610622576103a4565b8063c30ea2a2116100e9578063c30ea2a2146105df578063cb102dd2146105e7578063cc062b58146105ef578063d76bfbd9146105f7576103a4565b8063aceecbc8146105c7578063bfdf0611146105cf578063c0ffa178146105d7576103a4565b80639299eb30116101875780639ddc3c3d116101565780639ddc3c3d1461059c578063a3161a56146105af578063a4a5e9ad146105b7578063ab44a7a3146105bf576103a4565b80639299eb3014610571578063961a929c1461058457806398a0a53d1461058c5780639c6d79be14610594576103a4565b80638c91d421116101c35780638c91d421146105465780638f8f7eb2146105595780638ff5e7421461056157806390cbf82214610569576103a4565b80637adbf973146105235780638456db15146105365780638a8c523c1461053e576103a4565b806354fd4d50116102ce57806367e93c081161026c57806373a2ab7c1161023b57806373a2ab7c146105035780637720c14f1461050b578063796da7af146105135780637a32bae41461051b576103a4565b806367e93c08146104cb5780636ec6a58d146104de57806370e4b3bd146104f35780637246772c146104fb576103a4565b80635cdeb0d6116102a85780635cdeb0d61461048a57806361ca79d814610492578063679586d8146104a557806367de8be9146104b8576103a4565b806354fd4d5014610467578063580ee2a61461046f5780635bb7552a14610477576103a4565b806321dfc971116103465780633960f142116103155780633960f142146104475780634322ec831461044f5780634de4527e146104575780634e71e0c81461045f576103a4565b806321dfc9711461041c578063246cb2501461042f578063247f993b146104375780632604ee8f1461043f576103a4565b806313ea5d291161038257806313ea5d29146103e45780631493ba6a146103f757806316048bc4146103ff57806317700f0114610414576103a4565b806309231602146103a95780630cc57511146103be57806311187e36146103c6575b600080fd5b6103bc6103b736600461134e565b610660565b005b6103bc6106a8565b6103ce6106f8565b6040516103db9190611670565b60405180910390f35b6103bc6103f236600461129e565b6106fe565b6103bc610770565b6104076107b7565b6040516103db919061137e565b6103bc6107c6565b6103bc61042a36600461134e565b6107db565b6103bc610812565b6103bc610829565b6103bc61083d565b61040761085a565b61040761086f565b6103ce61087e565b6103bc610884565b6103ce610912565b6103ce610917565b6103bc61048536600461134e565b61091d565b6103bc610992565b6103bc6104a036600461134e565b6109a9565b6103bc6104b336600461134e565b6109e0565b6103bc6104c636600461134e565b610a17565b6103bc6104d936600461134e565b610a89565b6104e6610ac0565b6040516103db9190611392565b6104e6610ad0565b6104e6610ae0565b610407610af0565b6103bc610aff565b6103ce610b1c565b6103bc610b9e565b6103bc61053136600461129e565b610bd3565b610407610c1f565b6103bc610c2e565b6103bc61055436600461134e565b610c7a565b6103bc610cb1565b6104e6610cd3565b6103bc610ce1565b6103bc61057f36600461129e565b610d22565b6103bc610d9c565b6103ce610dbe565b6103ce610dc4565b6103bc6105aa36600461134e565b610dca565b6104e6610e01565b6103bc610e0a565b6103ce610e34565b6103bc610e3a565b6103bc610e4f565b6103ce610ed7565b6103bc610edd565b610407610f06565b6103bc610f15565b6103bc610f58565b6103bc61060d3660046112c0565b610f82565b6103bc6110ec565b6103ce611103565b6103bc611109565b6103bc61063836600461134e565b611130565b6103bc61064b36600461129e565b6111a2565b6103ce61124d565b6103ce611253565b610668610770565b7f808f99cfd15f1be6019f93dc76c81d5bd82e0b3e0b3d23a54f5a2e647a6cc3cc6002548260405161069b929190611679565b60405180910390a1600255565b6000546001600160a01b031633146106db5760405162461bcd60e51b81526004016106d29061158a565b60405180910390fd5b6106e3610e0a565b6001805460ff60c01b1916600160c01b179055565b600f5481565b6000546001600160a01b031633146107285760405162461bcd60e51b81526004016106d29061158a565b6001600160a01b03811661074e5760405162461bcd60e51b81526004016106d2906115d0565b600480546001600160a01b0319166001600160a01b0392909216919091179055565b6003546201000090046001600160a01b031633148061079957506000546001600160a01b031633145b6107b55760405162461bcd60e51b81526004016106d2906113e1565b565b6000546001600160a01b031681565b6107ce610770565b6003805461ffff19169055565b6000546001600160a01b031633146108055760405162461bcd60e51b81526004016106d29061158a565b61080d610e0a565b600d55565b61081a610770565b6001805460ff60b81b19169055565b610831610770565b6003805460ff19169055565b610845610770565b6001805460ff60b81b1916600160b81b179055565b6003546201000090046001600160a01b031681565b6004546001600160a01b031681565b60025481565b6001546001600160a01b031633146108ae5760405162461bcd60e51b81526004016106d2906113ba565b600154600080546040516001600160a01b0393841693909116917f8be0079c531659141344cd1fd0a4f28419497f9722a3daafe3b4186f6b6457e091a360018054600080546001600160a01b03199081166001600160a01b03841617909155169055565b606590565b600d5481565b6000546001600160a01b031633146109475760405162461bcd60e51b81526004016106d29061158a565b7f3ce6ea91adda496b7a0546fa6558e5b52c3a509de6015820efb00ca4020e0a076007548260405161097a929190611679565b60405180910390a1600781905561098f610e4f565b50565b61099a610770565b6001805460ff60c01b19169055565b6000546001600160a01b031633146109d35760405162461bcd60e51b81526004016106d29061158a565b6109db610e0a565b600f55565b6000546001600160a01b03163314610a0a5760405162461bcd60e51b81526004016106d29061158a565b610a12610e0a565b600c55565b6000546001600160a01b03163314610a415760405162461bcd60e51b81526004016106d29061158a565b7f023a40bebf7ac113f81c3d628073246cf9e0bc49980a9d6a9531498ce9e3dd1c60095482604051610a74929190611679565b60405180910390a1600981905561098f610e4f565b6000546001600160a01b03163314610ab35760405162461bcd60e51b81526004016106d29061158a565b610abb610e0a565b600b55565b600154600160b81b900460ff1681565b600154600160c01b900460ff1681565b600154600160b01b900460ff1681565b6006546001600160a01b031681565b610b07610770565b6001805460ff60b01b1916600160b01b179055565b60065460408051634c6afee560e11b815290516000926001600160a01b0316916398d5fdca916004808301926020929190829003018186803b158015610b6157600080fd5b505afa158015610b75573d6000803e3d6000fd5b505050506040513d601f19601f82011682018060405250810190610b999190611366565b905090565b60035460ff168015610bb75750600354610100900460ff165b6107b55760405162461bcd60e51b81526004016106d290611445565b6000546001600160a01b03163314610bfd5760405162461bcd60e51b81526004016106d29061158a565b600680546001600160a01b0319166001600160a01b0392909216919091179055565b6001546001600160a01b031681565b6000546001600160a01b03163314610c585760405162461bcd60e51b81526004016106d29061158a565b610c60610e0a565b6003805461ff001960ff1990911660011716610100179055565b6000546001600160a01b03163314610ca45760405162461bcd60e51b81526004016106d29061158a565b610cac610e0a565b600e55565b60035460ff166107b55760405162461bcd60e51b81526004016106d290611644565b600354610100900460ff1681565b6000546001600160a01b03163314610d0b5760405162461bcd60e51b81526004016106d29061158a565b610d13610e0a565b6003805460ff19166001179055565b6000546001600160a01b03163314610d4c5760405162461bcd60e51b81526004016106d29061158a565b6001600160a01b038116610d725760405162461bcd60e51b81526004016106d2906114c2565b600380546001600160a01b03909216620100000262010000600160b01b0319909216919091179055565b6002543a11156107b55760405162461bcd60e51b81526004016106d29061161a565b600a5481565b600c5481565b6000546001600160a01b03163314610df45760405162461bcd60e51b81526004016106d29061158a565b610dfc610e0a565b600a55565b60035460ff1681565b600154600160b81b900460ff16156107b55760405162461bcd60e51b81526004016106d2906114ee565b60075481565b610e42610770565b6003805461ff0019169055565b670de0b6b3a764000060095410610e785760405162461bcd60e51b81526004016106d2906115fc565b600060095411610e9a5760405162461bcd60e51b81526004016106d29061139d565b670de0b6b3a7640000610eba60085460075461125990919063ffffffff16565b106107b55760405162461bcd60e51b81526004016106d290611540565b60085481565b600154600160c01b900460ff166107b55760405162461bcd60e51b81526004016106d290611418565b6005546001600160a01b031681565b6000546001600160a01b03163314610f3f5760405162461bcd60e51b81526004016106d29061158a565b610f47610e0a565b6003805461ff001916610100179055565b600154600160b01b900460ff16156107b55760405162461bcd60e51b81526004016106d290611565565b600154600160a81b900460ff1615610fac5760405162461bcd60e51b81526004016106d290611497565b6001805460ff60a81b1916600160a81b1790556001600160a01b038916610fe55760405162461bcd60e51b81526004016106d290611470565b600080546001600160a01b0319166001600160a01b038b81169190911790915588166110235760405162461bcd60e51b81526004016106d2906114c2565b60038054600480546001600160a01b038b81166001600160a01b031992831617909255600580548b8416908316179055600680548a841692169190911790556001805460ff60c01b19168155600285905561ff001960ff19928d16620100000262010000600160b01b0319909416939093179190911617166101001790556007849055600883905560098290556110b8610e4f565b6040517fe3bb48d67e70db61d4b89662ce2e61ddcadb5390798f090934452098d552e2d290600090a1505050505050505050565b6110f4610770565b6001805460ff60b01b19169055565b60095481565b600354610100900460ff166107b55760405162461bcd60e51b81526004016106d290611513565b6000546001600160a01b0316331461115a5760405162461bcd60e51b81526004016106d29061158a565b7f6b04da3d58e4b37d99652babb3ea2bc25ce94379bfff3059f03d61b26c59e5536008548260405161118d929190611679565b60405180910390a1600881905561098f610e4f565b6000546001600160a01b031633146111cc5760405162461bcd60e51b81526004016106d29061158a565b6001600160a01b0381166111f25760405162461bcd60e51b81526004016106d290611470565b600080546040516001600160a01b03808516939216917fdcf55418cee3220104fef63f979ff3c4097ad240c0c43dcb33ce837748983e6291a3600180546001600160a01b0319166001600160a01b0392909216919091179055565b600e5481565b600b5481565b60008282018381101561127e5760405162461bcd60e51b81526004016106d2906115ad565b90505b92915050565b80356001600160a01b038116811461128157600080fd5b6000602082840312156112af578081fd5b6112b98383611287565b9392505050565b60008060008060008060008060006101208a8c0312156112de578485fd5b6112e88b8b611287565b98506112f78b60208c01611287565b97506113068b60408c01611287565b96506113158b60608c01611287565b95506113248b60808c01611287565b989b979a50959894979660a0860135965060c08601359560e0810135955061010001359350915050565b60006020828403121561135f578081fd5b5035919050565b600060208284031215611377578081fd5b5051919050565b6001600160a01b0391909116815260200190565b901515815260200190565b60208082526003908201526204b3d360ec1b604082015260600190565b6020808252600d908201526c494e56414c49445f434c41494d60981b604082015260600190565b60208082526017908201527f4e4f545f53555045525649534f525f4f525f4f574e4552000000000000000000604082015260600190565b60208082526013908201527211115413d4d25517d393d517d0531313d5d151606a1b604082015260600190565b602080825260119082015270151490511157d393d517d0531313d5d151607a1b604082015260600190565b6020808252600d908201526c24a72b20a624a22fa7aba722a960991b604082015260600190565b602080825260119082015270105113525397d253925512505312569151607a1b604082015260600190565b60208082526012908201527124a72b20a624a22fa9aaa822a92b24a9a7a960711b604082015260600190565b6020808252600b908201526a1410549057d0d313d4d15160aa1b604082015260600190565b60208082526013908201527214d15313125391d7d393d517d0531313d5d151606a1b604082015260600190565b6020808252600b908201526a4645455f524154453e3d3160a81b604082015260600190565b6020808252600b908201526a1410549057d4105554d15160aa1b604082015260600190565b6020808252600990820152682727aa2fa7aba722a960b91b604082015260600190565b60208082526009908201526820a2222fa2a92927a960b91b604082015260600190565b60208082526012908201527124a72b20a624a22fa6a0a4a72a20a4a722a960711b604082015260600190565b6020808252600490820152634b3e3d3160e01b604082015260600190565b60208082526010908201526f11d054d7d4149250d157d15610d1515160821b604082015260600190565b602080825260129082015271109556525391d7d393d517d0531313d5d15160721b604082015260600190565b90815260200190565b91825260208201526040019056fea26469706673582212201df7ae15201295384620b9e499fb131b191c83f90449710edfc30253c6a6d05964736f6c63430006090033",
  "immutableReferences": {},
  "source": "/*\n\n    Copyright 2020 DODO ZOO.\n    SPDX-License-Identifier: Apache-2.0\n\n*/\n\npragma solidity 0.6.9;\npragma experimental ABIEncoderV2;\n\nimport {Storage} from \"./Storage.sol\";\nimport {IOracle} from \"../interface/IOracle.sol\";\n\n\n/**\n * @title admin\n * @author parapara\n *\n * @notice Functions for admin operations\n */\ncontract Admin is Storage {\n    // ============ Events ============\n    event CreateAdmin();\n\n    event UpdateGasPriceLimit(uint256 oldGasPriceLimit, uint256 newGasPriceLimit);\n\n    event UpdateLiquidityProviderFeeRate(\n        uint256 oldLiquidityProviderFeeRate,\n        uint256 newLiquidityProviderFeeRate\n    );\n\n    event UpdateMaintainerFeeRate(uint256 oldMaintainerFeeRate, uint256 newMaintainerFeeRate);\n\n    event UpdateK(uint256 oldK, uint256 newK);\n\n\n    // ============ Params Setting Functions ============\n    function init(\n        address owner,\n        address supervisor,\n        address maintainer,\n        address collateralToken,\n        address oracle,\n        uint256 lpFeeRate,\n        uint256 mtFeeRate,\n        uint256 k,\n        uint256 gasPriceLimit\n    ) external {\n        require(!_INITIALIZED_, \"ADMIN_INITIALIZED\");\n        _INITIALIZED_ = true;\n        require(owner != address(0), \"INVALID_OWNER\");\n        _OWNER_ = owner;\n        require(supervisor != address(0), \"INVALID_SUPERVISOR\");\n        _SUPERVISOR_ = supervisor;\n        _MAINTAINER_ = maintainer;\n        _COLLATERAL_TOKEN_ = collateralToken;\n        _ORACLE_ = oracle;\n\n        _DEPOSIT_ALLOWED_ = false;\n        _GAS_PRICE_LIMIT_ = gasPriceLimit;\n\n        // Advanced controls are disabled by default\n        _BUYING_ALLOWED_ = true;\n        _SELLING_ALLOWED_ = true;\n\n        _LP_FEE_RATE_ = lpFeeRate;\n        _MT_FEE_RATE_ = mtFeeRate;\n        _K_ = k;\n\n\n        checkParaParameters();\n        emit CreateAdmin();\n    }\n\n\n    function setOracle(address newOracle) external onlyOwner {\n        _ORACLE_ = newOracle;\n    }\n\n    function setSupervisor(address newSupervisor) external onlyOwner {\n        require(newSupervisor != address(0), \"INVALID_SUPERVISOR\");\n        _SUPERVISOR_ = newSupervisor;\n    }\n\n    function setMaintainer(address newMaintainer) external onlyOwner {\n        require(newMaintainer != address(0), \"INVALID_MAINTAINER\");\n        _MAINTAINER_ = newMaintainer;\n    }\n\n    function setLiquidityProviderFeeRate(uint256 newLiquidityPorviderFeeRate) external onlyOwner {\n        emit UpdateLiquidityProviderFeeRate(_LP_FEE_RATE_, newLiquidityPorviderFeeRate);\n        _LP_FEE_RATE_ = newLiquidityPorviderFeeRate;\n        checkParaParameters();\n    }\n\n    function setMaintainerFeeRate(uint256 newMaintainerFeeRate) external onlyOwner {\n        emit UpdateMaintainerFeeRate(_MT_FEE_RATE_, newMaintainerFeeRate);\n        _MT_FEE_RATE_ = newMaintainerFeeRate;\n        checkParaParameters();\n    }\n\n    function setK(uint256 newK) external onlyOwner {\n        emit UpdateK(_K_, newK);\n        _K_ = newK;\n        checkParaParameters();\n    }\n\n    function setGasPriceLimit(uint256 newGasPriceLimit) external {\n        checkOnlySupervisorOrOwner();\n        emit UpdateGasPriceLimit(_GAS_PRICE_LIMIT_, newGasPriceLimit);\n        _GAS_PRICE_LIMIT_ = newGasPriceLimit;\n    }\n\n    // ============ System Control Functions ============\n    function enablePaused() external {\n        checkOnlySupervisorOrOwner();\n        _PAUSED_ = true;\n    }\n\n    function disablePaused() external {\n        checkOnlySupervisorOrOwner();\n        _PAUSED_ = false;\n    }\n\n    function enableClosed() external {\n        checkOnlySupervisorOrOwner();\n        _CLOSED_ = true;\n    }\n\n    function disableClosed() external {\n        checkOnlySupervisorOrOwner();\n        _CLOSED_ = false;\n    }\n\n    function disableDeposit() external {\n        checkOnlySupervisorOrOwner();\n        _DEPOSIT_ALLOWED_ = false;\n    }\n\n    function enableDeposit() external onlyOwner {\n        checkNotClosed();\n        _DEPOSIT_ALLOWED_ = true;\n    }\n\n    function disableBuying() external {\n        checkOnlySupervisorOrOwner();\n        _BUYING_ALLOWED_ = false;\n    }\n\n    function enableBuying() external onlyOwner {\n        checkNotClosed();\n        _BUYING_ALLOWED_ = true;\n    }\n\n    function disableSelling() external {\n        checkOnlySupervisorOrOwner();\n        _SELLING_ALLOWED_ = false;\n    }\n\n    function enableSelling() external onlyOwner {\n        checkNotClosed();\n        _SELLING_ALLOWED_ = true;\n    }\n\n    function enableTrading() external onlyOwner {\n        checkNotClosed();\n        _BUYING_ALLOWED_ = true;\n        _SELLING_ALLOWED_ = true;\n    }\n\n    function disableTrading() external {\n        checkOnlySupervisorOrOwner();\n        _BUYING_ALLOWED_ = false;\n        _SELLING_ALLOWED_ = false;\n    }\n\n    function setInitialMarginRate(uint256 newInitialMarginRate) external onlyOwner {\n        checkNotClosed();\n        _INITIAL_MARGIN_RATE_ = newInitialMarginRate;\n    }\n\n    function setMaintenanceMarginRate(uint256 newMaintenanceMarginRate) external onlyOwner {\n        checkNotClosed();\n        _MAINTENANCE_MARGIN_RATE_ = newMaintenanceMarginRate;\n    }\n\n    function setPoolOpenTH(uint256 newPoolOpenTH) external onlyOwner {\n        checkNotClosed();\n        _POOL_OPEN_TH_ = newPoolOpenTH;\n    }\n\n    function setPoolLiquidateTH(uint256 newPoolLiquidateTH) external onlyOwner {\n        checkNotClosed();\n        _POOL_LIQUIDATE_TH_ = newPoolLiquidateTH;\n    }\n\n    function setLiquidationPenaltyRate(uint256 newLiquidationPenaltyRate) external onlyOwner {\n        checkNotClosed();\n        _LIQUIDATION_PENALTY_RATE_ = newLiquidationPenaltyRate;\n    }\n\n    function setLiquidationPenaltyPoolRate(uint256 newLiquidationPenaltyPoolRate) external onlyOwner {\n        checkNotClosed();\n        _LIQUIDATION_PENALTY_POOL_RATE_ = newLiquidationPenaltyPoolRate;\n    }\n\n\n    // ============ Helper function ============\n    function getOraclePrice() external view returns (uint256) {\n        return IOracle(_ORACLE_).getPrice();\n    }\n\n}\n\n",
  "sourcePath": "/Users/daniel/Codes/parapara/para_dapp_v6/contracts/admin/Admin.sol",
  "compiler": {
    "name": "solc",
    "version": "0.6.9+commit.3e3065ac.Emscripten.clang"
  },
  "schemaVersion": "3.3.4",
  "updatedAt": "2021-03-26T06:46:20.068Z",
  "devdoc": {
    "author": "parapara",
    "methods": {},
    "title": "admin"
  },
  "userdoc": {
    "methods": {},
    "notice": "Functions for admin operations"
  }
}