{
  "contractName": "LiquidityProvider",
  "abi": [
    {
      "anonymous": false,
      "inputs": [
        {
          "indexed": true,
          "internalType": "address",
          "name": "user",
          "type": "address"
        },
        {
          "indexed": false,
          "internalType": "uint256",
          "name": "baseTokenAmount",
          "type": "uint256"
        },
        {
          "indexed": false,
          "internalType": "uint256",
          "name": "quoteTokenAmount",
          "type": "uint256"
        }
      ],
      "name": "ClaimAssets",
      "type": "event"
    },
    {
      "anonymous": false,
      "inputs": [
        {
          "indexed": true,
          "internalType": "address",
          "name": "trader",
          "type": "address"
        },
        {
          "indexed": false,
          "internalType": "uint256",
          "name": "amount",
          "type": "uint256"
        },
        {
          "indexed": false,
          "internalType": "int256",
          "name": "balance",
          "type": "int256"
        }
      ],
      "name": "Deposit",
      "type": "event"
    },
    {
      "anonymous": false,
      "inputs": [
        {
          "indexed": false,
          "internalType": "uint256",
          "name": "amount",
          "type": "uint256"
        }
      ],
      "name": "Donate",
      "type": "event"
    },
    {
      "anonymous": false,
      "inputs": [
        {
          "indexed": true,
          "internalType": "address",
          "name": "trader",
          "type": "address"
        },
        {
          "indexed": false,
          "internalType": "int256",
          "name": "amount",
          "type": "int256"
        },
        {
          "indexed": false,
          "internalType": "int256",
          "name": "balanceAfter",
          "type": "int256"
        }
      ],
      "name": "InternalUpdateBalance",
      "type": "event"
    },
    {
      "anonymous": false,
      "inputs": [
        {
          "indexed": true,
          "internalType": "address",
          "name": "trader",
          "type": "address"
        },
        {
          "indexed": true,
          "internalType": "address",
          "name": "liquidator",
          "type": "address"
        },
        {
          "indexed": false,
          "internalType": "enum Types.Side",
          "name": "liquidationSide",
          "type": "uint8"
        },
        {
          "indexed": false,
          "internalType": "uint256",
          "name": "liquidationValue",
          "type": "uint256"
        },
        {
          "indexed": false,
          "internalType": "uint256",
          "name": "liquidationAmount",
          "type": "uint256"
        }
      ],
      "name": "Liquidate",
      "type": "event"
    },
    {
      "anonymous": false,
      "inputs": [
        {
          "indexed": true,
          "internalType": "address",
          "name": "payer",
          "type": "address"
        },
        {
          "indexed": true,
          "internalType": "address",
          "name": "receiver",
          "type": "address"
        },
        {
          "indexed": false,
          "internalType": "uint256",
          "name": "amount",
          "type": "uint256"
        },
        {
          "indexed": false,
          "internalType": "uint256",
          "name": "lpTokenAmount",
          "type": "uint256"
        }
      ],
      "name": "LpDeposit",
      "type": "event"
    },
    {
      "anonymous": false,
      "inputs": [
        {
          "indexed": true,
          "internalType": "address",
          "name": "payer",
          "type": "address"
        },
        {
          "indexed": true,
          "internalType": "address",
          "name": "receiver",
          "type": "address"
        },
        {
          "indexed": false,
          "internalType": "uint256",
          "name": "amount",
          "type": "uint256"
        },
        {
          "indexed": false,
          "internalType": "uint256",
          "name": "lpTokenAmount",
          "type": "uint256"
        }
      ],
      "name": "LpWithdraw",
      "type": "event"
    },
    {
      "anonymous": false,
      "inputs": [
        {
          "indexed": true,
          "internalType": "address",
          "name": "previousOwner",
          "type": "address"
        },
        {
          "indexed": true,
          "internalType": "address",
          "name": "newOwner",
          "type": "address"
        }
      ],
      "name": "OwnershipTransferPrepared",
      "type": "event"
    },
    {
      "anonymous": false,
      "inputs": [
        {
          "indexed": true,
          "internalType": "address",
          "name": "previousOwner",
          "type": "address"
        },
        {
          "indexed": true,
          "internalType": "address",
          "name": "newOwner",
          "type": "address"
        }
      ],
      "name": "OwnershipTransferred",
      "type": "event"
    },
    {
      "anonymous": false,
      "inputs": [
        {
          "indexed": true,
          "internalType": "address",
          "name": "trader",
          "type": "address"
        },
        {
          "indexed": false,
          "internalType": "uint256",
          "name": "amount",
          "type": "uint256"
        },
        {
          "indexed": false,
          "internalType": "int256",
          "name": "balance",
          "type": "int256"
        }
      ],
      "name": "Withdraw",
      "type": "event"
    },
    {
      "inputs": [],
      "name": "ADMIN",
      "outputs": [
        {
          "internalType": "contract Admin",
          "name": "",
          "type": "address"
        }
      ],
      "stateMutability": "view",
      "type": "function"
    },
    {
      "inputs": [],
      "name": "PRICING",
      "outputs": [
        {
          "internalType": "contract Pricing",
          "name": "",
          "type": "address"
        }
      ],
      "stateMutability": "view",
      "type": "function"
    },
    {
      "inputs": [],
      "name": "_BASE_BALANCE_",
      "outputs": [
        {
          "internalType": "uint256",
          "name": "",
          "type": "uint256"
        }
      ],
      "stateMutability": "view",
      "type": "function"
    },
    {
      "inputs": [],
      "name": "_COLLATERAL_POOL_TOKEN_",
      "outputs": [
        {
          "internalType": "address",
          "name": "",
          "type": "address"
        }
      ],
      "stateMutability": "view",
      "type": "function"
    },
    {
      "inputs": [
        {
          "internalType": "address",
          "name": "",
          "type": "address"
        }
      ],
      "name": "_MARGIN_ACCOUNT_",
      "outputs": [
        {
          "internalType": "enum Types.Side",
          "name": "SIDE",
          "type": "uint8"
        },
        {
          "internalType": "uint256",
          "name": "SIZE",
          "type": "uint256"
        },
        {
          "internalType": "uint256",
          "name": "ENTRY_VALUE",
          "type": "uint256"
        },
        {
          "internalType": "int256",
          "name": "CASH_BALANCE",
          "type": "int256"
        }
      ],
      "stateMutability": "view",
      "type": "function"
    },
    {
      "inputs": [],
      "name": "_NEW_OWNER_",
      "outputs": [
        {
          "internalType": "address",
          "name": "",
          "type": "address"
        }
      ],
      "stateMutability": "view",
      "type": "function"
    },
    {
      "inputs": [],
      "name": "_OWNER_",
      "outputs": [
        {
          "internalType": "address",
          "name": "",
          "type": "address"
        }
      ],
      "stateMutability": "view",
      "type": "function"
    },
    {
      "inputs": [],
      "name": "_POOL_INSURANCE_BALANCE_",
      "outputs": [
        {
          "internalType": "uint256",
          "name": "",
          "type": "uint256"
        }
      ],
      "stateMutability": "view",
      "type": "function"
    },
    {
      "inputs": [],
      "name": "_POOL_MARGIN_ACCOUNT_",
      "outputs": [
        {
          "internalType": "enum Types.Side",
          "name": "SIDE",
          "type": "uint8"
        },
        {
          "internalType": "uint256",
          "name": "SIZE",
          "type": "uint256"
        },
        {
          "internalType": "uint256",
          "name": "ENTRY_VALUE",
          "type": "uint256"
        },
        {
          "internalType": "int256",
          "name": "CASH_BALANCE",
          "type": "int256"
        }
      ],
      "stateMutability": "view",
      "type": "function"
    },
    {
      "inputs": [],
      "name": "_QUOTE_BALANCE_",
      "outputs": [
        {
          "internalType": "uint256",
          "name": "",
          "type": "uint256"
        }
      ],
      "stateMutability": "view",
      "type": "function"
    },
    {
      "inputs": [],
      "name": "_R_STATUS_",
      "outputs": [
        {
          "internalType": "enum Types.Side",
          "name": "",
          "type": "uint8"
        }
      ],
      "stateMutability": "view",
      "type": "function"
    },
    {
      "inputs": [],
      "name": "_TARGET_BASE_TOKEN_AMOUNT_",
      "outputs": [
        {
          "internalType": "uint256",
          "name": "",
          "type": "uint256"
        }
      ],
      "stateMutability": "view",
      "type": "function"
    },
    {
      "inputs": [],
      "name": "_TARGET_QUOTE_TOKEN_AMOUNT_",
      "outputs": [
        {
          "internalType": "uint256",
          "name": "",
          "type": "uint256"
        }
      ],
      "stateMutability": "view",
      "type": "function"
    },
    {
      "inputs": [
        {
          "components": [
            {
              "internalType": "enum Types.Side",
              "name": "SIDE",
              "type": "uint8"
            },
            {
              "internalType": "uint256",
              "name": "SIZE",
              "type": "uint256"
            },
            {
              "internalType": "uint256",
              "name": "ENTRY_VALUE",
              "type": "uint256"
            },
            {
              "internalType": "int256",
              "name": "CASH_BALANCE",
              "type": "int256"
            }
          ],
          "internalType": "struct Types.MarginAccount",
          "name": "account",
          "type": "tuple"
        },
        {
          "internalType": "uint256",
          "name": "markPrice",
          "type": "uint256"
        }
      ],
      "name": "availableMargin",
      "outputs": [
        {
          "internalType": "int256",
          "name": "",
          "type": "int256"
        }
      ],
      "stateMutability": "view",
      "type": "function"
    },
    {
      "inputs": [
        {
          "components": [
            {
              "internalType": "enum Types.Side",
              "name": "SIDE",
              "type": "uint8"
            },
            {
              "internalType": "uint256",
              "name": "SIZE",
              "type": "uint256"
            },
            {
              "internalType": "uint256",
              "name": "ENTRY_VALUE",
              "type": "uint256"
            },
            {
              "internalType": "int256",
              "name": "CASH_BALANCE",
              "type": "int256"
            }
          ],
          "internalType": "struct Types.MarginAccount",
          "name": "account",
          "type": "tuple"
        }
      ],
      "name": "balanceMargin",
      "outputs": [
        {
          "internalType": "int256",
          "name": "",
          "type": "int256"
        }
      ],
      "stateMutability": "view",
      "type": "function"
    },
    {
      "inputs": [],
      "name": "claimOwnership",
      "outputs": [],
      "stateMutability": "nonpayable",
      "type": "function"
    },
    {
      "inputs": [
        {
          "internalType": "address",
          "name": "from",
          "type": "address"
        },
        {
          "internalType": "uint256",
          "name": "amount",
          "type": "uint256"
        }
      ],
      "name": "collateralTraderTransferIn",
      "outputs": [],
      "stateMutability": "nonpayable",
      "type": "function"
    },
    {
      "inputs": [
        {
          "internalType": "address",
          "name": "to",
          "type": "address"
        },
        {
          "internalType": "uint256",
          "name": "amount",
          "type": "uint256"
        }
      ],
      "name": "collateralTraderTransferOut",
      "outputs": [],
      "stateMutability": "nonpayable",
      "type": "function"
    },
    {
      "inputs": [],
      "name": "getPoolMarginCashBalance",
      "outputs": [
        {
          "internalType": "int256",
          "name": "",
          "type": "int256"
        }
      ],
      "stateMutability": "view",
      "type": "function"
    },
    {
      "inputs": [],
      "name": "getPoolMarginEntryValue",
      "outputs": [
        {
          "internalType": "uint256",
          "name": "",
          "type": "uint256"
        }
      ],
      "stateMutability": "view",
      "type": "function"
    },
    {
      "inputs": [],
      "name": "getPoolMarginSide",
      "outputs": [
        {
          "internalType": "enum Types.Side",
          "name": "",
          "type": "uint8"
        }
      ],
      "stateMutability": "view",
      "type": "function"
    },
    {
      "inputs": [],
      "name": "getPoolMarginSize",
      "outputs": [
        {
          "internalType": "uint256",
          "name": "",
          "type": "uint256"
        }
      ],
      "stateMutability": "view",
      "type": "function"
    },
    {
      "inputs": [
        {
          "internalType": "uint256",
          "name": "amount",
          "type": "uint256"
        },
        {
          "internalType": "uint256",
          "name": "markPrice",
          "type": "uint256"
        }
      ],
      "name": "initialMargin",
      "outputs": [
        {
          "internalType": "uint256",
          "name": "",
          "type": "uint256"
        }
      ],
      "stateMutability": "view",
      "type": "function"
    },
    {
      "inputs": [
        {
          "internalType": "address",
          "name": "trader",
          "type": "address"
        }
      ],
      "name": "isSafeMaintain",
      "outputs": [
        {
          "internalType": "bool",
          "name": "",
          "type": "bool"
        }
      ],
      "stateMutability": "view",
      "type": "function"
    },
    {
      "inputs": [
        {
          "components": [
            {
              "internalType": "enum Types.Side",
              "name": "SIDE",
              "type": "uint8"
            },
            {
              "internalType": "uint256",
              "name": "SIZE",
              "type": "uint256"
            },
            {
              "internalType": "uint256",
              "name": "ENTRY_VALUE",
              "type": "uint256"
            },
            {
              "internalType": "int256",
              "name": "CASH_BALANCE",
              "type": "int256"
            }
          ],
          "internalType": "struct Types.MarginAccount",
          "name": "account",
          "type": "tuple"
        },
        {
          "internalType": "uint256",
          "name": "openValue",
          "type": "uint256"
        }
      ],
      "name": "isSafeOpen",
      "outputs": [
        {
          "internalType": "bool",
          "name": "",
          "type": "bool"
        }
      ],
      "stateMutability": "view",
      "type": "function"
    },
    {
      "inputs": [
        {
          "internalType": "address",
          "name": "liquidator",
          "type": "address"
        },
        {
          "internalType": "address",
          "name": "trader",
          "type": "address"
        }
      ],
      "name": "liquidate",
      "outputs": [],
      "stateMutability": "nonpayable",
      "type": "function"
    },
    {
      "inputs": [
        {
          "internalType": "uint256",
          "name": "amount",
          "type": "uint256"
        },
        {
          "internalType": "uint256",
          "name": "markPrice",
          "type": "uint256"
        }
      ],
      "name": "maintenanceMargin",
      "outputs": [
        {
          "internalType": "uint256",
          "name": "",
          "type": "uint256"
        }
      ],
      "stateMutability": "view",
      "type": "function"
    },
    {
      "inputs": [
        {
          "internalType": "address",
          "name": "newOwner",
          "type": "address"
        }
      ],
      "name": "transferOwnership",
      "outputs": [],
      "stateMutability": "nonpayable",
      "type": "function"
    },
    {
      "inputs": [
        {
          "internalType": "uint256",
          "name": "amount",
          "type": "uint256"
        }
      ],
      "name": "depositCollateral",
      "outputs": [],
      "stateMutability": "nonpayable",
      "type": "function"
    },
    {
      "inputs": [
        {
          "internalType": "uint256",
          "name": "amount",
          "type": "uint256"
        }
      ],
      "name": "withdrawCollateral",
      "outputs": [],
      "stateMutability": "nonpayable",
      "type": "function"
    },
    {
      "inputs": [],
      "name": "withdrawAllCollateral",
      "outputs": [],
      "stateMutability": "nonpayable",
      "type": "function"
    },
    {
      "inputs": [
        {
          "internalType": "address",
          "name": "lp",
          "type": "address"
        }
      ],
      "name": "getCollateralPoolTokenBalanceOf",
      "outputs": [
        {
          "internalType": "uint256",
          "name": "",
          "type": "uint256"
        }
      ],
      "stateMutability": "view",
      "type": "function"
    },
    {
      "inputs": [],
      "name": "getTotalCollateralPoolToken",
      "outputs": [
        {
          "internalType": "uint256",
          "name": "",
          "type": "uint256"
        }
      ],
      "stateMutability": "view",
      "type": "function"
    }
  ],
  "bytecode": "0x6080604052600e805460ff1916905534801561001a57600080fd5b50612dad8061002a6000396000f3fe608060405234801561001057600080fd5b50600436106101fb5760003560e01c80638456db151161011a578063b35b08e9116100ad578063eab5d20e1161007c578063eab5d20e146103a8578063f2fde38b146103b0578063f5027dd4146103c3578063f9f8eda8146103d6578063fa6a5eae146103de576101fb565b8063b35b08e914610372578063b4cab95514610385578063bad4a01f1461038d578063d6b41298146103a0576101fb565b8063a163805c116100e9578063a163805c14610347578063b192a3eb1461034f578063b1e0736614610357578063b2094fd31461036a576101fb565b80638456db151461030c57806386b9d81f146103145780638bc60bff14610327578063901b48101461033f576101fb565b8063319be760116101925780636112fe2e116101615780636112fe2e146102e157806372decd7a146102f457806373749567146102fc5780637c9b8e8914610304576101fb565b8063319be760146102a057806338873925146102b35780633d23755d146102c65780634e71e0c8146102d9576101fb565b806322d779cc116101ce57806322d779cc14610273578063245c9685146102885780632a0acc6a146102905780632b32812a14610298576101fb565b80630e23d6441461020057806313ddd8fb1461022957806316048bc41461024957806317be952e1461025e575b600080fd5b61021361020e366004612702565b6103f1565b6040516102209190612933565b60405180910390f35b61023c61023736600461262f565b61049d565b6040516102209190612856565b6102516105b2565b6040516102209190612805565b6102666105c1565b6040516102209190612861565b61028661028136600461269f565b6105ca565b005b6102136105d8565b6102516105de565b6102136105ed565b6102136102ae36600461271d565b6105f3565b6102136102c136600461275f565b610627565b6102136102d436600461262f565b6106c1565b610286610743565b6102866102ef366004612747565b6107da565b6102136107e7565b6102866107ed565b6102136107f8565b6102516107fe565b610286610322366004612667565b61080d565b61032f6109e7565b60405161022094939291906128b2565b6102136109fc565b610251610a89565b610251610a98565b61032f61036536600461262f565b610aa7565b610213610ad2565b61021361038036600461275f565b610ad8565b610213610b35565b61028661039b366004612747565b610b3b565b610266610b45565b610213610b4e565b6102866103be36600461262f565b610b54565b61023c6103d136600461271d565b610bff565b610213610ce0565b6102866103ec36600461269f565b610ce6565b60035481516020830151604080850151905163a3ffd1cb60e01b8152600094610495946001600160a01b039091169363a3ffd1cb936104349382906004016128db565b60206040518083038186803b15801561044c57600080fd5b505afa158015610460573d6000803e3d6000fd5b505050506040513d601f19601f8201168201806040525081019061048491906126ea565b60608401519063ffffffff610cf016565b90505b919050565b60006104a761259c565b6001600160a01b038316600090815260096020526040908190208151608081019092528054829060ff1660028111156104dc57fe5b60028111156104e757fe5b8152602001600182015481526020016002820154815260200160038201548152505090506105a161059c8260200151600360009054906101000a90046001600160a01b03166001600160a01b031663ee27c6896040518163ffffffff1660e01b815260040160206040518083038186803b15801561056457600080fd5b505afa158015610578573d6000803e3d6000fd5b505050506040513d601f19601f8201168201806040525081019061038091906126ea565b610d36565b6105aa826103f1565b139392505050565b6000546001600160a01b031681565b600e5460ff1681565b6105d48282610d63565b5050565b600b5481565b6002546001600160a01b031681565b60065490565b600061061e61060961059c856020015185610627565b610612856103f1565b9063ffffffff610e5d16565b90505b92915050565b600061061e6106368385610ea3565b600260009054906101000a90046001600160a01b03166001600160a01b03166398a0a53d6040518163ffffffff1660e01b815260040160206040518083038186803b15801561068457600080fd5b505afa158015610698573d6000803e3d6000fd5b505050506040513d601f19601f820116820180604052508101906106bc91906126ea565b610ea3565b600480546040516370a0823160e01b81526000926001600160a01b03909216916370a08231916106f391869101612805565b60206040518083038186803b15801561070b57600080fd5b505afa15801561071f573d6000803e3d6000fd5b505050506040513d601f19601f8201168201806040525081019061049591906126ea565b6001546001600160a01b031633146107765760405162461bcd60e51b815260040161076d90612981565b60405180910390fd5b600154600080546040516001600160a01b0393841693909116917f8be0079c531659141344cd1fd0a4f28419497f9722a3daafe3b4186f6b6457e091a360018054600080546001600160a01b03199081166001600160a01b03841617909155169055565b6107e43382610ecd565b50565b60085490565b6107f633611389565b565b600d5481565b6001546001600160a01b031681565b6108168161049d565b156108335760405162461bcd60e51b815260040161076d90612be4565b61083b61259c565b6001600160a01b038316600090815260096020526040908190208151608081019092528054829060ff16600281111561087057fe5b600281111561087b57fe5b8152602001600182015481526020016002820154815260200160038201548152505090506108a761259c565b6001600160a01b038316600090815260096020526040908190208151608081019092528054829060ff1660028111156108dc57fe5b60028111156108e757fe5b8152602001600182015481526020016002820154815260200160038201548152505090506000600360009054906101000a90046001600160a01b03166001600160a01b0316634b0301a5836000015184602001516040518363ffffffff1660e01b8152600401610958929190612876565b60206040518083038186803b15801561097057600080fd5b505afa158015610984573d6000803e3d6000fd5b505050506040513d601f19601f820116820180604052508101906109a891906126ea565b90506109b48382610bff565b6109d05760405162461bcd60e51b815260040161076d90612aa6565b6109e085858385602001516113d1565b5050505050565b60055460065460075460085460ff9093169284565b6000600460009054906101000a90046001600160a01b03166001600160a01b03166318160ddd6040518163ffffffff1660e01b815260040160206040518083038186803b158015610a4c57600080fd5b505afa158015610a60573d6000803e3d6000fd5b505050506040513d601f19601f82011682018060405250810190610a8491906126ea565b905090565b6003546001600160a01b031681565b6004546001600160a01b031681565b600960205260009081526040902080546001820154600283015460039093015460ff90921692909184565b600a5481565b600061061e610ae78385610ea3565b600260009054906101000a90046001600160a01b03166001600160a01b031663fe73ee736040518163ffffffff1660e01b815260040160206040518083038186803b15801561068457600080fd5b60075490565b6107e433826118cd565b60055460ff1690565b600c5481565b6000546001600160a01b03163314610b7e5760405162461bcd60e51b815260040161076d90612bc1565b6001600160a01b038116610ba45760405162461bcd60e51b815260040161076d90612b9a565b600080546040516001600160a01b03808516939216917fdcf55418cee3220104fef63f979ff3c4097ad240c0c43dcb33ce837748983e6291a3600180546001600160a01b0319166001600160a01b0392909216919091179055565b6000610c5661059c83600260009054906101000a90046001600160a01b03166001600160a01b03166398a0a53d6040518163ffffffff1660e01b815260040160206040518083038186803b15801561068457600080fd5b6105aa84600360009054906101000a90046001600160a01b03166001600160a01b031663ee27c6896040518163ffffffff1660e01b815260040160206040518083038186803b158015610ca857600080fd5b505afa158015610cbc573d6000803e3d6000fd5b505050506040513d601f19601f820116820180604052508101906102ae91906126ea565b600f5481565b6105d48282611d82565b6000828201818312801590610d055750838112155b80610d1a5750600083128015610d1a57508381125b61061e5760405162461bcd60e51b815260040161076d90612a30565b60006001600160ff1b03821115610d5f5760405162461bcd60e51b815260040161076d90612cbf565b5090565b610e06823083600260009054906101000a90046001600160a01b03166001600160a01b031663cb102dd26040518163ffffffff1660e01b815260040160206040518083038186803b158015610db757600080fd5b505afa158015610dcb573d6000803e3d6000fd5b505050506040513d601f19601f82011682018060405250810190610def919061264b565b6001600160a01b031692919063ffffffff611e6516565b610e3a610e1282610d36565b6001600160a01b0384166000908152600960205260409020600301549063ffffffff610cf016565b6001600160a01b0390921660009081526009602052604090206003019190915550565b6000818303818312801590610e725750838113155b80610e875750600083128015610e8757508381135b61061e5760405162461bcd60e51b815260040161076d90612c31565b6000670de0b6b3a7640000610ebe848463ffffffff611ec316565b81610ec557fe5b049392505050565b600154600160a01b900460ff1615610ef75760405162461bcd60e51b815260040161076d90612a0d565b6001805460ff60a01b1916600160a01b1790556002546040805163a4a5e9ad60e01b815290516001600160a01b039092169163a4a5e9ad91600480820192600092909190829003018186803b158015610f4f57600080fd5b505afa158015610f63573d6000803e3d6000fd5b50505050600260009054906101000a90046001600160a01b03166001600160a01b031663d76bfbd96040518163ffffffff1660e01b815260040160006040518083038186803b158015610fb557600080fd5b505afa158015610fc9573d6000803e3d6000fd5b505050506000610fd76109fc565b905060008111610ff95760405162461bcd60e51b815260040161076d906129a8565b60006110146110088484611efd565b6008546106bc90611f27565b90506110208482611f49565b600080600061102f8686611efd565b9050600060055460ff16600281111561104457fe5b146111f85761105881600560010154610ea3565b925061106981600560020154610ea3565b915061107361259c565b33600090815260096020526040908190208151608081019092528054829060ff16600281111561109f57fe5b60028111156110aa57fe5b8152602001600182015481526020016002820154815260200160038201548152505090506110d661259c565b604080516080810190915260058054829060ff1660028111156110f557fe5b600281111561110057fe5b8152600182015460208201526002820154604082015260039091015460609091015260055490915061113890839060ff168688611f93565b6005549092506111579082906111509060ff1661205e565b8688611f93565b336000908152600960205260409020835181549293508492829060ff1916600183600281111561118357fe5b021790555060208201518160010155604082015181600201556060820151816003015590505080600560008201518160000160006101000a81548160ff021916908360028111156111d057fe5b0217905550602082015160018201556040820151600282015560609091015160039091015550505b6000806000806000600360009054906101000a90046001600160a01b03166001600160a01b031663ffa642256040518163ffffffff1660e01b815260040160a06040518083038186803b15801561124e57600080fd5b505afa158015611262573d6000803e3d6000fd5b505050506040513d601f19601f820116820180604052508101906112869190612780565b9398509196509450925090506112ae846106bc670de0b6b3a76400008963ffffffff61209816565b93506112cc856106bc670de0b6b3a76400008963ffffffff61209816565b94506112ea826106bc670de0b6b3a76400008963ffffffff61209816565b9150611308836106bc670de0b6b3a76400008963ffffffff61209816565b925061131785858585856120c0565b6113218c8c612143565b8b6001600160a01b0316336001600160a01b03167f92da889ebdf9766a076ef7881c4618bd4667d5f74d6cf3fa1c82f319cdb399608b8e604051611366929190612d32565b60405180910390a350506001805460ff60a01b1916905550505050505050505050565b60006113936109fc565b9050600081116113b55760405162461bcd60e51b815260040161076d906129a8565b60006113c0836106c1565b90506113cc8382610ecd565b505050565b6113d961259c565b6001600160a01b038516600090815260096020526040908190208151608081019092528054829060ff16600281111561140e57fe5b600281111561141957fe5b81526020016001820154815260200160028201548152602001600382015481525050905061144561259c565b6001600160a01b038516600090815260096020526040908190208151608081019092528054829060ff16600281111561147a57fe5b600281111561148557fe5b8152602001600182015481526020016002820154815260200160038201548152505090506114b161259c565b604080516080810190915260058054829060ff1660028111156114d057fe5b60028111156114db57fe5b815260200160018201548152602001600282015481526020016003820154815250509050600082600001519050600061159c61059c600260009054906101000a90046001600160a01b03166001600160a01b031663f5cdd2026040518163ffffffff1660e01b815260040160206040518083038186803b15801561155e57600080fd5b505afa158015611572573d6000803e3d6000fd5b505050506040513d601f19601f8201168201806040525081019061159691906126ea565b89610ea3565b9050600061163261059c600260009054906101000a90046001600160a01b03166001600160a01b03166311187e366040518163ffffffff1660e01b815260040160206040518083038186803b1580156115f457600080fd5b505afa158015611608573d6000803e3d6000fd5b505050506040513d601f19601f8201168201806040525081019061162c91906126ea565b8a610ea3565b9050611648856116418561205e565b8a8a611f93565b945061165686848a8a611f93565b9550611668828263ffffffff610cf016565b8560600151126116cf5761168d81610612848860600151610e5d90919063ffffffff16565b6060808701919091528601516116a9908363ffffffff610cf016565b6060808801919091528401516116c5908263ffffffff610cf016565b6060850152611759565b81856060015112611734576060850151611704906116f3908463ffffffff610e5d16565b60608601519063ffffffff610cf016565b606080860191909152860151611720908363ffffffff610cf016565b606080880191909152600090860152611759565b600085606001511261175957606080860151908701516117209163ffffffff610cf016565b6001600160a01b03891660009081526009602052604090208551815487929190829060ff1916600183600281111561178d57fe5b021790555060208201518160010155604082015181600201556060820151816003015590505085600960008c6001600160a01b03166001600160a01b0316815260200190815260200160002060008201518160000160006101000a81548160ff021916908360028111156117fd57fe5b0217905550602082015160018201556040820151600282015560609182015160039091015560085490850151141561187257835160058054869290829060ff1916600183600281111561184c57fe5b021790555060208201516001820155604082015160028201556060909101516003909101555b886001600160a01b03168a6001600160a01b03167f54f9b006b19a44694e56b0d6a57f34c420bf88da7373f9d0f3380e5f4b70951e858b8b6040516118b993929190612892565b60405180910390a350505050505050505050565b600154600160a01b900460ff16156118f75760405162461bcd60e51b815260040161076d90612a0d565b6001805460ff60a01b1916600160a01b1790556002546040805163a4a5e9ad60e01b815290516001600160a01b039092169163a4a5e9ad91600480820192600092909190829003018186803b15801561194f57600080fd5b505afa158015611963573d6000803e3d6000fd5b50505050600260009054906101000a90046001600160a01b03166001600160a01b031663d76bfbd96040518163ffffffff1660e01b815260040160006040518083038186803b1580156119b557600080fd5b505afa1580156119c9573d6000803e3d6000fd5b50505050600260009054906101000a90046001600160a01b03166001600160a01b031663c30ea2a26040518163ffffffff1660e01b815260040160006040518083038186803b158015611a1b57600080fd5b505afa158015611a2f573d6000803e3d6000fd5b505050506000611a3d6109fc565b9050600081611a4d575081611b42565b60008060055460ff166002811115611a6157fe5b1415611a705750600854611b23565b600354600554611b20916001600160a01b03169063a3ffd1cb90611a969060ff1661205e565b6006546007546040516001600160e01b031960e086901b168152611ac19392919082906004016128db565b60206040518083038186803b158015611ad957600080fd5b505afa158015611aed573d6000803e3d6000fd5b505050506040513d601f19601f82011682018060405250810190611b1191906126ea565b6008549063ffffffff610cf016565b90505b611b3e611b3885611b3384611f27565b611efd565b84610ea3565b9150505b600354600554600d5460009283928392839283926001600160a01b039091169163ffa960b49160ff1690611b7c908c63ffffffff6121aa16565b600260009054906101000a90046001600160a01b03166001600160a01b031663796da7af6040518163ffffffff1660e01b815260040160206040518083038186803b158015611bca57600080fd5b505afa158015611bde573d6000803e3d6000fd5b505050506040513d601f19601f82011682018060405250810190611c0291906126ea565b6006546002546040805163ec2fd46d60e01b815290516001600160a01b039092169163ec2fd46d91600480820192602092909190829003018186803b158015611c4a57600080fd5b505afa158015611c5e573d6000803e3d6000fd5b505050506040513d601f19601f82011682018060405250810190611c8291906126ea565b6040518663ffffffff1660e01b8152600401611ca2959493929190612905565b60a06040518083038186803b158015611cba57600080fd5b505afa158015611cce573d6000803e3d6000fd5b505050506040513d601f19601f82011682018060405250810190611cf29190612780565b94509450945094509450611d0985858585856120c0565b611d1389896121cf565b611d1d898761222a565b886001600160a01b0316336001600160a01b03167fbded9ba8a041a2b893fdc29720280cb14b8f6c369538bde50fcd4e602d5608578a89604051611d62929190612d32565b60405180910390a350506001805460ff60a01b1916905550505050505050565b611db6611d8e82610d36565b6001600160a01b0384166000908152600960205260409020600301549063ffffffff610e5d16565b6001600160a01b0380841660009081526009602090815260409182902060030193909355600254815163658816e960e11b815291516105d4948794879493169263cb102dd29260048083019392829003018186803b158015611e1757600080fd5b505afa158015611e2b573d6000803e3d6000fd5b505050506040513d601f19601f82011682018060405250810190611e4f919061264b565b6001600160a01b0316919063ffffffff61225b16565b611ebd846323b872dd60e01b858585604051602401611e8693929190612819565b60408051601f198184030181529190526020810180516001600160e01b03166001600160e01b03199093169290921790915261227a565b50505050565b600082611ed257506000610621565b82820282848281611edf57fe5b041461061e5760405162461bcd60e51b815260040161076d90612d0f565b600061061e82611f1b85670de0b6b3a764000063ffffffff611ec316565b9063ffffffff61233116565b600080821215610d5f5760405162461bcd60e51b815260040161076d90612ce9565b60008111611f695760405162461bcd60e51b815260040161076d9061293c565b611f84611f7582610d36565b6008549063ffffffff610e5d16565b600855610e3a610e1282610d36565b611f9b61259c565b6020850151600090839015801590611fca5750856002811115611fba57fe5b87516002811115611fc757fe5b14155b1561202f5786602001518411611ff057611fe587858761235e565b96506000905061202f565b612002856106bc896020015187611efd565b91506120138788602001518461235e565b965061202c87602001518561209890919063ffffffff16565b90505b80156120535761205087878361204b898763ffffffff61209816565b6124bc565b96505b509495945050505050565b6000600282600281111561206e57fe5b141561207c57506001610498565b600182600281111561208a57fe5b1415610d5f57506002610498565b6000828211156120ba5760405162461bcd60e51b815260040161076d90612b48565b50900390565b82600b54146120cf57600b8390555b84600a54146120de57600a8590555b83600c54146120ed57600c8490555b81600d54146120fc57600d8290555b80600281111561210857fe5b600e5460ff16600281111561211957fe5b146109e057600e805482919060ff1916600183600281111561213757fe5b02179055505050505050565b60048054604051632770a7eb60e21b81526001600160a01b0390911691639dc29fac9161217491869186910161283d565b600060405180830381600087803b15801561218e57600080fd5b505af11580156121a2573d6000803e3d6000fd5b505050505050565b60008282018381101561061e5760405162461bcd60e51b815260040161076d90612c0e565b600081116121ef5760405162461bcd60e51b815260040161076d90612b05565b6121fb611d8e82610d36565b6001600160a01b038316600090815260096020526040902060030155612223611b1182610d36565b6008555050565b600480546040516340c10f1960e01b81526001600160a01b03909116916340c10f199161217491869186910161283d565b6113cc8363a9059cbb60e01b8484604051602401611e8692919061283d565b60006060836001600160a01b03168360405161229691906127cc565b6000604051808303816000865af19150503d80600081146122d3576040519150601f19603f3d011682016040523d82523d6000602084013e6122d8565b606091505b5091509150816122fa5760405162461bcd60e51b815260040161076d90612a71565b805115611ebd578080602001905181019061231591906126ca565b611ebd5760405162461bcd60e51b815260040161076d90612c75565b60008061233e8484612548565b90508281028403801561235657506001019050610621565b509050610621565b61236661259c565b600083116123865760405162461bcd60e51b815260040161076d90612b6b565b6000846020015184141561239f575060408401516123b8565b6123b585604001516106bc868860200151612572565b90505b6003548551604051632d50ce1d60e21b81526000926001600160a01b03169163b5433874916123ee919086908990600401612892565b60206040518083038186803b15801561240657600080fd5b505afa15801561241a573d6000803e3d6000fd5b505050506040513d601f19601f8201168201806040525081019061243e91906126ea565b6060870151909150612456908263ffffffff610cf016565b60608701526040860151602087015161248891906106bc9061247e908963ffffffff61209816565b8960200151612572565b604087015260208601516124a2908663ffffffff61209816565b602087018190526124b257600086525b5093949350505050565b6124c461259c565b600083116124e45760405162461bcd60e51b815260040161076d906129df565b602085015161250b57848460028111156124fa57fe5b9081600281111561250757fe5b9052505b6020850151612520908463ffffffff6121aa16565b6020860152604085015161253a908363ffffffff6121aa16565b604086015250929392505050565b60008082116125695760405162461bcd60e51b815260040161076d90612add565b818381610ec557fe5b600061061e8261259085670de0b6b3a764000063ffffffff611ec316565b9063ffffffff61254816565b604080516080810190915280600081526020016000815260200160008152602001600081525090565b6000608082840312156125d6578081fd5b6040516080810181811067ffffffffffffffff821117156125f5578283fd5b604052905080823561260681612d6a565b808252506020830135602082015260408301356040820152606083013560608201525092915050565b600060208284031215612640578081fd5b813561061e81612d55565b60006020828403121561265c578081fd5b815161061e81612d55565b60008060408385031215612679578081fd5b823561268481612d55565b9150602083013561269481612d55565b809150509250929050565b600080604083850312156126b1578182fd5b82356126bc81612d55565b946020939093013593505050565b6000602082840312156126db578081fd5b8151801515811461061e578182fd5b6000602082840312156126fb578081fd5b5051919050565b600060808284031215612713578081fd5b61061e83836125c5565b60008060a0838503121561272f578182fd5b61273984846125c5565b946080939093013593505050565b600060208284031215612758578081fd5b5035919050565b60008060408385031215612771578182fd5b50508035926020909101359150565b600080600080600060a08688031215612797578081fd5b8551945060208601519350604086015192506060860151915060808601516127be81612d6a565b809150509295509295909350565b60008251815b818110156127ec57602081860181015185830152016127d2565b818111156127fa5782828501525b509190910192915050565b6001600160a01b0391909116815260200190565b6001600160a01b039384168152919092166020820152604081019190915260600190565b6001600160a01b03929092168252602082015260400190565b901515815260200190565b6020810161286e83612d40565b825292915050565b6040810161288384612d40565b82528260208301529392505050565b6060810161289f85612d40565b8252602082019390935260400152919050565b608081016128bf86612d4b565b9481526020810193909352604083019190915260609091015290565b608081016128e886612d40565b825284602083015283604083015282606083015295945050505050565b60a0810161291287612d4b565b95815260208101949094526040840192909252606083015260809091015290565b90815260200190565b60208082526025908201527f4d617267696e5472616e7366657246726f6d506f6f6c5f494c4c4547414c5f416040820152641353d5539560da1b606082015260800190565b6020808252600d908201526c494e56414c49445f434c41494d60981b604082015260600190565b6020808252601b908201527f7769746864726177436f6c6c61746572616c546f3a204e4f5f4c500000000000604082015260600190565b6020808252601490820152731bdc195b8e881a5b9d985b1a5908185b5bdd5b9d60621b604082015260600190565b60208082526009908201526814915153951490539560ba1b604082015260600190565b60208082526021908201527f5369676e6564536166654d6174683a206164646974696f6e206f766572666c6f6040820152607760f81b606082015260800190565b6020808252818101527f5361666545524332303a206c6f772d6c6576656c2063616c6c206661696c6564604082015260600190565b6020808252601a908201527f4c495155494441544f525f4e4f545f454e4f5547485f46554e44000000000000604082015260600190565b6020808252600e908201526d2224ab24a224a723afa2a92927a960911b604082015260600190565b60208082526023908201527f4d617267696e5472616e73666572546f506f6f6c5f494c4c4547414c5f414d4f60408201526215539560ea1b606082015260800190565b60208082526009908201526829aaa12fa2a92927a960b91b604082015260600190565b60208082526015908201527418db1bdcd94e881a5b9d985b1a5908185b5bdd5b9d605a1b604082015260600190565b6020808252600d908201526c24a72b20a624a22fa7aba722a960991b604082015260600190565b6020808252600990820152682727aa2fa7aba722a960b91b604082015260600190565b60208082526010908201526f29a0a322afaa27afa6a0a4a72a20a4a760811b604082015260600190565b60208082526009908201526820a2222fa2a92927a960b91b604082015260600190565b60208082526024908201527f5369676e6564536166654d6174683a207375627472616374696f6e206f766572604082015263666c6f7760e01b606082015260800190565b6020808252602a908201527f5361666545524332303a204552433230206f7065726174696f6e20646964206e6040820152691bdd081cdd58d8d9595960b21b606082015260800190565b60208082526010908201526f75696e74323536206f766572666c6f7760801b604082015260600190565b6020808252600c908201526b696e74206f766572666c6f7760a01b604082015260600190565b60208082526009908201526826aaa62fa2a92927a960b91b604082015260600190565b918252602082015260400190565b806003811061049857fe5b600381106107e457fe5b6001600160a01b03811681146107e457600080fd5b600381106107e457600080fdfea2646970667358221220e830b4e4b0b10315b7c58b425c2f7bbfed0f78741eca0a2948e418d71689ffdc64736f6c63430006090033",
  "immutableReferences": {},
  "source": "/*\n\n    Copyright 2020 DODO ZOO.\n    SPDX-License-Identifier: Apache-2.0\n\n*/\n\npragma solidity 0.6.9;\npragma experimental ABIEncoderV2;\n\nimport {SafeMath} from \"../lib/SafeMath.sol\";\nimport {SignedSafeMath} from \"../lib/SignedSafeMath.sol\";\nimport {DecimalMath} from \"../lib/DecimalMath.sol\";\nimport {Types} from \"../lib/Types.sol\";\nimport {ILpToken} from \"../interface/ILpToken.sol\";\nimport {Margin} from \"./Margin.sol\";\n\n/**\n * @title LiquidityProvider\n * @author Parapara\n *\n * @notice Functions for liquidity provider operations\n */\ncontract LiquidityProvider is Margin {\n    using SafeMath for uint256;\n    using SignedSafeMath for int256;\n\n\n    // ============ Events ============\n\n    event LpDeposit(\n        address indexed payer,\n        address indexed receiver,\n        uint256 amount,\n        uint256 lpTokenAmount\n    );\n\n    event LpWithdraw(\n        address indexed payer,\n        address indexed receiver,\n        uint256 amount,\n        uint256 lpTokenAmount\n    );\n\n\n    // ============ Routine Functions ============\n\n    /*\n     * @dev deposit to LP\n     * @param amount amount of collateral token\n     */\n    function depositCollateral(uint256 amount) external {\n        _depositCollateralTo(msg.sender, amount);\n    }\n\n    /*\n     * @dev withdraw msg.sender's share to account balance given amount of LP token\n     * @param amount amount of LP token.\n     */\n    function withdrawCollateral(uint256 amount) external {\n        _withdrawCollateralTo(msg.sender, amount);\n    }\n\n    /*\n     * @dev withdraw msg.sender's all share to account balance\n     * @param amount amount of LP token.\n     */\n    function withdrawAllCollateral() external {\n        _withdrawAllCollateralTo(msg.sender);\n    }\n\n\n    // ============ Deposit Functions ============\n    /*\n     * @dev Calculate LP share given Collateral amount\n     * @param to LP address.\n     * @param amount amount of collateral token.\n     */\n    function _depositCollateralTo(address to, uint256 amount)\n        internal\n        preventReentrant\n    {\n        ADMIN.checkNotClosed();\n        ADMIN.checkNotPaused();\n        ADMIN.depositAllowed();\n\n        uint256 totalCapital = getTotalCollateralPoolToken();\n        uint256 capital;\n        if (totalCapital == 0) {\n            // give remaining quote token to lp as a gift\n            capital = amount;\n        }\n        else {\n            int256 collateralBalance;\n            if (_POOL_MARGIN_ACCOUNT_.SIDE == Types.Side.FLAT) {\n                collateralBalance = _POOL_MARGIN_ACCOUNT_.CASH_BALANCE;\n            }\n            else {\n                collateralBalance = _POOL_MARGIN_ACCOUNT_.CASH_BALANCE.add(\n                    PRICING.queryPNL(\n                        Types.oppositeSide(_POOL_MARGIN_ACCOUNT_.SIDE),\n                        _POOL_MARGIN_ACCOUNT_.SIZE,\n                        _POOL_MARGIN_ACCOUNT_.ENTRY_VALUE,\n                        _POOL_MARGIN_ACCOUNT_.SIZE\n                    )\n                );\n            }\n            capital = DecimalMath.mul(DecimalMath.divCeil(amount, collateralBalance.touint256()), totalCapital);\n        }\n\n        // settlement\n        (uint256 baseTarget, uint256 baseBalance, uint256 quoteTarget, uint256 quoteBalance, Types.Side newSide) = PRICING.getExpectedTargetExt(\n            _POOL_MARGIN_ACCOUNT_.SIDE,\n            _QUOTE_BALANCE_.add(amount),\n            ADMIN.getOraclePrice(),\n            _POOL_MARGIN_ACCOUNT_.SIZE,\n            ADMIN._K_()\n        );\n\n        updateVirtualBalance(baseTarget, baseBalance, quoteTarget, quoteBalance, newSide);\n        _marginTransferToPool(to, amount);\n        _mintCollateralPoolToken(to, capital);\n\n        emit LpDeposit(msg.sender, to, amount, capital);\n    }\n                                                                                                                                                                                                                                                                                                                                                                                                                                                                                                                                                                                                                                                                                                                                                                                                                                                                                                                                                                                                                                                                                                                                                                                                                                                                                                                                                                                                                                                                                                                                                                                                                                                                                                                                                                                                                                                                                                                                                                                                                                                                                                                                                                                                                                                                                                                                                                                                                                                                                                                                                                                                                                                                                                                                                                                                                                                                                                                                                                                                                                                                                                                                                                                                                                                                                                                                                                                                                                                                                                                                                                                                                                                                                                                                                                                                                                                                                                                                                                                                                                                                                                                                                                                                                                                                                                                                                                                                                                                                                                                                                                                                                                                                                                                                                                                                                                                                                                                                                                                                                                                                                                                                                                                                                                                                                                                                                                                                                                                                                                                                                                                                                                                                                                                                                                                                                                                                                                                                                                                                                                                                                                                                                                                                                                                                                                                                                                                                                                                                                                                                                                                                                                                                                                                                                                                                                                                                                                                                                                                                                                                                                                                                                                                                                                                                                                                                                                                                                                                                                                                                                                                                                                                                                                                                                                                                                                                                                                                                                                                                                                                                                                                                                                                                                                                                                                                                                                                                                                                                                                                                                                                                                                                                                                                                                                                                                                                                                                                                                                                                                                                                                                                                                                                                                                                                                                                                                                                                                                                                                                                                                                                                                                                                                                                                                                                                                                                                                                                                                                                                                                                                                                                                                                                                                                                                                                                                                                                                                                                                                                                                                                                                                                                                                                                                                                                                                                                                                                                                                                                                                                                                                                                                                                                                                                                                                                                                                                                                                                                                                                                                                                                                                                                                                                                                                                                                                                                                                                                                                                                                                                                                                                                                                                                                                                                                                                                                                                                                                                                                                                                                                                                                                                                                                                                                                                                                                                                                                                                                                                                                                                                                                                                                                                                                                                                                                                                                                                                                                                                                                                                                                                                                                                                                                                                                                                                                                                                                                                                                                                                                                                                                                                                                                                                                                                                                                                                                                                                                                                                                                                                                                                                                                                                                                                                                                                                                                                                                                                                                                                                                                                                                                                                                                                                                                                                                                                                                                                                                                                                                                                                                                                                                                                                                                                                                                                                                                                                                                                                                                                                                                                                                                                                                                                                                                                                                                                                                                                                                                                                                                                                                                                                                                                                                                                                                                                                                                                                                                                                                                                                                                                                                                                                                                                                                                                                                                                                                                                                                                                                                                                                                                                                                                                                                                                                                                                                                                                                                                                                                                                                                                                                                                                                                                                                                                                                                                                                                                                                                                                                                                                                                                                                                                                                                                                                                                                                                                                                                                                                                                                                                                                                                                                                                                                                                                                                                                                                                                                                                                                                                                                                                                                                                                                                                                                                                                                                                                                                                                                                                                                                                                                                                                                                                                                                                                                                                                                                                                                                                                                                                                                                                                                                                                                                                                                                                                                                                                                                                                                                                                                                                                                                                                                                                                                                                                                                                                                                                                                                                                                                                                                                                                                                                                                                                                                                                                                                                                                                                                                                                                                                                                                                                                                                                                                                                                                                                                                                                                                                                                                                                                                                                                                                                                                                                                                                                                                                                                                                                                                                                                                                                                                                                                                                                                                                                                                                                                                                                                                                                                                                                                                                                                                                                                                                                                                                                                                                                                                                                                                                                                                                                                                                                                                                                                                                                                                                                                                                                                                                                                                                                                                                                                                                                                                                                                                                                                                                                                                                                                                                                                                                                                                                                                                                                                                                                                                                                                                                                                                                                                                                                                                                                                                                                                                                                                                                                                                                                                                                                                                                                                                                                                                                                                                                                                                                                                                                                                                                                                                                                                                                                                                                                                                                                                                                                                                                                                                                                                                                                                                                                                                                                                                                                                                                                                                                                                                                                                                                                                                                                                                                                                                                                                                                                                                                                                                                                                                                                                                                                                                                                                                                                                                                                                                                                                                                                                                                                                                                                                                                                                                                                                                                                                                                                                                                                                                                                                                                                                                                                                                                                                                                                                                                                                                                                                                                                                                                                                                                                                                                                                                                                                                                                                                                                                                                                                                                                                                                                                                                                                                                                                                                                                                                                                                                                                                                                                                                                                                                                                                                                                                                                                                                                                                                                                                                                                                                                                                                                                                                                                                                                                                                                                      \n    // ============ Withdraw Functions ============\n    /*\n     * @dev Calculate LP share given LP token amount\n     * @param to LP address.\n     * @param amount amount of LP token.\n     */\n    function _withdrawCollateralTo(address to, uint256 lpAmount)\n        internal\n        preventReentrant\n    {\n        ADMIN.checkNotClosed();\n        ADMIN.checkNotPaused();\n        // calculate capital\n        uint256 totalCapital = getTotalCollateralPoolToken();\n        require(totalCapital > 0, \"withdrawCollateralTo: NO_LP\");\n        uint256 cashAmount = DecimalMath.mul(DecimalMath.divCeil(lpAmount, totalCapital), _POOL_MARGIN_ACCOUNT_.CASH_BALANCE.touint256());\n        _marginTransferFromPool(to, cashAmount);\n        uint256 sizeAmount;\n        uint256 valueAmount;\n        uint256 r = DecimalMath.divCeil(lpAmount, totalCapital);\n        if (_POOL_MARGIN_ACCOUNT_.SIDE != Types.Side.FLAT) {\n            sizeAmount = DecimalMath.mul(r, _POOL_MARGIN_ACCOUNT_.SIZE);\n            valueAmount = DecimalMath.mul(r, _POOL_MARGIN_ACCOUNT_.ENTRY_VALUE);\n\n            Types.MarginAccount memory traderAccount = _MARGIN_ACCOUNT_[msg.sender];\n            Types.MarginAccount memory poolAccount = _POOL_MARGIN_ACCOUNT_;\n            traderAccount = trade(traderAccount, _POOL_MARGIN_ACCOUNT_.SIDE, valueAmount, sizeAmount);\n            poolAccount = trade(poolAccount, Types.oppositeSide(_POOL_MARGIN_ACCOUNT_.SIDE), valueAmount, sizeAmount);\n            _MARGIN_ACCOUNT_[msg.sender] = traderAccount;\n            _POOL_MARGIN_ACCOUNT_ = poolAccount;\n\n        }\n\n        (uint256 baseTarget, uint256 baseBalance, uint256 quoteTarget, uint256 quoteBalance, Types.Side newSide) = PRICING.getExpectedTarget();\n        baseBalance = DecimalMath.mul(baseBalance,DecimalMath.ONE.sub(r));\n        baseTarget = DecimalMath.mul(baseTarget,DecimalMath.ONE.sub(r));\n        quoteBalance = DecimalMath.mul(quoteBalance,DecimalMath.ONE.sub(r));\n        quoteTarget = DecimalMath.mul(quoteTarget,DecimalMath.ONE.sub(r));\n        updateVirtualBalance(baseTarget, baseBalance, quoteTarget, quoteBalance, newSide);\n\n\n        // settlement\n        _burnCollateralPoolToken(to, lpAmount);\n        emit LpWithdraw(msg.sender, to, cashAmount, lpAmount);\n    }\n\n    // ============ Withdraw all Functions ============\n\n    function _withdrawAllCollateralTo(address to)\n        internal\n    {\n        uint256 totalCapital = getTotalCollateralPoolToken();\n        require(totalCapital > 0, \"withdrawCollateralTo: NO_LP\");\n        uint256 lpAmount = getCollateralPoolTokenBalanceOf(to);\n        _withdrawCollateralTo(to, lpAmount);\n    }\n\n\n\n    // ============ Helper Functions ============\n    function _calculatePoolEquity() internal view returns (int256 equityBalance) {\n        if (_POOL_MARGIN_ACCOUNT_.SIDE == Types.Side.FLAT) {\n            equityBalance = _POOL_MARGIN_ACCOUNT_.CASH_BALANCE;\n        }\n        else {\n            equityBalance = _POOL_MARGIN_ACCOUNT_.CASH_BALANCE.add(\n                PRICING.queryPNL(\n                    Types.oppositeSide(_POOL_MARGIN_ACCOUNT_.SIDE),\n                    _POOL_MARGIN_ACCOUNT_.SIZE,\n                    _POOL_MARGIN_ACCOUNT_.ENTRY_VALUE,\n                    _POOL_MARGIN_ACCOUNT_.SIZE\n                )\n            );\n        }\n    }\n    // calculate ENP\n    function _poolNetPositionRatio() internal view returns (uint256 ENP) {\n        uint256 poolEquity = _calculatePoolEquity().max(0).touint256();\n        uint256 currentValue = DecimalMath.mul(_POOL_MARGIN_ACCOUNT_.SIZE, ADMIN.getOraclePrice());\n        ENP = DecimalMath.divCeil(poolEquity, currentValue);\n    }\n\n    // POOL \n    function _canPoolOpen() internal view returns (bool) {\n        return _poolNetPositionRatio()>ADMIN._POOL_OPEN_TH_();\n    }\n\n    //  POOL keep\n    function _canPoolKeep() internal view returns (bool) {\n        return _poolNetPositionRatio()>ADMIN._POOL_LIQUIDATE_TH_();\n    }\n\n    function getCollateralPoolTokenBalanceOf(address lp)\n        public\n        view\n        returns (uint256)\n    {\n        return ILpToken(_COLLATERAL_POOL_TOKEN_).balanceOf(lp);\n    }\n\n    function getTotalCollateralPoolToken() public view returns (uint256) {\n        return ILpToken(_COLLATERAL_POOL_TOKEN_).totalSupply();\n    }\n\n    function _mintCollateralPoolToken(address user, uint256 amount) internal {\n        ILpToken(_COLLATERAL_POOL_TOKEN_).mint(user, amount);\n    }\n\n    function _burnCollateralPoolToken(address user, uint256 amount) internal {\n        ILpToken(_COLLATERAL_POOL_TOKEN_).burn(user, amount);\n    }\n}\n",
  "sourcePath": "/Users/daniel/Codes/parapara/para_dapp_v6/contracts/perpetual/LiquidityProvider.sol",
  "compiler": {
    "name": "solc",
    "version": "0.6.9+commit.3e3065ac.Emscripten.clang"
  },
  "schemaVersion": "3.3.4",
  "updatedAt": "2021-03-25T08:51:25.690Z",
  "devdoc": {
    "author": "Parapara",
    "methods": {},
    "title": "LiquidityProvider"
  },
  "userdoc": {
    "methods": {},
    "notice": "Functions for liquidity provider operations"
  }
}