{
  "contractName": "LiquidityProvider",
  "abi": [
    {
      "anonymous": false,
      "inputs": [
        {
          "indexed": true,
          "internalType": "address",
          "name": "user",
          "type": "address"
        },
        {
          "indexed": false,
          "internalType": "uint256",
          "name": "baseTokenAmount",
          "type": "uint256"
        },
        {
          "indexed": false,
          "internalType": "uint256",
          "name": "quoteTokenAmount",
          "type": "uint256"
        }
      ],
      "name": "ClaimAssets",
      "type": "event"
    },
    {
      "anonymous": false,
      "inputs": [
        {
          "indexed": true,
          "internalType": "address",
          "name": "trader",
          "type": "address"
        },
        {
          "indexed": false,
          "internalType": "uint256",
          "name": "amount",
          "type": "uint256"
        },
        {
          "indexed": false,
          "internalType": "int256",
          "name": "balance",
          "type": "int256"
        }
      ],
      "name": "Deposit",
      "type": "event"
    },
    {
      "anonymous": false,
      "inputs": [
        {
          "indexed": false,
          "internalType": "uint256",
          "name": "amount",
          "type": "uint256"
        }
      ],
      "name": "Donate",
      "type": "event"
    },
    {
      "anonymous": false,
      "inputs": [
        {
          "indexed": true,
          "internalType": "address",
          "name": "trader",
          "type": "address"
        },
        {
          "indexed": false,
          "internalType": "int256",
          "name": "amount",
          "type": "int256"
        },
        {
          "indexed": false,
          "internalType": "int256",
          "name": "balanceAfter",
          "type": "int256"
        }
      ],
      "name": "InternalUpdateBalance",
      "type": "event"
    },
    {
      "anonymous": false,
      "inputs": [
        {
          "indexed": true,
          "internalType": "address",
          "name": "trader",
          "type": "address"
        },
        {
          "indexed": true,
          "internalType": "address",
          "name": "liquidator",
          "type": "address"
        },
        {
          "indexed": false,
          "internalType": "enum Types.Side",
          "name": "liquidationSide",
          "type": "uint8"
        },
        {
          "indexed": false,
          "internalType": "uint256",
          "name": "liquidationValue",
          "type": "uint256"
        },
        {
          "indexed": false,
          "internalType": "uint256",
          "name": "liquidationAmount",
          "type": "uint256"
        }
      ],
      "name": "Liquidate",
      "type": "event"
    },
    {
      "anonymous": false,
      "inputs": [
        {
          "indexed": true,
          "internalType": "address",
          "name": "payer",
          "type": "address"
        },
        {
          "indexed": true,
          "internalType": "address",
          "name": "receiver",
          "type": "address"
        },
        {
          "indexed": false,
          "internalType": "uint256",
          "name": "amount",
          "type": "uint256"
        },
        {
          "indexed": false,
          "internalType": "uint256",
          "name": "lpTokenAmount",
          "type": "uint256"
        }
      ],
      "name": "LpDeposit",
      "type": "event"
    },
    {
      "anonymous": false,
      "inputs": [
        {
          "indexed": true,
          "internalType": "address",
          "name": "payer",
          "type": "address"
        },
        {
          "indexed": true,
          "internalType": "address",
          "name": "receiver",
          "type": "address"
        },
        {
          "indexed": false,
          "internalType": "uint256",
          "name": "amount",
          "type": "uint256"
        },
        {
          "indexed": false,
          "internalType": "uint256",
          "name": "lpTokenAmount",
          "type": "uint256"
        }
      ],
      "name": "LpWithdraw",
      "type": "event"
    },
    {
      "anonymous": false,
      "inputs": [
        {
          "indexed": true,
          "internalType": "address",
          "name": "previousOwner",
          "type": "address"
        },
        {
          "indexed": true,
          "internalType": "address",
          "name": "newOwner",
          "type": "address"
        }
      ],
      "name": "OwnershipTransferPrepared",
      "type": "event"
    },
    {
      "anonymous": false,
      "inputs": [
        {
          "indexed": true,
          "internalType": "address",
          "name": "previousOwner",
          "type": "address"
        },
        {
          "indexed": true,
          "internalType": "address",
          "name": "newOwner",
          "type": "address"
        }
      ],
      "name": "OwnershipTransferred",
      "type": "event"
    },
    {
      "anonymous": false,
      "inputs": [
        {
          "indexed": false,
          "internalType": "enum Types.Side",
          "name": "lossSide",
          "type": "uint8"
        },
        {
          "indexed": false,
          "internalType": "int256",
          "name": "sloss",
          "type": "int256"
        },
        {
          "indexed": false,
          "internalType": "uint256",
          "name": "totalSize",
          "type": "uint256"
        }
      ],
      "name": "SocialLossUpdate",
      "type": "event"
    },
    {
      "anonymous": false,
      "inputs": [
        {
          "indexed": true,
          "internalType": "address",
          "name": "trader",
          "type": "address"
        },
        {
          "indexed": false,
          "internalType": "uint256",
          "name": "amount",
          "type": "uint256"
        },
        {
          "indexed": false,
          "internalType": "int256",
          "name": "balance",
          "type": "int256"
        }
      ],
      "name": "Withdraw",
      "type": "event"
    },
    {
      "inputs": [],
      "name": "ADMIN",
      "outputs": [
        {
          "internalType": "contract Admin",
          "name": "",
          "type": "address"
        }
      ],
      "stateMutability": "view",
      "type": "function"
    },
    {
      "inputs": [],
      "name": "PRICING",
      "outputs": [
        {
          "internalType": "contract Pricing",
          "name": "",
          "type": "address"
        }
      ],
      "stateMutability": "view",
      "type": "function"
    },
    {
      "inputs": [],
      "name": "_BASE_BALANCE_",
      "outputs": [
        {
          "internalType": "uint256",
          "name": "",
          "type": "uint256"
        }
      ],
      "stateMutability": "view",
      "type": "function"
    },
    {
      "inputs": [],
      "name": "_COLLATERAL_POOL_TOKEN_",
      "outputs": [
        {
          "internalType": "address",
          "name": "",
          "type": "address"
        }
      ],
      "stateMutability": "view",
      "type": "function"
    },
    {
      "inputs": [
        {
          "internalType": "address",
          "name": "",
          "type": "address"
        }
      ],
      "name": "_MARGIN_ACCOUNT_",
      "outputs": [
        {
          "internalType": "enum Types.Side",
          "name": "SIDE",
          "type": "uint8"
        },
        {
          "internalType": "uint256",
          "name": "SIZE",
          "type": "uint256"
        },
        {
          "internalType": "uint256",
          "name": "ENTRY_VALUE",
          "type": "uint256"
        },
        {
          "internalType": "int256",
          "name": "CASH_BALANCE",
          "type": "int256"
        },
        {
          "internalType": "uint256",
          "name": "ENTRY_SLOSS",
          "type": "uint256"
        }
      ],
      "stateMutability": "view",
      "type": "function"
    },
    {
      "inputs": [],
      "name": "_NEW_OWNER_",
      "outputs": [
        {
          "internalType": "address",
          "name": "",
          "type": "address"
        }
      ],
      "stateMutability": "view",
      "type": "function"
    },
    {
      "inputs": [],
      "name": "_OWNER_",
      "outputs": [
        {
          "internalType": "address",
          "name": "",
          "type": "address"
        }
      ],
      "stateMutability": "view",
      "type": "function"
    },
    {
      "inputs": [],
      "name": "_POOL_INSURANCE_BALANCE_",
      "outputs": [
        {
          "internalType": "uint256",
          "name": "",
          "type": "uint256"
        }
      ],
      "stateMutability": "view",
      "type": "function"
    },
    {
      "inputs": [],
      "name": "_POOL_MARGIN_ACCOUNT_",
      "outputs": [
        {
          "internalType": "enum Types.Side",
          "name": "SIDE",
          "type": "uint8"
        },
        {
          "internalType": "uint256",
          "name": "SIZE",
          "type": "uint256"
        },
        {
          "internalType": "uint256",
          "name": "ENTRY_VALUE",
          "type": "uint256"
        },
        {
          "internalType": "int256",
          "name": "CASH_BALANCE",
          "type": "int256"
        },
        {
          "internalType": "uint256",
          "name": "ENTRY_SLOSS",
          "type": "uint256"
        }
      ],
      "stateMutability": "view",
      "type": "function"
    },
    {
      "inputs": [],
      "name": "_QUOTE_BALANCE_",
      "outputs": [
        {
          "internalType": "uint256",
          "name": "",
          "type": "uint256"
        }
      ],
      "stateMutability": "view",
      "type": "function"
    },
    {
      "inputs": [],
      "name": "_R_STATUS_",
      "outputs": [
        {
          "internalType": "enum Types.Side",
          "name": "",
          "type": "uint8"
        }
      ],
      "stateMutability": "view",
      "type": "function"
    },
    {
      "inputs": [
        {
          "internalType": "uint256",
          "name": "",
          "type": "uint256"
        }
      ],
      "name": "_SLOSS_PER_CONTRACT_",
      "outputs": [
        {
          "internalType": "uint256",
          "name": "",
          "type": "uint256"
        }
      ],
      "stateMutability": "view",
      "type": "function"
    },
    {
      "inputs": [],
      "name": "_TARGET_BASE_TOKEN_AMOUNT_",
      "outputs": [
        {
          "internalType": "uint256",
          "name": "",
          "type": "uint256"
        }
      ],
      "stateMutability": "view",
      "type": "function"
    },
    {
      "inputs": [],
      "name": "_TARGET_QUOTE_TOKEN_AMOUNT_",
      "outputs": [
        {
          "internalType": "uint256",
          "name": "",
          "type": "uint256"
        }
      ],
      "stateMutability": "view",
      "type": "function"
    },
    {
      "inputs": [],
      "name": "_TOTAL_LONG_SIZE_",
      "outputs": [
        {
          "internalType": "uint256",
          "name": "",
          "type": "uint256"
        }
      ],
      "stateMutability": "view",
      "type": "function"
    },
    {
      "inputs": [
        {
          "components": [
            {
              "internalType": "enum Types.Side",
              "name": "SIDE",
              "type": "uint8"
            },
            {
              "internalType": "uint256",
              "name": "SIZE",
              "type": "uint256"
            },
            {
              "internalType": "uint256",
              "name": "ENTRY_VALUE",
              "type": "uint256"
            },
            {
              "internalType": "int256",
              "name": "CASH_BALANCE",
              "type": "int256"
            },
            {
              "internalType": "uint256",
              "name": "ENTRY_SLOSS",
              "type": "uint256"
            }
          ],
          "internalType": "struct Types.MarginAccount",
          "name": "account",
          "type": "tuple"
        },
        {
          "internalType": "uint256",
          "name": "markPrice",
          "type": "uint256"
        }
      ],
      "name": "availableMargin",
      "outputs": [
        {
          "internalType": "int256",
          "name": "",
          "type": "int256"
        }
      ],
      "stateMutability": "view",
      "type": "function"
    },
    {
      "inputs": [
        {
          "components": [
            {
              "internalType": "enum Types.Side",
              "name": "SIDE",
              "type": "uint8"
            },
            {
              "internalType": "uint256",
              "name": "SIZE",
              "type": "uint256"
            },
            {
              "internalType": "uint256",
              "name": "ENTRY_VALUE",
              "type": "uint256"
            },
            {
              "internalType": "int256",
              "name": "CASH_BALANCE",
              "type": "int256"
            },
            {
              "internalType": "uint256",
              "name": "ENTRY_SLOSS",
              "type": "uint256"
            }
          ],
          "internalType": "struct Types.MarginAccount",
          "name": "account",
          "type": "tuple"
        }
      ],
      "name": "balanceMargin",
      "outputs": [
        {
          "internalType": "int256",
          "name": "",
          "type": "int256"
        }
      ],
      "stateMutability": "view",
      "type": "function"
    },
    {
      "inputs": [],
      "name": "claimOwnership",
      "outputs": [],
      "stateMutability": "nonpayable",
      "type": "function"
    },
    {
      "inputs": [
        {
          "internalType": "address",
          "name": "from",
          "type": "address"
        },
        {
          "internalType": "uint256",
          "name": "amount",
          "type": "uint256"
        }
      ],
      "name": "collateralTraderTransferIn",
      "outputs": [],
      "stateMutability": "nonpayable",
      "type": "function"
    },
    {
      "inputs": [
        {
          "internalType": "address",
          "name": "to",
          "type": "address"
        },
        {
          "internalType": "uint256",
          "name": "amount",
          "type": "uint256"
        }
      ],
      "name": "collateralTraderTransferOut",
      "outputs": [],
      "stateMutability": "nonpayable",
      "type": "function"
    },
    {
      "inputs": [],
      "name": "getPoolMarginCashBalance",
      "outputs": [
        {
          "internalType": "int256",
          "name": "",
          "type": "int256"
        }
      ],
      "stateMutability": "view",
      "type": "function"
    },
    {
      "inputs": [],
      "name": "getPoolMarginEntrySloss",
      "outputs": [
        {
          "internalType": "uint256",
          "name": "",
          "type": "uint256"
        }
      ],
      "stateMutability": "view",
      "type": "function"
    },
    {
      "inputs": [],
      "name": "getPoolMarginEntryValue",
      "outputs": [
        {
          "internalType": "uint256",
          "name": "",
          "type": "uint256"
        }
      ],
      "stateMutability": "view",
      "type": "function"
    },
    {
      "inputs": [],
      "name": "getPoolMarginSide",
      "outputs": [
        {
          "internalType": "enum Types.Side",
          "name": "",
          "type": "uint8"
        }
      ],
      "stateMutability": "view",
      "type": "function"
    },
    {
      "inputs": [],
      "name": "getPoolMarginSize",
      "outputs": [
        {
          "internalType": "uint256",
          "name": "",
          "type": "uint256"
        }
      ],
      "stateMutability": "view",
      "type": "function"
    },
    {
      "inputs": [],
      "name": "getTotalSize",
      "outputs": [
        {
          "internalType": "uint256[3]",
          "name": "",
          "type": "uint256[3]"
        }
      ],
      "stateMutability": "view",
      "type": "function"
    },
    {
      "inputs": [
        {
          "internalType": "uint256",
          "name": "amount",
          "type": "uint256"
        },
        {
          "internalType": "uint256",
          "name": "markPrice",
          "type": "uint256"
        }
      ],
      "name": "initialMargin",
      "outputs": [
        {
          "internalType": "uint256",
          "name": "",
          "type": "uint256"
        }
      ],
      "stateMutability": "view",
      "type": "function"
    },
    {
      "inputs": [
        {
          "internalType": "address",
          "name": "trader",
          "type": "address"
        }
      ],
      "name": "isSafeMaintain",
      "outputs": [
        {
          "internalType": "bool",
          "name": "",
          "type": "bool"
        }
      ],
      "stateMutability": "view",
      "type": "function"
    },
    {
      "inputs": [
        {
          "components": [
            {
              "internalType": "enum Types.Side",
              "name": "SIDE",
              "type": "uint8"
            },
            {
              "internalType": "uint256",
              "name": "SIZE",
              "type": "uint256"
            },
            {
              "internalType": "uint256",
              "name": "ENTRY_VALUE",
              "type": "uint256"
            },
            {
              "internalType": "int256",
              "name": "CASH_BALANCE",
              "type": "int256"
            },
            {
              "internalType": "uint256",
              "name": "ENTRY_SLOSS",
              "type": "uint256"
            }
          ],
          "internalType": "struct Types.MarginAccount",
          "name": "account",
          "type": "tuple"
        },
        {
          "internalType": "uint256",
          "name": "openValue",
          "type": "uint256"
        }
      ],
      "name": "isSafeOpen",
      "outputs": [
        {
          "internalType": "bool",
          "name": "",
          "type": "bool"
        }
      ],
      "stateMutability": "view",
      "type": "function"
    },
    {
      "inputs": [
        {
          "internalType": "address",
          "name": "liquidator",
          "type": "address"
        },
        {
          "internalType": "address",
          "name": "trader",
          "type": "address"
        }
      ],
      "name": "liquidate",
      "outputs": [],
      "stateMutability": "nonpayable",
      "type": "function"
    },
    {
      "inputs": [
        {
          "internalType": "uint256",
          "name": "amount",
          "type": "uint256"
        },
        {
          "internalType": "uint256",
          "name": "markPrice",
          "type": "uint256"
        }
      ],
      "name": "maintenanceMargin",
      "outputs": [
        {
          "internalType": "uint256",
          "name": "",
          "type": "uint256"
        }
      ],
      "stateMutability": "view",
      "type": "function"
    },
    {
      "inputs": [
        {
          "internalType": "address",
          "name": "newOwner",
          "type": "address"
        }
      ],
      "name": "transferOwnership",
      "outputs": [],
      "stateMutability": "nonpayable",
      "type": "function"
    },
    {
      "inputs": [
        {
          "internalType": "uint256",
          "name": "amount",
          "type": "uint256"
        }
      ],
      "name": "depositCollateral",
      "outputs": [],
      "stateMutability": "nonpayable",
      "type": "function"
    },
    {
      "inputs": [
        {
          "internalType": "uint256",
          "name": "amount",
          "type": "uint256"
        }
      ],
      "name": "withdrawCollateral",
      "outputs": [],
      "stateMutability": "nonpayable",
      "type": "function"
    },
    {
      "inputs": [],
      "name": "withdrawAllCollateral",
      "outputs": [],
      "stateMutability": "nonpayable",
      "type": "function"
    },
    {
      "inputs": [
        {
          "internalType": "address",
          "name": "lp",
          "type": "address"
        }
      ],
      "name": "getCollateralPoolTokenBalanceOf",
      "outputs": [
        {
          "internalType": "uint256",
          "name": "",
          "type": "uint256"
        }
      ],
      "stateMutability": "view",
      "type": "function"
    },
    {
      "inputs": [],
      "name": "getTotalCollateralPoolToken",
      "outputs": [
        {
          "internalType": "uint256",
          "name": "",
          "type": "uint256"
        }
      ],
      "stateMutability": "view",
      "type": "function"
    }
  ],
  "bytecode": "0x6080604052600f805460ff1916905534801561001a57600080fd5b506131398061002a6000396000f3fe608060405234801561001057600080fd5b50600436106102275760003560e01c806386b9d81f11610130578063b35b08e9116100b8578063da3a4c311161007c578063da3a4c311461040d578063eab5d20e14610420578063f2fde38b14610428578063f9f8eda81461043b578063fa6a5eae1461044357610227565b8063b35b08e9146103c4578063b4cab955146103d7578063bad4a01f146103df578063d38b5209146103f2578063d6b412981461040557610227565b8063a163805c116100ff578063a163805c14610391578063a8b13ddf14610399578063b192a3eb146103a1578063b1e07366146103a9578063b2094fd3146103bc57610227565b806386b9d81f146103555780638bc60bff14610368578063901b4810146103815780639103b8b71461038957610227565b806338873925116101b35780636112fe2e116101825780636112fe2e1461032257806372decd7a14610335578063737495671461033d5780637c9b8e89146103455780638456db151461034d57610227565b806338873925146102e15780633d23755d146102f45780634a2473c3146103075780634e71e0c81461031a57610227565b806322d779cc116101fa57806322d779cc1461029f578063245c9685146102b45780632a0acc6a146102bc5780632b32812a146102c45780632efc6ee7146102cc57610227565b80630be4cea91461022c57806313ddd8fb1461025557806316048bc41461027557806317be952e1461028a575b600080fd5b61023f61023a366004612a6c565b610456565b60405161024c9190612cc9565b60405180910390f35b61026861026336600461297e565b61048f565b60405161024c9190612be4565b61027d6105ab565b60405161024c9190612b62565b6102926105ba565b60405161024c9190612bef565b6102b26102ad3660046129ee565b6105c3565b005b61023f6105d1565b61027d6105d7565b61023f6105e6565b6102d46105ec565b60405161024c9190612bb3565b61023f6102ef366004612aae565b610660565b61023f61030236600461297e565b6106fa565b61023f610315366004612a51565b61077c565b6102b2610820565b6102b2610330366004612a96565b6108b7565b61023f6108c4565b6102b26108ca565b61023f6108d5565b61027d6108db565b6102b26103633660046129b6565b6108ea565b610370610ad8565b60405161024c959493929190612c3f565b61023f610af0565b61023f610b7d565b61027d610b83565b61023f610b92565b61027d610b98565b6103706103b736600461297e565b610ba7565b61023f610bda565b61023f6103d2366004612aae565b610be0565b61023f610c3d565b6102b26103ed366004612a96565b610c43565b61023f610400366004612a96565b610c4d565b610292610c61565b61026861041b366004612a6c565b610c6a565b61023f610d53565b6102b261043636600461297e565b610d59565b61023f610e04565b6102b26104513660046129ee565b610e0a565b600061048661047161046c856020015185610660565b610e14565b61047a8561077c565b9063ffffffff610e4116565b90505b92915050565b60006104996128bc565b6001600160a01b0383166000908152600a602052604090819020815160a081019092528054829060ff1660028111156104ce57fe5b60028111156104d957fe5b8152602001600182015481526020016002820154815260200160038201548152602001600482015481525050905061059861046c8260200151600360009054906101000a90046001600160a01b03166001600160a01b031663ee27c6896040518163ffffffff1660e01b815260040160206040518083038186803b15801561056057600080fd5b505afa158015610574573d6000803e3d6000fd5b505050506040513d601f19601f820116820180604052508101906103d29190612a39565b6105a18261077c565b139150505b919050565b6000546001600160a01b031681565b600f5460ff1681565b6105cd8282610e87565b5050565b600c5481565b6002546001600160a01b031681565b60065490565b6105f46128ec565b6000600260055460ff16600281111561060957fe5b14610628576006546010546106239163ffffffff610f8116565b61063d565b60065460105461063d9163ffffffff610fa916565b604080516060810182526000815260208101929092526010549082015291505090565b600061048661066f8385610fce565b600260009054906101000a90046001600160a01b03166001600160a01b03166398a0a53d6040518163ffffffff1660e01b815260040160206040518083038186803b1580156106bd57600080fd5b505afa1580156106d1573d6000803e3d6000fd5b505050506040513d601f19601f820116820180604052508101906106f59190612a39565b610fce565b600480546040516370a0823160e01b81526000926001600160a01b03909216916370a082319161072c91869101612b62565b60206040518083038186803b15801561074457600080fd5b505afa158015610758573d6000803e3d6000fd5b505050506040513d601f19601f820116820180604052508101906104899190612a39565b60035481516020830151604080850151905163a3ffd1cb60e01b8152600094610489946001600160a01b039091169363a3ffd1cb936107bf938290600401612c70565b60206040518083038186803b1580156107d757600080fd5b505afa1580156107eb573d6000803e3d6000fd5b505050506040513d601f19601f8201168201806040525081019061080f9190612a39565b60608401519063ffffffff610ff816565b6001546001600160a01b031633146108535760405162461bcd60e51b815260040161084a90612d17565b60405180910390fd5b600154600080546040516001600160a01b0393841693909116917f8be0079c531659141344cd1fd0a4f28419497f9722a3daafe3b4186f6b6457e091a360018054600080546001600160a01b03199081166001600160a01b03841617909155169055565b6108c1338261103e565b50565b60085490565b6108d333611522565b565b600e5481565b6001546001600160a01b031681565b6108f38161048f565b156109105760405162461bcd60e51b815260040161084a90612f7a565b6109186128bc565b6001600160a01b0383166000908152600a602052604090819020815160a081019092528054829060ff16600281111561094d57fe5b600281111561095857fe5b8152602001600182015481526020016002820154815260200160038201548152602001600482015481525050905061098e6128bc565b6001600160a01b0383166000908152600a602052604090819020815160a081019092528054829060ff1660028111156109c357fe5b60028111156109ce57fe5b815260200160018201548152602001600282015481526020016003820154815260200160048201548152505090506000600360009054906101000a90046001600160a01b03166001600160a01b0316634b0301a5836000015184602001516040518363ffffffff1660e01b8152600401610a49929190612c24565b60206040518083038186803b158015610a6157600080fd5b505afa158015610a75573d6000803e3d6000fd5b505050506040513d601f19601f82011682018060405250810190610a999190612a39565b9050610aa58382610c6a565b610ac15760405162461bcd60e51b815260040161084a90612e3c565b610ad1858583856020015161156a565b5050505050565b60055460065460075460085460095460ff9094169385565b6000600460009054906101000a90046001600160a01b03166001600160a01b03166318160ddd6040518163ffffffff1660e01b815260040160206040518083038186803b158015610b4057600080fd5b505afa158015610b54573d6000803e3d6000fd5b505050506040513d601f19601f82011682018060405250810190610b789190612a39565b905090565b60095490565b6003546001600160a01b031681565b60105481565b6004546001600160a01b031681565b600a602052600090815260409020805460018201546002830154600384015460049094015460ff90931693919290919085565b600b5481565b6000610486610bef8385610fce565b600260009054906101000a90046001600160a01b03166001600160a01b031663fe73ee736040518163ffffffff1660e01b815260040160206040518083038186803b1580156106bd57600080fd5b60075490565b6108c13382611c3a565b60118160038110610c5a57fe5b0154905081565b60055460ff1690565b6000610cc161046c83600260009054906101000a90046001600160a01b03166001600160a01b03166398a0a53d6040518163ffffffff1660e01b815260040160206040518083038186803b1580156106bd57600080fd5b610d4b84600360009054906101000a90046001600160a01b03166001600160a01b031663ee27c6896040518163ffffffff1660e01b815260040160206040518083038186803b158015610d1357600080fd5b505afa158015610d27573d6000803e3d6000fd5b505050506040513d601f19601f8201168201806040525081019061023a9190612a39565b139392505050565b600d5481565b6000546001600160a01b03163314610d835760405162461bcd60e51b815260040161084a90612f57565b6001600160a01b038116610da95760405162461bcd60e51b815260040161084a90612f30565b600080546040516001600160a01b03808516939216917fdcf55418cee3220104fef63f979ff3c4097ad240c0c43dcb33ce837748983e6291a3600180546001600160a01b0319166001600160a01b0392909216919091179055565b60145481565b6105cd82826120ef565b60006001600160ff1b03821115610e3d5760405162461bcd60e51b815260040161084a90613055565b5090565b6000818303818312801590610e565750838113155b80610e6b5750600083128015610e6b57508381135b6104865760405162461bcd60e51b815260040161084a90612fc7565b610f2a823083600260009054906101000a90046001600160a01b03166001600160a01b031663cb102dd26040518163ffffffff1660e01b815260040160206040518083038186803b158015610edb57600080fd5b505afa158015610eef573d6000803e3d6000fd5b505050506040513d601f19601f82011682018060405250810190610f13919061299a565b6001600160a01b031692919063ffffffff6121d216565b610f5e610f3682610e14565b6001600160a01b0384166000908152600a60205260409020600301549063ffffffff610ff816565b6001600160a01b039092166000908152600a602052604090206003019190915550565b600082821115610fa35760405162461bcd60e51b815260040161084a90612ede565b50900390565b6000828201838110156104865760405162461bcd60e51b815260040161084a90612fa4565b6000670de0b6b3a7640000610fe9848463ffffffff61223016565b81610ff057fe5b049392505050565b600082820181831280159061100d5750838112155b80611022575060008312801561102257508381125b6104865760405162461bcd60e51b815260040161084a90612dc6565b600154600160a01b900460ff16156110685760405162461bcd60e51b815260040161084a90612da3565b6001805460ff60a01b1916600160a01b1790556002546040805163a4a5e9ad60e01b815290516001600160a01b039092169163a4a5e9ad91600480820192600092909190829003018186803b1580156110c057600080fd5b505afa1580156110d4573d6000803e3d6000fd5b50505050600260009054906101000a90046001600160a01b03166001600160a01b031663d76bfbd96040518163ffffffff1660e01b815260040160006040518083038186803b15801561112657600080fd5b505afa15801561113a573d6000803e3d6000fd5b505050506000611148610af0565b90506000811161116a5760405162461bcd60e51b815260040161084a90612d3e565b6000611185611179848461226a565b6008546106f590612294565b905061119184826122b6565b60008060006111a0868661226a565b9050600060055460ff1660028111156111b557fe5b14611391576111c981600560010154610fce565b92506111da81600560020154610fce565b91506111e46128bc565b336000908152600a602052604090819020815160a081019092528054829060ff16600281111561121057fe5b600281111561121b57fe5b815260200160018201548152602001600282015481526020016003820154815260200160048201548152505090506112516128bc565b6040805160a0810190915260058054829060ff16600281111561127057fe5b600281111561127b57fe5b81526001820154602082015260028201546040820152600382015460608201526004909101546080909101526005549091506112bd90839060ff168688612300565b6005549092506112dc9082906112d59060ff166123cb565b8688612300565b336000908152600a60205260409020835181549293508492829060ff1916600183600281111561130857fe5b02179055506020820151816001015560408201518160020155606082015181600301556080820151816004015590505080600560008201518160000160006101000a81548160ff0219169083600281111561135f57fe5b021790555060208201516001820155604082015160028201556060820151600382015560809091015160049091015550505b6000806000806000600360009054906101000a90046001600160a01b03166001600160a01b031663ffa642256040518163ffffffff1660e01b815260040160a06040518083038186803b1580156113e757600080fd5b505afa1580156113fb573d6000803e3d6000fd5b505050506040513d601f19601f8201168201806040525081019061141f9190612acf565b939850919650945092509050611447846106f5670de0b6b3a76400008963ffffffff610f8116565b9350611465856106f5670de0b6b3a76400008963ffffffff610f8116565b9450611483826106f5670de0b6b3a76400008963ffffffff610f8116565b91506114a1836106f5670de0b6b3a76400008963ffffffff610f8116565b92506114b08585858585612405565b6114ba8c8c612488565b8b6001600160a01b0316336001600160a01b03167f92da889ebdf9766a076ef7881c4618bd4667d5f74d6cf3fa1c82f319cdb399608b8e6040516114ff9291906130c8565b60405180910390a350506001805460ff60a01b1916905550505050505050505050565b600061152c610af0565b90506000811161154e5760405162461bcd60e51b815260040161084a90612d3e565b6000611559836106fa565b9050611565838261103e565b505050565b6115726128bc565b6001600160a01b0385166000908152600a602052604090819020815160a081019092528054829060ff1660028111156115a757fe5b60028111156115b257fe5b815260200160018201548152602001600282015481526020016003820154815260200160048201548152505090506115e86128bc565b6001600160a01b0385166000908152600a602052604090819020815160a081019092528054829060ff16600281111561161d57fe5b600281111561162857fe5b8152602001600182015481526020016002820154815260200160038201548152602001600482015481525050905061165e6128bc565b6040805160a0810190915260058054829060ff16600281111561167d57fe5b600281111561168857fe5b81526020016001820154815260200160028201548152602001600382015481526020016004820154815250509050600082600001519050600061175361046c600260009054906101000a90046001600160a01b03166001600160a01b031663f5cdd2026040518163ffffffff1660e01b815260040160206040518083038186803b15801561171557600080fd5b505afa158015611729573d6000803e3d6000fd5b505050506040513d601f19601f8201168201806040525081019061174d9190612a39565b89610fce565b905060006117e961046c600260009054906101000a90046001600160a01b03166001600160a01b03166311187e366040518163ffffffff1660e01b815260040160206040518083038186803b1580156117ab57600080fd5b505afa1580156117bf573d6000803e3d6000fd5b505050506040513d601f19601f820116820180604052508101906117e39190612a39565b8a610fce565b90506117ff856117f8856123cb565b8a8a612300565b945061180d86848a8a612300565b955061181f828263ffffffff610ff816565b856060015112611886576118448161047a848860600151610e4190919063ffffffff16565b606080870191909152860151611860908363ffffffff610ff816565b60608088019190915284015161187c908263ffffffff610ff816565b6060850152611aa7565b818560600151126118eb5760608601516118a6908363ffffffff610ff816565b6060808801919091528501516118d7906118c6908463ffffffff610e4116565b60608601519063ffffffff610ff816565b606080860191909152600090860152611aa7565b8161190b6118fa601454610e14565b60608801519063ffffffff610ff816565b12611972576060860151611925908363ffffffff610ff816565b60608088019190915285015160009061194590849063ffffffff610e4116565b905061196261195382612294565b6014549063ffffffff610f8116565b6014555060006060860152611aa7565b6060860151611987908363ffffffff610ff816565b86606001818152505060006119c16119b46119a3601454610e14565b60608901519063ffffffff610ff816565b849063ffffffff610e4116565b60006014819055606088015290506119d76128ec565b6119df6105ec565b9050611a166119ed83612294565b826119f7886123cb565b6002811115611a0257fe5b60038110611a0c57fe5b602002015161226a565b6011611a21876123cb565b6002811115611a2c57fe5b60038110611a3657fe5b01805490910190557fe7c36d6fb87e3948a53ae9860b822817eeadf4473006f88cecd0180fcaae75ed611a68866123cb565b8383611a73896123cb565b6002811115611a7e57fe5b60038110611a8857fe5b6020020151604051611a9c93929190612c04565b60405180910390a150505b6001600160a01b0389166000908152600a602052604090208551815487929190829060ff19166001836002811115611adb57fe5b02179055506020820151816001015560408201518160020155606082015181600301556080820151816004015590505085600a60008c6001600160a01b03166001600160a01b0316815260200190815260200160002060008201518160000160006101000a81548160ff02191690836002811115611b5557fe5b021790555060208201516001820155604082015160028201556060808301516003830155608090920151600490910155600854908501511415611bdf57835160058054869290829060ff19166001836002811115611baf57fe5b02179055506020820151600182015560408201516002820155606082015160038201556080909101516004909101555b886001600160a01b03168a6001600160a01b03167f54f9b006b19a44694e56b0d6a57f34c420bf88da7373f9d0f3380e5f4b70951e858b8b604051611c2693929190612c04565b60405180910390a350505050505050505050565b600154600160a01b900460ff1615611c645760405162461bcd60e51b815260040161084a90612da3565b6001805460ff60a01b1916600160a01b1790556002546040805163a4a5e9ad60e01b815290516001600160a01b039092169163a4a5e9ad91600480820192600092909190829003018186803b158015611cbc57600080fd5b505afa158015611cd0573d6000803e3d6000fd5b50505050600260009054906101000a90046001600160a01b03166001600160a01b031663d76bfbd96040518163ffffffff1660e01b815260040160006040518083038186803b158015611d2257600080fd5b505afa158015611d36573d6000803e3d6000fd5b50505050600260009054906101000a90046001600160a01b03166001600160a01b031663c30ea2a26040518163ffffffff1660e01b815260040160006040518083038186803b158015611d8857600080fd5b505afa158015611d9c573d6000803e3d6000fd5b505050506000611daa610af0565b9050600081611dba575081611eaf565b60008060055460ff166002811115611dce57fe5b1415611ddd5750600854611e90565b600354600554611e8d916001600160a01b03169063a3ffd1cb90611e039060ff166123cb565b6006546007546040516001600160e01b031960e086901b168152611e2e939291908290600401612c70565b60206040518083038186803b158015611e4657600080fd5b505afa158015611e5a573d6000803e3d6000fd5b505050506040513d601f19601f82011682018060405250810190611e7e9190612a39565b6008549063ffffffff610ff816565b90505b611eab611ea585611ea084612294565b61226a565b84610fce565b9150505b600354600554600e5460009283928392839283926001600160a01b039091169163ffa960b49160ff1690611ee9908c63ffffffff610fa916565b600260009054906101000a90046001600160a01b03166001600160a01b031663796da7af6040518163ffffffff1660e01b815260040160206040518083038186803b158015611f3757600080fd5b505afa158015611f4b573d6000803e3d6000fd5b505050506040513d601f19601f82011682018060405250810190611f6f9190612a39565b6006546002546040805163ec2fd46d60e01b815290516001600160a01b039092169163ec2fd46d91600480820192602092909190829003018186803b158015611fb757600080fd5b505afa158015611fcb573d6000803e3d6000fd5b505050506040513d601f19601f82011682018060405250810190611fef9190612a39565b6040518663ffffffff1660e01b815260040161200f959493929190612c99565b60a06040518083038186803b15801561202757600080fd5b505afa15801561203b573d6000803e3d6000fd5b505050506040513d601f19601f8201168201806040525081019061205f9190612acf565b945094509450945094506120768585858585612405565b61208089896124ef565b61208a898761254a565b886001600160a01b0316336001600160a01b03167fbded9ba8a041a2b893fdc29720280cb14b8f6c369538bde50fcd4e602d5608578a896040516120cf9291906130c8565b60405180910390a350506001805460ff60a01b1916905550505050505050565b6121236120fb82610e14565b6001600160a01b0384166000908152600a60205260409020600301549063ffffffff610e4116565b6001600160a01b038084166000908152600a602090815260409182902060030193909355600254815163658816e960e11b815291516105cd948794879493169263cb102dd29260048083019392829003018186803b15801561218457600080fd5b505afa158015612198573d6000803e3d6000fd5b505050506040513d601f19601f820116820180604052508101906121bc919061299a565b6001600160a01b0316919063ffffffff61257b16565b61222a846323b872dd60e01b8585856040516024016121f393929190612b76565b60408051601f198184030181529190526020810180516001600160e01b03166001600160e01b03199093169290921790915261259a565b50505050565b60008261223f57506000610489565b8282028284828161224c57fe5b04146104865760405162461bcd60e51b815260040161084a906130a5565b60006104868261228885670de0b6b3a764000063ffffffff61223016565b9063ffffffff61265116565b600080821215610e3d5760405162461bcd60e51b815260040161084a9061307f565b600081116122d65760405162461bcd60e51b815260040161084a90612cd2565b6122f16122e282610e14565b6008549063ffffffff610e4116565b600855610f5e610f3682610e14565b6123086128bc565b6020850151600090839015801590612337575085600281111561232757fe5b8751600281111561233457fe5b14155b1561239c578660200151841161235d5761235287858761267e565b96506000905061239c565b61236f856106f589602001518761226a565b91506123808788602001518461267e565b9650612399876020015185610f8190919063ffffffff16565b90505b80156123c0576123bd8787836123b8898763ffffffff610f8116565b6127dc565b96505b509495945050505050565b600060028260028111156123db57fe5b14156123e9575060016105a6565b60018260028111156123f757fe5b1415610e3d575060026105a6565b82600c541461241457600c8390555b84600b541461242357600b8590555b83600d541461243257600d8490555b81600e541461244157600e8290555b80600281111561244d57fe5b600f5460ff16600281111561245e57fe5b14610ad157600f805482919060ff1916600183600281111561247c57fe5b02179055505050505050565b60048054604051632770a7eb60e21b81526001600160a01b0390911691639dc29fac916124b9918691869101612b9a565b600060405180830381600087803b1580156124d357600080fd5b505af11580156124e7573d6000803e3d6000fd5b505050505050565b6000811161250f5760405162461bcd60e51b815260040161084a90612e9b565b61251b6120fb82610e14565b6001600160a01b0383166000908152600a6020526040902060030155612543611e7e82610e14565b6008555050565b600480546040516340c10f1960e01b81526001600160a01b03909116916340c10f19916124b9918691869101612b9a565b6115658363a9059cbb60e01b84846040516024016121f3929190612b9a565b60006060836001600160a01b0316836040516125b69190612b29565b6000604051808303816000865af19150503d80600081146125f3576040519150601f19603f3d011682016040523d82523d6000602084013e6125f8565b606091505b50915091508161261a5760405162461bcd60e51b815260040161084a90612e07565b80511561222a57808060200190518101906126359190612a19565b61222a5760405162461bcd60e51b815260040161084a9061300b565b60008061265e8484612868565b90508281028403801561267657506001019050610489565b509050610489565b6126866128bc565b600083116126a65760405162461bcd60e51b815260040161084a90612f01565b600084602001518414156126bf575060408401516126d8565b6126d585604001516106f5868860200151612892565b90505b6003548551604051632d50ce1d60e21b81526000926001600160a01b03169163b54338749161270e919086908990600401612c04565b60206040518083038186803b15801561272657600080fd5b505afa15801561273a573d6000803e3d6000fd5b505050506040513d601f19601f8201168201806040525081019061275e9190612a39565b6060870151909150612776908263ffffffff610ff816565b6060870152604086015160208701516127a891906106f59061279e908963ffffffff610f8116565b8960200151612892565b604087015260208601516127c2908663ffffffff610f8116565b602087018190526127d257600086525b5093949350505050565b6127e46128bc565b600083116128045760405162461bcd60e51b815260040161084a90612d75565b602085015161282b578484600281111561281a57fe5b9081600281111561282757fe5b9052505b6020850151612840908463ffffffff610fa916565b6020860152604085015161285a908363ffffffff610fa916565b604086015250929392505050565b60008082116128895760405162461bcd60e51b815260040161084a90612e73565b818381610ff057fe5b6000610486826128b085670de0b6b3a764000063ffffffff61223016565b9063ffffffff61286816565b6040805160a081019091528060008152602001600081526020016000815260200160008152602001600081525090565b60405180606001604052806003906020820280368337509192915050565b600060a0828403121561291b578081fd5b60405160a0810181811067ffffffffffffffff8211171561293a578283fd5b604052905080823561294b816130f6565b80825250602083013560208201526040830135604082015260608301356060820152608083013560808201525092915050565b60006020828403121561298f578081fd5b8135610486816130e1565b6000602082840312156129ab578081fd5b8151610486816130e1565b600080604083850312156129c8578081fd5b82356129d3816130e1565b915060208301356129e3816130e1565b809150509250929050565b60008060408385031215612a00578182fd5b8235612a0b816130e1565b946020939093013593505050565b600060208284031215612a2a578081fd5b81518015158114610486578182fd5b600060208284031215612a4a578081fd5b5051919050565b600060a08284031215612a62578081fd5b610486838361290a565b60008060c08385031215612a7e578182fd5b612a88848461290a565b9460a0939093013593505050565b600060208284031215612aa7578081fd5b5035919050565b60008060408385031215612ac0578182fd5b50508035926020909101359150565b600080600080600060a08688031215612ae6578081fd5b855194506020860151935060408601519250606086015191506080860151612b0d816130f6565b809150509295509295909350565b60038110612b2557fe5b9052565b60008251815b81811015612b495760208186018101518583015201612b2f565b81811115612b575782828501525b509190910192915050565b6001600160a01b0391909116815260200190565b6001600160a01b039384168152919092166020820152604081019190915260600190565b6001600160a01b03929092168252602082015260400190565b60608101818360005b6003811015612bdb578151835260209283019290910190600101612bbc565b50505092915050565b901515815260200190565b60208101612bfc836130d6565b825292915050565b60608101612c11856130d6565b8252602082019390935260400152919050565b60408101612c328285612b1b565b8260208301529392505050565b60a08101612c4c876130d6565b82528560208301528460408301528360608301528260808301529695505050505050565b60808101612c7e8287612b1b565b84602083015283604083015282606083015295945050505050565b60a08101612ca78288612b1b565b8560208301528460408301528360608301528260808301529695505050505050565b90815260200190565b60208082526025908201527f4d617267696e5472616e7366657246726f6d506f6f6c5f494c4c4547414c5f416040820152641353d5539560da1b606082015260800190565b6020808252600d908201526c494e56414c49445f434c41494d60981b604082015260600190565b6020808252601b908201527f7769746864726177436f6c6c61746572616c546f3a204e4f5f4c500000000000604082015260600190565b6020808252601490820152731bdc195b8e881a5b9d985b1a5908185b5bdd5b9d60621b604082015260600190565b60208082526009908201526814915153951490539560ba1b604082015260600190565b60208082526021908201527f5369676e6564536166654d6174683a206164646974696f6e206f766572666c6f6040820152607760f81b606082015260800190565b6020808252818101527f5361666545524332303a206c6f772d6c6576656c2063616c6c206661696c6564604082015260600190565b6020808252601a908201527f4c495155494441544f525f4e4f545f454e4f5547485f46554e44000000000000604082015260600190565b6020808252600e908201526d2224ab24a224a723afa2a92927a960911b604082015260600190565b60208082526023908201527f4d617267696e5472616e73666572546f506f6f6c5f494c4c4547414c5f414d4f60408201526215539560ea1b606082015260800190565b60208082526009908201526829aaa12fa2a92927a960b91b604082015260600190565b60208082526015908201527418db1bdcd94e881a5b9d985b1a5908185b5bdd5b9d605a1b604082015260600190565b6020808252600d908201526c24a72b20a624a22fa7aba722a960991b604082015260600190565b6020808252600990820152682727aa2fa7aba722a960b91b604082015260600190565b60208082526010908201526f29a0a322afaa27afa6a0a4a72a20a4a760811b604082015260600190565b60208082526009908201526820a2222fa2a92927a960b91b604082015260600190565b60208082526024908201527f5369676e6564536166654d6174683a207375627472616374696f6e206f766572604082015263666c6f7760e01b606082015260800190565b6020808252602a908201527f5361666545524332303a204552433230206f7065726174696f6e20646964206e6040820152691bdd081cdd58d8d9595960b21b606082015260800190565b60208082526010908201526f75696e74323536206f766572666c6f7760801b604082015260600190565b6020808252600c908201526b696e74206f766572666c6f7760a01b604082015260600190565b60208082526009908201526826aaa62fa2a92927a960b91b604082015260600190565b918252602082015260400190565b80600381106105a657fe5b6001600160a01b03811681146108c157600080fd5b600381106108c157600080fdfea2646970667358221220afbc7ae2b141044c052f474d282bedf04e10f70bc6b132d3857d2fccc548eaba64736f6c63430006090033",
  "immutableReferences": {},
  "source": "/*\n\n    Copyright 2020 DODO ZOO.\n    SPDX-License-Identifier: Apache-2.0\n\n*/\n\npragma solidity 0.6.9;\npragma experimental ABIEncoderV2;\n\nimport {SafeMath} from \"../lib/SafeMath.sol\";\nimport {SignedSafeMath} from \"../lib/SignedSafeMath.sol\";\nimport {DecimalMath} from \"../lib/DecimalMath.sol\";\nimport {Types} from \"../lib/Types.sol\";\nimport {ILpToken} from \"../interface/ILpToken.sol\";\nimport {Margin} from \"./Margin.sol\";\n\n/**\n * @title LiquidityProvider\n * @author Parapara\n *\n * @notice Functions for liquidity provider operations\n */\ncontract LiquidityProvider is Margin {\n    using SafeMath for uint256;\n    using SignedSafeMath for int256;\n\n\n    // ============ Events ============\n\n    event LpDeposit(\n        address indexed payer,\n        address indexed receiver,\n        uint256 amount,\n        uint256 lpTokenAmount\n    );\n\n    event LpWithdraw(\n        address indexed payer,\n        address indexed receiver,\n        uint256 amount,\n        uint256 lpTokenAmount\n    );\n\n\n    // ============ Routine Functions ============\n\n    /*\n     * @dev deposit to LP\n     * @param amount amount of collateral token\n     */\n    function depositCollateral(uint256 amount) external {\n        _depositCollateralTo(msg.sender, amount);\n    }\n\n    /*\n     * @dev withdraw msg.sender's share to account balance given amount of LP token\n     * @param amount amount of LP token.\n     */\n    function withdrawCollateral(uint256 amount) external {\n        _withdrawCollateralTo(msg.sender, amount);\n    }\n\n    /*\n     * @dev withdraw msg.sender's all share to account balance\n     * @param amount amount of LP token.\n     */\n    function withdrawAllCollateral() external {\n        _withdrawAllCollateralTo(msg.sender);\n    }\n\n\n    // ============ Deposit Functions ============\n    /*\n     * @dev Calculate LP share given Collateral amount\n     * @param to LP address.\n     * @param amount amount of collateral token.\n     */\n    function _depositCollateralTo(address to, uint256 amount)\n        internal\n        preventReentrant\n    {\n        ADMIN.checkNotClosed();\n        ADMIN.checkNotPaused();\n        ADMIN.depositAllowed();\n\n        uint256 totalCapital = getTotalCollateralPoolToken();\n        uint256 capital;\n        if (totalCapital == 0) {\n            // give remaining quote token to lp as a gift\n            capital = amount;\n        }\n        else {\n            int256 collateralBalance;\n            if (_POOL_MARGIN_ACCOUNT_.SIDE == Types.Side.FLAT) {\n                collateralBalance = _POOL_MARGIN_ACCOUNT_.CASH_BALANCE;\n            }\n            else {\n                collateralBalance = _POOL_MARGIN_ACCOUNT_.CASH_BALANCE.add(\n                    PRICING.queryPNL(\n                        Types.oppositeSide(_POOL_MARGIN_ACCOUNT_.SIDE),\n                        _POOL_MARGIN_ACCOUNT_.SIZE,\n                        _POOL_MARGIN_ACCOUNT_.ENTRY_VALUE,\n                        _POOL_MARGIN_ACCOUNT_.SIZE\n                    )\n                );\n            }\n            capital = DecimalMath.mul(DecimalMath.divCeil(amount, collateralBalance.touint256()), totalCapital);\n        }\n\n        // settlement\n        (uint256 baseTarget, uint256 baseBalance, uint256 quoteTarget, uint256 quoteBalance, Types.Side newSide) = PRICING.getExpectedTargetExt(\n            _POOL_MARGIN_ACCOUNT_.SIDE,\n            _QUOTE_BALANCE_.add(amount),\n            ADMIN.getOraclePrice(),\n            _POOL_MARGIN_ACCOUNT_.SIZE,\n            ADMIN._K_()\n        );\n\n        updateVirtualBalance(baseTarget, baseBalance, quoteTarget, quoteBalance, newSide);\n        _marginTransferToPool(to, amount);\n        _mintCollateralPoolToken(to, capital);\n\n        emit LpDeposit(msg.sender, to, amount, capital);\n    }\n                                                                                                                                                                                                                                                                                                                                                                                                                                                                                                                                                                                                                                                                                                                                                                                                                                                                                                                                                                                                                                                                                                                                                                                                                                                                                                                                                                                                                                                                                                                                                                                                                                                                                                                                                                                                                                                                                                                                                                                                                                                                                                                                                                                                                                                                                                                                                                                                                                                                                                                                                                                                                                                                                                                                                                                                                                                                                                                                                                                                                                                                                                                                                                                                                                                                                                                                                                                                                                                                                                                                                                                                                                                                                                                                                                                                                                                                                                                                                                                                                                                                                                                                                                                                                                                                                                                                                                                                                                                                                                                                                                                                                                                                                                                                                                                                                                                                                                                                                                                                                                                                                                                                                                                                                                                                                                                                                                                                                                                                                                                                                                                                                                                                                                                                                                                                                                                                                                                                                                                                                                                                                                                                                                                                                                                                                                                                                                                                                                                                                                                                                                                                                                                                                                                                                                                                                                                                                                                                                                                                                                                                                                                                                                                                                                                                                                                                                                                                                                                                                                                                                                                                                                                                                                                                                                                                                                                                                                                                                                                                                                                                                                                                                                                                                                                                                                                                                                                                                                                                                                                                                                                                                                                                                                                                                                                                                                                                                                                                                                                                                                                                                                                                                                                                                                                                                                                                                                                                                                                                                                                                                                                                                                                                                                                                                                                                                                                                                                                                                                                                                                                                                                                                                                                                                                                                                                                                                                                                                                                                                                                                                                                                                                                                                                                                                                                                                                                                                                                                                                                                                                                                                                                                                                                                                                                                                                                                                                                                                                                                                                                                                                                                                                                                                                                                                                                                                                                                                                                                                                                                                                                                                                                                                                                                                                                                                                                                                                                                                                                                                                                                                                                                                                                                                                                                                                                                                                                                                                                                                                                                                                                                                                                                                                                                                                                                                                                                                                                                                                                                                                                                                                                                                                                                                                                                                                                                                                                                                                                                                                                                                                                                                                                                                                                                                                                                                                                                                                                                                                                                                                                                                                                                                                                                                                                                                                                                                                                                                                                                                                                                                                                                                                                                                                                                                                                                                                                                                                                                                                                                                                                                                                                                                                                                                                                                                                                                                                                                                                                                                                                                                                                                                                                                                                                                                                                                                                                                                                                                                                                                                                                                                                                                                                                                                                                                                                                                                                                                                                                                                                                                                                                                                                                                                                                                                                                                                                                                                                                                                                                                                                                                                                                                                                                                                                                                                                                                                                                                                                                                                                                                                                                                                                                                                                                                                                                                                                                                                                                                                                                                                                                                                                                                                                                                                                                                                                                                                                                                                                                                                                                                                                                                                                                                                                                                                                                                                                                                                                                                                                                                                                                                                                                                                                                                                                                                                                                                                                                                                                                                                                                                                                                                                                                                                                                                                                                                                                                                                                                                                                                                                                                                                                                                                                                                                                                                                                                                                                                                                                                                                                                                                                                                                                                                                                                                                                                                                                                                                                                                                                                                                                                                                                                                                                                                                                                                                                                                                                                                                                                                                                                                                                                                                                                                                                                                                                                                                                                                                                                                                                                                                                                                                                                                                                                                                                                                                                                                                                                                                                                                                                                                                                                                                                                                                                                                                                                                                                                                                                                                                                                                                                                                                                                                                                                                                                                                                                                                                                                                                                                                                                                                                                                                                                                                                                                                                                                                                                                                                                                                                                                                                                                                                                                                                                                                                                                                                                                                                                                                                                                                                                                                                                                                                                                                                                                                                                                                                                                                                                                                                                                                                                                                                                                                                                                                                                                                                                                                                                                                                                                                                                                                                                                                                                                                                                                                                                                                                                                                                                                                                                                                                                                                                                                                                                                                                                                                                                                                                                                                                                                                                                                                                                                                                                                                                                                                                                                                                                                                                                                                                                                                                                                                                                                                                                                                                                                                                                                                                                                                                                                                                                                                                                                                                                                                                                                                                                                                                                                                                                                                                                                                                                                                                                                                                                                                                                                                                                                                                                                                                                                                                                                                                                                                                                                                                                                                                                                                                                                                                                                                                                                                                                                                                                                                                                                                                                                                                                                                                                                                                                                                                                                                                                                                                                                                                                                                                                                                                                                                                                                                                                                                                                                                                                                                                                                                                                                                                                                                                                                                                                                                                                                                                      \n    // ============ Withdraw Functions ============\n    /*\n     * @dev Calculate LP share given LP token amount\n     * @param to LP address.\n     * @param amount amount of LP token.\n     */\n    function _withdrawCollateralTo(address to, uint256 lpAmount)\n        internal\n        preventReentrant\n    {\n        ADMIN.checkNotClosed();\n        ADMIN.checkNotPaused();\n        // calculate capital\n        uint256 totalCapital = getTotalCollateralPoolToken();\n        require(totalCapital > 0, \"withdrawCollateralTo: NO_LP\");\n        uint256 cashAmount = DecimalMath.mul(DecimalMath.divCeil(lpAmount, totalCapital), _POOL_MARGIN_ACCOUNT_.CASH_BALANCE.touint256());\n        _marginTransferFromPool(to, cashAmount);\n        uint256 sizeAmount;\n        uint256 valueAmount;\n        uint256 r = DecimalMath.divCeil(lpAmount, totalCapital);\n        if (_POOL_MARGIN_ACCOUNT_.SIDE != Types.Side.FLAT) {\n            sizeAmount = DecimalMath.mul(r, _POOL_MARGIN_ACCOUNT_.SIZE);\n            valueAmount = DecimalMath.mul(r, _POOL_MARGIN_ACCOUNT_.ENTRY_VALUE);\n\n            Types.MarginAccount memory traderAccount = _MARGIN_ACCOUNT_[msg.sender];\n            Types.MarginAccount memory poolAccount = _POOL_MARGIN_ACCOUNT_;\n            traderAccount = trade(traderAccount, _POOL_MARGIN_ACCOUNT_.SIDE, valueAmount, sizeAmount);\n            poolAccount = trade(poolAccount, Types.oppositeSide(_POOL_MARGIN_ACCOUNT_.SIDE), valueAmount, sizeAmount);\n            _MARGIN_ACCOUNT_[msg.sender] = traderAccount;\n            _POOL_MARGIN_ACCOUNT_ = poolAccount;\n\n        }\n\n        (uint256 baseTarget, uint256 baseBalance, uint256 quoteTarget, uint256 quoteBalance, Types.Side newSide) = PRICING.getExpectedTarget();\n        baseBalance = DecimalMath.mul(baseBalance,DecimalMath.ONE.sub(r));\n        baseTarget = DecimalMath.mul(baseTarget,DecimalMath.ONE.sub(r));\n        quoteBalance = DecimalMath.mul(quoteBalance,DecimalMath.ONE.sub(r));\n        quoteTarget = DecimalMath.mul(quoteTarget,DecimalMath.ONE.sub(r));\n        updateVirtualBalance(baseTarget, baseBalance, quoteTarget, quoteBalance, newSide);\n\n\n        // settlement\n        _burnCollateralPoolToken(to, lpAmount);\n        emit LpWithdraw(msg.sender, to, cashAmount, lpAmount);\n    }\n\n    // ============ Withdraw all Functions ============\n\n    function _withdrawAllCollateralTo(address to)\n        internal\n    {\n        uint256 totalCapital = getTotalCollateralPoolToken();\n        require(totalCapital > 0, \"withdrawCollateralTo: NO_LP\");\n        uint256 lpAmount = getCollateralPoolTokenBalanceOf(to);\n        _withdrawCollateralTo(to, lpAmount);\n    }\n\n\n\n    // ============ Helper Functions ============\n    function _calculatePoolEquity() internal view returns (int256 equityBalance) {\n        if (_POOL_MARGIN_ACCOUNT_.SIDE == Types.Side.FLAT) {\n            equityBalance = _POOL_MARGIN_ACCOUNT_.CASH_BALANCE;\n        }\n        else {\n            equityBalance = _POOL_MARGIN_ACCOUNT_.CASH_BALANCE.add(\n                PRICING.queryPNL(\n                    Types.oppositeSide(_POOL_MARGIN_ACCOUNT_.SIDE),\n                    _POOL_MARGIN_ACCOUNT_.SIZE,\n                    _POOL_MARGIN_ACCOUNT_.ENTRY_VALUE,\n                    _POOL_MARGIN_ACCOUNT_.SIZE\n                )\n            );\n        }\n    }\n    // calculate ENP\n    function _poolNetPositionRatio() internal view returns (uint256 ENP) {\n        uint256 poolEquity = _calculatePoolEquity().max(0).touint256();\n        uint256 currentValue = DecimalMath.mul(_POOL_MARGIN_ACCOUNT_.SIZE, ADMIN.getOraclePrice());\n        ENP = DecimalMath.divCeil(poolEquity, currentValue);\n    }\n\n    // POOL \n    function _canPoolOpen() internal view returns (bool) {\n        return _poolNetPositionRatio()>ADMIN._POOL_OPEN_TH_();\n    }\n\n    //  POOL keep\n    function _canPoolKeep() internal view returns (bool) {\n        return _poolNetPositionRatio()>ADMIN._POOL_LIQUIDATE_TH_();\n    }\n\n    function getCollateralPoolTokenBalanceOf(address lp)\n        public\n        view\n        returns (uint256)\n    {\n        return ILpToken(_COLLATERAL_POOL_TOKEN_).balanceOf(lp);\n    }\n\n    function getTotalCollateralPoolToken() public view returns (uint256) {\n        return ILpToken(_COLLATERAL_POOL_TOKEN_).totalSupply();\n    }\n\n    function _mintCollateralPoolToken(address user, uint256 amount) internal {\n        ILpToken(_COLLATERAL_POOL_TOKEN_).mint(user, amount);\n    }\n\n    function _burnCollateralPoolToken(address user, uint256 amount) internal {\n        ILpToken(_COLLATERAL_POOL_TOKEN_).burn(user, amount);\n    }\n}\n",
  "sourcePath": "/Users/daniel/Codes/parapara/para_dapp_v6/contracts/perpetual/LiquidityProvider.sol",
  "compiler": {
    "name": "solc",
    "version": "0.6.9+commit.3e3065ac.Emscripten.clang"
  },
  "schemaVersion": "3.3.4",
  "updatedAt": "2021-03-26T05:07:53.831Z",
  "devdoc": {
    "author": "Parapara",
    "methods": {},
    "title": "LiquidityProvider"
  },
  "userdoc": {
    "methods": {},
    "notice": "Functions for liquidity provider operations"
  }
}