{
  "contractName": "Liquidator",
  "abi": [
    {
      "inputs": [],
      "name": "tokenPrice",
      "outputs": [
        {
          "internalType": "uint256",
          "name": "",
          "type": "uint256"
        }
      ],
      "stateMutability": "view",
      "type": "function"
    },
    {
      "inputs": [],
      "name": "getPrice",
      "outputs": [
        {
          "internalType": "uint256",
          "name": "",
          "type": "uint256"
        }
      ],
      "stateMutability": "view",
      "type": "function"
    }
  ],
  "bytecode": "0x6080604052348015600f57600080fd5b5060a28061001e6000396000f3fe6080604052348015600f57600080fd5b506004361060325760003560e01c80637ff9b59614603757806398d5fdca146051575b600080fd5b603d6057565b604051604891906063565b60405180910390f35b603d605d565b60005481565b60005490565b9081526020019056fea2646970667358221220d9be9f7b9f920ed9e7303cede644cdeddf5552caf0206b8197fae83fad14cf6364736f6c63430006090033",
  "immutableReferences": {},
  "source": "/*\n\n    Copyright 2020 DODO ZOO.\n    SPDX-License-Identifier: Apache-2.0\n\n*/\n\npragma solidity 0.6.9;\npragma experimental ABIEncoderV2;\n\n\nimport {IPara} from \"../interface/IPara.sol\";\n\n\n// Oracle only for test\ncontract Liquidator {\n\n    uint256 public tokenPrice;\n\n    function getPrice() external view returns (uint256) {\n        return tokenPrice;\n    }\n}\n",
  "sourcePath": "/Users/daniel/Codes/parapara/para_dapp_v6/contracts/helper/Liquidator.sol",
  "compiler": {
    "name": "solc",
    "version": "0.6.9+commit.3e3065ac.Emscripten.clang"
  },
  "schemaVersion": "3.3.4",
  "updatedAt": "2021-03-25T08:51:25.633Z",
  "devdoc": {
    "methods": {}
  },
  "userdoc": {
    "methods": {}
  }
}