{
  "contractName": "LiquidityProvider",
  "abi": [
    {
      "anonymous": false,
      "inputs": [
        {
          "indexed": true,
          "internalType": "address",
          "name": "user",
          "type": "address"
        },
        {
          "indexed": false,
          "internalType": "uint256",
          "name": "baseTokenAmount",
          "type": "uint256"
        },
        {
          "indexed": false,
          "internalType": "uint256",
          "name": "quoteTokenAmount",
          "type": "uint256"
        }
      ],
      "name": "ClaimAssets",
      "type": "event"
    },
    {
      "anonymous": false,
      "inputs": [
        {
          "indexed": true,
          "internalType": "address",
          "name": "trader",
          "type": "address"
        },
        {
          "indexed": false,
          "internalType": "uint256",
          "name": "amount",
          "type": "uint256"
        },
        {
          "indexed": false,
          "internalType": "int256",
          "name": "balance",
          "type": "int256"
        }
      ],
      "name": "Deposit",
      "type": "event"
    },
    {
      "anonymous": false,
      "inputs": [
        {
          "indexed": false,
          "internalType": "uint256",
          "name": "amount",
          "type": "uint256"
        }
      ],
      "name": "Donate",
      "type": "event"
    },
    {
      "anonymous": false,
      "inputs": [
        {
          "indexed": true,
          "internalType": "address",
          "name": "trader",
          "type": "address"
        },
        {
          "indexed": false,
          "internalType": "int256",
          "name": "amount",
          "type": "int256"
        },
        {
          "indexed": false,
          "internalType": "int256",
          "name": "balanceAfter",
          "type": "int256"
        }
      ],
      "name": "InternalUpdateBalance",
      "type": "event"
    },
    {
      "anonymous": false,
      "inputs": [
        {
          "indexed": true,
          "internalType": "address",
          "name": "trader",
          "type": "address"
        },
        {
          "indexed": true,
          "internalType": "address",
          "name": "liquidator",
          "type": "address"
        },
        {
          "indexed": false,
          "internalType": "enum Types.Side",
          "name": "liquidationSide",
          "type": "uint8"
        },
        {
          "indexed": false,
          "internalType": "uint256",
          "name": "liquidationValue",
          "type": "uint256"
        },
        {
          "indexed": false,
          "internalType": "uint256",
          "name": "liquidationAmount",
          "type": "uint256"
        }
      ],
      "name": "Liquidate",
      "type": "event"
    },
    {
      "anonymous": false,
      "inputs": [
        {
          "indexed": true,
          "internalType": "address",
          "name": "payer",
          "type": "address"
        },
        {
          "indexed": true,
          "internalType": "address",
          "name": "receiver",
          "type": "address"
        },
        {
          "indexed": false,
          "internalType": "uint256",
          "name": "amount",
          "type": "uint256"
        },
        {
          "indexed": false,
          "internalType": "uint256",
          "name": "lpTokenAmount",
          "type": "uint256"
        }
      ],
      "name": "LpDeposit",
      "type": "event"
    },
    {
      "anonymous": false,
      "inputs": [
        {
          "indexed": true,
          "internalType": "address",
          "name": "payer",
          "type": "address"
        },
        {
          "indexed": true,
          "internalType": "address",
          "name": "receiver",
          "type": "address"
        },
        {
          "indexed": false,
          "internalType": "uint256",
          "name": "amount",
          "type": "uint256"
        },
        {
          "indexed": false,
          "internalType": "uint256",
          "name": "lpTokenAmount",
          "type": "uint256"
        }
      ],
      "name": "LpWithdraw",
      "type": "event"
    },
    {
      "anonymous": false,
      "inputs": [
        {
          "indexed": true,
          "internalType": "address",
          "name": "previousOwner",
          "type": "address"
        },
        {
          "indexed": true,
          "internalType": "address",
          "name": "newOwner",
          "type": "address"
        }
      ],
      "name": "OwnershipTransferPrepared",
      "type": "event"
    },
    {
      "anonymous": false,
      "inputs": [
        {
          "indexed": true,
          "internalType": "address",
          "name": "previousOwner",
          "type": "address"
        },
        {
          "indexed": true,
          "internalType": "address",
          "name": "newOwner",
          "type": "address"
        }
      ],
      "name": "OwnershipTransferred",
      "type": "event"
    },
    {
      "anonymous": false,
      "inputs": [
        {
          "indexed": false,
          "internalType": "enum Types.Side",
          "name": "lossSide",
          "type": "uint8"
        },
        {
          "indexed": false,
          "internalType": "int256",
          "name": "sloss",
          "type": "int256"
        },
        {
          "indexed": false,
          "internalType": "uint256",
          "name": "totalSize",
          "type": "uint256"
        }
      ],
      "name": "SocialLossUpdate",
      "type": "event"
    },
    {
      "anonymous": false,
      "inputs": [
        {
          "indexed": true,
          "internalType": "address",
          "name": "trader",
          "type": "address"
        },
        {
          "indexed": false,
          "internalType": "uint256",
          "name": "amount",
          "type": "uint256"
        },
        {
          "indexed": false,
          "internalType": "int256",
          "name": "balance",
          "type": "int256"
        }
      ],
      "name": "Withdraw",
      "type": "event"
    },
    {
      "inputs": [],
      "name": "ADMIN",
      "outputs": [
        {
          "internalType": "contract Admin",
          "name": "",
          "type": "address"
        }
      ],
      "stateMutability": "view",
      "type": "function"
    },
    {
      "inputs": [],
      "name": "PRICING",
      "outputs": [
        {
          "internalType": "contract Pricing",
          "name": "",
          "type": "address"
        }
      ],
      "stateMutability": "view",
      "type": "function"
    },
    {
      "inputs": [],
      "name": "_BASE_BALANCE_",
      "outputs": [
        {
          "internalType": "uint256",
          "name": "",
          "type": "uint256"
        }
      ],
      "stateMutability": "view",
      "type": "function"
    },
    {
      "inputs": [],
      "name": "_COLLATERAL_POOL_TOKEN_",
      "outputs": [
        {
          "internalType": "address",
          "name": "",
          "type": "address"
        }
      ],
      "stateMutability": "view",
      "type": "function"
    },
    {
      "inputs": [
        {
          "internalType": "address",
          "name": "",
          "type": "address"
        }
      ],
      "name": "_MARGIN_ACCOUNT_",
      "outputs": [
        {
          "internalType": "enum Types.Side",
          "name": "SIDE",
          "type": "uint8"
        },
        {
          "internalType": "uint256",
          "name": "SIZE",
          "type": "uint256"
        },
        {
          "internalType": "uint256",
          "name": "ENTRY_VALUE",
          "type": "uint256"
        },
        {
          "internalType": "int256",
          "name": "CASH_BALANCE",
          "type": "int256"
        },
        {
          "internalType": "uint256",
          "name": "ENTRY_SLOSS",
          "type": "uint256"
        }
      ],
      "stateMutability": "view",
      "type": "function"
    },
    {
      "inputs": [],
      "name": "_NEW_OWNER_",
      "outputs": [
        {
          "internalType": "address",
          "name": "",
          "type": "address"
        }
      ],
      "stateMutability": "view",
      "type": "function"
    },
    {
      "inputs": [],
      "name": "_OWNER_",
      "outputs": [
        {
          "internalType": "address",
          "name": "",
          "type": "address"
        }
      ],
      "stateMutability": "view",
      "type": "function"
    },
    {
      "inputs": [],
      "name": "_POOL_INSURANCE_BALANCE_",
      "outputs": [
        {
          "internalType": "uint256",
          "name": "",
          "type": "uint256"
        }
      ],
      "stateMutability": "view",
      "type": "function"
    },
    {
      "inputs": [],
      "name": "_QUOTE_BALANCE_",
      "outputs": [
        {
          "internalType": "uint256",
          "name": "",
          "type": "uint256"
        }
      ],
      "stateMutability": "view",
      "type": "function"
    },
    {
      "inputs": [],
      "name": "_R_STATUS_",
      "outputs": [
        {
          "internalType": "enum Types.Side",
          "name": "",
          "type": "uint8"
        }
      ],
      "stateMutability": "view",
      "type": "function"
    },
    {
      "inputs": [
        {
          "internalType": "uint256",
          "name": "",
          "type": "uint256"
        }
      ],
      "name": "_SLOSS_PER_CONTRACT_",
      "outputs": [
        {
          "internalType": "uint256",
          "name": "",
          "type": "uint256"
        }
      ],
      "stateMutability": "view",
      "type": "function"
    },
    {
      "inputs": [],
      "name": "_TARGET_BASE_TOKEN_AMOUNT_",
      "outputs": [
        {
          "internalType": "uint256",
          "name": "",
          "type": "uint256"
        }
      ],
      "stateMutability": "view",
      "type": "function"
    },
    {
      "inputs": [],
      "name": "_TARGET_QUOTE_TOKEN_AMOUNT_",
      "outputs": [
        {
          "internalType": "uint256",
          "name": "",
          "type": "uint256"
        }
      ],
      "stateMutability": "view",
      "type": "function"
    },
    {
      "inputs": [],
      "name": "_TOTAL_LONG_SIZE_",
      "outputs": [
        {
          "internalType": "uint256",
          "name": "",
          "type": "uint256"
        }
      ],
      "stateMutability": "view",
      "type": "function"
    },
    {
      "inputs": [
        {
          "components": [
            {
              "internalType": "enum Types.Side",
              "name": "SIDE",
              "type": "uint8"
            },
            {
              "internalType": "uint256",
              "name": "SIZE",
              "type": "uint256"
            },
            {
              "internalType": "uint256",
              "name": "ENTRY_VALUE",
              "type": "uint256"
            },
            {
              "internalType": "int256",
              "name": "CASH_BALANCE",
              "type": "int256"
            },
            {
              "internalType": "uint256",
              "name": "ENTRY_SLOSS",
              "type": "uint256"
            }
          ],
          "internalType": "struct Types.MarginAccount",
          "name": "account",
          "type": "tuple"
        },
        {
          "internalType": "uint256",
          "name": "markPrice",
          "type": "uint256"
        }
      ],
      "name": "availableMargin",
      "outputs": [
        {
          "internalType": "int256",
          "name": "",
          "type": "int256"
        }
      ],
      "stateMutability": "view",
      "type": "function"
    },
    {
      "inputs": [
        {
          "components": [
            {
              "internalType": "enum Types.Side",
              "name": "SIDE",
              "type": "uint8"
            },
            {
              "internalType": "uint256",
              "name": "SIZE",
              "type": "uint256"
            },
            {
              "internalType": "uint256",
              "name": "ENTRY_VALUE",
              "type": "uint256"
            },
            {
              "internalType": "int256",
              "name": "CASH_BALANCE",
              "type": "int256"
            },
            {
              "internalType": "uint256",
              "name": "ENTRY_SLOSS",
              "type": "uint256"
            }
          ],
          "internalType": "struct Types.MarginAccount",
          "name": "account",
          "type": "tuple"
        }
      ],
      "name": "balanceMargin",
      "outputs": [
        {
          "internalType": "int256",
          "name": "",
          "type": "int256"
        }
      ],
      "stateMutability": "view",
      "type": "function"
    },
    {
      "inputs": [],
      "name": "claimOwnership",
      "outputs": [],
      "stateMutability": "nonpayable",
      "type": "function"
    },
    {
      "inputs": [
        {
          "internalType": "address",
          "name": "from",
          "type": "address"
        },
        {
          "internalType": "uint256",
          "name": "amount",
          "type": "uint256"
        }
      ],
      "name": "collateralTraderTransferIn",
      "outputs": [],
      "stateMutability": "nonpayable",
      "type": "function"
    },
    {
      "inputs": [
        {
          "internalType": "address",
          "name": "to",
          "type": "address"
        },
        {
          "internalType": "uint256",
          "name": "amount",
          "type": "uint256"
        }
      ],
      "name": "collateralTraderTransferOut",
      "outputs": [],
      "stateMutability": "nonpayable",
      "type": "function"
    },
    {
      "inputs": [],
      "name": "getPoolMarginCashBalance",
      "outputs": [
        {
          "internalType": "int256",
          "name": "",
          "type": "int256"
        }
      ],
      "stateMutability": "view",
      "type": "function"
    },
    {
      "inputs": [],
      "name": "getPoolMarginEntrySloss",
      "outputs": [
        {
          "internalType": "uint256",
          "name": "",
          "type": "uint256"
        }
      ],
      "stateMutability": "view",
      "type": "function"
    },
    {
      "inputs": [],
      "name": "getPoolMarginEntryValue",
      "outputs": [
        {
          "internalType": "uint256",
          "name": "",
          "type": "uint256"
        }
      ],
      "stateMutability": "view",
      "type": "function"
    },
    {
      "inputs": [],
      "name": "getPoolMarginSide",
      "outputs": [
        {
          "internalType": "enum Types.Side",
          "name": "",
          "type": "uint8"
        }
      ],
      "stateMutability": "view",
      "type": "function"
    },
    {
      "inputs": [],
      "name": "getPoolMarginSize",
      "outputs": [
        {
          "internalType": "uint256",
          "name": "",
          "type": "uint256"
        }
      ],
      "stateMutability": "view",
      "type": "function"
    },
    {
      "inputs": [],
      "name": "getSloss",
      "outputs": [
        {
          "internalType": "uint256[3]",
          "name": "",
          "type": "uint256[3]"
        }
      ],
      "stateMutability": "view",
      "type": "function"
    },
    {
      "inputs": [],
      "name": "getTotalSize",
      "outputs": [
        {
          "internalType": "uint256[3]",
          "name": "",
          "type": "uint256[3]"
        }
      ],
      "stateMutability": "view",
      "type": "function"
    },
    {
      "inputs": [
        {
          "internalType": "uint256",
          "name": "amount",
          "type": "uint256"
        },
        {
          "internalType": "uint256",
          "name": "markPrice",
          "type": "uint256"
        }
      ],
      "name": "initialMargin",
      "outputs": [
        {
          "internalType": "uint256",
          "name": "",
          "type": "uint256"
        }
      ],
      "stateMutability": "view",
      "type": "function"
    },
    {
      "inputs": [
        {
          "internalType": "address",
          "name": "trader",
          "type": "address"
        }
      ],
      "name": "isSafeMaintain",
      "outputs": [
        {
          "internalType": "bool",
          "name": "",
          "type": "bool"
        }
      ],
      "stateMutability": "view",
      "type": "function"
    },
    {
      "inputs": [
        {
          "components": [
            {
              "internalType": "enum Types.Side",
              "name": "SIDE",
              "type": "uint8"
            },
            {
              "internalType": "uint256",
              "name": "SIZE",
              "type": "uint256"
            },
            {
              "internalType": "uint256",
              "name": "ENTRY_VALUE",
              "type": "uint256"
            },
            {
              "internalType": "int256",
              "name": "CASH_BALANCE",
              "type": "int256"
            },
            {
              "internalType": "uint256",
              "name": "ENTRY_SLOSS",
              "type": "uint256"
            }
          ],
          "internalType": "struct Types.MarginAccount",
          "name": "account",
          "type": "tuple"
        },
        {
          "internalType": "uint256",
          "name": "openValue",
          "type": "uint256"
        }
      ],
      "name": "isSafeOpen",
      "outputs": [
        {
          "internalType": "bool",
          "name": "",
          "type": "bool"
        }
      ],
      "stateMutability": "view",
      "type": "function"
    },
    {
      "inputs": [
        {
          "internalType": "address",
          "name": "liquidator",
          "type": "address"
        },
        {
          "internalType": "address",
          "name": "trader",
          "type": "address"
        }
      ],
      "name": "liquidate",
      "outputs": [],
      "stateMutability": "nonpayable",
      "type": "function"
    },
    {
      "inputs": [
        {
          "internalType": "uint256",
          "name": "amount",
          "type": "uint256"
        },
        {
          "internalType": "uint256",
          "name": "markPrice",
          "type": "uint256"
        }
      ],
      "name": "maintenanceMargin",
      "outputs": [
        {
          "internalType": "uint256",
          "name": "",
          "type": "uint256"
        }
      ],
      "stateMutability": "view",
      "type": "function"
    },
    {
      "inputs": [
        {
          "internalType": "address",
          "name": "newOwner",
          "type": "address"
        }
      ],
      "name": "transferOwnership",
      "outputs": [],
      "stateMutability": "nonpayable",
      "type": "function"
    },
    {
      "inputs": [
        {
          "internalType": "uint256",
          "name": "amount",
          "type": "uint256"
        }
      ],
      "name": "depositCollateral",
      "outputs": [],
      "stateMutability": "nonpayable",
      "type": "function"
    },
    {
      "inputs": [
        {
          "internalType": "uint256",
          "name": "amount",
          "type": "uint256"
        }
      ],
      "name": "withdrawCollateral",
      "outputs": [],
      "stateMutability": "nonpayable",
      "type": "function"
    },
    {
      "inputs": [],
      "name": "withdrawAllCollateral",
      "outputs": [],
      "stateMutability": "nonpayable",
      "type": "function"
    },
    {
      "inputs": [
        {
          "internalType": "address",
          "name": "lp",
          "type": "address"
        }
      ],
      "name": "getCollateralPoolTokenBalanceOf",
      "outputs": [
        {
          "internalType": "uint256",
          "name": "",
          "type": "uint256"
        }
      ],
      "stateMutability": "view",
      "type": "function"
    },
    {
      "inputs": [],
      "name": "getTotalCollateralPoolToken",
      "outputs": [
        {
          "internalType": "uint256",
          "name": "",
          "type": "uint256"
        }
      ],
      "stateMutability": "view",
      "type": "function"
    }
  ],
  "bytecode": "0x6080604052600a805460ff1916905534801561001a57600080fd5b506134a18061002a6000396000f3fe608060405234801561001057600080fd5b50600436106102275760003560e01c806386b9d81f11610130578063b4cab955116100b8578063da3a4c311161007c578063da3a4c311461040d578063eab5d20e14610420578063f2fde38b14610428578063f9f8eda81461043b578063fa6a5eae1461044357610227565b8063b4cab955146103cf578063bad4a01f146103d7578063c4389351146103ea578063d38b5209146103f2578063d6b412981461040557610227565b8063a8b13ddf116100ff578063a8b13ddf14610380578063b192a3eb14610388578063b1e0736614610390578063b2094fd3146103b4578063b35b08e9146103bc57610227565b806386b9d81f14610355578063901b4810146103685780639103b8b714610370578063a163805c1461037857610227565b806338873925116101b35780636112fe2e116101825780636112fe2e1461032257806372decd7a14610335578063737495671461033d5780637c9b8e89146103455780638456db151461034d57610227565b806338873925146102e15780633d23755d146102f45780634a2473c3146103075780634e71e0c81461031a57610227565b806322d779cc116101fa57806322d779cc1461029f578063245c9685146102b45780632a0acc6a146102bc5780632b32812a146102c45780632efc6ee7146102cc57610227565b80630be4cea91461022c57806313ddd8fb1461025557806316048bc41461027557806317be952e1461028a575b600080fd5b61023f61023a366004612dc8565b610456565b60405161024c9190612fdd565b60405180910390f35b610268610263366004612cda565b61048f565b60405161024c9190612f32565b61027d6105ab565b60405161024c9190612eb0565b6102926105ba565b60405161024c9190612f3d565b6102b26102ad366004612d4a565b6105c3565b005b61023f6105d1565b61027d6105d7565b61023f6105e6565b6102d46105fc565b60405161024c9190612f01565b61023f6102ef366004612e0a565b61069d565b61023f610302366004612cda565b610737565b61023f610315366004612dad565b6107b9565b6102b2610868565b6102b2610330366004612df2565b6108ff565b61023f61090c565b6102b2610922565b61023f61092d565b61027d610933565b6102b2610363366004612d12565b610942565b61023f610b30565b61023f610bbd565b61027d610bd3565b61023f610be2565b61027d610be8565b6103a361039e366004612cda565b610bf7565b60405161024c959493929190612faf565b61023f610c2a565b61023f6103ca366004612e0a565b610c30565b61023f610c8d565b6102b26103e5366004612df2565b610ca3565b6102d4610cad565b61023f610400366004612df2565b610ce8565b610292610cfc565b61026861041b366004612dc8565b610d12565b61023f610dfb565b6102b2610436366004612cda565b610e01565b61023f610eac565b6102b2610451366004612d4a565b610eb2565b600061048661047161046c85602001518561069d565b610ebc565b61047a856107b9565b9063ffffffff610ee916565b90505b92915050565b6000610499612c18565b6001600160a01b03831660009081526005602052604090819020815160a081019092528054829060ff1660028111156104ce57fe5b60028111156104d957fe5b8152602001600182015481526020016002820154815260200160038201548152602001600482015481525050905061059861046c8260200151600360009054906101000a90046001600160a01b03166001600160a01b031663ee27c6896040518163ffffffff1660e01b815260040160206040518083038186803b15801561056057600080fd5b505afa158015610574573d6000803e3d6000fd5b505050506040513d601f19601f820116820180604052508101906103ca9190612d95565b6105a1826107b9565b139150505b919050565b6000546001600160a01b031681565b600a5460ff1681565b6105cd8282610f2f565b5050565b60075481565b6002546001600160a01b031681565b3060009081526005602052604090206001015490565b610604612c48565b600060023060009081526005602052604090205460ff16600281111561062657fe5b146106555730600090815260056020526040902060010154600b546106509163ffffffff61102916565b61067a565b30600090815260056020526040902060010154600b5461067a9163ffffffff61105116565b60408051606081018252600081526020810192909252600b549082015291505090565b60006104866106ac8385611076565b600260009054906101000a90046001600160a01b03166001600160a01b03166398a0a53d6040518163ffffffff1660e01b815260040160206040518083038186803b1580156106fa57600080fd5b505afa15801561070e573d6000803e3d6000fd5b505050506040513d601f19601f820116820180604052508101906107329190612d95565b611076565b600480546040516370a0823160e01b81526000926001600160a01b03909216916370a082319161076991869101612eb0565b60206040518083038186803b15801561078157600080fd5b505afa158015610795573d6000803e3d6000fd5b505050506040513d601f19601f820116820180604052508101906104899190612d95565b600354815160208301516040808501516080860151915163b69437cd60e01b8152600095610489956001600160a01b039091169463b69437cd94610807949293919291839190600401612faf565b60206040518083038186803b15801561081f57600080fd5b505afa158015610833573d6000803e3d6000fd5b505050506040513d601f19601f820116820180604052508101906108579190612d95565b60608401519063ffffffff6110a016565b6001546001600160a01b0316331461089b5760405162461bcd60e51b81526004016108929061302b565b60405180910390fd5b600154600080546040516001600160a01b0393841693909116917f8be0079c531659141344cd1fd0a4f28419497f9722a3daafe3b4186f6b6457e091a360018054600080546001600160a01b03199081166001600160a01b03841617909155169055565b61090933826110e6565b50565b3060009081526005602052604090206003015490565b61092b336115fe565b565b60095481565b6001546001600160a01b031681565b61094b8161048f565b156109685760405162461bcd60e51b8152600401610892906132d8565b610970612c18565b6001600160a01b03831660009081526005602052604090819020815160a081019092528054829060ff1660028111156109a557fe5b60028111156109b057fe5b815260200160018201548152602001600282015481526020016003820154815260200160048201548152505090506109e6612c18565b6001600160a01b03831660009081526005602052604090819020815160a081019092528054829060ff166002811115610a1b57fe5b6002811115610a2657fe5b815260200160018201548152602001600282015481526020016003820154815260200160048201548152505090506000600360009054906101000a90046001600160a01b03166001600160a01b0316634b0301a5836000015184602001516040518363ffffffff1660e01b8152600401610aa1929190612f73565b60206040518083038186803b158015610ab957600080fd5b505afa158015610acd573d6000803e3d6000fd5b505050506040513d601f19601f82011682018060405250810190610af19190612d95565b9050610afd8382610d12565b610b195760405162461bcd60e51b81526004016108929061317b565b610b298585838560200151611646565b5050505050565b6000600460009054906101000a90046001600160a01b03166001600160a01b03166318160ddd6040518163ffffffff1660e01b815260040160206040518083038186803b158015610b8057600080fd5b505afa158015610b94573d6000803e3d6000fd5b505050506040513d601f19601f82011682018060405250810190610bb89190612d95565b905090565b3060009081526005602052604090206004015490565b6003546001600160a01b031681565b600b5481565b6004546001600160a01b031681565b6005602052600090815260409020805460018201546002830154600384015460049094015460ff90931693919290919085565b60065481565b6000610486610c3f8385611076565b600260009054906101000a90046001600160a01b03166001600160a01b031663fe73ee736040518163ffffffff1660e01b815260040160206040518083038186803b1580156106fa57600080fd5b3060009081526005602052604090206002015490565b6109093382611d40565b610cb5612c48565b60408051606081019182905290600c9060039082845b815481526020019060010190808311610ccb575050505050905090565b600c8160038110610cf557fe5b0154905081565b3060009081526005602052604090205460ff1690565b6000610d6961046c83600260009054906101000a90046001600160a01b03166001600160a01b03166398a0a53d6040518163ffffffff1660e01b815260040160206040518083038186803b1580156106fa57600080fd5b610df384600360009054906101000a90046001600160a01b03166001600160a01b031663ee27c6896040518163ffffffff1660e01b815260040160206040518083038186803b158015610dbb57600080fd5b505afa158015610dcf573d6000803e3d6000fd5b505050506040513d601f19601f8201168201806040525081019061023a9190612d95565b139392505050565b60085481565b6000546001600160a01b03163314610e2b5760405162461bcd60e51b8152600401610892906132b5565b6001600160a01b038116610e515760405162461bcd60e51b81526004016108929061326f565b600080546040516001600160a01b03808516939216917fdcf55418cee3220104fef63f979ff3c4097ad240c0c43dcb33ce837748983e6291a3600180546001600160a01b0319166001600160a01b0392909216919091179055565b600f5481565b6105cd828261230e565b60006001600160ff1b03821115610ee55760405162461bcd60e51b8152600401610892906133b3565b5090565b6000818303818312801590610efe5750838113155b80610f135750600083128015610f1357508381135b6104865760405162461bcd60e51b815260040161089290613325565b610fd2823083600260009054906101000a90046001600160a01b03166001600160a01b031663cb102dd26040518163ffffffff1660e01b815260040160206040518083038186803b158015610f8357600080fd5b505afa158015610f97573d6000803e3d6000fd5b505050506040513d601f19601f82011682018060405250810190610fbb9190612cf6565b6001600160a01b031692919063ffffffff6123f116565b611006610fde82610ebc565b6001600160a01b0384166000908152600560205260409020600301549063ffffffff6110a016565b6001600160a01b0390921660009081526005602052604090206003019190915550565b60008282111561104b5760405162461bcd60e51b81526004016108929061321d565b50900390565b6000828201838110156104865760405162461bcd60e51b815260040161089290613302565b6000670de0b6b3a7640000611091848463ffffffff61244f16565b8161109857fe5b049392505050565b60008282018183128015906110b55750838112155b806110ca57506000831280156110ca57508381125b6104865760405162461bcd60e51b815260040161089290613105565b600154600160a01b900460ff16156111105760405162461bcd60e51b8152600401610892906130e2565b6001805460ff60a01b1916600160a01b1790556002546040805163a4a5e9ad60e01b815290516001600160a01b039092169163a4a5e9ad91600480820192600092909190829003018186803b15801561116857600080fd5b505afa15801561117c573d6000803e3d6000fd5b50505050600260009054906101000a90046001600160a01b03166001600160a01b031663d76bfbd96040518163ffffffff1660e01b815260040160006040518083038186803b1580156111ce57600080fd5b505afa1580156111e2573d6000803e3d6000fd5b5050505060006111f0610b30565b9050600081116112125760405162461bcd60e51b815260040161089290613296565b61121a612c18565b3060009081526005602052604090819020815160a081019092528054829060ff16600281111561124657fe5b600281111561125157fe5b81526020016001820154815260200160028201548152602001600382015481526020016004820154815250509050600061129b61128e8585612489565b61073284606001516124b3565b90506112a785826124d5565b60008060006112b68787612489565b90506000855160028111156112c757fe5b1461146c576112da818660200151611076565b92506112ea818660400151611076565b91506112f4612c18565b6001600160a01b03891660009081526005602052604090819020815160a081019092528054829060ff16600281111561132957fe5b600281111561133457fe5b81526020016001820154815260200160028201548152602001600382015481526020016004820154815250509050611372818760000151858761253f565b905061138c86611385886000015161260a565b858761253f565b6001600160a01b038a166000908152600560205260409020825181549298508392829060ff191660018360028111156113c157fe5b0217905550602082015181600101556040820151816002015560608201518160030155608082015181600401559050508560056000306001600160a01b03166001600160a01b0316815260200190815260200160002060008201518160000160006101000a81548160ff0219169083600281111561143b57fe5b0217905550602082015160018201556040820151600282015560608201516003820155608090910151600490910155505b6000806000806000600360009054906101000a90046001600160a01b03166001600160a01b031663ffa642256040518163ffffffff1660e01b815260040160a06040518083038186803b1580156114c257600080fd5b505afa1580156114d6573d6000803e3d6000fd5b505050506040513d601f19601f820116820180604052508101906114fa9190612e2b565b93985091965094509250905061152284610732670de0b6b3a76400008963ffffffff61102916565b935061154085610732670de0b6b3a76400008963ffffffff61102916565b945061155e82610732670de0b6b3a76400008963ffffffff61102916565b915061157c83610732670de0b6b3a76400008963ffffffff61102916565b925061158b8585858585612644565b6115958d8d6126c7565b8c6001600160a01b0316336001600160a01b03167f92da889ebdf9766a076ef7881c4618bd4667d5f74d6cf3fa1c82f319cdb399608b8f6040516115da929190613426565b60405180910390a350506001805460ff60a01b191690555050505050505050505050565b6000611608610b30565b90506000811161162a5760405162461bcd60e51b815260040161089290613052565b600061163583610737565b905061164183826110e6565b505050565b61164e612c18565b6001600160a01b03851660009081526005602052604090819020815160a081019092528054829060ff16600281111561168357fe5b600281111561168e57fe5b815260200160018201548152602001600282015481526020016003820154815260200160048201548152505090506116c4612c18565b6001600160a01b03851660009081526005602052604090819020815160a081019092528054829060ff1660028111156116f957fe5b600281111561170457fe5b8152602001600182015481526020016002820154815260200160038201548152602001600482015481525050905061173a612c18565b3060009081526005602052604090819020815160a081019092528054829060ff16600281111561176657fe5b600281111561177157fe5b8152600182015460208201526002820154604082015260038201546060820152600490910154608090910152825190915060006117ad8261260a565b9050600061184361046c600260009054906101000a90046001600160a01b03166001600160a01b031663f5cdd2026040518163ffffffff1660e01b815260040160206040518083038186803b15801561180557600080fd5b505afa158015611819573d6000803e3d6000fd5b505050506040513d601f19601f8201168201806040525081019061183d9190612d95565b8a611076565b905060006118d961046c600260009054906101000a90046001600160a01b03166001600160a01b03166311187e366040518163ffffffff1660e01b815260040160206040518083038186803b15801561189b57600080fd5b505afa1580156118af573d6000803e3d6000fd5b505050506040513d601f19601f820116820180604052508101906118d39190612d95565b8b611076565b90506118ef866118e88661260a565b8b8b61253f565b95506118fd87858b8b61253f565b965061190f828263ffffffff6110a016565b866060015112611976576119348161047a848960600151610ee990919063ffffffff16565b606080880191909152870151611950908363ffffffff6110a016565b60608089019190915285015161196c908263ffffffff6110a016565b6060860152611b77565b818660600151126119db576060870151611996908363ffffffff6110a016565b6060808901919091528601516119c7906119b6908463ffffffff610ee916565b60608701519063ffffffff6110a016565b606080870191909152600090870152611b77565b816119fb6119ea600f54610ebc565b60608901519063ffffffff6110a016565b12611a62576060870151611a15908363ffffffff6110a016565b606080890191909152860151600090611a3590849063ffffffff610ee916565b9050611a52611a43826124b3565b600f549063ffffffff61102916565b600f555060006060870152611b77565b6060870151611a77908363ffffffff6110a016565b8760600181815250506000611ab1611aa4611a93600f54610ebc565b60608a01519063ffffffff6110a016565b849063ffffffff610ee916565b6000600f81905560608901529050611ac7612c48565b611acf6105fc565b9050611afe611add836124b3565b82876002811115611aea57fe5b60038110611af457fe5b6020020151612489565b600c866002811115611b0c57fe5b60038110611b1657fe5b01805490910190557fe7c36d6fb87e3948a53ae9860b822817eeadf4473006f88cecd0180fcaae75ed858383826002811115611b4e57fe5b60038110611b5857fe5b6020020151604051611b6c93929190612f52565b60405180910390a150505b6001600160a01b038a1660009081526005602052604090208651815488929190829060ff19166001836002811115611bab57fe5b02179055506020820151816001015560408201518160020155606082015181600301556080820151816004015590505086600560008d6001600160a01b03166001600160a01b0316815260200190815260200160002060008201518160000160006101000a81548160ff02191690836002811115611c2557fe5b02179055506020820151816001015560408201518160020155606082015181600301556080820151816004015590505060056000306001600160a01b03166001600160a01b031681526020019081526020016000206003015485606001511415611ce4573060009081526005602052604090208551815487929190829060ff19166001836002811115611cb457fe5b02179055506020820151600182015560408201516002820155606082015160038201556080909101516004909101555b896001600160a01b03168b6001600160a01b03167f54f9b006b19a44694e56b0d6a57f34c420bf88da7373f9d0f3380e5f4b70951e868c8c604051611d2b93929190612f8f565b60405180910390a35050505050505050505050565b600154600160a01b900460ff1615611d6a5760405162461bcd60e51b8152600401610892906130e2565b6001805460ff60a01b1916600160a01b1790556002546040805163a4a5e9ad60e01b815290516001600160a01b039092169163a4a5e9ad91600480820192600092909190829003018186803b158015611dc257600080fd5b505afa158015611dd6573d6000803e3d6000fd5b50505050600260009054906101000a90046001600160a01b03166001600160a01b031663d76bfbd96040518163ffffffff1660e01b815260040160006040518083038186803b158015611e2857600080fd5b505afa158015611e3c573d6000803e3d6000fd5b50505050600260009054906101000a90046001600160a01b03166001600160a01b031663c30ea2a26040518163ffffffff1660e01b815260040160006040518083038186803b158015611e8e57600080fd5b505afa158015611ea2573d6000803e3d6000fd5b50505050611eae612c18565b6001600160a01b03831660009081526005602052604090819020815160a081019092528054829060ff166002811115611ee357fe5b6002811115611eee57fe5b81526020016001820154815260200160028201548152602001600382015481526020016004820154815250509050611f2582610ebc565b611f2e826107b9565b1215611f4c5760405162461bcd60e51b815260040161089290613089565b6000611f56610b30565b9050600081611f665750826120b1565b6000803060009081526005602052604090205460ff166002811115611f8757fe5b1415611fa6575030600090815260056020526040902060030154612092565b6003543060009081526005602052604090205461208f916001600160a01b03169063b69437cd90611fd99060ff1661260a565b30600090815260056020526040908190206001810154600282015460049283015493516001600160e01b031960e088901b1681526120209594929391928492909101612faf565b60206040518083038186803b15801561203857600080fd5b505afa15801561204c573d6000803e3d6000fd5b505050506040513d601f19601f820116820180604052508101906120709190612d95565b306000908152600560205260409020600301549063ffffffff6110a016565b90505b6120ad6120a7866120a2846124b3565b612489565b84611076565b9150505b60035430600090815260056020526040812054600954919283928392839283926001600160a01b039091169163ffa960b49160ff909116906120f9908d63ffffffff61105116565b600260009054906101000a90046001600160a01b03166001600160a01b031663796da7af6040518163ffffffff1660e01b815260040160206040518083038186803b15801561214757600080fd5b505afa15801561215b573d6000803e3d6000fd5b505050506040513d601f19601f8201168201806040525081019061217f9190612d95565b3060009081526005602090815260409182902060010154600254835163ec2fd46d60e01b8152935191936001600160a01b039091169263ec2fd46d92600480840193829003018186803b1580156121d557600080fd5b505afa1580156121e9573d6000803e3d6000fd5b505050506040513d601f19601f8201168201806040525081019061220d9190612d95565b6040518663ffffffff1660e01b815260040161222d959493929190612faf565b60a06040518083038186803b15801561224557600080fd5b505afa158015612259573d6000803e3d6000fd5b505050506040513d601f19601f8201168201806040525081019061227d9190612e2b565b945094509450945094506122948585858585612644565b61229e8a8a61272e565b6122a88a87612799565b896001600160a01b0316336001600160a01b03167fbded9ba8a041a2b893fdc29720280cb14b8f6c369538bde50fcd4e602d5608578b896040516122ed929190613426565b60405180910390a350506001805460ff60a01b191690555050505050505050565b61234261231a82610ebc565b6001600160a01b0384166000908152600560205260409020600301549063ffffffff610ee916565b6001600160a01b0380841660009081526005602090815260409182902060030193909355600254815163658816e960e11b815291516105cd948794879493169263cb102dd29260048083019392829003018186803b1580156123a357600080fd5b505afa1580156123b7573d6000803e3d6000fd5b505050506040513d601f19601f820116820180604052508101906123db9190612cf6565b6001600160a01b0316919063ffffffff6127ca16565b612449846323b872dd60e01b85858560405160240161241293929190612ec4565b60408051601f198184030181529190526020810180516001600160e01b03166001600160e01b0319909316929092179091526127e9565b50505050565b60008261245e57506000610489565b8282028284828161246b57fe5b04146104865760405162461bcd60e51b815260040161089290613403565b6000610486826124a785670de0b6b3a764000063ffffffff61244f16565b9063ffffffff6128a016565b600080821215610ee55760405162461bcd60e51b8152600401610892906133dd565b600081116124f55760405162461bcd60e51b815260040161089290612fe6565b61252061250182610ebc565b306000908152600560205260409020600301549063ffffffff610ee916565b30600090815260056020526040902060030155611006610fde82610ebc565b612547612c18565b6020850151600090839015801590612576575085600281111561256657fe5b8751600281111561257357fe5b14155b156125db578660200151841161259c576125918785876128cd565b9650600090506125db565b6125ae85610732896020015187612489565b91506125bf878860200151846128cd565b96506125d887602001518561102990919063ffffffff16565b90505b80156125ff576125fc8787836125f7898763ffffffff61102916565b612ad1565b96505b509495945050505050565b6000600282600281111561261a57fe5b1415612628575060016105a6565b600182600281111561263657fe5b1415610ee5575060026105a6565b82600754146126535760078390555b84600654146126625760068590555b83600854146126715760088490555b81600954146126805760098290555b80600281111561268c57fe5b600a5460ff16600281111561269d57fe5b14610b2957600a805482919060ff191660018360028111156126bb57fe5b02179055505050505050565b60048054604051632770a7eb60e21b81526001600160a01b0390911691639dc29fac916126f8918691869101612ee8565b600060405180830381600087803b15801561271257600080fd5b505af1158015612726573d6000803e3d6000fd5b505050505050565b6000811161274e5760405162461bcd60e51b8152600401610892906131da565b61275a61231a82610ebc565b6001600160a01b03831660009081526005602052604090206003015561278261207082610ebc565b306000908152600560205260409020600301555050565b600480546040516340c10f1960e01b81526001600160a01b03909116916340c10f19916126f8918691869101612ee8565b6116418363a9059cbb60e01b8484604051602401612412929190612ee8565b60006060836001600160a01b0316836040516128059190612e77565b6000604051808303816000865af19150503d8060008114612842576040519150601f19603f3d011682016040523d82523d6000602084013e612847565b606091505b5091509150816128695760405162461bcd60e51b815260040161089290613146565b80511561244957808060200190518101906128849190612d75565b6124495760405162461bcd60e51b815260040161089290613369565b6000806128ad8484612bc4565b9050828102840380156128c557506001019050610489565b509050610489565b6128d5612c18565b600083116128f55760405162461bcd60e51b815260040161089290613240565b600080856020015185141561291557505060408401516080850151612946565b61292b8660400151610732878960200151612bee565b91506129438660800151610732878960200151612bee565b90505b600061296f600c8860000151600281111561295d57fe5b6003811061296757fe5b015487611076565b600354885160405163b709a7fd60e01b81529293506000926001600160a01b039092169163b709a7fd916129ad9188908b9089908990600401612faf565b60206040518083038186803b1580156129c557600080fd5b505afa1580156129d9573d6000803e3d6000fd5b505050506040513d601f19601f820116820180604052508101906129fd9190612d95565b6060890151909150612a15908263ffffffff6110a016565b606089015260408801516020890151612a47919061073290612a3d908b63ffffffff61102916565b8b60200151612bee565b604089015260808801516020890151612a6f919061073290612a3d908b63ffffffff61102916565b60808901526020880151612a89908863ffffffff61102916565b60208901819052612a9957600088525b600288516002811115612aa857fe5b1415612ac557600b54612ac1908863ffffffff61102916565b600b555b50959695505050505050565b612ad9612c18565b60008311612af95760405162461bcd60e51b8152600401610892906130b4565b6020850151612b205784846002811115612b0f57fe5b90816002811115612b1c57fe5b9052505b6020850151612b35908463ffffffff61105116565b60208601526040850151612b4f908363ffffffff61105116565b6040860152612b8b612b7a600c866002811115612b6857fe5b60038110612b7257fe5b015485611076565b60808701519063ffffffff61105116565b60808601526002846002811115612b9e57fe5b1415612bbb57600b54612bb7908463ffffffff61105116565b600b555b50929392505050565b6000808211612be55760405162461bcd60e51b8152600401610892906131b2565b81838161109857fe5b600061048682612c0c85670de0b6b3a764000063ffffffff61244f16565b9063ffffffff612bc416565b6040805160a081019091528060008152602001600081526020016000815260200160008152602001600081525090565b60405180606001604052806003906020820280368337509192915050565b600060a08284031215612c77578081fd5b60405160a0810181811067ffffffffffffffff82111715612c96578283fd5b6040529050808235612ca78161345e565b80825250602083013560208201526040830135604082015260608301356060820152608083013560808201525092915050565b600060208284031215612ceb578081fd5b813561048681613449565b600060208284031215612d07578081fd5b815161048681613449565b60008060408385031215612d24578081fd5b8235612d2f81613449565b91506020830135612d3f81613449565b809150509250929050565b60008060408385031215612d5c578182fd5b8235612d6781613449565b946020939093013593505050565b600060208284031215612d86578081fd5b81518015158114610486578182fd5b600060208284031215612da6578081fd5b5051919050565b600060a08284031215612dbe578081fd5b6104868383612c66565b60008060c08385031215612dda578182fd5b612de48484612c66565b9460a0939093013593505050565b600060208284031215612e03578081fd5b5035919050565b60008060408385031215612e1c578182fd5b50508035926020909101359150565b600080600080600060a08688031215612e42578081fd5b855194506020860151935060408601519250606086015191506080860151612e698161345e565b809150509295509295909350565b60008251815b81811015612e975760208186018101518583015201612e7d565b81811115612ea55782828501525b509190910192915050565b6001600160a01b0391909116815260200190565b6001600160a01b039384168152919092166020820152604081019190915260600190565b6001600160a01b03929092168252602082015260400190565b60608101818360005b6003811015612f29578151835260209283019290910190600101612f0a565b50505092915050565b901515815260200190565b60208101612f4a83613434565b825292915050565b60608101612f5f8561343f565b938152602081019290925260409091015290565b60408101612f8084613434565b82528260208301529392505050565b60608101612f9c85613434565b8252602082019390935260400152919050565b60a08101612fbc8761343f565b95815260208101949094526040840192909252606083015260809091015290565b90815260200190565b60208082526025908201527f4d617267696e5472616e7366657246726f6d506f6f6c5f494c4c4547414c5f416040820152641353d5539560da1b606082015260800190565b6020808252600d908201526c494e56414c49445f434c41494d60981b604082015260600190565b6020808252601b908201527f7769746864726177436f6c6c61746572616c546f3a204e4f5f4c500000000000604082015260600190565b602080825260119082015270125394d551919250d251539517d1955391607a1b604082015260600190565b6020808252601490820152731bdc195b8e881a5b9d985b1a5908185b5bdd5b9d60621b604082015260600190565b60208082526009908201526814915153951490539560ba1b604082015260600190565b60208082526021908201527f5369676e6564536166654d6174683a206164646974696f6e206f766572666c6f6040820152607760f81b606082015260800190565b6020808252818101527f5361666545524332303a206c6f772d6c6576656c2063616c6c206661696c6564604082015260600190565b6020808252601a908201527f4c495155494441544f525f4e4f545f454e4f5547485f46554e44000000000000604082015260600190565b6020808252600e908201526d2224ab24a224a723afa2a92927a960911b604082015260600190565b60208082526023908201527f4d617267696e5472616e73666572546f506f6f6c5f494c4c4547414c5f414d4f60408201526215539560ea1b606082015260800190565b60208082526009908201526829aaa12fa2a92927a960b91b604082015260600190565b60208082526015908201527418db1bdcd94e881a5b9d985b1a5908185b5bdd5b9d605a1b604082015260600190565b6020808252600d908201526c24a72b20a624a22fa7aba722a960991b604082015260600190565b60208082526005908201526404e4f5f4c560dc1b604082015260600190565b6020808252600990820152682727aa2fa7aba722a960b91b604082015260600190565b60208082526010908201526f29a0a322afaa27afa6a0a4a72a20a4a760811b604082015260600190565b60208082526009908201526820a2222fa2a92927a960b91b604082015260600190565b60208082526024908201527f5369676e6564536166654d6174683a207375627472616374696f6e206f766572604082015263666c6f7760e01b606082015260800190565b6020808252602a908201527f5361666545524332303a204552433230206f7065726174696f6e20646964206e6040820152691bdd081cdd58d8d9595960b21b606082015260800190565b60208082526010908201526f75696e74323536206f766572666c6f7760801b604082015260600190565b6020808252600c908201526b696e74206f766572666c6f7760a01b604082015260600190565b60208082526009908201526826aaa62fa2a92927a960b91b604082015260600190565b918252602082015260400190565b80600381106105a657fe5b6003811061090957fe5b6001600160a01b038116811461090957600080fd5b6003811061090957600080fdfea26469706673582212209ded7ed2c06bf0f117cb5587ffc8f8918c77ba41cc3d906a1fae2c9f45a09aa464736f6c63430006090033",
  "immutableReferences": {},
  "source": "/*\n\n    Copyright 2020 DODO ZOO.\n    SPDX-License-Identifier: Apache-2.0\n\n*/\n\npragma solidity 0.6.9;\npragma experimental ABIEncoderV2;\n\nimport {SafeMath} from \"../lib/SafeMath.sol\";\nimport {SignedSafeMath} from \"../lib/SignedSafeMath.sol\";\nimport {DecimalMath} from \"../lib/DecimalMath.sol\";\nimport {Types} from \"../lib/Types.sol\";\nimport {ILpToken} from \"../interface/ILpToken.sol\";\nimport {Margin} from \"./Margin.sol\";\n\n/**\n * @title LiquidityProvider\n * @author Parapara\n *\n * @notice Functions for liquidity provider operations\n */\ncontract LiquidityProvider is Margin {\n    using SafeMath for uint256;\n    using SignedSafeMath for int256;\n\n\n    // ============ Events ============\n\n    event LpDeposit(\n        address indexed payer,\n        address indexed receiver,\n        uint256 amount,\n        uint256 lpTokenAmount\n    );\n\n    event LpWithdraw(\n        address indexed payer,\n        address indexed receiver,\n        uint256 amount,\n        uint256 lpTokenAmount\n    );\n\n\n    // ============ Routine Functions ============\n\n    /*\n     * @dev deposit to LP\n     * @param amount amount of collateral token\n     */\n    function depositCollateral(uint256 amount) external {\n        _depositCollateralTo(msg.sender, amount);\n    }\n\n    /*\n     * @dev withdraw msg.sender's share to account balance given amount of LP token\n     * @param amount amount of LP token.\n     */\n    function withdrawCollateral(uint256 amount) external {\n        _withdrawCollateralTo(msg.sender, amount);\n    }\n\n    /*\n     * @dev withdraw msg.sender's all share to account balance\n     * @param amount amount of LP token.\n     */\n    function withdrawAllCollateral() external {\n        _withdrawAllCollateralTo(msg.sender);\n    }\n\n\n    // ============ Deposit Functions ============\n    /*\n     * @dev Calculate LP share given Collateral amount\n     * @param to LP address.\n     * @param amount amount of collateral token.\n     */\n    function _depositCollateralTo(address to, uint256 amount)\n        internal\n        preventReentrant\n    {\n        ADMIN.checkNotClosed();\n        ADMIN.checkNotPaused();\n        ADMIN.depositAllowed();\n        Types.MarginAccount memory lpAccount = _MARGIN_ACCOUNT_[to];\n        require(balanceMargin(lpAccount)>=amount.toint256(), \"INSUFFICIENT_FUND\");\n\n        uint256 totalCapital = getTotalCollateralPoolToken();\n        uint256 capital;\n        if (totalCapital == 0) {\n            // give remaining quote token to lp as a gift\n            capital = amount;\n        }\n        else {\n            int256 collateralBalance;\n            if (_MARGIN_ACCOUNT_[address(this)].SIDE == Types.Side.FLAT) {\n                collateralBalance = _MARGIN_ACCOUNT_[address(this)].CASH_BALANCE;\n            }\n            else {\n                collateralBalance = _MARGIN_ACCOUNT_[address(this)].CASH_BALANCE.add(\n                    PRICING.queryPNL(\n                        Types.oppositeSide(_MARGIN_ACCOUNT_[address(this)].SIDE),\n                        _MARGIN_ACCOUNT_[address(this)].SIZE,\n                        _MARGIN_ACCOUNT_[address(this)].ENTRY_VALUE,\n                        _MARGIN_ACCOUNT_[address(this)].SIZE,\n                        _MARGIN_ACCOUNT_[address(this)].ENTRY_SLOSS\n                    )\n                );\n            }\n            capital = DecimalMath.mul(DecimalMath.divCeil(amount, collateralBalance.touint256()), totalCapital);\n        }\n\n        // settlement\n        (uint256 baseTarget, uint256 baseBalance, uint256 quoteTarget, uint256 quoteBalance, Types.Side newSide) = PRICING.getExpectedTargetExt(\n            _MARGIN_ACCOUNT_[address(this)].SIDE,\n            _QUOTE_BALANCE_.add(amount),\n            ADMIN.getOraclePrice(),\n            _MARGIN_ACCOUNT_[address(this)].SIZE,\n            ADMIN._K_()\n        );\n\n        updateVirtualBalance(baseTarget, baseBalance, quoteTarget, quoteBalance, newSide);\n        _marginTransferToPool(to, amount);\n        _mintCollateralPoolToken(to, capital);\n\n        emit LpDeposit(msg.sender, to, amount, capital);\n    }\n                                                                                                                                                                                                                                                                                                                                                                                                                                                                                                                                                                                                                                                                                                                                                                                                                                                                                                                                                                                                                                                                                                                                                                                                                                                                                                                                                                                                                                                                                                                                                                                                                                                                                                                                                                                                                                                                                                                                                                                                                                                                                                                                                                                                                                                                                                                                                                                                                                                                                                                                                                                                                                                                                                                                                                                                                                                                                                                                                                                                                                                                                                                                                                                                                                                                                                                                                                                                                                                                                                                                                                                                                                                                                                                                                                                                                                                                                                                                                                                                                                                                                                                                                                                                                                                                                                                                                                                                                                                                                                                                                                                                                                                                                                                                                                                                                                                                                                                                                                                                                                                                                                                                                                                                                                                                                                                                                                                                                                                                                                                                                                                                                                                                                                                                                                                                                                                                                                                                                                                                                                                                                                                                                                                                                                                                                                                                                                                                                                                                                                                                                                                                                                                                                                                                                                                                                                                                                                                                                                                                                                                                                                                                                                                                                                                                                                                                                                                                                                                                                                                                                                                                                                                                                                                                                                                                                                                                                                                                                                                                                                                                                                                                                                                                                                                                                                                                                                                                                                                                                                                                                                                                                                                                                                                                                                                                                                                                                                                                                                                                                                                                                                                                                                                                                                                                                                                                                                                                                                                                                                                                                                                                                                                                                                                                                                                                                                                                                                                                                                                                                                                                                                                                                                                                                                                                                                                                                                                                                                                                                                                                                                                                                                                                                                                                                                                                                                                                                                                                                                                                                                                                                                                                                                                                                                                                                                                                                                                                                                                                                                                                                                                                                                                                                                                                                                                                                                                                                                                                                                                                                                                                                                                                                                                                                                                                                                                                                                                                                                                                                                                                                                                                                                                                                                                                                                                                                                                                                                                                                                                                                                                                                                                                                                                                                                                                                                                                                                                                                                                                                                                                                                                                                                                                                                                                                                                                                                                                                                                                                                                                                                                                                                                                                                                                                                                                                                                                                                                                                                                                                                                                                                                                                                                                                                                                                                                                                                                                                                                                                                                                                                                                                                                                                                                                                                                                                                                                                                                                                                                                                                                                                                                                                                                                                                                                                                                                                                                                                                                                                                                                                                                                                                                                                                                                                                                                                                                                                                                                                                                                                                                                                                                                                                                                                                                                                                                                                                                                                                                                                                                                                                                                                                                                                                                                                                                                                                                                                                                                                                                                                                                                                                                                                                                                                                                                                                                                                                                                                                                                                                                                                                                                                                                                                                                                                                                                                                                                                                                                                                                                                                                                                                                                                                                                                                                                                                                                                                                                                                                                                                                                                                                                                                                                                                                                                                                                                                                                                                                                                                                                                                                                                                                                                                                                                                                                                                                                                                                                                                                                                                                                                                                                                                                                                                                                                                                                                                                                                                                                                                                                                                                                                                                                                                                                                                                                                                                                                                                                                                                                                                                                                                                                                                                                                                                                                                                                                                                                                                                                                                                                                                                                                                                                                                                                                                                                                                                                                                                                                                                                                                                                                                                                                                                                                                                                                                                                                                                                                                                                                                                                                                                                                                                                                                                                                                                                                                                                                                                                                                                                                                                                                                                                                                                                                                                                                                                                                                                                                                                                                                                                                                                                                                                                                                                                                                                                                                                                                                                                                                                                                                                                                                                                                                                                                                                                                                                                                                                                                                                                                                                                                                                                                                                                                                                                                                                                                                                                                                                                                                                                                                                                                                                                                                                                                                                                                                                                                                                                                                                                                                                                                                                                                                                                                                                                                                                                                                                                                                                                                                                                                                                                                                                                                                                                                                                                                                                                                                                                                                                                                                                                                                                                                                                                                                                                                                                                                                                                                                                                                                                                                                                                                                                                                                                                                                                                                                                                                                                                                                                                                                                                                                                                                                                                                                                                                                                                                                                                                                                                                                                                                                                                                                                                                                                                                                                                                                                                                                                                                                                                                                                                                                                                                                                                                                                                                                                                                                                                                                                                                                                                                                                                                                                                                                                                                                                                                                                                                                                                                                                                                                                                                                                                                                                                                                                                                                                                                                                                                                                                                                                                                                                                                                                                                                                                                                                                                                                                                                                                                                                                                                                                                                                                                                                                                                                                                                                                                                                                                                                                                                                                                                                                                      \n    // ============ Withdraw Functions ============\n    /*\n     * @dev Calculate LP share given LP token amount\n     * @param to LP address.\n     * @param amount amount of LP token.\n     */\n    function _withdrawCollateralTo(address to, uint256 lpAmount)\n        internal\n        preventReentrant\n    {\n        ADMIN.checkNotClosed();\n        ADMIN.checkNotPaused();\n        // calculate capital\n        uint256 totalCapital = getTotalCollateralPoolToken();\n        require(totalCapital > 0, \"NO_LP\");\n        Types.MarginAccount memory poolAccount = _MARGIN_ACCOUNT_[address(this)];\n        uint256 cashAmount = DecimalMath.mul(DecimalMath.divCeil(lpAmount, totalCapital), poolAccount.CASH_BALANCE.touint256());\n        _marginTransferFromPool(to, cashAmount);\n        uint256 sizeAmount;\n        uint256 valueAmount;\n        uint256 r = DecimalMath.divCeil(lpAmount, totalCapital);\n        if (poolAccount.SIDE != Types.Side.FLAT) {\n            sizeAmount = DecimalMath.mul(r, poolAccount.SIZE);\n            valueAmount = DecimalMath.mul(r, poolAccount.ENTRY_VALUE);\n            Types.MarginAccount memory lpAccount = _MARGIN_ACCOUNT_[to];\n            lpAccount = trade(lpAccount, poolAccount.SIDE, valueAmount, sizeAmount);\n            poolAccount = trade(poolAccount, Types.oppositeSide(poolAccount.SIDE), valueAmount, sizeAmount);\n            _MARGIN_ACCOUNT_[to] = lpAccount;\n            _MARGIN_ACCOUNT_[address(this)] = poolAccount;\n\n        }\n\n        (uint256 baseTarget, uint256 baseBalance, uint256 quoteTarget, uint256 quoteBalance, Types.Side newSide) = PRICING.getExpectedTarget();\n        baseBalance = DecimalMath.mul(baseBalance,DecimalMath.ONE.sub(r));\n        baseTarget = DecimalMath.mul(baseTarget,DecimalMath.ONE.sub(r));\n        quoteBalance = DecimalMath.mul(quoteBalance,DecimalMath.ONE.sub(r));\n        quoteTarget = DecimalMath.mul(quoteTarget,DecimalMath.ONE.sub(r));\n        updateVirtualBalance(baseTarget, baseBalance, quoteTarget, quoteBalance, newSide);\n\n\n        // settlement\n        _burnCollateralPoolToken(to, lpAmount);\n        emit LpWithdraw(msg.sender, to, cashAmount, lpAmount);\n    }\n\n    // ============ Withdraw all Functions ============\n\n    function _withdrawAllCollateralTo(address to)\n        internal\n    {\n        uint256 totalCapital = getTotalCollateralPoolToken();\n        require(totalCapital > 0, \"withdrawCollateralTo: NO_LP\");\n        uint256 lpAmount = getCollateralPoolTokenBalanceOf(to);\n        _withdrawCollateralTo(to, lpAmount);\n    }\n\n\n\n    // ============ Helper Functions ============\n    function _calculatePoolEquity() internal view returns (int256 equityBalance) {\n        Types.MarginAccount memory poolAccount = _MARGIN_ACCOUNT_[address(this)];\n        if (poolAccount.SIDE == Types.Side.FLAT) {\n            equityBalance = poolAccount.CASH_BALANCE;\n        }\n        else {\n            equityBalance = poolAccount.CASH_BALANCE.add(\n                PRICING.queryPNL(\n                    Types.oppositeSide(poolAccount.SIDE),\n                    poolAccount.SIZE,\n                    poolAccount.ENTRY_VALUE,\n                    poolAccount.SIZE,\n                    poolAccount.ENTRY_SLOSS\n                )\n            );\n        }\n    }\n    // calculate ENP\n    function _poolNetPositionRatio() internal view returns (uint256 ENP) {\n        uint256 poolEquity = _calculatePoolEquity().max(0).touint256();\n        uint256 currentValue = DecimalMath.mul(_MARGIN_ACCOUNT_[address(this)].SIZE, ADMIN.getOraclePrice());\n        ENP = DecimalMath.divCeil(poolEquity, currentValue);\n    }\n\n    // POOL \n    function _canPoolOpen() internal view returns (bool) {\n        return _poolNetPositionRatio()>ADMIN._POOL_OPEN_TH_();\n    }\n\n    //  POOL keep\n    function _canPoolKeep() internal view returns (bool) {\n        return _poolNetPositionRatio()>ADMIN._POOL_LIQUIDATE_TH_();\n    }\n\n    function getCollateralPoolTokenBalanceOf(address lp)\n        public\n        view\n        returns (uint256)\n    {\n        return ILpToken(_COLLATERAL_POOL_TOKEN_).balanceOf(lp);\n    }\n\n    function getTotalCollateralPoolToken() public view returns (uint256) {\n        return ILpToken(_COLLATERAL_POOL_TOKEN_).totalSupply();\n    }\n\n    function _mintCollateralPoolToken(address user, uint256 amount) internal {\n        ILpToken(_COLLATERAL_POOL_TOKEN_).mint(user, amount);\n    }\n\n    function _burnCollateralPoolToken(address user, uint256 amount) internal {\n        ILpToken(_COLLATERAL_POOL_TOKEN_).burn(user, amount);\n    }\n}\n",
  "sourcePath": "/Users/daniel/Codes/parapara/para_dapp_v6/contracts/perpetual/LiquidityProvider.sol",
  "compiler": {
    "name": "solc",
    "version": "0.6.9+commit.3e3065ac.Emscripten.clang"
  },
  "schemaVersion": "3.3.4",
  "updatedAt": "2021-03-28T10:55:46.451Z",
  "devdoc": {
    "author": "Parapara",
    "methods": {},
    "title": "LiquidityProvider"
  },
  "userdoc": {
    "methods": {},
    "notice": "Functions for liquidity provider operations"
  }
}