{
  "contractName": "LpToken",
  "abi": [
    {
      "inputs": [
        {
          "internalType": "string",
          "name": "_tokenName",
          "type": "string"
        }
      ],
      "stateMutability": "nonpayable",
      "type": "constructor"
    },
    {
      "anonymous": false,
      "inputs": [
        {
          "indexed": true,
          "internalType": "address",
          "name": "owner",
          "type": "address"
        },
        {
          "indexed": true,
          "internalType": "address",
          "name": "spender",
          "type": "address"
        },
        {
          "indexed": false,
          "internalType": "uint256",
          "name": "amount",
          "type": "uint256"
        }
      ],
      "name": "Approval",
      "type": "event"
    },
    {
      "anonymous": false,
      "inputs": [
        {
          "indexed": true,
          "internalType": "address",
          "name": "user",
          "type": "address"
        },
        {
          "indexed": false,
          "internalType": "uint256",
          "name": "value",
          "type": "uint256"
        }
      ],
      "name": "Burn",
      "type": "event"
    },
    {
      "anonymous": false,
      "inputs": [
        {
          "indexed": true,
          "internalType": "address",
          "name": "user",
          "type": "address"
        },
        {
          "indexed": false,
          "internalType": "uint256",
          "name": "value",
          "type": "uint256"
        }
      ],
      "name": "Mint",
      "type": "event"
    },
    {
      "anonymous": false,
      "inputs": [
        {
          "indexed": true,
          "internalType": "address",
          "name": "previousOwner",
          "type": "address"
        },
        {
          "indexed": true,
          "internalType": "address",
          "name": "newOwner",
          "type": "address"
        }
      ],
      "name": "OwnershipTransferPrepared",
      "type": "event"
    },
    {
      "anonymous": false,
      "inputs": [
        {
          "indexed": true,
          "internalType": "address",
          "name": "previousOwner",
          "type": "address"
        },
        {
          "indexed": true,
          "internalType": "address",
          "name": "newOwner",
          "type": "address"
        }
      ],
      "name": "OwnershipTransferred",
      "type": "event"
    },
    {
      "anonymous": false,
      "inputs": [
        {
          "indexed": true,
          "internalType": "address",
          "name": "from",
          "type": "address"
        },
        {
          "indexed": true,
          "internalType": "address",
          "name": "to",
          "type": "address"
        },
        {
          "indexed": false,
          "internalType": "uint256",
          "name": "amount",
          "type": "uint256"
        }
      ],
      "name": "Transfer",
      "type": "event"
    },
    {
      "inputs": [],
      "name": "_NEW_OWNER_",
      "outputs": [
        {
          "internalType": "address",
          "name": "",
          "type": "address"
        }
      ],
      "stateMutability": "view",
      "type": "function"
    },
    {
      "inputs": [],
      "name": "_OWNER_",
      "outputs": [
        {
          "internalType": "address",
          "name": "",
          "type": "address"
        }
      ],
      "stateMutability": "view",
      "type": "function"
    },
    {
      "inputs": [],
      "name": "claimOwnership",
      "outputs": [],
      "stateMutability": "nonpayable",
      "type": "function"
    },
    {
      "inputs": [],
      "name": "originTokenName",
      "outputs": [
        {
          "internalType": "string",
          "name": "",
          "type": "string"
        }
      ],
      "stateMutability": "view",
      "type": "function"
    },
    {
      "inputs": [],
      "name": "totalSupply",
      "outputs": [
        {
          "internalType": "uint256",
          "name": "",
          "type": "uint256"
        }
      ],
      "stateMutability": "view",
      "type": "function"
    },
    {
      "inputs": [
        {
          "internalType": "address",
          "name": "newOwner",
          "type": "address"
        }
      ],
      "name": "transferOwnership",
      "outputs": [],
      "stateMutability": "nonpayable",
      "type": "function"
    },
    {
      "inputs": [],
      "name": "name",
      "outputs": [
        {
          "internalType": "string",
          "name": "",
          "type": "string"
        }
      ],
      "stateMutability": "view",
      "type": "function"
    },
    {
      "inputs": [],
      "name": "symbol",
      "outputs": [
        {
          "internalType": "string",
          "name": "",
          "type": "string"
        }
      ],
      "stateMutability": "view",
      "type": "function"
    },
    {
      "inputs": [],
      "name": "decimals",
      "outputs": [
        {
          "internalType": "uint8",
          "name": "",
          "type": "uint8"
        }
      ],
      "stateMutability": "view",
      "type": "function"
    },
    {
      "inputs": [
        {
          "internalType": "address",
          "name": "to",
          "type": "address"
        },
        {
          "internalType": "uint256",
          "name": "amount",
          "type": "uint256"
        }
      ],
      "name": "transfer",
      "outputs": [
        {
          "internalType": "bool",
          "name": "",
          "type": "bool"
        }
      ],
      "stateMutability": "nonpayable",
      "type": "function"
    },
    {
      "inputs": [
        {
          "internalType": "address",
          "name": "owner",
          "type": "address"
        }
      ],
      "name": "balanceOf",
      "outputs": [
        {
          "internalType": "uint256",
          "name": "balance",
          "type": "uint256"
        }
      ],
      "stateMutability": "view",
      "type": "function"
    },
    {
      "inputs": [
        {
          "internalType": "address",
          "name": "from",
          "type": "address"
        },
        {
          "internalType": "address",
          "name": "to",
          "type": "address"
        },
        {
          "internalType": "uint256",
          "name": "amount",
          "type": "uint256"
        }
      ],
      "name": "transferFrom",
      "outputs": [
        {
          "internalType": "bool",
          "name": "",
          "type": "bool"
        }
      ],
      "stateMutability": "nonpayable",
      "type": "function"
    },
    {
      "inputs": [
        {
          "internalType": "address",
          "name": "spender",
          "type": "address"
        },
        {
          "internalType": "uint256",
          "name": "amount",
          "type": "uint256"
        }
      ],
      "name": "approve",
      "outputs": [
        {
          "internalType": "bool",
          "name": "",
          "type": "bool"
        }
      ],
      "stateMutability": "nonpayable",
      "type": "function"
    },
    {
      "inputs": [
        {
          "internalType": "address",
          "name": "owner",
          "type": "address"
        },
        {
          "internalType": "address",
          "name": "spender",
          "type": "address"
        }
      ],
      "name": "allowance",
      "outputs": [
        {
          "internalType": "uint256",
          "name": "",
          "type": "uint256"
        }
      ],
      "stateMutability": "view",
      "type": "function"
    },
    {
      "inputs": [
        {
          "internalType": "address",
          "name": "user",
          "type": "address"
        },
        {
          "internalType": "uint256",
          "name": "value",
          "type": "uint256"
        }
      ],
      "name": "mint",
      "outputs": [],
      "stateMutability": "nonpayable",
      "type": "function"
    },
    {
      "inputs": [
        {
          "internalType": "address",
          "name": "user",
          "type": "address"
        },
        {
          "internalType": "uint256",
          "name": "value",
          "type": "uint256"
        }
      ],
      "name": "burn",
      "outputs": [],
      "stateMutability": "nonpayable",
      "type": "function"
    }
  ],
  "bytecode": "0x60c060405260036080819052620504c560ec1b60a0908152620000269160029190620000ca565b506004805460ff191660121790553480156200004157600080fd5b50604051620010043803806200100483398101604081905262000064916200016f565b600080546001600160a01b03191633178082556040516001600160a01b039190911691907f8be0079c531659141344cd1fd0a4f28419497f9722a3daafe3b4186f6b6457e0908290a38051620000c2906003906020840190620000ca565b505062000244565b828054600181600116156101000203166002900490600052602060002090601f016020900481019282601f106200010d57805160ff19168380011785556200013d565b828001600101855582156200013d579182015b828111156200013d57825182559160200191906001019062000120565b506200014b9291506200014f565b5090565b6200016c91905b808211156200014b576000815560010162000156565b90565b60006020828403121562000181578081fd5b81516001600160401b038082111562000198578283fd5b81840185601f820112620001aa578384fd5b8051925081831115620001bb578384fd5b604051601f8401601f191681016020018381118282101715620001dc578586fd5b604052838152818401602001871015620001f4578485fd5b6200020784602083016020850162000211565b9695505050505050565b60005b838110156200022e57818101518382015260200162000214565b838111156200023e576000848401525b50505050565b610db080620002546000396000f3fe608060405234801561001057600080fd5b50600436106101005760003560e01c806370a08231116100975780639e6aa263116100665780639e6aa263146101e8578063a9059cbb146101f0578063dd62ed3e14610203578063f2fde38b1461021657610100565b806370a08231146101b25780638456db15146101c557806395d89b41146101cd5780639dc29fac146101d557610100565b806323b872dd116100d357806323b872dd1461016d578063313ce5671461018057806340c10f19146101955780634e71e0c8146101aa57610100565b806306fdde0314610105578063095ea7b31461012357806316048bc41461014357806318160ddd14610158575b600080fd5b61010d610229565b60405161011a9190610bb7565b60405180910390f35b610136610131366004610aed565b61027f565b60405161011a9190610bac565b61014b6102ea565b60405161011a9190610b98565b6101606102f9565b60405161011a9190610cfb565b61013661017b366004610aad565b6102ff565b610188610483565b60405161011a9190610d04565b6101a86101a3366004610aed565b61048c565b005b6101a861058f565b6101606101c0366004610a5e565b61061d565b61014b610638565b61010d610647565b6101a86101e3366004610aed565b6106da565b61010d6107d1565b6101366101fe366004610aed565b61085f565b610160610211366004610a79565b61091d565b6101a8610224366004610a5e565b610948565b6060806040518060400160405280600f81526020016e5f504152415f4c505f544f4b454e5f60881b815250905060038160405160200161026a929190610b17565b60405160208183030381529060405291505090565b3360008181526007602090815260408083206001600160a01b038716808552925280832085905551919290917f8c5be1e5ebec7d5bd14f71427d1e84f3dd0314c0f7b2291e5b200ac8c7c3b925906102d8908690610cfb565b60405180910390a35060015b92915050565b6000546001600160a01b031681565b60055481565b6001600160a01b0383166000908152600660205260408120548211156103405760405162461bcd60e51b815260040161033790610c89565b60405180910390fd5b6001600160a01b03841660009081526007602090815260408083203384529091529020548211156103835760405162461bcd60e51b815260040161033790610c11565b6001600160a01b0384166000908152600660205260409020546103ac908363ffffffff6109f316565b6001600160a01b0380861660009081526006602052604080822093909355908516815220546103e1908363ffffffff610a1b16565b6001600160a01b038085166000908152600660209081526040808320949094559187168152600782528281203382529091522054610425908363ffffffff6109f316565b6001600160a01b038086166000818152600760209081526040808320338452909152908190209390935591519085169190600080516020610d5b83398151915290610471908690610cfb565b60405180910390a35060019392505050565b60045460ff1690565b6000546001600160a01b031633146104b65760405162461bcd60e51b815260040161033790610cb5565b6001600160a01b0382166000908152600660205260409020546104df908263ffffffff610a1b16565b6001600160a01b03831660009081526006602052604090205560055461050b908263ffffffff610a1b16565b6005556040516001600160a01b038316907f0f6798a560793a54c3bcfe86a93cde1e73087d944c0ea20544137d412139688590610549908490610cfb565b60405180910390a2816001600160a01b031660006001600160a01b0316600080516020610d5b833981519152836040516105839190610cfb565b60405180910390a35050565b6001546001600160a01b031633146105b95760405162461bcd60e51b815260040161033790610bea565b600154600080546040516001600160a01b0393841693909116917f8be0079c531659141344cd1fd0a4f28419497f9722a3daafe3b4186f6b6457e091a360018054600080546001600160a01b03199081166001600160a01b03841617909155169055565b6001600160a01b031660009081526006602052604090205490565b6001546001600160a01b031681565b60028054604080516020601f60001961010060018716150201909416859004938401819004810282018101909252828152606093909290918301828280156106d05780601f106106a5576101008083540402835291602001916106d0565b820191906000526020600020905b8154815290600101906020018083116106b357829003601f168201915b5050505050905090565b6000546001600160a01b031633146107045760405162461bcd60e51b815260040161033790610cb5565b6001600160a01b03821660009081526006602052604090205461072d908263ffffffff6109f316565b6001600160a01b038316600090815260066020526040902055600554610759908263ffffffff6109f316565b6005556040516001600160a01b038316907fcc16f5dbb4873280815c1ee09dbd06736cffcc184412cf7a71a0fdb75d397ca590610797908490610cfb565b60405180910390a260006001600160a01b0316826001600160a01b0316600080516020610d5b833981519152836040516105839190610cfb565b6003805460408051602060026001851615610100026000190190941693909304601f810184900484028201840190925281815292918301828280156108575780601f1061082c57610100808354040283529160200191610857565b820191906000526020600020905b81548152906001019060200180831161083a57829003601f168201915b505050505081565b3360009081526006602052604081205482111561088e5760405162461bcd60e51b815260040161033790610c89565b336000908152600660205260409020546108ae908363ffffffff6109f316565b33600090815260066020526040808220929092556001600160a01b038516815220546108e0908363ffffffff610a1b16565b6001600160a01b038416600081815260066020526040908190209290925590513390600080516020610d5b833981519152906102d8908690610cfb565b6001600160a01b03918216600090815260076020908152604080832093909416825291909152205490565b6000546001600160a01b031633146109725760405162461bcd60e51b815260040161033790610cb5565b6001600160a01b0381166109985760405162461bcd60e51b815260040161033790610c62565b600080546040516001600160a01b03808516939216917fdcf55418cee3220104fef63f979ff3c4097ad240c0c43dcb33ce837748983e6291a3600180546001600160a01b0319166001600160a01b0392909216919091179055565b600082821115610a155760405162461bcd60e51b815260040161033790610c3f565b50900390565b600082820183811015610a405760405162461bcd60e51b815260040161033790610cd8565b9392505050565b80356001600160a01b03811681146102e457600080fd5b600060208284031215610a6f578081fd5b610a408383610a47565b60008060408385031215610a8b578081fd5b610a958484610a47565b9150610aa48460208501610a47565b90509250929050565b600080600060608486031215610ac1578081fd5b8335610acc81610d42565b92506020840135610adc81610d42565b929592945050506040919091013590565b60008060408385031215610aff578182fd5b610b098484610a47565b946020939093013593505050565b6000808454600180821660008114610b365760018114610b4d57610b7c565b60ff198316865260028304607f1686019350610b7c565b600283048886526020808720875b83811015610b745781548a820152908501908201610b5b565b505050860193505b5050508351610b8f818360208801610d12565b01949350505050565b6001600160a01b0391909116815260200190565b901515815260200190565b6000602082528251806020840152610bd6816040850160208701610d12565b601f01601f19169190910160400192915050565b6020808252600d908201526c494e56414c49445f434c41494d60981b604082015260600190565b60208082526014908201527308298989eae829c868abe9c9ea8be8a9c9eaa8e960631b604082015260600190565b60208082526009908201526829aaa12fa2a92927a960b91b604082015260600190565b6020808252600d908201526c24a72b20a624a22fa7aba722a960991b604082015260600190565b6020808252601290820152710848298829c868abe9c9ea8be8a9c9eaa8e960731b604082015260600190565b6020808252600990820152682727aa2fa7aba722a960b91b604082015260600190565b60208082526009908201526820a2222fa2a92927a960b91b604082015260600190565b90815260200190565b60ff91909116815260200190565b60005b83811015610d2d578181015183820152602001610d15565b83811115610d3c576000848401525b50505050565b6001600160a01b0381168114610d5757600080fd5b5056feddf252ad1be2c89b69c2b068fc378daa952ba7f163c4a11628f55a4df523b3efa26469706673582212204b90f0ea99f9321f41aa89d8201d4a39c426d5c93e8e1c6234ecdebbdcf6533064736f6c63430006090033",
  "immutableReferences": {},
  "source": "/*\n\n    Copyright 2020 DODO ZOO.\n    SPDX-License-Identifier: Apache-2.0\n\n*/\n\npragma solidity 0.6.9;\npragma experimental ABIEncoderV2;\n\nimport {IERC20} from \"../interface/IERC20.sol\";\nimport {SafeMath} from \"../lib/SafeMath.sol\";\nimport {Ownable} from \"../lib/Ownable.sol\";\n\n/**\n * @title LpToken\n * @author Parapara\n *\n * @notice Tokenize liquidity pool assets. An ordinary ERC20 contract with mint and burn functions\n */\ncontract LpToken is Ownable {\n    using SafeMath for uint256;\n\n    string internal _symbol = \"PLP\";\n    string public originTokenName;\n    uint8 internal _decimals = 18;\n\n    uint256 public totalSupply;\n    mapping(address => uint256) internal balances;\n    mapping(address => mapping(address => uint256)) internal allowed;\n\n    // ============ Events ============\n\n    event Transfer(address indexed from, address indexed to, uint256 amount);\n\n    event Approval(address indexed owner, address indexed spender, uint256 amount);\n\n    event Mint(address indexed user, uint256 value);\n\n    event Burn(address indexed user, uint256 value);\n\n    // ============ Functions ============\n\n    constructor(string memory _tokenName) public {\n        originTokenName = _tokenName;\n    }\n\n    function name() public view returns (string memory) {\n        string memory lpTokenSuffix = \"_PARA_LP_TOKEN_\";\n        return string(abi.encodePacked(originTokenName, lpTokenSuffix));\n    }\n\n    function symbol() public view returns (string memory) {\n        return _symbol;\n    }\n\n    function decimals() public view returns (uint8) {\n        return _decimals;\n    }\n\n    /**\n     * @dev transfer token for a specified address\n     * @param to The address to transfer to.\n     * @param amount The amount to be transferred.\n     */\n    function transfer(address to, uint256 amount) public returns (bool) {\n        require(amount <= balances[msg.sender], \"BALANCE_NOT_ENOUGH\");\n\n        balances[msg.sender] = balances[msg.sender].sub(amount);\n        balances[to] = balances[to].add(amount);\n        emit Transfer(msg.sender, to, amount);\n        return true;\n    }\n\n    /**\n     * @dev Gets the balance of the specified address.\n     * @param owner The address to query the the balance of.\n     * @return balance An uint256 representing the amount owned by the passed address.\n     */\n    function balanceOf(address owner) external view returns (uint256 balance) {\n        return balances[owner];\n    }\n\n    /**\n     * @dev Transfer tokens from one address to another\n     * @param from address The address which you want to send tokens from\n     * @param to address The address which you want to transfer to\n     * @param amount uint256 the amount of tokens to be transferred\n     */\n    function transferFrom(\n        address from,\n        address to,\n        uint256 amount\n    ) public returns (bool) {\n        require(amount <= balances[from], \"BALANCE_NOT_ENOUGH\");\n        require(amount <= allowed[from][msg.sender], \"ALLOWANCE_NOT_ENOUGH\");\n\n        balances[from] = balances[from].sub(amount);\n        balances[to] = balances[to].add(amount);\n        allowed[from][msg.sender] = allowed[from][msg.sender].sub(amount);\n        emit Transfer(from, to, amount);\n        return true;\n    }\n\n    /**\n     * @dev Approve the passed address to spend the specified amount of tokens on behalf of msg.sender.\n     * @param spender The address which will spend the funds.\n     * @param amount The amount of tokens to be spent.\n     */\n    function approve(address spender, uint256 amount) public returns (bool) {\n        allowed[msg.sender][spender] = amount;\n        emit Approval(msg.sender, spender, amount);\n        return true;\n    }\n\n    /**\n     * @dev Function to check the amount of tokens that an owner allowed to a spender.\n     * @param owner address The address which owns the funds.\n     * @param spender address The address which will spend the funds.\n     * @return A uint256 specifying the amount of tokens still available for the spender.\n     */\n    function allowance(address owner, address spender) public view returns (uint256) {\n        return allowed[owner][spender];\n    }\n\n    function mint(address user, uint256 value) external onlyOwner {\n        balances[user] = balances[user].add(value);\n        totalSupply = totalSupply.add(value);\n        emit Mint(user, value);\n        emit Transfer(address(0), user, value);\n    }\n\n    function burn(address user, uint256 value) external onlyOwner {\n        balances[user] = balances[user].sub(value);\n        totalSupply = totalSupply.sub(value);\n        emit Burn(user, value);\n        emit Transfer(user, address(0), value);\n    }\n}\n",
  "sourcePath": "/Users/daniel/Codes/parapara/para_dapp_v6/contracts/perpetual/LpToken.sol",
  "compiler": {
    "name": "solc",
    "version": "0.6.9+commit.3e3065ac.Emscripten.clang"
  },
  "schemaVersion": "3.3.4",
  "updatedAt": "2021-03-26T06:46:20.156Z",
  "devdoc": {
    "author": "Parapara",
    "methods": {
      "allowance(address,address)": {
        "details": "Function to check the amount of tokens that an owner allowed to a spender.",
        "params": {
          "owner": "address The address which owns the funds.",
          "spender": "address The address which will spend the funds."
        },
        "returns": {
          "_0": "A uint256 specifying the amount of tokens still available for the spender."
        }
      },
      "approve(address,uint256)": {
        "details": "Approve the passed address to spend the specified amount of tokens on behalf of msg.sender.",
        "params": {
          "amount": "The amount of tokens to be spent.",
          "spender": "The address which will spend the funds."
        }
      },
      "balanceOf(address)": {
        "details": "Gets the balance of the specified address.",
        "params": {
          "owner": "The address to query the the balance of."
        },
        "returns": {
          "balance": "An uint256 representing the amount owned by the passed address."
        }
      },
      "transfer(address,uint256)": {
        "details": "transfer token for a specified address",
        "params": {
          "amount": "The amount to be transferred.",
          "to": "The address to transfer to."
        }
      },
      "transferFrom(address,address,uint256)": {
        "details": "Transfer tokens from one address to another",
        "params": {
          "amount": "uint256 the amount of tokens to be transferred",
          "from": "address The address which you want to send tokens from",
          "to": "address The address which you want to transfer to"
        }
      }
    },
    "title": "LpToken"
  },
  "userdoc": {
    "methods": {},
    "notice": "Tokenize liquidity pool assets. An ordinary ERC20 contract with mint and burn functions"
  }
}