{
  "contractName": "Margin",
  "abi": [
    {
      "anonymous": false,
      "inputs": [
        {
          "indexed": true,
          "internalType": "address",
          "name": "user",
          "type": "address"
        },
        {
          "indexed": false,
          "internalType": "uint256",
          "name": "baseTokenAmount",
          "type": "uint256"
        },
        {
          "indexed": false,
          "internalType": "uint256",
          "name": "quoteTokenAmount",
          "type": "uint256"
        }
      ],
      "name": "ClaimAssets",
      "type": "event"
    },
    {
      "anonymous": false,
      "inputs": [
        {
          "indexed": true,
          "internalType": "address",
          "name": "trader",
          "type": "address"
        },
        {
          "indexed": false,
          "internalType": "uint256",
          "name": "amount",
          "type": "uint256"
        },
        {
          "indexed": false,
          "internalType": "int256",
          "name": "balance",
          "type": "int256"
        }
      ],
      "name": "Deposit",
      "type": "event"
    },
    {
      "anonymous": false,
      "inputs": [
        {
          "indexed": false,
          "internalType": "uint256",
          "name": "amount",
          "type": "uint256"
        }
      ],
      "name": "Donate",
      "type": "event"
    },
    {
      "anonymous": false,
      "inputs": [
        {
          "indexed": true,
          "internalType": "address",
          "name": "trader",
          "type": "address"
        },
        {
          "indexed": false,
          "internalType": "int256",
          "name": "amount",
          "type": "int256"
        },
        {
          "indexed": false,
          "internalType": "int256",
          "name": "balanceAfter",
          "type": "int256"
        }
      ],
      "name": "InternalUpdateBalance",
      "type": "event"
    },
    {
      "anonymous": false,
      "inputs": [
        {
          "indexed": true,
          "internalType": "address",
          "name": "trader",
          "type": "address"
        },
        {
          "indexed": true,
          "internalType": "address",
          "name": "liquidator",
          "type": "address"
        },
        {
          "indexed": false,
          "internalType": "enum Types.Side",
          "name": "liquidationSide",
          "type": "uint8"
        },
        {
          "indexed": false,
          "internalType": "uint256",
          "name": "liquidationValue",
          "type": "uint256"
        },
        {
          "indexed": false,
          "internalType": "uint256",
          "name": "liquidationAmount",
          "type": "uint256"
        }
      ],
      "name": "Liquidate",
      "type": "event"
    },
    {
      "anonymous": false,
      "inputs": [
        {
          "indexed": true,
          "internalType": "address",
          "name": "previousOwner",
          "type": "address"
        },
        {
          "indexed": true,
          "internalType": "address",
          "name": "newOwner",
          "type": "address"
        }
      ],
      "name": "OwnershipTransferPrepared",
      "type": "event"
    },
    {
      "anonymous": false,
      "inputs": [
        {
          "indexed": true,
          "internalType": "address",
          "name": "previousOwner",
          "type": "address"
        },
        {
          "indexed": true,
          "internalType": "address",
          "name": "newOwner",
          "type": "address"
        }
      ],
      "name": "OwnershipTransferred",
      "type": "event"
    },
    {
      "anonymous": false,
      "inputs": [
        {
          "indexed": true,
          "internalType": "address",
          "name": "trader",
          "type": "address"
        },
        {
          "indexed": false,
          "internalType": "uint256",
          "name": "amount",
          "type": "uint256"
        },
        {
          "indexed": false,
          "internalType": "int256",
          "name": "balance",
          "type": "int256"
        }
      ],
      "name": "Withdraw",
      "type": "event"
    },
    {
      "inputs": [],
      "name": "ADMIN",
      "outputs": [
        {
          "internalType": "contract Admin",
          "name": "",
          "type": "address"
        }
      ],
      "stateMutability": "view",
      "type": "function"
    },
    {
      "inputs": [],
      "name": "PRICING",
      "outputs": [
        {
          "internalType": "contract Pricing",
          "name": "",
          "type": "address"
        }
      ],
      "stateMutability": "view",
      "type": "function"
    },
    {
      "inputs": [],
      "name": "_BASE_BALANCE_",
      "outputs": [
        {
          "internalType": "uint256",
          "name": "",
          "type": "uint256"
        }
      ],
      "stateMutability": "view",
      "type": "function"
    },
    {
      "inputs": [],
      "name": "_COLLATERAL_POOL_TOKEN_",
      "outputs": [
        {
          "internalType": "address",
          "name": "",
          "type": "address"
        }
      ],
      "stateMutability": "view",
      "type": "function"
    },
    {
      "inputs": [
        {
          "internalType": "address",
          "name": "",
          "type": "address"
        }
      ],
      "name": "_MARGIN_ACCOUNT_",
      "outputs": [
        {
          "internalType": "enum Types.Side",
          "name": "SIDE",
          "type": "uint8"
        },
        {
          "internalType": "uint256",
          "name": "SIZE",
          "type": "uint256"
        },
        {
          "internalType": "uint256",
          "name": "ENTRY_VALUE",
          "type": "uint256"
        },
        {
          "internalType": "int256",
          "name": "CASH_BALANCE",
          "type": "int256"
        }
      ],
      "stateMutability": "view",
      "type": "function"
    },
    {
      "inputs": [],
      "name": "_NEW_OWNER_",
      "outputs": [
        {
          "internalType": "address",
          "name": "",
          "type": "address"
        }
      ],
      "stateMutability": "view",
      "type": "function"
    },
    {
      "inputs": [],
      "name": "_OWNER_",
      "outputs": [
        {
          "internalType": "address",
          "name": "",
          "type": "address"
        }
      ],
      "stateMutability": "view",
      "type": "function"
    },
    {
      "inputs": [],
      "name": "_POOL_INSURANCE_BALANCE_",
      "outputs": [
        {
          "internalType": "uint256",
          "name": "",
          "type": "uint256"
        }
      ],
      "stateMutability": "view",
      "type": "function"
    },
    {
      "inputs": [],
      "name": "_POOL_MARGIN_ACCOUNT_",
      "outputs": [
        {
          "internalType": "enum Types.Side",
          "name": "SIDE",
          "type": "uint8"
        },
        {
          "internalType": "uint256",
          "name": "SIZE",
          "type": "uint256"
        },
        {
          "internalType": "uint256",
          "name": "ENTRY_VALUE",
          "type": "uint256"
        },
        {
          "internalType": "int256",
          "name": "CASH_BALANCE",
          "type": "int256"
        }
      ],
      "stateMutability": "view",
      "type": "function"
    },
    {
      "inputs": [],
      "name": "_QUOTE_BALANCE_",
      "outputs": [
        {
          "internalType": "uint256",
          "name": "",
          "type": "uint256"
        }
      ],
      "stateMutability": "view",
      "type": "function"
    },
    {
      "inputs": [],
      "name": "_R_STATUS_",
      "outputs": [
        {
          "internalType": "enum Types.Side",
          "name": "",
          "type": "uint8"
        }
      ],
      "stateMutability": "view",
      "type": "function"
    },
    {
      "inputs": [],
      "name": "_TARGET_BASE_TOKEN_AMOUNT_",
      "outputs": [
        {
          "internalType": "uint256",
          "name": "",
          "type": "uint256"
        }
      ],
      "stateMutability": "view",
      "type": "function"
    },
    {
      "inputs": [],
      "name": "_TARGET_QUOTE_TOKEN_AMOUNT_",
      "outputs": [
        {
          "internalType": "uint256",
          "name": "",
          "type": "uint256"
        }
      ],
      "stateMutability": "view",
      "type": "function"
    },
    {
      "inputs": [],
      "name": "claimOwnership",
      "outputs": [],
      "stateMutability": "nonpayable",
      "type": "function"
    },
    {
      "inputs": [
        {
          "internalType": "address",
          "name": "from",
          "type": "address"
        },
        {
          "internalType": "uint256",
          "name": "amount",
          "type": "uint256"
        }
      ],
      "name": "collateralTraderTransferIn",
      "outputs": [],
      "stateMutability": "nonpayable",
      "type": "function"
    },
    {
      "inputs": [
        {
          "internalType": "address",
          "name": "to",
          "type": "address"
        },
        {
          "internalType": "uint256",
          "name": "amount",
          "type": "uint256"
        }
      ],
      "name": "collateralTraderTransferOut",
      "outputs": [],
      "stateMutability": "nonpayable",
      "type": "function"
    },
    {
      "inputs": [],
      "name": "getPoolMarginCashBalance",
      "outputs": [
        {
          "internalType": "int256",
          "name": "",
          "type": "int256"
        }
      ],
      "stateMutability": "view",
      "type": "function"
    },
    {
      "inputs": [],
      "name": "getPoolMarginEntryValue",
      "outputs": [
        {
          "internalType": "uint256",
          "name": "",
          "type": "uint256"
        }
      ],
      "stateMutability": "view",
      "type": "function"
    },
    {
      "inputs": [],
      "name": "getPoolMarginSide",
      "outputs": [
        {
          "internalType": "enum Types.Side",
          "name": "",
          "type": "uint8"
        }
      ],
      "stateMutability": "view",
      "type": "function"
    },
    {
      "inputs": [],
      "name": "getPoolMarginSize",
      "outputs": [
        {
          "internalType": "uint256",
          "name": "",
          "type": "uint256"
        }
      ],
      "stateMutability": "view",
      "type": "function"
    },
    {
      "inputs": [
        {
          "internalType": "address",
          "name": "newOwner",
          "type": "address"
        }
      ],
      "name": "transferOwnership",
      "outputs": [],
      "stateMutability": "nonpayable",
      "type": "function"
    },
    {
      "inputs": [
        {
          "internalType": "uint256",
          "name": "amount",
          "type": "uint256"
        },
        {
          "internalType": "uint256",
          "name": "markPrice",
          "type": "uint256"
        }
      ],
      "name": "initialMargin",
      "outputs": [
        {
          "internalType": "uint256",
          "name": "",
          "type": "uint256"
        }
      ],
      "stateMutability": "view",
      "type": "function"
    },
    {
      "inputs": [
        {
          "internalType": "uint256",
          "name": "amount",
          "type": "uint256"
        },
        {
          "internalType": "uint256",
          "name": "markPrice",
          "type": "uint256"
        }
      ],
      "name": "maintenanceMargin",
      "outputs": [
        {
          "internalType": "uint256",
          "name": "",
          "type": "uint256"
        }
      ],
      "stateMutability": "view",
      "type": "function"
    },
    {
      "inputs": [
        {
          "components": [
            {
              "internalType": "enum Types.Side",
              "name": "SIDE",
              "type": "uint8"
            },
            {
              "internalType": "uint256",
              "name": "SIZE",
              "type": "uint256"
            },
            {
              "internalType": "uint256",
              "name": "ENTRY_VALUE",
              "type": "uint256"
            },
            {
              "internalType": "int256",
              "name": "CASH_BALANCE",
              "type": "int256"
            }
          ],
          "internalType": "struct Types.MarginAccount",
          "name": "account",
          "type": "tuple"
        }
      ],
      "name": "balanceMargin",
      "outputs": [
        {
          "internalType": "int256",
          "name": "",
          "type": "int256"
        }
      ],
      "stateMutability": "view",
      "type": "function"
    },
    {
      "inputs": [
        {
          "components": [
            {
              "internalType": "enum Types.Side",
              "name": "SIDE",
              "type": "uint8"
            },
            {
              "internalType": "uint256",
              "name": "SIZE",
              "type": "uint256"
            },
            {
              "internalType": "uint256",
              "name": "ENTRY_VALUE",
              "type": "uint256"
            },
            {
              "internalType": "int256",
              "name": "CASH_BALANCE",
              "type": "int256"
            }
          ],
          "internalType": "struct Types.MarginAccount",
          "name": "account",
          "type": "tuple"
        },
        {
          "internalType": "uint256",
          "name": "markPrice",
          "type": "uint256"
        }
      ],
      "name": "availableMargin",
      "outputs": [
        {
          "internalType": "int256",
          "name": "",
          "type": "int256"
        }
      ],
      "stateMutability": "view",
      "type": "function"
    },
    {
      "inputs": [
        {
          "internalType": "address",
          "name": "trader",
          "type": "address"
        }
      ],
      "name": "isSafeMaintain",
      "outputs": [
        {
          "internalType": "bool",
          "name": "",
          "type": "bool"
        }
      ],
      "stateMutability": "view",
      "type": "function"
    },
    {
      "inputs": [
        {
          "components": [
            {
              "internalType": "enum Types.Side",
              "name": "SIDE",
              "type": "uint8"
            },
            {
              "internalType": "uint256",
              "name": "SIZE",
              "type": "uint256"
            },
            {
              "internalType": "uint256",
              "name": "ENTRY_VALUE",
              "type": "uint256"
            },
            {
              "internalType": "int256",
              "name": "CASH_BALANCE",
              "type": "int256"
            }
          ],
          "internalType": "struct Types.MarginAccount",
          "name": "account",
          "type": "tuple"
        },
        {
          "internalType": "uint256",
          "name": "openValue",
          "type": "uint256"
        }
      ],
      "name": "isSafeOpen",
      "outputs": [
        {
          "internalType": "bool",
          "name": "",
          "type": "bool"
        }
      ],
      "stateMutability": "view",
      "type": "function"
    },
    {
      "inputs": [
        {
          "internalType": "address",
          "name": "liquidator",
          "type": "address"
        },
        {
          "internalType": "address",
          "name": "trader",
          "type": "address"
        }
      ],
      "name": "liquidate",
      "outputs": [],
      "stateMutability": "nonpayable",
      "type": "function"
    }
  ],
  "bytecode": "0x6080604052600e805460ff1916905534801561001a57600080fd5b50611eaf8061002a6000396000f3fe608060405234801561001057600080fd5b50600436106101c45760003560e01c806386b9d81f116100f9578063b4cab95511610097578063f2fde38b11610071578063f2fde38b14610330578063f5027dd414610343578063f9f8eda814610356578063fa6a5eae1461035e576101c4565b8063b4cab95514610318578063d6b4129814610320578063eab5d20e14610328576101c4565b8063b192a3eb116100d3578063b192a3eb146102e2578063b1e07366146102ea578063b2094fd3146102fd578063b35b08e914610305576101c4565b806386b9d81f146102af5780638bc60bff146102c2578063a163805c146102da576101c4565b80632b32812a116101665780634e71e0c8116101405780634e71e0c81461028f57806372decd7a146102975780637c9b8e891461029f5780638456db15146102a7576101c4565b80632b32812a14610261578063319be76014610269578063388739251461027c576101c4565b806317be952e116101a257806317be952e1461022757806322d779cc1461023c578063245c9685146102515780632a0acc6a14610259576101c4565b80630e23d644146101c957806313ddd8fb146101f257806316048bc414610212575b600080fd5b6101dc6101d73660046119bf565b610371565b6040516101e99190611b5f565b60405180910390f35b6102056102003660046118ec565b61041d565b6040516101e99190611aaf565b61021a610532565b6040516101e99190611a5e565b61022f610541565b6040516101e99190611aba565b61024f61024a36600461195c565b61054a565b005b6101dc610558565b61021a61055e565b6101dc61056d565b6101dc6102773660046119da565b610573565b6101dc61028a366004611a04565b6105a7565b61024f610641565b6101dc6106d8565b6101dc6106de565b61021a6106e4565b61024f6102bd366004611924565b6106f3565b6102ca6108cd565b6040516101e99493929190611b0b565b61021a6108e2565b61021a6108f1565b6102ca6102f83660046118ec565b610900565b6101dc61092b565b6101dc610313366004611a04565b610931565b6101dc61098e565b61022f610994565b6101dc61099d565b61024f61033e3660046118ec565b6109a3565b6102056103513660046119da565b610a4e565b6101dc610b2f565b61024f61036c36600461195c565b610b35565b60035481516020830151604080850151905163a3ffd1cb60e01b8152600094610415946001600160a01b039091169363a3ffd1cb936103b4938290600401611b35565b60206040518083038186803b1580156103cc57600080fd5b505afa1580156103e0573d6000803e3d6000fd5b505050506040513d601f19601f8201168201806040525081019061040491906119a7565b60608401519063ffffffff610b3f16565b90505b919050565b6000610427611855565b6001600160a01b038316600090815260096020526040908190208151608081019092528054829060ff16600281111561045c57fe5b600281111561046757fe5b81526020016001820154815260200160028201548152602001600382015481525050905061052161051c8260200151600360009054906101000a90046001600160a01b03166001600160a01b031663ee27c6896040518163ffffffff1660e01b815260040160206040518083038186803b1580156104e457600080fd5b505afa1580156104f8573d6000803e3d6000fd5b505050506040513d601f19601f8201168201806040525081019061031391906119a7565b610b85565b61052a82610371565b139392505050565b6000546001600160a01b031681565b600e5460ff1681565b6105548282610bb2565b5050565b600b5481565b6002546001600160a01b031681565b60065490565b600061059e61058961051c8560200151856105a7565b61059285610371565b9063ffffffff610cac16565b90505b92915050565b600061059e6105b68385610cf2565b600260009054906101000a90046001600160a01b03166001600160a01b03166398a0a53d6040518163ffffffff1660e01b815260040160206040518083038186803b15801561060457600080fd5b505afa158015610618573d6000803e3d6000fd5b505050506040513d601f19601f8201168201806040525081019061063c91906119a7565b610cf2565b6001546001600160a01b031633146106745760405162461bcd60e51b815260040161066b90611b68565b60405180910390fd5b600154600080546040516001600160a01b0393841693909116917f8be0079c531659141344cd1fd0a4f28419497f9722a3daafe3b4186f6b6457e091a360018054600080546001600160a01b03199081166001600160a01b03841617909155169055565b60085490565b600d5481565b6001546001600160a01b031681565b6106fc8161041d565b156107195760405162461bcd60e51b815260040161066b90611d2e565b610721611855565b6001600160a01b038316600090815260096020526040908190208151608081019092528054829060ff16600281111561075657fe5b600281111561076157fe5b81526020016001820154815260200160028201548152602001600382015481525050905061078d611855565b6001600160a01b038316600090815260096020526040908190208151608081019092528054829060ff1660028111156107c257fe5b60028111156107cd57fe5b8152602001600182015481526020016002820154815260200160038201548152505090506000600360009054906101000a90046001600160a01b03166001600160a01b0316634b0301a5836000015184602001516040518363ffffffff1660e01b815260040161083e929190611acf565b60206040518083038186803b15801561085657600080fd5b505afa15801561086a573d6000803e3d6000fd5b505050506040513d601f19601f8201168201806040525081019061088e91906119a7565b905061089a8382610a4e565b6108b65760405162461bcd60e51b815260040161066b90611c33565b6108c68585838560200151610d1c565b5050505050565b60055460065460075460085460ff9093169284565b6003546001600160a01b031681565b6004546001600160a01b031681565b600960205260009081526040902080546001820154600283015460039093015460ff90921692909184565b600a5481565b600061059e6109408385610cf2565b600260009054906101000a90046001600160a01b03166001600160a01b031663fe73ee736040518163ffffffff1660e01b815260040160206040518083038186803b15801561060457600080fd5b60075490565b60055460ff1690565b600c5481565b6000546001600160a01b031633146109cd5760405162461bcd60e51b815260040161066b90611d0b565b6001600160a01b0381166109f35760405162461bcd60e51b815260040161066b90611ce4565b600080546040516001600160a01b03808516939216917fdcf55418cee3220104fef63f979ff3c4097ad240c0c43dcb33ce837748983e6291a3600180546001600160a01b0319166001600160a01b0392909216919091179055565b6000610aa561051c83600260009054906101000a90046001600160a01b03166001600160a01b03166398a0a53d6040518163ffffffff1660e01b815260040160206040518083038186803b15801561060457600080fd5b61052a84600360009054906101000a90046001600160a01b03166001600160a01b031663ee27c6896040518163ffffffff1660e01b815260040160206040518083038186803b158015610af757600080fd5b505afa158015610b0b573d6000803e3d6000fd5b505050506040513d601f19601f8201168201806040525081019061027791906119a7565b600f5481565b6105548282611218565b6000828201818312801590610b545750838112155b80610b695750600083128015610b6957508381125b61059e5760405162461bcd60e51b815260040161066b90611bbd565b60006001600160ff1b03821115610bae5760405162461bcd60e51b815260040161066b90611e09565b5090565b610c55823083600260009054906101000a90046001600160a01b03166001600160a01b031663cb102dd26040518163ffffffff1660e01b815260040160206040518083038186803b158015610c0657600080fd5b505afa158015610c1a573d6000803e3d6000fd5b505050506040513d601f19601f82011682018060405250810190610c3e9190611908565b6001600160a01b031692919063ffffffff6112fb16565b610c89610c6182610b85565b6001600160a01b0384166000908152600960205260409020600301549063ffffffff610b3f16565b6001600160a01b0390921660009081526009602052604090206003019190915550565b6000818303818312801590610cc15750838113155b80610cd65750600083128015610cd657508381135b61059e5760405162461bcd60e51b815260040161066b90611d7b565b6000670de0b6b3a7640000610d0d848463ffffffff61135916565b81610d1457fe5b049392505050565b610d24611855565b6001600160a01b038516600090815260096020526040908190208151608081019092528054829060ff166002811115610d5957fe5b6002811115610d6457fe5b815260200160018201548152602001600282015481526020016003820154815250509050610d90611855565b6001600160a01b038516600090815260096020526040908190208151608081019092528054829060ff166002811115610dc557fe5b6002811115610dd057fe5b815260200160018201548152602001600282015481526020016003820154815250509050610dfc611855565b604080516080810190915260058054829060ff166002811115610e1b57fe5b6002811115610e2657fe5b8152602001600182015481526020016002820154815260200160038201548152505090506000826000015190506000610ee761051c600260009054906101000a90046001600160a01b03166001600160a01b031663f5cdd2026040518163ffffffff1660e01b815260040160206040518083038186803b158015610ea957600080fd5b505afa158015610ebd573d6000803e3d6000fd5b505050506040513d601f19601f82011682018060405250810190610ee191906119a7565b89610cf2565b90506000610f7d61051c600260009054906101000a90046001600160a01b03166001600160a01b03166311187e366040518163ffffffff1660e01b815260040160206040518083038186803b158015610f3f57600080fd5b505afa158015610f53573d6000803e3d6000fd5b505050506040513d601f19601f82011682018060405250810190610f7791906119a7565b8a610cf2565b9050610f9385610f8c85611393565b8a8a6113cd565b9450610fa186848a8a6113cd565b9550610fb3828263ffffffff610b3f16565b85606001511261101a57610fd881610592848860600151610cac90919063ffffffff16565b606080870191909152860151610ff4908363ffffffff610b3f16565b606080880191909152840151611010908263ffffffff610b3f16565b60608501526110a4565b8185606001511261107f57606085015161104f9061103e908463ffffffff610cac16565b60608601519063ffffffff610b3f16565b60608086019190915286015161106b908363ffffffff610b3f16565b6060808801919091526000908601526110a4565b60008560600151126110a4576060808601519087015161106b9163ffffffff610b3f16565b6001600160a01b03891660009081526009602052604090208551815487929190829060ff191660018360028111156110d857fe5b021790555060208201518160010155604082015181600201556060820151816003015590505085600960008c6001600160a01b03166001600160a01b0316815260200190815260200160002060008201518160000160006101000a81548160ff0219169083600281111561114857fe5b021790555060208201516001820155604082015160028201556060918201516003909101556008549085015114156111bd57835160058054869290829060ff1916600183600281111561119757fe5b021790555060208201516001820155604082015160028201556060909101516003909101555b886001600160a01b03168a6001600160a01b03167f54f9b006b19a44694e56b0d6a57f34c420bf88da7373f9d0f3380e5f4b70951e858b8b60405161120493929190611aeb565b60405180910390a350505050505050505050565b61124c61122482610b85565b6001600160a01b0384166000908152600960205260409020600301549063ffffffff610cac16565b6001600160a01b0380841660009081526009602090815260409182902060030193909355600254815163658816e960e11b81529151610554948794879493169263cb102dd29260048083019392829003018186803b1580156112ad57600080fd5b505afa1580156112c1573d6000803e3d6000fd5b505050506040513d601f19601f820116820180604052508101906112e59190611908565b6001600160a01b0316919063ffffffff61149816565b611353846323b872dd60e01b85858560405160240161131c93929190611a72565b60408051601f198184030181529190526020810180516001600160e01b03166001600160e01b0319909316929092179091526114bc565b50505050565b600082611368575060006105a1565b8282028284828161137557fe5b041461059e5760405162461bcd60e51b815260040161066b90611e33565b600060028260028111156113a357fe5b14156113b157506001610418565b60018260028111156113bf57fe5b1415610bae57506002610418565b6113d5611855565b602085015160009083901580159061140457508560028111156113f457fe5b8751600281111561140157fe5b14155b15611469578660200151841161142a5761141f878587611573565b965060009050611469565b61143c8561063c8960200151876116d1565b915061144d87886020015184611573565b96506114668760200151856116fb90919063ffffffff16565b90505b801561148d5761148a878783611485898763ffffffff6116fb16565b611723565b96505b509495945050505050565b6114b78363a9059cbb60e01b848460405160240161131c929190611a96565b505050565b60006060836001600160a01b0316836040516114d89190611a25565b6000604051808303816000865af19150503d8060008114611515576040519150601f19603f3d011682016040523d82523d6000602084013e61151a565b606091505b50915091508161153c5760405162461bcd60e51b815260040161066b90611bfe565b80511561135357808060200190518101906115579190611987565b6113535760405162461bcd60e51b815260040161066b90611dbf565b61157b611855565b6000831161159b5760405162461bcd60e51b815260040161066b90611cb5565b600084602001518414156115b4575060408401516115cd565b6115ca856040015161063c8688602001516117af565b90505b6003548551604051632d50ce1d60e21b81526000926001600160a01b03169163b543387491611603919086908990600401611aeb565b60206040518083038186803b15801561161b57600080fd5b505afa15801561162f573d6000803e3d6000fd5b505050506040513d601f19601f8201168201806040525081019061165391906119a7565b606087015190915061166b908263ffffffff610b3f16565b60608701526040860151602087015161169d919061063c90611693908963ffffffff6116fb16565b89602001516117af565b604087015260208601516116b7908663ffffffff6116fb16565b602087018190526116c757600086525b5093949350505050565b600061059e826116ef85670de0b6b3a764000063ffffffff61135916565b9063ffffffff6117d916565b60008282111561171d5760405162461bcd60e51b815260040161066b90611c92565b50900390565b61172b611855565b6000831161174b5760405162461bcd60e51b815260040161066b90611b8f565b6020850151611772578484600281111561176157fe5b9081600281111561176e57fe5b9052505b6020850151611787908463ffffffff61180616565b602086015260408501516117a1908363ffffffff61180616565b604086015250929392505050565b600061059e826117cd85670de0b6b3a764000063ffffffff61135916565b9063ffffffff61182b16565b6000806117e6848461182b565b9050828102840380156117fe575060010190506105a1565b5090506105a1565b60008282018381101561059e5760405162461bcd60e51b815260040161066b90611d58565b600080821161184c5760405162461bcd60e51b815260040161066b90611c6a565b818381610d1457fe5b604080516080810190915280600081526020016000815260200160008152602001600081525090565b60006080828403121561188f578081fd5b6040516080810181811067ffffffffffffffff821117156118ae578283fd5b6040529050808235600381106118c357600080fd5b808252506020830135602082015260408301356040820152606083013560608201525092915050565b6000602082840312156118fd578081fd5b813561059e81611e61565b600060208284031215611919578081fd5b815161059e81611e61565b60008060408385031215611936578081fd5b823561194181611e61565b9150602083013561195181611e61565b809150509250929050565b6000806040838503121561196e578182fd5b823561197981611e61565b946020939093013593505050565b600060208284031215611998578081fd5b8151801515811461059e578182fd5b6000602082840312156119b8578081fd5b5051919050565b6000608082840312156119d0578081fd5b61059e838361187e565b60008060a083850312156119ec578182fd5b6119f6848461187e565b946080939093013593505050565b60008060408385031215611a16578182fd5b50508035926020909101359150565b60008251815b81811015611a455760208186018101518583015201611a2b565b81811115611a535782828501525b509190910192915050565b6001600160a01b0391909116815260200190565b6001600160a01b039384168152919092166020820152604081019190915260600190565b6001600160a01b03929092168252602082015260400190565b901515815260200190565b60208101611ac783611e56565b825292915050565b60408101611adc84611e56565b82528260208301529392505050565b60608101611af885611e56565b8252602082019390935260400152919050565b6080810160038610611b1957fe5b9481526020810193909352604083019190915260609091015290565b60808101611b4286611e56565b825284602083015283604083015282606083015295945050505050565b90815260200190565b6020808252600d908201526c494e56414c49445f434c41494d60981b604082015260600190565b6020808252601490820152731bdc195b8e881a5b9d985b1a5908185b5bdd5b9d60621b604082015260600190565b60208082526021908201527f5369676e6564536166654d6174683a206164646974696f6e206f766572666c6f6040820152607760f81b606082015260800190565b6020808252818101527f5361666545524332303a206c6f772d6c6576656c2063616c6c206661696c6564604082015260600190565b6020808252601a908201527f4c495155494441544f525f4e4f545f454e4f5547485f46554e44000000000000604082015260600190565b6020808252600e908201526d2224ab24a224a723afa2a92927a960911b604082015260600190565b60208082526009908201526829aaa12fa2a92927a960b91b604082015260600190565b60208082526015908201527418db1bdcd94e881a5b9d985b1a5908185b5bdd5b9d605a1b604082015260600190565b6020808252600d908201526c24a72b20a624a22fa7aba722a960991b604082015260600190565b6020808252600990820152682727aa2fa7aba722a960b91b604082015260600190565b60208082526010908201526f29a0a322afaa27afa6a0a4a72a20a4a760811b604082015260600190565b60208082526009908201526820a2222fa2a92927a960b91b604082015260600190565b60208082526024908201527f5369676e6564536166654d6174683a207375627472616374696f6e206f766572604082015263666c6f7760e01b606082015260800190565b6020808252602a908201527f5361666545524332303a204552433230206f7065726174696f6e20646964206e6040820152691bdd081cdd58d8d9595960b21b606082015260800190565b60208082526010908201526f75696e74323536206f766572666c6f7760801b604082015260600190565b60208082526009908201526826aaa62fa2a92927a960b91b604082015260600190565b806003811061041857fe5b6001600160a01b0381168114611e7657600080fd5b5056fea26469706673582212205ca572a5d483573b62a664c2eeb57b015bf432fabf2b3c076c32159bdbdb7a6964736f6c63430006090033",
  "immutableReferences": {},
  "source": "/*\n\n    Copyright 2020 DODO ZOO.\n    SPDX-License-Identifier: Apache-2.0\n\n*/\n\npragma solidity 0.6.9;\npragma experimental ABIEncoderV2;\n\nimport {SafeMath} from \"../lib/SafeMath.sol\";\nimport {SignedSafeMath} from \"../lib/SignedSafeMath.sol\";\nimport {DecimalMath} from \"../lib/DecimalMath.sol\";\nimport {Types} from \"../lib/Types.sol\";\nimport {Settlement} from \"./Settlement.sol\";\nimport {IAdmin} from \"../interface/IAdmin.sol\";\n\n\n/**\n * @title Pricing\n * @author Parapara\n *\n * @notice Parapara's margin account model\n */\ncontract Margin is Settlement {\n    using SafeMath for uint256;\n    using SignedSafeMath for int256;\n\n    // ============ Events ============\n\n    event Deposit(address indexed trader, uint256 amount, int256 balance);\n\n    event Withdraw(address indexed trader, uint256 amount, int256 balance);\n    \n    event Liquidate(address indexed trader, address indexed liquidator, Types.Side liquidationSide, uint256 liquidationValue, uint256 liquidationAmount);\n\n    event InternalUpdateBalance(\n        address indexed trader,\n        int256 amount,\n        int256 balanceAfter\n    );\n\n    // ============ Query Functions ============\n    // \n    function initialMargin(\n        uint256 amount,\n        uint256 markPrice\n    ) public view returns (uint256) {\n        return DecimalMath.mul(DecimalMath.mul(markPrice, amount), ADMIN._INITIAL_MARGIN_RATE_());\n    }\n    // \n    function maintenanceMargin(\n        uint256 amount,\n        uint256 markPrice\n    ) public view returns (uint256) {\n        return DecimalMath.mul(DecimalMath.mul(markPrice, amount), ADMIN._MAINTENANCE_MARGIN_RATE_());\n    }\n\n\n    // PNL\n    // \n    // CASH_BALANCE + UNREALIZED_PNL\n    function balanceMargin(Types.MarginAccount memory account)\n        public view returns (int256) {\n        return account.CASH_BALANCE.add(PRICING.queryPNL(account.SIDE, account.SIZE, account.ENTRY_VALUE, account.SIZE));\n    }\n\n    // \n    function availableMargin(\n        Types.MarginAccount memory account,\n        uint256 markPrice\n    ) public view returns (int256) {\n        return balanceMargin(account).sub(initialMargin(account.SIZE, markPrice).toint256());\n    }\n\n    // \n    function isSafeMaintain(\n        address trader\n    ) public view returns (bool) {\n        Types.MarginAccount memory account = _MARGIN_ACCOUNT_[trader];\n        return balanceMargin(account) > maintenanceMargin(account.SIZE, PRICING.getMidPrice()).toint256(); // mark price\n    }\n\n\n    // >\n    function isSafeOpen(\n        Types.MarginAccount memory account,\n        uint256 openValue\n    ) public view returns (bool) {\n        return availableMargin(account, PRICING.getMidPrice()) > DecimalMath.mul(openValue, ADMIN._INITIAL_MARGIN_RATE_()).toint256();\n    }\n\n    // ============ Margin Account Ops ============\n    function _open(\n        Types.MarginAccount memory account,\n        Types.Side side,\n        uint256 amount,\n        uint256 entryValue\n    ) internal returns (Types.MarginAccount memory) {\n        require(amount > 0, \"open: invalid amount\");\n//        require(checkTradeEligibility(account, entryValue), \"open: INSUFFICIENT FUNDS\");\n        if (account.SIZE == 0) {\n            account.SIDE = side;\n        }\n        account.SIZE = account.SIZE.add(amount);\n        account.ENTRY_VALUE = account.ENTRY_VALUE.add(entryValue);\n\n        return account;\n    }\n\n\n    function _close(\n        Types.MarginAccount memory account,\n        uint256 amount,\n        uint256 closeValue\n    ) internal returns (Types.MarginAccount memory) {\n        require(amount > 0, \"close: invalid amount\");\n\n        uint256 entryValue;\n        if (amount == account.SIZE) {\n            entryValue = account.ENTRY_VALUE;\n        } else {\n            entryValue =\n                DecimalMath.mul(account.ENTRY_VALUE, DecimalMath.divFloor(amount, account.SIZE));\n        }\n        int256 realizedPNL = PRICING.queryPNLwiValue(account.SIDE, entryValue, closeValue);\n        account.CASH_BALANCE = account.CASH_BALANCE.add(realizedPNL);\n        account.ENTRY_VALUE = DecimalMath.mul(account.ENTRY_VALUE, DecimalMath.divFloor(account.SIZE.sub(amount), account.SIZE));\n        account.SIZE = account.SIZE.sub(amount);\n        if (account.SIZE == 0) {\n            account.SIDE = Types.Side.FLAT;\n        }\n        return account;\n    }\n\n     /**\n     * @dev open long/short position for a trader\n     * @param account trader account\n     * @param side Long/Short\n     * @param amount the amount of position\n     */\n    function trade(\n        Types.MarginAccount memory account,\n        Types.Side side,\n        uint256 value,\n        uint256 amount\n    ) internal returns (Types.MarginAccount memory) {\n        uint256 closeValue;\n        uint256 openAmount = amount;\n        if (account.SIZE > 0 && account.SIDE != side) {\n            if (amount <= account.SIZE) {\n                account = _close(account, amount, value);\n                openAmount = 0;\n            }\n            else {\n                closeValue = DecimalMath.mul(value, DecimalMath.divCeil(account.SIZE, amount));\n                account = _close(account, account.SIZE, closeValue);\n                openAmount = amount.sub(account.SIZE);\n            }\n        }\n        if (openAmount > 0) {\n           account = _open(account, side, openAmount, value.sub(closeValue));\n        }\n        return account;\n    }\n\n    function tradePool(\n        Types.Side side,\n        uint256 value,\n        uint256 amount\n    ) internal returns (uint256) {\n        uint256 closeValue;\n        uint256 openAmount = amount;\n        Types.MarginAccount memory poolAccount = _POOL_MARGIN_ACCOUNT_;\n        if (poolAccount.SIZE > 0 && poolAccount.SIDE != side) {\n            if (amount <= poolAccount.SIZE) {\n                _close(poolAccount, amount, value);\n                openAmount = 0;\n            }\n            else {\n                closeValue = DecimalMath.mul(value, DecimalMath.divCeil(poolAccount.SIZE, amount));\n                _close(poolAccount, poolAccount.SIZE, closeValue);\n                openAmount = amount.sub(poolAccount.SIZE);\n            }\n        }\n\n        if (openAmount > 0) {\n           _open(poolAccount, side, openAmount, value.sub(closeValue));\n        }\n        _POOL_MARGIN_ACCOUNT_ = poolAccount;\n        return openAmount;\n    }\n\n\n    /**\n     * @dev liquidate trader's position from a liquidator\n     * @param liquidator the liquidator\n     * @param trader the trader to be liquidated\n    */\n    function _liquidate(\n        address liquidator,\n        address trader,\n        uint256 liquidationValue,\n        uint256 liquidationAmount\n    ) internal {\n        // liquidiated trader\n        Types.MarginAccount memory liquidatorAccount = _MARGIN_ACCOUNT_[liquidator];\n        Types.MarginAccount memory traderAccount = _MARGIN_ACCOUNT_[trader];\n        Types.MarginAccount memory poolAccount = _POOL_MARGIN_ACCOUNT_;\n        Types.Side liquidationSide = traderAccount.SIDE;\n        int256 penaltyToLiquidator = DecimalMath.mul(ADMIN._LIQUIDATION_PENALTY_RATE_(), liquidationValue).toint256();\n        int256 penaltyToPool = DecimalMath.mul(ADMIN._LIQUIDATION_PENALTY_POOL_RATE_(), liquidationValue).toint256();\n\n        // position: trader => liquidator\n        traderAccount = trade(\n            traderAccount,\n            Types.oppositeSide(liquidationSide),\n            liquidationValue,\n            liquidationAmount\n        );\n\n        liquidatorAccount = trade(\n                liquidatorAccount,\n                liquidationSide,\n                liquidationValue,\n                liquidationAmount\n            );\n\n        if (traderAccount.CASH_BALANCE >= penaltyToLiquidator.add(penaltyToPool)) {\n            traderAccount.CASH_BALANCE = traderAccount.CASH_BALANCE.sub(penaltyToLiquidator).sub(penaltyToPool);\n            liquidatorAccount.CASH_BALANCE = liquidatorAccount.CASH_BALANCE.add(penaltyToLiquidator);\n            poolAccount.CASH_BALANCE = poolAccount.CASH_BALANCE.add(penaltyToPool);\n        } else if (traderAccount.CASH_BALANCE >= penaltyToLiquidator) {\n            poolAccount.CASH_BALANCE = poolAccount.CASH_BALANCE.add(traderAccount.CASH_BALANCE.sub(penaltyToLiquidator));\n            liquidatorAccount.CASH_BALANCE = liquidatorAccount.CASH_BALANCE.add(penaltyToLiquidator);\n            traderAccount.CASH_BALANCE = 0;\n        } else if (traderAccount.CASH_BALANCE >= 0) {\n            liquidatorAccount.CASH_BALANCE = liquidatorAccount.CASH_BALANCE.add(traderAccount.CASH_BALANCE);\n            traderAccount.CASH_BALANCE = 0;\n        } else {\n            // TODO\n        }\n\n        _MARGIN_ACCOUNT_[trader] = traderAccount;\n        _MARGIN_ACCOUNT_[liquidator] = liquidatorAccount;\n        if (poolAccount.CASH_BALANCE == _POOL_MARGIN_ACCOUNT_.CASH_BALANCE) {\n            _POOL_MARGIN_ACCOUNT_ = poolAccount;\n        }\n        \n        emit Liquidate(liquidator, trader, liquidationSide, liquidationValue, liquidationAmount);\n\n    }\n\n\n    function liquidate(\n        address liquidator,\n        address trader\n    ) external {\n        require(!isSafeMaintain(trader), \"SAFE_TO_MAINTAIN\");\n        Types.MarginAccount memory liquidatorAccount = _MARGIN_ACCOUNT_[liquidator];\n        Types.MarginAccount memory traderAccount = _MARGIN_ACCOUNT_[trader];\n        uint256 liquidationValue = PRICING.closePositionValue(traderAccount.SIDE, traderAccount.SIZE);\n        require(isSafeOpen(liquidatorAccount, liquidationValue), \"LIQUIDATOR_NOT_ENOUGH_FUND\");\n        _liquidate(liquidator, trader, liquidationValue, traderAccount.SIZE);\n    }\n\n\n    function _updateCashBalance(\n        Types.MarginAccount memory account,\n        int256 amount\n    ) internal returns (Types.MarginAccount memory) {\n        if (amount == 0) {\n            return account;\n        }\n        account.CASH_BALANCE = account.CASH_BALANCE.add(amount);\n\n        return account;\n    }\n\n\n    /*\n     * @dev margin transfer to pool\n     * @param from trader address\n     * @param amount collateral amount\n     */\n    function _marginTransferToPool(address from, uint256 amount) internal {\n        require(amount > 0, \"MarginTransferToPool_ILLEGAL_AMOUNT\");\n        _MARGIN_ACCOUNT_[from].CASH_BALANCE = _MARGIN_ACCOUNT_[from].CASH_BALANCE.sub(amount.toint256()); // may be negative balance\n        _POOL_MARGIN_ACCOUNT_.CASH_BALANCE = _POOL_MARGIN_ACCOUNT_.CASH_BALANCE.add(amount.toint256());\n    }\n\n    /*\n     * @dev margin transfer from pool\n     * @param from trader address\n     * @param amount collateral amount\n     */\n    function _marginTransferFromPool(address to, uint256 amount) internal {\n        require(amount > 0, \"MarginTransferFromPool_ILLEGAL_AMOUNT\");\n        _POOL_MARGIN_ACCOUNT_.CASH_BALANCE = _POOL_MARGIN_ACCOUNT_.CASH_BALANCE.sub(amount.toint256());\n        _MARGIN_ACCOUNT_[to].CASH_BALANCE = _MARGIN_ACCOUNT_[to].CASH_BALANCE.add(amount.toint256()); // may be negative balance\n    }\n\n    /*\n     * @dev margin transfer from A to B\n     * @param from A\n     * @param to B\n     * @param amount collateral amount\n     */\n    function _marginTransferTo(address from, address to, uint256 amount) internal {\n        require(amount > 0, \"MarginTransferToPool_ILLEGAL_AMOUNT\");\n        _MARGIN_ACCOUNT_[from].CASH_BALANCE = _MARGIN_ACCOUNT_[from].CASH_BALANCE.sub(amount.toint256()); // may be negative balance\n        _MARGIN_ACCOUNT_[to].CASH_BALANCE = _MARGIN_ACCOUNT_[to].CASH_BALANCE.add(amount.toint256());\n    }\n\n}\n",
  "sourcePath": "/Users/daniel/Codes/parapara/para_dapp_v6/contracts/perpetual/Margin.sol",
  "compiler": {
    "name": "solc",
    "version": "0.6.9+commit.3e3065ac.Emscripten.clang"
  },
  "schemaVersion": "3.3.4",
  "updatedAt": "2021-03-25T08:51:25.706Z",
  "devdoc": {
    "author": "Parapara",
    "methods": {},
    "title": "Pricing"
  },
  "userdoc": {
    "methods": {},
    "notice": "Parapara's margin account model"
  }
}