{
  "contractName": "Margin",
  "abi": [
    {
      "anonymous": false,
      "inputs": [
        {
          "indexed": true,
          "internalType": "address",
          "name": "user",
          "type": "address"
        },
        {
          "indexed": false,
          "internalType": "uint256",
          "name": "baseTokenAmount",
          "type": "uint256"
        },
        {
          "indexed": false,
          "internalType": "uint256",
          "name": "quoteTokenAmount",
          "type": "uint256"
        }
      ],
      "name": "ClaimAssets",
      "type": "event"
    },
    {
      "anonymous": false,
      "inputs": [
        {
          "indexed": true,
          "internalType": "address",
          "name": "trader",
          "type": "address"
        },
        {
          "indexed": false,
          "internalType": "uint256",
          "name": "amount",
          "type": "uint256"
        },
        {
          "indexed": false,
          "internalType": "int256",
          "name": "balance",
          "type": "int256"
        }
      ],
      "name": "Deposit",
      "type": "event"
    },
    {
      "anonymous": false,
      "inputs": [
        {
          "indexed": false,
          "internalType": "uint256",
          "name": "amount",
          "type": "uint256"
        }
      ],
      "name": "Donate",
      "type": "event"
    },
    {
      "anonymous": false,
      "inputs": [
        {
          "indexed": true,
          "internalType": "address",
          "name": "trader",
          "type": "address"
        },
        {
          "indexed": false,
          "internalType": "int256",
          "name": "amount",
          "type": "int256"
        },
        {
          "indexed": false,
          "internalType": "int256",
          "name": "balanceAfter",
          "type": "int256"
        }
      ],
      "name": "InternalUpdateBalance",
      "type": "event"
    },
    {
      "anonymous": false,
      "inputs": [
        {
          "indexed": true,
          "internalType": "address",
          "name": "trader",
          "type": "address"
        },
        {
          "indexed": true,
          "internalType": "address",
          "name": "liquidator",
          "type": "address"
        },
        {
          "indexed": false,
          "internalType": "enum Types.Side",
          "name": "liquidationSide",
          "type": "uint8"
        },
        {
          "indexed": false,
          "internalType": "uint256",
          "name": "liquidationValue",
          "type": "uint256"
        },
        {
          "indexed": false,
          "internalType": "uint256",
          "name": "liquidationAmount",
          "type": "uint256"
        }
      ],
      "name": "Liquidate",
      "type": "event"
    },
    {
      "anonymous": false,
      "inputs": [
        {
          "indexed": true,
          "internalType": "address",
          "name": "previousOwner",
          "type": "address"
        },
        {
          "indexed": true,
          "internalType": "address",
          "name": "newOwner",
          "type": "address"
        }
      ],
      "name": "OwnershipTransferPrepared",
      "type": "event"
    },
    {
      "anonymous": false,
      "inputs": [
        {
          "indexed": true,
          "internalType": "address",
          "name": "previousOwner",
          "type": "address"
        },
        {
          "indexed": true,
          "internalType": "address",
          "name": "newOwner",
          "type": "address"
        }
      ],
      "name": "OwnershipTransferred",
      "type": "event"
    },
    {
      "anonymous": false,
      "inputs": [
        {
          "indexed": false,
          "internalType": "enum Types.Side",
          "name": "lossSide",
          "type": "uint8"
        },
        {
          "indexed": false,
          "internalType": "int256",
          "name": "sloss",
          "type": "int256"
        },
        {
          "indexed": false,
          "internalType": "uint256",
          "name": "totalSize",
          "type": "uint256"
        }
      ],
      "name": "SocialLossUpdate",
      "type": "event"
    },
    {
      "anonymous": false,
      "inputs": [
        {
          "indexed": true,
          "internalType": "address",
          "name": "trader",
          "type": "address"
        },
        {
          "indexed": false,
          "internalType": "uint256",
          "name": "amount",
          "type": "uint256"
        },
        {
          "indexed": false,
          "internalType": "int256",
          "name": "balance",
          "type": "int256"
        }
      ],
      "name": "Withdraw",
      "type": "event"
    },
    {
      "inputs": [],
      "name": "ADMIN",
      "outputs": [
        {
          "internalType": "contract Admin",
          "name": "",
          "type": "address"
        }
      ],
      "stateMutability": "view",
      "type": "function"
    },
    {
      "inputs": [],
      "name": "PRICING",
      "outputs": [
        {
          "internalType": "contract Pricing",
          "name": "",
          "type": "address"
        }
      ],
      "stateMutability": "view",
      "type": "function"
    },
    {
      "inputs": [],
      "name": "_BASE_BALANCE_",
      "outputs": [
        {
          "internalType": "uint256",
          "name": "",
          "type": "uint256"
        }
      ],
      "stateMutability": "view",
      "type": "function"
    },
    {
      "inputs": [],
      "name": "_COLLATERAL_POOL_TOKEN_",
      "outputs": [
        {
          "internalType": "address",
          "name": "",
          "type": "address"
        }
      ],
      "stateMutability": "view",
      "type": "function"
    },
    {
      "inputs": [
        {
          "internalType": "address",
          "name": "",
          "type": "address"
        }
      ],
      "name": "_MARGIN_ACCOUNT_",
      "outputs": [
        {
          "internalType": "enum Types.Side",
          "name": "SIDE",
          "type": "uint8"
        },
        {
          "internalType": "uint256",
          "name": "SIZE",
          "type": "uint256"
        },
        {
          "internalType": "uint256",
          "name": "ENTRY_VALUE",
          "type": "uint256"
        },
        {
          "internalType": "int256",
          "name": "CASH_BALANCE",
          "type": "int256"
        },
        {
          "internalType": "uint256",
          "name": "ENTRY_SLOSS",
          "type": "uint256"
        }
      ],
      "stateMutability": "view",
      "type": "function"
    },
    {
      "inputs": [],
      "name": "_NEW_OWNER_",
      "outputs": [
        {
          "internalType": "address",
          "name": "",
          "type": "address"
        }
      ],
      "stateMutability": "view",
      "type": "function"
    },
    {
      "inputs": [],
      "name": "_OWNER_",
      "outputs": [
        {
          "internalType": "address",
          "name": "",
          "type": "address"
        }
      ],
      "stateMutability": "view",
      "type": "function"
    },
    {
      "inputs": [],
      "name": "_POOL_INSURANCE_BALANCE_",
      "outputs": [
        {
          "internalType": "uint256",
          "name": "",
          "type": "uint256"
        }
      ],
      "stateMutability": "view",
      "type": "function"
    },
    {
      "inputs": [],
      "name": "_POOL_MARGIN_ACCOUNT_",
      "outputs": [
        {
          "internalType": "enum Types.Side",
          "name": "SIDE",
          "type": "uint8"
        },
        {
          "internalType": "uint256",
          "name": "SIZE",
          "type": "uint256"
        },
        {
          "internalType": "uint256",
          "name": "ENTRY_VALUE",
          "type": "uint256"
        },
        {
          "internalType": "int256",
          "name": "CASH_BALANCE",
          "type": "int256"
        },
        {
          "internalType": "uint256",
          "name": "ENTRY_SLOSS",
          "type": "uint256"
        }
      ],
      "stateMutability": "view",
      "type": "function"
    },
    {
      "inputs": [],
      "name": "_QUOTE_BALANCE_",
      "outputs": [
        {
          "internalType": "uint256",
          "name": "",
          "type": "uint256"
        }
      ],
      "stateMutability": "view",
      "type": "function"
    },
    {
      "inputs": [],
      "name": "_R_STATUS_",
      "outputs": [
        {
          "internalType": "enum Types.Side",
          "name": "",
          "type": "uint8"
        }
      ],
      "stateMutability": "view",
      "type": "function"
    },
    {
      "inputs": [
        {
          "internalType": "uint256",
          "name": "",
          "type": "uint256"
        }
      ],
      "name": "_SLOSS_PER_CONTRACT_",
      "outputs": [
        {
          "internalType": "uint256",
          "name": "",
          "type": "uint256"
        }
      ],
      "stateMutability": "view",
      "type": "function"
    },
    {
      "inputs": [],
      "name": "_TARGET_BASE_TOKEN_AMOUNT_",
      "outputs": [
        {
          "internalType": "uint256",
          "name": "",
          "type": "uint256"
        }
      ],
      "stateMutability": "view",
      "type": "function"
    },
    {
      "inputs": [],
      "name": "_TARGET_QUOTE_TOKEN_AMOUNT_",
      "outputs": [
        {
          "internalType": "uint256",
          "name": "",
          "type": "uint256"
        }
      ],
      "stateMutability": "view",
      "type": "function"
    },
    {
      "inputs": [],
      "name": "_TOTAL_LONG_SIZE_",
      "outputs": [
        {
          "internalType": "uint256",
          "name": "",
          "type": "uint256"
        }
      ],
      "stateMutability": "view",
      "type": "function"
    },
    {
      "inputs": [],
      "name": "claimOwnership",
      "outputs": [],
      "stateMutability": "nonpayable",
      "type": "function"
    },
    {
      "inputs": [
        {
          "internalType": "address",
          "name": "from",
          "type": "address"
        },
        {
          "internalType": "uint256",
          "name": "amount",
          "type": "uint256"
        }
      ],
      "name": "collateralTraderTransferIn",
      "outputs": [],
      "stateMutability": "nonpayable",
      "type": "function"
    },
    {
      "inputs": [
        {
          "internalType": "address",
          "name": "to",
          "type": "address"
        },
        {
          "internalType": "uint256",
          "name": "amount",
          "type": "uint256"
        }
      ],
      "name": "collateralTraderTransferOut",
      "outputs": [],
      "stateMutability": "nonpayable",
      "type": "function"
    },
    {
      "inputs": [],
      "name": "getPoolMarginCashBalance",
      "outputs": [
        {
          "internalType": "int256",
          "name": "",
          "type": "int256"
        }
      ],
      "stateMutability": "view",
      "type": "function"
    },
    {
      "inputs": [],
      "name": "getPoolMarginEntrySloss",
      "outputs": [
        {
          "internalType": "uint256",
          "name": "",
          "type": "uint256"
        }
      ],
      "stateMutability": "view",
      "type": "function"
    },
    {
      "inputs": [],
      "name": "getPoolMarginEntryValue",
      "outputs": [
        {
          "internalType": "uint256",
          "name": "",
          "type": "uint256"
        }
      ],
      "stateMutability": "view",
      "type": "function"
    },
    {
      "inputs": [],
      "name": "getPoolMarginSide",
      "outputs": [
        {
          "internalType": "enum Types.Side",
          "name": "",
          "type": "uint8"
        }
      ],
      "stateMutability": "view",
      "type": "function"
    },
    {
      "inputs": [],
      "name": "getPoolMarginSize",
      "outputs": [
        {
          "internalType": "uint256",
          "name": "",
          "type": "uint256"
        }
      ],
      "stateMutability": "view",
      "type": "function"
    },
    {
      "inputs": [],
      "name": "getTotalSize",
      "outputs": [
        {
          "internalType": "uint256[3]",
          "name": "",
          "type": "uint256[3]"
        }
      ],
      "stateMutability": "view",
      "type": "function"
    },
    {
      "inputs": [
        {
          "internalType": "address",
          "name": "newOwner",
          "type": "address"
        }
      ],
      "name": "transferOwnership",
      "outputs": [],
      "stateMutability": "nonpayable",
      "type": "function"
    },
    {
      "inputs": [
        {
          "internalType": "uint256",
          "name": "amount",
          "type": "uint256"
        },
        {
          "internalType": "uint256",
          "name": "markPrice",
          "type": "uint256"
        }
      ],
      "name": "initialMargin",
      "outputs": [
        {
          "internalType": "uint256",
          "name": "",
          "type": "uint256"
        }
      ],
      "stateMutability": "view",
      "type": "function"
    },
    {
      "inputs": [
        {
          "internalType": "uint256",
          "name": "amount",
          "type": "uint256"
        },
        {
          "internalType": "uint256",
          "name": "markPrice",
          "type": "uint256"
        }
      ],
      "name": "maintenanceMargin",
      "outputs": [
        {
          "internalType": "uint256",
          "name": "",
          "type": "uint256"
        }
      ],
      "stateMutability": "view",
      "type": "function"
    },
    {
      "inputs": [
        {
          "components": [
            {
              "internalType": "enum Types.Side",
              "name": "SIDE",
              "type": "uint8"
            },
            {
              "internalType": "uint256",
              "name": "SIZE",
              "type": "uint256"
            },
            {
              "internalType": "uint256",
              "name": "ENTRY_VALUE",
              "type": "uint256"
            },
            {
              "internalType": "int256",
              "name": "CASH_BALANCE",
              "type": "int256"
            },
            {
              "internalType": "uint256",
              "name": "ENTRY_SLOSS",
              "type": "uint256"
            }
          ],
          "internalType": "struct Types.MarginAccount",
          "name": "account",
          "type": "tuple"
        }
      ],
      "name": "balanceMargin",
      "outputs": [
        {
          "internalType": "int256",
          "name": "",
          "type": "int256"
        }
      ],
      "stateMutability": "view",
      "type": "function"
    },
    {
      "inputs": [
        {
          "components": [
            {
              "internalType": "enum Types.Side",
              "name": "SIDE",
              "type": "uint8"
            },
            {
              "internalType": "uint256",
              "name": "SIZE",
              "type": "uint256"
            },
            {
              "internalType": "uint256",
              "name": "ENTRY_VALUE",
              "type": "uint256"
            },
            {
              "internalType": "int256",
              "name": "CASH_BALANCE",
              "type": "int256"
            },
            {
              "internalType": "uint256",
              "name": "ENTRY_SLOSS",
              "type": "uint256"
            }
          ],
          "internalType": "struct Types.MarginAccount",
          "name": "account",
          "type": "tuple"
        },
        {
          "internalType": "uint256",
          "name": "markPrice",
          "type": "uint256"
        }
      ],
      "name": "availableMargin",
      "outputs": [
        {
          "internalType": "int256",
          "name": "",
          "type": "int256"
        }
      ],
      "stateMutability": "view",
      "type": "function"
    },
    {
      "inputs": [
        {
          "internalType": "address",
          "name": "trader",
          "type": "address"
        }
      ],
      "name": "isSafeMaintain",
      "outputs": [
        {
          "internalType": "bool",
          "name": "",
          "type": "bool"
        }
      ],
      "stateMutability": "view",
      "type": "function"
    },
    {
      "inputs": [
        {
          "components": [
            {
              "internalType": "enum Types.Side",
              "name": "SIDE",
              "type": "uint8"
            },
            {
              "internalType": "uint256",
              "name": "SIZE",
              "type": "uint256"
            },
            {
              "internalType": "uint256",
              "name": "ENTRY_VALUE",
              "type": "uint256"
            },
            {
              "internalType": "int256",
              "name": "CASH_BALANCE",
              "type": "int256"
            },
            {
              "internalType": "uint256",
              "name": "ENTRY_SLOSS",
              "type": "uint256"
            }
          ],
          "internalType": "struct Types.MarginAccount",
          "name": "account",
          "type": "tuple"
        },
        {
          "internalType": "uint256",
          "name": "openValue",
          "type": "uint256"
        }
      ],
      "name": "isSafeOpen",
      "outputs": [
        {
          "internalType": "bool",
          "name": "",
          "type": "bool"
        }
      ],
      "stateMutability": "view",
      "type": "function"
    },
    {
      "inputs": [
        {
          "internalType": "address",
          "name": "liquidator",
          "type": "address"
        },
        {
          "internalType": "address",
          "name": "trader",
          "type": "address"
        }
      ],
      "name": "liquidate",
      "outputs": [],
      "stateMutability": "nonpayable",
      "type": "function"
    }
  ],
  "bytecode": "0x6080604052600f805460ff1916905534801561001a57600080fd5b5061227e8061002a6000396000f3fe608060405234801561001057600080fd5b50600436106101f05760003560e01c80638bc60bff1161010f578063b4cab955116100a2578063eab5d20e11610071578063eab5d20e146103a0578063f2fde38b146103a8578063f9f8eda8146103bb578063fa6a5eae146103c3576101f0565b8063b4cab9551461036a578063d38b520914610372578063d6b4129814610385578063da3a4c311461038d576101f0565b8063b192a3eb116100de578063b192a3eb14610334578063b1e073661461033c578063b2094fd31461034f578063b35b08e914610357576101f0565b80638bc60bff146103035780639103b8b71461031c578063a163805c14610324578063a8b13ddf1461032c576101f0565b80632efc6ee71161018757806372decd7a1161015657806372decd7a146102d85780637c9b8e89146102e05780638456db15146102e857806386b9d81f146102f0576101f0565b80632efc6ee71461029557806338873925146102aa5780634a2473c3146102bd5780634e71e0c8146102d0576101f0565b806322d779cc116101c357806322d779cc14610268578063245c96851461027d5780632a0acc6a146102855780632b32812a1461028d576101f0565b80630be4cea9146101f557806313ddd8fb1461021e57806316048bc41461023e57806317be952e14610253575b600080fd5b610208610203366004611d0b565b6103d6565b6040516102159190611efe565b60405180910390f35b61023161022c366004611c1d565b61040f565b6040516102159190611e29565b61024661052b565b6040516102159190611da7565b61025b61053a565b6040516102159190611e34565b61027b610276366004611c8d565b610543565b005b610208610551565b610246610557565b610208610566565b61029d61056c565b6040516102159190611df8565b6102086102b8366004611d4d565b6105e0565b6102086102cb366004611cf0565b61067a565b61027b61071e565b6102086107b5565b6102086107bb565b6102466107c1565b61027b6102fe366004611c55565b6107d0565b61030b6109be565b604051610215959493929190611ea6565b6102086109d6565b6102466109dc565b6102086109eb565b6102466109f1565b61030b61034a366004611c1d565b610a00565b610208610a33565b610208610365366004611d4d565b610a39565b610208610a96565b610208610380366004611d35565b610a9c565b61025b610ab0565b61023161039b366004611d0b565b610ab9565b610208610ba2565b61027b6103b6366004611c1d565b610ba8565b610208610c53565b61027b6103d1366004611c8d565b610c59565b60006104066103f16103ec8560200151856105e0565b610c63565b6103fa8561067a565b9063ffffffff610c9016565b90505b92915050565b6000610419611b57565b6001600160a01b0383166000908152600a602052604090819020815160a081019092528054829060ff16600281111561044e57fe5b600281111561045957fe5b815260200160018201548152602001600282015481526020016003820154815260200160048201548152505090506105186103ec8260200151600360009054906101000a90046001600160a01b03166001600160a01b031663ee27c6896040518163ffffffff1660e01b815260040160206040518083038186803b1580156104e057600080fd5b505afa1580156104f4573d6000803e3d6000fd5b505050506040513d601f19601f820116820180604052508101906103659190611cd8565b6105218261067a565b139150505b919050565b6000546001600160a01b031681565b600f5460ff1681565b61054d8282610cd6565b5050565b600c5481565b6002546001600160a01b031681565b60065490565b610574611b87565b6000600260055460ff16600281111561058957fe5b146105a8576006546010546105a39163ffffffff610dd016565b6105bd565b6006546010546105bd9163ffffffff610df816565b604080516060810182526000815260208101929092526010549082015291505090565b60006104066105ef8385610e1d565b600260009054906101000a90046001600160a01b03166001600160a01b03166398a0a53d6040518163ffffffff1660e01b815260040160206040518083038186803b15801561063d57600080fd5b505afa158015610651573d6000803e3d6000fd5b505050506040513d601f19601f820116820180604052508101906106759190611cd8565b610e1d565b60035481516020830151604080850151905163a3ffd1cb60e01b8152600094610409946001600160a01b039091169363a3ffd1cb936106bd938290600401611ed4565b60206040518083038186803b1580156106d557600080fd5b505afa1580156106e9573d6000803e3d6000fd5b505050506040513d601f19601f8201168201806040525081019061070d9190611cd8565b60608401519063ffffffff610e4716565b6001546001600160a01b031633146107515760405162461bcd60e51b815260040161074890611f07565b60405180910390fd5b600154600080546040516001600160a01b0393841693909116917f8be0079c531659141344cd1fd0a4f28419497f9722a3daafe3b4186f6b6457e091a360018054600080546001600160a01b03199081166001600160a01b03841617909155169055565b60085490565b600e5481565b6001546001600160a01b031681565b6107d98161040f565b156107f65760405162461bcd60e51b8152600401610748906120cd565b6107fe611b57565b6001600160a01b0383166000908152600a602052604090819020815160a081019092528054829060ff16600281111561083357fe5b600281111561083e57fe5b81526020016001820154815260200160028201548152602001600382015481526020016004820154815250509050610874611b57565b6001600160a01b0383166000908152600a602052604090819020815160a081019092528054829060ff1660028111156108a957fe5b60028111156108b457fe5b815260200160018201548152602001600282015481526020016003820154815260200160048201548152505090506000600360009054906101000a90046001600160a01b03166001600160a01b0316634b0301a5836000015184602001516040518363ffffffff1660e01b815260040161092f929190611e6a565b60206040518083038186803b15801561094757600080fd5b505afa15801561095b573d6000803e3d6000fd5b505050506040513d601f19601f8201168201806040525081019061097f9190611cd8565b905061098b8382610ab9565b6109a75760405162461bcd60e51b815260040161074890611fd2565b6109b78585838560200151610e8d565b5050505050565b60055460065460075460085460095460ff9094169385565b60095490565b6003546001600160a01b031681565b60105481565b6004546001600160a01b031681565b600a602052600090815260409020805460018201546002830154600384015460049094015460ff90931693919290919085565b600b5481565b6000610406610a488385610e1d565b600260009054906101000a90046001600160a01b03166001600160a01b031663fe73ee736040518163ffffffff1660e01b815260040160206040518083038186803b15801561063d57600080fd5b60075490565b60118160038110610aa957fe5b0154905081565b60055460ff1690565b6000610b106103ec83600260009054906101000a90046001600160a01b03166001600160a01b03166398a0a53d6040518163ffffffff1660e01b815260040160206040518083038186803b15801561063d57600080fd5b610b9a84600360009054906101000a90046001600160a01b03166001600160a01b031663ee27c6896040518163ffffffff1660e01b815260040160206040518083038186803b158015610b6257600080fd5b505afa158015610b76573d6000803e3d6000fd5b505050506040513d601f19601f820116820180604052508101906102039190611cd8565b139392505050565b600d5481565b6000546001600160a01b03163314610bd25760405162461bcd60e51b8152600401610748906120aa565b6001600160a01b038116610bf85760405162461bcd60e51b815260040161074890612083565b600080546040516001600160a01b03808516939216917fdcf55418cee3220104fef63f979ff3c4097ad240c0c43dcb33ce837748983e6291a3600180546001600160a01b0319166001600160a01b0392909216919091179055565b60145481565b61054d8282611545565b60006001600160ff1b03821115610c8c5760405162461bcd60e51b8152600401610748906121a8565b5090565b6000818303818312801590610ca55750838113155b80610cba5750600083128015610cba57508381135b6104065760405162461bcd60e51b81526004016107489061211a565b610d79823083600260009054906101000a90046001600160a01b03166001600160a01b031663cb102dd26040518163ffffffff1660e01b815260040160206040518083038186803b158015610d2a57600080fd5b505afa158015610d3e573d6000803e3d6000fd5b505050506040513d601f19601f82011682018060405250810190610d629190611c39565b6001600160a01b031692919063ffffffff61162816565b610dad610d8582610c63565b6001600160a01b0384166000908152600a60205260409020600301549063ffffffff610e4716565b6001600160a01b039092166000908152600a602052604090206003019190915550565b600082821115610df25760405162461bcd60e51b815260040161074890612031565b50900390565b6000828201838110156104065760405162461bcd60e51b8152600401610748906120f7565b6000670de0b6b3a7640000610e38848463ffffffff61168616565b81610e3f57fe5b049392505050565b6000828201818312801590610e5c5750838112155b80610e715750600083128015610e7157508381125b6104065760405162461bcd60e51b815260040161074890611f5c565b610e95611b57565b6001600160a01b0385166000908152600a602052604090819020815160a081019092528054829060ff166002811115610eca57fe5b6002811115610ed557fe5b81526020016001820154815260200160028201548152602001600382015481526020016004820154815250509050610f0b611b57565b6001600160a01b0385166000908152600a602052604090819020815160a081019092528054829060ff166002811115610f4057fe5b6002811115610f4b57fe5b81526020016001820154815260200160028201548152602001600382015481526020016004820154815250509050610f81611b57565b6040805160a0810190915260058054829060ff166002811115610fa057fe5b6002811115610fab57fe5b815260018201546020820152600282015460408201526003820154606082015260049091015460809091015282519091506000610fe7826116c0565b9050600061107d6103ec600260009054906101000a90046001600160a01b03166001600160a01b031663f5cdd2026040518163ffffffff1660e01b815260040160206040518083038186803b15801561103f57600080fd5b505afa158015611053573d6000803e3d6000fd5b505050506040513d601f19601f820116820180604052508101906110779190611cd8565b8a610e1d565b905060006111136103ec600260009054906101000a90046001600160a01b03166001600160a01b03166311187e366040518163ffffffff1660e01b815260040160206040518083038186803b1580156110d557600080fd5b505afa1580156110e9573d6000803e3d6000fd5b505050506040513d601f19601f8201168201806040525081019061110d9190611cd8565b8b610e1d565b905061112986611122866116c0565b8b8b6116fa565b955061113787858b8b6116fa565b9650611149828263ffffffff610e4716565b8660600151126111b05761116e816103fa848960600151610c9090919063ffffffff16565b60608088019190915287015161118a908363ffffffff610e4716565b6060808901919091528501516111a6908263ffffffff610e4716565b60608601526113b1565b818660600151126112155760608701516111d0908363ffffffff610e4716565b606080890191909152860151611201906111f0908463ffffffff610c9016565b60608701519063ffffffff610e4716565b6060808701919091526000908701526113b1565b81611235611224601454610c63565b60608901519063ffffffff610e4716565b1261129c57606087015161124f908363ffffffff610e4716565b60608089019190915286015160009061126f90849063ffffffff610c9016565b905061128c61127d826117c5565b6014549063ffffffff610dd016565b60145550600060608701526113b1565b60608701516112b1908363ffffffff610e4716565b87606001818152505060006112eb6112de6112cd601454610c63565b60608a01519063ffffffff610e4716565b849063ffffffff610c9016565b6000601481905560608901529050611301611b87565b61130961056c565b9050611338611317836117c5565b8287600281111561132457fe5b6003811061132e57fe5b60200201516117e7565b601186600281111561134657fe5b6003811061135057fe5b01805490910190557fe7c36d6fb87e3948a53ae9860b822817eeadf4473006f88cecd0180fcaae75ed85838382600281111561138857fe5b6003811061139257fe5b60200201516040516113a693929190611e49565b60405180910390a150505b6001600160a01b038a166000908152600a602052604090208651815488929190829060ff191660018360028111156113e557fe5b02179055506020820151816001015560408201518160020155606082015181600301556080820151816004015590505086600a60008d6001600160a01b03166001600160a01b0316815260200190815260200160002060008201518160000160006101000a81548160ff0219169083600281111561145f57fe5b0217905550602082015160018201556040820151600282015560608083015160038301556080909201516004909101556008549086015114156114e957845160058054879290829060ff191660018360028111156114b957fe5b02179055506020820151600182015560408201516002820155606082015160038201556080909101516004909101555b896001600160a01b03168b6001600160a01b03167f54f9b006b19a44694e56b0d6a57f34c420bf88da7373f9d0f3380e5f4b70951e868c8c60405161153093929190611e86565b60405180910390a35050505050505050505050565b61157961155182610c63565b6001600160a01b0384166000908152600a60205260409020600301549063ffffffff610c9016565b6001600160a01b038084166000908152600a602090815260409182902060030193909355600254815163658816e960e11b8152915161054d948794879493169263cb102dd29260048083019392829003018186803b1580156115da57600080fd5b505afa1580156115ee573d6000803e3d6000fd5b505050506040513d601f19601f820116820180604052508101906116129190611c39565b6001600160a01b0316919063ffffffff61181116565b611680846323b872dd60e01b85858560405160240161164993929190611dbb565b60408051601f198184030181529190526020810180516001600160e01b03166001600160e01b031990931692909217909152611835565b50505050565b60008261169557506000610409565b828202828482816116a257fe5b04146104065760405162461bcd60e51b8152600401610748906121f8565b600060028260028111156116d057fe5b14156116de57506001610526565b60018260028111156116ec57fe5b1415610c8c57506002610526565b611702611b57565b6020850151600090839015801590611731575085600281111561172157fe5b8751600281111561172e57fe5b14155b1561179657866020015184116117575761174c8785876118ec565b965060009050611796565b611769856106758960200151876117e7565b915061177a878860200151846118ec565b9650611793876020015185610dd090919063ffffffff16565b90505b80156117ba576117b78787836117b2898763ffffffff610dd016565b611a4a565b96505b509495945050505050565b600080821215610c8c5760405162461bcd60e51b8152600401610748906121d2565b60006104068261180585670de0b6b3a764000063ffffffff61168616565b9063ffffffff611ad616565b6118308363a9059cbb60e01b8484604051602401611649929190611ddf565b505050565b60006060836001600160a01b0316836040516118519190611d6e565b6000604051808303816000865af19150503d806000811461188e576040519150601f19603f3d011682016040523d82523d6000602084013e611893565b606091505b5091509150816118b55760405162461bcd60e51b815260040161074890611f9d565b80511561168057808060200190518101906118d09190611cb8565b6116805760405162461bcd60e51b81526004016107489061215e565b6118f4611b57565b600083116119145760405162461bcd60e51b815260040161074890612054565b6000846020015184141561192d57506040840151611946565b6119438560400151610675868860200151611b03565b90505b6003548551604051632d50ce1d60e21b81526000926001600160a01b03169163b54338749161197c919086908990600401611e86565b60206040518083038186803b15801561199457600080fd5b505afa1580156119a8573d6000803e3d6000fd5b505050506040513d601f19601f820116820180604052508101906119cc9190611cd8565b60608701519091506119e4908263ffffffff610e4716565b606087015260408601516020870151611a16919061067590611a0c908963ffffffff610dd016565b8960200151611b03565b60408701526020860151611a30908663ffffffff610dd016565b60208701819052611a4057600086525b5093949350505050565b611a52611b57565b60008311611a725760405162461bcd60e51b815260040161074890611f2e565b6020850151611a995784846002811115611a8857fe5b90816002811115611a9557fe5b9052505b6020850151611aae908463ffffffff610df816565b60208601526040850151611ac8908363ffffffff610df816565b604086015250929392505050565b600080611ae38484611b2d565b905082810284038015611afb57506001019050610409565b509050610409565b600061040682611b2185670de0b6b3a764000063ffffffff61168616565b9063ffffffff611b2d16565b6000808211611b4e5760405162461bcd60e51b815260040161074890612009565b818381610e3f57fe5b6040805160a081019091528060008152602001600081526020016000815260200160008152602001600081525090565b60405180606001604052806003906020820280368337509192915050565b600060a08284031215611bb6578081fd5b60405160a0810181811067ffffffffffffffff82111715611bd5578283fd5b604052905080823560038110611bea57600080fd5b80825250602083013560208201526040830135604082015260608301356060820152608083013560808201525092915050565b600060208284031215611c2e578081fd5b813561040681612233565b600060208284031215611c4a578081fd5b815161040681612233565b60008060408385031215611c67578081fd5b8235611c7281612233565b91506020830135611c8281612233565b809150509250929050565b60008060408385031215611c9f578182fd5b8235611caa81612233565b946020939093013593505050565b600060208284031215611cc9578081fd5b81518015158114610406578182fd5b600060208284031215611ce9578081fd5b5051919050565b600060a08284031215611d01578081fd5b6104068383611ba5565b60008060c08385031215611d1d578182fd5b611d278484611ba5565b9460a0939093013593505050565b600060208284031215611d46578081fd5b5035919050565b60008060408385031215611d5f578182fd5b50508035926020909101359150565b60008251815b81811015611d8e5760208186018101518583015201611d74565b81811115611d9c5782828501525b509190910192915050565b6001600160a01b0391909116815260200190565b6001600160a01b039384168152919092166020820152604081019190915260600190565b6001600160a01b03929092168252602082015260400190565b60608101818360005b6003811015611e20578151835260209283019290910190600101611e01565b50505092915050565b901515815260200190565b60208101611e418361221b565b825292915050565b60608101611e5685612226565b938152602081019290925260409091015290565b60408101611e778461221b565b82528260208301529392505050565b60608101611e938561221b565b8252602082019390935260400152919050565b60a08101611eb387612226565b95815260208101949094526040840192909252606083015260809091015290565b60808101611ee18661221b565b825284602083015283604083015282606083015295945050505050565b90815260200190565b6020808252600d908201526c494e56414c49445f434c41494d60981b604082015260600190565b6020808252601490820152731bdc195b8e881a5b9d985b1a5908185b5bdd5b9d60621b604082015260600190565b60208082526021908201527f5369676e6564536166654d6174683a206164646974696f6e206f766572666c6f6040820152607760f81b606082015260800190565b6020808252818101527f5361666545524332303a206c6f772d6c6576656c2063616c6c206661696c6564604082015260600190565b6020808252601a908201527f4c495155494441544f525f4e4f545f454e4f5547485f46554e44000000000000604082015260600190565b6020808252600e908201526d2224ab24a224a723afa2a92927a960911b604082015260600190565b60208082526009908201526829aaa12fa2a92927a960b91b604082015260600190565b60208082526015908201527418db1bdcd94e881a5b9d985b1a5908185b5bdd5b9d605a1b604082015260600190565b6020808252600d908201526c24a72b20a624a22fa7aba722a960991b604082015260600190565b6020808252600990820152682727aa2fa7aba722a960b91b604082015260600190565b60208082526010908201526f29a0a322afaa27afa6a0a4a72a20a4a760811b604082015260600190565b60208082526009908201526820a2222fa2a92927a960b91b604082015260600190565b60208082526024908201527f5369676e6564536166654d6174683a207375627472616374696f6e206f766572604082015263666c6f7760e01b606082015260800190565b6020808252602a908201527f5361666545524332303a204552433230206f7065726174696f6e20646964206e6040820152691bdd081cdd58d8d9595960b21b606082015260800190565b60208082526010908201526f75696e74323536206f766572666c6f7760801b604082015260600190565b6020808252600c908201526b696e74206f766572666c6f7760a01b604082015260600190565b60208082526009908201526826aaa62fa2a92927a960b91b604082015260600190565b806003811061052657fe5b6003811061223057fe5b50565b6001600160a01b038116811461223057600080fdfea264697066735822122071e32658b06dc612831e5f0ab85bc51c8b3f7cd933b1e1907ae08b99bbfbbbdc64736f6c63430006090033",
  "immutableReferences": {},
  "source": "/*\n\n    Copyright 2020 DODO ZOO.\n    SPDX-License-Identifier: Apache-2.0\n\n*/\n\npragma solidity 0.6.9;\npragma experimental ABIEncoderV2;\n\nimport {SafeMath} from \"../lib/SafeMath.sol\";\nimport {SignedSafeMath} from \"../lib/SignedSafeMath.sol\";\nimport {DecimalMath} from \"../lib/DecimalMath.sol\";\nimport {Types} from \"../lib/Types.sol\";\nimport {Settlement} from \"./Settlement.sol\";\nimport {IAdmin} from \"../interface/IAdmin.sol\";\n\n\n/**\n * @title Pricing\n * @author Parapara\n *\n * @notice Parapara's margin account model\n */\ncontract Margin is Settlement {\n    using SafeMath for uint256;\n    using SignedSafeMath for int256;\n\n    // ============ Events ============\n\n    event Deposit(address indexed trader, uint256 amount, int256 balance);\n\n    event Withdraw(address indexed trader, uint256 amount, int256 balance);\n    \n    event Liquidate(address indexed trader, address indexed liquidator, Types.Side liquidationSide, uint256 liquidationValue, uint256 liquidationAmount);\n\n    event SocialLossUpdate(Types.Side lossSide, int256 sloss, uint256 totalSize);\n\n    event InternalUpdateBalance(\n        address indexed trader,\n        int256 amount,\n        int256 balanceAfter\n    );\n\n    // ============ Query Functions ============\n    // \n    function initialMargin(\n        uint256 amount,\n        uint256 markPrice\n    ) public view returns (uint256) {\n        return DecimalMath.mul(DecimalMath.mul(markPrice, amount), ADMIN._INITIAL_MARGIN_RATE_());\n    }\n    // \n    function maintenanceMargin(\n        uint256 amount,\n        uint256 markPrice\n    ) public view returns (uint256) {\n        return DecimalMath.mul(DecimalMath.mul(markPrice, amount), ADMIN._MAINTENANCE_MARGIN_RATE_());\n    }\n\n\n    // PNL\n    // \n    // CASH_BALANCE + UNREALIZED_PNL\n    function balanceMargin(Types.MarginAccount memory account)\n        public view returns (int256) {\n        return account.CASH_BALANCE.add(PRICING.queryPNL(account.SIDE, account.SIZE, account.ENTRY_VALUE, account.SIZE));\n    }\n\n    // \n    function availableMargin(\n        Types.MarginAccount memory account,\n        uint256 markPrice\n    ) public view returns (int256) {\n        return balanceMargin(account).sub(initialMargin(account.SIZE, markPrice).toint256());\n    }\n\n    // \n    function isSafeMaintain(\n        address trader\n    ) public view returns (bool) {\n        Types.MarginAccount memory account = _MARGIN_ACCOUNT_[trader];\n        return balanceMargin(account) > maintenanceMargin(account.SIZE, PRICING.getMidPrice()).toint256(); // mark price\n    }\n\n\n    // >\n    function isSafeOpen(\n        Types.MarginAccount memory account,\n        uint256 openValue\n    ) public view returns (bool) {\n        return availableMargin(account, PRICING.getMidPrice()) > DecimalMath.mul(openValue, ADMIN._INITIAL_MARGIN_RATE_()).toint256();\n    }\n\n    // ============ Margin Account Ops ============\n    function _open(\n        Types.MarginAccount memory account,\n        Types.Side side,\n        uint256 amount,\n        uint256 entryValue\n    ) internal returns (Types.MarginAccount memory) {\n        require(amount > 0, \"open: invalid amount\");\n//        require(checkTradeEligibility(account, entryValue), \"open: INSUFFICIENT FUNDS\");\n        if (account.SIZE == 0) {\n            account.SIDE = side;\n        }\n        account.SIZE = account.SIZE.add(amount);\n        account.ENTRY_VALUE = account.ENTRY_VALUE.add(entryValue);\n\n        return account;\n    }\n\n\n    function _close(\n        Types.MarginAccount memory account,\n        uint256 amount,\n        uint256 closeValue\n    ) internal returns (Types.MarginAccount memory) {\n        require(amount > 0, \"close: invalid amount\");\n\n        uint256 entryValue;\n        if (amount == account.SIZE) {\n            entryValue = account.ENTRY_VALUE;\n        } else {\n            entryValue =\n                DecimalMath.mul(account.ENTRY_VALUE, DecimalMath.divFloor(amount, account.SIZE));\n        }\n        int256 realizedPNL = PRICING.queryPNLwiValue(account.SIDE, entryValue, closeValue);\n        account.CASH_BALANCE = account.CASH_BALANCE.add(realizedPNL);\n        account.ENTRY_VALUE = DecimalMath.mul(account.ENTRY_VALUE, DecimalMath.divFloor(account.SIZE.sub(amount), account.SIZE));\n        account.SIZE = account.SIZE.sub(amount);\n        if (account.SIZE == 0) {\n            account.SIDE = Types.Side.FLAT;\n        }\n\n        return account;\n    }\n\n     /**\n     * @dev open long/short position for a trader\n     * @param account trader account\n     * @param side Long/Short\n     * @param amount the amount of position\n     */\n    function trade(\n        Types.MarginAccount memory account,\n        Types.Side side,\n        uint256 value,\n        uint256 amount\n    ) internal returns (Types.MarginAccount memory) {\n        uint256 closeValue;\n        uint256 openAmount = amount;\n        if (account.SIZE > 0 && account.SIDE != side) {\n            if (amount <= account.SIZE) {\n                account = _close(account, amount, value);\n                openAmount = 0;\n            }\n            else {\n                closeValue = DecimalMath.mul(value, DecimalMath.divCeil(account.SIZE, amount));\n                account = _close(account, account.SIZE, closeValue);\n                openAmount = amount.sub(account.SIZE);\n            }\n        }\n        if (openAmount > 0) {\n           account = _open(account, side, openAmount, value.sub(closeValue));\n        }\n        return account;\n    }\n\n\n\n    /**\n     * @dev liquidate trader's position from a liquidator\n     * @param liquidator the liquidator\n     * @param trader the trader to be liquidated\n    */\n    function _liquidate(\n        address liquidator,\n        address trader,\n        uint256 liquidationValue,\n        uint256 liquidationAmount\n    ) internal {\n        // liquidiated trader\n        Types.MarginAccount memory liquidatorAccount = _MARGIN_ACCOUNT_[liquidator];\n        Types.MarginAccount memory traderAccount = _MARGIN_ACCOUNT_[trader];\n        Types.MarginAccount memory poolAccount = _POOL_MARGIN_ACCOUNT_;\n        Types.Side liquidationSide = traderAccount.SIDE;\n        Types.Side opSide = Types.oppositeSide(liquidationSide);\n        int256 penaltyToLiquidator = DecimalMath.mul(ADMIN._LIQUIDATION_PENALTY_RATE_(), liquidationValue).toint256();\n        int256 penaltyToPool = DecimalMath.mul(ADMIN._LIQUIDATION_PENALTY_POOL_RATE_(), liquidationValue).toint256();\n\n        // position: trader => liquidator\n        traderAccount = trade(\n            traderAccount,\n            Types.oppositeSide(liquidationSide),\n            liquidationValue,\n            liquidationAmount\n        );\n\n        liquidatorAccount = trade(\n                liquidatorAccount,\n                liquidationSide,\n                liquidationValue,\n                liquidationAmount\n            );\n\n        if (traderAccount.CASH_BALANCE >= penaltyToLiquidator.add(penaltyToPool)) {\n            // 1) cash > penaltyToPool + penaltyToLiquidator\n            traderAccount.CASH_BALANCE = traderAccount.CASH_BALANCE.sub(penaltyToLiquidator).sub(penaltyToPool);\n            liquidatorAccount.CASH_BALANCE = liquidatorAccount.CASH_BALANCE.add(penaltyToLiquidator);\n            poolAccount.CASH_BALANCE = poolAccount.CASH_BALANCE.add(penaltyToPool);\n        } else if (traderAccount.CASH_BALANCE >= penaltyToLiquidator) {\n            // 2) penaltyToPool + penaltyToLiquidator> cash >penaltyToLiquidator\n            liquidatorAccount.CASH_BALANCE = liquidatorAccount.CASH_BALANCE.add(penaltyToLiquidator);\n            poolAccount.CASH_BALANCE = poolAccount.CASH_BALANCE.add(traderAccount.CASH_BALANCE.sub(penaltyToLiquidator));\n            traderAccount.CASH_BALANCE = 0;\n        } else if (traderAccount.CASH_BALANCE.add(_POOL_INSURANCE_BALANCE_.toint256()) >= penaltyToLiquidator) {\n            // 3 cash + pool_insurance > penaltyToLiquidator\n            liquidatorAccount.CASH_BALANCE = liquidatorAccount.CASH_BALANCE.add(penaltyToLiquidator);\n            int256 delta = penaltyToLiquidator.sub(traderAccount.CASH_BALANCE);\n            _POOL_INSURANCE_BALANCE_ = _POOL_INSURANCE_BALANCE_.sub(delta.touint256());\n            traderAccount.CASH_BALANCE = 0;\n        } else {\n            // 4) cash + pool_insurance < penaltyToLiquidator\n            liquidatorAccount.CASH_BALANCE = liquidatorAccount.CASH_BALANCE.add(penaltyToLiquidator);\n            int256 sloss = penaltyToLiquidator.sub(traderAccount.CASH_BALANCE.add(_POOL_INSURANCE_BALANCE_.toint256()));\n            _POOL_INSURANCE_BALANCE_ = 0;\n            traderAccount.CASH_BALANCE = 0;\n            uint256[3] memory totalSize = getTotalSize();\n            _SLOSS_PER_CONTRACT_[uint256(opSide)] += DecimalMath.divCeil(\n                sloss.touint256(),\n                totalSize[uint256(opSide)]\n            );\n            emit SocialLossUpdate(opSide, sloss, totalSize[uint256(opSide)]);\n        }\n\n        _MARGIN_ACCOUNT_[trader] = traderAccount;\n        _MARGIN_ACCOUNT_[liquidator] = liquidatorAccount;\n        if (poolAccount.CASH_BALANCE == _POOL_MARGIN_ACCOUNT_.CASH_BALANCE) {\n            _POOL_MARGIN_ACCOUNT_ = poolAccount;\n        }\n        \n        emit Liquidate(liquidator, trader, liquidationSide, liquidationValue, liquidationAmount);\n    }\n\n\n    function liquidate(\n        address liquidator,\n        address trader\n    ) external {\n        require(!isSafeMaintain(trader), \"SAFE_TO_MAINTAIN\");\n        Types.MarginAccount memory liquidatorAccount = _MARGIN_ACCOUNT_[liquidator];\n        Types.MarginAccount memory traderAccount = _MARGIN_ACCOUNT_[trader];\n        uint256 liquidationValue = PRICING.closePositionValue(traderAccount.SIDE, traderAccount.SIZE);\n        require(isSafeOpen(liquidatorAccount, liquidationValue), \"LIQUIDATOR_NOT_ENOUGH_FUND\");\n        _liquidate(liquidator, trader, liquidationValue, traderAccount.SIZE);\n    }\n\n\n    function _updateCashBalance(\n        Types.MarginAccount memory account,\n        int256 amount\n    ) internal returns (Types.MarginAccount memory) {\n        if (amount == 0) {\n            return account;\n        }\n        account.CASH_BALANCE = account.CASH_BALANCE.add(amount);\n\n        return account;\n    }\n\n\n    /*\n     * @dev margin transfer to pool\n     * @param from trader address\n     * @param amount collateral amount\n     */\n    function _marginTransferToPool(address from, uint256 amount) internal {\n        require(amount > 0, \"MarginTransferToPool_ILLEGAL_AMOUNT\");\n        _MARGIN_ACCOUNT_[from].CASH_BALANCE = _MARGIN_ACCOUNT_[from].CASH_BALANCE.sub(amount.toint256()); // may be negative balance\n        _POOL_MARGIN_ACCOUNT_.CASH_BALANCE = _POOL_MARGIN_ACCOUNT_.CASH_BALANCE.add(amount.toint256());\n    }\n\n    /*\n     * @dev margin transfer from pool\n     * @param from trader address\n     * @param amount collateral amount\n     */\n    function _marginTransferFromPool(address to, uint256 amount) internal {\n        require(amount > 0, \"MarginTransferFromPool_ILLEGAL_AMOUNT\");\n        _POOL_MARGIN_ACCOUNT_.CASH_BALANCE = _POOL_MARGIN_ACCOUNT_.CASH_BALANCE.sub(amount.toint256());\n        _MARGIN_ACCOUNT_[to].CASH_BALANCE = _MARGIN_ACCOUNT_[to].CASH_BALANCE.add(amount.toint256()); // may be negative balance\n    }\n\n    /*\n     * @dev margin transfer from A to B\n     * @param from A\n     * @param to B\n     * @param amount collateral amount\n     */\n    function _marginTransferTo(address from, address to, uint256 amount) internal {\n        require(amount > 0, \"MarginTransferToPool_ILLEGAL_AMOUNT\");\n        _MARGIN_ACCOUNT_[from].CASH_BALANCE = _MARGIN_ACCOUNT_[from].CASH_BALANCE.sub(amount.toint256()); // may be negative balance\n        _MARGIN_ACCOUNT_[to].CASH_BALANCE = _MARGIN_ACCOUNT_[to].CASH_BALANCE.add(amount.toint256());\n    }\n\n}\n",
  "sourcePath": "/Users/daniel/Codes/parapara/para_dapp_v6/contracts/perpetual/Margin.sol",
  "compiler": {
    "name": "solc",
    "version": "0.6.9+commit.3e3065ac.Emscripten.clang"
  },
  "schemaVersion": "3.3.4",
  "updatedAt": "2021-03-26T06:46:20.165Z",
  "devdoc": {
    "author": "Parapara",
    "methods": {},
    "title": "Pricing"
  },
  "userdoc": {
    "methods": {},
    "notice": "Parapara's margin account model"
  }
}