{
  "contractName": "Margin",
  "abi": [
    {
      "anonymous": false,
      "inputs": [
        {
          "indexed": true,
          "internalType": "address",
          "name": "user",
          "type": "address"
        },
        {
          "indexed": false,
          "internalType": "uint256",
          "name": "baseTokenAmount",
          "type": "uint256"
        },
        {
          "indexed": false,
          "internalType": "uint256",
          "name": "quoteTokenAmount",
          "type": "uint256"
        }
      ],
      "name": "ClaimAssets",
      "type": "event"
    },
    {
      "anonymous": false,
      "inputs": [
        {
          "indexed": true,
          "internalType": "address",
          "name": "trader",
          "type": "address"
        },
        {
          "indexed": false,
          "internalType": "uint256",
          "name": "amount",
          "type": "uint256"
        },
        {
          "indexed": false,
          "internalType": "int256",
          "name": "balance",
          "type": "int256"
        }
      ],
      "name": "Deposit",
      "type": "event"
    },
    {
      "anonymous": false,
      "inputs": [
        {
          "indexed": false,
          "internalType": "uint256",
          "name": "amount",
          "type": "uint256"
        }
      ],
      "name": "Donate",
      "type": "event"
    },
    {
      "anonymous": false,
      "inputs": [
        {
          "indexed": true,
          "internalType": "address",
          "name": "trader",
          "type": "address"
        },
        {
          "indexed": false,
          "internalType": "int256",
          "name": "amount",
          "type": "int256"
        },
        {
          "indexed": false,
          "internalType": "int256",
          "name": "balanceAfter",
          "type": "int256"
        }
      ],
      "name": "InternalUpdateBalance",
      "type": "event"
    },
    {
      "anonymous": false,
      "inputs": [
        {
          "indexed": true,
          "internalType": "address",
          "name": "trader",
          "type": "address"
        },
        {
          "indexed": true,
          "internalType": "address",
          "name": "liquidator",
          "type": "address"
        },
        {
          "indexed": false,
          "internalType": "enum Types.Side",
          "name": "liquidationSide",
          "type": "uint8"
        },
        {
          "indexed": false,
          "internalType": "uint256",
          "name": "liquidationValue",
          "type": "uint256"
        },
        {
          "indexed": false,
          "internalType": "uint256",
          "name": "liquidationAmount",
          "type": "uint256"
        }
      ],
      "name": "Liquidate",
      "type": "event"
    },
    {
      "anonymous": false,
      "inputs": [
        {
          "indexed": true,
          "internalType": "address",
          "name": "previousOwner",
          "type": "address"
        },
        {
          "indexed": true,
          "internalType": "address",
          "name": "newOwner",
          "type": "address"
        }
      ],
      "name": "OwnershipTransferPrepared",
      "type": "event"
    },
    {
      "anonymous": false,
      "inputs": [
        {
          "indexed": true,
          "internalType": "address",
          "name": "previousOwner",
          "type": "address"
        },
        {
          "indexed": true,
          "internalType": "address",
          "name": "newOwner",
          "type": "address"
        }
      ],
      "name": "OwnershipTransferred",
      "type": "event"
    },
    {
      "anonymous": false,
      "inputs": [
        {
          "indexed": false,
          "internalType": "enum Types.Side",
          "name": "lossSide",
          "type": "uint8"
        },
        {
          "indexed": false,
          "internalType": "int256",
          "name": "sloss",
          "type": "int256"
        },
        {
          "indexed": false,
          "internalType": "uint256",
          "name": "totalSize",
          "type": "uint256"
        }
      ],
      "name": "SocialLossUpdate",
      "type": "event"
    },
    {
      "anonymous": false,
      "inputs": [
        {
          "indexed": true,
          "internalType": "address",
          "name": "trader",
          "type": "address"
        },
        {
          "indexed": false,
          "internalType": "uint256",
          "name": "amount",
          "type": "uint256"
        },
        {
          "indexed": false,
          "internalType": "int256",
          "name": "balance",
          "type": "int256"
        }
      ],
      "name": "Withdraw",
      "type": "event"
    },
    {
      "inputs": [],
      "name": "ADMIN",
      "outputs": [
        {
          "internalType": "contract Admin",
          "name": "",
          "type": "address"
        }
      ],
      "stateMutability": "view",
      "type": "function"
    },
    {
      "inputs": [],
      "name": "PRICING",
      "outputs": [
        {
          "internalType": "contract Pricing",
          "name": "",
          "type": "address"
        }
      ],
      "stateMutability": "view",
      "type": "function"
    },
    {
      "inputs": [],
      "name": "_BASE_BALANCE_",
      "outputs": [
        {
          "internalType": "uint256",
          "name": "",
          "type": "uint256"
        }
      ],
      "stateMutability": "view",
      "type": "function"
    },
    {
      "inputs": [],
      "name": "_COLLATERAL_POOL_TOKEN_",
      "outputs": [
        {
          "internalType": "address",
          "name": "",
          "type": "address"
        }
      ],
      "stateMutability": "view",
      "type": "function"
    },
    {
      "inputs": [
        {
          "internalType": "address",
          "name": "",
          "type": "address"
        }
      ],
      "name": "_MARGIN_ACCOUNT_",
      "outputs": [
        {
          "internalType": "enum Types.Side",
          "name": "SIDE",
          "type": "uint8"
        },
        {
          "internalType": "uint256",
          "name": "SIZE",
          "type": "uint256"
        },
        {
          "internalType": "uint256",
          "name": "ENTRY_VALUE",
          "type": "uint256"
        },
        {
          "internalType": "int256",
          "name": "CASH_BALANCE",
          "type": "int256"
        },
        {
          "internalType": "uint256",
          "name": "ENTRY_SLOSS",
          "type": "uint256"
        }
      ],
      "stateMutability": "view",
      "type": "function"
    },
    {
      "inputs": [],
      "name": "_NEW_OWNER_",
      "outputs": [
        {
          "internalType": "address",
          "name": "",
          "type": "address"
        }
      ],
      "stateMutability": "view",
      "type": "function"
    },
    {
      "inputs": [],
      "name": "_OWNER_",
      "outputs": [
        {
          "internalType": "address",
          "name": "",
          "type": "address"
        }
      ],
      "stateMutability": "view",
      "type": "function"
    },
    {
      "inputs": [],
      "name": "_POOL_INSURANCE_BALANCE_",
      "outputs": [
        {
          "internalType": "uint256",
          "name": "",
          "type": "uint256"
        }
      ],
      "stateMutability": "view",
      "type": "function"
    },
    {
      "inputs": [],
      "name": "_QUOTE_BALANCE_",
      "outputs": [
        {
          "internalType": "uint256",
          "name": "",
          "type": "uint256"
        }
      ],
      "stateMutability": "view",
      "type": "function"
    },
    {
      "inputs": [],
      "name": "_R_STATUS_",
      "outputs": [
        {
          "internalType": "enum Types.Side",
          "name": "",
          "type": "uint8"
        }
      ],
      "stateMutability": "view",
      "type": "function"
    },
    {
      "inputs": [
        {
          "internalType": "uint256",
          "name": "",
          "type": "uint256"
        }
      ],
      "name": "_SLOSS_PER_CONTRACT_",
      "outputs": [
        {
          "internalType": "uint256",
          "name": "",
          "type": "uint256"
        }
      ],
      "stateMutability": "view",
      "type": "function"
    },
    {
      "inputs": [],
      "name": "_TARGET_BASE_TOKEN_AMOUNT_",
      "outputs": [
        {
          "internalType": "uint256",
          "name": "",
          "type": "uint256"
        }
      ],
      "stateMutability": "view",
      "type": "function"
    },
    {
      "inputs": [],
      "name": "_TARGET_QUOTE_TOKEN_AMOUNT_",
      "outputs": [
        {
          "internalType": "uint256",
          "name": "",
          "type": "uint256"
        }
      ],
      "stateMutability": "view",
      "type": "function"
    },
    {
      "inputs": [],
      "name": "_TOTAL_LONG_SIZE_",
      "outputs": [
        {
          "internalType": "uint256",
          "name": "",
          "type": "uint256"
        }
      ],
      "stateMutability": "view",
      "type": "function"
    },
    {
      "inputs": [],
      "name": "claimOwnership",
      "outputs": [],
      "stateMutability": "nonpayable",
      "type": "function"
    },
    {
      "inputs": [
        {
          "internalType": "address",
          "name": "from",
          "type": "address"
        },
        {
          "internalType": "uint256",
          "name": "amount",
          "type": "uint256"
        }
      ],
      "name": "collateralTraderTransferIn",
      "outputs": [],
      "stateMutability": "nonpayable",
      "type": "function"
    },
    {
      "inputs": [
        {
          "internalType": "address",
          "name": "to",
          "type": "address"
        },
        {
          "internalType": "uint256",
          "name": "amount",
          "type": "uint256"
        }
      ],
      "name": "collateralTraderTransferOut",
      "outputs": [],
      "stateMutability": "nonpayable",
      "type": "function"
    },
    {
      "inputs": [],
      "name": "getPoolMarginCashBalance",
      "outputs": [
        {
          "internalType": "int256",
          "name": "",
          "type": "int256"
        }
      ],
      "stateMutability": "view",
      "type": "function"
    },
    {
      "inputs": [],
      "name": "getPoolMarginEntrySloss",
      "outputs": [
        {
          "internalType": "uint256",
          "name": "",
          "type": "uint256"
        }
      ],
      "stateMutability": "view",
      "type": "function"
    },
    {
      "inputs": [],
      "name": "getPoolMarginEntryValue",
      "outputs": [
        {
          "internalType": "uint256",
          "name": "",
          "type": "uint256"
        }
      ],
      "stateMutability": "view",
      "type": "function"
    },
    {
      "inputs": [],
      "name": "getPoolMarginSide",
      "outputs": [
        {
          "internalType": "enum Types.Side",
          "name": "",
          "type": "uint8"
        }
      ],
      "stateMutability": "view",
      "type": "function"
    },
    {
      "inputs": [],
      "name": "getPoolMarginSize",
      "outputs": [
        {
          "internalType": "uint256",
          "name": "",
          "type": "uint256"
        }
      ],
      "stateMutability": "view",
      "type": "function"
    },
    {
      "inputs": [],
      "name": "getSloss",
      "outputs": [
        {
          "internalType": "uint256[3]",
          "name": "",
          "type": "uint256[3]"
        }
      ],
      "stateMutability": "view",
      "type": "function"
    },
    {
      "inputs": [],
      "name": "getTotalSize",
      "outputs": [
        {
          "internalType": "uint256[3]",
          "name": "",
          "type": "uint256[3]"
        }
      ],
      "stateMutability": "view",
      "type": "function"
    },
    {
      "inputs": [
        {
          "internalType": "address",
          "name": "newOwner",
          "type": "address"
        }
      ],
      "name": "transferOwnership",
      "outputs": [],
      "stateMutability": "nonpayable",
      "type": "function"
    },
    {
      "inputs": [
        {
          "internalType": "uint256",
          "name": "amount",
          "type": "uint256"
        },
        {
          "internalType": "uint256",
          "name": "markPrice",
          "type": "uint256"
        }
      ],
      "name": "initialMargin",
      "outputs": [
        {
          "internalType": "uint256",
          "name": "",
          "type": "uint256"
        }
      ],
      "stateMutability": "view",
      "type": "function"
    },
    {
      "inputs": [
        {
          "internalType": "uint256",
          "name": "amount",
          "type": "uint256"
        },
        {
          "internalType": "uint256",
          "name": "markPrice",
          "type": "uint256"
        }
      ],
      "name": "maintenanceMargin",
      "outputs": [
        {
          "internalType": "uint256",
          "name": "",
          "type": "uint256"
        }
      ],
      "stateMutability": "view",
      "type": "function"
    },
    {
      "inputs": [
        {
          "components": [
            {
              "internalType": "enum Types.Side",
              "name": "SIDE",
              "type": "uint8"
            },
            {
              "internalType": "uint256",
              "name": "SIZE",
              "type": "uint256"
            },
            {
              "internalType": "uint256",
              "name": "ENTRY_VALUE",
              "type": "uint256"
            },
            {
              "internalType": "int256",
              "name": "CASH_BALANCE",
              "type": "int256"
            },
            {
              "internalType": "uint256",
              "name": "ENTRY_SLOSS",
              "type": "uint256"
            }
          ],
          "internalType": "struct Types.MarginAccount",
          "name": "account",
          "type": "tuple"
        }
      ],
      "name": "balanceMargin",
      "outputs": [
        {
          "internalType": "int256",
          "name": "",
          "type": "int256"
        }
      ],
      "stateMutability": "view",
      "type": "function"
    },
    {
      "inputs": [
        {
          "components": [
            {
              "internalType": "enum Types.Side",
              "name": "SIDE",
              "type": "uint8"
            },
            {
              "internalType": "uint256",
              "name": "SIZE",
              "type": "uint256"
            },
            {
              "internalType": "uint256",
              "name": "ENTRY_VALUE",
              "type": "uint256"
            },
            {
              "internalType": "int256",
              "name": "CASH_BALANCE",
              "type": "int256"
            },
            {
              "internalType": "uint256",
              "name": "ENTRY_SLOSS",
              "type": "uint256"
            }
          ],
          "internalType": "struct Types.MarginAccount",
          "name": "account",
          "type": "tuple"
        },
        {
          "internalType": "uint256",
          "name": "markPrice",
          "type": "uint256"
        }
      ],
      "name": "availableMargin",
      "outputs": [
        {
          "internalType": "int256",
          "name": "",
          "type": "int256"
        }
      ],
      "stateMutability": "view",
      "type": "function"
    },
    {
      "inputs": [
        {
          "internalType": "address",
          "name": "trader",
          "type": "address"
        }
      ],
      "name": "isSafeMaintain",
      "outputs": [
        {
          "internalType": "bool",
          "name": "",
          "type": "bool"
        }
      ],
      "stateMutability": "view",
      "type": "function"
    },
    {
      "inputs": [
        {
          "components": [
            {
              "internalType": "enum Types.Side",
              "name": "SIDE",
              "type": "uint8"
            },
            {
              "internalType": "uint256",
              "name": "SIZE",
              "type": "uint256"
            },
            {
              "internalType": "uint256",
              "name": "ENTRY_VALUE",
              "type": "uint256"
            },
            {
              "internalType": "int256",
              "name": "CASH_BALANCE",
              "type": "int256"
            },
            {
              "internalType": "uint256",
              "name": "ENTRY_SLOSS",
              "type": "uint256"
            }
          ],
          "internalType": "struct Types.MarginAccount",
          "name": "account",
          "type": "tuple"
        },
        {
          "internalType": "uint256",
          "name": "openValue",
          "type": "uint256"
        }
      ],
      "name": "isSafeOpen",
      "outputs": [
        {
          "internalType": "bool",
          "name": "",
          "type": "bool"
        }
      ],
      "stateMutability": "view",
      "type": "function"
    },
    {
      "inputs": [
        {
          "internalType": "address",
          "name": "liquidator",
          "type": "address"
        },
        {
          "internalType": "address",
          "name": "trader",
          "type": "address"
        }
      ],
      "name": "liquidate",
      "outputs": [],
      "stateMutability": "nonpayable",
      "type": "function"
    }
  ],
  "bytecode": "0x6080604052600a805460ff1916905534801561001a57600080fd5b5061244b8061002a6000396000f3fe608060405234801561001057600080fd5b50600436106101f05760003560e01c80639103b8b71161010f578063c4389351116100a2578063eab5d20e11610071578063eab5d20e146103a0578063f2fde38b146103a8578063f9f8eda8146103bb578063fa6a5eae146103c3576101f0565b8063c43893511461036a578063d38b520914610372578063d6b4129814610385578063da3a4c311461038d576101f0565b8063b1e07366116100de578063b1e0736614610323578063b2094fd314610347578063b35b08e91461034f578063b4cab95514610362576101f0565b80639103b8b714610303578063a163805c1461030b578063a8b13ddf14610313578063b192a3eb1461031b576101f0565b80632efc6ee71161018757806372decd7a1161015657806372decd7a146102d85780637c9b8e89146102e05780638456db15146102e857806386b9d81f146102f0576101f0565b80632efc6ee71461029557806338873925146102aa5780634a2473c3146102bd5780634e71e0c8146102d0576101f0565b806322d779cc116101c357806322d779cc14610268578063245c96851461027d5780632a0acc6a146102855780632b32812a1461028d576101f0565b80630be4cea9146101f557806313ddd8fb1461021e57806316048bc41461023e57806317be952e14610253575b600080fd5b610208610203366004611f02565b6103d6565b60405161021591906120cb565b60405180910390f35b61023161022c366004611e14565b61040f565b6040516102159190612020565b61024661052b565b6040516102159190611f9e565b61025b61053a565b604051610215919061202b565b61027b610276366004611e84565b610543565b005b610208610551565b610246610557565b610208610566565b61029d61057c565b6040516102159190611fef565b6102086102b8366004611f44565b61061d565b6102086102cb366004611ee7565b6106b7565b61027b610766565b6102086107fd565b610208610813565b610246610819565b61027b6102fe366004611e4c565b610828565b610208610a16565b610246610a2c565b610208610a3b565b610246610a41565b610336610331366004611e14565b610a50565b60405161021595949392919061209d565b610208610a83565b61020861035d366004611f44565b610a89565b610208610ae6565b61029d610afc565b610208610380366004611f2c565b610b37565b61025b610b4b565b61023161039b366004611f02565b610b61565b610208610c4a565b61027b6103b6366004611e14565b610c50565b610208610cfb565b61027b6103d1366004611e84565b610d01565b60006104066103f16103ec85602001518561061d565b610d0b565b6103fa856106b7565b9063ffffffff610d3816565b90505b92915050565b6000610419611d4e565b6001600160a01b03831660009081526005602052604090819020815160a081019092528054829060ff16600281111561044e57fe5b600281111561045957fe5b815260200160018201548152602001600282015481526020016003820154815260200160048201548152505090506105186103ec8260200151600360009054906101000a90046001600160a01b03166001600160a01b031663ee27c6896040518163ffffffff1660e01b815260040160206040518083038186803b1580156104e057600080fd5b505afa1580156104f4573d6000803e3d6000fd5b505050506040513d601f19601f8201168201806040525081019061035d9190611ecf565b610521826106b7565b139150505b919050565b6000546001600160a01b031681565b600a5460ff1681565b61054d8282610d7e565b5050565b60075481565b6002546001600160a01b031681565b3060009081526005602052604090206001015490565b610584611d7e565b600060023060009081526005602052604090205460ff1660028111156105a657fe5b146105d55730600090815260056020526040902060010154600b546105d09163ffffffff610e7816565b6105fa565b30600090815260056020526040902060010154600b546105fa9163ffffffff610ea016565b60408051606081018252600081526020810192909252600b549082015291505090565b600061040661062c8385610ec5565b600260009054906101000a90046001600160a01b03166001600160a01b03166398a0a53d6040518163ffffffff1660e01b815260040160206040518083038186803b15801561067a57600080fd5b505afa15801561068e573d6000803e3d6000fd5b505050506040513d601f19601f820116820180604052508101906106b29190611ecf565b610ec5565b600354815160208301516040808501516080860151915163b69437cd60e01b8152600095610409956001600160a01b039091169463b69437cd9461070594929391929183919060040161209d565b60206040518083038186803b15801561071d57600080fd5b505afa158015610731573d6000803e3d6000fd5b505050506040513d601f19601f820116820180604052508101906107559190611ecf565b60608401519063ffffffff610eef16565b6001546001600160a01b031633146107995760405162461bcd60e51b8152600401610790906120d4565b60405180910390fd5b600154600080546040516001600160a01b0393841693909116917f8be0079c531659141344cd1fd0a4f28419497f9722a3daafe3b4186f6b6457e091a360018054600080546001600160a01b03199081166001600160a01b03841617909155169055565b3060009081526005602052604090206003015490565b60095481565b6001546001600160a01b031681565b6108318161040f565b1561084e5760405162461bcd60e51b81526004016107909061229a565b610856611d4e565b6001600160a01b03831660009081526005602052604090819020815160a081019092528054829060ff16600281111561088b57fe5b600281111561089657fe5b815260200160018201548152602001600282015481526020016003820154815260200160048201548152505090506108cc611d4e565b6001600160a01b03831660009081526005602052604090819020815160a081019092528054829060ff16600281111561090157fe5b600281111561090c57fe5b815260200160018201548152602001600282015481526020016003820154815260200160048201548152505090506000600360009054906101000a90046001600160a01b03166001600160a01b0316634b0301a5836000015184602001516040518363ffffffff1660e01b8152600401610987929190612061565b60206040518083038186803b15801561099f57600080fd5b505afa1580156109b3573d6000803e3d6000fd5b505050506040513d601f19601f820116820180604052508101906109d79190611ecf565b90506109e38382610b61565b6109ff5760405162461bcd60e51b81526004016107909061219f565b610a0f8585838560200151610f35565b5050505050565b3060009081526005602052604090206004015490565b6003546001600160a01b031681565b600b5481565b6004546001600160a01b031681565b6005602052600090815260409020805460018201546002830154600384015460049094015460ff90931693919290919085565b60065481565b6000610406610a988385610ec5565b600260009054906101000a90046001600160a01b03166001600160a01b031663fe73ee736040518163ffffffff1660e01b815260040160206040518083038186803b15801561067a57600080fd5b3060009081526005602052604090206002015490565b610b04611d7e565b60408051606081019182905290600c9060039082845b815481526020019060010190808311610b1a575050505050905090565b600c8160038110610b4457fe5b0154905081565b3060009081526005602052604090205460ff1690565b6000610bb86103ec83600260009054906101000a90046001600160a01b03166001600160a01b03166398a0a53d6040518163ffffffff1660e01b815260040160206040518083038186803b15801561067a57600080fd5b610c4284600360009054906101000a90046001600160a01b03166001600160a01b031663ee27c6896040518163ffffffff1660e01b815260040160206040518083038186803b158015610c0a57600080fd5b505afa158015610c1e573d6000803e3d6000fd5b505050506040513d601f19601f820116820180604052508101906102039190611ecf565b139392505050565b60085481565b6000546001600160a01b03163314610c7a5760405162461bcd60e51b815260040161079090612277565b6001600160a01b038116610ca05760405162461bcd60e51b815260040161079090612250565b600080546040516001600160a01b03808516939216917fdcf55418cee3220104fef63f979ff3c4097ad240c0c43dcb33ce837748983e6291a3600180546001600160a01b0319166001600160a01b0392909216919091179055565b600f5481565b61054d828261162f565b60006001600160ff1b03821115610d345760405162461bcd60e51b815260040161079090612375565b5090565b6000818303818312801590610d4d5750838113155b80610d625750600083128015610d6257508381135b6104065760405162461bcd60e51b8152600401610790906122e7565b610e21823083600260009054906101000a90046001600160a01b03166001600160a01b031663cb102dd26040518163ffffffff1660e01b815260040160206040518083038186803b158015610dd257600080fd5b505afa158015610de6573d6000803e3d6000fd5b505050506040513d601f19601f82011682018060405250810190610e0a9190611e30565b6001600160a01b031692919063ffffffff61171216565b610e55610e2d82610d0b565b6001600160a01b0384166000908152600560205260409020600301549063ffffffff610eef16565b6001600160a01b0390921660009081526005602052604090206003019190915550565b600082821115610e9a5760405162461bcd60e51b8152600401610790906121fe565b50900390565b6000828201838110156104065760405162461bcd60e51b8152600401610790906122c4565b6000670de0b6b3a7640000610ee0848463ffffffff61177016565b81610ee757fe5b049392505050565b6000828201818312801590610f045750838112155b80610f195750600083128015610f1957508381125b6104065760405162461bcd60e51b815260040161079090612129565b610f3d611d4e565b6001600160a01b03851660009081526005602052604090819020815160a081019092528054829060ff166002811115610f7257fe5b6002811115610f7d57fe5b81526020016001820154815260200160028201548152602001600382015481526020016004820154815250509050610fb3611d4e565b6001600160a01b03851660009081526005602052604090819020815160a081019092528054829060ff166002811115610fe857fe5b6002811115610ff357fe5b81526020016001820154815260200160028201548152602001600382015481526020016004820154815250509050611029611d4e565b3060009081526005602052604090819020815160a081019092528054829060ff16600281111561105557fe5b600281111561106057fe5b81526001820154602082015260028201546040820152600382015460608201526004909101546080909101528251909150600061109c826117aa565b905060006111326103ec600260009054906101000a90046001600160a01b03166001600160a01b031663f5cdd2026040518163ffffffff1660e01b815260040160206040518083038186803b1580156110f457600080fd5b505afa158015611108573d6000803e3d6000fd5b505050506040513d601f19601f8201168201806040525081019061112c9190611ecf565b8a610ec5565b905060006111c86103ec600260009054906101000a90046001600160a01b03166001600160a01b03166311187e366040518163ffffffff1660e01b815260040160206040518083038186803b15801561118a57600080fd5b505afa15801561119e573d6000803e3d6000fd5b505050506040513d601f19601f820116820180604052508101906111c29190611ecf565b8b610ec5565b90506111de866111d7866117aa565b8b8b6117e4565b95506111ec87858b8b6117e4565b96506111fe828263ffffffff610eef16565b86606001511261126557611223816103fa848960600151610d3890919063ffffffff16565b60608088019190915287015161123f908363ffffffff610eef16565b60608089019190915285015161125b908263ffffffff610eef16565b6060860152611466565b818660600151126112ca576060870151611285908363ffffffff610eef16565b6060808901919091528601516112b6906112a5908463ffffffff610d3816565b60608701519063ffffffff610eef16565b606080870191909152600090870152611466565b816112ea6112d9600f54610d0b565b60608901519063ffffffff610eef16565b12611351576060870151611304908363ffffffff610eef16565b60608089019190915286015160009061132490849063ffffffff610d3816565b9050611341611332826118af565b600f549063ffffffff610e7816565b600f555060006060870152611466565b6060870151611366908363ffffffff610eef16565b87606001818152505060006113a0611393611382600f54610d0b565b60608a01519063ffffffff610eef16565b849063ffffffff610d3816565b6000600f819055606089015290506113b6611d7e565b6113be61057c565b90506113ed6113cc836118af565b828760028111156113d957fe5b600381106113e357fe5b60200201516118d1565b600c8660028111156113fb57fe5b6003811061140557fe5b01805490910190557fe7c36d6fb87e3948a53ae9860b822817eeadf4473006f88cecd0180fcaae75ed85838382600281111561143d57fe5b6003811061144757fe5b602002015160405161145b93929190612040565b60405180910390a150505b6001600160a01b038a1660009081526005602052604090208651815488929190829060ff1916600183600281111561149a57fe5b02179055506020820151816001015560408201518160020155606082015181600301556080820151816004015590505086600560008d6001600160a01b03166001600160a01b0316815260200190815260200160002060008201518160000160006101000a81548160ff0219169083600281111561151457fe5b02179055506020820151816001015560408201518160020155606082015181600301556080820151816004015590505060056000306001600160a01b03166001600160a01b0316815260200190815260200160002060030154856060015114156115d3573060009081526005602052604090208551815487929190829060ff191660018360028111156115a357fe5b02179055506020820151600182015560408201516002820155606082015160038201556080909101516004909101555b896001600160a01b03168b6001600160a01b03167f54f9b006b19a44694e56b0d6a57f34c420bf88da7373f9d0f3380e5f4b70951e868c8c60405161161a9392919061207d565b60405180910390a35050505050505050505050565b61166361163b82610d0b565b6001600160a01b0384166000908152600560205260409020600301549063ffffffff610d3816565b6001600160a01b0380841660009081526005602090815260409182902060030193909355600254815163658816e960e11b8152915161054d948794879493169263cb102dd29260048083019392829003018186803b1580156116c457600080fd5b505afa1580156116d8573d6000803e3d6000fd5b505050506040513d601f19601f820116820180604052508101906116fc9190611e30565b6001600160a01b0316919063ffffffff6118fb16565b61176a846323b872dd60e01b85858560405160240161173393929190611fb2565b60408051601f198184030181529190526020810180516001600160e01b03166001600160e01b03199093169290921790915261191f565b50505050565b60008261177f57506000610409565b8282028284828161178c57fe5b04146104065760405162461bcd60e51b8152600401610790906123c5565b600060028260028111156117ba57fe5b14156117c857506001610526565b60018260028111156117d657fe5b1415610d3457506002610526565b6117ec611d4e565b602085015160009083901580159061181b575085600281111561180b57fe5b8751600281111561181857fe5b14155b156118805786602001518411611841576118368785876119d6565b965060009050611880565b611853856106b28960200151876118d1565b9150611864878860200151846119d6565b965061187d876020015185610e7890919063ffffffff16565b90505b80156118a4576118a187878361189c898763ffffffff610e7816565b611bda565b96505b509495945050505050565b600080821215610d345760405162461bcd60e51b81526004016107909061239f565b6000610406826118ef85670de0b6b3a764000063ffffffff61177016565b9063ffffffff611ccd16565b61191a8363a9059cbb60e01b8484604051602401611733929190611fd6565b505050565b60006060836001600160a01b03168360405161193b9190611f65565b6000604051808303816000865af19150503d8060008114611978576040519150601f19603f3d011682016040523d82523d6000602084013e61197d565b606091505b50915091508161199f5760405162461bcd60e51b81526004016107909061216a565b80511561176a57808060200190518101906119ba9190611eaf565b61176a5760405162461bcd60e51b81526004016107909061232b565b6119de611d4e565b600083116119fe5760405162461bcd60e51b815260040161079090612221565b6000808560200151851415611a1e57505060408401516080850151611a4f565b611a3486604001516106b2878960200151611cfa565b9150611a4c86608001516106b2878960200151611cfa565b90505b6000611a78600c88600001516002811115611a6657fe5b60038110611a7057fe5b015487610ec5565b600354885160405163b709a7fd60e01b81529293506000926001600160a01b039092169163b709a7fd91611ab69188908b908990899060040161209d565b60206040518083038186803b158015611ace57600080fd5b505afa158015611ae2573d6000803e3d6000fd5b505050506040513d601f19601f82011682018060405250810190611b069190611ecf565b6060890151909150611b1e908263ffffffff610eef16565b606089015260408801516020890151611b5091906106b290611b46908b63ffffffff610e7816565b8b60200151611cfa565b604089015260808801516020890151611b7891906106b290611b46908b63ffffffff610e7816565b60808901526020880151611b92908863ffffffff610e7816565b60208901819052611ba257600088525b600288516002811115611bb157fe5b1415611bce57600b54611bca908863ffffffff610e7816565b600b555b50959695505050505050565b611be2611d4e565b60008311611c025760405162461bcd60e51b8152600401610790906120fb565b6020850151611c295784846002811115611c1857fe5b90816002811115611c2557fe5b9052505b6020850151611c3e908463ffffffff610ea016565b60208601526040850151611c58908363ffffffff610ea016565b6040860152611c94611c83600c866002811115611c7157fe5b60038110611c7b57fe5b015485610ec5565b60808701519063ffffffff610ea016565b60808601526002846002811115611ca757fe5b1415611cc457600b54611cc0908463ffffffff610ea016565b600b555b50929392505050565b600080611cda8484611d24565b905082810284038015611cf257506001019050610409565b509050610409565b600061040682611d1885670de0b6b3a764000063ffffffff61177016565b9063ffffffff611d2416565b6000808211611d455760405162461bcd60e51b8152600401610790906121d6565b818381610ee757fe5b6040805160a081019091528060008152602001600081526020016000815260200160008152602001600081525090565b60405180606001604052806003906020820280368337509192915050565b600060a08284031215611dad578081fd5b60405160a0810181811067ffffffffffffffff82111715611dcc578283fd5b604052905080823560038110611de157600080fd5b80825250602083013560208201526040830135604082015260608301356060820152608083013560808201525092915050565b600060208284031215611e25578081fd5b813561040681612400565b600060208284031215611e41578081fd5b815161040681612400565b60008060408385031215611e5e578081fd5b8235611e6981612400565b91506020830135611e7981612400565b809150509250929050565b60008060408385031215611e96578182fd5b8235611ea181612400565b946020939093013593505050565b600060208284031215611ec0578081fd5b81518015158114610406578182fd5b600060208284031215611ee0578081fd5b5051919050565b600060a08284031215611ef8578081fd5b6104068383611d9c565b60008060c08385031215611f14578182fd5b611f1e8484611d9c565b9460a0939093013593505050565b600060208284031215611f3d578081fd5b5035919050565b60008060408385031215611f56578182fd5b50508035926020909101359150565b60008251815b81811015611f855760208186018101518583015201611f6b565b81811115611f935782828501525b509190910192915050565b6001600160a01b0391909116815260200190565b6001600160a01b039384168152919092166020820152604081019190915260600190565b6001600160a01b03929092168252602082015260400190565b60608101818360005b6003811015612017578151835260209283019290910190600101611ff8565b50505092915050565b901515815260200190565b60208101612038836123e8565b825292915050565b6060810161204d856123f3565b938152602081019290925260409091015290565b6040810161206e846123e8565b82528260208301529392505050565b6060810161208a856123e8565b8252602082019390935260400152919050565b60a081016120aa876123f3565b95815260208101949094526040840192909252606083015260809091015290565b90815260200190565b6020808252600d908201526c494e56414c49445f434c41494d60981b604082015260600190565b6020808252601490820152731bdc195b8e881a5b9d985b1a5908185b5bdd5b9d60621b604082015260600190565b60208082526021908201527f5369676e6564536166654d6174683a206164646974696f6e206f766572666c6f6040820152607760f81b606082015260800190565b6020808252818101527f5361666545524332303a206c6f772d6c6576656c2063616c6c206661696c6564604082015260600190565b6020808252601a908201527f4c495155494441544f525f4e4f545f454e4f5547485f46554e44000000000000604082015260600190565b6020808252600e908201526d2224ab24a224a723afa2a92927a960911b604082015260600190565b60208082526009908201526829aaa12fa2a92927a960b91b604082015260600190565b60208082526015908201527418db1bdcd94e881a5b9d985b1a5908185b5bdd5b9d605a1b604082015260600190565b6020808252600d908201526c24a72b20a624a22fa7aba722a960991b604082015260600190565b6020808252600990820152682727aa2fa7aba722a960b91b604082015260600190565b60208082526010908201526f29a0a322afaa27afa6a0a4a72a20a4a760811b604082015260600190565b60208082526009908201526820a2222fa2a92927a960b91b604082015260600190565b60208082526024908201527f5369676e6564536166654d6174683a207375627472616374696f6e206f766572604082015263666c6f7760e01b606082015260800190565b6020808252602a908201527f5361666545524332303a204552433230206f7065726174696f6e20646964206e6040820152691bdd081cdd58d8d9595960b21b606082015260800190565b60208082526010908201526f75696e74323536206f766572666c6f7760801b604082015260600190565b6020808252600c908201526b696e74206f766572666c6f7760a01b604082015260600190565b60208082526009908201526826aaa62fa2a92927a960b91b604082015260600190565b806003811061052657fe5b600381106123fd57fe5b50565b6001600160a01b03811681146123fd57600080fdfea26469706673582212209f3e76310f3f6eb6a6ebad1e38816c900631093311cc99885619d3ed7bf954cd64736f6c63430006090033",
  "immutableReferences": {},
  "source": "/*\n\n    Copyright 2020 DODO ZOO.\n    SPDX-License-Identifier: Apache-2.0\n\n*/\n\npragma solidity 0.6.9;\npragma experimental ABIEncoderV2;\n\nimport {SafeMath} from \"../lib/SafeMath.sol\";\nimport {SignedSafeMath} from \"../lib/SignedSafeMath.sol\";\nimport {DecimalMath} from \"../lib/DecimalMath.sol\";\nimport {Types} from \"../lib/Types.sol\";\nimport {Settlement} from \"./Settlement.sol\";\nimport {IAdmin} from \"../interface/IAdmin.sol\";\n\n\n/**\n * @title Pricing\n * @author Parapara\n *\n * @notice Parapara's margin account model\n */\ncontract Margin is Settlement {\n    using SafeMath for uint256;\n    using SignedSafeMath for int256;\n\n    // ============ Events ============\n\n    event Deposit(address indexed trader, uint256 amount, int256 balance);\n\n    event Withdraw(address indexed trader, uint256 amount, int256 balance);\n    \n    event Liquidate(address indexed trader, address indexed liquidator, Types.Side liquidationSide, uint256 liquidationValue, uint256 liquidationAmount);\n\n    event SocialLossUpdate(Types.Side lossSide, int256 sloss, uint256 totalSize);\n\n    event InternalUpdateBalance(\n        address indexed trader,\n        int256 amount,\n        int256 balanceAfter\n    );\n\n    // ============ Query Functions ============\n    // \n    function initialMargin(\n        uint256 amount,\n        uint256 markPrice\n    ) public view returns (uint256) {\n        return DecimalMath.mul(DecimalMath.mul(markPrice, amount), ADMIN._INITIAL_MARGIN_RATE_());\n    }\n    // \n    function maintenanceMargin(\n        uint256 amount,\n        uint256 markPrice\n    ) public view returns (uint256) {\n        return DecimalMath.mul(DecimalMath.mul(markPrice, amount), ADMIN._MAINTENANCE_MARGIN_RATE_());\n    }\n\n\n    // PNL\n    // \n    // CASH_BALANCE + UNREALIZED_PNL\n    function balanceMargin(Types.MarginAccount memory account)\n        public view returns (int256) {\n        return account.CASH_BALANCE.add(\n            PRICING.queryPNL(\n                account.SIDE, account.SIZE, account.ENTRY_VALUE, account.SIZE, account.ENTRY_SLOSS\n            )\n        );\n    }\n\n    // \n    function availableMargin(\n        Types.MarginAccount memory account,\n        uint256 markPrice\n    ) public view returns (int256) {\n        return balanceMargin(account).sub(initialMargin(account.SIZE, markPrice).toint256());\n    }\n\n    // \n    function isSafeMaintain(\n        address trader\n    ) public view returns (bool) {\n        Types.MarginAccount memory account = _MARGIN_ACCOUNT_[trader];\n        return balanceMargin(account) > maintenanceMargin(account.SIZE, PRICING.getMidPrice()).toint256(); // mark price\n    }\n\n\n    // >\n    function isSafeOpen(\n        Types.MarginAccount memory account,\n        uint256 openValue\n    ) public view returns (bool) {\n        return availableMargin(account, PRICING.getMidPrice()) > DecimalMath.mul(openValue, ADMIN._INITIAL_MARGIN_RATE_()).toint256();\n    }\n\n    // ============ Margin Account Ops ============\n    function _open(\n        Types.MarginAccount memory account,\n        Types.Side side,\n        uint256 amount,\n        uint256 entryValue\n    ) internal returns (Types.MarginAccount memory) {\n        require(amount > 0, \"open: invalid amount\");\n//        require(checkTradeEligibility(account, entryValue), \"open: INSUFFICIENT FUNDS\");\n        if (account.SIZE == 0) {\n            account.SIDE = side;\n        }\n        account.SIZE = account.SIZE.add(amount);\n        account.ENTRY_VALUE = account.ENTRY_VALUE.add(entryValue);\n        account.ENTRY_SLOSS = account.ENTRY_SLOSS.add(DecimalMath.mul(_SLOSS_PER_CONTRACT_[uint256(side)], amount));\n\n        if (side == Types.Side.LONG) {\n            _TOTAL_LONG_SIZE_ = _TOTAL_LONG_SIZE_.add(amount);\n        }\n        return account;\n    }\n\n\n    function _close(\n        Types.MarginAccount memory account,\n        uint256 amount,\n        uint256 closeValue\n    ) internal returns (Types.MarginAccount memory) {\n        require(amount > 0, \"close: invalid amount\");\n\n        uint256 entryValue;\n        uint256 entrySloss;\n        if (amount == account.SIZE) {\n            entryValue = account.ENTRY_VALUE;\n            entrySloss = account.ENTRY_SLOSS;\n        } else {\n            entryValue =\n                DecimalMath.mul(account.ENTRY_VALUE, DecimalMath.divFloor(amount, account.SIZE));\n            entrySloss =\n                DecimalMath.mul(account.ENTRY_SLOSS, DecimalMath.divFloor(amount, account.SIZE));\n        }\n        uint256 closeSloss = DecimalMath.mul(_SLOSS_PER_CONTRACT_[uint256(account.SIDE)], amount);\n        int256 realizedPNL = PRICING.queryPNLwiValue(\n            account.SIDE, entryValue, closeValue, entrySloss, closeSloss\n        );\n        account.CASH_BALANCE = account.CASH_BALANCE.add(realizedPNL);\n        account.ENTRY_VALUE = DecimalMath.mul(account.ENTRY_VALUE, DecimalMath.divFloor(account.SIZE.sub(amount), account.SIZE));\n        account.ENTRY_SLOSS = DecimalMath.mul(account.ENTRY_SLOSS, DecimalMath.divFloor(account.SIZE.sub(amount), account.SIZE));\n        account.SIZE = account.SIZE.sub(amount);\n        if (account.SIZE == 0) {\n            account.SIDE = Types.Side.FLAT;\n        }\n        if (account.SIDE == Types.Side.LONG) {\n            _TOTAL_LONG_SIZE_ = _TOTAL_LONG_SIZE_.sub(amount);\n        }\n\n        return account;\n    }\n\n     /**\n     * @dev open long/short position for a trader\n     * @param account trader account\n     * @param side Long/Short\n     * @param amount the amount of position\n     */\n    function trade(\n        Types.MarginAccount memory account,\n        Types.Side side,\n        uint256 value,\n        uint256 amount\n    ) internal returns (Types.MarginAccount memory) {\n        uint256 closeValue;\n        uint256 openAmount = amount;\n        if (account.SIZE > 0 && account.SIDE != side) {\n            if (amount <= account.SIZE) {\n                account = _close(account, amount, value);\n                openAmount = 0;\n            }\n            else {\n                closeValue = DecimalMath.mul(value, DecimalMath.divCeil(account.SIZE, amount));\n                account = _close(account, account.SIZE, closeValue);\n                openAmount = amount.sub(account.SIZE);\n            }\n        }\n        if (openAmount > 0) {\n           account = _open(account, side, openAmount, value.sub(closeValue));\n        }\n        return account;\n    }\n\n\n\n    /**\n     * @dev liquidate trader's position from a liquidator\n     * @param liquidator the liquidator\n     * @param trader the trader to be liquidated\n    */\n    function _liquidate(\n        address liquidator,\n        address trader,\n        uint256 liquidationValue,\n        uint256 liquidationAmount\n    ) internal {\n        // liquidiated trader\n        Types.MarginAccount memory liquidatorAccount = _MARGIN_ACCOUNT_[liquidator];\n        Types.MarginAccount memory traderAccount = _MARGIN_ACCOUNT_[trader];\n        Types.MarginAccount memory poolAccount = _MARGIN_ACCOUNT_[address(this)];\n        Types.Side liquidationSide = traderAccount.SIDE;\n        Types.Side opSide = Types.oppositeSide(liquidationSide);\n        int256 penaltyToLiquidator = DecimalMath.mul(ADMIN._LIQUIDATION_PENALTY_RATE_(), liquidationValue).toint256();\n        int256 penaltyToPool = DecimalMath.mul(ADMIN._LIQUIDATION_PENALTY_POOL_RATE_(), liquidationValue).toint256();\n\n        // position: trader => liquidator\n        traderAccount = trade(\n            traderAccount,\n            Types.oppositeSide(liquidationSide),\n            liquidationValue,\n            liquidationAmount\n        );\n\n        liquidatorAccount = trade(\n                liquidatorAccount,\n                liquidationSide,\n                liquidationValue,\n                liquidationAmount\n            );\n\n        if (traderAccount.CASH_BALANCE >= penaltyToLiquidator.add(penaltyToPool)) {\n            // 1) cash > penaltyToPool + penaltyToLiquidator\n            traderAccount.CASH_BALANCE = traderAccount.CASH_BALANCE.sub(penaltyToLiquidator).sub(penaltyToPool);\n            liquidatorAccount.CASH_BALANCE = liquidatorAccount.CASH_BALANCE.add(penaltyToLiquidator);\n            poolAccount.CASH_BALANCE = poolAccount.CASH_BALANCE.add(penaltyToPool);\n        } else if (traderAccount.CASH_BALANCE >= penaltyToLiquidator) {\n            // 2) penaltyToPool + penaltyToLiquidator> cash >penaltyToLiquidator\n            liquidatorAccount.CASH_BALANCE = liquidatorAccount.CASH_BALANCE.add(penaltyToLiquidator);\n            poolAccount.CASH_BALANCE = poolAccount.CASH_BALANCE.add(traderAccount.CASH_BALANCE.sub(penaltyToLiquidator));\n            traderAccount.CASH_BALANCE = 0;\n        } else if (traderAccount.CASH_BALANCE.add(_POOL_INSURANCE_BALANCE_.toint256()) >= penaltyToLiquidator) {\n            // 3 cash + pool_insurance > penaltyToLiquidator\n            liquidatorAccount.CASH_BALANCE = liquidatorAccount.CASH_BALANCE.add(penaltyToLiquidator);\n            int256 delta = penaltyToLiquidator.sub(traderAccount.CASH_BALANCE);\n            _POOL_INSURANCE_BALANCE_ = _POOL_INSURANCE_BALANCE_.sub(delta.touint256());\n            traderAccount.CASH_BALANCE = 0;\n        } else {\n            // 4) cash + pool_insurance < penaltyToLiquidator\n            liquidatorAccount.CASH_BALANCE = liquidatorAccount.CASH_BALANCE.add(penaltyToLiquidator);\n            int256 sloss = penaltyToLiquidator.sub(traderAccount.CASH_BALANCE.add(_POOL_INSURANCE_BALANCE_.toint256()));\n            _POOL_INSURANCE_BALANCE_ = 0;\n            traderAccount.CASH_BALANCE = 0;\n            uint256[3] memory totalSize = getTotalSize();\n            _SLOSS_PER_CONTRACT_[uint256(opSide)] += DecimalMath.divCeil(\n                sloss.touint256(),\n                totalSize[uint256(opSide)]\n            );\n            emit SocialLossUpdate(opSide, sloss, totalSize[uint256(opSide)]);\n        }\n\n        _MARGIN_ACCOUNT_[trader] = traderAccount;\n        _MARGIN_ACCOUNT_[liquidator] = liquidatorAccount;\n        if (poolAccount.CASH_BALANCE == _MARGIN_ACCOUNT_[address(this)].CASH_BALANCE) {\n            _MARGIN_ACCOUNT_[address(this)] = poolAccount;\n        }\n        \n        emit Liquidate(liquidator, trader, liquidationSide, liquidationValue, liquidationAmount);\n    }\n\n\n    function liquidate(\n        address liquidator,\n        address trader\n    ) external {\n        require(!isSafeMaintain(trader), \"SAFE_TO_MAINTAIN\");\n        Types.MarginAccount memory liquidatorAccount = _MARGIN_ACCOUNT_[liquidator];\n        Types.MarginAccount memory traderAccount = _MARGIN_ACCOUNT_[trader];\n        uint256 liquidationValue = PRICING.closePositionValue(traderAccount.SIDE, traderAccount.SIZE);\n        require(isSafeOpen(liquidatorAccount, liquidationValue), \"LIQUIDATOR_NOT_ENOUGH_FUND\");\n        _liquidate(liquidator, trader, liquidationValue, traderAccount.SIZE);\n    }\n\n\n\n\n\n    /*\n     * @dev margin transfer to pool\n     * @param from trader address\n     * @param amount collateral amount\n     */\n    function _marginTransferToPool(address from, uint256 amount) internal {\n        require(amount > 0, \"MarginTransferToPool_ILLEGAL_AMOUNT\");\n        _MARGIN_ACCOUNT_[from].CASH_BALANCE = _MARGIN_ACCOUNT_[from].CASH_BALANCE.sub(amount.toint256()); // may be negative balance\n        _MARGIN_ACCOUNT_[address(this)].CASH_BALANCE = _MARGIN_ACCOUNT_[address(this)].CASH_BALANCE.add(amount.toint256());\n    }\n\n    /*\n     * @dev margin transfer from pool\n     * @param from trader address\n     * @param amount collateral amount\n     */\n    function _marginTransferFromPool(address to, uint256 amount) internal {\n        require(amount > 0, \"MarginTransferFromPool_ILLEGAL_AMOUNT\");\n        _MARGIN_ACCOUNT_[address(this)].CASH_BALANCE = _MARGIN_ACCOUNT_[address(this)].CASH_BALANCE.sub(amount.toint256());\n        _MARGIN_ACCOUNT_[to].CASH_BALANCE = _MARGIN_ACCOUNT_[to].CASH_BALANCE.add(amount.toint256()); // may be negative balance\n    }\n\n    /*\n     * @dev margin transfer from A to B\n     * @param from A\n     * @param to B\n     * @param amount collateral amount\n     */\n    function _marginTransferTo(address from, address to, uint256 amount) internal {\n        require(amount > 0, \"MarginTransferToPool_ILLEGAL_AMOUNT\");\n        _MARGIN_ACCOUNT_[from].CASH_BALANCE = _MARGIN_ACCOUNT_[from].CASH_BALANCE.sub(amount.toint256()); // may be negative balance\n        _MARGIN_ACCOUNT_[to].CASH_BALANCE = _MARGIN_ACCOUNT_[to].CASH_BALANCE.add(amount.toint256());\n    }\n\n\n\n\n}\n",
  "sourcePath": "/Users/daniel/Codes/parapara/para_dapp_v6/contracts/perpetual/Margin.sol",
  "compiler": {
    "name": "solc",
    "version": "0.6.9+commit.3e3065ac.Emscripten.clang"
  },
  "schemaVersion": "3.3.4",
  "updatedAt": "2021-03-28T10:55:46.469Z",
  "devdoc": {
    "author": "Parapara",
    "methods": {},
    "title": "Pricing"
  },
  "userdoc": {
    "methods": {},
    "notice": "Parapara's margin account model"
  }
}