{
  "contractName": "NaiveOracle",
  "abi": [
    {
      "anonymous": false,
      "inputs": [
        {
          "indexed": true,
          "internalType": "address",
          "name": "previousOwner",
          "type": "address"
        },
        {
          "indexed": true,
          "internalType": "address",
          "name": "newOwner",
          "type": "address"
        }
      ],
      "name": "OwnershipTransferPrepared",
      "type": "event"
    },
    {
      "anonymous": false,
      "inputs": [
        {
          "indexed": true,
          "internalType": "address",
          "name": "previousOwner",
          "type": "address"
        },
        {
          "indexed": true,
          "internalType": "address",
          "name": "newOwner",
          "type": "address"
        }
      ],
      "name": "OwnershipTransferred",
      "type": "event"
    },
    {
      "inputs": [],
      "name": "_NEW_OWNER_",
      "outputs": [
        {
          "internalType": "address",
          "name": "",
          "type": "address"
        }
      ],
      "stateMutability": "view",
      "type": "function"
    },
    {
      "inputs": [],
      "name": "_OWNER_",
      "outputs": [
        {
          "internalType": "address",
          "name": "",
          "type": "address"
        }
      ],
      "stateMutability": "view",
      "type": "function"
    },
    {
      "inputs": [],
      "name": "claimOwnership",
      "outputs": [],
      "stateMutability": "nonpayable",
      "type": "function"
    },
    {
      "inputs": [],
      "name": "tokenPrice",
      "outputs": [
        {
          "internalType": "uint256",
          "name": "",
          "type": "uint256"
        }
      ],
      "stateMutability": "view",
      "type": "function"
    },
    {
      "inputs": [
        {
          "internalType": "address",
          "name": "newOwner",
          "type": "address"
        }
      ],
      "name": "transferOwnership",
      "outputs": [],
      "stateMutability": "nonpayable",
      "type": "function"
    },
    {
      "inputs": [
        {
          "internalType": "uint256",
          "name": "newPrice",
          "type": "uint256"
        }
      ],
      "name": "setPrice",
      "outputs": [],
      "stateMutability": "nonpayable",
      "type": "function"
    },
    {
      "inputs": [],
      "name": "getPrice",
      "outputs": [
        {
          "internalType": "uint256",
          "name": "",
          "type": "uint256"
        }
      ],
      "stateMutability": "view",
      "type": "function"
    }
  ],
  "bytecode": "0x608060405234801561001057600080fd5b50600080546001600160a01b03191633178082556040516001600160a01b039190911691907f8be0079c531659141344cd1fd0a4f28419497f9722a3daafe3b4186f6b6457e0908290a361039a806100696000396000f3fe608060405234801561001057600080fd5b506004361061007d5760003560e01c80638456db151161005b5780638456db15146100bf57806391b7f5ed146100c757806398d5fdca146100da578063f2fde38b146100e25761007d565b806316048bc4146100825780634e71e0c8146100a05780637ff9b596146100aa575b600080fd5b61008a6100f5565b60405161009791906102d6565b60405180910390f35b6100a8610104565b005b6100b261019b565b604051610097919061035b565b61008a6101a1565b6100a86100d53660046102be565b6101b0565b6100b26101df565b6100a86100f0366004610290565b6101e5565b6000546001600160a01b031681565b6001546001600160a01b031633146101375760405162461bcd60e51b815260040161012e906102ea565b60405180910390fd5b600154600080546040516001600160a01b0393841693909116917f8be0079c531659141344cd1fd0a4f28419497f9722a3daafe3b4186f6b6457e091a360018054600080546001600160a01b03199081166001600160a01b03841617909155169055565b60025481565b6001546001600160a01b031681565b6000546001600160a01b031633146101da5760405162461bcd60e51b815260040161012e90610338565b600255565b60025490565b6000546001600160a01b0316331461020f5760405162461bcd60e51b815260040161012e90610338565b6001600160a01b0381166102355760405162461bcd60e51b815260040161012e90610311565b600080546040516001600160a01b03808516939216917fdcf55418cee3220104fef63f979ff3c4097ad240c0c43dcb33ce837748983e6291a3600180546001600160a01b0319166001600160a01b0392909216919091179055565b6000602082840312156102a1578081fd5b81356001600160a01b03811681146102b7578182fd5b9392505050565b6000602082840312156102cf578081fd5b5035919050565b6001600160a01b0391909116815260200190565b6020808252600d908201526c494e56414c49445f434c41494d60981b604082015260600190565b6020808252600d908201526c24a72b20a624a22fa7aba722a960991b604082015260600190565b6020808252600990820152682727aa2fa7aba722a960b91b604082015260600190565b9081526020019056fea2646970667358221220b9a42aca15caa75d34b056248fc76a04b74d7fe67a3e9ae6d06495557b3f097c64736f6c63430006090033",
  "immutableReferences": {},
  "source": "/*\n\n    Copyright 2020 DODO ZOO.\n    SPDX-License-Identifier: Apache-2.0\n\n*/\n\npragma solidity 0.6.9;\npragma experimental ABIEncoderV2;\n\nimport {Ownable} from \"../lib/Ownable.sol\";\n\n\n// Oracle only for test\ncontract NaiveOracle is Ownable {\n    uint256 public tokenPrice;\n\n    function setPrice(uint256 newPrice) external onlyOwner {\n        tokenPrice = newPrice;\n    }\n\n    function getPrice() external view returns (uint256) {\n        return tokenPrice;\n    }\n}\n",
  "sourcePath": "/Users/daniel/Codes/parapara/para_dapp_v6/contracts/helper/NaiveOracle.sol",
  "compiler": {
    "name": "solc",
    "version": "0.6.9+commit.3e3065ac.Emscripten.clang"
  },
  "schemaVersion": "3.3.4",
  "updatedAt": "2021-03-28T10:55:46.393Z",
  "devdoc": {
    "methods": {}
  },
  "userdoc": {
    "methods": {}
  }
}