{
  "contractName": "ParaMine",
  "abi": [
    {
      "inputs": [
        {
          "internalType": "address",
          "name": "_paraToken",
          "type": "address"
        },
        {
          "internalType": "uint256",
          "name": "_startBlock",
          "type": "uint256"
        }
      ],
      "stateMutability": "nonpayable",
      "type": "constructor"
    },
    {
      "anonymous": false,
      "inputs": [
        {
          "indexed": true,
          "internalType": "address",
          "name": "user",
          "type": "address"
        },
        {
          "indexed": false,
          "internalType": "uint256",
          "name": "amount",
          "type": "uint256"
        }
      ],
      "name": "Claim",
      "type": "event"
    },
    {
      "anonymous": false,
      "inputs": [
        {
          "indexed": true,
          "internalType": "address",
          "name": "user",
          "type": "address"
        },
        {
          "indexed": true,
          "internalType": "uint256",
          "name": "pid",
          "type": "uint256"
        },
        {
          "indexed": false,
          "internalType": "uint256",
          "name": "amount",
          "type": "uint256"
        }
      ],
      "name": "Deposit",
      "type": "event"
    },
    {
      "anonymous": false,
      "inputs": [
        {
          "indexed": true,
          "internalType": "address",
          "name": "previousOwner",
          "type": "address"
        },
        {
          "indexed": true,
          "internalType": "address",
          "name": "newOwner",
          "type": "address"
        }
      ],
      "name": "OwnershipTransferPrepared",
      "type": "event"
    },
    {
      "anonymous": false,
      "inputs": [
        {
          "indexed": true,
          "internalType": "address",
          "name": "previousOwner",
          "type": "address"
        },
        {
          "indexed": true,
          "internalType": "address",
          "name": "newOwner",
          "type": "address"
        }
      ],
      "name": "OwnershipTransferred",
      "type": "event"
    },
    {
      "anonymous": false,
      "inputs": [
        {
          "indexed": true,
          "internalType": "address",
          "name": "user",
          "type": "address"
        },
        {
          "indexed": true,
          "internalType": "uint256",
          "name": "pid",
          "type": "uint256"
        },
        {
          "indexed": false,
          "internalType": "uint256",
          "name": "amount",
          "type": "uint256"
        }
      ],
      "name": "Withdraw",
      "type": "event"
    },
    {
      "inputs": [],
      "name": "_NEW_OWNER_",
      "outputs": [
        {
          "internalType": "address",
          "name": "",
          "type": "address"
        }
      ],
      "stateMutability": "view",
      "type": "function"
    },
    {
      "inputs": [],
      "name": "_OWNER_",
      "outputs": [
        {
          "internalType": "address",
          "name": "",
          "type": "address"
        }
      ],
      "stateMutability": "view",
      "type": "function"
    },
    {
      "inputs": [],
      "name": "claimOwnership",
      "outputs": [],
      "stateMutability": "nonpayable",
      "type": "function"
    },
    {
      "inputs": [
        {
          "internalType": "address",
          "name": "",
          "type": "address"
        }
      ],
      "name": "lpTokenRegistry",
      "outputs": [
        {
          "internalType": "uint256",
          "name": "",
          "type": "uint256"
        }
      ],
      "stateMutability": "view",
      "type": "function"
    },
    {
      "inputs": [],
      "name": "paraPerBlock",
      "outputs": [
        {
          "internalType": "uint256",
          "name": "",
          "type": "uint256"
        }
      ],
      "stateMutability": "view",
      "type": "function"
    },
    {
      "inputs": [],
      "name": "paraRewardVault",
      "outputs": [
        {
          "internalType": "address",
          "name": "",
          "type": "address"
        }
      ],
      "stateMutability": "view",
      "type": "function"
    },
    {
      "inputs": [
        {
          "internalType": "uint256",
          "name": "",
          "type": "uint256"
        }
      ],
      "name": "poolInfos",
      "outputs": [
        {
          "internalType": "address",
          "name": "lpToken",
          "type": "address"
        },
        {
          "internalType": "uint256",
          "name": "allocPoint",
          "type": "uint256"
        },
        {
          "internalType": "uint256",
          "name": "lastRewardBlock",
          "type": "uint256"
        },
        {
          "internalType": "uint256",
          "name": "accParaPerShare",
          "type": "uint256"
        }
      ],
      "stateMutability": "view",
      "type": "function"
    },
    {
      "inputs": [
        {
          "internalType": "address",
          "name": "",
          "type": "address"
        }
      ],
      "name": "realizedReward",
      "outputs": [
        {
          "internalType": "uint256",
          "name": "",
          "type": "uint256"
        }
      ],
      "stateMutability": "view",
      "type": "function"
    },
    {
      "inputs": [],
      "name": "startBlock",
      "outputs": [
        {
          "internalType": "uint256",
          "name": "",
          "type": "uint256"
        }
      ],
      "stateMutability": "view",
      "type": "function"
    },
    {
      "inputs": [],
      "name": "totalAllocPoint",
      "outputs": [
        {
          "internalType": "uint256",
          "name": "",
          "type": "uint256"
        }
      ],
      "stateMutability": "view",
      "type": "function"
    },
    {
      "inputs": [
        {
          "internalType": "address",
          "name": "newOwner",
          "type": "address"
        }
      ],
      "name": "transferOwnership",
      "outputs": [],
      "stateMutability": "nonpayable",
      "type": "function"
    },
    {
      "inputs": [
        {
          "internalType": "uint256",
          "name": "",
          "type": "uint256"
        },
        {
          "internalType": "address",
          "name": "",
          "type": "address"
        }
      ],
      "name": "userInfo",
      "outputs": [
        {
          "internalType": "uint256",
          "name": "amount",
          "type": "uint256"
        },
        {
          "internalType": "uint256",
          "name": "rewardDebt",
          "type": "uint256"
        }
      ],
      "stateMutability": "view",
      "type": "function"
    },
    {
      "inputs": [],
      "name": "poolLength",
      "outputs": [
        {
          "internalType": "uint256",
          "name": "",
          "type": "uint256"
        }
      ],
      "stateMutability": "view",
      "type": "function"
    },
    {
      "inputs": [
        {
          "internalType": "address",
          "name": "_lpToken",
          "type": "address"
        }
      ],
      "name": "getPid",
      "outputs": [
        {
          "internalType": "uint256",
          "name": "",
          "type": "uint256"
        }
      ],
      "stateMutability": "view",
      "type": "function"
    },
    {
      "inputs": [
        {
          "internalType": "address",
          "name": "_lpToken",
          "type": "address"
        },
        {
          "internalType": "address",
          "name": "_user",
          "type": "address"
        }
      ],
      "name": "getUserLpBalance",
      "outputs": [
        {
          "internalType": "uint256",
          "name": "",
          "type": "uint256"
        }
      ],
      "stateMutability": "view",
      "type": "function"
    },
    {
      "inputs": [
        {
          "internalType": "address",
          "name": "_lpToken",
          "type": "address"
        },
        {
          "internalType": "uint256",
          "name": "_allocPoint",
          "type": "uint256"
        },
        {
          "internalType": "bool",
          "name": "_withUpdate",
          "type": "bool"
        }
      ],
      "name": "addLpToken",
      "outputs": [],
      "stateMutability": "nonpayable",
      "type": "function"
    },
    {
      "inputs": [
        {
          "internalType": "address",
          "name": "_lpToken",
          "type": "address"
        },
        {
          "internalType": "uint256",
          "name": "_allocPoint",
          "type": "uint256"
        },
        {
          "internalType": "bool",
          "name": "_withUpdate",
          "type": "bool"
        }
      ],
      "name": "setLpToken",
      "outputs": [],
      "stateMutability": "nonpayable",
      "type": "function"
    },
    {
      "inputs": [
        {
          "internalType": "uint256",
          "name": "_paraPerBlock",
          "type": "uint256"
        },
        {
          "internalType": "bool",
          "name": "_withUpdate",
          "type": "bool"
        }
      ],
      "name": "setReward",
      "outputs": [],
      "stateMutability": "nonpayable",
      "type": "function"
    },
    {
      "inputs": [
        {
          "internalType": "address",
          "name": "_lpToken",
          "type": "address"
        },
        {
          "internalType": "address",
          "name": "_user",
          "type": "address"
        }
      ],
      "name": "getPendingReward",
      "outputs": [
        {
          "internalType": "uint256",
          "name": "",
          "type": "uint256"
        }
      ],
      "stateMutability": "view",
      "type": "function"
    },
    {
      "inputs": [
        {
          "internalType": "address",
          "name": "_user",
          "type": "address"
        }
      ],
      "name": "getAllPendingReward",
      "outputs": [
        {
          "internalType": "uint256",
          "name": "",
          "type": "uint256"
        }
      ],
      "stateMutability": "view",
      "type": "function"
    },
    {
      "inputs": [
        {
          "internalType": "address",
          "name": "_user",
          "type": "address"
        }
      ],
      "name": "getRealizedReward",
      "outputs": [
        {
          "internalType": "uint256",
          "name": "",
          "type": "uint256"
        }
      ],
      "stateMutability": "view",
      "type": "function"
    },
    {
      "inputs": [
        {
          "internalType": "address",
          "name": "_lpToken",
          "type": "address"
        }
      ],
      "name": "getDlpMiningSpeed",
      "outputs": [
        {
          "internalType": "uint256",
          "name": "",
          "type": "uint256"
        }
      ],
      "stateMutability": "view",
      "type": "function"
    },
    {
      "inputs": [],
      "name": "massUpdatePools",
      "outputs": [],
      "stateMutability": "nonpayable",
      "type": "function"
    },
    {
      "inputs": [
        {
          "internalType": "uint256",
          "name": "_pid",
          "type": "uint256"
        }
      ],
      "name": "updatePool",
      "outputs": [],
      "stateMutability": "nonpayable",
      "type": "function"
    },
    {
      "inputs": [
        {
          "internalType": "address",
          "name": "_lpToken",
          "type": "address"
        },
        {
          "internalType": "uint256",
          "name": "_amount",
          "type": "uint256"
        }
      ],
      "name": "deposit",
      "outputs": [],
      "stateMutability": "nonpayable",
      "type": "function"
    },
    {
      "inputs": [
        {
          "internalType": "address",
          "name": "_lpToken",
          "type": "address"
        },
        {
          "internalType": "uint256",
          "name": "_amount",
          "type": "uint256"
        }
      ],
      "name": "withdraw",
      "outputs": [],
      "stateMutability": "nonpayable",
      "type": "function"
    },
    {
      "inputs": [
        {
          "internalType": "address",
          "name": "_lpToken",
          "type": "address"
        }
      ],
      "name": "withdrawAll",
      "outputs": [],
      "stateMutability": "nonpayable",
      "type": "function"
    },
    {
      "inputs": [
        {
          "internalType": "address",
          "name": "_lpToken",
          "type": "address"
        }
      ],
      "name": "emergencyWithdraw",
      "outputs": [],
      "stateMutability": "nonpayable",
      "type": "function"
    },
    {
      "inputs": [
        {
          "internalType": "address",
          "name": "_lpToken",
          "type": "address"
        }
      ],
      "name": "claim",
      "outputs": [],
      "stateMutability": "nonpayable",
      "type": "function"
    },
    {
      "inputs": [],
      "name": "claimAll",
      "outputs": [],
      "stateMutability": "nonpayable",
      "type": "function"
    }
  ],
  "bytecode": "0x608060405260006008553480156200001657600080fd5b506040516200222f3803806200222f8339810160408190526200003991620000f3565b600080546001600160a01b03191633178082556040516001600160a01b039190911691907f8be0079c531659141344cd1fd0a4f28419497f9722a3daafe3b4186f6b6457e0908290a3816040516200009190620000e5565b6200009d91906200012d565b604051809103906000f080158015620000ba573d6000803e3d6000fd5b50600280546001600160a01b0319166001600160a01b03929092169190911790556009555062000141565b6106868062001ba983390190565b6000806040838503121562000106578182fd5b82516001600160a01b03811681146200011d578283fd5b6020939093015192949293505050565b6001600160a01b0391909116815260200190565b611a5880620001516000396000f3fe608060405234801561001057600080fd5b50600436106101da5760003560e01c80636dc2cc8c11610104578063ec83a76a116100a2578063f3fef3a311610071578063f3fef3a3146103a2578063fa09e630146103b5578063fb7276f4146103c8578063fe0f3a13146103db576101da565b8063ec83a76a14610361578063f0ee1fb914610374578063f146b8091461037c578063f2fde38b1461038f576101da565b80638456db15116100de5780638456db151461031d57806393f1a40b14610325578063bea006e014610346578063d1058e5914610359576101da565b80636dc2cc8c146102e45780636ff1c9bc146102f75780637f10179f1461030a576101da565b80633d16433e1161017c5780634e71e0c81161014b5780634e71e0c81461029e57806351eb05a6146102a6578063630b5ba1146102b9578063689d84e4146102c1576101da565b80633d16433e1461025d57806343b55f351461027057806347e7ef241461028357806348cd4cb114610296576101da565b806317caf6f1116101b857806317caf6f11461021a57806319a78f55146102225780631e83409a1461023557806334ea53891461024a576101da565b8063081e3eda146101df5780630e69ea68146101fd57806316048bc414610205575b600080fd5b6101e76103ee565b6040516101f491906119fd565b60405180910390f35b6101e76103f4565b61020d6103fa565b6040516101f4919061177e565b6101e7610409565b6101e76102303660046115fd565b61040f565b6102486102433660046115e2565b610448565b005b61024861025836600461165b565b610538565b6101e761026b3660046115e2565b6105f8565b6101e761027e3660046115e2565b61060a565b610248610291366004611631565b610662565b6101e7610769565b61024861076f565b6102486102b43660046116c3565b6107fd565b610248610937565b6102d46102cf3660046116c3565b61095a565b6040516101f494939291906117cf565b6101e76102f23660046115e2565b61099b565b6102486103053660046115e2565b6109b6565b610248610318366004611716565b610a2d565b61020d610a6b565b6103386103333660046116f3565b610a7a565b6040516101f4929190611a06565b61024861035436600461165b565b610a9e565b610248610c41565b6101e761036f3660046115e2565b610d37565b61020d610d49565b6101e761038a3660046115e2565b610d58565b61024861039d3660046115e2565b610f25565b6102486103b0366004611631565b610fd0565b6102486103c33660046115e2565b6110f5565b6101e76103d63660046115e2565b61110d565b6101e76103e93660046115fd565b611161565b60045490565b60035481565b6000546001600160a01b031681565b60085481565b60008061041b8461060a565b60009081526006602090815260408083206001600160a01b03871684529091529020549150505b92915050565b60006104538261060a565b6000818152600660209081526040808320338452909152902054909150158061049a57506004818154811061048457fe5b9060005260206000209060040201600101546000145b156104a55750610535565b6000600482815481106104b457fe5b600091825260208083208584526006825260408085203386529092529220600490910290910191506104e5836107fd565b600061050d8260010154610501846000015486600301546112ac565b9063ffffffff6112d616565b9050610521826000015484600301546112ac565b600183015561053033826112fe565b505050505b50565b6000546001600160a01b0316331461056b5760405162461bcd60e51b8152600401610562906118ee565b60405180910390fd5b801561057957610579610937565b60006105848461060a565b90506105c9836105bd6004848154811061059a57fe5b9060005260206000209060040201600101546008546112d690919063ffffffff16565b9063ffffffff6113e416565b60088190555082600482815481106105dd57fe5b90600052602060002090600402016001018190555050505050565b60056020526000908152604090205481565b6001600160a01b03811660009081526005602052604081205482906106415760405162461bcd60e51b815260040161056290611911565b50506001600160a01b03166000908152600560205260409020546000190190565b600061066d8361060a565b905060006004828154811061067e57fe5b600091825260208083208584526006825260408085203386529092529220600490910290910191506106af836107fd565b8054156106e05760006106d28260010154610501846000015486600301546112ac565b90506106de33826112fe565b505b81546106fd906001600160a01b031633308763ffffffff61141016565b805461070f908563ffffffff6113e416565b808255600383015461072191906112ac565b6001820155604051839033907f90890809c654f11d6e72a28fa60149770a0d11ec6c92319d6ceb2bb0a4ea1a159061075a9088906119fd565b60405180910390a35050505050565b60095481565b6001546001600160a01b031633146107995760405162461bcd60e51b8152600401610562906117f5565b600154600080546040516001600160a01b0393841693909116917f8be0079c531659141344cd1fd0a4f28419497f9722a3daafe3b4186f6b6457e091a360018054600080546001600160a01b03199081166001600160a01b03841617909155169055565b60006004828154811061080c57fe5b906000526020600020906004020190508060020154431161082d5750610535565b80546040516370a0823160e01b81526000916001600160a01b0316906370a082319061085d90309060040161177e565b60206040518083038186803b15801561087557600080fd5b505afa158015610889573d6000803e3d6000fd5b505050506040513d601f19601f820116820180604052508101906108ad91906116db565b9050806108c1575043600290910155610535565b60006109066008546108fa85600101546108ee6003546108ee8960020154436112d690919063ffffffff16565b9063ffffffff61146e16565b9063ffffffff6114a816565b905061092661091582846114d2565b60038501549063ffffffff6113e416565b600384015550504360029091015550565b60045460005b818110156109565761094e816107fd565b60010161093d565b5050565b6004818154811061096757fe5b600091825260209091206004909102018054600182015460028301546003909301546001600160a01b039092169350919084565b6001600160a01b031660009081526007602052604090205490565b60006109c18261060a565b90506000600482815481106109d257fe5b60009182526020808320858452600682526040808520338087529352909320805460049093029093018054909450610a1d926001600160a01b0391909116919063ffffffff6114f016565b6000808255600190910155505050565b6000546001600160a01b03163314610a575760405162461bcd60e51b8152600401610562906118ee565b8015610a6557610a65610937565b50600355565b6001546001600160a01b031681565b60066020908152600092835260408084209091529082529020805460019091015482565b6001600160a01b038316600090815260056020526040902054839015610ad65760405162461bcd60e51b8152600401610562906119aa565b6000546001600160a01b03163314610b005760405162461bcd60e51b8152600401610562906118ee565b8115610b0e57610b0e610937565b60006009544311610b2157600954610b23565b435b600854909150610b39908563ffffffff6113e416565b600855604080516080810182526001600160a01b0396871680825260208083019788528284019485526000606084018181526004805460018101825581845295517f8a35acfbc15ff81a39ae7d344fd709f28e8600b4aa8c65c6b64bfe7fe36bd19b96820296870180546001600160a01b03191691909d1617909b5598517f8a35acfbc15ff81a39ae7d344fd709f28e8600b4aa8c65c6b64bfe7fe36bd19c85015594517f8a35acfbc15ff81a39ae7d344fd709f28e8600b4aa8c65c6b64bfe7fe36bd19d84015596517f8a35acfbc15ff81a39ae7d344fd709f28e8600b4aa8c65c6b64bfe7fe36bd19e909201919091559554958252600590945292909220929092555050565b6004546000805b82811015610d2c5760008181526006602090815260408083203384529091529020541580610c94575060048181548110610c7e57fe5b9060005260206000209060040201600101546000145b15610c9e57610d24565b600060048281548110610cad57fe5b60009182526020808320858452600682526040808520338652909252922060049091029091019150610cde836107fd565b610d08610cfb8260010154610501846000015486600301546112ac565b859063ffffffff6113e416565b9350610d1c816000015483600301546112ac565b600190910155505b600101610c48565b5061095633826112fe565b60076020526000908152604090205481565b6002546001600160a01b031681565b60045460009081805b82811015610f1d5760008181526006602090815260408083206001600160a01b03891684529091529020541580610db6575060048181548110610da057fe5b9060005260206000209060040201600101546000145b15610dc057610f15565b600060048281548110610dcf57fe5b600091825260208083208584526006825260408085206001600160a01b038c81168752935280852060049485029092016003810154815492516370a0823160e01b815291975092959294929391909116916370a0823191610e329130910161177e565b60206040518083038186803b158015610e4a57600080fd5b505afa158015610e5e573d6000803e3d6000fd5b505050506040513d601f19601f82011682018060405250810190610e8291906116db565b9050836002015443118015610e9657508015155b15610ee8576000610ec86008546108fa87600101546108ee6003546108ee8b60020154436112d690919063ffffffff16565b9050610ee4610ed782846114d2565b849063ffffffff6113e416565b9250505b610f0e610f0184600101546105018660000154866112ac565b879063ffffffff6113e416565b9550505050505b600101610d61565b509392505050565b6000546001600160a01b03163314610f4f5760405162461bcd60e51b8152600401610562906118ee565b6001600160a01b038116610f755760405162461bcd60e51b81526004016105629061189c565b600080546040516001600160a01b03808516939216917fdcf55418cee3220104fef63f979ff3c4097ad240c0c43dcb33ce837748983e6291a3600180546001600160a01b0319166001600160a01b0392909216919091179055565b6000610fdb8361060a565b9050600060048281548110610fec57fe5b6000918252602080832085845260068252604080852033865290925292208054600490920290920192508411156110355760405162461bcd60e51b8152600401610562906118c3565b61103e836107fd565b600061105a8260010154610501846000015486600301546112ac565b905061106633826112fe565b8154611078908663ffffffff6112d616565b808355600384015461108a91906112ac565b600183015582546110ab906001600160a01b0316338763ffffffff6114f016565b83336001600160a01b03167ff279e6a1f5e320cca91135676d9cb6e44ca8a08c0b88342bcdb1144f6511b568876040516110e591906119fd565b60405180910390a3505050505050565b6000611101823361040f565b90506109568282610fd0565b6000806111198361060a565b905060006004828154811061112a57fe5b906000526020600020906004020190506111596008546108fa836001015460035461146e90919063ffffffff16565b949350505050565b60008061116d8461060a565b905060006004828154811061117e57fe5b600091825260208083208584526006825260408085206001600160a01b038a81168752935280852060049485029092016003810154815492516370a0823160e01b815291975092959294929391909116916370a08231916111e19130910161177e565b60206040518083038186803b1580156111f957600080fd5b505afa15801561120d573d6000803e3d6000fd5b505050506040513d601f19601f8201168201806040525081019061123191906116db565b905083600201544311801561124557508015155b1561128a5760006112776008546108fa87600101546108ee6003546108ee8b60020154436112d690919063ffffffff16565b9050611286610ed782846114d2565b9250505b6112a083600101546105018560000154856112ac565b98975050505050505050565b6000670de0b6b3a76400006112c7848463ffffffff61146e16565b816112ce57fe5b049392505050565b6000828211156112f85760405162461bcd60e51b815260040161056290611879565b50900390565b6002546040516310b3879160e11b81526001600160a01b03909116906321670f229061133090859085906004016117b6565b600060405180830381600087803b15801561134a57600080fd5b505af115801561135e573d6000803e3d6000fd5b5050506001600160a01b03831660009081526007602052604090205461138b91508263ffffffff6113e416565b6001600160a01b038316600081815260076020526040908190209290925590517f47cee97cb7acd717b3c0aa1435d004cd5b3c8c57d70dbceb4e4458bbd60e39d4906113d89084906119fd565b60405180910390a25050565b6000828201838110156114095760405162461bcd60e51b81526004016105629061193d565b9392505050565b611468846323b872dd60e01b85858560405160240161143193929190611792565b60408051601f198184030181529190526020810180516001600160e01b03166001600160e01b031990931692909217909152611514565b50505050565b60008261147d57506000610442565b8282028284828161148a57fe5b04146114095760405162461bcd60e51b8152600401610562906119da565b60008082116114c95760405162461bcd60e51b815260040161056290611851565b8183816112ce57fe5b6000611409826108fa85670de0b6b3a764000063ffffffff61146e16565b61150f8363a9059cbb60e01b84846040516024016114319291906117b6565b505050565b60006060836001600160a01b0316836040516115309190611745565b6000604051808303816000865af19150503d806000811461156d576040519150601f19603f3d011682016040523d82523d6000602084013e611572565b606091505b5091509150816115945760405162461bcd60e51b81526004016105629061181c565b80511561146857808060200190518101906115af91906116a7565b6114685760405162461bcd60e51b815260040161056290611960565b80356001600160a01b038116811461044257600080fd5b6000602082840312156115f3578081fd5b61140983836115cb565b6000806040838503121561160f578081fd5b61161984846115cb565b915061162884602085016115cb565b90509250929050565b60008060408385031215611643578182fd5b61164d84846115cb565b946020939093013593505050565b60008060006060848603121561166f578081fd5b83356001600160a01b0381168114611685578182fd5b925060208401359150604084013561169c81611a14565b809150509250925092565b6000602082840312156116b8578081fd5b815161140981611a14565b6000602082840312156116d4578081fd5b5035919050565b6000602082840312156116ec578081fd5b5051919050565b60008060408385031215611705578182fd5b8235915061162884602085016115cb565b60008060408385031215611728578182fd5b82359150602083013561173a81611a14565b809150509250929050565b60008251815b81811015611765576020818601810151858301520161174b565b818111156117735782828501525b509190910192915050565b6001600160a01b0391909116815260200190565b6001600160a01b039384168152919092166020820152604081019190915260600190565b6001600160a01b03929092168252602082015260400190565b6001600160a01b0394909416845260208401929092526040830152606082015260800190565b6020808252600d908201526c494e56414c49445f434c41494d60981b604082015260600190565b6020808252818101527f5361666545524332303a206c6f772d6c6576656c2063616c6c206661696c6564604082015260600190565b6020808252600e908201526d2224ab24a224a723afa2a92927a960911b604082015260600190565b60208082526009908201526829aaa12fa2a92927a960b91b604082015260600190565b6020808252600d908201526c24a72b20a624a22fa7aba722a960991b604082015260600190565b6020808252601190820152700eed2e8d0c8e4c2ee40e8dede40daeac6d607b1b604082015260600190565b6020808252600990820152682727aa2fa7aba722a960b91b604082015260600190565b602080825260129082015271131408151bdad95b88139bdd08115e1a5cdd60721b604082015260600190565b60208082526009908201526820a2222fa2a92927a960b91b604082015260600190565b6020808252602a908201527f5361666545524332303a204552433230206f7065726174696f6e20646964206e6040820152691bdd081cdd58d8d9595960b21b606082015260800190565b602080825260169082015275131408151bdad95b88105b1c9958591e48115e1a5cdd60521b604082015260600190565b60208082526009908201526826aaa62fa2a92927a960b91b604082015260600190565b90815260200190565b918252602082015260400190565b801515811461053557600080fdfea2646970667358221220286b4a909102a0c96e0a0ba27f1489abc53fcead42a7b110a2ca3846dea4b2b364736f6c63430006090033608060405234801561001057600080fd5b5060405161068638038061068683398101604081905261002f9161009d565b600080546001600160a01b03191633178082556040516001600160a01b039190911691907f8be0079c531659141344cd1fd0a4f28419497f9722a3daafe3b4186f6b6457e0908290a3600280546001600160a01b0319166001600160a01b03929092169190911790556100cb565b6000602082840312156100ae578081fd5b81516001600160a01b03811681146100c4578182fd5b9392505050565b6105ac806100da6000396000f3fe608060405234801561001057600080fd5b50600436106100625760003560e01c806316048bc41461006757806321670f22146100855780634e71e0c81461009a5780637e81d2ad146100a25780638456db15146100aa578063f2fde38b146100b2575b600080fd5b61006f6100c5565b60405161007c9190610459565b60405180910390f35b6100986100933660046103d6565b6100d4565b005b610098610128565b61006f6101b6565b61006f6101c5565b6100986100c03660046103b4565b6101d4565b6000546001600160a01b031681565b6000546001600160a01b031633146101075760405162461bcd60e51b81526004016100fe90610509565b60405180910390fd5b600254610124906001600160a01b0316838363ffffffff61027f16565b5050565b6001546001600160a01b031633146101525760405162461bcd60e51b81526004016100fe90610486565b600154600080546040516001600160a01b0393841693909116917f8be0079c531659141344cd1fd0a4f28419497f9722a3daafe3b4186f6b6457e091a360018054600080546001600160a01b03199081166001600160a01b03841617909155169055565b6002546001600160a01b031681565b6001546001600160a01b031681565b6000546001600160a01b031633146101fe5760405162461bcd60e51b81526004016100fe90610509565b6001600160a01b0381166102245760405162461bcd60e51b81526004016100fe906104e2565b600080546040516001600160a01b03808516939216917fdcf55418cee3220104fef63f979ff3c4097ad240c0c43dcb33ce837748983e6291a3600180546001600160a01b0319166001600160a01b0392909216919091179055565b6102d58363a9059cbb60e01b848460405160240161029e92919061046d565b60408051601f198184030181529190526020810180516001600160e01b03166001600160e01b0319909316929092179091526102da565b505050565b60006060836001600160a01b0316836040516102f69190610420565b6000604051808303816000865af19150503d8060008114610333576040519150601f19603f3d011682016040523d82523d6000602084013e610338565b606091505b50915091508161035a5760405162461bcd60e51b81526004016100fe906104ad565b80511561039157808060200190518101906103759190610400565b6103915760405162461bcd60e51b81526004016100fe9061052c565b50505050565b80356001600160a01b03811681146103ae57600080fd5b92915050565b6000602082840312156103c5578081fd5b6103cf8383610397565b9392505050565b600080604083850312156103e8578081fd5b6103f28484610397565b946020939093013593505050565b600060208284031215610411578081fd5b815180151581146103cf578182fd5b60008251815b818110156104405760208186018101518583015201610426565b8181111561044e5782828501525b509190910192915050565b6001600160a01b0391909116815260200190565b6001600160a01b03929092168252602082015260400190565b6020808252600d908201526c494e56414c49445f434c41494d60981b604082015260600190565b6020808252818101527f5361666545524332303a206c6f772d6c6576656c2063616c6c206661696c6564604082015260600190565b6020808252600d908201526c24a72b20a624a22fa7aba722a960991b604082015260600190565b6020808252600990820152682727aa2fa7aba722a960b91b604082015260600190565b6020808252602a908201527f5361666545524332303a204552433230206f7065726174696f6e20646964206e6040820152691bdd081cdd58d8d9595960b21b60608201526080019056fea2646970667358221220571492f465f1838209fdc9c7a0d225aeaf9031b97912954fe5769d0c814be27964736f6c63430006090033",
  "immutableReferences": {},
  "source": "/*\n\n    Copyright 2020 Para ZOO.\n    SPDX-License-Identifier: Apache-2.0\n\n*/\n\npragma solidity 0.6.9;\npragma experimental ABIEncoderV2;\n\nimport {Ownable} from \"../lib/Ownable.sol\";\nimport {DecimalMath} from \"../lib/DecimalMath.sol\";\nimport {SafeERC20} from \"../lib/SafeERC20.sol\";\nimport {SafeMath} from \"../lib/SafeMath.sol\";\nimport {IERC20} from \"../interface/IERC20.sol\";\nimport {IParaRewardVault, ParaRewardVault} from \"./ParaRewardVault.sol\";\n\n\ncontract ParaMine is Ownable {\n    using SafeMath for uint256;\n    using SafeERC20 for IERC20;\n\n    // Info of each user.\n    struct UserInfo {\n        uint256 amount; // How many LP tokens the user has provided.\n        uint256 rewardDebt; // Reward debt. See explanation below.\n        //\n        // We do some fancy math here. Basically, any point in time, the amount of Paras\n        // entitled to a user but is pending to be distributed is:\n        //\n        //   pending reward = (user.amount * pool.accParaPerShare) - user.rewardDebt\n        //\n        // Whenever a user deposits or withdraws LP tokens to a pool. Here's what happens:\n        //   1. The pool's `accParaPerShare` (and `lastRewardBlock`) gets updated.\n        //   2. User receives the pending reward sent to his/her address.\n        //   3. User's `amount` gets updated.\n        //   4. User's `rewardDebt` gets updated.\n    }\n\n    // Info of each pool.\n    struct PoolInfo {\n        address lpToken; // Address of LP token contract.\n        uint256 allocPoint; // How many allocation points assigned to this pool. Paras to distribute per block.\n        uint256 lastRewardBlock; // Last block number that Paras distribution occurs.\n        uint256 accParaPerShare; // Accumulated Paras per share, times 1e12. See below.\n    }\n\n    address public paraRewardVault;\n    uint256 public paraPerBlock;\n\n    // Info of each pool.\n    PoolInfo[] public poolInfos;\n    mapping(address => uint256) public lpTokenRegistry;\n\n    // Info of each user that stakes LP tokens.\n    mapping(uint256 => mapping(address => UserInfo)) public userInfo;\n    mapping(address => uint256) public realizedReward;\n\n    // Total allocation points. Must be the sum of all allocation points in all pools.\n    uint256 public totalAllocPoint = 0;\n    // The block number when Para mining starts.\n    uint256 public startBlock;\n\n    event Deposit(address indexed user, uint256 indexed pid, uint256 amount);\n    event Withdraw(address indexed user, uint256 indexed pid, uint256 amount);\n    event Claim(address indexed user, uint256 amount);\n\n    constructor(address _paraToken, uint256 _startBlock) public {\n        paraRewardVault = address(new ParaRewardVault(_paraToken));\n        startBlock = _startBlock;\n    }\n\n    // ============ Modifiers ============\n\n    modifier lpTokenExist(address lpToken) {\n        require(lpTokenRegistry[lpToken] > 0, \"LP Token Not Exist\");\n        _;\n    }\n\n    modifier lpTokenNotExist(address lpToken) {\n        require(lpTokenRegistry[lpToken] == 0, \"LP Token Already Exist\");\n        _;\n    }\n\n    // ============ Helper ============\n\n    function poolLength() external view returns (uint256) {\n        return poolInfos.length;\n    }\n\n    function getPid(address _lpToken) public view lpTokenExist(_lpToken) returns (uint256) {\n        return lpTokenRegistry[_lpToken] - 1;\n    }\n\n    function getUserLpBalance(address _lpToken, address _user) public view returns (uint256) {\n        uint256 pid = getPid(_lpToken);\n        return userInfo[pid][_user].amount;\n    }\n\n    // ============ Ownable ============\n\n    function addLpToken(\n        address _lpToken,\n        uint256 _allocPoint,\n        bool _withUpdate\n    ) public lpTokenNotExist(_lpToken) onlyOwner {\n        if (_withUpdate) {\n            massUpdatePools();\n        }\n        uint256 lastRewardBlock = block.number > startBlock ? block.number : startBlock;\n        totalAllocPoint = totalAllocPoint.add(_allocPoint);\n        poolInfos.push(\n            PoolInfo({\n                lpToken: _lpToken,\n                allocPoint: _allocPoint,\n                lastRewardBlock: lastRewardBlock,\n                accParaPerShare: 0\n            })\n        );\n        lpTokenRegistry[_lpToken] = poolInfos.length;\n    }\n\n    function setLpToken(\n        address _lpToken,\n        uint256 _allocPoint,\n        bool _withUpdate\n    ) public onlyOwner {\n        if (_withUpdate) {\n            massUpdatePools();\n        }\n        uint256 pid = getPid(_lpToken);\n        totalAllocPoint = totalAllocPoint.sub(poolInfos[pid].allocPoint).add(_allocPoint);\n        poolInfos[pid].allocPoint = _allocPoint;\n    }\n\n    function setReward(uint256 _paraPerBlock, bool _withUpdate) external onlyOwner {\n        if (_withUpdate) {\n            massUpdatePools();\n        }\n        paraPerBlock = _paraPerBlock;\n    }\n\n    // ============ View Rewards ============\n\n    function getPendingReward(address _lpToken, address _user) external view returns (uint256) {\n        uint256 pid = getPid(_lpToken);\n        PoolInfo storage pool = poolInfos[pid];\n        UserInfo storage user = userInfo[pid][_user];\n        uint256 accParaPerShare = pool.accParaPerShare;\n        uint256 lpSupply = IERC20(pool.lpToken).balanceOf(address(this));\n        if (block.number > pool.lastRewardBlock && lpSupply != 0) {\n            uint256 ParaReward = block\n                .number\n                .sub(pool.lastRewardBlock)\n                .mul(paraPerBlock)\n                .mul(pool.allocPoint)\n                .div(totalAllocPoint);\n            accParaPerShare = accParaPerShare.add(DecimalMath.divFloor(ParaReward, lpSupply));\n        }\n        return DecimalMath.mul(user.amount, accParaPerShare).sub(user.rewardDebt);\n    }\n\n    function getAllPendingReward(address _user) external view returns (uint256) {\n        uint256 length = poolInfos.length;\n        uint256 totalReward = 0;\n        for (uint256 pid = 0; pid < length; ++pid) {\n            if (userInfo[pid][_user].amount == 0 || poolInfos[pid].allocPoint == 0) {\n                continue; // save gas\n            }\n            PoolInfo storage pool = poolInfos[pid];\n            UserInfo storage user = userInfo[pid][_user];\n            uint256 accParaPerShare = pool.accParaPerShare;\n            uint256 lpSupply = IERC20(pool.lpToken).balanceOf(address(this));\n            if (block.number > pool.lastRewardBlock && lpSupply != 0) {\n                uint256 ParaReward = block\n                    .number\n                    .sub(pool.lastRewardBlock)\n                    .mul(paraPerBlock)\n                    .mul(pool.allocPoint)\n                    .div(totalAllocPoint);\n                accParaPerShare = accParaPerShare.add(DecimalMath.divFloor(ParaReward, lpSupply));\n            }\n            totalReward = totalReward.add(\n                DecimalMath.mul(user.amount, accParaPerShare).sub(user.rewardDebt)\n            );\n        }\n        return totalReward;\n    }\n\n    function getRealizedReward(address _user) external view returns (uint256) {\n        return realizedReward[_user];\n    }\n\n    function getDlpMiningSpeed(address _lpToken) external view returns (uint256) {\n        uint256 pid = getPid(_lpToken);\n        PoolInfo storage pool = poolInfos[pid];\n        return paraPerBlock.mul(pool.allocPoint).div(totalAllocPoint);\n    }\n\n    // ============ Update Pools ============\n\n    // Update reward vairables for all pools. Be careful of gas spending!\n    function massUpdatePools() public {\n        uint256 length = poolInfos.length;\n        for (uint256 pid = 0; pid < length; ++pid) {\n            updatePool(pid);\n        }\n    }\n\n    // Update reward variables of the given pool to be up-to-date.\n    function updatePool(uint256 _pid) public {\n        PoolInfo storage pool = poolInfos[_pid];\n        if (block.number <= pool.lastRewardBlock) {\n            return;\n        }\n        uint256 lpSupply = IERC20(pool.lpToken).balanceOf(address(this));\n        if (lpSupply == 0) {\n            pool.lastRewardBlock = block.number;\n            return;\n        }\n        uint256 ParaReward = block\n            .number\n            .sub(pool.lastRewardBlock)\n            .mul(paraPerBlock)\n            .mul(pool.allocPoint)\n            .div(totalAllocPoint);\n        pool.accParaPerShare = pool.accParaPerShare.add(DecimalMath.divFloor(ParaReward, lpSupply));\n        pool.lastRewardBlock = block.number;\n    }\n\n    // ============ Deposit & Withdraw & Claim ============\n    // Deposit & withdraw will also trigger claim\n\n    function deposit(address _lpToken, uint256 _amount) public {\n        uint256 pid = getPid(_lpToken);\n        PoolInfo storage pool = poolInfos[pid];\n        UserInfo storage user = userInfo[pid][msg.sender];\n        updatePool(pid);\n        if (user.amount > 0) {\n            uint256 pending = DecimalMath.mul(user.amount, pool.accParaPerShare).sub(\n                user.rewardDebt\n            );\n            safeParaTransfer(msg.sender, pending);\n        }\n        IERC20(pool.lpToken).safeTransferFrom(address(msg.sender), address(this), _amount);\n        user.amount = user.amount.add(_amount);\n        user.rewardDebt = DecimalMath.mul(user.amount, pool.accParaPerShare);\n        emit Deposit(msg.sender, pid, _amount);\n    }\n\n    function withdraw(address _lpToken, uint256 _amount) public {\n        uint256 pid = getPid(_lpToken);\n        PoolInfo storage pool = poolInfos[pid];\n        UserInfo storage user = userInfo[pid][msg.sender];\n        require(user.amount >= _amount, \"withdraw too much\");\n        updatePool(pid);\n        uint256 pending = DecimalMath.mul(user.amount, pool.accParaPerShare).sub(user.rewardDebt);\n        safeParaTransfer(msg.sender, pending);\n        user.amount = user.amount.sub(_amount);\n        user.rewardDebt = DecimalMath.mul(user.amount, pool.accParaPerShare);\n        IERC20(pool.lpToken).safeTransfer(address(msg.sender), _amount);\n        emit Withdraw(msg.sender, pid, _amount);\n    }\n\n    function withdrawAll(address _lpToken) public {\n        uint256 balance = getUserLpBalance(_lpToken, msg.sender);\n        withdraw(_lpToken, balance);\n    }\n\n    // Withdraw without caring about rewards. EMERGENCY ONLY.\n    function emergencyWithdraw(address _lpToken) public {\n        uint256 pid = getPid(_lpToken);\n        PoolInfo storage pool = poolInfos[pid];\n        UserInfo storage user = userInfo[pid][msg.sender];\n        IERC20(pool.lpToken).safeTransfer(address(msg.sender), user.amount);\n        user.amount = 0;\n        user.rewardDebt = 0;\n    }\n\n    function claim(address _lpToken) public {\n        uint256 pid = getPid(_lpToken);\n        if (userInfo[pid][msg.sender].amount == 0 || poolInfos[pid].allocPoint == 0) {\n            return; // save gas\n        }\n        PoolInfo storage pool = poolInfos[pid];\n        UserInfo storage user = userInfo[pid][msg.sender];\n        updatePool(pid);\n        uint256 pending = DecimalMath.mul(user.amount, pool.accParaPerShare).sub(user.rewardDebt);\n        user.rewardDebt = DecimalMath.mul(user.amount, pool.accParaPerShare);\n        safeParaTransfer(msg.sender, pending);\n    }\n\n    function claimAll() public {\n        uint256 length = poolInfos.length;\n        uint256 pending = 0;\n        for (uint256 pid = 0; pid < length; ++pid) {\n            if (userInfo[pid][msg.sender].amount == 0 || poolInfos[pid].allocPoint == 0) {\n                continue; // save gas\n            }\n            PoolInfo storage pool = poolInfos[pid];\n            UserInfo storage user = userInfo[pid][msg.sender];\n            updatePool(pid);\n            pending = pending.add(\n                DecimalMath.mul(user.amount, pool.accParaPerShare).sub(user.rewardDebt)\n            );\n            user.rewardDebt = DecimalMath.mul(user.amount, pool.accParaPerShare);\n        }\n        safeParaTransfer(msg.sender, pending);\n    }\n\n    // Safe Para transfer function\n    function safeParaTransfer(address _to, uint256 _amount) internal {\n        IParaRewardVault(paraRewardVault).reward(_to, _amount);\n        realizedReward[_to] = realizedReward[_to].add(_amount);\n        emit Claim(_to, _amount);\n    }\n}\n",
  "sourcePath": "/Users/daniel/Codes/parapara/para_dapp_v6/contracts/mining/ParaMine.sol",
  "compiler": {
    "name": "solc",
    "version": "0.6.9+commit.3e3065ac.Emscripten.clang"
  },
  "schemaVersion": "3.3.4",
  "updatedAt": "2021-03-26T06:46:20.131Z",
  "devdoc": {
    "methods": {}
  },
  "userdoc": {
    "methods": {}
  }
}