{
  "contractName": "ParaPlace",
  "abi": [
    {
      "inputs": [
        {
          "internalType": "address",
          "name": "_paraLogic",
          "type": "address"
        },
        {
          "internalType": "address",
          "name": "_adminLogic",
          "type": "address"
        },
        {
          "internalType": "address",
          "name": "_pricingLogic",
          "type": "address"
        },
        {
          "internalType": "address",
          "name": "_cloneFactory",
          "type": "address"
        },
        {
          "internalType": "address",
          "name": "_defaultSupervisor",
          "type": "address"
        }
      ],
      "stateMutability": "nonpayable",
      "type": "constructor"
    },
    {
      "anonymous": false,
      "inputs": [
        {
          "indexed": true,
          "internalType": "address",
          "name": "previousOwner",
          "type": "address"
        },
        {
          "indexed": true,
          "internalType": "address",
          "name": "newOwner",
          "type": "address"
        }
      ],
      "name": "OwnershipTransferPrepared",
      "type": "event"
    },
    {
      "anonymous": false,
      "inputs": [
        {
          "indexed": true,
          "internalType": "address",
          "name": "previousOwner",
          "type": "address"
        },
        {
          "indexed": true,
          "internalType": "address",
          "name": "newOwner",
          "type": "address"
        }
      ],
      "name": "OwnershipTransferred",
      "type": "event"
    },
    {
      "anonymous": false,
      "inputs": [
        {
          "indexed": false,
          "internalType": "address",
          "name": "newBorn",
          "type": "address"
        },
        {
          "indexed": false,
          "internalType": "address",
          "name": "oracle",
          "type": "address"
        }
      ],
      "name": "ParaBirth",
      "type": "event"
    },
    {
      "inputs": [],
      "name": "_ADMIN_LOGIC_",
      "outputs": [
        {
          "internalType": "address",
          "name": "",
          "type": "address"
        }
      ],
      "stateMutability": "view",
      "type": "function"
    },
    {
      "inputs": [],
      "name": "_CLONE_FACTORY_",
      "outputs": [
        {
          "internalType": "address",
          "name": "",
          "type": "address"
        }
      ],
      "stateMutability": "view",
      "type": "function"
    },
    {
      "inputs": [],
      "name": "_DEFAULT_SUPERVISOR_",
      "outputs": [
        {
          "internalType": "address",
          "name": "",
          "type": "address"
        }
      ],
      "stateMutability": "view",
      "type": "function"
    },
    {
      "inputs": [],
      "name": "_NEW_OWNER_",
      "outputs": [
        {
          "internalType": "address",
          "name": "",
          "type": "address"
        }
      ],
      "stateMutability": "view",
      "type": "function"
    },
    {
      "inputs": [],
      "name": "_OWNER_",
      "outputs": [
        {
          "internalType": "address",
          "name": "",
          "type": "address"
        }
      ],
      "stateMutability": "view",
      "type": "function"
    },
    {
      "inputs": [
        {
          "internalType": "uint256",
          "name": "",
          "type": "uint256"
        }
      ],
      "name": "_PARAS",
      "outputs": [
        {
          "internalType": "address",
          "name": "",
          "type": "address"
        }
      ],
      "stateMutability": "view",
      "type": "function"
    },
    {
      "inputs": [],
      "name": "_PARA_LOGIC_",
      "outputs": [
        {
          "internalType": "address",
          "name": "",
          "type": "address"
        }
      ],
      "stateMutability": "view",
      "type": "function"
    },
    {
      "inputs": [],
      "name": "_PRICING_LOGIC_",
      "outputs": [
        {
          "internalType": "address",
          "name": "",
          "type": "address"
        }
      ],
      "stateMutability": "view",
      "type": "function"
    },
    {
      "inputs": [],
      "name": "claimOwnership",
      "outputs": [],
      "stateMutability": "nonpayable",
      "type": "function"
    },
    {
      "inputs": [
        {
          "internalType": "address",
          "name": "newOwner",
          "type": "address"
        }
      ],
      "name": "transferOwnership",
      "outputs": [],
      "stateMutability": "nonpayable",
      "type": "function"
    },
    {
      "inputs": [
        {
          "internalType": "address",
          "name": "_paraLogic",
          "type": "address"
        }
      ],
      "name": "setParaLogic",
      "outputs": [],
      "stateMutability": "nonpayable",
      "type": "function"
    },
    {
      "inputs": [
        {
          "internalType": "address",
          "name": "_adminLogic",
          "type": "address"
        }
      ],
      "name": "setAdminLogic",
      "outputs": [],
      "stateMutability": "nonpayable",
      "type": "function"
    },
    {
      "inputs": [
        {
          "internalType": "address",
          "name": "_pricingLogic",
          "type": "address"
        }
      ],
      "name": "setPricingLogic",
      "outputs": [],
      "stateMutability": "nonpayable",
      "type": "function"
    },
    {
      "inputs": [
        {
          "internalType": "address",
          "name": "_cloneFactory",
          "type": "address"
        }
      ],
      "name": "setCloneFactory",
      "outputs": [],
      "stateMutability": "nonpayable",
      "type": "function"
    },
    {
      "inputs": [
        {
          "internalType": "address",
          "name": "_defaultSupervisor",
          "type": "address"
        }
      ],
      "name": "setDefaultSupervisor",
      "outputs": [],
      "stateMutability": "nonpayable",
      "type": "function"
    },
    {
      "inputs": [
        {
          "internalType": "address",
          "name": "admin",
          "type": "address"
        },
        {
          "internalType": "address",
          "name": "para",
          "type": "address"
        }
      ],
      "name": "removePara",
      "outputs": [],
      "stateMutability": "nonpayable",
      "type": "function"
    },
    {
      "inputs": [
        {
          "internalType": "address",
          "name": "admin",
          "type": "address"
        },
        {
          "internalType": "address",
          "name": "para",
          "type": "address"
        }
      ],
      "name": "addPara",
      "outputs": [],
      "stateMutability": "nonpayable",
      "type": "function"
    },
    {
      "inputs": [
        {
          "internalType": "address",
          "name": "maintainer",
          "type": "address"
        },
        {
          "internalType": "address",
          "name": "collateralToken",
          "type": "address"
        },
        {
          "internalType": "address",
          "name": "oracle",
          "type": "address"
        },
        {
          "internalType": "string",
          "name": "tokenName",
          "type": "string"
        },
        {
          "internalType": "uint256",
          "name": "lpFeeRate",
          "type": "uint256"
        },
        {
          "internalType": "uint256",
          "name": "mtFeeRate",
          "type": "uint256"
        },
        {
          "internalType": "uint256",
          "name": "k",
          "type": "uint256"
        },
        {
          "internalType": "uint256",
          "name": "gasPriceLimit",
          "type": "uint256"
        }
      ],
      "name": "breedPara",
      "outputs": [
        {
          "internalType": "address",
          "name": "newBornAdmin",
          "type": "address"
        },
        {
          "internalType": "address",
          "name": "newBornPara",
          "type": "address"
        }
      ],
      "stateMutability": "nonpayable",
      "type": "function"
    },
    {
      "inputs": [
        {
          "internalType": "address",
          "name": "oracle",
          "type": "address"
        }
      ],
      "name": "isParaRegistered",
      "outputs": [
        {
          "internalType": "bool",
          "name": "",
          "type": "bool"
        }
      ],
      "stateMutability": "view",
      "type": "function"
    },
    {
      "inputs": [
        {
          "internalType": "address",
          "name": "oracle",
          "type": "address"
        }
      ],
      "name": "getPara",
      "outputs": [
        {
          "internalType": "address",
          "name": "",
          "type": "address"
        }
      ],
      "stateMutability": "view",
      "type": "function"
    },
    {
      "inputs": [],
      "name": "getParas",
      "outputs": [
        {
          "internalType": "address[]",
          "name": "",
          "type": "address[]"
        }
      ],
      "stateMutability": "view",
      "type": "function"
    }
  ],
  "bytecode": "0x60806040523480156200001157600080fd5b5060405162001360380380620013608339810160408190526200003491620000e0565b600080546001600160a01b03191633178082556040516001600160a01b039190911691907f8be0079c531659141344cd1fd0a4f28419497f9722a3daafe3b4186f6b6457e0908290a3600280546001600160a01b03199081166001600160a01b0397881617909155600380548216958716959095179094556005805485169386169390931790925560048054841691851691909117905560068054909216921691909117905562000178565b600080600080600060a08688031215620000f8578081fd5b855162000105816200015f565b602087015190955062000118816200015f565b60408701519094506200012b816200015f565b60608701519093506200013e816200015f565b608087015190925062000151816200015f565b809150509295509295909350565b6001600160a01b03811681146200017557600080fd5b50565b6111d880620001886000396000f3fe608060405234801561001057600080fd5b50600436106101375760003560e01c80638456db15116100b8578063da78469d1161007c578063da78469d14610241578063e0008a7f14610254578063eb774d0514610267578063eef55d3d1461026f578063f2fde38b14610282578063fe6775d81461029557610137565b80638456db15146101dd57806396809a20146101e55780639796e97a146101ed578063c002f1481461020d578063c895f3ef1461022e57610137565b80633e73d4b4116100ff5780633e73d4b4146101925780634e71e0c81461019a5780634f4e6eea146101a45780636c8df240146101b757806380d03cac146101ca57610137565b80630f3115cd1461013c57806316048bc414610165578063233b31a11461016d5780632b8f702d1461017557806332be502c1461018a575b600080fd5b61014f61014a366004610f32565b6102a8565b60405161015c9190610f4a565b60405180910390f35b61014f6102cf565b61014f6102de565b61017d6102ed565b60405161015c919061103d565b61014f61034f565b61014f61035e565b6101a261036d565b005b6101a26101b2366004610dc6565b610404565b61014f6101c5366004610dc6565b610450565b6101a26101d8366004610e05565b610471565b61014f6106e4565b61014f6106f3565b6102006101fb366004610dc6565b610702565b60405161015c919061108a565b61022061021b366004610e3d565b610733565b60405161015c929190610f5e565b6101a261023c366004610dc6565b610aac565b6101a261024f366004610e05565b610af8565b6101a2610262366004610dc6565b610c28565b61014f610c74565b6101a261027d366004610dc6565b610c83565b6101a2610290366004610dc6565b610ccf565b6101a26102a3366004610dc6565b610d7a565b600881815481106102b557fe5b6000918252602090912001546001600160a01b0316905081565b6000546001600160a01b031681565b6005546001600160a01b031681565b6060600880548060200260200160405190810160405280929190818152602001828054801561034557602002820191906000526020600020905b81546001600160a01b03168152600190910190602001808311610327575b5050505050905090565b6003546001600160a01b031681565b6006546001600160a01b031681565b6001546001600160a01b031633146103a05760405162461bcd60e51b815260040161039790611095565b60405180910390fd5b600154600080546040516001600160a01b0393841693909116917f8be0079c531659141344cd1fd0a4f28419497f9722a3daafe3b4186f6b6457e091a360018054600080546001600160a01b03199081166001600160a01b03841617909155169055565b6000546001600160a01b0316331461042e5760405162461bcd60e51b815260040161039790611167565b600480546001600160a01b0319166001600160a01b0392909216919091179055565b6001600160a01b03808216600090815260076020526040902054165b919050565b6000546001600160a01b0316331461049b5760405162461bcd60e51b815260040161039790611167565b816001600160a01b0316816001600160a01b0316632a0acc6a6040518163ffffffff1660e01b8152600401602060405180830381600087803b1580156104e057600080fd5b505af11580156104f4573d6000803e3d6000fd5b505050506040513d601f19601f820116820180604052508101906105189190610de9565b6001600160a01b03161461053e5760405162461bcd60e51b8152600401610397906110e5565b6000826001600160a01b03166373a2ab7c6040518163ffffffff1660e01b815260040160206040518083038186803b15801561057957600080fd5b505afa15801561058d573d6000803e3d6000fd5b505050506040513d601f19601f820116820180604052508101906105b19190610de9565b90506105bc81610702565b6105d85760405162461bcd60e51b815260040161039790611113565b6001600160a01b038116600090815260076020526040812080546001600160a01b03191690555b6008546000190181116106de57826001600160a01b03166008828154811061062357fe5b6000918252602090912001546001600160a01b031614156106d65760088054600019810190811061065057fe5b600091825260209091200154600880546001600160a01b03909216918390811061067657fe5b9060005260206000200160006101000a8154816001600160a01b0302191690836001600160a01b0316021790555060088054806106af57fe5b600082815260209020810160001990810180546001600160a01b03191690550190556106de565b6001016105ff565b50505050565b6001546001600160a01b031681565b6002546001600160a01b031681565b6001600160a01b0381811660009081526007602052604081205490911661072b5750600061046c565b50600161046c565b6000805481906001600160a01b031633146107605760405162461bcd60e51b815260040161039790611167565b61076988610702565b156107865760405162461bcd60e51b8152600401610397906110bc565b600480546003546040516340925bc760e11b81526001600160a01b0392831693638124b78e936107b893169101610f4a565b602060405180830381600087803b1580156107d257600080fd5b505af11580156107e6573d6000803e3d6000fd5b505050506040513d601f19601f8201168201806040525081019061080a9190610de9565b60005460065460405163e5ca3ca360e01b81529294506001600160a01b038086169363e5ca3ca393610852939083169216908f908f908f908e908e908e908e90600401610f78565b600060405180830381600087803b15801561086c57600080fd5b505af1158015610880573d6000803e3d6000fd5b5050600480546005546040516340925bc760e11b8152600095506001600160a01b039283169450638124b78e936108bb939092169101610f4a565b602060405180830381600087803b1580156108d557600080fd5b505af11580156108e9573d6000803e3d6000fd5b505050506040513d601f19601f8201168201806040525081019061090d9190610de9565b600480546002546040516340925bc760e11b81529394506001600160a01b0391821693638124b78e93610944939092169101610f4a565b602060405180830381600087803b15801561095e57600080fd5b505af1158015610972573d6000803e3d6000fd5b505050506040513d601f19601f820116820180604052508101906109969190610de9565b60405163784d200b60e11b81529092506001600160a01b0382169063f09a4016906109c79085908790600401610f5e565b600060405180830381600087803b1580156109e157600080fd5b505af11580156109f5573d6000803e3d6000fd5b5050604051635c9a6d3760e01b81526001600160a01b0385169250635c9a6d379150610a2990869085908d90600401610fce565b600060405180830381600087803b158015610a4357600080fd5b505af1158015610a57573d6000803e3d6000fd5b50505050610a658383610af8565b7fc489c2a8b3839ef5ec27bcef87b79bc9d87546add292da4da8656804847f8516828a604051610a96929190610f5e565b60405180910390a1509850989650505050505050565b6000546001600160a01b03163314610ad65760405162461bcd60e51b815260040161039790611167565b600280546001600160a01b0319166001600160a01b0392909216919091179055565b6000546001600160a01b03163314610b225760405162461bcd60e51b815260040161039790611167565b6000826001600160a01b03166373a2ab7c6040518163ffffffff1660e01b815260040160206040518083038186803b158015610b5d57600080fd5b505afa158015610b71573d6000803e3d6000fd5b505050506040513d601f19601f82011682018060405250810190610b959190610de9565b9050610ba081610702565b15610bbd5760405162461bcd60e51b8152600401610397906110bc565b6001600160a01b0390811660009081526007602052604081208054929093166001600160a01b031992831681179093556008805460018101825591527ff3f7a9fe364faab93b216da50a3214154f22a0a2b415b23a84c8169e8b636ee3018054909116909117905550565b6000546001600160a01b03163314610c525760405162461bcd60e51b815260040161039790611167565b600380546001600160a01b0319166001600160a01b0392909216919091179055565b6004546001600160a01b031681565b6000546001600160a01b03163314610cad5760405162461bcd60e51b815260040161039790611167565b600680546001600160a01b0319166001600160a01b0392909216919091179055565b6000546001600160a01b03163314610cf95760405162461bcd60e51b815260040161039790611167565b6001600160a01b038116610d1f5760405162461bcd60e51b815260040161039790611140565b600080546040516001600160a01b03808516939216917fdcf55418cee3220104fef63f979ff3c4097ad240c0c43dcb33ce837748983e6291a3600180546001600160a01b0319166001600160a01b0392909216919091179055565b6000546001600160a01b03163314610da45760405162461bcd60e51b815260040161039790611167565b600580546001600160a01b0319166001600160a01b0392909216919091179055565b600060208284031215610dd7578081fd5b8135610de28161118a565b9392505050565b600060208284031215610dfa578081fd5b8151610de28161118a565b60008060408385031215610e17578081fd5b8235610e228161118a565b91506020830135610e328161118a565b809150509250929050565b600080600080600080600080610100898b031215610e59578384fd5b8835610e648161118a565b9750602089810135610e758161118a565b975060408a0135610e858161118a565b965060608a013567ffffffffffffffff80821115610ea1578687fd5b818c018d601f820112610eb2578788fd5b8035925081831115610ec2578788fd5b604051601f8401601f1916810185018381118282101715610ee157898afd5b60405283815281840185018f1015610ef7578889fd5b838583018683013792830190930196909652989b979a50959860808101359760a0820135975060c0820135965060e090910135945092505050565b600060208284031215610f43578081fd5b5035919050565b6001600160a01b0391909116815260200190565b6001600160a01b0392831681529116602082015260400190565b6001600160a01b03998a16815297891660208901529588166040880152938716606087015291909516608085015260a084019490945260c083019390935260e08201929092526101008101919091526101200190565b600060018060a01b0380861683526020818616818501526060604085015284519150816060850152825b8281101561101457858101820151858201608001528101610ff8565b828111156110255783608084870101525b5050601f01601f191691909101608001949350505050565b6020808252825182820181905260009190848201906040850190845b8181101561107e5783516001600160a01b031683529284019291840191600101611059565b50909695505050505050565b901515815260200190565b6020808252600d908201526c494e56414c49445f434c41494d60981b604082015260600190565b6020808252600f908201526e14185c9857d49151d254d511549151608a1b604082015260600190565b602080825260149082015273082889a929cbea082a482be9c9ea8be9a82a886960631b604082015260600190565b60208082526013908201527214185c9857d393d517d49151d254d511549151606a1b604082015260600190565b6020808252600d908201526c24a72b20a624a22fa7aba722a960991b604082015260600190565b6020808252600990820152682727aa2fa7aba722a960b91b604082015260600190565b6001600160a01b038116811461119f57600080fd5b5056fea264697066735822122020f0b91f6fba38ce230e7a3c58f5f65805372d5c004df961a173ae21d2c2afcb64736f6c63430006090033",
  "immutableReferences": {},
  "source": "/*\n\n    Copyright 2020 Para ZOO.\n    SPDX-License-Identifier: Apache-2.0\n\n*/\n\npragma solidity 0.6.9;\npragma experimental ABIEncoderV2;\n\nimport {Ownable} from \"./lib/Ownable.sol\";\nimport {IPara} from \"./interface/IPara.sol\";\nimport {IAdmin} from \"./interface/IAdmin.sol\";\nimport {ICloneFactory} from \"./helper/CloneFactory.sol\";\nimport {Admin} from \"./admin/Admin.sol\";\nimport {Pricing} from \"./perpetual/Pricing.sol\";\n\n/**\n * @title ParaPlace\n * @author Parapara\n *\n * @notice Register of All paras\n */\ncontract ParaPlace is Ownable {\n    address public _PARA_LOGIC_;\n    address public _ADMIN_LOGIC_;\n    address public _CLONE_FACTORY_;\n    address public _PRICING_LOGIC_;\n\n    address public _DEFAULT_SUPERVISOR_;\n\n    mapping(address => address) internal _PARA_REGISTER_;\n    address[] public _PARAS;\n\n    // ============ Events ============\n\n    event ParaBirth(address newBorn, address oracle);\n\n    // ============ Constructor Function ============\n\n    constructor(\n        address _paraLogic,\n        address _adminLogic,\n        address _pricingLogic,\n        address _cloneFactory,\n        address _defaultSupervisor\n    ) public {\n        _PARA_LOGIC_ = _paraLogic;\n        _ADMIN_LOGIC_ = _adminLogic;\n        _PRICING_LOGIC_ = _pricingLogic;\n        _CLONE_FACTORY_ = _cloneFactory;\n        _DEFAULT_SUPERVISOR_ = _defaultSupervisor;\n    }\n\n    // ============ admin Function ============\n\n    function setParaLogic(address _paraLogic) external onlyOwner {\n        _PARA_LOGIC_ = _paraLogic;\n    }\n\n    function setAdminLogic(address _adminLogic) external onlyOwner {\n        _ADMIN_LOGIC_ = _adminLogic;\n    }\n\n    function setPricingLogic(address _pricingLogic) external onlyOwner {\n        _PRICING_LOGIC_ = _pricingLogic;\n    }\n\n    function setCloneFactory(address _cloneFactory) external onlyOwner {\n        _CLONE_FACTORY_ = _cloneFactory;\n    }\n\n    function setDefaultSupervisor(address _defaultSupervisor)\n        external\n        onlyOwner\n    {\n        _DEFAULT_SUPERVISOR_ = _defaultSupervisor;\n    }\n\n    function removePara(address admin, address para) external onlyOwner {\n        require(IPara(para).ADMIN() == admin, \"ADMIN_PARA_NOT_MATCH\");\n        address oracle = Admin(admin)._ORACLE_();\n        require(isParaRegistered(oracle), \"Para_NOT_REGISTERED\");\n        _PARA_REGISTER_[oracle] = address(0);\n        for (uint256 i = 0; i <= _PARAS.length - 1; i++) {\n            if (_PARAS[i] == para) {\n                _PARAS[i] = _PARAS[_PARAS.length - 1];\n                _PARAS.pop();\n                break;\n            }\n        }\n    }\n\n    function addPara(address admin, address para) public onlyOwner {\n        address oracle = Admin(admin)._ORACLE_();\n        require(!isParaRegistered(oracle), \"Para_REGISTERED\");\n        _PARA_REGISTER_[oracle] = para;\n        _PARAS.push(para);\n    }\n\n    // ============ Breed Para Function ============\n    function breedPara(\n        address maintainer,\n        address collateralToken,\n        address oracle,\n        string memory tokenName,\n        uint256 lpFeeRate,\n        uint256 mtFeeRate,\n        uint256 k,\n        uint256 gasPriceLimit\n    ) external onlyOwner returns (address newBornAdmin, address newBornPara) {\n        require(!isParaRegistered(oracle), \"Para_REGISTERED\");\n        newBornAdmin = ICloneFactory(_CLONE_FACTORY_).clone(_ADMIN_LOGIC_);\n        Admin(newBornAdmin).init(\n            _OWNER_,\n            _DEFAULT_SUPERVISOR_,\n            maintainer,\n            collateralToken,\n            oracle,\n            lpFeeRate,\n            mtFeeRate,\n            k,\n            gasPriceLimit\n        );\n\n        address newBornPricing = ICloneFactory(_CLONE_FACTORY_).clone(_PRICING_LOGIC_);\n        newBornPara = ICloneFactory(_CLONE_FACTORY_).clone(_PARA_LOGIC_);\n\n        Pricing(newBornPricing).init(\n            newBornPara,\n            newBornAdmin\n        );\n\n        IPara(newBornPara).init(\n            newBornAdmin,\n            newBornPricing,\n            tokenName\n        );\n\n        addPara(newBornAdmin, newBornPara);\n        emit ParaBirth(newBornPara, oracle);\n\n    }\n\n    // ============ View Functions ============\n\n    function isParaRegistered(address oracle) public view returns (bool) {\n        if (_PARA_REGISTER_[oracle] == address(0)) {\n            return false;\n        } else {\n            return true;\n        }\n    }\n\n    function getPara(address oracle) external view returns (address) {\n        return _PARA_REGISTER_[oracle];\n    }\n\n    function getParas() external view returns (address[] memory) {\n        return _PARAS;\n    }\n}\n",
  "sourcePath": "/Users/daniel/Codes/parapara/para_dapp_v6/contracts/ParaPlace.sol",
  "compiler": {
    "name": "solc",
    "version": "0.6.9+commit.3e3065ac.Emscripten.clang"
  },
  "schemaVersion": "3.3.4",
  "updatedAt": "2021-03-25T08:51:25.612Z",
  "devdoc": {
    "author": "Parapara",
    "methods": {},
    "title": "ParaPlace"
  },
  "userdoc": {
    "methods": {},
    "notice": "Register of All paras"
  }
}