{
  "contractName": "Para",
  "abi": [
    {
      "anonymous": false,
      "inputs": [
        {
          "indexed": true,
          "internalType": "address",
          "name": "buyer",
          "type": "address"
        },
        {
          "indexed": false,
          "internalType": "uint256",
          "name": "receiveBase",
          "type": "uint256"
        },
        {
          "indexed": false,
          "internalType": "uint256",
          "name": "payQuote",
          "type": "uint256"
        }
      ],
      "name": "BuyBaseToken",
      "type": "event"
    },
    {
      "anonymous": false,
      "inputs": [
        {
          "indexed": true,
          "internalType": "address",
          "name": "maintainer",
          "type": "address"
        },
        {
          "indexed": false,
          "internalType": "bool",
          "name": "isBaseToken",
          "type": "bool"
        },
        {
          "indexed": false,
          "internalType": "uint256",
          "name": "amount",
          "type": "uint256"
        }
      ],
      "name": "ChargeMaintainerFee",
      "type": "event"
    },
    {
      "anonymous": false,
      "inputs": [
        {
          "indexed": true,
          "internalType": "address",
          "name": "user",
          "type": "address"
        },
        {
          "indexed": false,
          "internalType": "uint256",
          "name": "baseTokenAmount",
          "type": "uint256"
        },
        {
          "indexed": false,
          "internalType": "uint256",
          "name": "quoteTokenAmount",
          "type": "uint256"
        }
      ],
      "name": "ClaimAssets",
      "type": "event"
    },
    {
      "anonymous": false,
      "inputs": [
        {
          "indexed": true,
          "internalType": "address",
          "name": "trader",
          "type": "address"
        },
        {
          "indexed": false,
          "internalType": "uint256",
          "name": "amount",
          "type": "uint256"
        },
        {
          "indexed": false,
          "internalType": "int256",
          "name": "balance",
          "type": "int256"
        }
      ],
      "name": "Deposit",
      "type": "event"
    },
    {
      "anonymous": false,
      "inputs": [
        {
          "indexed": false,
          "internalType": "uint256",
          "name": "amount",
          "type": "uint256"
        }
      ],
      "name": "Donate",
      "type": "event"
    },
    {
      "anonymous": false,
      "inputs": [
        {
          "indexed": true,
          "internalType": "address",
          "name": "trader",
          "type": "address"
        },
        {
          "indexed": false,
          "internalType": "int256",
          "name": "amount",
          "type": "int256"
        },
        {
          "indexed": false,
          "internalType": "int256",
          "name": "balanceAfter",
          "type": "int256"
        }
      ],
      "name": "InternalUpdateBalance",
      "type": "event"
    },
    {
      "anonymous": false,
      "inputs": [
        {
          "indexed": true,
          "internalType": "address",
          "name": "trader",
          "type": "address"
        },
        {
          "indexed": true,
          "internalType": "address",
          "name": "liquidator",
          "type": "address"
        },
        {
          "indexed": false,
          "internalType": "enum Types.Side",
          "name": "liquidationSide",
          "type": "uint8"
        },
        {
          "indexed": false,
          "internalType": "uint256",
          "name": "liquidationValue",
          "type": "uint256"
        },
        {
          "indexed": false,
          "internalType": "uint256",
          "name": "liquidationAmount",
          "type": "uint256"
        }
      ],
      "name": "Liquidate",
      "type": "event"
    },
    {
      "anonymous": false,
      "inputs": [
        {
          "indexed": true,
          "internalType": "address",
          "name": "payer",
          "type": "address"
        },
        {
          "indexed": true,
          "internalType": "address",
          "name": "receiver",
          "type": "address"
        },
        {
          "indexed": false,
          "internalType": "uint256",
          "name": "amount",
          "type": "uint256"
        },
        {
          "indexed": false,
          "internalType": "uint256",
          "name": "lpTokenAmount",
          "type": "uint256"
        }
      ],
      "name": "LpDeposit",
      "type": "event"
    },
    {
      "anonymous": false,
      "inputs": [
        {
          "indexed": true,
          "internalType": "address",
          "name": "payer",
          "type": "address"
        },
        {
          "indexed": true,
          "internalType": "address",
          "name": "receiver",
          "type": "address"
        },
        {
          "indexed": false,
          "internalType": "uint256",
          "name": "amount",
          "type": "uint256"
        },
        {
          "indexed": false,
          "internalType": "uint256",
          "name": "lpTokenAmount",
          "type": "uint256"
        }
      ],
      "name": "LpWithdraw",
      "type": "event"
    },
    {
      "anonymous": false,
      "inputs": [
        {
          "indexed": true,
          "internalType": "address",
          "name": "previousOwner",
          "type": "address"
        },
        {
          "indexed": true,
          "internalType": "address",
          "name": "newOwner",
          "type": "address"
        }
      ],
      "name": "OwnershipTransferPrepared",
      "type": "event"
    },
    {
      "anonymous": false,
      "inputs": [
        {
          "indexed": true,
          "internalType": "address",
          "name": "previousOwner",
          "type": "address"
        },
        {
          "indexed": true,
          "internalType": "address",
          "name": "newOwner",
          "type": "address"
        }
      ],
      "name": "OwnershipTransferred",
      "type": "event"
    },
    {
      "anonymous": false,
      "inputs": [
        {
          "indexed": true,
          "internalType": "address",
          "name": "seller",
          "type": "address"
        },
        {
          "indexed": false,
          "internalType": "uint256",
          "name": "payBase",
          "type": "uint256"
        },
        {
          "indexed": false,
          "internalType": "uint256",
          "name": "receiveQuote",
          "type": "uint256"
        }
      ],
      "name": "SellBaseToken",
      "type": "event"
    },
    {
      "anonymous": false,
      "inputs": [
        {
          "indexed": true,
          "internalType": "address",
          "name": "trader",
          "type": "address"
        },
        {
          "indexed": false,
          "internalType": "uint256",
          "name": "amount",
          "type": "uint256"
        },
        {
          "indexed": false,
          "internalType": "int256",
          "name": "balance",
          "type": "int256"
        }
      ],
      "name": "Withdraw",
      "type": "event"
    },
    {
      "inputs": [],
      "name": "ADMIN",
      "outputs": [
        {
          "internalType": "contract Admin",
          "name": "",
          "type": "address"
        }
      ],
      "stateMutability": "view",
      "type": "function"
    },
    {
      "inputs": [],
      "name": "PRICING",
      "outputs": [
        {
          "internalType": "contract Pricing",
          "name": "",
          "type": "address"
        }
      ],
      "stateMutability": "view",
      "type": "function"
    },
    {
      "inputs": [],
      "name": "_BASE_BALANCE_",
      "outputs": [
        {
          "internalType": "uint256",
          "name": "",
          "type": "uint256"
        }
      ],
      "stateMutability": "view",
      "type": "function"
    },
    {
      "inputs": [],
      "name": "_COLLATERAL_POOL_TOKEN_",
      "outputs": [
        {
          "internalType": "address",
          "name": "",
          "type": "address"
        }
      ],
      "stateMutability": "view",
      "type": "function"
    },
    {
      "inputs": [
        {
          "internalType": "address",
          "name": "",
          "type": "address"
        }
      ],
      "name": "_MARGIN_ACCOUNT_",
      "outputs": [
        {
          "internalType": "enum Types.Side",
          "name": "SIDE",
          "type": "uint8"
        },
        {
          "internalType": "uint256",
          "name": "SIZE",
          "type": "uint256"
        },
        {
          "internalType": "uint256",
          "name": "ENTRY_VALUE",
          "type": "uint256"
        },
        {
          "internalType": "int256",
          "name": "CASH_BALANCE",
          "type": "int256"
        }
      ],
      "stateMutability": "view",
      "type": "function"
    },
    {
      "inputs": [],
      "name": "_NEW_OWNER_",
      "outputs": [
        {
          "internalType": "address",
          "name": "",
          "type": "address"
        }
      ],
      "stateMutability": "view",
      "type": "function"
    },
    {
      "inputs": [],
      "name": "_OWNER_",
      "outputs": [
        {
          "internalType": "address",
          "name": "",
          "type": "address"
        }
      ],
      "stateMutability": "view",
      "type": "function"
    },
    {
      "inputs": [],
      "name": "_POOL_INSURANCE_BALANCE_",
      "outputs": [
        {
          "internalType": "uint256",
          "name": "",
          "type": "uint256"
        }
      ],
      "stateMutability": "view",
      "type": "function"
    },
    {
      "inputs": [],
      "name": "_POOL_MARGIN_ACCOUNT_",
      "outputs": [
        {
          "internalType": "enum Types.Side",
          "name": "SIDE",
          "type": "uint8"
        },
        {
          "internalType": "uint256",
          "name": "SIZE",
          "type": "uint256"
        },
        {
          "internalType": "uint256",
          "name": "ENTRY_VALUE",
          "type": "uint256"
        },
        {
          "internalType": "int256",
          "name": "CASH_BALANCE",
          "type": "int256"
        }
      ],
      "stateMutability": "view",
      "type": "function"
    },
    {
      "inputs": [],
      "name": "_QUOTE_BALANCE_",
      "outputs": [
        {
          "internalType": "uint256",
          "name": "",
          "type": "uint256"
        }
      ],
      "stateMutability": "view",
      "type": "function"
    },
    {
      "inputs": [],
      "name": "_R_STATUS_",
      "outputs": [
        {
          "internalType": "enum Types.Side",
          "name": "",
          "type": "uint8"
        }
      ],
      "stateMutability": "view",
      "type": "function"
    },
    {
      "inputs": [],
      "name": "_TARGET_BASE_TOKEN_AMOUNT_",
      "outputs": [
        {
          "internalType": "uint256",
          "name": "",
          "type": "uint256"
        }
      ],
      "stateMutability": "view",
      "type": "function"
    },
    {
      "inputs": [],
      "name": "_TARGET_QUOTE_TOKEN_AMOUNT_",
      "outputs": [
        {
          "internalType": "uint256",
          "name": "",
          "type": "uint256"
        }
      ],
      "stateMutability": "view",
      "type": "function"
    },
    {
      "inputs": [
        {
          "components": [
            {
              "internalType": "enum Types.Side",
              "name": "SIDE",
              "type": "uint8"
            },
            {
              "internalType": "uint256",
              "name": "SIZE",
              "type": "uint256"
            },
            {
              "internalType": "uint256",
              "name": "ENTRY_VALUE",
              "type": "uint256"
            },
            {
              "internalType": "int256",
              "name": "CASH_BALANCE",
              "type": "int256"
            }
          ],
          "internalType": "struct Types.MarginAccount",
          "name": "account",
          "type": "tuple"
        },
        {
          "internalType": "uint256",
          "name": "markPrice",
          "type": "uint256"
        }
      ],
      "name": "availableMargin",
      "outputs": [
        {
          "internalType": "int256",
          "name": "",
          "type": "int256"
        }
      ],
      "stateMutability": "view",
      "type": "function"
    },
    {
      "inputs": [
        {
          "components": [
            {
              "internalType": "enum Types.Side",
              "name": "SIDE",
              "type": "uint8"
            },
            {
              "internalType": "uint256",
              "name": "SIZE",
              "type": "uint256"
            },
            {
              "internalType": "uint256",
              "name": "ENTRY_VALUE",
              "type": "uint256"
            },
            {
              "internalType": "int256",
              "name": "CASH_BALANCE",
              "type": "int256"
            }
          ],
          "internalType": "struct Types.MarginAccount",
          "name": "account",
          "type": "tuple"
        }
      ],
      "name": "balanceMargin",
      "outputs": [
        {
          "internalType": "int256",
          "name": "",
          "type": "int256"
        }
      ],
      "stateMutability": "view",
      "type": "function"
    },
    {
      "inputs": [
        {
          "internalType": "uint256",
          "name": "amount",
          "type": "uint256"
        },
        {
          "internalType": "uint256",
          "name": "maxPayQuote",
          "type": "uint256"
        }
      ],
      "name": "buyBaseToken",
      "outputs": [
        {
          "internalType": "uint256",
          "name": "",
          "type": "uint256"
        }
      ],
      "stateMutability": "nonpayable",
      "type": "function"
    },
    {
      "inputs": [],
      "name": "claimOwnership",
      "outputs": [],
      "stateMutability": "nonpayable",
      "type": "function"
    },
    {
      "inputs": [
        {
          "internalType": "address",
          "name": "from",
          "type": "address"
        },
        {
          "internalType": "uint256",
          "name": "amount",
          "type": "uint256"
        }
      ],
      "name": "collateralTraderTransferIn",
      "outputs": [],
      "stateMutability": "nonpayable",
      "type": "function"
    },
    {
      "inputs": [
        {
          "internalType": "address",
          "name": "to",
          "type": "address"
        },
        {
          "internalType": "uint256",
          "name": "amount",
          "type": "uint256"
        }
      ],
      "name": "collateralTraderTransferOut",
      "outputs": [],
      "stateMutability": "nonpayable",
      "type": "function"
    },
    {
      "inputs": [
        {
          "internalType": "uint256",
          "name": "amount",
          "type": "uint256"
        }
      ],
      "name": "depositCollateral",
      "outputs": [],
      "stateMutability": "nonpayable",
      "type": "function"
    },
    {
      "inputs": [
        {
          "internalType": "address",
          "name": "lp",
          "type": "address"
        }
      ],
      "name": "getCollateralPoolTokenBalanceOf",
      "outputs": [
        {
          "internalType": "uint256",
          "name": "",
          "type": "uint256"
        }
      ],
      "stateMutability": "view",
      "type": "function"
    },
    {
      "inputs": [],
      "name": "getPoolMarginCashBalance",
      "outputs": [
        {
          "internalType": "int256",
          "name": "",
          "type": "int256"
        }
      ],
      "stateMutability": "view",
      "type": "function"
    },
    {
      "inputs": [],
      "name": "getPoolMarginEntryValue",
      "outputs": [
        {
          "internalType": "uint256",
          "name": "",
          "type": "uint256"
        }
      ],
      "stateMutability": "view",
      "type": "function"
    },
    {
      "inputs": [],
      "name": "getPoolMarginSide",
      "outputs": [
        {
          "internalType": "enum Types.Side",
          "name": "",
          "type": "uint8"
        }
      ],
      "stateMutability": "view",
      "type": "function"
    },
    {
      "inputs": [],
      "name": "getPoolMarginSize",
      "outputs": [
        {
          "internalType": "uint256",
          "name": "",
          "type": "uint256"
        }
      ],
      "stateMutability": "view",
      "type": "function"
    },
    {
      "inputs": [],
      "name": "getTotalCollateralPoolToken",
      "outputs": [
        {
          "internalType": "uint256",
          "name": "",
          "type": "uint256"
        }
      ],
      "stateMutability": "view",
      "type": "function"
    },
    {
      "inputs": [
        {
          "internalType": "uint256",
          "name": "amount",
          "type": "uint256"
        },
        {
          "internalType": "uint256",
          "name": "markPrice",
          "type": "uint256"
        }
      ],
      "name": "initialMargin",
      "outputs": [
        {
          "internalType": "uint256",
          "name": "",
          "type": "uint256"
        }
      ],
      "stateMutability": "view",
      "type": "function"
    },
    {
      "inputs": [
        {
          "internalType": "address",
          "name": "trader",
          "type": "address"
        }
      ],
      "name": "isSafeMaintain",
      "outputs": [
        {
          "internalType": "bool",
          "name": "",
          "type": "bool"
        }
      ],
      "stateMutability": "view",
      "type": "function"
    },
    {
      "inputs": [
        {
          "components": [
            {
              "internalType": "enum Types.Side",
              "name": "SIDE",
              "type": "uint8"
            },
            {
              "internalType": "uint256",
              "name": "SIZE",
              "type": "uint256"
            },
            {
              "internalType": "uint256",
              "name": "ENTRY_VALUE",
              "type": "uint256"
            },
            {
              "internalType": "int256",
              "name": "CASH_BALANCE",
              "type": "int256"
            }
          ],
          "internalType": "struct Types.MarginAccount",
          "name": "account",
          "type": "tuple"
        },
        {
          "internalType": "uint256",
          "name": "openValue",
          "type": "uint256"
        }
      ],
      "name": "isSafeOpen",
      "outputs": [
        {
          "internalType": "bool",
          "name": "",
          "type": "bool"
        }
      ],
      "stateMutability": "view",
      "type": "function"
    },
    {
      "inputs": [
        {
          "internalType": "address",
          "name": "liquidator",
          "type": "address"
        },
        {
          "internalType": "address",
          "name": "trader",
          "type": "address"
        }
      ],
      "name": "liquidate",
      "outputs": [],
      "stateMutability": "nonpayable",
      "type": "function"
    },
    {
      "inputs": [
        {
          "internalType": "uint256",
          "name": "amount",
          "type": "uint256"
        },
        {
          "internalType": "uint256",
          "name": "markPrice",
          "type": "uint256"
        }
      ],
      "name": "maintenanceMargin",
      "outputs": [
        {
          "internalType": "uint256",
          "name": "",
          "type": "uint256"
        }
      ],
      "stateMutability": "view",
      "type": "function"
    },
    {
      "inputs": [
        {
          "internalType": "uint256",
          "name": "amount",
          "type": "uint256"
        },
        {
          "internalType": "uint256",
          "name": "minReceiveQuote",
          "type": "uint256"
        }
      ],
      "name": "sellBaseToken",
      "outputs": [
        {
          "internalType": "uint256",
          "name": "",
          "type": "uint256"
        }
      ],
      "stateMutability": "nonpayable",
      "type": "function"
    },
    {
      "inputs": [
        {
          "internalType": "address",
          "name": "newOwner",
          "type": "address"
        }
      ],
      "name": "transferOwnership",
      "outputs": [],
      "stateMutability": "nonpayable",
      "type": "function"
    },
    {
      "inputs": [],
      "name": "withdrawAllCollateral",
      "outputs": [],
      "stateMutability": "nonpayable",
      "type": "function"
    },
    {
      "inputs": [
        {
          "internalType": "uint256",
          "name": "amount",
          "type": "uint256"
        }
      ],
      "name": "withdrawCollateral",
      "outputs": [],
      "stateMutability": "nonpayable",
      "type": "function"
    },
    {
      "inputs": [
        {
          "internalType": "address",
          "name": "adminAddress",
          "type": "address"
        },
        {
          "internalType": "address",
          "name": "pricingAddress",
          "type": "address"
        },
        {
          "internalType": "string",
          "name": "tokenName",
          "type": "string"
        }
      ],
      "name": "init",
      "outputs": [],
      "stateMutability": "nonpayable",
      "type": "function"
    }
  ],
  "bytecode": "0x6080604052600e805460ff1916905534801561001a57600080fd5b50614f748061002a6000396000f3fe60806040523480156200001157600080fd5b5060043610620002505760003560e01c806386b9d81f1162000141578063b35b08e911620000bd578063eab5d20e1162000087578063eab5d20e146200049a578063f2fde38b14620004a4578063f5027dd414620004bb578063f9f8eda814620004d2578063fa6a5eae14620004dc5762000250565b8063b35b08e91462000458578063b4cab955146200046f578063bad4a01f1462000479578063d6b4129814620004905762000250565b8063a163805c116200010b578063a163805c146200040c578063a51843ef1462000416578063b192a3eb146200042d578063b1e073661462000437578063b2094fd3146200044e5762000250565b806386b9d81f14620003b85780638bc60bff14620003cf578063901b481014620003eb578063952d7c5714620003f55762000250565b80633887392511620001d15780636112fe2e116200019b5780636112fe2e146200037957806372decd7a146200039057806373749567146200039a5780637c9b8e8914620003a45780638456db1514620003ae5762000250565b806338873925146200032a5780633d23755d14620003415780634e71e0c814620003585780635c9a6d3714620003625762000250565b806322d779cc116200021f57806322d779cc14620002dc578063245c968514620002f55780632a0acc6a14620002ff5780632b32812a1462000309578063319be76014620003135762000250565b80630e23d644146200025557806313ddd8fb146200028457806316048bc414620002aa57806317be952e14620002c3575b600080fd5b6200026c6200026636600462003712565b620004f3565b6040516200027b9190620039ab565b60405180910390f35b6200029b6200029536600462003572565b620005a7565b6040516200027b9190620038c2565b620002b4620006c9565b6040516200027b919062003871565b620002cd620006d8565b6040516200027b9190620038cd565b620002f3620002ed366004620036a9565b620006e1565b005b6200026c620006f1565b620002b4620006f7565b6200026c62000706565b6200026c6200032436600462003730565b6200070c565b6200026c6200033b36600462003776565b62000747565b6200026c6200035236600462003572565b620007e9565b620002f362000871565b620002f362000373366004620035ed565b6200090b565b620002f36200038a3660046200375d565b620009da565b6200026c620009e9565b620002f3620009ef565b6200026c620009fc565b620002b462000a02565b620002f3620003c9366004620035b0565b62000a11565b620003d962000c05565b6040516200027b949392919062003924565b6200026c62000c1a565b6200026c6200040636600462003776565b62000cab565b620002b4620012d7565b6200026c6200042736600462003776565b620012e6565b620002b462001817565b620003d96200044836600462003572565b62001826565b6200026c62001851565b6200026c6200046936600462003776565b62001857565b6200026c620018b8565b620002f36200048a3660046200375d565b620018be565b620002cd620018ca565b6200026c620018d3565b620002f3620004b536600462003572565b620018d9565b6200029b620004cc36600462003730565b6200198a565b6200026c62001a73565b620002f3620004ed366004620036a9565b62001a79565b60035481516020830151604080850151905163a3ffd1cb60e01b81526000946200059f946001600160a01b039091169363a3ffd1cb93620005399382906004016200394f565b60206040518083038186803b1580156200055257600080fd5b505afa15801562000567573d6000803e3d6000fd5b505050506040513d601f19601f820116820180604052508101906200058d9190620036f9565b60608401519063ffffffff62001a8516565b90505b919050565b6000620005b3620034ac565b6001600160a01b038316600090815260096020526040908190208151608081019092528054829060ff166002811115620005e957fe5b6002811115620005f557fe5b815260200160018201548152602001600282015481526020016003820154815250509050620006b6620006b08260200151600360009054906101000a90046001600160a01b03166001600160a01b031663ee27c6896040518163ffffffff1660e01b815260040160206040518083038186803b1580156200067557600080fd5b505afa1580156200068a573d6000803e3d6000fd5b505050506040513d601f19601f82011682018060405250810190620004699190620036f9565b62001ad1565b620006c182620004f3565b139392505050565b6000546001600160a01b031681565b600e5460ff1681565b620006ed828262001b01565b5050565b600b5481565b6002546001600160a01b031681565b60065490565b60006200073e62000726620006b085602001518562000747565b6200073185620004f3565b9063ffffffff62001c0516565b90505b92915050565b60006200073e62000759838562001c51565b600260009054906101000a90046001600160a01b03166001600160a01b03166398a0a53d6040518163ffffffff1660e01b815260040160206040518083038186803b158015620007a857600080fd5b505afa158015620007bd573d6000803e3d6000fd5b505050506040513d601f19601f82011682018060405250810190620007e39190620036f9565b62001c51565b600480546040516370a0823160e01b81526000926001600160a01b03909216916370a08231916200081d9186910162003871565b60206040518083038186803b1580156200083657600080fd5b505afa1580156200084b573d6000803e3d6000fd5b505050506040513d601f19601f820116820180604052508101906200059f9190620036f9565b6001546001600160a01b03163314620008a75760405162461bcd60e51b81526004016200089e9062003a2e565b60405180910390fd5b600154600080546040516001600160a01b0393841693909116917f8be0079c531659141344cd1fd0a4f28419497f9722a3daafe3b4186f6b6457e091a360018054600080546001600160a01b03199081166001600160a01b03841617909155169055565b600154600160a81b900460ff1615620009385760405162461bcd60e51b81526004016200089e9062003a8c565b6001805460ff60a81b1916600160a81b179055600280546001600160a01b038086166001600160a01b031992831617909255600380549285169290911691909117905560405181906200098b90620034d5565b620009979190620039b4565b604051809103906000f080158015620009b4573d6000803e3d6000fd5b50600480546001600160a01b0319166001600160a01b0392909216919091179055505050565b620009e6338262001c7e565b50565b60085490565b620009fa336200217b565b565b600d5481565b6001546001600160a01b031681565b62000a1c81620005a7565b1562000a3c5760405162461bcd60e51b81526004016200089e9062003ce5565b62000a46620034ac565b6001600160a01b038316600090815260096020526040908190208151608081019092528054829060ff16600281111562000a7c57fe5b600281111562000a8857fe5b81526020016001820154815260200160028201548152602001600382015481525050905062000ab6620034ac565b6001600160a01b038316600090815260096020526040908190208151608081019092528054829060ff16600281111562000aec57fe5b600281111562000af857fe5b8152602001600182015481526020016002820154815260200160038201548152505090506000600360009054906101000a90046001600160a01b03166001600160a01b0316634b0301a5836000015184602001516040518363ffffffff1660e01b815260040162000b6b929190620038e4565b60206040518083038186803b15801562000b8457600080fd5b505afa15801562000b99573d6000803e3d6000fd5b505050506040513d601f19601f8201168201806040525081019062000bbf9190620036f9565b905062000bcd83826200198a565b62000bec5760405162461bcd60e51b81526004016200089e9062003b7d565b62000bfe8585838560200151620021cc565b5050505050565b60055460065460075460085460ff9093169284565b6000600460009054906101000a90046001600160a01b03166001600160a01b03166318160ddd6040518163ffffffff1660e01b815260040160206040518083038186803b15801562000c6b57600080fd5b505afa15801562000c80573d6000803e3d6000fd5b505050506040513d601f19601f8201168201806040525081019062000ca69190620036f9565b905090565b600154600090600160a01b900460ff161562000cdb5760405162461bcd60e51b81526004016200089e9062003ae4565b6001805460ff60a01b1916600160a01b1790558262000d0e5760405162461bcd60e51b81526004016200089e9062003ab6565b600260009054906101000a90046001600160a01b03166001600160a01b031663ee3dfe2b6040518163ffffffff1660e01b815260040160006040518083038186803b15801562000d5d57600080fd5b505afa15801562000d72573d6000803e3d6000fd5b50505050600260009054906101000a90046001600160a01b03166001600160a01b031663961a929c6040518163ffffffff1660e01b815260040160006040518083038186803b15801562000dc557600080fd5b505afa15801562000dda573d6000803e3d6000fd5b5050505062000de8620034e3565b60035460405163f0d8a75960e01b8152600091829182916001600160a01b03169063f0d8a7599062000e1f908a90600401620039ab565b6101006040518083038186803b15801562000e3957600080fd5b505afa15801562000e4e573d6000803e3d6000fd5b505050506040513d601f19601f8201168201806040525081019062000e749190620037e7565b8b6020810160408201606083016080840185600281111562000e9257fe5b600281111562000e9e57fe5b905294909452939092525091905252919450925090508583101562000ed75760405162461bcd60e51b81526004016200089e9062003dc0565b62000ee1620034ac565b33600090815260096020526040908190208151608081019092528054829060ff16600281111562000f0e57fe5b600281111562000f1a57fe5b81526020016001820154815260200160028201548152602001600382015481525050905062000f48620034ac565b604080516080810190915260058054829060ff16600281111562000f6857fe5b600281111562000f7457fe5b81526020016001820154815260200160028201548152602001600382015481525050905062000fa482866200198a565b62000fc35760405162461bcd60e51b81526004016200089e9062003bb4565b62000fd2826001878c62002704565b915062000fe3816002878c62002704565b9050831562001027576200100d62000ffb8562001ad1565b60608401519063ffffffff62001c0516565b6060830152620010216200058d8562001ad1565b60608201525b8215620011b5576200103d62000ffb8462001ad1565b606083015262001109620010518462001ad1565b60096000600260009054906101000a90046001600160a01b03166001600160a01b0316634322ec836040518163ffffffff1660e01b815260040160206040518083038186803b158015620010a457600080fd5b505afa158015620010b9573d6000803e3d6000fd5b505050506040513d601f19601f82011682018060405250810190620010df919062003591565b6001600160a01b031681526020810191909152604001600020600301549063ffffffff62001a8516565b60096000600260009054906101000a90046001600160a01b03166001600160a01b0316634322ec836040518163ffffffff1660e01b815260040160206040518083038186803b1580156200115c57600080fd5b505afa15801562001171573d6000803e3d6000fd5b505050506040513d601f19601f8201168201806040525081019062001197919062003591565b6001600160a01b031681526020810191909152604001600020600301555b3360009081526009602052604090208251815484929190829060ff19166001836002811115620011e157fe5b021790555060208201518160010155604082015181600201556060820151816003015590505080600560008201518160000160006101000a81548160ff021916908360028111156200122f57fe5b02179055506020820151816001015560408201518160020155606082015181600301559050506200127886600001518760200151886040015189606001518a60800151620027e5565b336001600160a01b03167fd8648b6ac54162763c86fd54bf2005af8ecd2f9cb273a5775921fd7f91e17b2d8a87604051620012b592919062003e9a565b60405180910390a250506001805460ff60a01b19169055509095945050505050565b6003546001600160a01b031681565b600154600090600160a01b900460ff1615620013165760405162461bcd60e51b81526004016200089e9062003ae4565b6001805460ff60a01b1916600160a01b179055600254604080516347c7bf5960e11b815290516001600160a01b0390921691638f8f7eb291600480820192600092909190829003018186803b1580156200136f57600080fd5b505afa15801562001384573d6000803e3d6000fd5b50505050600260009054906101000a90046001600160a01b03166001600160a01b031663961a929c6040518163ffffffff1660e01b815260040160006040518083038186803b158015620013d757600080fd5b505afa158015620013ec573d6000803e3d6000fd5b50505050620013fa620034e3565b6003546040516321d39cbb60e11b8152600091829182916001600160a01b0316906343a739769062001431908a90600401620039ab565b6101006040518083038186803b1580156200144b57600080fd5b505afa15801562001460573d6000803e3d6000fd5b505050506040513d601f19601f82011682018060405250810190620014869190620037e7565b8b60208101604082016060830160808401856002811115620014a457fe5b6002811115620014b057fe5b9052949094529390925250919052529194509250905085620014eb82620014de868663ffffffff6200287016565b9063ffffffff6200287016565b11156200150c5760405162461bcd60e51b81526004016200089e9062003e47565b62001516620034ac565b33600090815260096020526040908190208151608081019092528054829060ff1660028111156200154357fe5b60028111156200154f57fe5b8152602001600182015481526020016002820154815260200160038201548152505090506200157d620034ac565b604080516080810190915260058054829060ff1660028111156200159d57fe5b6002811115620015a957fe5b815260200160018201548152602001600282015481526020016003820154815250509050620015d982866200198a565b620015f85760405162461bcd60e51b81526004016200089e9062003bb4565b62001607826002878c62002704565b915062001618816001878c62002704565b905083156200164a576200163062000ffb8562001ad1565b6060830152620016446200058d8562001ad1565b60608201525b821562001720576200166062000ffb8462001ad1565b606083015262001674620010518462001ad1565b60096000600260009054906101000a90046001600160a01b03166001600160a01b0316634322ec836040518163ffffffff1660e01b815260040160206040518083038186803b158015620016c757600080fd5b505afa158015620016dc573d6000803e3d6000fd5b505050506040513d601f19601f8201168201806040525081019062001702919062003591565b6001600160a01b031681526020810191909152604001600020600301555b6200174386600001518760200151886040015189606001518a60800151620027e5565b3360009081526009602052604090208251815484929190829060ff191660018360028111156200176f57fe5b021790555060208201518160010155604082015181600201556060820151816003015590505080600560008201518160000160006101000a81548160ff02191690836002811115620017bd57fe5b02179055506020820151600182015560408083015160028301556060909201516003909101555133907fe93ad76094f247c0dafc1c61adc2187de1ac2738f7a3b49cb20b2263420251a390620012b5908c90899062003e9a565b6004546001600160a01b031681565b600960205260009081526040902080546001820154600283015460039093015460ff90921692909184565b600a5481565b60006200073e62001869838562001c51565b600260009054906101000a90046001600160a01b03166001600160a01b031663fe73ee736040518163ffffffff1660e01b815260040160206040518083038186803b158015620007a857600080fd5b60075490565b620009e6338262002898565b60055460ff1690565b600c5481565b6000546001600160a01b03163314620019065760405162461bcd60e51b81526004016200089e9062003cc2565b6001600160a01b0381166200192f5760405162461bcd60e51b81526004016200089e9062003c9b565b600080546040516001600160a01b03808516939216917fdcf55418cee3220104fef63f979ff3c4097ad240c0c43dcb33ce837748983e6291a3600180546001600160a01b0319166001600160a01b0392909216919091179055565b6000620019e4620006b083600260009054906101000a90046001600160a01b03166001600160a01b03166398a0a53d6040518163ffffffff1660e01b815260040160206040518083038186803b158015620007a857600080fd5b620006c184600360009054906101000a90046001600160a01b03166001600160a01b031663ee27c6896040518163ffffffff1660e01b815260040160206040518083038186803b15801562001a3857600080fd5b505afa15801562001a4d573d6000803e3d6000fd5b505050506040513d601f19601f82011682018060405250810190620003249190620036f9565b600f5481565b620006ed828262002d85565b600082820181831280159062001a9b5750838112155b8062001ab2575060008312801562001ab257508381125b6200073e5760405162461bcd60e51b81526004016200089e9062003b07565b60006001600160ff1b0382111562001afd5760405162461bcd60e51b81526004016200089e9062003df7565b5090565b62001baa823083600260009054906101000a90046001600160a01b03166001600160a01b031663cb102dd26040518163ffffffff1660e01b815260040160206040518083038186803b15801562001b5757600080fd5b505afa15801562001b6c573d6000803e3d6000fd5b505050506040513d601f19601f8201168201806040525081019062001b92919062003591565b6001600160a01b031692919063ffffffff62002e7216565b62001be262001bb98262001ad1565b6001600160a01b0384166000908152600960205260409020600301549063ffffffff62001a8516565b6001600160a01b0390921660009081526009602052604090206003019190915550565b600081830381831280159062001c1b5750838113155b8062001c32575060008312801562001c3257508381135b6200073e5760405162461bcd60e51b81526004016200089e9062003d32565b6000670de0b6b3a764000062001c6e848463ffffffff62002ed416565b8162001c7657fe5b049392505050565b600154600160a01b900460ff161562001cab5760405162461bcd60e51b81526004016200089e9062003ae4565b6001805460ff60a01b1916600160a01b1790556002546040805163a4a5e9ad60e01b815290516001600160a01b039092169163a4a5e9ad91600480820192600092909190829003018186803b15801562001d0457600080fd5b505afa15801562001d19573d6000803e3d6000fd5b50505050600260009054906101000a90046001600160a01b03166001600160a01b031663d76bfbd96040518163ffffffff1660e01b815260040160006040518083038186803b15801562001d6c57600080fd5b505afa15801562001d81573d6000803e3d6000fd5b50505050600062001d9162000c1a565b90506000811162001db65760405162461bcd60e51b81526004016200089e9062003a55565b600062001dd662001dc8848462002f14565b600854620007e39062002f42565b905062001de4848262002f67565b600080600062001df5868662002f14565b9050600060055460ff16600281111562001e0b57fe5b1462001fd45762001e228160056001015462001c51565b925062001e358160056002015462001c51565b915062001e41620034ac565b33600090815260096020526040908190208151608081019092528054829060ff16600281111562001e6e57fe5b600281111562001e7a57fe5b81526020016001820154815260200160028201548152602001600382015481525050905062001ea8620034ac565b604080516080810190915260058054829060ff16600281111562001ec857fe5b600281111562001ed457fe5b8152600182015460208201526002820154604082015260039091015460609091015260055490915062001f0e90839060ff16868862002704565b60055490925062001f3190829062001f299060ff1662002fbb565b868862002704565b336000908152600960205260409020835181549293508492829060ff1916600183600281111562001f5e57fe5b021790555060208201518160010155604082015181600201556060820151816003015590505080600560008201518160000160006101000a81548160ff0219169083600281111562001fac57fe5b0217905550602082015160018201556040820151600282015560609091015160039091015550505b6000806000806000600360009054906101000a90046001600160a01b03166001600160a01b031663ffa642256040518163ffffffff1660e01b815260040160a06040518083038186803b1580156200202b57600080fd5b505afa15801562002040573d6000803e3d6000fd5b505050506040513d601f19601f8201168201806040525081019062002066919062003798565b9398509196509450925090506200209184620007e3670de0b6b3a76400008963ffffffff62002ffb16565b9350620020b285620007e3670de0b6b3a76400008963ffffffff62002ffb16565b9450620020d382620007e3670de0b6b3a76400008963ffffffff62002ffb16565b9150620020f483620007e3670de0b6b3a76400008963ffffffff62002ffb16565b9250620021058585858585620027e5565b620021118c8c62003026565b8b6001600160a01b0316336001600160a01b03167f92da889ebdf9766a076ef7881c4618bd4667d5f74d6cf3fa1c82f319cdb399608b8e6040516200215892919062003e9a565b60405180910390a350506001805460ff60a01b1916905550505050505050505050565b60006200218762000c1a565b905060008111620021ac5760405162461bcd60e51b81526004016200089e9062003a55565b6000620021b983620007e9565b9050620021c7838262001c7e565b505050565b620021d6620034ac565b6001600160a01b038516600090815260096020526040908190208151608081019092528054829060ff1660028111156200220c57fe5b60028111156200221857fe5b81526020016001820154815260200160028201548152602001600382015481525050905062002246620034ac565b6001600160a01b038516600090815260096020526040908190208151608081019092528054829060ff1660028111156200227c57fe5b60028111156200228857fe5b815260200160018201548152602001600282015481526020016003820154815250509050620022b6620034ac565b604080516080810190915260058054829060ff166002811115620022d657fe5b6002811115620022e257fe5b8152602001600182015481526020016002820154815260200160038201548152505090506000826000015190506000620023aa620006b0600260009054906101000a90046001600160a01b03166001600160a01b031663f5cdd2026040518163ffffffff1660e01b815260040160206040518083038186803b1580156200236857600080fd5b505afa1580156200237d573d6000803e3d6000fd5b505050506040513d601f19601f82011682018060405250810190620023a39190620036f9565b8962001c51565b9050600062002447620006b0600260009054906101000a90046001600160a01b03166001600160a01b03166311187e366040518163ffffffff1660e01b815260040160206040518083038186803b1580156200240557600080fd5b505afa1580156200241a573d6000803e3d6000fd5b505050506040513d601f19601f82011682018060405250810190620024409190620036f9565b8a62001c51565b90506200246185620024598562002fbb565b8a8a62002704565b94506200247186848a8a62002704565b955062002485828263ffffffff62001a8516565b856060015112620024f557620024ae816200073184886060015162001c0590919063ffffffff16565b606080870191909152860151620024cc908363ffffffff62001a8516565b606080880191909152840151620024ea908263ffffffff62001a8516565b60608501526200258a565b81856060015112620025625760608501516200252f906200251d908463ffffffff62001c0516565b60608601519063ffffffff62001a8516565b6060808601919091528601516200254d908363ffffffff62001a8516565b6060808801919091526000908601526200258a565b60008560600151126200258a57606080860151908701516200254d9163ffffffff62001a8516565b6001600160a01b03891660009081526009602052604090208551815487929190829060ff19166001836002811115620025bf57fe5b021790555060208201518160010155604082015181600201556060820151816003015590505085600960008c6001600160a01b03166001600160a01b0316815260200190815260200160002060008201518160000160006101000a81548160ff021916908360028111156200263057fe5b02179055506020820151600182015560408201516002820155606091820151600390910155600854908501511415620026a757835160058054869290829060ff191660018360028111156200268157fe5b021790555060208201516001820155604082015160028201556060909101516003909101555b886001600160a01b03168a6001600160a01b03167f54f9b006b19a44694e56b0d6a57f34c420bf88da7373f9d0f3380e5f4b70951e858b8b604051620026f09392919062003902565b60405180910390a350505050505050505050565b6200270e620034ac565b60208501516000908390158015906200274057508560028111156200272f57fe5b875160028111156200273d57fe5b14155b15620027b157866020015184116200276b576200275f87858762003091565b965060009050620027b1565b6200278085620007e389602001518762002f14565b9150620027938788602001518462003091565b9650620027ae87602001518562002ffb90919063ffffffff16565b90505b8015620027da57620027d7878783620027d1898763ffffffff62002ffb16565b62003209565b96505b509495945050505050565b82600b5414620027f557600b8390555b84600a54146200280557600a8590555b83600c54146200281557600c8490555b81600d54146200282557600d8290555b8060028111156200283257fe5b600e5460ff1660028111156200284457fe5b1462000bfe57600e805482919060ff191660018360028111156200286457fe5b02179055505050505050565b6000828201838110156200073e5760405162461bcd60e51b81526004016200089e9062003d0f565b600154600160a01b900460ff1615620028c55760405162461bcd60e51b81526004016200089e9062003ae4565b6001805460ff60a01b1916600160a01b1790556002546040805163a4a5e9ad60e01b815290516001600160a01b039092169163a4a5e9ad91600480820192600092909190829003018186803b1580156200291e57600080fd5b505afa15801562002933573d6000803e3d6000fd5b50505050600260009054906101000a90046001600160a01b03166001600160a01b031663d76bfbd96040518163ffffffff1660e01b815260040160006040518083038186803b1580156200298657600080fd5b505afa1580156200299b573d6000803e3d6000fd5b50505050600260009054906101000a90046001600160a01b03166001600160a01b031663c30ea2a26040518163ffffffff1660e01b815260040160006040518083038186803b158015620029ee57600080fd5b505afa15801562002a03573d6000803e3d6000fd5b50505050600062002a1362000c1a565b905060008162002a2557508162002b2d565b60008060055460ff16600281111562002a3a57fe5b141562002a4b575060085462002b08565b60035460055462002b05916001600160a01b03169063a3ffd1cb9062002a749060ff1662002fbb565b6006546007546040516001600160e01b031960e086901b16815262002aa19392919082906004016200394f565b60206040518083038186803b15801562002aba57600080fd5b505afa15801562002acf573d6000803e3d6000fd5b505050506040513d601f19601f8201168201806040525081019062002af59190620036f9565b6008549063ffffffff62001a8516565b90505b62002b2962002b228562002b1c8462002f42565b62002f14565b8462001c51565b9150505b600354600554600d5460009283928392839283926001600160a01b039091169163ffa960b49160ff169062002b69908c63ffffffff6200287016565b600260009054906101000a90046001600160a01b03166001600160a01b031663796da7af6040518163ffffffff1660e01b815260040160206040518083038186803b15801562002bb857600080fd5b505afa15801562002bcd573d6000803e3d6000fd5b505050506040513d601f19601f8201168201806040525081019062002bf39190620036f9565b6006546002546040805163ec2fd46d60e01b815290516001600160a01b039092169163ec2fd46d91600480820192602092909190829003018186803b15801562002c3c57600080fd5b505afa15801562002c51573d6000803e3d6000fd5b505050506040513d601f19601f8201168201806040525081019062002c779190620036f9565b6040518663ffffffff1660e01b815260040162002c999594939291906200397b565b60a06040518083038186803b15801562002cb257600080fd5b505afa15801562002cc7573d6000803e3d6000fd5b505050506040513d601f19601f8201168201806040525081019062002ced919062003798565b9450945094509450945062002d068585858585620027e5565b62002d128989620032a1565b62002d1e898762003305565b886001600160a01b0316336001600160a01b03167fbded9ba8a041a2b893fdc29720280cb14b8f6c369538bde50fcd4e602d5608578a8960405162002d6592919062003e9a565b60405180910390a350506001805460ff60a01b1916905550505050505050565b62002dbd62002d948262001ad1565b6001600160a01b0384166000908152600960205260409020600301549063ffffffff62001c0516565b6001600160a01b0380841660009081526009602090815260409182902060030193909355600254815163658816e960e11b81529151620006ed948794879493169263cb102dd29260048083019392829003018186803b15801562002e2057600080fd5b505afa15801562002e35573d6000803e3d6000fd5b505050506040513d601f19601f8201168201806040525081019062002e5b919062003591565b6001600160a01b0316919063ffffffff6200333816565b62002ece846323b872dd60e01b85858560405160240162002e969392919062003885565b60408051601f198184030181529190526020810180516001600160e01b03166001600160e01b0319909316929092179091526200335a565b50505050565b60008262002ee55750600062000741565b8282028284828162002ef357fe5b04146200073e5760405162461bcd60e51b81526004016200089e9062003e77565b60006200073e8262002f3585670de0b6b3a764000063ffffffff62002ed416565b9063ffffffff6200341e16565b60008082121562001afd5760405162461bcd60e51b81526004016200089e9062003e21565b6000811162002f8a5760405162461bcd60e51b81526004016200089e90620039e9565b62002fa962002f998262001ad1565b6008549063ffffffff62001c0516565b60085562001be262001bb98262001ad1565b6000600282600281111562002fcc57fe5b141562002fdc57506001620005a2565b600182600281111562002feb57fe5b141562001afd57506002620005a2565b600082821115620030205760405162461bcd60e51b81526004016200089e9062003c49565b50900390565b60048054604051632770a7eb60e21b81526001600160a01b0390911691639dc29fac9162003059918691869101620038a9565b600060405180830381600087803b1580156200307457600080fd5b505af115801562003089573d6000803e3d6000fd5b505050505050565b6200309b620034ac565b60008311620030be5760405162461bcd60e51b81526004016200089e9062003c6c565b60008460200151841415620030d957506040840151620030f5565b620030f28560400151620007e386886020015162003450565b90505b6003548551604051632d50ce1d60e21b81526000926001600160a01b03169163b5433874916200312d91908690899060040162003902565b60206040518083038186803b1580156200314657600080fd5b505afa1580156200315b573d6000803e3d6000fd5b505050506040513d601f19601f82011682018060405250810190620031819190620036f9565b60608701519091506200319b908263ffffffff62001a8516565b606087015260408601516020870151620031d29190620007e390620031c7908963ffffffff62002ffb16565b896020015162003450565b60408701526020860151620031ee908663ffffffff62002ffb16565b60208701819052620031ff57600086525b5093949350505050565b62003213620034ac565b60008311620032365760405162461bcd60e51b81526004016200089e9062003ab6565b60208501516200326057848460028111156200324e57fe5b908160028111156200325c57fe5b9052505b602085015162003277908463ffffffff6200287016565b6020860152604085015162003293908363ffffffff6200287016565b604086015250929392505050565b60008111620032c45760405162461bcd60e51b81526004016200089e9062003c06565b620032d362002d948262001ad1565b6001600160a01b038316600090815260096020526040902060030155620032fe62002af58262001ad1565b6008555050565b600480546040516340c10f1960e01b81526001600160a01b03909116916340c10f199162003059918691869101620038a9565b620021c78363a9059cbb60e01b848460405160240162002e96929190620038a9565b60006060836001600160a01b03168360405162003378919062003853565b6000604051808303816000865af19150503d8060008114620033b7576040519150601f19603f3d011682016040523d82523d6000602084013e620033bc565b606091505b509150915081620033e15760405162461bcd60e51b81526004016200089e9062003b48565b80511562002ece5780806020019051810190620033ff9190620036d7565b62002ece5760405162461bcd60e51b81526004016200089e9062003d76565b6000806200342d84846200347e565b905082810284038015620034475750600101905062000741565b50905062000741565b60006200073e826200347185670de0b6b3a764000063ffffffff62002ed416565b9063ffffffff6200347e16565b6000808211620034a25760405162461bcd60e51b81526004016200089e9062003bde565b81838162001c7657fe5b604080516080810190915280600081526020016000815260200160008152602001600081525090565b6110048062003f3b83390190565b6040518060a0016040528060008152602001600081526020016000815260200160008152602001600060028111156200351857fe5b905290565b6000608082840312156200352f578081fd5b6200353b608062003ea8565b905081356200354a8162003f2c565b8082525060208201356020820152604082013560408201526060820135606082015292915050565b60006020828403121562003584578081fd5b81356200073e8162003f16565b600060208284031215620035a3578081fd5b81516200073e8162003f16565b60008060408385031215620035c3578081fd5b8235620035d08162003f16565b91506020830135620035e28162003f16565b809150509250929050565b60008060006060848603121562003602578081fd5b83356200360f8162003f16565b9250602084810135620036228162003f16565b9250604085013567ffffffffffffffff808211156200363f578384fd5b81870188601f82011262003651578485fd5b803592508183111562003662578485fd5b62003676601f8401601f1916850162003ea8565b915082825288848483010111156200368c578485fd5b828482018584013750838383830101528093505050509250925092565b60008060408385031215620036bc578182fd5b8235620036c98162003f16565b946020939093013593505050565b600060208284031215620036e9578081fd5b815180151581146200073e578182fd5b6000602082840312156200370b578081fd5b5051919050565b60006080828403121562003724578081fd5b6200073e83836200351d565b60008060a0838503121562003743578182fd5b6200374f84846200351d565b946080939093013593505050565b6000602082840312156200376f578081fd5b5035919050565b6000806040838503121562003789578182fd5b50508035926020909101359150565b600080600080600060a08688031215620037b0578081fd5b855194506020860151935060408601519250606086015191506080860151620037d98162003f2c565b809150509295509295909350565b600080600080600080600080610100898b03121562003804578586fd5b885197506020890151965060408901519550606089015194506080890151935060a0890151925060c0890151915060e0890151620038428162003f2c565b809150509295985092959890939650565b600082516200386781846020870162003edc565b9190910192915050565b6001600160a01b0391909116815260200190565b6001600160a01b039384168152919092166020820152604081019190915260600190565b6001600160a01b03929092168252602082015260400190565b901515815260200190565b60208101620038dc8362003ed0565b825292915050565b60408101620038f38462003ed0565b82528260208301529392505050565b60608101620039118562003ed0565b8252602082019390935260400152919050565b60808101620039338662003f0b565b9481526020810193909352604083019190915260609091015290565b608081016200395e8662003ed0565b825284602083015283604083015282606083015295945050505050565b60a081016200398a8762003f0b565b95815260208101949094526040840192909252606083015260809091015290565b90815260200190565b6000602082528251806020840152620039d581604085016020870162003edc565b601f01601f19169190910160400192915050565b60208082526025908201527f4d617267696e5472616e7366657246726f6d506f6f6c5f494c4c4547414c5f416040820152641353d5539560da1b606082015260800190565b6020808252600d908201526c494e56414c49445f434c41494d60981b604082015260600190565b6020808252601b908201527f7769746864726177436f6c6c61746572616c546f3a204e4f5f4c500000000000604082015260600190565b60208082526010908201526f1410549057d25392551250531256915160821b604082015260600190565b6020808252601490820152731bdc195b8e881a5b9d985b1a5908185b5bdd5b9d60621b604082015260600190565b60208082526009908201526814915153951490539560ba1b604082015260600190565b60208082526021908201527f5369676e6564536166654d6174683a206164646974696f6e206f766572666c6f6040820152607760f81b606082015260800190565b6020808252818101527f5361666545524332303a206c6f772d6c6576656c2063616c6c206661696c6564604082015260600190565b6020808252601a908201527f4c495155494441544f525f4e4f545f454e4f5547485f46554e44000000000000604082015260600190565b60208082526010908201526f2727aa2fa9a0a322afaa27afa7a822a760811b604082015260600190565b6020808252600e908201526d2224ab24a224a723afa2a92927a960911b604082015260600190565b60208082526023908201527f4d617267696e5472616e73666572546f506f6f6c5f494c4c4547414c5f414d4f60408201526215539560ea1b606082015260800190565b60208082526009908201526829aaa12fa2a92927a960b91b604082015260600190565b60208082526015908201527418db1bdcd94e881a5b9d985b1a5908185b5bdd5b9d605a1b604082015260600190565b6020808252600d908201526c24a72b20a624a22fa7aba722a960991b604082015260600190565b6020808252600990820152682727aa2fa7aba722a960b91b604082015260600190565b60208082526010908201526f29a0a322afaa27afa6a0a4a72a20a4a760811b604082015260600190565b60208082526009908201526820a2222fa2a92927a960b91b604082015260600190565b60208082526024908201527f5369676e6564536166654d6174683a207375627472616374696f6e206f766572604082015263666c6f7760e01b606082015260800190565b6020808252602a908201527f5361666545524332303a204552433230206f7065726174696f6e20646964206e6040820152691bdd081cdd58d8d9595960b21b606082015260800190565b6020808252601c908201527f53454c4c5f424153455f524543454956455f4e4f545f454e4f55474800000000604082015260600190565b60208082526010908201526f75696e74323536206f766572666c6f7760801b604082015260600190565b6020808252600c908201526b696e74206f766572666c6f7760a01b604082015260600190565b602080825260169082015275084aab2be8482a68abe869ea6a8bea89e9ebe9aaa86960531b604082015260600190565b60208082526009908201526826aaa62fa2a92927a960b91b604082015260600190565b918252602082015260400190565b60405181810167ffffffffffffffff8111828210171562003ec857600080fd5b604052919050565b8060038110620005a257fe5b60005b8381101562003ef957818101518382015260200162003edf565b8381111562002ece5750506000910152565b60038110620009e657fe5b6001600160a01b0381168114620009e657600080fd5b60038110620009e657600080fdfe60c060405260036080819052620504c560ec1b60a0908152620000269160029190620000ca565b506004805460ff191660121790553480156200004157600080fd5b50604051620010043803806200100483398101604081905262000064916200016f565b600080546001600160a01b03191633178082556040516001600160a01b039190911691907f8be0079c531659141344cd1fd0a4f28419497f9722a3daafe3b4186f6b6457e0908290a38051620000c2906003906020840190620000ca565b505062000244565b828054600181600116156101000203166002900490600052602060002090601f016020900481019282601f106200010d57805160ff19168380011785556200013d565b828001600101855582156200013d579182015b828111156200013d57825182559160200191906001019062000120565b506200014b9291506200014f565b5090565b6200016c91905b808211156200014b576000815560010162000156565b90565b60006020828403121562000181578081fd5b81516001600160401b038082111562000198578283fd5b81840185601f820112620001aa578384fd5b8051925081831115620001bb578384fd5b604051601f8401601f191681016020018381118282101715620001dc578586fd5b604052838152818401602001871015620001f4578485fd5b6200020784602083016020850162000211565b9695505050505050565b60005b838110156200022e57818101518382015260200162000214565b838111156200023e576000848401525b50505050565b610db080620002546000396000f3fe608060405234801561001057600080fd5b50600436106101005760003560e01c806370a08231116100975780639e6aa263116100665780639e6aa263146101e8578063a9059cbb146101f0578063dd62ed3e14610203578063f2fde38b1461021657610100565b806370a08231146101b25780638456db15146101c557806395d89b41146101cd5780639dc29fac146101d557610100565b806323b872dd116100d357806323b872dd1461016d578063313ce5671461018057806340c10f19146101955780634e71e0c8146101aa57610100565b806306fdde0314610105578063095ea7b31461012357806316048bc41461014357806318160ddd14610158575b600080fd5b61010d610229565b60405161011a9190610bb7565b60405180910390f35b610136610131366004610aed565b61027f565b60405161011a9190610bac565b61014b6102ea565b60405161011a9190610b98565b6101606102f9565b60405161011a9190610cfb565b61013661017b366004610aad565b6102ff565b610188610483565b60405161011a9190610d04565b6101a86101a3366004610aed565b61048c565b005b6101a861058f565b6101606101c0366004610a5e565b61061d565b61014b610638565b61010d610647565b6101a86101e3366004610aed565b6106da565b61010d6107d1565b6101366101fe366004610aed565b61085f565b610160610211366004610a79565b61091d565b6101a8610224366004610a5e565b610948565b6060806040518060400160405280600f81526020016e5f504152415f4c505f544f4b454e5f60881b815250905060038160405160200161026a929190610b17565b60405160208183030381529060405291505090565b3360008181526007602090815260408083206001600160a01b038716808552925280832085905551919290917f8c5be1e5ebec7d5bd14f71427d1e84f3dd0314c0f7b2291e5b200ac8c7c3b925906102d8908690610cfb565b60405180910390a35060015b92915050565b6000546001600160a01b031681565b60055481565b6001600160a01b0383166000908152600660205260408120548211156103405760405162461bcd60e51b815260040161033790610c89565b60405180910390fd5b6001600160a01b03841660009081526007602090815260408083203384529091529020548211156103835760405162461bcd60e51b815260040161033790610c11565b6001600160a01b0384166000908152600660205260409020546103ac908363ffffffff6109f316565b6001600160a01b0380861660009081526006602052604080822093909355908516815220546103e1908363ffffffff610a1b16565b6001600160a01b038085166000908152600660209081526040808320949094559187168152600782528281203382529091522054610425908363ffffffff6109f316565b6001600160a01b038086166000818152600760209081526040808320338452909152908190209390935591519085169190600080516020610d5b83398151915290610471908690610cfb565b60405180910390a35060019392505050565b60045460ff1690565b6000546001600160a01b031633146104b65760405162461bcd60e51b815260040161033790610cb5565b6001600160a01b0382166000908152600660205260409020546104df908263ffffffff610a1b16565b6001600160a01b03831660009081526006602052604090205560055461050b908263ffffffff610a1b16565b6005556040516001600160a01b038316907f0f6798a560793a54c3bcfe86a93cde1e73087d944c0ea20544137d412139688590610549908490610cfb565b60405180910390a2816001600160a01b031660006001600160a01b0316600080516020610d5b833981519152836040516105839190610cfb565b60405180910390a35050565b6001546001600160a01b031633146105b95760405162461bcd60e51b815260040161033790610bea565b600154600080546040516001600160a01b0393841693909116917f8be0079c531659141344cd1fd0a4f28419497f9722a3daafe3b4186f6b6457e091a360018054600080546001600160a01b03199081166001600160a01b03841617909155169055565b6001600160a01b031660009081526006602052604090205490565b6001546001600160a01b031681565b60028054604080516020601f60001961010060018716150201909416859004938401819004810282018101909252828152606093909290918301828280156106d05780601f106106a5576101008083540402835291602001916106d0565b820191906000526020600020905b8154815290600101906020018083116106b357829003601f168201915b5050505050905090565b6000546001600160a01b031633146107045760405162461bcd60e51b815260040161033790610cb5565b6001600160a01b03821660009081526006602052604090205461072d908263ffffffff6109f316565b6001600160a01b038316600090815260066020526040902055600554610759908263ffffffff6109f316565b6005556040516001600160a01b038316907fcc16f5dbb4873280815c1ee09dbd06736cffcc184412cf7a71a0fdb75d397ca590610797908490610cfb565b60405180910390a260006001600160a01b0316826001600160a01b0316600080516020610d5b833981519152836040516105839190610cfb565b6003805460408051602060026001851615610100026000190190941693909304601f810184900484028201840190925281815292918301828280156108575780601f1061082c57610100808354040283529160200191610857565b820191906000526020600020905b81548152906001019060200180831161083a57829003601f168201915b505050505081565b3360009081526006602052604081205482111561088e5760405162461bcd60e51b815260040161033790610c89565b336000908152600660205260409020546108ae908363ffffffff6109f316565b33600090815260066020526040808220929092556001600160a01b038516815220546108e0908363ffffffff610a1b16565b6001600160a01b038416600081815260066020526040908190209290925590513390600080516020610d5b833981519152906102d8908690610cfb565b6001600160a01b03918216600090815260076020908152604080832093909416825291909152205490565b6000546001600160a01b031633146109725760405162461bcd60e51b815260040161033790610cb5565b6001600160a01b0381166109985760405162461bcd60e51b815260040161033790610c62565b600080546040516001600160a01b03808516939216917fdcf55418cee3220104fef63f979ff3c4097ad240c0c43dcb33ce837748983e6291a3600180546001600160a01b0319166001600160a01b0392909216919091179055565b600082821115610a155760405162461bcd60e51b815260040161033790610c3f565b50900390565b600082820183811015610a405760405162461bcd60e51b815260040161033790610cd8565b9392505050565b80356001600160a01b03811681146102e457600080fd5b600060208284031215610a6f578081fd5b610a408383610a47565b60008060408385031215610a8b578081fd5b610a958484610a47565b9150610aa48460208501610a47565b90509250929050565b600080600060608486031215610ac1578081fd5b8335610acc81610d42565b92506020840135610adc81610d42565b929592945050506040919091013590565b60008060408385031215610aff578182fd5b610b098484610a47565b946020939093013593505050565b6000808454600180821660008114610b365760018114610b4d57610b7c565b60ff198316865260028304607f1686019350610b7c565b600283048886526020808720875b83811015610b745781548a820152908501908201610b5b565b505050860193505b5050508351610b8f818360208801610d12565b01949350505050565b6001600160a01b0391909116815260200190565b901515815260200190565b6000602082528251806020840152610bd6816040850160208701610d12565b601f01601f19169190910160400192915050565b6020808252600d908201526c494e56414c49445f434c41494d60981b604082015260600190565b60208082526014908201527308298989eae829c868abe9c9ea8be8a9c9eaa8e960631b604082015260600190565b60208082526009908201526829aaa12fa2a92927a960b91b604082015260600190565b6020808252600d908201526c24a72b20a624a22fa7aba722a960991b604082015260600190565b6020808252601290820152710848298829c868abe9c9ea8be8a9c9eaa8e960731b604082015260600190565b6020808252600990820152682727aa2fa7aba722a960b91b604082015260600190565b60208082526009908201526820a2222fa2a92927a960b91b604082015260600190565b90815260200190565b60ff91909116815260200190565b60005b83811015610d2d578181015183820152602001610d15565b83811115610d3c576000848401525b50505050565b6001600160a01b0381168114610d5757600080fd5b5056feddf252ad1be2c89b69c2b068fc378daa952ba7f163c4a11628f55a4df523b3efa26469706673582212204b90f0ea99f9321f41aa89d8201d4a39c426d5c93e8e1c6234ecdebbdcf6533064736f6c63430006090033a2646970667358221220327cceea74df49a96241cdf3e113be2bc2dad248cf75dc15b9d3de81cf91b1d964736f6c63430006090033",
  "immutableReferences": {},
  "source": "/*\n\n    Copyright 2020 DODO ZOO.\n    SPDX-License-Identifier: Apache-2.0\n\n*/\n\npragma solidity 0.6.9;\npragma experimental ABIEncoderV2;\n\nimport {Types} from \"./lib/Types.sol\";\nimport {IERC20} from \"./interface/IERC20.sol\";\nimport {Trader} from \"./perpetual/Trader.sol\";\nimport {LpToken} from \"./perpetual/LpToken.sol\";\nimport {LiquidityProvider} from \"./perpetual/LiquidityProvider.sol\";\nimport {Admin} from \"./admin/Admin.sol\";\nimport {Pricing} from \"./perpetual/Pricing.sol\";\n\n/**\n * @title Para\n * @author Parapara\n *\n * @notice Entrance for users\n */\n\ncontract Para is Trader, LiquidityProvider {\n    function init(\n        address adminAddress,\n        address pricingAddress,\n        string memory tokenName\n    ) external {\n        require(!_INITIALIZED_, \"PARA_INITIALIZED\");\n        _INITIALIZED_ = true;\n        ADMIN = Admin(adminAddress);\n        PRICING = Pricing(pricingAddress);\n        _COLLATERAL_POOL_TOKEN_ = address(new LpToken(tokenName));\n    }\n}\n",
  "sourcePath": "/Users/daniel/Codes/parapara/para_dapp_v6/contracts/Para.sol",
  "compiler": {
    "name": "solc",
    "version": "0.6.9+commit.3e3065ac.Emscripten.clang"
  },
  "schemaVersion": "3.3.4",
  "updatedAt": "2021-03-25T08:51:25.606Z",
  "devdoc": {
    "author": "Parapara",
    "methods": {},
    "title": "Para"
  },
  "userdoc": {
    "methods": {},
    "notice": "Entrance for users"
  }
}