{
  "contractName": "ParaRewardVault",
  "abi": [
    {
      "inputs": [
        {
          "internalType": "address",
          "name": "_paraToken",
          "type": "address"
        }
      ],
      "stateMutability": "nonpayable",
      "type": "constructor"
    },
    {
      "anonymous": false,
      "inputs": [
        {
          "indexed": true,
          "internalType": "address",
          "name": "previousOwner",
          "type": "address"
        },
        {
          "indexed": true,
          "internalType": "address",
          "name": "newOwner",
          "type": "address"
        }
      ],
      "name": "OwnershipTransferPrepared",
      "type": "event"
    },
    {
      "anonymous": false,
      "inputs": [
        {
          "indexed": true,
          "internalType": "address",
          "name": "previousOwner",
          "type": "address"
        },
        {
          "indexed": true,
          "internalType": "address",
          "name": "newOwner",
          "type": "address"
        }
      ],
      "name": "OwnershipTransferred",
      "type": "event"
    },
    {
      "inputs": [],
      "name": "_NEW_OWNER_",
      "outputs": [
        {
          "internalType": "address",
          "name": "",
          "type": "address"
        }
      ],
      "stateMutability": "view",
      "type": "function"
    },
    {
      "inputs": [],
      "name": "_OWNER_",
      "outputs": [
        {
          "internalType": "address",
          "name": "",
          "type": "address"
        }
      ],
      "stateMutability": "view",
      "type": "function"
    },
    {
      "inputs": [],
      "name": "claimOwnership",
      "outputs": [],
      "stateMutability": "nonpayable",
      "type": "function"
    },
    {
      "inputs": [],
      "name": "paraToken",
      "outputs": [
        {
          "internalType": "address",
          "name": "",
          "type": "address"
        }
      ],
      "stateMutability": "view",
      "type": "function"
    },
    {
      "inputs": [
        {
          "internalType": "address",
          "name": "newOwner",
          "type": "address"
        }
      ],
      "name": "transferOwnership",
      "outputs": [],
      "stateMutability": "nonpayable",
      "type": "function"
    },
    {
      "inputs": [
        {
          "internalType": "address",
          "name": "to",
          "type": "address"
        },
        {
          "internalType": "uint256",
          "name": "amount",
          "type": "uint256"
        }
      ],
      "name": "reward",
      "outputs": [],
      "stateMutability": "nonpayable",
      "type": "function"
    }
  ],
  "bytecode": "0x608060405234801561001057600080fd5b5060405161068638038061068683398101604081905261002f9161009d565b600080546001600160a01b03191633178082556040516001600160a01b039190911691907f8be0079c531659141344cd1fd0a4f28419497f9722a3daafe3b4186f6b6457e0908290a3600280546001600160a01b0319166001600160a01b03929092169190911790556100cb565b6000602082840312156100ae578081fd5b81516001600160a01b03811681146100c4578182fd5b9392505050565b6105ac806100da6000396000f3fe608060405234801561001057600080fd5b50600436106100625760003560e01c806316048bc41461006757806321670f22146100855780634e71e0c81461009a5780637e81d2ad146100a25780638456db15146100aa578063f2fde38b146100b2575b600080fd5b61006f6100c5565b60405161007c9190610459565b60405180910390f35b6100986100933660046103d6565b6100d4565b005b610098610128565b61006f6101b6565b61006f6101c5565b6100986100c03660046103b4565b6101d4565b6000546001600160a01b031681565b6000546001600160a01b031633146101075760405162461bcd60e51b81526004016100fe90610509565b60405180910390fd5b600254610124906001600160a01b0316838363ffffffff61027f16565b5050565b6001546001600160a01b031633146101525760405162461bcd60e51b81526004016100fe90610486565b600154600080546040516001600160a01b0393841693909116917f8be0079c531659141344cd1fd0a4f28419497f9722a3daafe3b4186f6b6457e091a360018054600080546001600160a01b03199081166001600160a01b03841617909155169055565b6002546001600160a01b031681565b6001546001600160a01b031681565b6000546001600160a01b031633146101fe5760405162461bcd60e51b81526004016100fe90610509565b6001600160a01b0381166102245760405162461bcd60e51b81526004016100fe906104e2565b600080546040516001600160a01b03808516939216917fdcf55418cee3220104fef63f979ff3c4097ad240c0c43dcb33ce837748983e6291a3600180546001600160a01b0319166001600160a01b0392909216919091179055565b6102d58363a9059cbb60e01b848460405160240161029e92919061046d565b60408051601f198184030181529190526020810180516001600160e01b03166001600160e01b0319909316929092179091526102da565b505050565b60006060836001600160a01b0316836040516102f69190610420565b6000604051808303816000865af19150503d8060008114610333576040519150601f19603f3d011682016040523d82523d6000602084013e610338565b606091505b50915091508161035a5760405162461bcd60e51b81526004016100fe906104ad565b80511561039157808060200190518101906103759190610400565b6103915760405162461bcd60e51b81526004016100fe9061052c565b50505050565b80356001600160a01b03811681146103ae57600080fd5b92915050565b6000602082840312156103c5578081fd5b6103cf8383610397565b9392505050565b600080604083850312156103e8578081fd5b6103f28484610397565b946020939093013593505050565b600060208284031215610411578081fd5b815180151581146103cf578182fd5b60008251815b818110156104405760208186018101518583015201610426565b8181111561044e5782828501525b509190910192915050565b6001600160a01b0391909116815260200190565b6001600160a01b03929092168252602082015260400190565b6020808252600d908201526c494e56414c49445f434c41494d60981b604082015260600190565b6020808252818101527f5361666545524332303a206c6f772d6c6576656c2063616c6c206661696c6564604082015260600190565b6020808252600d908201526c24a72b20a624a22fa7aba722a960991b604082015260600190565b6020808252600990820152682727aa2fa7aba722a960b91b604082015260600190565b6020808252602a908201527f5361666545524332303a204552433230206f7065726174696f6e20646964206e6040820152691bdd081cdd58d8d9595960b21b60608201526080019056fea2646970667358221220571492f465f1838209fdc9c7a0d225aeaf9031b97912954fe5769d0c814be27964736f6c63430006090033",
  "immutableReferences": {},
  "source": "/*\n\n    Copyright 2020 DODO ZOO.\n    SPDX-License-Identifier: Apache-2.0\n\n*/\n\npragma solidity 0.6.9;\npragma experimental ABIEncoderV2;\n\nimport {Ownable} from \"../lib/Ownable.sol\";\nimport {SafeERC20} from \"../lib/SafeERC20.sol\";\nimport {IERC20} from \"../interface/IERC20.sol\";\n\n\ninterface IParaRewardVault {\n    function reward(address to, uint256 amount) external;\n}\n\n\ncontract ParaRewardVault is Ownable {\n    using SafeERC20 for IERC20;\n\n    address public paraToken;\n\n    constructor(address _paraToken) public {\n        paraToken = _paraToken;\n    }\n\n    function reward(address to, uint256 amount) external onlyOwner {\n        IERC20(paraToken).safeTransfer(to, amount);\n    }\n}\n",
  "sourcePath": "/Users/daniel/Codes/parapara/para_dapp_v6/contracts/mining/ParaRewardVault.sol",
  "compiler": {
    "name": "solc",
    "version": "0.6.9+commit.3e3065ac.Emscripten.clang"
  },
  "schemaVersion": "3.3.4",
  "updatedAt": "2021-03-25T08:51:25.682Z",
  "devdoc": {
    "methods": {}
  },
  "userdoc": {
    "methods": {}
  }
}