{
  "contractName": "Para",
  "abi": [
    {
      "anonymous": false,
      "inputs": [
        {
          "indexed": true,
          "internalType": "address",
          "name": "buyer",
          "type": "address"
        },
        {
          "indexed": false,
          "internalType": "uint256",
          "name": "receiveBase",
          "type": "uint256"
        },
        {
          "indexed": false,
          "internalType": "uint256",
          "name": "payQuote",
          "type": "uint256"
        }
      ],
      "name": "BuyBaseToken",
      "type": "event"
    },
    {
      "anonymous": false,
      "inputs": [
        {
          "indexed": true,
          "internalType": "address",
          "name": "maintainer",
          "type": "address"
        },
        {
          "indexed": false,
          "internalType": "bool",
          "name": "isBaseToken",
          "type": "bool"
        },
        {
          "indexed": false,
          "internalType": "uint256",
          "name": "amount",
          "type": "uint256"
        }
      ],
      "name": "ChargeMaintainerFee",
      "type": "event"
    },
    {
      "anonymous": false,
      "inputs": [
        {
          "indexed": true,
          "internalType": "address",
          "name": "user",
          "type": "address"
        },
        {
          "indexed": false,
          "internalType": "uint256",
          "name": "baseTokenAmount",
          "type": "uint256"
        },
        {
          "indexed": false,
          "internalType": "uint256",
          "name": "quoteTokenAmount",
          "type": "uint256"
        }
      ],
      "name": "ClaimAssets",
      "type": "event"
    },
    {
      "anonymous": false,
      "inputs": [
        {
          "indexed": true,
          "internalType": "address",
          "name": "trader",
          "type": "address"
        },
        {
          "indexed": false,
          "internalType": "uint256",
          "name": "amount",
          "type": "uint256"
        },
        {
          "indexed": false,
          "internalType": "int256",
          "name": "balance",
          "type": "int256"
        }
      ],
      "name": "Deposit",
      "type": "event"
    },
    {
      "anonymous": false,
      "inputs": [
        {
          "indexed": false,
          "internalType": "uint256",
          "name": "amount",
          "type": "uint256"
        }
      ],
      "name": "Donate",
      "type": "event"
    },
    {
      "anonymous": false,
      "inputs": [
        {
          "indexed": true,
          "internalType": "address",
          "name": "trader",
          "type": "address"
        },
        {
          "indexed": false,
          "internalType": "int256",
          "name": "amount",
          "type": "int256"
        },
        {
          "indexed": false,
          "internalType": "int256",
          "name": "balanceAfter",
          "type": "int256"
        }
      ],
      "name": "InternalUpdateBalance",
      "type": "event"
    },
    {
      "anonymous": false,
      "inputs": [
        {
          "indexed": true,
          "internalType": "address",
          "name": "trader",
          "type": "address"
        },
        {
          "indexed": true,
          "internalType": "address",
          "name": "liquidator",
          "type": "address"
        },
        {
          "indexed": false,
          "internalType": "enum Types.Side",
          "name": "liquidationSide",
          "type": "uint8"
        },
        {
          "indexed": false,
          "internalType": "uint256",
          "name": "liquidationValue",
          "type": "uint256"
        },
        {
          "indexed": false,
          "internalType": "uint256",
          "name": "liquidationAmount",
          "type": "uint256"
        }
      ],
      "name": "Liquidate",
      "type": "event"
    },
    {
      "anonymous": false,
      "inputs": [
        {
          "indexed": true,
          "internalType": "address",
          "name": "payer",
          "type": "address"
        },
        {
          "indexed": true,
          "internalType": "address",
          "name": "receiver",
          "type": "address"
        },
        {
          "indexed": false,
          "internalType": "uint256",
          "name": "amount",
          "type": "uint256"
        },
        {
          "indexed": false,
          "internalType": "uint256",
          "name": "lpTokenAmount",
          "type": "uint256"
        }
      ],
      "name": "LpDeposit",
      "type": "event"
    },
    {
      "anonymous": false,
      "inputs": [
        {
          "indexed": true,
          "internalType": "address",
          "name": "payer",
          "type": "address"
        },
        {
          "indexed": true,
          "internalType": "address",
          "name": "receiver",
          "type": "address"
        },
        {
          "indexed": false,
          "internalType": "uint256",
          "name": "amount",
          "type": "uint256"
        },
        {
          "indexed": false,
          "internalType": "uint256",
          "name": "lpTokenAmount",
          "type": "uint256"
        }
      ],
      "name": "LpWithdraw",
      "type": "event"
    },
    {
      "anonymous": false,
      "inputs": [
        {
          "indexed": true,
          "internalType": "address",
          "name": "previousOwner",
          "type": "address"
        },
        {
          "indexed": true,
          "internalType": "address",
          "name": "newOwner",
          "type": "address"
        }
      ],
      "name": "OwnershipTransferPrepared",
      "type": "event"
    },
    {
      "anonymous": false,
      "inputs": [
        {
          "indexed": true,
          "internalType": "address",
          "name": "previousOwner",
          "type": "address"
        },
        {
          "indexed": true,
          "internalType": "address",
          "name": "newOwner",
          "type": "address"
        }
      ],
      "name": "OwnershipTransferred",
      "type": "event"
    },
    {
      "anonymous": false,
      "inputs": [
        {
          "indexed": true,
          "internalType": "address",
          "name": "seller",
          "type": "address"
        },
        {
          "indexed": false,
          "internalType": "uint256",
          "name": "payBase",
          "type": "uint256"
        },
        {
          "indexed": false,
          "internalType": "uint256",
          "name": "receiveQuote",
          "type": "uint256"
        }
      ],
      "name": "SellBaseToken",
      "type": "event"
    },
    {
      "anonymous": false,
      "inputs": [
        {
          "indexed": false,
          "internalType": "enum Types.Side",
          "name": "lossSide",
          "type": "uint8"
        },
        {
          "indexed": false,
          "internalType": "int256",
          "name": "sloss",
          "type": "int256"
        },
        {
          "indexed": false,
          "internalType": "uint256",
          "name": "totalSize",
          "type": "uint256"
        }
      ],
      "name": "SocialLossUpdate",
      "type": "event"
    },
    {
      "anonymous": false,
      "inputs": [
        {
          "indexed": true,
          "internalType": "address",
          "name": "trader",
          "type": "address"
        },
        {
          "indexed": false,
          "internalType": "uint256",
          "name": "amount",
          "type": "uint256"
        },
        {
          "indexed": false,
          "internalType": "int256",
          "name": "balance",
          "type": "int256"
        }
      ],
      "name": "Withdraw",
      "type": "event"
    },
    {
      "inputs": [],
      "name": "ADMIN",
      "outputs": [
        {
          "internalType": "contract Admin",
          "name": "",
          "type": "address"
        }
      ],
      "stateMutability": "view",
      "type": "function"
    },
    {
      "inputs": [],
      "name": "PRICING",
      "outputs": [
        {
          "internalType": "contract Pricing",
          "name": "",
          "type": "address"
        }
      ],
      "stateMutability": "view",
      "type": "function"
    },
    {
      "inputs": [],
      "name": "_BASE_BALANCE_",
      "outputs": [
        {
          "internalType": "uint256",
          "name": "",
          "type": "uint256"
        }
      ],
      "stateMutability": "view",
      "type": "function"
    },
    {
      "inputs": [],
      "name": "_COLLATERAL_POOL_TOKEN_",
      "outputs": [
        {
          "internalType": "address",
          "name": "",
          "type": "address"
        }
      ],
      "stateMutability": "view",
      "type": "function"
    },
    {
      "inputs": [
        {
          "internalType": "address",
          "name": "",
          "type": "address"
        }
      ],
      "name": "_MARGIN_ACCOUNT_",
      "outputs": [
        {
          "internalType": "enum Types.Side",
          "name": "SIDE",
          "type": "uint8"
        },
        {
          "internalType": "uint256",
          "name": "SIZE",
          "type": "uint256"
        },
        {
          "internalType": "uint256",
          "name": "ENTRY_VALUE",
          "type": "uint256"
        },
        {
          "internalType": "int256",
          "name": "CASH_BALANCE",
          "type": "int256"
        },
        {
          "internalType": "uint256",
          "name": "ENTRY_SLOSS",
          "type": "uint256"
        }
      ],
      "stateMutability": "view",
      "type": "function"
    },
    {
      "inputs": [],
      "name": "_NEW_OWNER_",
      "outputs": [
        {
          "internalType": "address",
          "name": "",
          "type": "address"
        }
      ],
      "stateMutability": "view",
      "type": "function"
    },
    {
      "inputs": [],
      "name": "_OWNER_",
      "outputs": [
        {
          "internalType": "address",
          "name": "",
          "type": "address"
        }
      ],
      "stateMutability": "view",
      "type": "function"
    },
    {
      "inputs": [],
      "name": "_POOL_INSURANCE_BALANCE_",
      "outputs": [
        {
          "internalType": "uint256",
          "name": "",
          "type": "uint256"
        }
      ],
      "stateMutability": "view",
      "type": "function"
    },
    {
      "inputs": [],
      "name": "_QUOTE_BALANCE_",
      "outputs": [
        {
          "internalType": "uint256",
          "name": "",
          "type": "uint256"
        }
      ],
      "stateMutability": "view",
      "type": "function"
    },
    {
      "inputs": [],
      "name": "_R_STATUS_",
      "outputs": [
        {
          "internalType": "enum Types.Side",
          "name": "",
          "type": "uint8"
        }
      ],
      "stateMutability": "view",
      "type": "function"
    },
    {
      "inputs": [
        {
          "internalType": "uint256",
          "name": "",
          "type": "uint256"
        }
      ],
      "name": "_SLOSS_PER_CONTRACT_",
      "outputs": [
        {
          "internalType": "uint256",
          "name": "",
          "type": "uint256"
        }
      ],
      "stateMutability": "view",
      "type": "function"
    },
    {
      "inputs": [],
      "name": "_TARGET_BASE_TOKEN_AMOUNT_",
      "outputs": [
        {
          "internalType": "uint256",
          "name": "",
          "type": "uint256"
        }
      ],
      "stateMutability": "view",
      "type": "function"
    },
    {
      "inputs": [],
      "name": "_TARGET_QUOTE_TOKEN_AMOUNT_",
      "outputs": [
        {
          "internalType": "uint256",
          "name": "",
          "type": "uint256"
        }
      ],
      "stateMutability": "view",
      "type": "function"
    },
    {
      "inputs": [],
      "name": "_TOTAL_LONG_SIZE_",
      "outputs": [
        {
          "internalType": "uint256",
          "name": "",
          "type": "uint256"
        }
      ],
      "stateMutability": "view",
      "type": "function"
    },
    {
      "inputs": [
        {
          "components": [
            {
              "internalType": "enum Types.Side",
              "name": "SIDE",
              "type": "uint8"
            },
            {
              "internalType": "uint256",
              "name": "SIZE",
              "type": "uint256"
            },
            {
              "internalType": "uint256",
              "name": "ENTRY_VALUE",
              "type": "uint256"
            },
            {
              "internalType": "int256",
              "name": "CASH_BALANCE",
              "type": "int256"
            },
            {
              "internalType": "uint256",
              "name": "ENTRY_SLOSS",
              "type": "uint256"
            }
          ],
          "internalType": "struct Types.MarginAccount",
          "name": "account",
          "type": "tuple"
        },
        {
          "internalType": "uint256",
          "name": "markPrice",
          "type": "uint256"
        }
      ],
      "name": "availableMargin",
      "outputs": [
        {
          "internalType": "int256",
          "name": "",
          "type": "int256"
        }
      ],
      "stateMutability": "view",
      "type": "function"
    },
    {
      "inputs": [
        {
          "components": [
            {
              "internalType": "enum Types.Side",
              "name": "SIDE",
              "type": "uint8"
            },
            {
              "internalType": "uint256",
              "name": "SIZE",
              "type": "uint256"
            },
            {
              "internalType": "uint256",
              "name": "ENTRY_VALUE",
              "type": "uint256"
            },
            {
              "internalType": "int256",
              "name": "CASH_BALANCE",
              "type": "int256"
            },
            {
              "internalType": "uint256",
              "name": "ENTRY_SLOSS",
              "type": "uint256"
            }
          ],
          "internalType": "struct Types.MarginAccount",
          "name": "account",
          "type": "tuple"
        }
      ],
      "name": "balanceMargin",
      "outputs": [
        {
          "internalType": "int256",
          "name": "",
          "type": "int256"
        }
      ],
      "stateMutability": "view",
      "type": "function"
    },
    {
      "inputs": [
        {
          "internalType": "uint256",
          "name": "amount",
          "type": "uint256"
        },
        {
          "internalType": "uint256",
          "name": "maxPayQuote",
          "type": "uint256"
        }
      ],
      "name": "buyBaseToken",
      "outputs": [
        {
          "internalType": "uint256",
          "name": "",
          "type": "uint256"
        }
      ],
      "stateMutability": "nonpayable",
      "type": "function"
    },
    {
      "inputs": [],
      "name": "claimOwnership",
      "outputs": [],
      "stateMutability": "nonpayable",
      "type": "function"
    },
    {
      "inputs": [
        {
          "internalType": "address",
          "name": "from",
          "type": "address"
        },
        {
          "internalType": "uint256",
          "name": "amount",
          "type": "uint256"
        }
      ],
      "name": "collateralTraderTransferIn",
      "outputs": [],
      "stateMutability": "nonpayable",
      "type": "function"
    },
    {
      "inputs": [
        {
          "internalType": "address",
          "name": "to",
          "type": "address"
        },
        {
          "internalType": "uint256",
          "name": "amount",
          "type": "uint256"
        }
      ],
      "name": "collateralTraderTransferOut",
      "outputs": [],
      "stateMutability": "nonpayable",
      "type": "function"
    },
    {
      "inputs": [
        {
          "internalType": "uint256",
          "name": "amount",
          "type": "uint256"
        }
      ],
      "name": "depositCollateral",
      "outputs": [],
      "stateMutability": "nonpayable",
      "type": "function"
    },
    {
      "inputs": [
        {
          "internalType": "address",
          "name": "lp",
          "type": "address"
        }
      ],
      "name": "getCollateralPoolTokenBalanceOf",
      "outputs": [
        {
          "internalType": "uint256",
          "name": "",
          "type": "uint256"
        }
      ],
      "stateMutability": "view",
      "type": "function"
    },
    {
      "inputs": [],
      "name": "getPoolMarginCashBalance",
      "outputs": [
        {
          "internalType": "int256",
          "name": "",
          "type": "int256"
        }
      ],
      "stateMutability": "view",
      "type": "function"
    },
    {
      "inputs": [],
      "name": "getPoolMarginEntrySloss",
      "outputs": [
        {
          "internalType": "uint256",
          "name": "",
          "type": "uint256"
        }
      ],
      "stateMutability": "view",
      "type": "function"
    },
    {
      "inputs": [],
      "name": "getPoolMarginEntryValue",
      "outputs": [
        {
          "internalType": "uint256",
          "name": "",
          "type": "uint256"
        }
      ],
      "stateMutability": "view",
      "type": "function"
    },
    {
      "inputs": [],
      "name": "getPoolMarginSide",
      "outputs": [
        {
          "internalType": "enum Types.Side",
          "name": "",
          "type": "uint8"
        }
      ],
      "stateMutability": "view",
      "type": "function"
    },
    {
      "inputs": [],
      "name": "getPoolMarginSize",
      "outputs": [
        {
          "internalType": "uint256",
          "name": "",
          "type": "uint256"
        }
      ],
      "stateMutability": "view",
      "type": "function"
    },
    {
      "inputs": [],
      "name": "getSloss",
      "outputs": [
        {
          "internalType": "uint256[3]",
          "name": "",
          "type": "uint256[3]"
        }
      ],
      "stateMutability": "view",
      "type": "function"
    },
    {
      "inputs": [],
      "name": "getTotalCollateralPoolToken",
      "outputs": [
        {
          "internalType": "uint256",
          "name": "",
          "type": "uint256"
        }
      ],
      "stateMutability": "view",
      "type": "function"
    },
    {
      "inputs": [],
      "name": "getTotalSize",
      "outputs": [
        {
          "internalType": "uint256[3]",
          "name": "",
          "type": "uint256[3]"
        }
      ],
      "stateMutability": "view",
      "type": "function"
    },
    {
      "inputs": [
        {
          "internalType": "uint256",
          "name": "amount",
          "type": "uint256"
        },
        {
          "internalType": "uint256",
          "name": "markPrice",
          "type": "uint256"
        }
      ],
      "name": "initialMargin",
      "outputs": [
        {
          "internalType": "uint256",
          "name": "",
          "type": "uint256"
        }
      ],
      "stateMutability": "view",
      "type": "function"
    },
    {
      "inputs": [
        {
          "internalType": "address",
          "name": "trader",
          "type": "address"
        }
      ],
      "name": "isSafeMaintain",
      "outputs": [
        {
          "internalType": "bool",
          "name": "",
          "type": "bool"
        }
      ],
      "stateMutability": "view",
      "type": "function"
    },
    {
      "inputs": [
        {
          "components": [
            {
              "internalType": "enum Types.Side",
              "name": "SIDE",
              "type": "uint8"
            },
            {
              "internalType": "uint256",
              "name": "SIZE",
              "type": "uint256"
            },
            {
              "internalType": "uint256",
              "name": "ENTRY_VALUE",
              "type": "uint256"
            },
            {
              "internalType": "int256",
              "name": "CASH_BALANCE",
              "type": "int256"
            },
            {
              "internalType": "uint256",
              "name": "ENTRY_SLOSS",
              "type": "uint256"
            }
          ],
          "internalType": "struct Types.MarginAccount",
          "name": "account",
          "type": "tuple"
        },
        {
          "internalType": "uint256",
          "name": "openValue",
          "type": "uint256"
        }
      ],
      "name": "isSafeOpen",
      "outputs": [
        {
          "internalType": "bool",
          "name": "",
          "type": "bool"
        }
      ],
      "stateMutability": "view",
      "type": "function"
    },
    {
      "inputs": [
        {
          "internalType": "address",
          "name": "liquidator",
          "type": "address"
        },
        {
          "internalType": "address",
          "name": "trader",
          "type": "address"
        }
      ],
      "name": "liquidate",
      "outputs": [],
      "stateMutability": "nonpayable",
      "type": "function"
    },
    {
      "inputs": [
        {
          "internalType": "uint256",
          "name": "amount",
          "type": "uint256"
        },
        {
          "internalType": "uint256",
          "name": "markPrice",
          "type": "uint256"
        }
      ],
      "name": "maintenanceMargin",
      "outputs": [
        {
          "internalType": "uint256",
          "name": "",
          "type": "uint256"
        }
      ],
      "stateMutability": "view",
      "type": "function"
    },
    {
      "inputs": [
        {
          "internalType": "uint256",
          "name": "amount",
          "type": "uint256"
        },
        {
          "internalType": "uint256",
          "name": "minReceiveQuote",
          "type": "uint256"
        }
      ],
      "name": "sellBaseToken",
      "outputs": [
        {
          "internalType": "uint256",
          "name": "",
          "type": "uint256"
        }
      ],
      "stateMutability": "nonpayable",
      "type": "function"
    },
    {
      "inputs": [
        {
          "internalType": "address",
          "name": "newOwner",
          "type": "address"
        }
      ],
      "name": "transferOwnership",
      "outputs": [],
      "stateMutability": "nonpayable",
      "type": "function"
    },
    {
      "inputs": [],
      "name": "withdrawAllCollateral",
      "outputs": [],
      "stateMutability": "nonpayable",
      "type": "function"
    },
    {
      "inputs": [
        {
          "internalType": "uint256",
          "name": "amount",
          "type": "uint256"
        }
      ],
      "name": "withdrawCollateral",
      "outputs": [],
      "stateMutability": "nonpayable",
      "type": "function"
    },
    {
      "inputs": [
        {
          "internalType": "address",
          "name": "adminAddress",
          "type": "address"
        },
        {
          "internalType": "address",
          "name": "pricingAddress",
          "type": "address"
        },
        {
          "internalType": "string",
          "name": "tokenName",
          "type": "string"
        }
      ],
      "name": "init",
      "outputs": [],
      "stateMutability": "nonpayable",
      "type": "function"
    }
  ],
  "bytecode": "0x6080604052600a805460ff1916905534801561001a57600080fd5b5061577e8061002a6000396000f3fe60806040523480156200001157600080fd5b5060043610620002805760003560e01c8063901b48101162000159578063b4cab95511620000c9578063da3a4c311162000087578063da3a4c31146200050f578063eab5d20e1462000526578063f2fde38b1462000530578063f9f8eda81462000547578063fa6a5eae14620005515762000280565b8063b4cab95514620004c3578063bad4a01f14620004cd578063c438935114620004e4578063d38b520914620004ee578063d6b4129814620005055762000280565b8063a8b13ddf1162000117578063a8b13ddf1462000464578063b192a3eb146200046e578063b1e073661462000478578063b2094fd314620004a2578063b35b08e914620004ac5762000280565b8063901b481014620004185780639103b8b71462000422578063952d7c57146200042c578063a163805c1462000443578063a51843ef146200044d5762000280565b80633d23755d11620001f557806372decd7a11620001b357806372decd7a14620003d95780637374956714620003e35780637c9b8e8914620003ed5780638456db1514620003f757806386b9d81f14620004015762000280565b80633d23755d14620003735780634a2473c3146200038a5780634e71e0c814620003a15780635c9a6d3714620003ab5780636112fe2e14620003c25762000280565b8063245c96851162000243578063245c968514620003255780632a0acc6a146200032f5780632b32812a14620003395780632efc6ee7146200034357806338873925146200035c5762000280565b80630be4cea9146200028557806313ddd8fb14620002b457806316048bc414620002da57806317be952e14620002f357806322d779cc146200030c575b600080fd5b6200029c6200029636600462003ef1565b62000568565b604051620002ab91906200416b565b60405180910390f35b620002cb620002c536600462003d33565b620005a9565b604051620002ab9190620040b6565b620002e4620006d1565b604051620002ab919062004032565b620002fd620006e0565b604051620002ab9190620040c1565b620003236200031d36600462003e6a565b620006e9565b005b6200029c620006f9565b620002e4620006ff565b6200029c6200070e565b6200034d62000724565b604051620002ab919062004083565b6200029c6200036d36600462003f37565b620007ce565b6200029c6200038436600462003d33565b62000870565b6200029c6200039b36600462003ed3565b620008f8565b62000323620009af565b62000323620003bc36600462003dae565b62000a49565b62000323620003d336600462003f1e565b62000b18565b6200029c62000b27565b6200032362000b3d565b6200029c62000b4a565b620002e462000b50565b620003236200041236600462003d71565b62000b5f565b6200029c62000d67565b6200029c62000df8565b6200029c6200043d36600462003f37565b62000e0e565b620002e462001492565b6200029c6200045e36600462003f37565b620014a1565b6200029c62001a2a565b620002e462001a30565b6200048f6200048936600462003d33565b62001a3f565b604051620002ab9594939291906200413b565b6200029c62001a72565b6200029c620004bd36600462003f37565b62001a78565b6200029c62001ad9565b62000323620004de36600462003f1e565b62001aef565b6200034d62001afb565b6200029c620004ff36600462003f1e565b62001b39565b620002fd62001b4e565b620002cb6200052036600462003ef1565b62001b64565b6200029c62001c55565b620003236200054136600462003d33565b62001c5b565b6200029c62001d0c565b620003236200056236600462003e6a565b62001d12565b6000620005a06200058862000582856020015185620007ce565b62001d1e565b6200059385620008f8565b9063ffffffff62001d4e16565b90505b92915050565b6000620005b562003c3e565b6001600160a01b03831660009081526005602052604090819020815160a081019092528054829060ff166002811115620005eb57fe5b6002811115620005f757fe5b81526020016001820154815260200160028201548152602001600382015481526020016004820154815250509050620006bc620005828260200151600360009054906101000a90046001600160a01b03166001600160a01b031663ee27c6896040518163ffffffff1660e01b815260040160206040518083038186803b1580156200068157600080fd5b505afa15801562000696573d6000803e3d6000fd5b505050506040513d601f19601f82011682018060405250810190620004bd919062003eba565b620006c782620008f8565b139150505b919050565b6000546001600160a01b031681565b600a5460ff1681565b620006f5828262001d9a565b5050565b60075481565b6002546001600160a01b031681565b3060009081526005602052604090206001015490565b6200072e62003c6e565b600060023060009081526005602052604090205460ff1660028111156200075157fe5b14620007845730600090815260056020526040902060010154600b546200077e9163ffffffff62001e9e16565b620007ab565b30600090815260056020526040902060010154600b54620007ab9163ffffffff62001ec916565b60408051606081018252600081526020810192909252600b549082015291505090565b6000620005a0620007e0838562001ef1565b600260009054906101000a90046001600160a01b03166001600160a01b03166398a0a53d6040518163ffffffff1660e01b815260040160206040518083038186803b1580156200082f57600080fd5b505afa15801562000844573d6000803e3d6000fd5b505050506040513d601f19601f820116820180604052508101906200086a919062003eba565b62001ef1565b600480546040516370a0823160e01b81526000926001600160a01b03909216916370a0823191620008a49186910162004032565b60206040518083038186803b158015620008bd57600080fd5b505afa158015620008d2573d6000803e3d6000fd5b505050506040513d601f19601f82011682018060405250810190620005a3919062003eba565b600354815160208301516040808501516080860151915163b69437cd60e01b8152600095620005a3956001600160a01b039091169463b69437cd94620009499492939192918391906004016200413b565b60206040518083038186803b1580156200096257600080fd5b505afa15801562000977573d6000803e3d6000fd5b505050506040513d601f19601f820116820180604052508101906200099d919062003eba565b60608401519063ffffffff62001f1e16565b6001546001600160a01b03163314620009e55760405162461bcd60e51b8152600401620009dc90620041ee565b60405180910390fd5b600154600080546040516001600160a01b0393841693909116917f8be0079c531659141344cd1fd0a4f28419497f9722a3daafe3b4186f6b6457e091a360018054600080546001600160a01b03199081166001600160a01b03841617909155169055565b600154600160a81b900460ff161562000a765760405162461bcd60e51b8152600401620009dc9062004277565b6001805460ff60a81b1916600160a81b179055600280546001600160a01b038086166001600160a01b0319928316179092556003805492851692909116919091179055604051819062000ac99062003c8c565b62000ad5919062004174565b604051809103906000f08015801562000af2573d6000803e3d6000fd5b50600480546001600160a01b0319166001600160a01b0392909216919091179055505050565b62000b24338262001f6a565b50565b3060009081526005602052604090206003015490565b62000b4833620024c3565b565b60095481565b6001546001600160a01b031681565b62000b6a81620005a9565b1562000b8a5760405162461bcd60e51b8152600401620009dc90620044ef565b62000b9462003c3e565b6001600160a01b03831660009081526005602052604090819020815160a081019092528054829060ff16600281111562000bca57fe5b600281111562000bd657fe5b8152602001600182015481526020016002820154815260200160038201548152602001600482015481525050905062000c0e62003c3e565b6001600160a01b03831660009081526005602052604090819020815160a081019092528054829060ff16600281111562000c4457fe5b600281111562000c5057fe5b815260200160018201548152602001600282015481526020016003820154815260200160048201548152505090506000600360009054906101000a90046001600160a01b03166001600160a01b0316634b0301a5836000015184602001516040518363ffffffff1660e01b815260040162000ccd929190620040fb565b60206040518083038186803b15801562000ce657600080fd5b505afa15801562000cfb573d6000803e3d6000fd5b505050506040513d601f19601f8201168201806040525081019062000d21919062003eba565b905062000d2f838262001b64565b62000d4e5760405162461bcd60e51b8152600401620009dc9062004368565b62000d60858583856020015162002514565b5050505050565b6000600460009054906101000a90046001600160a01b03166001600160a01b03166318160ddd6040518163ffffffff1660e01b815260040160206040518083038186803b15801562000db857600080fd5b505afa15801562000dcd573d6000803e3d6000fd5b505050506040513d601f19601f8201168201806040525081019062000df3919062003eba565b905090565b3060009081526005602052604090206004015490565b600154600090600160a01b900460ff161562000e3e5760405162461bcd60e51b8152600401620009dc90620042cf565b6001805460ff60a01b1916600160a01b1790558262000e715760405162461bcd60e51b8152600401620009dc90620042a1565b600260009054906101000a90046001600160a01b03166001600160a01b031663ee3dfe2b6040518163ffffffff1660e01b815260040160006040518083038186803b15801562000ec057600080fd5b505afa15801562000ed5573d6000803e3d6000fd5b50505050600260009054906101000a90046001600160a01b03166001600160a01b031663961a929c6040518163ffffffff1660e01b815260040160006040518083038186803b15801562000f2857600080fd5b505afa15801562000f3d573d6000803e3d6000fd5b5050505062000f4b62003c9a565b60035460405163f0d8a75960e01b8152600091829182916001600160a01b03169063f0d8a7599062000f82908a906004016200416b565b6101006040518083038186803b15801562000f9c57600080fd5b505afa15801562000fb1573d6000803e3d6000fd5b505050506040513d601f19601f8201168201806040525081019062000fd7919062003fa8565b8b6020810160408201606083016080840185600281111562000ff557fe5b60028111156200100157fe5b90529490945293909252509190525291945092509050858310156200103a5760405162461bcd60e51b8152600401620009dc90620045ca565b6200104462003c3e565b3360009081526005602052604090819020815160a081019092528054829060ff1660028111156200107157fe5b60028111156200107d57fe5b81526020016001820154815260200160028201548152602001600382015481526020016004820154815250509050620010b562003c3e565b3060009081526005602052604090819020815160a081019092528054829060ff166002811115620010e257fe5b6002811115620010ee57fe5b8152602001600182015481526020016002820154815260200160038201548152602001600482015481525050905062001128828662001b64565b620011475760405162461bcd60e51b8152600401620009dc906200439f565b62001156826001878c62002c6f565b915062001167816002878c62002c6f565b90508315620011ab57620011916200117f8562001d1e565b60608401519063ffffffff62001d4e16565b6060830152620011a56200099d8562001d1e565b60608201525b82156200133957620011c16200117f8462001d1e565b60608301526200128d620011d58462001d1e565b60056000600260009054906101000a90046001600160a01b03166001600160a01b0316634322ec836040518163ffffffff1660e01b815260040160206040518083038186803b1580156200122857600080fd5b505afa1580156200123d573d6000803e3d6000fd5b505050506040513d601f19601f8201168201806040525081019062001263919062003d52565b6001600160a01b031681526020810191909152604001600020600301549063ffffffff62001f1e16565b60056000600260009054906101000a90046001600160a01b03166001600160a01b0316634322ec836040518163ffffffff1660e01b815260040160206040518083038186803b158015620012e057600080fd5b505afa158015620012f5573d6000803e3d6000fd5b505050506040513d601f19601f820116820180604052508101906200131b919062003d52565b6001600160a01b031681526020810191909152604001600020600301555b3360009081526005602052604090208251815484929190829060ff191660018360028111156200136557fe5b0217905550602082015181600101556040820151816002015560608201518160030155608082015181600401559050508060056000306001600160a01b03166001600160a01b0316815260200190815260200160002060008201518160000160006101000a81548160ff02191690836002811115620013e057fe5b0217905550602082015181600101556040820151816002015560608201518160030155608082015181600401559050506200143386600001518760200151886040015189606001518a6080015162002d50565b336001600160a01b03167fd8648b6ac54162763c86fd54bf2005af8ecd2f9cb273a5775921fd7f91e17b2d8a8760405162001470929190620046a4565b60405180910390a250506001805460ff60a01b19169055509095945050505050565b6003546001600160a01b031681565b600154600090600160a01b900460ff1615620014d15760405162461bcd60e51b8152600401620009dc90620042cf565b6001805460ff60a01b1916600160a01b179055600254604080516347c7bf5960e11b815290516001600160a01b0390921691638f8f7eb291600480820192600092909190829003018186803b1580156200152a57600080fd5b505afa1580156200153f573d6000803e3d6000fd5b50505050600260009054906101000a90046001600160a01b03166001600160a01b031663961a929c6040518163ffffffff1660e01b815260040160006040518083038186803b1580156200159257600080fd5b505afa158015620015a7573d6000803e3d6000fd5b50505050620015b562003c9a565b6003546040516321d39cbb60e11b8152600091829182916001600160a01b0316906343a7397690620015ec908a906004016200416b565b6101006040518083038186803b1580156200160657600080fd5b505afa1580156200161b573d6000803e3d6000fd5b505050506040513d601f19601f8201168201806040525081019062001641919062003fa8565b8b602081016040820160608301608084018560028111156200165f57fe5b60028111156200166b57fe5b9052949094529390925250919052529194509250905085620016a68262001699868663ffffffff62001ec916565b9063ffffffff62001ec916565b1115620016c75760405162461bcd60e51b8152600401620009dc9062004651565b620016d162003c3e565b3360009081526005602052604090819020815160a081019092528054829060ff166002811115620016fe57fe5b60028111156200170a57fe5b815260200160018201548152602001600282015481526020016003820154815260200160048201548152505090506200174262003c3e565b3060009081526005602052604090819020815160a081019092528054829060ff1660028111156200176f57fe5b60028111156200177b57fe5b81526020016001820154815260200160028201548152602001600382015481526020016004820154815250509050620017b5828662001b64565b620017d45760405162461bcd60e51b8152600401620009dc906200439f565b620017e3826002878c62002c6f565b9150620017f4816001878c62002c6f565b9050831562001826576200180c6200117f8562001d1e565b6060830152620018206200099d8562001d1e565b60608201525b8215620018fc576200183c6200117f8462001d1e565b606083015262001850620011d58462001d1e565b60056000600260009054906101000a90046001600160a01b03166001600160a01b0316634322ec836040518163ffffffff1660e01b815260040160206040518083038186803b158015620018a357600080fd5b505afa158015620018b8573d6000803e3d6000fd5b505050506040513d601f19601f82011682018060405250810190620018de919062003d52565b6001600160a01b031681526020810191909152604001600020600301555b6200191f86600001518760200151886040015189606001518a6080015162002d50565b3360009081526005602052604090208251815484929190829060ff191660018360028111156200194b57fe5b0217905550602082015181600101556040820151816002015560608201518160030155608082015181600401559050508060056000306001600160a01b03166001600160a01b0316815260200190815260200160002060008201518160000160006101000a81548160ff02191690836002811115620019c657fe5b0217905550602082015160018201556040808301516002830155606083015160038301556080909201516004909101555133907fe93ad76094f247c0dafc1c61adc2187de1ac2738f7a3b49cb20b2263420251a39062001470908c908990620046a4565b600b5481565b6004546001600160a01b031681565b6005602052600090815260409020805460018201546002830154600384015460049094015460ff90931693919290919085565b60065481565b6000620005a062001a8a838562001ef1565b600260009054906101000a90046001600160a01b03166001600160a01b031663fe73ee736040518163ffffffff1660e01b815260040160206040518083038186803b1580156200082f57600080fd5b3060009081526005602052604090206002015490565b62000b24338262002ddb565b62001b0562003c6e565b60408051606081019182905290600c9060039082845b81548152602001906001019080831162001b1b575050505050905090565b600c816003811062001b4757fe5b0154905081565b3060009081526005602052604090205460ff1690565b600062001bbe6200058283600260009054906101000a90046001600160a01b03166001600160a01b03166398a0a53d6040518163ffffffff1660e01b815260040160206040518083038186803b1580156200082f57600080fd5b62001c4d84600360009054906101000a90046001600160a01b03166001600160a01b031663ee27c6896040518163ffffffff1660e01b815260040160206040518083038186803b15801562001c1257600080fd5b505afa15801562001c27573d6000803e3d6000fd5b505050506040513d601f19601f8201168201806040525081019062000296919062003eba565b139392505050565b60085481565b6000546001600160a01b0316331462001c885760405162461bcd60e51b8152600401620009dc90620044cc565b6001600160a01b03811662001cb15760405162461bcd60e51b8152600401620009dc9062004486565b600080546040516001600160a01b03808516939216917fdcf55418cee3220104fef63f979ff3c4097ad240c0c43dcb33ce837748983e6291a3600180546001600160a01b0319166001600160a01b0392909216919091179055565b600f5481565b620006f58282620033ec565b60006001600160ff1b0382111562001d4a5760405162461bcd60e51b8152600401620009dc9062004601565b5090565b600081830381831280159062001d645750838113155b8062001d7b575060008312801562001d7b57508381135b620005a05760405162461bcd60e51b8152600401620009dc906200453c565b62001e43823083600260009054906101000a90046001600160a01b03166001600160a01b031663cb102dd26040518163ffffffff1660e01b815260040160206040518083038186803b15801562001df057600080fd5b505afa15801562001e05573d6000803e3d6000fd5b505050506040513d601f19601f8201168201806040525081019062001e2b919062003d52565b6001600160a01b031692919063ffffffff620034d916565b62001e7b62001e528262001d1e565b6001600160a01b0384166000908152600560205260409020600301549063ffffffff62001f1e16565b6001600160a01b0390921660009081526005602052604090206003019190915550565b60008282111562001ec35760405162461bcd60e51b8152600401620009dc9062004434565b50900390565b600082820183811015620005a05760405162461bcd60e51b8152600401620009dc9062004519565b6000670de0b6b3a764000062001f0e848463ffffffff6200353b16565b8162001f1657fe5b049392505050565b600082820181831280159062001f345750838112155b8062001f4b575060008312801562001f4b57508381125b620005a05760405162461bcd60e51b8152600401620009dc90620042f2565b600154600160a01b900460ff161562001f975760405162461bcd60e51b8152600401620009dc90620042cf565b6001805460ff60a01b1916600160a01b1790556002546040805163a4a5e9ad60e01b815290516001600160a01b039092169163a4a5e9ad91600480820192600092909190829003018186803b15801562001ff057600080fd5b505afa15801562002005573d6000803e3d6000fd5b50505050600260009054906101000a90046001600160a01b03166001600160a01b031663d76bfbd96040518163ffffffff1660e01b815260040160006040518083038186803b1580156200205857600080fd5b505afa1580156200206d573d6000803e3d6000fd5b5050505060006200207d62000d67565b905060008111620020a25760405162461bcd60e51b8152600401620009dc90620044ad565b620020ac62003c3e565b3060009081526005602052604090819020815160a081019092528054829060ff166002811115620020d957fe5b6002811115620020e557fe5b815260200160018201548152602001600282015481526020016003820154815260200160048201548152505090506000620021346200212585856200357b565b6200086a8460600151620035a9565b9050620021428582620035ce565b60008060006200215387876200357b565b90506000855160028111156200216557fe5b146200231b576200217b81866020015162001ef1565b92506200218d81866040015162001ef1565b91506200219962003c3e565b6001600160a01b03891660009081526005602052604090819020815160a081019092528054829060ff166002811115620021cf57fe5b6002811115620021db57fe5b815260200160018201548152602001600282015481526020016003820154815260200160048201548152505090506200221b818760000151858762002c6f565b9050620022398662002231886000015162003642565b858762002c6f565b6001600160a01b038a166000908152600560205260409020825181549298508392829060ff191660018360028111156200226f57fe5b0217905550602082015181600101556040820151816002015560608201518160030155608082015181600401559050508560056000306001600160a01b03166001600160a01b0316815260200190815260200160002060008201518160000160006101000a81548160ff02191690836002811115620022ea57fe5b0217905550602082015160018201556040820151600282015560608201516003820155608090910151600490910155505b6000806000806000600360009054906101000a90046001600160a01b03166001600160a01b031663ffa642256040518163ffffffff1660e01b815260040160a06040518083038186803b1580156200237257600080fd5b505afa15801562002387573d6000803e3d6000fd5b505050506040513d601f19601f82011682018060405250810190620023ad919062003f59565b939850919650945092509050620023d8846200086a670de0b6b3a76400008963ffffffff62001e9e16565b9350620023f9856200086a670de0b6b3a76400008963ffffffff62001e9e16565b94506200241a826200086a670de0b6b3a76400008963ffffffff62001e9e16565b91506200243b836200086a670de0b6b3a76400008963ffffffff62001e9e16565b92506200244c858585858562002d50565b620024588d8d62003682565b8c6001600160a01b0316336001600160a01b03167f92da889ebdf9766a076ef7881c4618bd4667d5f74d6cf3fa1c82f319cdb399608b8f6040516200249f929190620046a4565b60405180910390a350506001805460ff60a01b191690555050505050505050505050565b6000620024cf62000d67565b905060008111620024f45760405162461bcd60e51b8152600401620009dc9062004215565b6000620025018362000870565b90506200250f838262001f6a565b505050565b6200251e62003c3e565b6001600160a01b03851660009081526005602052604090819020815160a081019092528054829060ff1660028111156200255457fe5b60028111156200256057fe5b815260200160018201548152602001600282015481526020016003820154815260200160048201548152505090506200259862003c3e565b6001600160a01b03851660009081526005602052604090819020815160a081019092528054829060ff166002811115620025ce57fe5b6002811115620025da57fe5b815260200160018201548152602001600282015481526020016003820154815260200160048201548152505090506200261262003c3e565b3060009081526005602052604090819020815160a081019092528054829060ff1660028111156200263f57fe5b60028111156200264b57fe5b815260018201546020820152600282015460408201526003820154606082015260049091015460809091015282519091506000620026898262003642565b905060006200272662000582600260009054906101000a90046001600160a01b03166001600160a01b031663f5cdd2026040518163ffffffff1660e01b815260040160206040518083038186803b158015620026e457600080fd5b505afa158015620026f9573d6000803e3d6000fd5b505050506040513d601f19601f820116820180604052508101906200271f919062003eba565b8a62001ef1565b90506000620027c362000582600260009054906101000a90046001600160a01b03166001600160a01b03166311187e366040518163ffffffff1660e01b815260040160206040518083038186803b1580156200278157600080fd5b505afa15801562002796573d6000803e3d6000fd5b505050506040513d601f19601f82011682018060405250810190620027bc919062003eba565b8b62001ef1565b9050620027dd86620027d58662003642565b8b8b62002c6f565b9550620027ed87858b8b62002c6f565b965062002801828263ffffffff62001f1e16565b86606001511262002871576200282a816200059384896060015162001d4e90919063ffffffff16565b60608088019190915287015162002848908363ffffffff62001f1e16565b60608089019190915285015162002866908263ffffffff62001f1e16565b606086015262002aa0565b81866060015112620028de57606087015162002894908363ffffffff62001f1e16565b606080890191909152860151620028c990620028b7908463ffffffff62001d4e16565b60608701519063ffffffff62001f1e16565b60608087019190915260009087015262002aa0565b8162002902620028f0600f5462001d1e565b60608901519063ffffffff62001f1e16565b12620029735760608701516200291f908363ffffffff62001f1e16565b6060808901919091528601516000906200294190849063ffffffff62001d4e16565b9050620029626200295282620035a9565b600f549063ffffffff62001e9e16565b600f55506000606087015262002aa0565b60608701516200298a908363ffffffff62001f1e16565b8760600181815250506000620029ca620029bc620029aa600f5462001d1e565b60608a01519063ffffffff62001f1e16565b849063ffffffff62001d4e16565b6000600f81905560608901529050620029e262003c6e565b620029ec62000724565b905062002a21620029fd83620035a9565b8287600281111562002a0b57fe5b6003811062002a1657fe5b60200201516200357b565b600c86600281111562002a3057fe5b6003811062002a3b57fe5b01805490910190557fe7c36d6fb87e3948a53ae9860b822817eeadf4473006f88cecd0180fcaae75ed85838382600281111562002a7457fe5b6003811062002a7f57fe5b602002015160405162002a9593929190620040d8565b60405180910390a150505b6001600160a01b038a1660009081526005602052604090208651815488929190829060ff1916600183600281111562002ad557fe5b02179055506020820151816001015560408201518160020155606082015181600301556080820151816004015590505086600560008d6001600160a01b03166001600160a01b0316815260200190815260200160002060008201518160000160006101000a81548160ff0219169083600281111562002b5057fe5b02179055506020820151816001015560408201518160020155606082015181600301556080820151816004015590505060056000306001600160a01b03166001600160a01b03168152602001908152602001600020600301548560600151141562002c11573060009081526005602052604090208551815487929190829060ff1916600183600281111562002be157fe5b02179055506020820151600182015560408201516002820155606082015160038201556080909101516004909101555b896001600160a01b03168b6001600160a01b03167f54f9b006b19a44694e56b0d6a57f34c420bf88da7373f9d0f3380e5f4b70951e868c8c60405162002c5a9392919062004119565b60405180910390a35050505050505050505050565b62002c7962003c3e565b602085015160009083901580159062002cab575085600281111562002c9a57fe5b8751600281111562002ca857fe5b14155b1562002d1c578660200151841162002cd65762002cca878587620036ed565b96506000905062002d1c565b62002ceb856200086a8960200151876200357b565b915062002cfe87886020015184620036ed565b965062002d1987602001518562001e9e90919063ffffffff16565b90505b801562002d455762002d4287878362002d3c898763ffffffff62001e9e16565b6200391a565b96505b509495945050505050565b826007541462002d605760078390555b846006541462002d705760068590555b836008541462002d805760088490555b816009541462002d905760098290555b80600281111562002d9d57fe5b600a5460ff16600281111562002daf57fe5b1462000d6057600a805482919060ff1916600183600281111562002dcf57fe5b02179055505050505050565b600154600160a01b900460ff161562002e085760405162461bcd60e51b8152600401620009dc90620042cf565b6001805460ff60a01b1916600160a01b1790556002546040805163a4a5e9ad60e01b815290516001600160a01b039092169163a4a5e9ad91600480820192600092909190829003018186803b15801562002e6157600080fd5b505afa15801562002e76573d6000803e3d6000fd5b50505050600260009054906101000a90046001600160a01b03166001600160a01b031663d76bfbd96040518163ffffffff1660e01b815260040160006040518083038186803b15801562002ec957600080fd5b505afa15801562002ede573d6000803e3d6000fd5b50505050600260009054906101000a90046001600160a01b03166001600160a01b031663c30ea2a26040518163ffffffff1660e01b815260040160006040518083038186803b15801562002f3157600080fd5b505afa15801562002f46573d6000803e3d6000fd5b5050505062002f5462003c3e565b6001600160a01b03831660009081526005602052604090819020815160a081019092528054829060ff16600281111562002f8a57fe5b600281111562002f9657fe5b8152602001600182015481526020016002820154815260200160038201548152602001600482015481525050905062002fcf8262001d1e565b62002fda82620008f8565b121562002ffb5760405162461bcd60e51b8152600401620009dc906200424c565b60006200300762000d67565b90506000816200301957508262003177565b6000803060009081526005602052604090205460ff1660028111156200303b57fe5b14156200305c57503060009081526005602052604090206003015462003152565b600354306000908152600560205260409020546200314f916001600160a01b03169063b69437cd90620030929060ff1662003642565b30600090815260056020526040908190206001810154600282015460049283015493516001600160e01b031960e088901b168152620030db95949293919284929091016200413b565b60206040518083038186803b158015620030f457600080fd5b505afa15801562003109573d6000803e3d6000fd5b505050506040513d601f19601f820116820180604052508101906200312f919062003eba565b306000908152600560205260409020600301549063ffffffff62001f1e16565b90505b620031736200316c866200316684620035a9565b6200357b565b8462001ef1565b9150505b60035430600090815260056020526040812054600954919283928392839283926001600160a01b039091169163ffa960b49160ff90911690620031c1908d63ffffffff62001ec916565b600260009054906101000a90046001600160a01b03166001600160a01b031663796da7af6040518163ffffffff1660e01b815260040160206040518083038186803b1580156200321057600080fd5b505afa15801562003225573d6000803e3d6000fd5b505050506040513d601f19601f820116820180604052508101906200324b919062003eba565b3060009081526005602090815260409182902060010154600254835163ec2fd46d60e01b8152935191936001600160a01b039091169263ec2fd46d92600480840193829003018186803b158015620032a257600080fd5b505afa158015620032b7573d6000803e3d6000fd5b505050506040513d601f19601f82011682018060405250810190620032dd919062003eba565b6040518663ffffffff1660e01b8152600401620032ff9594939291906200413b565b60a06040518083038186803b1580156200331857600080fd5b505afa1580156200332d573d6000803e3d6000fd5b505050506040513d601f19601f8201168201806040525081019062003353919062003f59565b945094509450945094506200336c858585858562002d50565b620033788a8a62003a23565b620033848a8762003a97565b896001600160a01b0316336001600160a01b03167fbded9ba8a041a2b893fdc29720280cb14b8f6c369538bde50fcd4e602d5608578b89604051620033cb929190620046a4565b60405180910390a350506001805460ff60a01b191690555050505050505050565b62003424620033fb8262001d1e565b6001600160a01b0384166000908152600560205260409020600301549063ffffffff62001d4e16565b6001600160a01b0380841660009081526005602090815260409182902060030193909355600254815163658816e960e11b81529151620006f5948794879493169263cb102dd29260048083019392829003018186803b1580156200348757600080fd5b505afa1580156200349c573d6000803e3d6000fd5b505050506040513d601f19601f82011682018060405250810190620034c2919062003d52565b6001600160a01b0316919063ffffffff62003aca16565b62003535846323b872dd60e01b858585604051602401620034fd9392919062004046565b60408051601f198184030181529190526020810180516001600160e01b03166001600160e01b03199093169290921790915262003aec565b50505050565b6000826200354c57506000620005a3565b828202828482816200355a57fe5b0414620005a05760405162461bcd60e51b8152600401620009dc9062004681565b6000620005a0826200359c85670de0b6b3a764000063ffffffff6200353b16565b9063ffffffff62003bb016565b60008082121562001d4a5760405162461bcd60e51b8152600401620009dc906200462b565b60008111620035f15760405162461bcd60e51b8152600401620009dc90620041a9565b62003620620036008262001d1e565b306000908152600560205260409020600301549063ffffffff62001d4e16565b3060009081526005602052604090206003015562001e7b62001e528262001d1e565b600060028260028111156200365357fe5b14156200366357506001620006cc565b60018260028111156200367257fe5b141562001d4a57506002620006cc565b60048054604051632770a7eb60e21b81526001600160a01b0390911691639dc29fac91620036b59186918691016200406a565b600060405180830381600087803b158015620036d057600080fd5b505af1158015620036e5573d6000803e3d6000fd5b505050505050565b620036f762003c3e565b600083116200371a5760405162461bcd60e51b8152600401620009dc9062004457565b60008085602001518514156200373c5750506040840151608085015162003773565b6200375586604001516200086a87896020015162003be2565b91506200377086608001516200086a87896020015162003be2565b90505b6000620037a0600c886000015160028111156200378c57fe5b600381106200379757fe5b01548762001ef1565b600354885160405163b709a7fd60e01b81529293506000926001600160a01b039092169163b709a7fd91620037e09188908b90899089906004016200413b565b60206040518083038186803b158015620037f957600080fd5b505afa1580156200380e573d6000803e3d6000fd5b505050506040513d601f19601f8201168201806040525081019062003834919062003eba565b60608901519091506200384e908263ffffffff62001f1e16565b6060890152604088015160208901516200388591906200086a906200387a908b63ffffffff62001e9e16565b8b6020015162003be2565b604089015260808801516020890151620038b191906200086a906200387a908b63ffffffff62001e9e16565b60808901526020880151620038cd908863ffffffff62001e9e16565b60208901819052620038de57600088525b600288516002811115620038ee57fe5b14156200390e57600b546200390a908863ffffffff62001e9e16565b600b555b50959695505050505050565b6200392462003c3e565b60008311620039475760405162461bcd60e51b8152600401620009dc90620042a1565b60208501516200397157848460028111156200395f57fe5b908160028111156200396d57fe5b9052505b602085015162003988908463ffffffff62001ec916565b60208601526040850151620039a4908363ffffffff62001ec916565b6040860152620039e6620039d4600c866002811115620039c057fe5b60038110620039cb57fe5b01548562001ef1565b60808701519063ffffffff62001ec916565b60808601526002846002811115620039fa57fe5b141562003a1a57600b5462003a16908463ffffffff62001ec916565b600b555b50929392505050565b6000811162003a465760405162461bcd60e51b8152600401620009dc90620043f1565b62003a55620033fb8262001d1e565b6001600160a01b03831660009081526005602052604090206003015562003a806200312f8262001d1e565b306000908152600560205260409020600301555050565b600480546040516340c10f1960e01b81526001600160a01b03909116916340c10f1991620036b59186918691016200406a565b6200250f8363a9059cbb60e01b8484604051602401620034fd9291906200406a565b60006060836001600160a01b03168360405162003b0a919062004014565b6000604051808303816000865af19150503d806000811462003b49576040519150601f19603f3d011682016040523d82523d6000602084013e62003b4e565b606091505b50915091508162003b735760405162461bcd60e51b8152600401620009dc9062004333565b80511562003535578080602001905181019062003b91919062003e98565b620035355760405162461bcd60e51b8152600401620009dc9062004580565b60008062003bbf848462003c10565b90508281028403801562003bd957506001019050620005a3565b509050620005a3565b6000620005a08262003c0385670de0b6b3a764000063ffffffff6200353b16565b9063ffffffff62003c1016565b600080821162003c345760405162461bcd60e51b8152600401620009dc90620043c9565b81838162001f1657fe5b6040805160a081019091528060008152602001600081526020016000815260200160008152602001600081525090565b60405180606001604052806003906020820280368337509192915050565b611004806200474583390190565b6040518060a00160405280600081526020016000815260200160008152602001600081526020016000600281111562003ccf57fe5b905290565b600060a0828403121562003ce6578081fd5b62003cf260a0620046b2565b9050813562003d018162004736565b808252506020820135602082015260408201356040820152606082013560608201526080820135608082015292915050565b60006020828403121562003d45578081fd5b8135620005a08162004720565b60006020828403121562003d64578081fd5b8151620005a08162004720565b6000806040838503121562003d84578081fd5b823562003d918162004720565b9150602083013562003da38162004720565b809150509250929050565b60008060006060848603121562003dc3578081fd5b833562003dd08162004720565b925060208481013562003de38162004720565b9250604085013567ffffffffffffffff8082111562003e00578384fd5b81870188601f82011262003e12578485fd5b803592508183111562003e23578485fd5b62003e37601f8401601f19168501620046b2565b9150828252888484830101111562003e4d578485fd5b828482018584013750838383830101528093505050509250925092565b6000806040838503121562003e7d578182fd5b823562003e8a8162004720565b946020939093013593505050565b60006020828403121562003eaa578081fd5b81518015158114620005a0578182fd5b60006020828403121562003ecc578081fd5b5051919050565b600060a0828403121562003ee5578081fd5b620005a0838362003cd4565b60008060c0838503121562003f04578182fd5b62003f10848462003cd4565b9460a0939093013593505050565b60006020828403121562003f30578081fd5b5035919050565b6000806040838503121562003f4a578182fd5b50508035926020909101359150565b600080600080600060a0868803121562003f71578081fd5b85519450602086015193506040860151925060608601519150608086015162003f9a8162004736565b809150509295509295909350565b600080600080600080600080610100898b03121562003fc5578586fd5b885197506020890151965060408901519550606089015194506080890151935060a0890151925060c0890151915060e0890151620040038162004736565b809150509295985092959890939650565b6000825162004028818460208701620046e6565b9190910192915050565b6001600160a01b0391909116815260200190565b6001600160a01b039384168152919092166020820152604081019190915260600190565b6001600160a01b03929092168252602082015260400190565b60608101818360005b6003811015620040ad5781518352602092830192909101906001016200408c565b50505092915050565b901515815260200190565b60208101620040d083620046da565b825292915050565b60608101620040e78562004715565b938152602081019290925260409091015290565b604081016200410a84620046da565b82528260208301529392505050565b606081016200412885620046da565b8252602082019390935260400152919050565b60a081016200414a8762004715565b95815260208101949094526040840192909252606083015260809091015290565b90815260200190565b600060208252825180602084015262004195816040850160208701620046e6565b601f01601f19169190910160400192915050565b60208082526025908201527f4d617267696e5472616e7366657246726f6d506f6f6c5f494c4c4547414c5f416040820152641353d5539560da1b606082015260800190565b6020808252600d908201526c494e56414c49445f434c41494d60981b604082015260600190565b6020808252601b908201527f7769746864726177436f6c6c61746572616c546f3a204e4f5f4c500000000000604082015260600190565b602080825260119082015270125394d551919250d251539517d1955391607a1b604082015260600190565b60208082526010908201526f1410549057d25392551250531256915160821b604082015260600190565b6020808252601490820152731bdc195b8e881a5b9d985b1a5908185b5bdd5b9d60621b604082015260600190565b60208082526009908201526814915153951490539560ba1b604082015260600190565b60208082526021908201527f5369676e6564536166654d6174683a206164646974696f6e206f766572666c6f6040820152607760f81b606082015260800190565b6020808252818101527f5361666545524332303a206c6f772d6c6576656c2063616c6c206661696c6564604082015260600190565b6020808252601a908201527f4c495155494441544f525f4e4f545f454e4f5547485f46554e44000000000000604082015260600190565b60208082526010908201526f2727aa2fa9a0a322afaa27afa7a822a760811b604082015260600190565b6020808252600e908201526d2224ab24a224a723afa2a92927a960911b604082015260600190565b60208082526023908201527f4d617267696e5472616e73666572546f506f6f6c5f494c4c4547414c5f414d4f60408201526215539560ea1b606082015260800190565b60208082526009908201526829aaa12fa2a92927a960b91b604082015260600190565b60208082526015908201527418db1bdcd94e881a5b9d985b1a5908185b5bdd5b9d605a1b604082015260600190565b6020808252600d908201526c24a72b20a624a22fa7aba722a960991b604082015260600190565b60208082526005908201526404e4f5f4c560dc1b604082015260600190565b6020808252600990820152682727aa2fa7aba722a960b91b604082015260600190565b60208082526010908201526f29a0a322afaa27afa6a0a4a72a20a4a760811b604082015260600190565b60208082526009908201526820a2222fa2a92927a960b91b604082015260600190565b60208082526024908201527f5369676e6564536166654d6174683a207375627472616374696f6e206f766572604082015263666c6f7760e01b606082015260800190565b6020808252602a908201527f5361666545524332303a204552433230206f7065726174696f6e20646964206e6040820152691bdd081cdd58d8d9595960b21b606082015260800190565b6020808252601c908201527f53454c4c5f424153455f524543454956455f4e4f545f454e4f55474800000000604082015260600190565b60208082526010908201526f75696e74323536206f766572666c6f7760801b604082015260600190565b6020808252600c908201526b696e74206f766572666c6f7760a01b604082015260600190565b602080825260169082015275084aab2be8482a68abe869ea6a8bea89e9ebe9aaa86960531b604082015260600190565b60208082526009908201526826aaa62fa2a92927a960b91b604082015260600190565b918252602082015260400190565b60405181810167ffffffffffffffff81118282101715620046d257600080fd5b604052919050565b8060038110620006cc57fe5b60005b8381101562004703578181015183820152602001620046e9565b83811115620035355750506000910152565b6003811062000b2457fe5b6001600160a01b038116811462000b2457600080fd5b6003811062000b2457600080fdfe60c060405260036080819052620504c560ec1b60a0908152620000269160029190620000ca565b506004805460ff191660121790553480156200004157600080fd5b50604051620010043803806200100483398101604081905262000064916200016f565b600080546001600160a01b03191633178082556040516001600160a01b039190911691907f8be0079c531659141344cd1fd0a4f28419497f9722a3daafe3b4186f6b6457e0908290a38051620000c2906003906020840190620000ca565b505062000244565b828054600181600116156101000203166002900490600052602060002090601f016020900481019282601f106200010d57805160ff19168380011785556200013d565b828001600101855582156200013d579182015b828111156200013d57825182559160200191906001019062000120565b506200014b9291506200014f565b5090565b6200016c91905b808211156200014b576000815560010162000156565b90565b60006020828403121562000181578081fd5b81516001600160401b038082111562000198578283fd5b81840185601f820112620001aa578384fd5b8051925081831115620001bb578384fd5b604051601f8401601f191681016020018381118282101715620001dc578586fd5b604052838152818401602001871015620001f4578485fd5b6200020784602083016020850162000211565b9695505050505050565b60005b838110156200022e57818101518382015260200162000214565b838111156200023e576000848401525b50505050565b610db080620002546000396000f3fe608060405234801561001057600080fd5b50600436106101005760003560e01c806370a08231116100975780639e6aa263116100665780639e6aa263146101e8578063a9059cbb146101f0578063dd62ed3e14610203578063f2fde38b1461021657610100565b806370a08231146101b25780638456db15146101c557806395d89b41146101cd5780639dc29fac146101d557610100565b806323b872dd116100d357806323b872dd1461016d578063313ce5671461018057806340c10f19146101955780634e71e0c8146101aa57610100565b806306fdde0314610105578063095ea7b31461012357806316048bc41461014357806318160ddd14610158575b600080fd5b61010d610229565b60405161011a9190610bb7565b60405180910390f35b610136610131366004610aed565b61027f565b60405161011a9190610bac565b61014b6102ea565b60405161011a9190610b98565b6101606102f9565b60405161011a9190610cfb565b61013661017b366004610aad565b6102ff565b610188610483565b60405161011a9190610d04565b6101a86101a3366004610aed565b61048c565b005b6101a861058f565b6101606101c0366004610a5e565b61061d565b61014b610638565b61010d610647565b6101a86101e3366004610aed565b6106da565b61010d6107d1565b6101366101fe366004610aed565b61085f565b610160610211366004610a79565b61091d565b6101a8610224366004610a5e565b610948565b6060806040518060400160405280600f81526020016e5f504152415f4c505f544f4b454e5f60881b815250905060038160405160200161026a929190610b17565b60405160208183030381529060405291505090565b3360008181526007602090815260408083206001600160a01b038716808552925280832085905551919290917f8c5be1e5ebec7d5bd14f71427d1e84f3dd0314c0f7b2291e5b200ac8c7c3b925906102d8908690610cfb565b60405180910390a35060015b92915050565b6000546001600160a01b031681565b60055481565b6001600160a01b0383166000908152600660205260408120548211156103405760405162461bcd60e51b815260040161033790610c89565b60405180910390fd5b6001600160a01b03841660009081526007602090815260408083203384529091529020548211156103835760405162461bcd60e51b815260040161033790610c11565b6001600160a01b0384166000908152600660205260409020546103ac908363ffffffff6109f316565b6001600160a01b0380861660009081526006602052604080822093909355908516815220546103e1908363ffffffff610a1b16565b6001600160a01b038085166000908152600660209081526040808320949094559187168152600782528281203382529091522054610425908363ffffffff6109f316565b6001600160a01b038086166000818152600760209081526040808320338452909152908190209390935591519085169190600080516020610d5b83398151915290610471908690610cfb565b60405180910390a35060019392505050565b60045460ff1690565b6000546001600160a01b031633146104b65760405162461bcd60e51b815260040161033790610cb5565b6001600160a01b0382166000908152600660205260409020546104df908263ffffffff610a1b16565b6001600160a01b03831660009081526006602052604090205560055461050b908263ffffffff610a1b16565b6005556040516001600160a01b038316907f0f6798a560793a54c3bcfe86a93cde1e73087d944c0ea20544137d412139688590610549908490610cfb565b60405180910390a2816001600160a01b031660006001600160a01b0316600080516020610d5b833981519152836040516105839190610cfb565b60405180910390a35050565b6001546001600160a01b031633146105b95760405162461bcd60e51b815260040161033790610bea565b600154600080546040516001600160a01b0393841693909116917f8be0079c531659141344cd1fd0a4f28419497f9722a3daafe3b4186f6b6457e091a360018054600080546001600160a01b03199081166001600160a01b03841617909155169055565b6001600160a01b031660009081526006602052604090205490565b6001546001600160a01b031681565b60028054604080516020601f60001961010060018716150201909416859004938401819004810282018101909252828152606093909290918301828280156106d05780601f106106a5576101008083540402835291602001916106d0565b820191906000526020600020905b8154815290600101906020018083116106b357829003601f168201915b5050505050905090565b6000546001600160a01b031633146107045760405162461bcd60e51b815260040161033790610cb5565b6001600160a01b03821660009081526006602052604090205461072d908263ffffffff6109f316565b6001600160a01b038316600090815260066020526040902055600554610759908263ffffffff6109f316565b6005556040516001600160a01b038316907fcc16f5dbb4873280815c1ee09dbd06736cffcc184412cf7a71a0fdb75d397ca590610797908490610cfb565b60405180910390a260006001600160a01b0316826001600160a01b0316600080516020610d5b833981519152836040516105839190610cfb565b6003805460408051602060026001851615610100026000190190941693909304601f810184900484028201840190925281815292918301828280156108575780601f1061082c57610100808354040283529160200191610857565b820191906000526020600020905b81548152906001019060200180831161083a57829003601f168201915b505050505081565b3360009081526006602052604081205482111561088e5760405162461bcd60e51b815260040161033790610c89565b336000908152600660205260409020546108ae908363ffffffff6109f316565b33600090815260066020526040808220929092556001600160a01b038516815220546108e0908363ffffffff610a1b16565b6001600160a01b038416600081815260066020526040908190209290925590513390600080516020610d5b833981519152906102d8908690610cfb565b6001600160a01b03918216600090815260076020908152604080832093909416825291909152205490565b6000546001600160a01b031633146109725760405162461bcd60e51b815260040161033790610cb5565b6001600160a01b0381166109985760405162461bcd60e51b815260040161033790610c62565b600080546040516001600160a01b03808516939216917fdcf55418cee3220104fef63f979ff3c4097ad240c0c43dcb33ce837748983e6291a3600180546001600160a01b0319166001600160a01b0392909216919091179055565b600082821115610a155760405162461bcd60e51b815260040161033790610c3f565b50900390565b600082820183811015610a405760405162461bcd60e51b815260040161033790610cd8565b9392505050565b80356001600160a01b03811681146102e457600080fd5b600060208284031215610a6f578081fd5b610a408383610a47565b60008060408385031215610a8b578081fd5b610a958484610a47565b9150610aa48460208501610a47565b90509250929050565b600080600060608486031215610ac1578081fd5b8335610acc81610d42565b92506020840135610adc81610d42565b929592945050506040919091013590565b60008060408385031215610aff578182fd5b610b098484610a47565b946020939093013593505050565b6000808454600180821660008114610b365760018114610b4d57610b7c565b60ff198316865260028304607f1686019350610b7c565b600283048886526020808720875b83811015610b745781548a820152908501908201610b5b565b505050860193505b5050508351610b8f818360208801610d12565b01949350505050565b6001600160a01b0391909116815260200190565b901515815260200190565b6000602082528251806020840152610bd6816040850160208701610d12565b601f01601f19169190910160400192915050565b6020808252600d908201526c494e56414c49445f434c41494d60981b604082015260600190565b60208082526014908201527308298989eae829c868abe9c9ea8be8a9c9eaa8e960631b604082015260600190565b60208082526009908201526829aaa12fa2a92927a960b91b604082015260600190565b6020808252600d908201526c24a72b20a624a22fa7aba722a960991b604082015260600190565b6020808252601290820152710848298829c868abe9c9ea8be8a9c9eaa8e960731b604082015260600190565b6020808252600990820152682727aa2fa7aba722a960b91b604082015260600190565b60208082526009908201526820a2222fa2a92927a960b91b604082015260600190565b90815260200190565b60ff91909116815260200190565b60005b83811015610d2d578181015183820152602001610d15565b83811115610d3c576000848401525b50505050565b6001600160a01b0381168114610d5757600080fd5b5056feddf252ad1be2c89b69c2b068fc378daa952ba7f163c4a11628f55a4df523b3efa26469706673582212204b90f0ea99f9321f41aa89d8201d4a39c426d5c93e8e1c6234ecdebbdcf6533064736f6c63430006090033a26469706673582212205704a311a9481497c30e944822524c0c8ceeebb5f67b0227e816f37b1c9415d764736f6c63430006090033",
  "immutableReferences": {},
  "source": "/*\n\n    Copyright 2020 DODO ZOO.\n    SPDX-License-Identifier: Apache-2.0\n\n*/\n\npragma solidity 0.6.9;\npragma experimental ABIEncoderV2;\n\nimport {Types} from \"./lib/Types.sol\";\nimport {IERC20} from \"./interface/IERC20.sol\";\nimport {Trader} from \"./perpetual/Trader.sol\";\nimport {LpToken} from \"./perpetual/LpToken.sol\";\nimport {LiquidityProvider} from \"./perpetual/LiquidityProvider.sol\";\nimport {Admin} from \"./admin/Admin.sol\";\nimport {Pricing} from \"./perpetual/Pricing.sol\";\n\n/**\n * @title Para\n * @author Parapara\n *\n * @notice Entrance for users\n */\n\ncontract Para is Trader, LiquidityProvider {\n    function init(\n        address adminAddress,\n        address pricingAddress,\n        string memory tokenName\n    ) external {\n        require(!_INITIALIZED_, \"PARA_INITIALIZED\");\n        _INITIALIZED_ = true;\n        ADMIN = Admin(adminAddress);\n        PRICING = Pricing(pricingAddress);\n        _COLLATERAL_POOL_TOKEN_ = address(new LpToken(tokenName));\n    }\n}\n",
  "sourcePath": "/Users/daniel/Codes/parapara/para_dapp_v6/contracts/Para.sol",
  "compiler": {
    "name": "solc",
    "version": "0.6.9+commit.3e3065ac.Emscripten.clang"
  },
  "schemaVersion": "3.3.4",
  "updatedAt": "2021-03-28T10:55:46.368Z",
  "devdoc": {
    "author": "Parapara",
    "methods": {},
    "title": "Para"
  },
  "userdoc": {
    "methods": {},
    "notice": "Entrance for users"
  }
}