{
  "contractName": "Para",
  "abi": [
    {
      "anonymous": false,
      "inputs": [
        {
          "indexed": true,
          "internalType": "address",
          "name": "buyer",
          "type": "address"
        },
        {
          "indexed": false,
          "internalType": "uint256",
          "name": "receiveBase",
          "type": "uint256"
        },
        {
          "indexed": false,
          "internalType": "uint256",
          "name": "payQuote",
          "type": "uint256"
        }
      ],
      "name": "BuyBaseToken",
      "type": "event"
    },
    {
      "anonymous": false,
      "inputs": [
        {
          "indexed": true,
          "internalType": "address",
          "name": "maintainer",
          "type": "address"
        },
        {
          "indexed": false,
          "internalType": "bool",
          "name": "isBaseToken",
          "type": "bool"
        },
        {
          "indexed": false,
          "internalType": "uint256",
          "name": "amount",
          "type": "uint256"
        }
      ],
      "name": "ChargeMaintainerFee",
      "type": "event"
    },
    {
      "anonymous": false,
      "inputs": [
        {
          "indexed": true,
          "internalType": "address",
          "name": "user",
          "type": "address"
        },
        {
          "indexed": false,
          "internalType": "uint256",
          "name": "baseTokenAmount",
          "type": "uint256"
        },
        {
          "indexed": false,
          "internalType": "uint256",
          "name": "quoteTokenAmount",
          "type": "uint256"
        }
      ],
      "name": "ClaimAssets",
      "type": "event"
    },
    {
      "anonymous": false,
      "inputs": [
        {
          "indexed": true,
          "internalType": "address",
          "name": "trader",
          "type": "address"
        },
        {
          "indexed": false,
          "internalType": "uint256",
          "name": "amount",
          "type": "uint256"
        },
        {
          "indexed": false,
          "internalType": "int256",
          "name": "balance",
          "type": "int256"
        }
      ],
      "name": "Deposit",
      "type": "event"
    },
    {
      "anonymous": false,
      "inputs": [
        {
          "indexed": false,
          "internalType": "uint256",
          "name": "amount",
          "type": "uint256"
        }
      ],
      "name": "Donate",
      "type": "event"
    },
    {
      "anonymous": false,
      "inputs": [
        {
          "indexed": true,
          "internalType": "address",
          "name": "trader",
          "type": "address"
        },
        {
          "indexed": false,
          "internalType": "int256",
          "name": "amount",
          "type": "int256"
        },
        {
          "indexed": false,
          "internalType": "int256",
          "name": "balanceAfter",
          "type": "int256"
        }
      ],
      "name": "InternalUpdateBalance",
      "type": "event"
    },
    {
      "anonymous": false,
      "inputs": [
        {
          "indexed": true,
          "internalType": "address",
          "name": "trader",
          "type": "address"
        },
        {
          "indexed": true,
          "internalType": "address",
          "name": "liquidator",
          "type": "address"
        },
        {
          "indexed": false,
          "internalType": "enum Types.Side",
          "name": "liquidationSide",
          "type": "uint8"
        },
        {
          "indexed": false,
          "internalType": "uint256",
          "name": "liquidationValue",
          "type": "uint256"
        },
        {
          "indexed": false,
          "internalType": "uint256",
          "name": "liquidationAmount",
          "type": "uint256"
        }
      ],
      "name": "Liquidate",
      "type": "event"
    },
    {
      "anonymous": false,
      "inputs": [
        {
          "indexed": true,
          "internalType": "address",
          "name": "payer",
          "type": "address"
        },
        {
          "indexed": true,
          "internalType": "address",
          "name": "receiver",
          "type": "address"
        },
        {
          "indexed": false,
          "internalType": "uint256",
          "name": "amount",
          "type": "uint256"
        },
        {
          "indexed": false,
          "internalType": "uint256",
          "name": "lpTokenAmount",
          "type": "uint256"
        }
      ],
      "name": "LpDeposit",
      "type": "event"
    },
    {
      "anonymous": false,
      "inputs": [
        {
          "indexed": true,
          "internalType": "address",
          "name": "payer",
          "type": "address"
        },
        {
          "indexed": true,
          "internalType": "address",
          "name": "receiver",
          "type": "address"
        },
        {
          "indexed": false,
          "internalType": "uint256",
          "name": "amount",
          "type": "uint256"
        },
        {
          "indexed": false,
          "internalType": "uint256",
          "name": "lpTokenAmount",
          "type": "uint256"
        }
      ],
      "name": "LpWithdraw",
      "type": "event"
    },
    {
      "anonymous": false,
      "inputs": [
        {
          "indexed": true,
          "internalType": "address",
          "name": "previousOwner",
          "type": "address"
        },
        {
          "indexed": true,
          "internalType": "address",
          "name": "newOwner",
          "type": "address"
        }
      ],
      "name": "OwnershipTransferPrepared",
      "type": "event"
    },
    {
      "anonymous": false,
      "inputs": [
        {
          "indexed": true,
          "internalType": "address",
          "name": "previousOwner",
          "type": "address"
        },
        {
          "indexed": true,
          "internalType": "address",
          "name": "newOwner",
          "type": "address"
        }
      ],
      "name": "OwnershipTransferred",
      "type": "event"
    },
    {
      "anonymous": false,
      "inputs": [
        {
          "indexed": true,
          "internalType": "address",
          "name": "seller",
          "type": "address"
        },
        {
          "indexed": false,
          "internalType": "uint256",
          "name": "payBase",
          "type": "uint256"
        },
        {
          "indexed": false,
          "internalType": "uint256",
          "name": "receiveQuote",
          "type": "uint256"
        }
      ],
      "name": "SellBaseToken",
      "type": "event"
    },
    {
      "anonymous": false,
      "inputs": [
        {
          "indexed": false,
          "internalType": "enum Types.Side",
          "name": "lossSide",
          "type": "uint8"
        },
        {
          "indexed": false,
          "internalType": "int256",
          "name": "sloss",
          "type": "int256"
        },
        {
          "indexed": false,
          "internalType": "uint256",
          "name": "totalSize",
          "type": "uint256"
        }
      ],
      "name": "SocialLossUpdate",
      "type": "event"
    },
    {
      "anonymous": false,
      "inputs": [
        {
          "indexed": true,
          "internalType": "address",
          "name": "trader",
          "type": "address"
        },
        {
          "indexed": false,
          "internalType": "uint256",
          "name": "amount",
          "type": "uint256"
        },
        {
          "indexed": false,
          "internalType": "int256",
          "name": "balance",
          "type": "int256"
        }
      ],
      "name": "Withdraw",
      "type": "event"
    },
    {
      "inputs": [],
      "name": "ADMIN",
      "outputs": [
        {
          "internalType": "contract Admin",
          "name": "",
          "type": "address"
        }
      ],
      "stateMutability": "view",
      "type": "function"
    },
    {
      "inputs": [],
      "name": "PRICING",
      "outputs": [
        {
          "internalType": "contract Pricing",
          "name": "",
          "type": "address"
        }
      ],
      "stateMutability": "view",
      "type": "function"
    },
    {
      "inputs": [],
      "name": "_BASE_BALANCE_",
      "outputs": [
        {
          "internalType": "uint256",
          "name": "",
          "type": "uint256"
        }
      ],
      "stateMutability": "view",
      "type": "function"
    },
    {
      "inputs": [],
      "name": "_COLLATERAL_POOL_TOKEN_",
      "outputs": [
        {
          "internalType": "address",
          "name": "",
          "type": "address"
        }
      ],
      "stateMutability": "view",
      "type": "function"
    },
    {
      "inputs": [
        {
          "internalType": "address",
          "name": "",
          "type": "address"
        }
      ],
      "name": "_MARGIN_ACCOUNT_",
      "outputs": [
        {
          "internalType": "enum Types.Side",
          "name": "SIDE",
          "type": "uint8"
        },
        {
          "internalType": "uint256",
          "name": "SIZE",
          "type": "uint256"
        },
        {
          "internalType": "uint256",
          "name": "ENTRY_VALUE",
          "type": "uint256"
        },
        {
          "internalType": "int256",
          "name": "CASH_BALANCE",
          "type": "int256"
        },
        {
          "internalType": "uint256",
          "name": "ENTRY_SLOSS",
          "type": "uint256"
        }
      ],
      "stateMutability": "view",
      "type": "function"
    },
    {
      "inputs": [],
      "name": "_NEW_OWNER_",
      "outputs": [
        {
          "internalType": "address",
          "name": "",
          "type": "address"
        }
      ],
      "stateMutability": "view",
      "type": "function"
    },
    {
      "inputs": [],
      "name": "_OWNER_",
      "outputs": [
        {
          "internalType": "address",
          "name": "",
          "type": "address"
        }
      ],
      "stateMutability": "view",
      "type": "function"
    },
    {
      "inputs": [],
      "name": "_POOL_INSURANCE_BALANCE_",
      "outputs": [
        {
          "internalType": "uint256",
          "name": "",
          "type": "uint256"
        }
      ],
      "stateMutability": "view",
      "type": "function"
    },
    {
      "inputs": [],
      "name": "_POOL_MARGIN_ACCOUNT_",
      "outputs": [
        {
          "internalType": "enum Types.Side",
          "name": "SIDE",
          "type": "uint8"
        },
        {
          "internalType": "uint256",
          "name": "SIZE",
          "type": "uint256"
        },
        {
          "internalType": "uint256",
          "name": "ENTRY_VALUE",
          "type": "uint256"
        },
        {
          "internalType": "int256",
          "name": "CASH_BALANCE",
          "type": "int256"
        },
        {
          "internalType": "uint256",
          "name": "ENTRY_SLOSS",
          "type": "uint256"
        }
      ],
      "stateMutability": "view",
      "type": "function"
    },
    {
      "inputs": [],
      "name": "_QUOTE_BALANCE_",
      "outputs": [
        {
          "internalType": "uint256",
          "name": "",
          "type": "uint256"
        }
      ],
      "stateMutability": "view",
      "type": "function"
    },
    {
      "inputs": [],
      "name": "_R_STATUS_",
      "outputs": [
        {
          "internalType": "enum Types.Side",
          "name": "",
          "type": "uint8"
        }
      ],
      "stateMutability": "view",
      "type": "function"
    },
    {
      "inputs": [
        {
          "internalType": "uint256",
          "name": "",
          "type": "uint256"
        }
      ],
      "name": "_SLOSS_PER_CONTRACT_",
      "outputs": [
        {
          "internalType": "uint256",
          "name": "",
          "type": "uint256"
        }
      ],
      "stateMutability": "view",
      "type": "function"
    },
    {
      "inputs": [],
      "name": "_TARGET_BASE_TOKEN_AMOUNT_",
      "outputs": [
        {
          "internalType": "uint256",
          "name": "",
          "type": "uint256"
        }
      ],
      "stateMutability": "view",
      "type": "function"
    },
    {
      "inputs": [],
      "name": "_TARGET_QUOTE_TOKEN_AMOUNT_",
      "outputs": [
        {
          "internalType": "uint256",
          "name": "",
          "type": "uint256"
        }
      ],
      "stateMutability": "view",
      "type": "function"
    },
    {
      "inputs": [],
      "name": "_TOTAL_LONG_SIZE_",
      "outputs": [
        {
          "internalType": "uint256",
          "name": "",
          "type": "uint256"
        }
      ],
      "stateMutability": "view",
      "type": "function"
    },
    {
      "inputs": [
        {
          "components": [
            {
              "internalType": "enum Types.Side",
              "name": "SIDE",
              "type": "uint8"
            },
            {
              "internalType": "uint256",
              "name": "SIZE",
              "type": "uint256"
            },
            {
              "internalType": "uint256",
              "name": "ENTRY_VALUE",
              "type": "uint256"
            },
            {
              "internalType": "int256",
              "name": "CASH_BALANCE",
              "type": "int256"
            },
            {
              "internalType": "uint256",
              "name": "ENTRY_SLOSS",
              "type": "uint256"
            }
          ],
          "internalType": "struct Types.MarginAccount",
          "name": "account",
          "type": "tuple"
        },
        {
          "internalType": "uint256",
          "name": "markPrice",
          "type": "uint256"
        }
      ],
      "name": "availableMargin",
      "outputs": [
        {
          "internalType": "int256",
          "name": "",
          "type": "int256"
        }
      ],
      "stateMutability": "view",
      "type": "function"
    },
    {
      "inputs": [
        {
          "components": [
            {
              "internalType": "enum Types.Side",
              "name": "SIDE",
              "type": "uint8"
            },
            {
              "internalType": "uint256",
              "name": "SIZE",
              "type": "uint256"
            },
            {
              "internalType": "uint256",
              "name": "ENTRY_VALUE",
              "type": "uint256"
            },
            {
              "internalType": "int256",
              "name": "CASH_BALANCE",
              "type": "int256"
            },
            {
              "internalType": "uint256",
              "name": "ENTRY_SLOSS",
              "type": "uint256"
            }
          ],
          "internalType": "struct Types.MarginAccount",
          "name": "account",
          "type": "tuple"
        }
      ],
      "name": "balanceMargin",
      "outputs": [
        {
          "internalType": "int256",
          "name": "",
          "type": "int256"
        }
      ],
      "stateMutability": "view",
      "type": "function"
    },
    {
      "inputs": [
        {
          "internalType": "uint256",
          "name": "amount",
          "type": "uint256"
        },
        {
          "internalType": "uint256",
          "name": "maxPayQuote",
          "type": "uint256"
        }
      ],
      "name": "buyBaseToken",
      "outputs": [
        {
          "internalType": "uint256",
          "name": "",
          "type": "uint256"
        }
      ],
      "stateMutability": "nonpayable",
      "type": "function"
    },
    {
      "inputs": [],
      "name": "claimOwnership",
      "outputs": [],
      "stateMutability": "nonpayable",
      "type": "function"
    },
    {
      "inputs": [
        {
          "internalType": "address",
          "name": "from",
          "type": "address"
        },
        {
          "internalType": "uint256",
          "name": "amount",
          "type": "uint256"
        }
      ],
      "name": "collateralTraderTransferIn",
      "outputs": [],
      "stateMutability": "nonpayable",
      "type": "function"
    },
    {
      "inputs": [
        {
          "internalType": "address",
          "name": "to",
          "type": "address"
        },
        {
          "internalType": "uint256",
          "name": "amount",
          "type": "uint256"
        }
      ],
      "name": "collateralTraderTransferOut",
      "outputs": [],
      "stateMutability": "nonpayable",
      "type": "function"
    },
    {
      "inputs": [
        {
          "internalType": "uint256",
          "name": "amount",
          "type": "uint256"
        }
      ],
      "name": "depositCollateral",
      "outputs": [],
      "stateMutability": "nonpayable",
      "type": "function"
    },
    {
      "inputs": [
        {
          "internalType": "address",
          "name": "lp",
          "type": "address"
        }
      ],
      "name": "getCollateralPoolTokenBalanceOf",
      "outputs": [
        {
          "internalType": "uint256",
          "name": "",
          "type": "uint256"
        }
      ],
      "stateMutability": "view",
      "type": "function"
    },
    {
      "inputs": [],
      "name": "getPoolMarginCashBalance",
      "outputs": [
        {
          "internalType": "int256",
          "name": "",
          "type": "int256"
        }
      ],
      "stateMutability": "view",
      "type": "function"
    },
    {
      "inputs": [],
      "name": "getPoolMarginEntrySloss",
      "outputs": [
        {
          "internalType": "uint256",
          "name": "",
          "type": "uint256"
        }
      ],
      "stateMutability": "view",
      "type": "function"
    },
    {
      "inputs": [],
      "name": "getPoolMarginEntryValue",
      "outputs": [
        {
          "internalType": "uint256",
          "name": "",
          "type": "uint256"
        }
      ],
      "stateMutability": "view",
      "type": "function"
    },
    {
      "inputs": [],
      "name": "getPoolMarginSide",
      "outputs": [
        {
          "internalType": "enum Types.Side",
          "name": "",
          "type": "uint8"
        }
      ],
      "stateMutability": "view",
      "type": "function"
    },
    {
      "inputs": [],
      "name": "getPoolMarginSize",
      "outputs": [
        {
          "internalType": "uint256",
          "name": "",
          "type": "uint256"
        }
      ],
      "stateMutability": "view",
      "type": "function"
    },
    {
      "inputs": [],
      "name": "getTotalCollateralPoolToken",
      "outputs": [
        {
          "internalType": "uint256",
          "name": "",
          "type": "uint256"
        }
      ],
      "stateMutability": "view",
      "type": "function"
    },
    {
      "inputs": [],
      "name": "getTotalSize",
      "outputs": [
        {
          "internalType": "uint256[3]",
          "name": "",
          "type": "uint256[3]"
        }
      ],
      "stateMutability": "view",
      "type": "function"
    },
    {
      "inputs": [
        {
          "internalType": "uint256",
          "name": "amount",
          "type": "uint256"
        },
        {
          "internalType": "uint256",
          "name": "markPrice",
          "type": "uint256"
        }
      ],
      "name": "initialMargin",
      "outputs": [
        {
          "internalType": "uint256",
          "name": "",
          "type": "uint256"
        }
      ],
      "stateMutability": "view",
      "type": "function"
    },
    {
      "inputs": [
        {
          "internalType": "address",
          "name": "trader",
          "type": "address"
        }
      ],
      "name": "isSafeMaintain",
      "outputs": [
        {
          "internalType": "bool",
          "name": "",
          "type": "bool"
        }
      ],
      "stateMutability": "view",
      "type": "function"
    },
    {
      "inputs": [
        {
          "components": [
            {
              "internalType": "enum Types.Side",
              "name": "SIDE",
              "type": "uint8"
            },
            {
              "internalType": "uint256",
              "name": "SIZE",
              "type": "uint256"
            },
            {
              "internalType": "uint256",
              "name": "ENTRY_VALUE",
              "type": "uint256"
            },
            {
              "internalType": "int256",
              "name": "CASH_BALANCE",
              "type": "int256"
            },
            {
              "internalType": "uint256",
              "name": "ENTRY_SLOSS",
              "type": "uint256"
            }
          ],
          "internalType": "struct Types.MarginAccount",
          "name": "account",
          "type": "tuple"
        },
        {
          "internalType": "uint256",
          "name": "openValue",
          "type": "uint256"
        }
      ],
      "name": "isSafeOpen",
      "outputs": [
        {
          "internalType": "bool",
          "name": "",
          "type": "bool"
        }
      ],
      "stateMutability": "view",
      "type": "function"
    },
    {
      "inputs": [
        {
          "internalType": "address",
          "name": "liquidator",
          "type": "address"
        },
        {
          "internalType": "address",
          "name": "trader",
          "type": "address"
        }
      ],
      "name": "liquidate",
      "outputs": [],
      "stateMutability": "nonpayable",
      "type": "function"
    },
    {
      "inputs": [
        {
          "internalType": "uint256",
          "name": "amount",
          "type": "uint256"
        },
        {
          "internalType": "uint256",
          "name": "markPrice",
          "type": "uint256"
        }
      ],
      "name": "maintenanceMargin",
      "outputs": [
        {
          "internalType": "uint256",
          "name": "",
          "type": "uint256"
        }
      ],
      "stateMutability": "view",
      "type": "function"
    },
    {
      "inputs": [
        {
          "internalType": "uint256",
          "name": "amount",
          "type": "uint256"
        },
        {
          "internalType": "uint256",
          "name": "minReceiveQuote",
          "type": "uint256"
        }
      ],
      "name": "sellBaseToken",
      "outputs": [
        {
          "internalType": "uint256",
          "name": "",
          "type": "uint256"
        }
      ],
      "stateMutability": "nonpayable",
      "type": "function"
    },
    {
      "inputs": [
        {
          "internalType": "address",
          "name": "newOwner",
          "type": "address"
        }
      ],
      "name": "transferOwnership",
      "outputs": [],
      "stateMutability": "nonpayable",
      "type": "function"
    },
    {
      "inputs": [],
      "name": "withdrawAllCollateral",
      "outputs": [],
      "stateMutability": "nonpayable",
      "type": "function"
    },
    {
      "inputs": [
        {
          "internalType": "uint256",
          "name": "amount",
          "type": "uint256"
        }
      ],
      "name": "withdrawCollateral",
      "outputs": [],
      "stateMutability": "nonpayable",
      "type": "function"
    },
    {
      "inputs": [
        {
          "internalType": "address",
          "name": "adminAddress",
          "type": "address"
        },
        {
          "internalType": "address",
          "name": "pricingAddress",
          "type": "address"
        },
        {
          "internalType": "string",
          "name": "tokenName",
          "type": "string"
        }
      ],
      "name": "init",
      "outputs": [],
      "stateMutability": "nonpayable",
      "type": "function"
    }
  ],
  "bytecode": "0x6080604052600f805460ff1916905534801561001a57600080fd5b506153ca8061002a6000396000f3fe60806040523480156200001157600080fd5b5060043610620002805760003560e01c80638bc60bff1162000159578063b35b08e911620000c9578063da3a4c311162000087578063da3a4c31146200050f578063eab5d20e1462000526578063f2fde38b1462000530578063f9f8eda81462000547578063fa6a5eae14620005515762000280565b8063b35b08e914620004b6578063b4cab95514620004cd578063bad4a01f14620004d7578063d38b520914620004ee578063d6b4129814620005055762000280565b8063a51843ef1162000117578063a51843ef146200046a578063a8b13ddf1462000481578063b192a3eb146200048b578063b1e073661462000495578063b2094fd314620004ac5762000280565b80638bc60bff1462000418578063901b481014620004355780639103b8b7146200043f578063952d7c571462000449578063a163805c14620004605762000280565b80633d23755d11620001f557806372decd7a11620001b357806372decd7a14620003d95780637374956714620003e35780637c9b8e8914620003ed5780638456db1514620003f757806386b9d81f14620004015762000280565b80633d23755d14620003735780634a2473c3146200038a5780634e71e0c814620003a15780635c9a6d3714620003ab5780636112fe2e14620003c25762000280565b8063245c96851162000243578063245c968514620003255780632a0acc6a146200032f5780632b32812a14620003395780632efc6ee7146200034357806338873925146200035c5762000280565b80630be4cea9146200028557806313ddd8fb14620002b457806316048bc414620002da57806317be952e14620002f357806322d779cc146200030c575b600080fd5b6200029c6200029636600462003b47565b62000568565b604051620002ab919062003e0c565b60405180910390f35b620002cb620002c536600462003989565b620005a9565b604051620002ab919062003d1b565b620002e4620006d1565b604051620002ab919062003c97565b620002fd620006e0565b604051620002ab919062003d26565b620003236200031d36600462003ac0565b620006e9565b005b6200029c620006f9565b620002e4620006ff565b6200029c6200070e565b6200034d62000714565b604051620002ab919062003ce8565b6200029c6200036d36600462003b8d565b62000791565b6200029c6200038436600462003989565b62000833565b6200029c6200039b36600462003b29565b620008bb565b6200032362000967565b62000323620003bc36600462003a04565b62000a01565b62000323620003d336600462003b74565b62000ad0565b6200029c62000adf565b6200032362000ae5565b6200029c62000af2565b620002e462000af8565b6200032362000412366004620039c7565b62000b07565b6200042262000d0f565b604051620002ab95949392919062003d7c565b6200029c62000d27565b6200029c62000db8565b6200029c6200045a36600462003b8d565b62000dbe565b620002e46200142c565b6200029c6200047b36600462003b8d565b6200143b565b6200029c620019ad565b620002e4620019b3565b62000422620004a636600462003989565b620019c2565b6200029c620019f5565b6200029c620004c736600462003b8d565b620019fb565b6200029c62001a5c565b62000323620004e836600462003b74565b62001a62565b6200029c620004ff36600462003b74565b62001a6e565b620002fd62001a83565b620002cb6200052036600462003b47565b62001a8c565b6200029c62001b7d565b620003236200054136600462003989565b62001b83565b6200029c62001c34565b620003236200056236600462003ac0565b62001c3a565b6000620005a0620005886200058285602001518562000791565b62001c46565b6200059385620008bb565b9063ffffffff62001c7616565b90505b92915050565b6000620005b562003894565b6001600160a01b0383166000908152600a602052604090819020815160a081019092528054829060ff166002811115620005eb57fe5b6002811115620005f757fe5b81526020016001820154815260200160028201548152602001600382015481526020016004820154815250509050620006bc620005828260200151600360009054906101000a90046001600160a01b03166001600160a01b031663ee27c6896040518163ffffffff1660e01b815260040160206040518083038186803b1580156200068157600080fd5b505afa15801562000696573d6000803e3d6000fd5b505050506040513d601f19601f82011682018060405250810190620004c7919062003b10565b620006c782620008bb565b139150505b919050565b6000546001600160a01b031681565b600f5460ff1681565b620006f5828262001cc2565b5050565b600c5481565b6002546001600160a01b031681565b60065490565b6200071e620038c4565b6000600260055460ff1660028111156200073457fe5b146200075757600654601054620007519163ffffffff62001dc616565b6200076e565b6006546010546200076e9163ffffffff62001df116565b604080516060810182526000815260208101929092526010549082015291505090565b6000620005a0620007a3838562001e19565b600260009054906101000a90046001600160a01b03166001600160a01b03166398a0a53d6040518163ffffffff1660e01b815260040160206040518083038186803b158015620007f257600080fd5b505afa15801562000807573d6000803e3d6000fd5b505050506040513d601f19601f820116820180604052508101906200082d919062003b10565b62001e19565b600480546040516370a0823160e01b81526000926001600160a01b03909216916370a0823191620008679186910162003c97565b60206040518083038186803b1580156200088057600080fd5b505afa15801562000895573d6000803e3d6000fd5b505050506040513d601f19601f82011682018060405250810190620005a3919062003b10565b60035481516020830151604080850151905163a3ffd1cb60e01b8152600094620005a3946001600160a01b039091169363a3ffd1cb936200090193829060040162003daf565b60206040518083038186803b1580156200091a57600080fd5b505afa1580156200092f573d6000803e3d6000fd5b505050506040513d601f19601f8201168201806040525081019062000955919062003b10565b60608401519063ffffffff62001e4616565b6001546001600160a01b031633146200099d5760405162461bcd60e51b8152600401620009949062003e8f565b60405180910390fd5b600154600080546040516001600160a01b0393841693909116917f8be0079c531659141344cd1fd0a4f28419497f9722a3daafe3b4186f6b6457e091a360018054600080546001600160a01b03199081166001600160a01b03841617909155169055565b600154600160a81b900460ff161562000a2e5760405162461bcd60e51b8152600401620009949062003eed565b6001805460ff60a81b1916600160a81b179055600280546001600160a01b038086166001600160a01b0319928316179092556003805492851692909116919091179055604051819062000a8190620038e2565b62000a8d919062003e15565b604051809103906000f08015801562000aaa573d6000803e3d6000fd5b50600480546001600160a01b0319166001600160a01b0392909216919091179055505050565b62000adc338262001e92565b50565b60085490565b62000af033620023b7565b565b600e5481565b6001546001600160a01b031681565b62000b1281620005a9565b1562000b325760405162461bcd60e51b8152600401620009949062004146565b62000b3c62003894565b6001600160a01b0383166000908152600a602052604090819020815160a081019092528054829060ff16600281111562000b7257fe5b600281111562000b7e57fe5b8152602001600182015481526020016002820154815260200160038201548152602001600482015481525050905062000bb662003894565b6001600160a01b0383166000908152600a602052604090819020815160a081019092528054829060ff16600281111562000bec57fe5b600281111562000bf857fe5b815260200160018201548152602001600282015481526020016003820154815260200160048201548152505090506000600360009054906101000a90046001600160a01b03166001600160a01b0316634b0301a5836000015184602001516040518363ffffffff1660e01b815260040162000c7592919062003d5f565b60206040518083038186803b15801562000c8e57600080fd5b505afa15801562000ca3573d6000803e3d6000fd5b505050506040513d601f19601f8201168201806040525081019062000cc9919062003b10565b905062000cd7838262001a8c565b62000cf65760405162461bcd60e51b8152600401620009949062003fde565b62000d08858583856020015162002408565b5050505050565b60055460065460075460085460095460ff9094169385565b6000600460009054906101000a90046001600160a01b03166001600160a01b03166318160ddd6040518163ffffffff1660e01b815260040160206040518083038186803b15801562000d7857600080fd5b505afa15801562000d8d573d6000803e3d6000fd5b505050506040513d601f19601f8201168201806040525081019062000db3919062003b10565b905090565b60095490565b600154600090600160a01b900460ff161562000dee5760405162461bcd60e51b8152600401620009949062003f45565b6001805460ff60a01b1916600160a01b1790558262000e215760405162461bcd60e51b8152600401620009949062003f17565b600260009054906101000a90046001600160a01b03166001600160a01b031663ee3dfe2b6040518163ffffffff1660e01b815260040160006040518083038186803b15801562000e7057600080fd5b505afa15801562000e85573d6000803e3d6000fd5b50505050600260009054906101000a90046001600160a01b03166001600160a01b031663961a929c6040518163ffffffff1660e01b815260040160006040518083038186803b15801562000ed857600080fd5b505afa15801562000eed573d6000803e3d6000fd5b5050505062000efb620038f0565b60035460405163f0d8a75960e01b8152600091829182916001600160a01b03169063f0d8a7599062000f32908a9060040162003e0c565b6101006040518083038186803b15801562000f4c57600080fd5b505afa15801562000f61573d6000803e3d6000fd5b505050506040513d601f19601f8201168201806040525081019062000f87919062003bfe565b8b6020810160408201606083016080840185600281111562000fa557fe5b600281111562000fb157fe5b905294909452939092525091905252919450925090508583101562000fea5760405162461bcd60e51b8152600401620009949062004221565b62000ff462003894565b336000908152600a602052604090819020815160a081019092528054829060ff1660028111156200102157fe5b60028111156200102d57fe5b815260200160018201548152602001600282015481526020016003820154815260200160048201548152505090506200106562003894565b6040805160a0810190915260058054829060ff1660028111156200108557fe5b60028111156200109157fe5b81526020016001820154815260200160028201548152602001600382015481526020016004820154815250509050620010cb828662001a8c565b620010ea5760405162461bcd60e51b8152600401620009949062004015565b620010f9826001878c62002b3f565b91506200110a816002878c62002b3f565b905083156200114e5762001134620011228562001c46565b60608401519063ffffffff62001c7616565b606083015262001148620009558562001c46565b60608201525b8215620012dc5762001164620011228462001c46565b606083015262001230620011788462001c46565b600a6000600260009054906101000a90046001600160a01b03166001600160a01b0316634322ec836040518163ffffffff1660e01b815260040160206040518083038186803b158015620011cb57600080fd5b505afa158015620011e0573d6000803e3d6000fd5b505050506040513d601f19601f82011682018060405250810190620012069190620039a8565b6001600160a01b031681526020810191909152604001600020600301549063ffffffff62001e4616565b600a6000600260009054906101000a90046001600160a01b03166001600160a01b0316634322ec836040518163ffffffff1660e01b815260040160206040518083038186803b1580156200128357600080fd5b505afa15801562001298573d6000803e3d6000fd5b505050506040513d601f19601f82011682018060405250810190620012be9190620039a8565b6001600160a01b031681526020810191909152604001600020600301555b336000908152600a602052604090208251815484929190829060ff191660018360028111156200130857fe5b02179055506020820151816001015560408201518160020155606082015181600301556080820151816004015590505080600560008201518160000160006101000a81548160ff021916908360028111156200136057fe5b0217905550602082015160018201556040820151600282015560608201516003820155608090910151600490910155601054620013a4908a63ffffffff62001dc616565b601081905550620013cd86600001518760200151886040015189606001518a6080015162002c20565b336001600160a01b03167fd8648b6ac54162763c86fd54bf2005af8ecd2f9cb273a5775921fd7f91e17b2d8a876040516200140a929190620042fb565b60405180910390a250506001805460ff60a01b19169055509095945050505050565b6003546001600160a01b031681565b600154600090600160a01b900460ff16156200146b5760405162461bcd60e51b8152600401620009949062003f45565b6001805460ff60a01b1916600160a01b179055600254604080516347c7bf5960e11b815290516001600160a01b0390921691638f8f7eb291600480820192600092909190829003018186803b158015620014c457600080fd5b505afa158015620014d9573d6000803e3d6000fd5b50505050600260009054906101000a90046001600160a01b03166001600160a01b031663961a929c6040518163ffffffff1660e01b815260040160006040518083038186803b1580156200152c57600080fd5b505afa15801562001541573d6000803e3d6000fd5b505050506200154f620038f0565b6003546040516321d39cbb60e11b8152600091829182916001600160a01b0316906343a739769062001586908a9060040162003e0c565b6101006040518083038186803b158015620015a057600080fd5b505afa158015620015b5573d6000803e3d6000fd5b505050506040513d601f19601f82011682018060405250810190620015db919062003bfe565b8b60208101604082016060830160808401856002811115620015f957fe5b60028111156200160557fe5b9052949094529390925250919052529194509250905085620016408262001633868663ffffffff62001df116565b9063ffffffff62001df116565b1115620016615760405162461bcd60e51b81526004016200099490620042a8565b6200166b62003894565b336000908152600a602052604090819020815160a081019092528054829060ff1660028111156200169857fe5b6002811115620016a457fe5b81526020016001820154815260200160028201548152602001600382015481526020016004820154815250509050620016dc62003894565b6040805160a0810190915260058054829060ff166002811115620016fc57fe5b60028111156200170857fe5b8152602001600182015481526020016002820154815260200160038201548152602001600482015481525050905062001742828662001a8c565b620017615760405162461bcd60e51b8152600401620009949062004015565b62001770826002878c62002b3f565b915062001781816001878c62002b3f565b90508315620017b35762001799620011228562001c46565b6060830152620017ad620009558562001c46565b60608201525b82156200188957620017c9620011228462001c46565b6060830152620017dd620011788462001c46565b600a6000600260009054906101000a90046001600160a01b03166001600160a01b0316634322ec836040518163ffffffff1660e01b815260040160206040518083038186803b1580156200183057600080fd5b505afa15801562001845573d6000803e3d6000fd5b505050506040513d601f19601f820116820180604052508101906200186b9190620039a8565b6001600160a01b031681526020810191909152604001600020600301555b620018ac86600001518760200151886040015189606001518a6080015162002c20565b336000908152600a602052604090208251815484929190829060ff19166001836002811115620018d857fe5b02179055506020820151816001015560408201518160020155606082015181600301556080820151816004015590505080600560008201518160000160006101000a81548160ff021916908360028111156200193057fe5b021790555060208201516001820155604082015160028201556060820151600382015560809091015160049091015560105462001974908a63ffffffff62001df116565b60105560405133907fe93ad76094f247c0dafc1c61adc2187de1ac2738f7a3b49cb20b2263420251a3906200140a908c908990620042fb565b60105481565b6004546001600160a01b031681565b600a602052600090815260409020805460018201546002830154600384015460049094015460ff90931693919290919085565b600b5481565b6000620005a062001a0d838562001e19565b600260009054906101000a90046001600160a01b03166001600160a01b031663fe73ee736040518163ffffffff1660e01b815260040160206040518083038186803b158015620007f257600080fd5b60075490565b62000adc338262002cab565b6011816003811062001a7c57fe5b0154905081565b60055460ff1690565b600062001ae66200058283600260009054906101000a90046001600160a01b03166001600160a01b03166398a0a53d6040518163ffffffff1660e01b815260040160206040518083038186803b158015620007f257600080fd5b62001b7584600360009054906101000a90046001600160a01b03166001600160a01b031663ee27c6896040518163ffffffff1660e01b815260040160206040518083038186803b15801562001b3a57600080fd5b505afa15801562001b4f573d6000803e3d6000fd5b505050506040513d601f19601f8201168201806040525081019062000296919062003b10565b139392505050565b600d5481565b6000546001600160a01b0316331462001bb05760405162461bcd60e51b8152600401620009949062004123565b6001600160a01b03811662001bd95760405162461bcd60e51b81526004016200099490620040fc565b600080546040516001600160a01b03808516939216917fdcf55418cee3220104fef63f979ff3c4097ad240c0c43dcb33ce837748983e6291a3600180546001600160a01b0319166001600160a01b0392909216919091179055565b60145481565b620006f5828262003198565b60006001600160ff1b0382111562001c725760405162461bcd60e51b8152600401620009949062004258565b5090565b600081830381831280159062001c8c5750838113155b8062001ca3575060008312801562001ca357508381135b620005a05760405162461bcd60e51b8152600401620009949062004193565b62001d6b823083600260009054906101000a90046001600160a01b03166001600160a01b031663cb102dd26040518163ffffffff1660e01b815260040160206040518083038186803b15801562001d1857600080fd5b505afa15801562001d2d573d6000803e3d6000fd5b505050506040513d601f19601f8201168201806040525081019062001d539190620039a8565b6001600160a01b031692919063ffffffff6200328516565b62001da362001d7a8262001c46565b6001600160a01b0384166000908152600a60205260409020600301549063ffffffff62001e4616565b6001600160a01b039092166000908152600a602052604090206003019190915550565b60008282111562001deb5760405162461bcd60e51b81526004016200099490620040aa565b50900390565b600082820183811015620005a05760405162461bcd60e51b8152600401620009949062004170565b6000670de0b6b3a764000062001e36848463ffffffff620032e716565b8162001e3e57fe5b049392505050565b600082820181831280159062001e5c5750838112155b8062001e73575060008312801562001e7357508381125b620005a05760405162461bcd60e51b8152600401620009949062003f68565b600154600160a01b900460ff161562001ebf5760405162461bcd60e51b8152600401620009949062003f45565b6001805460ff60a01b1916600160a01b1790556002546040805163a4a5e9ad60e01b815290516001600160a01b039092169163a4a5e9ad91600480820192600092909190829003018186803b15801562001f1857600080fd5b505afa15801562001f2d573d6000803e3d6000fd5b50505050600260009054906101000a90046001600160a01b03166001600160a01b031663d76bfbd96040518163ffffffff1660e01b815260040160006040518083038186803b15801562001f8057600080fd5b505afa15801562001f95573d6000803e3d6000fd5b50505050600062001fa562000d27565b90506000811162001fca5760405162461bcd60e51b8152600401620009949062003eb6565b600062001fea62001fdc848462003327565b6008546200082d9062003355565b905062001ff884826200337a565b600080600062002009868662003327565b9050600060055460ff1660028111156200201f57fe5b146200221057620020368160056001015462001e19565b9250620020498160056002015462001e19565b91506200205562003894565b336000908152600a602052604090819020815160a081019092528054829060ff1660028111156200208257fe5b60028111156200208e57fe5b81526020016001820154815260200160028201548152602001600382015481526020016004820154815250509050620020c662003894565b6040805160a0810190915260058054829060ff166002811115620020e657fe5b6002811115620020f257fe5b81526001820154602082015260028201546040820152600382015460608201526004909101546080909101526005549091506200213690839060ff16868862002b3f565b60055490925062002159908290620021519060ff16620033ce565b868862002b3f565b336000908152600a60205260409020835181549293508492829060ff191660018360028111156200218657fe5b02179055506020820151816001015560408201518160020155606082015181600301556080820151816004015590505080600560008201518160000160006101000a81548160ff02191690836002811115620021de57fe5b021790555060208201516001820155604082015160028201556060820151600382015560809091015160049091015550505b6000806000806000600360009054906101000a90046001600160a01b03166001600160a01b031663ffa642256040518163ffffffff1660e01b815260040160a06040518083038186803b1580156200226757600080fd5b505afa1580156200227c573d6000803e3d6000fd5b505050506040513d601f19601f82011682018060405250810190620022a2919062003baf565b939850919650945092509050620022cd846200082d670de0b6b3a76400008963ffffffff62001dc616565b9350620022ee856200082d670de0b6b3a76400008963ffffffff62001dc616565b94506200230f826200082d670de0b6b3a76400008963ffffffff62001dc616565b915062002330836200082d670de0b6b3a76400008963ffffffff62001dc616565b925062002341858585858562002c20565b6200234d8c8c6200340e565b8b6001600160a01b0316336001600160a01b03167f92da889ebdf9766a076ef7881c4618bd4667d5f74d6cf3fa1c82f319cdb399608b8e60405162002394929190620042fb565b60405180910390a350506001805460ff60a01b1916905550505050505050505050565b6000620023c362000d27565b905060008111620023e85760405162461bcd60e51b8152600401620009949062003eb6565b6000620023f58362000833565b905062002403838262001e92565b505050565b6200241262003894565b6001600160a01b0385166000908152600a602052604090819020815160a081019092528054829060ff1660028111156200244857fe5b60028111156200245457fe5b815260200160018201548152602001600282015481526020016003820154815260200160048201548152505090506200248c62003894565b6001600160a01b0385166000908152600a602052604090819020815160a081019092528054829060ff166002811115620024c257fe5b6002811115620024ce57fe5b815260200160018201548152602001600282015481526020016003820154815260200160048201548152505090506200250662003894565b6040805160a0810190915260058054829060ff1660028111156200252657fe5b60028111156200253257fe5b8152602001600182015481526020016002820154815260200160038201548152602001600482015481525050905060008260000151905060006200260462000582600260009054906101000a90046001600160a01b03166001600160a01b031663f5cdd2026040518163ffffffff1660e01b815260040160206040518083038186803b158015620025c257600080fd5b505afa158015620025d7573d6000803e3d6000fd5b505050506040513d601f19601f82011682018060405250810190620025fd919062003b10565b8962001e19565b90506000620026a162000582600260009054906101000a90046001600160a01b03166001600160a01b03166311187e366040518163ffffffff1660e01b815260040160206040518083038186803b1580156200265f57600080fd5b505afa15801562002674573d6000803e3d6000fd5b505050506040513d601f19601f820116820180604052508101906200269a919062003b10565b8a62001e19565b9050620026bb85620026b385620033ce565b8a8a62002b3f565b9450620026cb86848a8a62002b3f565b9550620026df828263ffffffff62001e4616565b8560600151126200274f5762002708816200059384886060015162001c7690919063ffffffff16565b60608087019190915286015162002726908363ffffffff62001e4616565b60608088019190915284015162002744908263ffffffff62001e4616565b6060850152620029a6565b81856060015112620027bc57606086015162002772908363ffffffff62001e4616565b606080880191909152850151620027a79062002795908463ffffffff62001c7616565b60608601519063ffffffff62001e4616565b606080860191909152600090860152620029a6565b81620027e0620027ce60145462001c46565b60608801519063ffffffff62001e4616565b1262002851576060860151620027fd908363ffffffff62001e4616565b6060808801919091528501516000906200281f90849063ffffffff62001c7616565b905062002840620028308262003355565b6014549063ffffffff62001dc616565b6014555060006060860152620029a6565b606086015162002868908363ffffffff62001e4616565b8660600181815250506000620028a86200289a6200288860145462001c46565b60608901519063ffffffff62001e4616565b849063ffffffff62001c7616565b6000601481905560608801529050620028c0620038c4565b620028ca62000714565b905062002909620028db8362003355565b82620028e788620033ce565b6002811115620028f357fe5b60038110620028fe57fe5b602002015162003327565b60116200291687620033ce565b60028111156200292257fe5b600381106200292d57fe5b01805490910190557fe7c36d6fb87e3948a53ae9860b822817eeadf4473006f88cecd0180fcaae75ed6200296186620033ce565b83836200296e89620033ce565b60028111156200297a57fe5b600381106200298557fe5b60200201516040516200299b9392919062003d3d565b60405180910390a150505b6001600160a01b0389166000908152600a602052604090208551815487929190829060ff19166001836002811115620029db57fe5b02179055506020820151816001015560408201518160020155606082015181600301556080820151816004015590505085600a60008c6001600160a01b03166001600160a01b0316815260200190815260200160002060008201518160000160006101000a81548160ff0219169083600281111562002a5657fe5b02179055506020820151600182015560408201516002820155606080830151600383015560809092015160049091015560085490850151141562002ae257835160058054869290829060ff1916600183600281111562002ab257fe5b02179055506020820151600182015560408201516002820155606082015160038201556080909101516004909101555b886001600160a01b03168a6001600160a01b03167f54f9b006b19a44694e56b0d6a57f34c420bf88da7373f9d0f3380e5f4b70951e858b8b60405162002b2b9392919062003d3d565b60405180910390a350505050505050505050565b62002b4962003894565b602085015160009083901580159062002b7b575085600281111562002b6a57fe5b8751600281111562002b7857fe5b14155b1562002bec578660200151841162002ba65762002b9a87858762003479565b96506000905062002bec565b62002bbb856200082d89602001518762003327565b915062002bce8788602001518462003479565b965062002be987602001518562001dc690919063ffffffff16565b90505b801562002c155762002c1287878362002c0c898763ffffffff62001dc616565b620035f1565b96505b509495945050505050565b82600c541462002c3057600c8390555b84600b541462002c4057600b8590555b83600d541462002c5057600d8490555b81600e541462002c6057600e8290555b80600281111562002c6d57fe5b600f5460ff16600281111562002c7f57fe5b1462000d0857600f805482919060ff1916600183600281111562002c9f57fe5b02179055505050505050565b600154600160a01b900460ff161562002cd85760405162461bcd60e51b8152600401620009949062003f45565b6001805460ff60a01b1916600160a01b1790556002546040805163a4a5e9ad60e01b815290516001600160a01b039092169163a4a5e9ad91600480820192600092909190829003018186803b15801562002d3157600080fd5b505afa15801562002d46573d6000803e3d6000fd5b50505050600260009054906101000a90046001600160a01b03166001600160a01b031663d76bfbd96040518163ffffffff1660e01b815260040160006040518083038186803b15801562002d9957600080fd5b505afa15801562002dae573d6000803e3d6000fd5b50505050600260009054906101000a90046001600160a01b03166001600160a01b031663c30ea2a26040518163ffffffff1660e01b815260040160006040518083038186803b15801562002e0157600080fd5b505afa15801562002e16573d6000803e3d6000fd5b50505050600062002e2662000d27565b905060008162002e3857508162002f40565b60008060055460ff16600281111562002e4d57fe5b141562002e5e575060085462002f1b565b60035460055462002f18916001600160a01b03169063a3ffd1cb9062002e879060ff16620033ce565b6006546007546040516001600160e01b031960e086901b16815262002eb493929190829060040162003daf565b60206040518083038186803b15801562002ecd57600080fd5b505afa15801562002ee2573d6000803e3d6000fd5b505050506040513d601f19601f8201168201806040525081019062002f08919062003b10565b6008549063ffffffff62001e4616565b90505b62002f3c62002f358562002f2f8462003355565b62003327565b8462001e19565b9150505b600354600554600e5460009283928392839283926001600160a01b039091169163ffa960b49160ff169062002f7c908c63ffffffff62001df116565b600260009054906101000a90046001600160a01b03166001600160a01b031663796da7af6040518163ffffffff1660e01b815260040160206040518083038186803b15801562002fcb57600080fd5b505afa15801562002fe0573d6000803e3d6000fd5b505050506040513d601f19601f8201168201806040525081019062003006919062003b10565b6006546002546040805163ec2fd46d60e01b815290516001600160a01b039092169163ec2fd46d91600480820192602092909190829003018186803b1580156200304f57600080fd5b505afa15801562003064573d6000803e3d6000fd5b505050506040513d601f19601f820116820180604052508101906200308a919062003b10565b6040518663ffffffff1660e01b8152600401620030ac95949392919062003dda565b60a06040518083038186803b158015620030c557600080fd5b505afa158015620030da573d6000803e3d6000fd5b505050506040513d601f19601f8201168201806040525081019062003100919062003baf565b9450945094509450945062003119858585858562002c20565b62003125898962003689565b620031318987620036ed565b886001600160a01b0316336001600160a01b03167fbded9ba8a041a2b893fdc29720280cb14b8f6c369538bde50fcd4e602d5608578a8960405162003178929190620042fb565b60405180910390a350506001805460ff60a01b1916905550505050505050565b620031d0620031a78262001c46565b6001600160a01b0384166000908152600a60205260409020600301549063ffffffff62001c7616565b6001600160a01b038084166000908152600a602090815260409182902060030193909355600254815163658816e960e11b81529151620006f5948794879493169263cb102dd29260048083019392829003018186803b1580156200323357600080fd5b505afa15801562003248573d6000803e3d6000fd5b505050506040513d601f19601f820116820180604052508101906200326e9190620039a8565b6001600160a01b0316919063ffffffff6200372016565b620032e1846323b872dd60e01b858585604051602401620032a99392919062003cab565b60408051601f198184030181529190526020810180516001600160e01b03166001600160e01b03199093169290921790915262003742565b50505050565b600082620032f857506000620005a3565b828202828482816200330657fe5b0414620005a05760405162461bcd60e51b81526004016200099490620042d8565b6000620005a0826200334885670de0b6b3a764000063ffffffff620032e716565b9063ffffffff6200380616565b60008082121562001c725760405162461bcd60e51b8152600401620009949062004282565b600081116200339d5760405162461bcd60e51b8152600401620009949062003e4a565b620033bc620033ac8262001c46565b6008549063ffffffff62001c7616565b60085562001da362001d7a8262001c46565b60006002826002811115620033df57fe5b1415620033ef57506001620006cc565b6001826002811115620033fe57fe5b141562001c7257506002620006cc565b60048054604051632770a7eb60e21b81526001600160a01b0390911691639dc29fac916200344191869186910162003ccf565b600060405180830381600087803b1580156200345c57600080fd5b505af115801562003471573d6000803e3d6000fd5b505050505050565b6200348362003894565b60008311620034a65760405162461bcd60e51b81526004016200099490620040cd565b60008460200151841415620034c157506040840151620034dd565b620034da85604001516200082d86886020015162003838565b90505b6003548551604051632d50ce1d60e21b81526000926001600160a01b03169163b5433874916200351591908690899060040162003d3d565b60206040518083038186803b1580156200352e57600080fd5b505afa15801562003543573d6000803e3d6000fd5b505050506040513d601f19601f8201168201806040525081019062003569919062003b10565b606087015190915062003583908263ffffffff62001e4616565b606087015260408601516020870151620035ba91906200082d90620035af908963ffffffff62001dc616565b896020015162003838565b60408701526020860151620035d6908663ffffffff62001dc616565b60208701819052620035e757600086525b5093949350505050565b620035fb62003894565b600083116200361e5760405162461bcd60e51b8152600401620009949062003f17565b60208501516200364857848460028111156200363657fe5b908160028111156200364457fe5b9052505b60208501516200365f908463ffffffff62001df116565b602086015260408501516200367b908363ffffffff62001df116565b604086015250929392505050565b60008111620036ac5760405162461bcd60e51b8152600401620009949062004067565b620036bb620031a78262001c46565b6001600160a01b0383166000908152600a6020526040902060030155620036e662002f088262001c46565b6008555050565b600480546040516340c10f1960e01b81526001600160a01b03909116916340c10f19916200344191869186910162003ccf565b620024038363a9059cbb60e01b8484604051602401620032a992919062003ccf565b60006060836001600160a01b03168360405162003760919062003c79565b6000604051808303816000865af19150503d80600081146200379f576040519150601f19603f3d011682016040523d82523d6000602084013e620037a4565b606091505b509150915081620037c95760405162461bcd60e51b8152600401620009949062003fa9565b805115620032e15780806020019051810190620037e7919062003aee565b620032e15760405162461bcd60e51b81526004016200099490620041d7565b60008062003815848462003866565b9050828102840380156200382f57506001019050620005a3565b509050620005a3565b6000620005a0826200385985670de0b6b3a764000063ffffffff620032e716565b9063ffffffff6200386616565b60008082116200388a5760405162461bcd60e51b815260040162000994906200403f565b81838162001e3e57fe5b6040805160a081019091528060008152602001600081526020016000815260200160008152602001600081525090565b60405180606001604052806003906020820280368337509192915050565b611004806200439183390190565b6040518060a0016040528060008152602001600081526020016000815260200160008152602001600060028111156200392557fe5b905290565b600060a082840312156200393c578081fd5b6200394860a062004309565b90508135620039578162004382565b808252506020820135602082015260408201356040820152606082013560608201526080820135608082015292915050565b6000602082840312156200399b578081fd5b8135620005a0816200436c565b600060208284031215620039ba578081fd5b8151620005a0816200436c565b60008060408385031215620039da578081fd5b8235620039e7816200436c565b91506020830135620039f9816200436c565b809150509250929050565b60008060006060848603121562003a19578081fd5b833562003a26816200436c565b925060208481013562003a39816200436c565b9250604085013567ffffffffffffffff8082111562003a56578384fd5b81870188601f82011262003a68578485fd5b803592508183111562003a79578485fd5b62003a8d601f8401601f1916850162004309565b9150828252888484830101111562003aa3578485fd5b828482018584013750838383830101528093505050509250925092565b6000806040838503121562003ad3578182fd5b823562003ae0816200436c565b946020939093013593505050565b60006020828403121562003b00578081fd5b81518015158114620005a0578182fd5b60006020828403121562003b22578081fd5b5051919050565b600060a0828403121562003b3b578081fd5b620005a083836200392a565b60008060c0838503121562003b5a578182fd5b62003b6684846200392a565b9460a0939093013593505050565b60006020828403121562003b86578081fd5b5035919050565b6000806040838503121562003ba0578182fd5b50508035926020909101359150565b600080600080600060a0868803121562003bc7578081fd5b85519450602086015193506040860151925060608601519150608086015162003bf08162004382565b809150509295509295909350565b600080600080600080600080610100898b03121562003c1b578586fd5b885197506020890151965060408901519550606089015194506080890151935060a0890151925060c0890151915060e089015162003c598162004382565b809150509295985092959890939650565b6003811062003c7557fe5b9052565b6000825162003c8d8184602087016200433d565b9190910192915050565b6001600160a01b0391909116815260200190565b6001600160a01b039384168152919092166020820152604081019190915260600190565b6001600160a01b03929092168252602082015260400190565b60608101818360005b600381101562003d1257815183526020928301929091019060010162003cf1565b50505092915050565b901515815260200190565b6020810162003d358362004331565b825292915050565b6060810162003d4c8562004331565b8252602082019390935260400152919050565b6040810162003d6f828562003c6a565b8260208301529392505050565b60a0810162003d8b8762004331565b82528560208301528460408301528360608301528260808301529695505050505050565b6080810162003dbf828762003c6a565b84602083015283604083015282606083015295945050505050565b60a0810162003dea828862003c6a565b8560208301528460408301528360608301528260808301529695505050505050565b90815260200190565b600060208252825180602084015262003e368160408501602087016200433d565b601f01601f19169190910160400192915050565b60208082526025908201527f4d617267696e5472616e7366657246726f6d506f6f6c5f494c4c4547414c5f416040820152641353d5539560da1b606082015260800190565b6020808252600d908201526c494e56414c49445f434c41494d60981b604082015260600190565b6020808252601b908201527f7769746864726177436f6c6c61746572616c546f3a204e4f5f4c500000000000604082015260600190565b60208082526010908201526f1410549057d25392551250531256915160821b604082015260600190565b6020808252601490820152731bdc195b8e881a5b9d985b1a5908185b5bdd5b9d60621b604082015260600190565b60208082526009908201526814915153951490539560ba1b604082015260600190565b60208082526021908201527f5369676e6564536166654d6174683a206164646974696f6e206f766572666c6f6040820152607760f81b606082015260800190565b6020808252818101527f5361666545524332303a206c6f772d6c6576656c2063616c6c206661696c6564604082015260600190565b6020808252601a908201527f4c495155494441544f525f4e4f545f454e4f5547485f46554e44000000000000604082015260600190565b60208082526010908201526f2727aa2fa9a0a322afaa27afa7a822a760811b604082015260600190565b6020808252600e908201526d2224ab24a224a723afa2a92927a960911b604082015260600190565b60208082526023908201527f4d617267696e5472616e73666572546f506f6f6c5f494c4c4547414c5f414d4f60408201526215539560ea1b606082015260800190565b60208082526009908201526829aaa12fa2a92927a960b91b604082015260600190565b60208082526015908201527418db1bdcd94e881a5b9d985b1a5908185b5bdd5b9d605a1b604082015260600190565b6020808252600d908201526c24a72b20a624a22fa7aba722a960991b604082015260600190565b6020808252600990820152682727aa2fa7aba722a960b91b604082015260600190565b60208082526010908201526f29a0a322afaa27afa6a0a4a72a20a4a760811b604082015260600190565b60208082526009908201526820a2222fa2a92927a960b91b604082015260600190565b60208082526024908201527f5369676e6564536166654d6174683a207375627472616374696f6e206f766572604082015263666c6f7760e01b606082015260800190565b6020808252602a908201527f5361666545524332303a204552433230206f7065726174696f6e20646964206e6040820152691bdd081cdd58d8d9595960b21b606082015260800190565b6020808252601c908201527f53454c4c5f424153455f524543454956455f4e4f545f454e4f55474800000000604082015260600190565b60208082526010908201526f75696e74323536206f766572666c6f7760801b604082015260600190565b6020808252600c908201526b696e74206f766572666c6f7760a01b604082015260600190565b602080825260169082015275084aab2be8482a68abe869ea6a8bea89e9ebe9aaa86960531b604082015260600190565b60208082526009908201526826aaa62fa2a92927a960b91b604082015260600190565b918252602082015260400190565b60405181810167ffffffffffffffff811182821017156200432957600080fd5b604052919050565b8060038110620006cc57fe5b60005b838110156200435a57818101518382015260200162004340565b83811115620032e15750506000910152565b6001600160a01b038116811462000adc57600080fd5b6003811062000adc57600080fdfe60c060405260036080819052620504c560ec1b60a0908152620000269160029190620000ca565b506004805460ff191660121790553480156200004157600080fd5b50604051620010043803806200100483398101604081905262000064916200016f565b600080546001600160a01b03191633178082556040516001600160a01b039190911691907f8be0079c531659141344cd1fd0a4f28419497f9722a3daafe3b4186f6b6457e0908290a38051620000c2906003906020840190620000ca565b505062000244565b828054600181600116156101000203166002900490600052602060002090601f016020900481019282601f106200010d57805160ff19168380011785556200013d565b828001600101855582156200013d579182015b828111156200013d57825182559160200191906001019062000120565b506200014b9291506200014f565b5090565b6200016c91905b808211156200014b576000815560010162000156565b90565b60006020828403121562000181578081fd5b81516001600160401b038082111562000198578283fd5b81840185601f820112620001aa578384fd5b8051925081831115620001bb578384fd5b604051601f8401601f191681016020018381118282101715620001dc578586fd5b604052838152818401602001871015620001f4578485fd5b6200020784602083016020850162000211565b9695505050505050565b60005b838110156200022e57818101518382015260200162000214565b838111156200023e576000848401525b50505050565b610db080620002546000396000f3fe608060405234801561001057600080fd5b50600436106101005760003560e01c806370a08231116100975780639e6aa263116100665780639e6aa263146101e8578063a9059cbb146101f0578063dd62ed3e14610203578063f2fde38b1461021657610100565b806370a08231146101b25780638456db15146101c557806395d89b41146101cd5780639dc29fac146101d557610100565b806323b872dd116100d357806323b872dd1461016d578063313ce5671461018057806340c10f19146101955780634e71e0c8146101aa57610100565b806306fdde0314610105578063095ea7b31461012357806316048bc41461014357806318160ddd14610158575b600080fd5b61010d610229565b60405161011a9190610bb7565b60405180910390f35b610136610131366004610aed565b61027f565b60405161011a9190610bac565b61014b6102ea565b60405161011a9190610b98565b6101606102f9565b60405161011a9190610cfb565b61013661017b366004610aad565b6102ff565b610188610483565b60405161011a9190610d04565b6101a86101a3366004610aed565b61048c565b005b6101a861058f565b6101606101c0366004610a5e565b61061d565b61014b610638565b61010d610647565b6101a86101e3366004610aed565b6106da565b61010d6107d1565b6101366101fe366004610aed565b61085f565b610160610211366004610a79565b61091d565b6101a8610224366004610a5e565b610948565b6060806040518060400160405280600f81526020016e5f504152415f4c505f544f4b454e5f60881b815250905060038160405160200161026a929190610b17565b60405160208183030381529060405291505090565b3360008181526007602090815260408083206001600160a01b038716808552925280832085905551919290917f8c5be1e5ebec7d5bd14f71427d1e84f3dd0314c0f7b2291e5b200ac8c7c3b925906102d8908690610cfb565b60405180910390a35060015b92915050565b6000546001600160a01b031681565b60055481565b6001600160a01b0383166000908152600660205260408120548211156103405760405162461bcd60e51b815260040161033790610c89565b60405180910390fd5b6001600160a01b03841660009081526007602090815260408083203384529091529020548211156103835760405162461bcd60e51b815260040161033790610c11565b6001600160a01b0384166000908152600660205260409020546103ac908363ffffffff6109f316565b6001600160a01b0380861660009081526006602052604080822093909355908516815220546103e1908363ffffffff610a1b16565b6001600160a01b038085166000908152600660209081526040808320949094559187168152600782528281203382529091522054610425908363ffffffff6109f316565b6001600160a01b038086166000818152600760209081526040808320338452909152908190209390935591519085169190600080516020610d5b83398151915290610471908690610cfb565b60405180910390a35060019392505050565b60045460ff1690565b6000546001600160a01b031633146104b65760405162461bcd60e51b815260040161033790610cb5565b6001600160a01b0382166000908152600660205260409020546104df908263ffffffff610a1b16565b6001600160a01b03831660009081526006602052604090205560055461050b908263ffffffff610a1b16565b6005556040516001600160a01b038316907f0f6798a560793a54c3bcfe86a93cde1e73087d944c0ea20544137d412139688590610549908490610cfb565b60405180910390a2816001600160a01b031660006001600160a01b0316600080516020610d5b833981519152836040516105839190610cfb565b60405180910390a35050565b6001546001600160a01b031633146105b95760405162461bcd60e51b815260040161033790610bea565b600154600080546040516001600160a01b0393841693909116917f8be0079c531659141344cd1fd0a4f28419497f9722a3daafe3b4186f6b6457e091a360018054600080546001600160a01b03199081166001600160a01b03841617909155169055565b6001600160a01b031660009081526006602052604090205490565b6001546001600160a01b031681565b60028054604080516020601f60001961010060018716150201909416859004938401819004810282018101909252828152606093909290918301828280156106d05780601f106106a5576101008083540402835291602001916106d0565b820191906000526020600020905b8154815290600101906020018083116106b357829003601f168201915b5050505050905090565b6000546001600160a01b031633146107045760405162461bcd60e51b815260040161033790610cb5565b6001600160a01b03821660009081526006602052604090205461072d908263ffffffff6109f316565b6001600160a01b038316600090815260066020526040902055600554610759908263ffffffff6109f316565b6005556040516001600160a01b038316907fcc16f5dbb4873280815c1ee09dbd06736cffcc184412cf7a71a0fdb75d397ca590610797908490610cfb565b60405180910390a260006001600160a01b0316826001600160a01b0316600080516020610d5b833981519152836040516105839190610cfb565b6003805460408051602060026001851615610100026000190190941693909304601f810184900484028201840190925281815292918301828280156108575780601f1061082c57610100808354040283529160200191610857565b820191906000526020600020905b81548152906001019060200180831161083a57829003601f168201915b505050505081565b3360009081526006602052604081205482111561088e5760405162461bcd60e51b815260040161033790610c89565b336000908152600660205260409020546108ae908363ffffffff6109f316565b33600090815260066020526040808220929092556001600160a01b038516815220546108e0908363ffffffff610a1b16565b6001600160a01b038416600081815260066020526040908190209290925590513390600080516020610d5b833981519152906102d8908690610cfb565b6001600160a01b03918216600090815260076020908152604080832093909416825291909152205490565b6000546001600160a01b031633146109725760405162461bcd60e51b815260040161033790610cb5565b6001600160a01b0381166109985760405162461bcd60e51b815260040161033790610c62565b600080546040516001600160a01b03808516939216917fdcf55418cee3220104fef63f979ff3c4097ad240c0c43dcb33ce837748983e6291a3600180546001600160a01b0319166001600160a01b0392909216919091179055565b600082821115610a155760405162461bcd60e51b815260040161033790610c3f565b50900390565b600082820183811015610a405760405162461bcd60e51b815260040161033790610cd8565b9392505050565b80356001600160a01b03811681146102e457600080fd5b600060208284031215610a6f578081fd5b610a408383610a47565b60008060408385031215610a8b578081fd5b610a958484610a47565b9150610aa48460208501610a47565b90509250929050565b600080600060608486031215610ac1578081fd5b8335610acc81610d42565b92506020840135610adc81610d42565b929592945050506040919091013590565b60008060408385031215610aff578182fd5b610b098484610a47565b946020939093013593505050565b6000808454600180821660008114610b365760018114610b4d57610b7c565b60ff198316865260028304607f1686019350610b7c565b600283048886526020808720875b83811015610b745781548a820152908501908201610b5b565b505050860193505b5050508351610b8f818360208801610d12565b01949350505050565b6001600160a01b0391909116815260200190565b901515815260200190565b6000602082528251806020840152610bd6816040850160208701610d12565b601f01601f19169190910160400192915050565b6020808252600d908201526c494e56414c49445f434c41494d60981b604082015260600190565b60208082526014908201527308298989eae829c868abe9c9ea8be8a9c9eaa8e960631b604082015260600190565b60208082526009908201526829aaa12fa2a92927a960b91b604082015260600190565b6020808252600d908201526c24a72b20a624a22fa7aba722a960991b604082015260600190565b6020808252601290820152710848298829c868abe9c9ea8be8a9c9eaa8e960731b604082015260600190565b6020808252600990820152682727aa2fa7aba722a960b91b604082015260600190565b60208082526009908201526820a2222fa2a92927a960b91b604082015260600190565b90815260200190565b60ff91909116815260200190565b60005b83811015610d2d578181015183820152602001610d15565b83811115610d3c576000848401525b50505050565b6001600160a01b0381168114610d5757600080fd5b5056feddf252ad1be2c89b69c2b068fc378daa952ba7f163c4a11628f55a4df523b3efa26469706673582212204b90f0ea99f9321f41aa89d8201d4a39c426d5c93e8e1c6234ecdebbdcf6533064736f6c63430006090033a2646970667358221220cda521a72627339b6eb8b17cadb14f603959d9cef84cb2234fa401d35d41760b64736f6c63430006090033",
  "immutableReferences": {},
  "source": "/*\n\n    Copyright 2020 DODO ZOO.\n    SPDX-License-Identifier: Apache-2.0\n\n*/\n\npragma solidity 0.6.9;\npragma experimental ABIEncoderV2;\n\nimport {Types} from \"./lib/Types.sol\";\nimport {IERC20} from \"./interface/IERC20.sol\";\nimport {Trader} from \"./perpetual/Trader.sol\";\nimport {LpToken} from \"./perpetual/LpToken.sol\";\nimport {LiquidityProvider} from \"./perpetual/LiquidityProvider.sol\";\nimport {Admin} from \"./admin/Admin.sol\";\nimport {Pricing} from \"./perpetual/Pricing.sol\";\n\n/**\n * @title Para\n * @author Parapara\n *\n * @notice Entrance for users\n */\n\ncontract Para is Trader, LiquidityProvider {\n    function init(\n        address adminAddress,\n        address pricingAddress,\n        string memory tokenName\n    ) external {\n        require(!_INITIALIZED_, \"PARA_INITIALIZED\");\n        _INITIALIZED_ = true;\n        ADMIN = Admin(adminAddress);\n        PRICING = Pricing(pricingAddress);\n        _COLLATERAL_POOL_TOKEN_ = address(new LpToken(tokenName));\n    }\n}\n",
  "sourcePath": "/Users/daniel/Codes/parapara/para_dapp_v6/contracts/Para.sol",
  "compiler": {
    "name": "solc",
    "version": "0.6.9+commit.3e3065ac.Emscripten.clang"
  },
  "schemaVersion": "3.3.4",
  "updatedAt": "2021-03-26T05:07:53.797Z",
  "devdoc": {
    "author": "Parapara",
    "methods": {},
    "title": "Para"
  },
  "userdoc": {
    "methods": {},
    "notice": "Entrance for users"
  }
}