{
  "contractName": "Pricing",
  "abi": [
    {
      "inputs": [
        {
          "internalType": "address",
          "name": "accountAddress",
          "type": "address"
        },
        {
          "internalType": "address",
          "name": "adminAddress",
          "type": "address"
        }
      ],
      "name": "init",
      "outputs": [],
      "stateMutability": "nonpayable",
      "type": "function"
    },
    {
      "inputs": [],
      "name": "getExpectedTarget",
      "outputs": [
        {
          "internalType": "uint256",
          "name": "",
          "type": "uint256"
        },
        {
          "internalType": "uint256",
          "name": "",
          "type": "uint256"
        },
        {
          "internalType": "uint256",
          "name": "",
          "type": "uint256"
        },
        {
          "internalType": "uint256",
          "name": "",
          "type": "uint256"
        },
        {
          "internalType": "enum Types.Side",
          "name": "",
          "type": "uint8"
        }
      ],
      "stateMutability": "view",
      "type": "function"
    },
    {
      "inputs": [
        {
          "internalType": "enum Types.Side",
          "name": "side",
          "type": "uint8"
        },
        {
          "internalType": "uint256",
          "name": "quoteBalance",
          "type": "uint256"
        },
        {
          "internalType": "uint256",
          "name": "price",
          "type": "uint256"
        },
        {
          "internalType": "uint256",
          "name": "deltaB",
          "type": "uint256"
        },
        {
          "internalType": "uint256",
          "name": "_K_",
          "type": "uint256"
        }
      ],
      "name": "getExpectedTargetExt",
      "outputs": [
        {
          "internalType": "uint256",
          "name": "",
          "type": "uint256"
        },
        {
          "internalType": "uint256",
          "name": "",
          "type": "uint256"
        },
        {
          "internalType": "uint256",
          "name": "",
          "type": "uint256"
        },
        {
          "internalType": "uint256",
          "name": "",
          "type": "uint256"
        },
        {
          "internalType": "enum Types.Side",
          "name": "",
          "type": "uint8"
        }
      ],
      "stateMutability": "view",
      "type": "function"
    },
    {
      "inputs": [],
      "name": "getMidPrice",
      "outputs": [
        {
          "internalType": "uint256",
          "name": "midPrice",
          "type": "uint256"
        }
      ],
      "stateMutability": "view",
      "type": "function"
    },
    {
      "inputs": [
        {
          "internalType": "enum Types.Side",
          "name": "accountSide",
          "type": "uint8"
        },
        {
          "internalType": "uint256",
          "name": "entryValue",
          "type": "uint256"
        },
        {
          "internalType": "uint256",
          "name": "closeValue",
          "type": "uint256"
        },
        {
          "internalType": "uint256",
          "name": "entrySloss",
          "type": "uint256"
        },
        {
          "internalType": "uint256",
          "name": "clossSloss",
          "type": "uint256"
        }
      ],
      "name": "queryPNLwiValue",
      "outputs": [
        {
          "internalType": "int256",
          "name": "",
          "type": "int256"
        }
      ],
      "stateMutability": "view",
      "type": "function"
    },
    {
      "inputs": [
        {
          "internalType": "enum Types.Side",
          "name": "accountSide",
          "type": "uint8"
        },
        {
          "internalType": "uint256",
          "name": "accountSize",
          "type": "uint256"
        },
        {
          "internalType": "uint256",
          "name": "accountEntryValue",
          "type": "uint256"
        },
        {
          "internalType": "uint256",
          "name": "amount",
          "type": "uint256"
        },
        {
          "internalType": "uint256",
          "name": "accountEntrySloss",
          "type": "uint256"
        }
      ],
      "name": "queryPNL",
      "outputs": [
        {
          "internalType": "int256",
          "name": "",
          "type": "int256"
        }
      ],
      "stateMutability": "view",
      "type": "function"
    },
    {
      "inputs": [
        {
          "internalType": "enum Types.Side",
          "name": "side",
          "type": "uint8"
        },
        {
          "internalType": "uint256",
          "name": "amount",
          "type": "uint256"
        }
      ],
      "name": "closePositionValue",
      "outputs": [
        {
          "internalType": "uint256",
          "name": "closeValue",
          "type": "uint256"
        }
      ],
      "stateMutability": "view",
      "type": "function"
    },
    {
      "inputs": [
        {
          "internalType": "uint256",
          "name": "amount",
          "type": "uint256"
        }
      ],
      "name": "querySellBaseToken",
      "outputs": [
        {
          "internalType": "uint256",
          "name": "receiveQuote",
          "type": "uint256"
        }
      ],
      "stateMutability": "view",
      "type": "function"
    },
    {
      "inputs": [
        {
          "internalType": "uint256",
          "name": "amount",
          "type": "uint256"
        }
      ],
      "name": "queryBuyBaseToken",
      "outputs": [
        {
          "internalType": "uint256",
          "name": "payQuote",
          "type": "uint256"
        }
      ],
      "stateMutability": "view",
      "type": "function"
    },
    {
      "inputs": [
        {
          "internalType": "uint256",
          "name": "sellBaseAmount",
          "type": "uint256"
        }
      ],
      "name": "_querySellBaseToken",
      "outputs": [
        {
          "internalType": "uint256",
          "name": "receiveQuote",
          "type": "uint256"
        },
        {
          "internalType": "uint256",
          "name": "lpFeeQuote",
          "type": "uint256"
        },
        {
          "internalType": "uint256",
          "name": "mtFeeQuote",
          "type": "uint256"
        },
        {
          "internalType": "uint256",
          "name": "baseTarget",
          "type": "uint256"
        },
        {
          "internalType": "uint256",
          "name": "baseBalance",
          "type": "uint256"
        },
        {
          "internalType": "uint256",
          "name": "quoteTarget",
          "type": "uint256"
        },
        {
          "internalType": "uint256",
          "name": "quoteBalance",
          "type": "uint256"
        },
        {
          "internalType": "enum Types.Side",
          "name": "newSide",
          "type": "uint8"
        }
      ],
      "stateMutability": "view",
      "type": "function"
    },
    {
      "inputs": [
        {
          "internalType": "uint256",
          "name": "buyBaseAmount",
          "type": "uint256"
        }
      ],
      "name": "_queryBuyBaseToken",
      "outputs": [
        {
          "internalType": "uint256",
          "name": "payQuote",
          "type": "uint256"
        },
        {
          "internalType": "uint256",
          "name": "lpFeeQuote",
          "type": "uint256"
        },
        {
          "internalType": "uint256",
          "name": "mtFeeQuote",
          "type": "uint256"
        },
        {
          "internalType": "uint256",
          "name": "baseTarget",
          "type": "uint256"
        },
        {
          "internalType": "uint256",
          "name": "baseBalance",
          "type": "uint256"
        },
        {
          "internalType": "uint256",
          "name": "quoteTarget",
          "type": "uint256"
        },
        {
          "internalType": "uint256",
          "name": "quoteBalance",
          "type": "uint256"
        },
        {
          "internalType": "enum Types.Side",
          "name": "newSide",
          "type": "uint8"
        }
      ],
      "stateMutability": "view",
      "type": "function"
    }
  ],
  "bytecode": "0x608060405234801561001057600080fd5b50612441806100206000396000f3fe608060405234801561001057600080fd5b50600436106100a95760003560e01c8063b709a7fd11610071578063b709a7fd14610137578063ee27c6891461014a578063f09a401614610152578063f0d8a75914610167578063ffa642251461017a578063ffa960b414610193576100a9565b806318c0bbe4146100ae57806343a73976146100d75780634b0301a5146100fe578063a2801e1614610111578063b69437cd14610124575b600080fd5b6100c16100bc366004612194565b6101a6565b6040516100ce91906121c4565b60405180910390f35b6100ea6100e5366004612194565b6101bf565b6040516100ce9897969594939291906123ae565b6100c161010c366004612126565b61078a565b6100c161011f366004612194565b6107d7565b6100c1610132366004612151565b6107e2565b6100c1610145366004612151565b610900565b6100c1610988565b610165610160366004612058565b610c76565b005b6100ea610175366004612194565b610ce3565b610182611190565b6040516100ce959493929190612377565b6101826101a1366004612151565b6115fe565b60006101b1826101bf565b509598975050505050505050565b6000806000806000806000806101d3611190565b506001546040805163796da7af60e01b81529051959a5093985091965094506000926001600160a01b039091169163796da7af916004808301926020929190829003018186803b15801561022657600080fd5b505afa15801561023a573d6000803e3d6000fd5b505050506040513d601f19601f8201168201806040525081019061025e91906121ac565b90506000600160009054906101000a90046001600160a01b03166001600160a01b031663ec2fd46d6040518163ffffffff1660e01b815260040160206040518083038186803b1580156102b057600080fd5b505afa1580156102c4573d6000803e3d6000fd5b505050506040513d601f19601f820116820180604052508101906102e891906121ac565b9050600080600060019054906101000a90046001600160a01b03166001600160a01b03166317be952e6040518163ffffffff1660e01b815260040160206040518083038186803b15801561033b57600080fd5b505afa15801561034f573d6000803e3d6000fd5b505050506040513d601f19601f82011682018060405250810190610373919061210a565b600281111561037e57fe5b141561039e5761039083838e8b61164a565b9a50600193508b90506105a6565b6001600060019054906101000a90046001600160a01b03166001600160a01b03166317be952e6040518163ffffffff1660e01b815260040160206040518083038186803b1580156103ee57600080fd5b505afa158015610402573d6000803e3d6000fd5b505050506040513d601f19601f82011682018060405250810190610426919061210a565b600281111561043157fe5b14156104e75761044483838e8a8c611696565b9a50600193506104e08c600060019054906101000a90046001600160a01b03166001600160a01b0316632b32812a6040518163ffffffff1660e01b815260040160206040518083038186803b15801561049c57600080fd5b505afa1580156104b0573d6000803e3d6000fd5b505050506040513d601f19601f820116820180604052508101906104d491906121ac565b9063ffffffff6116e316565b90506105a6565b6002600060019054906101000a90046001600160a01b03166001600160a01b03166317be952e6040518163ffffffff1660e01b815260040160206040518083038186803b15801561053757600080fd5b505afa15801561054b573d6000803e3d6000fd5b505050506040513d601f19601f8201168201806040525081019061056f919061210a565b600281111561057a57fe5b14156105a65761059e8c83856105968b8d63ffffffff61170f16565b8c8b8b611737565b919c50945090505b6106358b600160009054906101000a90046001600160a01b03166001600160a01b031663ab44a7a36040518163ffffffff1660e01b815260040160206040518083038186803b1580156105f857600080fd5b505afa15801561060c573d6000803e3d6000fd5b505050506040513d601f19601f8201168201806040525081019061063091906121ac565b61182b565b99506106898b600160009054906101000a90046001600160a01b03166001600160a01b031663c0ffa1786040518163ffffffff1660e01b815260040160206040518083038186803b1580156105f857600080fd5b9850600084600281111561069957fe5b141561070e576106fe6106f88b6104d48e600060019054906101000a90046001600160a01b03166001600160a01b0316637c9b8e896040518163ffffffff1660e01b815260040160206040518083038186803b15801561049c57600080fd5b84611855565b50929a509098509650945061077c565b610770846107688c6104d48f600060019054906101000a90046001600160a01b03166001600160a01b0316637c9b8e896040518163ffffffff1660e01b815260040160206040518083038186803b15801561049c57600080fd5b85848661187b565b50929a50909850965094505b505050919395975091939597565b6000600283600281111561079a57fe5b14156107b0576107a9826107d7565b90506107d1565b60018360028111156107be57fe5b14156107cd576107a9826101a6565b5060005b92915050565b60006101b182610ce3565b6000846107f1575060006108f7565b60008086851415610806575084905082610827565b61081486610630878a611928565b915061082484610630878a611928565b90505b60006108d3600060019054906101000a90046001600160a01b03166001600160a01b031663c43893516040518163ffffffff1660e01b815260040160606040518083038186803b15801561087a57600080fd5b505afa15801561088e573d6000803e3d6000fd5b505050506040513d601f19601f820116820180604052508101906108b2919061208c565b8a60028111156108be57fe5b600381106108c857fe5b60200201518761182b565b905060006108e18a8861078a565b90506108f08a85838686610900565b9450505050505b95945050505050565b60008061092461090f85611946565b61091885611946565b9063ffffffff61197316565b90506000600288600281111561093657fe5b146109555761095061094787611946565b61091889611946565b61096a565b61096a61096188611946565b61091888611946565b905061097c818363ffffffff61197316565b98975050505050505050565b6000806000806000610998611190565b5093509350935093506000600160009054906101000a90046001600160a01b03166001600160a01b031663ec2fd46d6040518163ffffffff1660e01b815260040160206040518083038186803b1580156109f157600080fd5b505afa158015610a05573d6000803e3d6000fd5b505050506040513d601f19601f82011682018060405250810190610a2991906121ac565b90506002600060019054906101000a90046001600160a01b03166001600160a01b03166317be952e6040518163ffffffff1660e01b815260040160206040518083038186803b158015610a7b57600080fd5b505afa158015610a8f573d6000803e3d6000fd5b505050506040513d601f19601f82011682018060405250810190610ab3919061210a565b6002811115610abe57fe5b1415610bb4576000610aef610ae984610add878063ffffffff6119b916565b9063ffffffff6119f316565b84611928565b9050610b16610afe838361182b565b6104d4670de0b6b3a76400008563ffffffff61170f16565b9050610ba7600160009054906101000a90046001600160a01b03166001600160a01b031663796da7af6040518163ffffffff1660e01b815260040160206040518083038186803b158015610b6957600080fd5b505afa158015610b7d573d6000803e3d6000fd5b505050506040513d601f19601f82011682018060405250810190610ba191906121ac565b82611928565b9650505050505050610c73565b6000610bd3610bcd86610add898063ffffffff6119b916565b86611928565b9050610be2610afe838361182b565b9050610ba7600160009054906101000a90046001600160a01b03166001600160a01b031663796da7af6040518163ffffffff1660e01b815260040160206040518083038186803b158015610c3557600080fd5b505afa158015610c49573d6000803e3d6000fd5b505050506040513d601f19601f82011682018060405250810190610c6d91906121ac565b8261182b565b90565b60005460ff1615610ca25760405162461bcd60e51b8152600401610c99906122ff565b60405180910390fd5b60008054600160ff199091168117610100600160a81b0319166101006001600160a01b03958616021790915580546001600160a01b03191691909216179055565b600080600080600080600080610cf7611190565b506001546040805163796da7af60e01b81529051959a5093985091965094506000926001600160a01b039091169163796da7af916004808301926020929190829003018186803b158015610d4a57600080fd5b505afa158015610d5e573d6000803e3d6000fd5b505050506040513d601f19601f82011682018060405250810190610d8291906121ac565b90506000600160009054906101000a90046001600160a01b03166001600160a01b031663ec2fd46d6040518163ffffffff1660e01b815260040160206040518083038186803b158015610dd457600080fd5b505afa158015610de8573d6000803e3d6000fd5b505050506040513d601f19601f82011682018060405250810190610e0c91906121ac565b9050600080600060019054906101000a90046001600160a01b03166001600160a01b03166317be952e6040518163ffffffff1660e01b815260040160206040518083038186803b158015610e5f57600080fd5b505afa158015610e73573d6000803e3d6000fd5b505050506040513d601f19601f82011682018060405250810190610e97919061210a565b6002811115610ea257fe5b1415610ec257610eb483838e89611a1d565b9a50600293508b9050610fdd565b6001600060019054906101000a90046001600160a01b03166001600160a01b03166317be952e6040518163ffffffff1660e01b815260040160206040518083038186803b158015610f1257600080fd5b505afa158015610f26573d6000803e3d6000fd5b505050506040513d601f19601f82011682018060405250810190610f4a919061210a565b6002811115610f5557fe5b1415610f7557610f698c83858b8b8b611a49565b919c5094509050610fdd565b610f8283838e888a611b67565b9a5060029350610fda8c600060019054906101000a90046001600160a01b03166001600160a01b0316632b32812a6040518163ffffffff1660e01b815260040160206040518083038186803b15801561049c57600080fd5b90505b61102f8b600160009054906101000a90046001600160a01b03166001600160a01b031663ab44a7a36040518163ffffffff1660e01b815260040160206040518083038186803b1580156105f857600080fd5b99506110838b600160009054906101000a90046001600160a01b03166001600160a01b031663c0ffa1786040518163ffffffff1660e01b815260040160206040518083038186803b1580156105f857600080fd5b9850600084600281111561109357fe5b1415611136576106fe6106f88b6104d48e600060019054906101000a90046001600160a01b03166001600160a01b0316637c9b8e896040518163ffffffff1660e01b815260040160206040518083038186803b1580156110f257600080fd5b505afa158015611106573d6000803e3d6000fd5b505050506040513d601f19601f8201168201806040525081019061112a91906121ac565b9063ffffffff61170f16565b610770846107688c6104d48f600060019054906101000a90046001600160a01b03166001600160a01b0316637c9b8e896040518163ffffffff1660e01b815260040160206040518083038186803b1580156110f257600080fd5b60008080808080600060019054906101000a90046001600160a01b03166001600160a01b031663d6b412986040518163ffffffff1660e01b815260040160206040518083038186803b1580156111e557600080fd5b505afa1580156111f9573d6000803e3d6000fd5b505050506040513d601f19601f8201168201806040525081019061121d919061210a565b600281111561122857fe5b141561135157611342600060019054906101000a90046001600160a01b03166001600160a01b0316637c9b8e896040518163ffffffff1660e01b815260040160206040518083038186803b15801561127f57600080fd5b505afa158015611293573d6000803e3d6000fd5b505050506040513d601f19601f820116820180604052508101906112b791906121ac565b600160009054906101000a90046001600160a01b03166001600160a01b031663796da7af6040518163ffffffff1660e01b815260040160206040518083038186803b15801561130557600080fd5b505afa158015611319573d6000803e3d6000fd5b505050506040513d601f19601f8201168201806040525081019061133d91906121ac565b611855565b945094509450945094506115f7565b611342600060019054906101000a90046001600160a01b03166001600160a01b031663d6b412986040518163ffffffff1660e01b815260040160206040518083038186803b1580156113a257600080fd5b505afa1580156113b6573d6000803e3d6000fd5b505050506040513d601f19601f820116820180604052508101906113da919061210a565b600060019054906101000a90046001600160a01b03166001600160a01b0316637c9b8e896040518163ffffffff1660e01b815260040160206040518083038186803b15801561142857600080fd5b505afa15801561143c573d6000803e3d6000fd5b505050506040513d601f19601f8201168201806040525081019061146091906121ac565b600160009054906101000a90046001600160a01b03166001600160a01b031663796da7af6040518163ffffffff1660e01b815260040160206040518083038186803b1580156114ae57600080fd5b505afa1580156114c2573d6000803e3d6000fd5b505050506040513d601f19601f820116820180604052508101906114e691906121ac565b600060019054906101000a90046001600160a01b03166001600160a01b0316632b32812a6040518163ffffffff1660e01b815260040160206040518083038186803b15801561153457600080fd5b505afa158015611548573d6000803e3d6000fd5b505050506040513d601f19601f8201168201806040525081019061156c91906121ac565b600160009054906101000a90046001600160a01b03166001600160a01b031663ec2fd46d6040518163ffffffff1660e01b815260040160206040518083038186803b1580156115ba57600080fd5b505afa1580156115ce573d6000803e3d6000fd5b505050506040513d601f19601f820116820180604052508101906115f291906121ac565b61187b565b9091929394565b600080808080808a600281111561161157fe5b1415611630576116218989611855565b9450945094509450945061163d565b6116218a8a8a8a8a61187b565b9550955095509550959050565b600081831061166b5760405162461bcd60e51b8152600401610c9990612261565b600061167d838563ffffffff61170f16565b905061168c8686858685611b93565b9695505050505050565b60008284106116b75760405162461bcd60e51b8152600401610c9990612261565b60006116c9848663ffffffff61170f16565b90506116d88787858785611b93565b979650505050505050565b6000828201838110156117085760405162461bcd60e51b8152600401610c9990612298565b9392505050565b6000828211156117315760405162461bcd60e51b8152600401610c999061223e565b50900390565b6000806000868a10156117b057611751888a8c8789611ba2565b9250600291506117a98a600060019054906101000a90046001600160a01b03166001600160a01b0316632b32812a6040518163ffffffff1660e01b815260040160206040518083038186803b1580156110f257600080fd5b905061181e565b868a14156117d4576117c5888a898789611ba2565b9250600091506000905061181e565b60006117f1898b6117eb8e8c63ffffffff61170f16565b8a61164a565b9050611804816104d48b8d8c8a8c611ba2565b93506001925061181a8b8963ffffffff61170f16565b9150505b9750975097945050505050565b6000670de0b6b3a7640000611846848463ffffffff6119b916565b8161184d57fe5b049392505050565b6000806000806000806118688888611928565b9889989750879650600095509350505050565b600080808080808060018c600281111561189157fe5b14156118ce576118a38b8b8b8b611bce565b9092509050816118b9818b63ffffffff61170f16565b828d600196509650965096509650505061163d565b60028c60028111156118dc57fe5b1415611919576118ee8b8b8b8b611cf8565b909250905081611904818b63ffffffff6116e316565b828d600296509650965096509650505061163d565b50509550955095509550959050565b600061170882610add85670de0b6b3a764000063ffffffff6119b916565b60006001600160ff1b0382111561196f5760405162461bcd60e51b8152600401610c999061232a565b5090565b60008183038183128015906119885750838113155b8061199d575060008312801561199d57508381135b6117085760405162461bcd60e51b8152600401610c99906122bb565b6000826119c8575060006107d1565b828202828482816119d557fe5b04146117085760405162461bcd60e51b8152600401610c9990612354565b6000808211611a145760405162461bcd60e51b8152600401610c9990612216565b81838161184d57fe5b600080611a378384611a2f898861182b565b600089611d8d565b905061168c838263ffffffff61170f16565b6000808080611a5e878763ffffffff61170f16565b9050808a1015611af257611a75888a8c898b611efe565b935060019250611acd8a600060019054906101000a90046001600160a01b03166001600160a01b0316632b32812a6040518163ffffffff1660e01b815260040160206040518083038186803b1580156110f257600080fd5b91506000611ade898b848a8c611efe565b905080851115611aec578094505b50611b5a565b808a1415611b1657611b07888a83898b611efe565b93506000925060009150611b5a565b611b41611b34898b611b2e8e8663ffffffff61170f16565b89611a1d565b6104d48a8c858b8d611efe565b935060029250611b578a8263ffffffff61170f16565b91505b5096509650969350505050565b600080611b818385611b798a8961182b565b60008a611d8d565b90506116d8848263ffffffff61170f16565b600061168c8484848989611f20565b600080611bbc8385611bb48a89611f95565b60018a611d8d565b90506116d8818563ffffffff61170f16565b60008080611c0f611bee670de0b6b3a7640000600263ffffffff6119b916565b610630611bfa87611fbf565b670de0b6b3a76400009063ffffffff6116e316565b90506000611c1d8883611ff6565b9050808510611c3e5760405162461bcd60e51b8152600401610c99906121cd565b6000611c4a878961182b565b90506000611c8b611c6e611c5e848a61182b565b6104d48d8663ffffffff61170f16565b611c7f84600463ffffffff6119b916565b9063ffffffff6119b916565b90506000611ca38261112a8d8063ffffffff6119b916565b90506000611cb082611fbf565b9050611cdb611cc58d8363ffffffff6116e316565b611cd68d600263ffffffff6119b916565b611ff6565b9750611ce7888c61182b565b965050505050505094509492505050565b6000806000611d2c611d1c611d126004611c7f8b8961182b565b611c7f888a61182b565b6104d4898063ffffffff6119b916565b90506000611d3982611fbf565b90506000611d61611d50838b63ffffffff61170f16565b611cd688600263ffffffff6119b916565b9050611d73898263ffffffff6116e316565b9350611d7f8489611ff6565b945050505094509492505050565b600080611da286610add89611c7f878c61182b565b90506000611dc7611dc1670de0b6b3a76400008663ffffffff61170f16565b8861182b565b905060018515611de857611de1828863ffffffff6116e316565b9150611dfb565b611df8838863ffffffff6116e316565b92505b828210611e1d57611e12828463ffffffff61170f16565b915060019050611e34565b611e2d838363ffffffff61170f16565b9150600090505b6000611e64611e566004611c7f670de0b6b3a76400008a63ffffffff61170f16565b6106308c611c7f8a8f61182b565b9050611e82611e7d826104d4868063ffffffff6119b916565b611fbf565b90506000611ea36002611c7f670de0b6b3a76400008a63ffffffff61170f16565b905060008315611ec457611ebd858463ffffffff6116e316565b9050611ed7565b611ed4838663ffffffff61170f16565b90505b8815611ef457611ee78183611928565b96505050505050506108f7565b611ee78183611ff6565b600080611f11848663ffffffff6116e316565b90506116d88787858488611b93565b600080611f3784610630888863ffffffff61170f16565b90506000611f58611f5288610add8b8063ffffffff6119b916565b87611ff6565b90506000611f66858361182b565b9050611f8883610630836104d4670de0b6b3a76400008a63ffffffff61170f16565b9998505050505050505050565b6000611708670de0b6b3a7640000611fb3858563ffffffff6119b916565b9063ffffffff61201416565b80600160028204015b81811015611ff057809150600281828581611fdf57fe5b040181611fe857fe5b049050611fc8565b50919050565b600061170882611fb385670de0b6b3a764000063ffffffff6119b916565b60008061202184846119f3565b905082810284038015612039575060010190506107d1565b5090506107d1565b80356001600160a01b03811681146107d157600080fd5b6000806040838503121561206a578182fd5b6120748484612041565b91506120838460208501612041565b90509250929050565b60006060828403121561209d578081fd5b82601f8301126120ab578081fd5b6040516060810181811067ffffffffffffffff821117156120ca578283fd5b6040528083606081018610156120de578384fd5b835b60038110156120ff5781518352602092830192909101906001016120e0565b509195945050505050565b60006020828403121561211b578081fd5b8151611708816123fb565b60008060408385031215612138578182fd5b8235612143816123fb565b946020939093013593505050565b600080600080600060a08688031215612168578081fd5b8535612173816123fb565b97602087013597506040870135966060810135965060800135945092505050565b6000602082840312156121a5578081fd5b5035919050565b6000602082840312156121bd578081fd5b5051919050565b90815260200190565b60208082526029908201527f556e61626c6520746f206c6f6e6720756e6465722063757272656e7420706f6f6040820152686c207374617475732160b81b606082015260800190565b6020808252600e908201526d2224ab24a224a723afa2a92927a960911b604082015260600190565b60208082526009908201526829aaa12fa2a92927a960b91b604082015260600190565b6020808252601c908201527f444f444f5f424153455f42414c414e43455f4e4f545f454e4f55474800000000604082015260600190565b60208082526009908201526820a2222fa2a92927a960b91b604082015260600190565b60208082526024908201527f5369676e6564536166654d6174683a207375627472616374696f6e206f766572604082015263666c6f7760e01b606082015260800190565b60208082526011908201527014149250d157d253925512505312569151607a1b604082015260600190565b60208082526010908201526f75696e74323536206f766572666c6f7760801b604082015260600190565b60208082526009908201526826aaa62fa2a92927a960b91b604082015260600190565b600060a0820190508682528560208301528460408301528360608301526003831061239e57fe5b8260808301529695505050505050565b6000610100820190508982528860208301528760408301528660608301528560808301528460a08301528360c0830152600383106123e857fe5b8260e08301529998505050505050505050565b6003811061240857600080fd5b5056fea26469706673582212207309ebcab029cd9fadbaae4c01f25525f8d70feea8df313b1c2d0515376d4f0d64736f6c63430006090033",
  "immutableReferences": {},
  "source": "/*\n\n    Copyright 2020 DODO ZOO.\n    SPDX-License-Identifier: Apache-2.0\n\n*/\n\npragma solidity 0.6.9;\npragma experimental ABIEncoderV2;\n\nimport {SafeMath} from \"../lib/SafeMath.sol\";\nimport {SignedSafeMath} from \"../lib/SignedSafeMath.sol\";\nimport {DecimalMath} from \"../lib/DecimalMath.sol\";\nimport {PMMCurve} from \"../lib/PMMCurve.sol\";\nimport {Types} from \"../lib/Types.sol\";\nimport {Account} from \"./Account.sol\";\nimport {Admin} from \"../admin/Admin.sol\";\n\n\n/**\n * @title Pricing\n * @author Parapara\n *\n * @notice Parapara Pricing model\n */\ncontract Pricing {\n    using SafeMath for uint256;\n    using SignedSafeMath for int256;\n\n    bool internal _INITIALIZED_;\n    Account internal ACCOUNT;\n    Admin internal ADMIN;\n\n    function init(\n        address accountAddress,\n        address adminAddress\n    ) external {\n        require(!_INITIALIZED_, \"PRICE_INITIALIZED\");\n        _INITIALIZED_ = true;\n        ACCOUNT = Account(accountAddress);\n        ADMIN = Admin(adminAddress);\n    }\n\n    // ============ Helper functions ============\n    function _expectedTargetHelperWhenBiased(\n        Types.Side side,\n        uint256 quoteBalance,\n        uint256 price,\n        uint256 deltaB,\n        uint256 _K_\n    ) internal view returns (\n        uint256, uint256, uint256, uint256, Types.Side\n    ) {\n        uint256 baseTarget;\n        uint256 quoteTarget;\n        if (side == Types.Side.SHORT) {\n            (baseTarget, quoteTarget) = PMMCurve._RegressionTargetWhenShort(quoteBalance, price, deltaB, _K_);\n            return (baseTarget, baseTarget.sub(deltaB), quoteTarget, quoteBalance, Types.Side.SHORT);\n        }\n        else if (side == Types.Side.LONG) {\n            (baseTarget, quoteTarget) = PMMCurve._RegressionTargetWhenLong(quoteBalance, price, deltaB, _K_);\n            return (baseTarget, baseTarget.add(deltaB), quoteTarget, quoteBalance, Types.Side.LONG);\n        }\n    }\n\n    function _expectedTargetHelperWhenBalanced(uint256 quoteBalance, uint256 price) internal view returns (\n        uint256, uint256, uint256, uint256, Types.Side\n    ) {\n        uint256 baseTarget = DecimalMath.divFloor(quoteBalance, price);\n        return (baseTarget, baseTarget, quoteBalance, quoteBalance, Types.Side.FLAT);\n    }\n\n\n    function getExpectedTarget()\n        public\n        view\n        returns (uint256, uint256, uint256, uint256, Types.Side)\n    {\n        if (ACCOUNT.getPoolMarginSide() ==  Types.Side.FLAT) {\n            return _expectedTargetHelperWhenBalanced(ACCOUNT._QUOTE_BALANCE_(), ADMIN.getOraclePrice());\n        }\n        else {\n            return _expectedTargetHelperWhenBiased(ACCOUNT.getPoolMarginSide(), ACCOUNT._QUOTE_BALANCE_(), ADMIN.getOraclePrice(), ACCOUNT.getPoolMarginSize(), ADMIN._K_());\n        }\n    }\n\n    function getExpectedTargetExt(\n        Types.Side side,\n        uint256 quoteBalance,\n        uint256 price,\n        uint256 deltaB,\n        uint256 _K_\n    )\n        public\n        view\n        returns (uint256, uint256, uint256, uint256, Types.Side) {\n        if (side ==  Types.Side.FLAT) {\n            return _expectedTargetHelperWhenBalanced(quoteBalance, price);\n        }\n        else {\n            return _expectedTargetHelperWhenBiased(\n                side,\n                quoteBalance,\n                price,\n                deltaB,\n                _K_);\n        }\n    }\n\n\n\n    function getMidPrice() public view returns (uint256 midPrice) {\n        (uint256 baseTarget, uint256 baseBalance, uint256 quoteTarget, uint256 quoteBalance, ) = getExpectedTarget();\n        uint256 K = ADMIN._K_();\n        if (ACCOUNT._R_STATUS_() == Types.Side.LONG) {\n            uint256 R =\n                DecimalMath.divFloor(\n                    quoteTarget.mul(quoteTarget).div(quoteBalance),\n                    quoteBalance\n                );\n            R = DecimalMath.ONE.sub(K).add(DecimalMath.mul(K, R));\n            return DecimalMath.divFloor(ADMIN.getOraclePrice(), R);\n        } else {\n            uint256 R =\n                DecimalMath.divFloor(\n                    baseTarget.mul(baseTarget).div(baseBalance),\n                    baseBalance\n                );\n            R = DecimalMath.ONE.sub(K).add(DecimalMath.mul(K, R));\n            return DecimalMath.mul(ADMIN.getOraclePrice(), R);\n        }\n    }\n\n    // ============ Query Functions ============\n    function queryPNLwiValue(\n        Types.Side accountSide,\n        uint256 entryValue,\n        uint256 closeValue,\n        uint256 entrySloss,\n        uint256 clossSloss\n    ) public view returns (int256) {\n        int256 sloss = clossSloss.toint256().sub(entrySloss.toint256());\n        int256 PNL =\n            accountSide == Types.Side.LONG\n                ? closeValue.toint256().sub(entryValue.toint256())\n                : entryValue.toint256().sub(closeValue.toint256());\n        return PNL.sub(sloss);\n    }\n\n    // calculate pnl given the amount of position to be closed\n    // equates to Unrealized PNL when amount == accountSize\n    function queryPNL(\n        Types.Side accountSide,\n        uint256 accountSize,\n        uint256 accountEntryValue,\n        uint256 amount,\n        uint256 accountEntrySloss\n    ) public view returns (int256) {\n        if (accountSize == 0) {\n            return 0;\n        }\n        uint256 entryValue;\n        uint256 entrySloss;\n        if (amount == accountSize) {\n            entryValue = accountEntryValue;\n            entrySloss = accountEntrySloss;\n        } else {\n            entryValue =\n                DecimalMath.mul(accountEntryValue, DecimalMath.divFloor(amount, accountSize));\n            entrySloss =\n                DecimalMath.mul(accountEntrySloss, DecimalMath.divFloor(amount, accountSize));\n        }\n        uint256 closeSloss = DecimalMath.mul(ACCOUNT.getSloss()[uint256(accountSide)], amount);\n        uint256 closeValue = closePositionValue(accountSide, amount);\n        return queryPNLwiValue(accountSide, entryValue, closeValue, entrySloss, closeSloss);\n    }\n\n\n\n\n\n    //\n    function closePositionValue(\n        Types.Side side,\n        uint256 amount\n    ) public view returns (uint256 closeValue) {\n        if (side == Types.Side.LONG) {\n            closeValue = querySellBaseToken(amount);\n        }\n        else if (side == Types.Side.SHORT) {\n            closeValue = queryBuyBaseToken(amount);\n        }\n        else {\n            closeValue = 0;\n        }\n    }\n\n\n    function querySellBaseToken(uint256 amount)\n        public\n        view\n        returns (uint256 receiveQuote)\n    {\n        (receiveQuote, , , , , , ,) = _querySellBaseToken(amount);\n        return receiveQuote;\n    }\n\n    function queryBuyBaseToken(uint256 amount)\n        public\n        view\n        returns (uint256 payQuote)\n    {\n        (payQuote, , , , , , , ) = _queryBuyBaseToken(amount);\n        return payQuote;\n    }\n\n\n    function _sellHelperRAboveOne(\n        uint256 sellBaseAmount,\n        uint256 K,\n        uint256 price,\n        uint256 baseTarget,\n        uint256 baseBalance,\n        uint256 quoteTarget\n    ) internal view returns (\n        uint256 receiveQuote,\n        Types.Side newSide,\n        uint256 newDeltaB)\n    {\n        uint256 backToOnePayBase = baseTarget.sub(baseBalance);\n\n        // case 2: R>1\n        // complex case, R status depends on trading amount\n        if (sellBaseAmount < backToOnePayBase) {\n            // case 2.1: R status do not change\n            receiveQuote = PMMCurve._RAboveSellBaseToken(\n                price,\n                K,\n                sellBaseAmount,\n                baseBalance,\n                baseTarget\n            );\n            newSide = Types.Side.SHORT;\n            newDeltaB = ACCOUNT.getPoolMarginSize().sub(sellBaseAmount);\n            uint256 backToOneReceiveQuote = PMMCurve._RAboveSellBaseToken(price, K, backToOnePayBase, baseBalance, baseTarget);\n            if (receiveQuote > backToOneReceiveQuote) {\n                // [Important corner case!] may enter this branch when some precision problem happens. And consequently contribute to negative spare quote amount\n                // to make sure spare quote>=0, mannually set receiveQuote=backToOneReceiveQuote\n                receiveQuote = backToOneReceiveQuote;\n            }\n        }\n        else if (sellBaseAmount == backToOnePayBase) {\n            // case 2.2: R status changes to ONE\n            receiveQuote = PMMCurve._RAboveSellBaseToken(price, K, backToOnePayBase, baseBalance, baseTarget);\n            newSide = Types.Side.FLAT;\n            newDeltaB = 0;\n        }\n        else {\n            // case 2.3: R status changes to BELOW_ONE\n            {\n                receiveQuote = PMMCurve._RAboveSellBaseToken(price, K, backToOnePayBase, baseBalance, baseTarget).add(\n                    PMMCurve._ROneSellBaseToken(\n                        price,\n                        K,\n                        sellBaseAmount.sub(backToOnePayBase),\n                        quoteTarget\n                    )\n                );\n            }\n            newSide = Types.Side.LONG;\n            newDeltaB = sellBaseAmount.sub(backToOnePayBase); // newDeltaB = sellBaseAmount.sub(_POOL_MARGIN_ACCOUNT.SIZE)?\n        }\n    }\n\n    function _querySellBaseToken(uint256 sellBaseAmount)\n        public\n        view\n        returns (\n            uint256 receiveQuote,\n            uint256 lpFeeQuote,\n            uint256 mtFeeQuote,\n            uint256 baseTarget,\n            uint256 baseBalance,\n            uint256 quoteTarget,\n            uint256 quoteBalance,\n            Types.Side newSide\n        )\n    {\n        (baseTarget, baseBalance, quoteTarget, quoteBalance,) = getExpectedTarget();\n        uint256 price = ADMIN.getOraclePrice();\n        uint256 K = ADMIN._K_();\n        uint256 newDeltaB;\n\n        if (ACCOUNT._R_STATUS_() == Types.Side.FLAT) {\n            // case 1: R=1\n            // R falls below one\n            receiveQuote = PMMCurve._ROneSellBaseToken(price, K, sellBaseAmount, quoteTarget);\n            newSide = Types.Side.LONG;\n            newDeltaB = sellBaseAmount;\n        }\n        else if (ACCOUNT._R_STATUS_() == Types.Side.SHORT) {\n            (receiveQuote, newSide, newDeltaB) = _sellHelperRAboveOne(sellBaseAmount, K, price, baseTarget, baseBalance, quoteTarget);\n        } else {\n            // ACCOUNT._R_STATUS_() == Types.Side.LONG\n            // case 3: R<1\n            receiveQuote = PMMCurve._RBelowSellBaseToken(\n                price,\n                K,\n                sellBaseAmount,\n                quoteBalance,\n                quoteTarget\n            );\n            newSide = Types.Side.LONG;\n            newDeltaB = ACCOUNT.getPoolMarginSize().add(sellBaseAmount);\n        }\n\n        // count fees\n        lpFeeQuote = DecimalMath.mul(receiveQuote, ADMIN._LP_FEE_RATE_());\n        mtFeeQuote = DecimalMath.mul(receiveQuote, ADMIN._MT_FEE_RATE_());\n\n        if (newSide == Types.Side.FLAT) {\n            (baseTarget, baseBalance, quoteTarget, quoteBalance,) = _expectedTargetHelperWhenBalanced(ACCOUNT._QUOTE_BALANCE_().sub(receiveQuote).add(lpFeeQuote), price);\n        } else {\n            (baseTarget, baseBalance, quoteTarget, quoteBalance,) = _expectedTargetHelperWhenBiased(newSide, ACCOUNT._QUOTE_BALANCE_().sub(receiveQuote).add(lpFeeQuote), price, newDeltaB, K);\n        }\n\n        return (\n            receiveQuote,\n            lpFeeQuote,\n            mtFeeQuote,\n            baseTarget,\n            baseBalance,\n            quoteTarget,\n            quoteBalance,\n            newSide\n        );\n    }\n\n    // to avoid stack too deep\n    function _buyHelperRBelowOne(\n        uint256 buyBaseAmount,\n        uint256 K,\n        uint256 price,\n        uint256 backToOneReceiveBase,\n        uint256 baseTarget,\n        uint256 quoteTarget,\n        uint256 quoteBalance\n    ) internal view returns (\n        uint256 payQuote,\n        Types.Side newSide,\n        uint256 newDeltaB\n    ) {\n        // case 3: R<1\n        // complex case, R status may change\n        if (buyBaseAmount < backToOneReceiveBase) {\n            // case 3.1: R status do not change\n            // no need to check payQuote because spare base token must be greater than zero\n            payQuote = PMMCurve._RBelowBuyBaseToken(\n                price,\n                K,\n                buyBaseAmount,\n                quoteBalance,\n                quoteTarget\n            );\n\n            newSide = Types.Side.LONG;\n            newDeltaB = ACCOUNT.getPoolMarginSize().sub(buyBaseAmount);\n\n        } else if (buyBaseAmount == backToOneReceiveBase) {\n            // case 3.2: R status changes to ONE\n            payQuote = PMMCurve._RBelowBuyBaseToken(price, K, backToOneReceiveBase, quoteBalance, quoteTarget);\n            newSide = Types.Side.FLAT;\n            newDeltaB = 0;\n        } else {\n            // case 3.3: R status changes to ABOVE_ONE\n            uint256 addQuote = PMMCurve._ROneBuyBaseToken(\n                price,\n                K,\n                buyBaseAmount.sub(backToOneReceiveBase),\n                baseTarget);\n            payQuote = PMMCurve._RBelowBuyBaseToken(price, K, backToOneReceiveBase, quoteBalance, quoteTarget).add(addQuote);\n            newSide = Types.Side.SHORT;\n            newDeltaB = buyBaseAmount.sub(backToOneReceiveBase);\n        }\n    }\n\n\n    function _queryBuyBaseToken(uint256 buyBaseAmount)\n        public\n        view\n        returns (\n            uint256 payQuote,\n            uint256 lpFeeQuote,\n            uint256 mtFeeQuote,\n            uint256 baseTarget,\n            uint256 baseBalance,\n            uint256 quoteTarget,\n            uint256 quoteBalance,\n            Types.Side newSide\n        )\n    {\n        (baseTarget, baseBalance, quoteTarget, quoteBalance,) = getExpectedTarget();\n        uint256 price = ADMIN.getOraclePrice();\n        uint256 K = ADMIN._K_();\n        uint256 newDeltaB;\n        {\n            if (ACCOUNT._R_STATUS_() == Types.Side.FLAT) {\n                // case 1: R=1\n                payQuote = PMMCurve._ROneBuyBaseToken(price, K, buyBaseAmount, baseTarget);\n                newSide = Types.Side.SHORT;\n                newDeltaB = buyBaseAmount;\n            } else if (ACCOUNT._R_STATUS_() == Types.Side.SHORT) {\n                // case 2: R>1\n                payQuote = PMMCurve._RAboveBuyBaseToken(\n                    price,\n                    K,\n                    buyBaseAmount,\n                    baseBalance,\n                    baseTarget\n                );\n                newSide = Types.Side.SHORT;\n                newDeltaB = ACCOUNT.getPoolMarginSize().add(buyBaseAmount);\n            } else if (ACCOUNT._R_STATUS_() == Types.Side.LONG) {\n                (payQuote, newSide, newDeltaB) = _buyHelperRBelowOne(buyBaseAmount, K, price, baseBalance.sub(baseTarget), baseTarget, quoteTarget, quoteBalance);\n            }\n        }\n\n        lpFeeQuote = DecimalMath.mul(payQuote, ADMIN._LP_FEE_RATE_());\n        mtFeeQuote = DecimalMath.mul(payQuote, ADMIN._MT_FEE_RATE_());\n\n        if (newSide == Types.Side.FLAT) {\n            (baseTarget, baseBalance, quoteTarget, quoteBalance,) = _expectedTargetHelperWhenBalanced(ACCOUNT._QUOTE_BALANCE_().add(payQuote).add(lpFeeQuote), price);\n        } else {\n            (baseTarget, baseBalance, quoteTarget, quoteBalance,) = _expectedTargetHelperWhenBiased(newSide, ACCOUNT._QUOTE_BALANCE_().add(payQuote).add(lpFeeQuote), price, newDeltaB, K);\n        }\n\n        return (\n            payQuote,\n            lpFeeQuote,\n            mtFeeQuote,\n            baseTarget,\n            baseBalance,\n            quoteTarget,\n            quoteBalance,\n            newSide\n        );\n    }\n\n}\n",
  "sourcePath": "/Users/daniel/Codes/parapara/para_dapp_v6/contracts/perpetual/Pricing.sol",
  "compiler": {
    "name": "solc",
    "version": "0.6.9+commit.3e3065ac.Emscripten.clang"
  },
  "schemaVersion": "3.3.4",
  "updatedAt": "2021-03-28T10:55:46.485Z",
  "devdoc": {
    "author": "Parapara",
    "methods": {},
    "title": "Pricing"
  },
  "userdoc": {
    "methods": {},
    "notice": "Parapara Pricing model"
  }
}