{
  "contractName": "Pricing",
  "abi": [
    {
      "inputs": [
        {
          "internalType": "address",
          "name": "accountAddress",
          "type": "address"
        },
        {
          "internalType": "address",
          "name": "adminAddress",
          "type": "address"
        }
      ],
      "name": "init",
      "outputs": [],
      "stateMutability": "nonpayable",
      "type": "function"
    },
    {
      "inputs": [],
      "name": "getExpectedTarget",
      "outputs": [
        {
          "internalType": "uint256",
          "name": "",
          "type": "uint256"
        },
        {
          "internalType": "uint256",
          "name": "",
          "type": "uint256"
        },
        {
          "internalType": "uint256",
          "name": "",
          "type": "uint256"
        },
        {
          "internalType": "uint256",
          "name": "",
          "type": "uint256"
        },
        {
          "internalType": "enum Types.Side",
          "name": "",
          "type": "uint8"
        }
      ],
      "stateMutability": "view",
      "type": "function"
    },
    {
      "inputs": [
        {
          "internalType": "enum Types.Side",
          "name": "side",
          "type": "uint8"
        },
        {
          "internalType": "uint256",
          "name": "quoteBalance",
          "type": "uint256"
        },
        {
          "internalType": "uint256",
          "name": "price",
          "type": "uint256"
        },
        {
          "internalType": "uint256",
          "name": "deltaB",
          "type": "uint256"
        },
        {
          "internalType": "uint256",
          "name": "_K_",
          "type": "uint256"
        }
      ],
      "name": "getExpectedTargetExt",
      "outputs": [
        {
          "internalType": "uint256",
          "name": "",
          "type": "uint256"
        },
        {
          "internalType": "uint256",
          "name": "",
          "type": "uint256"
        },
        {
          "internalType": "uint256",
          "name": "",
          "type": "uint256"
        },
        {
          "internalType": "uint256",
          "name": "",
          "type": "uint256"
        },
        {
          "internalType": "enum Types.Side",
          "name": "",
          "type": "uint8"
        }
      ],
      "stateMutability": "view",
      "type": "function"
    },
    {
      "inputs": [],
      "name": "getMidPrice",
      "outputs": [
        {
          "internalType": "uint256",
          "name": "midPrice",
          "type": "uint256"
        }
      ],
      "stateMutability": "view",
      "type": "function"
    },
    {
      "inputs": [
        {
          "internalType": "enum Types.Side",
          "name": "accountSide",
          "type": "uint8"
        },
        {
          "internalType": "uint256",
          "name": "entryValue",
          "type": "uint256"
        },
        {
          "internalType": "uint256",
          "name": "closeValue",
          "type": "uint256"
        }
      ],
      "name": "queryPNLwiValue",
      "outputs": [
        {
          "internalType": "int256",
          "name": "",
          "type": "int256"
        }
      ],
      "stateMutability": "view",
      "type": "function"
    },
    {
      "inputs": [
        {
          "internalType": "enum Types.Side",
          "name": "accountSide",
          "type": "uint8"
        },
        {
          "internalType": "uint256",
          "name": "accountSize",
          "type": "uint256"
        },
        {
          "internalType": "uint256",
          "name": "accountEntryValue",
          "type": "uint256"
        },
        {
          "internalType": "uint256",
          "name": "amount",
          "type": "uint256"
        }
      ],
      "name": "queryPNL",
      "outputs": [
        {
          "internalType": "int256",
          "name": "",
          "type": "int256"
        }
      ],
      "stateMutability": "view",
      "type": "function"
    },
    {
      "inputs": [
        {
          "internalType": "enum Types.Side",
          "name": "side",
          "type": "uint8"
        },
        {
          "internalType": "uint256",
          "name": "amount",
          "type": "uint256"
        }
      ],
      "name": "closePositionValue",
      "outputs": [
        {
          "internalType": "uint256",
          "name": "closeValue",
          "type": "uint256"
        }
      ],
      "stateMutability": "view",
      "type": "function"
    },
    {
      "inputs": [
        {
          "internalType": "uint256",
          "name": "amount",
          "type": "uint256"
        }
      ],
      "name": "querySellBaseToken",
      "outputs": [
        {
          "internalType": "uint256",
          "name": "receiveQuote",
          "type": "uint256"
        }
      ],
      "stateMutability": "view",
      "type": "function"
    },
    {
      "inputs": [
        {
          "internalType": "uint256",
          "name": "amount",
          "type": "uint256"
        }
      ],
      "name": "queryBuyBaseToken",
      "outputs": [
        {
          "internalType": "uint256",
          "name": "payQuote",
          "type": "uint256"
        }
      ],
      "stateMutability": "view",
      "type": "function"
    },
    {
      "inputs": [
        {
          "internalType": "uint256",
          "name": "sellBaseAmount",
          "type": "uint256"
        }
      ],
      "name": "_querySellBaseToken",
      "outputs": [
        {
          "internalType": "uint256",
          "name": "receiveQuote",
          "type": "uint256"
        },
        {
          "internalType": "uint256",
          "name": "lpFeeQuote",
          "type": "uint256"
        },
        {
          "internalType": "uint256",
          "name": "mtFeeQuote",
          "type": "uint256"
        },
        {
          "internalType": "uint256",
          "name": "baseTarget",
          "type": "uint256"
        },
        {
          "internalType": "uint256",
          "name": "baseBalance",
          "type": "uint256"
        },
        {
          "internalType": "uint256",
          "name": "quoteTarget",
          "type": "uint256"
        },
        {
          "internalType": "uint256",
          "name": "quoteBalance",
          "type": "uint256"
        },
        {
          "internalType": "enum Types.Side",
          "name": "newSide",
          "type": "uint8"
        }
      ],
      "stateMutability": "view",
      "type": "function"
    },
    {
      "inputs": [
        {
          "internalType": "uint256",
          "name": "buyBaseAmount",
          "type": "uint256"
        }
      ],
      "name": "_queryBuyBaseToken",
      "outputs": [
        {
          "internalType": "uint256",
          "name": "payQuote",
          "type": "uint256"
        },
        {
          "internalType": "uint256",
          "name": "lpFeeQuote",
          "type": "uint256"
        },
        {
          "internalType": "uint256",
          "name": "mtFeeQuote",
          "type": "uint256"
        },
        {
          "internalType": "uint256",
          "name": "baseTarget",
          "type": "uint256"
        },
        {
          "internalType": "uint256",
          "name": "baseBalance",
          "type": "uint256"
        },
        {
          "internalType": "uint256",
          "name": "quoteTarget",
          "type": "uint256"
        },
        {
          "internalType": "uint256",
          "name": "quoteBalance",
          "type": "uint256"
        },
        {
          "internalType": "enum Types.Side",
          "name": "newSide",
          "type": "uint8"
        }
      ],
      "stateMutability": "view",
      "type": "function"
    }
  ],
  "bytecode": "0x608060405234801561001057600080fd5b5061233c806100206000396000f3fe608060405234801561001057600080fd5b50600436106100a95760003560e01c8063b543387411610071578063b543387414610137578063ee27c6891461014a578063f09a401614610152578063f0d8a75914610167578063ffa642251461017a578063ffa960b414610193576100a9565b806318c0bbe4146100ae57806343a73976146100d75780634b0301a5146100fe578063a2801e1614610111578063a3ffd1cb14610124575b600080fd5b6100c16100bc36600461208f565b6101a6565b6040516100ce91906120bf565b60405180910390f35b6100ea6100e536600461208f565b6101bf565b6040516100ce9897969594939291906122a9565b6100c161010c366004611fb3565b61078a565b6100c161011f36600461208f565b6107d7565b6100c1610132366004612012565b6107e2565b6100c1610145366004611fde565b610839565b6100c1610893565b610165610160366004611f63565b610b81565b005b6100ea61017536600461208f565b610bee565b61018261109b565b6040516100ce959493929190612272565b6101826101a136600461204c565b611509565b60006101b1826101bf565b509598975050505050505050565b6000806000806000806000806101d361109b565b506001546040805163796da7af60e01b81529051959a5093985091965094506000926001600160a01b039091169163796da7af916004808301926020929190829003018186803b15801561022657600080fd5b505afa15801561023a573d6000803e3d6000fd5b505050506040513d601f19601f8201168201806040525081019061025e91906120a7565b90506000600160009054906101000a90046001600160a01b03166001600160a01b031663ec2fd46d6040518163ffffffff1660e01b815260040160206040518083038186803b1580156102b057600080fd5b505afa1580156102c4573d6000803e3d6000fd5b505050506040513d601f19601f820116820180604052508101906102e891906120a7565b9050600080600060019054906101000a90046001600160a01b03166001600160a01b03166317be952e6040518163ffffffff1660e01b815260040160206040518083038186803b15801561033b57600080fd5b505afa15801561034f573d6000803e3d6000fd5b505050506040513d601f19601f820116820180604052508101906103739190611f97565b600281111561037e57fe5b141561039e5761039083838e8b611555565b9a50600193508b90506105a6565b6001600060019054906101000a90046001600160a01b03166001600160a01b03166317be952e6040518163ffffffff1660e01b815260040160206040518083038186803b1580156103ee57600080fd5b505afa158015610402573d6000803e3d6000fd5b505050506040513d601f19601f820116820180604052508101906104269190611f97565b600281111561043157fe5b14156104e75761044483838e8a8c6115a1565b9a50600193506104e08c600060019054906101000a90046001600160a01b03166001600160a01b0316632b32812a6040518163ffffffff1660e01b815260040160206040518083038186803b15801561049c57600080fd5b505afa1580156104b0573d6000803e3d6000fd5b505050506040513d601f19601f820116820180604052508101906104d491906120a7565b9063ffffffff6115ee16565b90506105a6565b6002600060019054906101000a90046001600160a01b03166001600160a01b03166317be952e6040518163ffffffff1660e01b815260040160206040518083038186803b15801561053757600080fd5b505afa15801561054b573d6000803e3d6000fd5b505050506040513d601f19601f8201168201806040525081019061056f9190611f97565b600281111561057a57fe5b14156105a65761059e8c83856105968b8d63ffffffff61161a16565b8c8b8b611642565b919c50945090505b6106358b600160009054906101000a90046001600160a01b03166001600160a01b031663ab44a7a36040518163ffffffff1660e01b815260040160206040518083038186803b1580156105f857600080fd5b505afa15801561060c573d6000803e3d6000fd5b505050506040513d601f19601f8201168201806040525081019061063091906120a7565b611736565b99506106898b600160009054906101000a90046001600160a01b03166001600160a01b031663c0ffa1786040518163ffffffff1660e01b815260040160206040518083038186803b1580156105f857600080fd5b9850600084600281111561069957fe5b141561070e576106fe6106f88b6104d48e600060019054906101000a90046001600160a01b03166001600160a01b0316637c9b8e896040518163ffffffff1660e01b815260040160206040518083038186803b15801561049c57600080fd5b84611760565b50929a509098509650945061077c565b610770846107688c6104d48f600060019054906101000a90046001600160a01b03166001600160a01b0316637c9b8e896040518163ffffffff1660e01b815260040160206040518083038186803b15801561049c57600080fd5b858486611786565b50929a50909850965094505b505050919395975091939597565b6000600283600281111561079a57fe5b14156107b0576107a9826107d7565b90506107d1565b60018360028111156107be57fe5b14156107cd576107a9826101a6565b5060005b92915050565b60006101b182610bee565b6000836107f157506000610831565b600084831415610802575082610813565b610810846106308588611833565b90505b600061081f878561078a565b905061082c878383610839565b925050505b949350505050565b600080600285600281111561084a57fe5b146108755761087061085b84611851565b61086486611851565b9063ffffffff61187e16565b61088a565b61088a61088185611851565b61086485611851565b95945050505050565b60008060008060006108a361109b565b5093509350935093506000600160009054906101000a90046001600160a01b03166001600160a01b031663ec2fd46d6040518163ffffffff1660e01b815260040160206040518083038186803b1580156108fc57600080fd5b505afa158015610910573d6000803e3d6000fd5b505050506040513d601f19601f8201168201806040525081019061093491906120a7565b90506002600060019054906101000a90046001600160a01b03166001600160a01b03166317be952e6040518163ffffffff1660e01b815260040160206040518083038186803b15801561098657600080fd5b505afa15801561099a573d6000803e3d6000fd5b505050506040513d601f19601f820116820180604052508101906109be9190611f97565b60028111156109c957fe5b1415610abf5760006109fa6109f4846109e8878063ffffffff6118c416565b9063ffffffff6118fe16565b84611833565b9050610a21610a098383611736565b6104d4670de0b6b3a76400008563ffffffff61161a16565b9050610ab2600160009054906101000a90046001600160a01b03166001600160a01b031663796da7af6040518163ffffffff1660e01b815260040160206040518083038186803b158015610a7457600080fd5b505afa158015610a88573d6000803e3d6000fd5b505050506040513d601f19601f82011682018060405250810190610aac91906120a7565b82611833565b9650505050505050610b7e565b6000610ade610ad8866109e8898063ffffffff6118c416565b86611833565b9050610aed610a098383611736565b9050610ab2600160009054906101000a90046001600160a01b03166001600160a01b031663796da7af6040518163ffffffff1660e01b815260040160206040518083038186803b158015610b4057600080fd5b505afa158015610b54573d6000803e3d6000fd5b505050506040513d601f19601f82011682018060405250810190610b7891906120a7565b82611736565b90565b60005460ff1615610bad5760405162461bcd60e51b8152600401610ba4906121fa565b60405180910390fd5b60008054600160ff199091168117610100600160a81b0319166101006001600160a01b03958616021790915580546001600160a01b03191691909216179055565b600080600080600080600080610c0261109b565b506001546040805163796da7af60e01b81529051959a5093985091965094506000926001600160a01b039091169163796da7af916004808301926020929190829003018186803b158015610c5557600080fd5b505afa158015610c69573d6000803e3d6000fd5b505050506040513d601f19601f82011682018060405250810190610c8d91906120a7565b90506000600160009054906101000a90046001600160a01b03166001600160a01b031663ec2fd46d6040518163ffffffff1660e01b815260040160206040518083038186803b158015610cdf57600080fd5b505afa158015610cf3573d6000803e3d6000fd5b505050506040513d601f19601f82011682018060405250810190610d1791906120a7565b9050600080600060019054906101000a90046001600160a01b03166001600160a01b03166317be952e6040518163ffffffff1660e01b815260040160206040518083038186803b158015610d6a57600080fd5b505afa158015610d7e573d6000803e3d6000fd5b505050506040513d601f19601f82011682018060405250810190610da29190611f97565b6002811115610dad57fe5b1415610dcd57610dbf83838e89611928565b9a50600293508b9050610ee8565b6001600060019054906101000a90046001600160a01b03166001600160a01b03166317be952e6040518163ffffffff1660e01b815260040160206040518083038186803b158015610e1d57600080fd5b505afa158015610e31573d6000803e3d6000fd5b505050506040513d601f19601f82011682018060405250810190610e559190611f97565b6002811115610e6057fe5b1415610e8057610e748c83858b8b8b611954565b919c5094509050610ee8565b610e8d83838e888a611a72565b9a5060029350610ee58c600060019054906101000a90046001600160a01b03166001600160a01b0316632b32812a6040518163ffffffff1660e01b815260040160206040518083038186803b15801561049c57600080fd5b90505b610f3a8b600160009054906101000a90046001600160a01b03166001600160a01b031663ab44a7a36040518163ffffffff1660e01b815260040160206040518083038186803b1580156105f857600080fd5b9950610f8e8b600160009054906101000a90046001600160a01b03166001600160a01b031663c0ffa1786040518163ffffffff1660e01b815260040160206040518083038186803b1580156105f857600080fd5b98506000846002811115610f9e57fe5b1415611041576106fe6106f88b6104d48e600060019054906101000a90046001600160a01b03166001600160a01b0316637c9b8e896040518163ffffffff1660e01b815260040160206040518083038186803b158015610ffd57600080fd5b505afa158015611011573d6000803e3d6000fd5b505050506040513d601f19601f8201168201806040525081019061103591906120a7565b9063ffffffff61161a16565b610770846107688c6104d48f600060019054906101000a90046001600160a01b03166001600160a01b0316637c9b8e896040518163ffffffff1660e01b815260040160206040518083038186803b158015610ffd57600080fd5b60008080808080600060019054906101000a90046001600160a01b03166001600160a01b031663d6b412986040518163ffffffff1660e01b815260040160206040518083038186803b1580156110f057600080fd5b505afa158015611104573d6000803e3d6000fd5b505050506040513d601f19601f820116820180604052508101906111289190611f97565b600281111561113357fe5b141561125c5761124d600060019054906101000a90046001600160a01b03166001600160a01b0316637c9b8e896040518163ffffffff1660e01b815260040160206040518083038186803b15801561118a57600080fd5b505afa15801561119e573d6000803e3d6000fd5b505050506040513d601f19601f820116820180604052508101906111c291906120a7565b600160009054906101000a90046001600160a01b03166001600160a01b031663796da7af6040518163ffffffff1660e01b815260040160206040518083038186803b15801561121057600080fd5b505afa158015611224573d6000803e3d6000fd5b505050506040513d601f19601f8201168201806040525081019061124891906120a7565b611760565b94509450945094509450611502565b61124d600060019054906101000a90046001600160a01b03166001600160a01b031663d6b412986040518163ffffffff1660e01b815260040160206040518083038186803b1580156112ad57600080fd5b505afa1580156112c1573d6000803e3d6000fd5b505050506040513d601f19601f820116820180604052508101906112e59190611f97565b600060019054906101000a90046001600160a01b03166001600160a01b0316637c9b8e896040518163ffffffff1660e01b815260040160206040518083038186803b15801561133357600080fd5b505afa158015611347573d6000803e3d6000fd5b505050506040513d601f19601f8201168201806040525081019061136b91906120a7565b600160009054906101000a90046001600160a01b03166001600160a01b031663796da7af6040518163ffffffff1660e01b815260040160206040518083038186803b1580156113b957600080fd5b505afa1580156113cd573d6000803e3d6000fd5b505050506040513d601f19601f820116820180604052508101906113f191906120a7565b600060019054906101000a90046001600160a01b03166001600160a01b0316632b32812a6040518163ffffffff1660e01b815260040160206040518083038186803b15801561143f57600080fd5b505afa158015611453573d6000803e3d6000fd5b505050506040513d601f19601f8201168201806040525081019061147791906120a7565b600160009054906101000a90046001600160a01b03166001600160a01b031663ec2fd46d6040518163ffffffff1660e01b815260040160206040518083038186803b1580156114c557600080fd5b505afa1580156114d9573d6000803e3d6000fd5b505050506040513d601f19601f820116820180604052508101906114fd91906120a7565b611786565b9091929394565b600080808080808a600281111561151c57fe5b141561153b5761152c8989611760565b94509450945094509450611548565b61152c8a8a8a8a8a611786565b9550955095509550959050565b60008183106115765760405162461bcd60e51b8152600401610ba49061215c565b6000611588838563ffffffff61161a16565b90506115978686858685611a9e565b9695505050505050565b60008284106115c25760405162461bcd60e51b8152600401610ba49061215c565b60006115d4848663ffffffff61161a16565b90506115e38787858785611a9e565b979650505050505050565b6000828201838110156116135760405162461bcd60e51b8152600401610ba490612193565b9392505050565b60008282111561163c5760405162461bcd60e51b8152600401610ba490612139565b50900390565b6000806000868a10156116bb5761165c888a8c8789611aad565b9250600291506116b48a600060019054906101000a90046001600160a01b03166001600160a01b0316632b32812a6040518163ffffffff1660e01b815260040160206040518083038186803b158015610ffd57600080fd5b9050611729565b868a14156116df576116d0888a898789611aad565b92506000915060009050611729565b60006116fc898b6116f68e8c63ffffffff61161a16565b8a611555565b905061170f816104d48b8d8c8a8c611aad565b9350600192506117258b8963ffffffff61161a16565b9150505b9750975097945050505050565b6000670de0b6b3a7640000611751848463ffffffff6118c416565b8161175857fe5b049392505050565b6000806000806000806117738888611833565b9889989750879650600095509350505050565b600080808080808060018c600281111561179c57fe5b14156117d9576117ae8b8b8b8b611ad9565b9092509050816117c4818b63ffffffff61161a16565b828d6001965096509650965096505050611548565b60028c60028111156117e757fe5b1415611824576117f98b8b8b8b611c03565b90925090508161180f818b63ffffffff6115ee16565b828d6002965096509650965096505050611548565b50509550955095509550959050565b6000611613826109e885670de0b6b3a764000063ffffffff6118c416565b60006001600160ff1b0382111561187a5760405162461bcd60e51b8152600401610ba490612225565b5090565b60008183038183128015906118935750838113155b806118a857506000831280156118a857508381135b6116135760405162461bcd60e51b8152600401610ba4906121b6565b6000826118d3575060006107d1565b828202828482816118e057fe5b04146116135760405162461bcd60e51b8152600401610ba49061224f565b600080821161191f5760405162461bcd60e51b8152600401610ba490612111565b81838161175857fe5b600080611942838461193a8988611736565b600089611c98565b9050611597838263ffffffff61161a16565b6000808080611969878763ffffffff61161a16565b9050808a10156119fd57611980888a8c898b611e09565b9350600192506119d88a600060019054906101000a90046001600160a01b03166001600160a01b0316632b32812a6040518163ffffffff1660e01b815260040160206040518083038186803b158015610ffd57600080fd5b915060006119e9898b848a8c611e09565b9050808511156119f7578094505b50611a65565b808a1415611a2157611a12888a83898b611e09565b93506000925060009150611a65565b611a4c611a3f898b611a398e8663ffffffff61161a16565b89611928565b6104d48a8c858b8d611e09565b935060029250611a628a8263ffffffff61161a16565b91505b5096509650969350505050565b600080611a8c8385611a848a89611736565b60008a611c98565b90506115e3848263ffffffff61161a16565b60006115978484848989611e2b565b600080611ac78385611abf8a89611ea0565b60018a611c98565b90506115e3818563ffffffff61161a16565b60008080611b1a611af9670de0b6b3a7640000600263ffffffff6118c416565b610630611b0587611eca565b670de0b6b3a76400009063ffffffff6115ee16565b90506000611b288883611f01565b9050808510611b495760405162461bcd60e51b8152600401610ba4906120c8565b6000611b558789611736565b90506000611b96611b79611b69848a611736565b6104d48d8663ffffffff61161a16565b611b8a84600463ffffffff6118c416565b9063ffffffff6118c416565b90506000611bae826110358d8063ffffffff6118c416565b90506000611bbb82611eca565b9050611be6611bd08d8363ffffffff6115ee16565b611be18d600263ffffffff6118c416565b611f01565b9750611bf2888c611736565b965050505050505094509492505050565b6000806000611c37611c27611c1d6004611b8a8b89611736565b611b8a888a611736565b6104d4898063ffffffff6118c416565b90506000611c4482611eca565b90506000611c6c611c5b838b63ffffffff61161a16565b611be188600263ffffffff6118c416565b9050611c7e898263ffffffff6115ee16565b9350611c8a8489611f01565b945050505094509492505050565b600080611cad866109e889611b8a878c611736565b90506000611cd2611ccc670de0b6b3a76400008663ffffffff61161a16565b88611736565b905060018515611cf357611cec828863ffffffff6115ee16565b9150611d06565b611d03838863ffffffff6115ee16565b92505b828210611d2857611d1d828463ffffffff61161a16565b915060019050611d3f565b611d38838363ffffffff61161a16565b9150600090505b6000611d6f611d616004611b8a670de0b6b3a76400008a63ffffffff61161a16565b6106308c611b8a8a8f611736565b9050611d8d611d88826104d4868063ffffffff6118c416565b611eca565b90506000611dae6002611b8a670de0b6b3a76400008a63ffffffff61161a16565b905060008315611dcf57611dc8858463ffffffff6115ee16565b9050611de2565b611ddf838663ffffffff61161a16565b90505b8815611dff57611df28183611833565b965050505050505061088a565b611df28183611f01565b600080611e1c848663ffffffff6115ee16565b90506115e38787858488611a9e565b600080611e4284610630888863ffffffff61161a16565b90506000611e63611e5d886109e88b8063ffffffff6118c416565b87611f01565b90506000611e718583611736565b9050611e9383610630836104d4670de0b6b3a76400008a63ffffffff61161a16565b9998505050505050505050565b6000611613670de0b6b3a7640000611ebe858563ffffffff6118c416565b9063ffffffff611f1f16565b80600160028204015b81811015611efb57809150600281828581611eea57fe5b040181611ef357fe5b049050611ed3565b50919050565b600061161382611ebe85670de0b6b3a764000063ffffffff6118c416565b600080611f2c84846118fe565b905082810284038015611f44575060010190506107d1565b5090506107d1565b80356001600160a01b03811681146107d157600080fd5b60008060408385031215611f75578182fd5b611f7f8484611f4c565b9150611f8e8460208501611f4c565b90509250929050565b600060208284031215611fa8578081fd5b8151611613816122f6565b60008060408385031215611fc5578182fd5b8235611fd0816122f6565b946020939093013593505050565b600080600060608486031215611ff2578081fd5b8335611ffd816122f6565b95602085013595506040909401359392505050565b60008060008060808587031215612027578081fd5b8435612032816122f6565b966020860135965060408601359560600135945092505050565b600080600080600060a08688031215612063578081fd5b853561206e816122f6565b97602087013597506040870135966060810135965060800135945092505050565b6000602082840312156120a0578081fd5b5035919050565b6000602082840312156120b8578081fd5b5051919050565b90815260200190565b60208082526029908201527f556e61626c6520746f206c6f6e6720756e6465722063757272656e7420706f6f6040820152686c207374617475732160b81b606082015260800190565b6020808252600e908201526d2224ab24a224a723afa2a92927a960911b604082015260600190565b60208082526009908201526829aaa12fa2a92927a960b91b604082015260600190565b6020808252601c908201527f444f444f5f424153455f42414c414e43455f4e4f545f454e4f55474800000000604082015260600190565b60208082526009908201526820a2222fa2a92927a960b91b604082015260600190565b60208082526024908201527f5369676e6564536166654d6174683a207375627472616374696f6e206f766572604082015263666c6f7760e01b606082015260800190565b60208082526011908201527014149250d157d253925512505312569151607a1b604082015260600190565b60208082526010908201526f75696e74323536206f766572666c6f7760801b604082015260600190565b60208082526009908201526826aaa62fa2a92927a960b91b604082015260600190565b600060a0820190508682528560208301528460408301528360608301526003831061229957fe5b8260808301529695505050505050565b6000610100820190508982528860208301528760408301528660608301528560808301528460a08301528360c0830152600383106122e357fe5b8260e08301529998505050505050505050565b6003811061230357600080fd5b5056fea2646970667358221220685ba80e9dc5e602f4b5c6b67b2d15647ef1c87db9df90545f91d0fb3e68352664736f6c63430006090033",
  "immutableReferences": {},
  "source": "/*\n\n    Copyright 2020 DODO ZOO.\n    SPDX-License-Identifier: Apache-2.0\n\n*/\n\npragma solidity 0.6.9;\npragma experimental ABIEncoderV2;\n\nimport {SafeMath} from \"../lib/SafeMath.sol\";\nimport {SignedSafeMath} from \"../lib/SignedSafeMath.sol\";\nimport {DecimalMath} from \"../lib/DecimalMath.sol\";\nimport {PMMCurve} from \"../lib/PMMCurve.sol\";\nimport {Types} from \"../lib/Types.sol\";\nimport {Account} from \"./Account.sol\";\nimport {Admin} from \"../admin/Admin.sol\";\n\n\n/**\n * @title Pricing\n * @author Parapara\n *\n * @notice Parapara Pricing model\n */\ncontract Pricing {\n    using SafeMath for uint256;\n    using SignedSafeMath for int256;\n\n    bool internal _INITIALIZED_;\n    Account internal ACCOUNT;\n    Admin internal ADMIN;\n\n    function init(\n        address accountAddress,\n        address adminAddress\n    ) external {\n        require(!_INITIALIZED_, \"PRICE_INITIALIZED\");\n        _INITIALIZED_ = true;\n        ACCOUNT = Account(accountAddress);\n        ADMIN = Admin(adminAddress);\n    }\n\n    // ============ Helper functions ============\n    function _expectedTargetHelperWhenBiased(\n        Types.Side side,\n        uint256 quoteBalance,\n        uint256 price,\n        uint256 deltaB,\n        uint256 _K_\n    ) internal view returns (\n        uint256, uint256, uint256, uint256, Types.Side\n    ) {\n        uint256 baseTarget;\n        uint256 quoteTarget;\n        if (side == Types.Side.SHORT) {\n            (baseTarget, quoteTarget) = PMMCurve._RegressionTargetWhenShort(quoteBalance, price, deltaB, _K_);\n            return (baseTarget, baseTarget.sub(deltaB), quoteTarget, quoteBalance, Types.Side.SHORT);\n        }\n        else if (side == Types.Side.LONG) {\n            (baseTarget, quoteTarget) = PMMCurve._RegressionTargetWhenLong(quoteBalance, price, deltaB, _K_);\n            return (baseTarget, baseTarget.add(deltaB), quoteTarget, quoteBalance, Types.Side.LONG);\n        }\n    }\n\n    function _expectedTargetHelperWhenBalanced(uint256 quoteBalance, uint256 price) internal view returns (\n        uint256, uint256, uint256, uint256, Types.Side\n    ) {\n        uint256 baseTarget = DecimalMath.divFloor(quoteBalance, price);\n        return (baseTarget, baseTarget, quoteBalance, quoteBalance, Types.Side.FLAT);\n    }\n\n\n    function getExpectedTarget()\n        public\n        view\n        returns (uint256, uint256, uint256, uint256, Types.Side)\n    {\n        if (ACCOUNT.getPoolMarginSide() ==  Types.Side.FLAT) {\n            return _expectedTargetHelperWhenBalanced(ACCOUNT._QUOTE_BALANCE_(), ADMIN.getOraclePrice());\n        }\n        else {\n            return _expectedTargetHelperWhenBiased(ACCOUNT.getPoolMarginSide(), ACCOUNT._QUOTE_BALANCE_(), ADMIN.getOraclePrice(), ACCOUNT.getPoolMarginSize(), ADMIN._K_());\n        }\n    }\n\n    function getExpectedTargetExt(\n        Types.Side side,\n        uint256 quoteBalance,\n        uint256 price,\n        uint256 deltaB,\n        uint256 _K_\n    )\n        public\n        view\n        returns (uint256, uint256, uint256, uint256, Types.Side) {\n        if (side ==  Types.Side.FLAT) {\n            return _expectedTargetHelperWhenBalanced(quoteBalance, price);\n        }\n        else {\n            return _expectedTargetHelperWhenBiased(\n                side,\n                quoteBalance,\n                price,\n                deltaB,\n                _K_);\n        }\n    }\n\n\n\n    function getMidPrice() public view returns (uint256 midPrice) {\n        (uint256 baseTarget, uint256 baseBalance, uint256 quoteTarget, uint256 quoteBalance, ) = getExpectedTarget();\n        uint256 K = ADMIN._K_();\n        if (ACCOUNT._R_STATUS_() == Types.Side.LONG) {\n            uint256 R =\n                DecimalMath.divFloor(\n                    quoteTarget.mul(quoteTarget).div(quoteBalance),\n                    quoteBalance\n                );\n            R = DecimalMath.ONE.sub(K).add(DecimalMath.mul(K, R));\n            return DecimalMath.divFloor(ADMIN.getOraclePrice(), R);\n        } else {\n            uint256 R =\n                DecimalMath.divFloor(\n                    baseTarget.mul(baseTarget).div(baseBalance),\n                    baseBalance\n                );\n            R = DecimalMath.ONE.sub(K).add(DecimalMath.mul(K, R));\n            return DecimalMath.mul(ADMIN.getOraclePrice(), R);\n        }\n    }\n\n    // ============ Query Functions ============\n    function queryPNLwiValue(\n        Types.Side accountSide,\n        uint256 entryValue,\n        uint256 closeValue\n    ) public view returns (int256) {\n        int256 PNL =\n            accountSide == Types.Side.LONG\n                ? closeValue.toint256().sub(entryValue.toint256())\n                : entryValue.toint256().sub(closeValue.toint256());\n        return PNL;\n    }\n\n    // calculate pnl given the amount of position to be closed\n    // equates to Unrealized PNL when amount == accountSize\n    function queryPNL(\n        Types.Side accountSide,\n        uint256 accountSize,\n        uint256 accountEntryValue,\n        uint256 amount\n    ) public view returns (int256) {\n        if (accountSize == 0) {\n            return 0;\n        }\n        uint256 entryValue;\n        if (amount == accountSize) {\n            entryValue = accountEntryValue;\n        } else {\n            entryValue =\n                DecimalMath.mul(accountEntryValue, DecimalMath.divFloor(amount, accountSize));\n        }\n        uint256 closeValue = closePositionValue(accountSide, amount);\n        return queryPNLwiValue(accountSide, entryValue, closeValue);\n    }\n\n    //\n    function closePositionValue(\n        Types.Side side,\n        uint256 amount\n    ) public view returns (uint256 closeValue) {\n        if (side == Types.Side.LONG) {\n            closeValue = querySellBaseToken(amount);\n        }\n        else if (side == Types.Side.SHORT) {\n            closeValue = queryBuyBaseToken(amount);\n        }\n        else {\n            closeValue = 0;\n        }\n    }\n\n\n    function querySellBaseToken(uint256 amount)\n        public\n        view\n        returns (uint256 receiveQuote)\n    {\n        (receiveQuote, , , , , , ,) = _querySellBaseToken(amount);\n        return receiveQuote;\n    }\n\n    function queryBuyBaseToken(uint256 amount)\n        public\n        view\n        returns (uint256 payQuote)\n    {\n        (payQuote, , , , , , , ) = _queryBuyBaseToken(amount);\n        return payQuote;\n    }\n\n\n    function _sellHelperRAboveOne(\n        uint256 sellBaseAmount,\n        uint256 K,\n        uint256 price,\n        uint256 baseTarget,\n        uint256 baseBalance,\n        uint256 quoteTarget\n    ) internal view returns (\n        uint256 receiveQuote,\n        Types.Side newSide,\n        uint256 newDeltaB)\n    {\n        uint256 backToOnePayBase = baseTarget.sub(baseBalance);\n\n        // case 2: R>1\n        // complex case, R status depends on trading amount\n        if (sellBaseAmount < backToOnePayBase) {\n            // case 2.1: R status do not change\n            receiveQuote = PMMCurve._RAboveSellBaseToken(\n                price,\n                K,\n                sellBaseAmount,\n                baseBalance,\n                baseTarget\n            );\n            newSide = Types.Side.SHORT;\n            newDeltaB = ACCOUNT.getPoolMarginSize().sub(sellBaseAmount);\n            uint256 backToOneReceiveQuote = PMMCurve._RAboveSellBaseToken(price, K, backToOnePayBase, baseBalance, baseTarget);\n            if (receiveQuote > backToOneReceiveQuote) {\n                // [Important corner case!] may enter this branch when some precision problem happens. And consequently contribute to negative spare quote amount\n                // to make sure spare quote>=0, mannually set receiveQuote=backToOneReceiveQuote\n                receiveQuote = backToOneReceiveQuote;\n            }\n        }\n        else if (sellBaseAmount == backToOnePayBase) {\n            // case 2.2: R status changes to ONE\n            receiveQuote = PMMCurve._RAboveSellBaseToken(price, K, backToOnePayBase, baseBalance, baseTarget);\n            newSide = Types.Side.FLAT;\n            newDeltaB = 0;\n        }\n        else {\n            // case 2.3: R status changes to BELOW_ONE\n            {\n                receiveQuote = PMMCurve._RAboveSellBaseToken(price, K, backToOnePayBase, baseBalance, baseTarget).add(\n                    PMMCurve._ROneSellBaseToken(\n                        price,\n                        K,\n                        sellBaseAmount.sub(backToOnePayBase),\n                        quoteTarget\n                    )\n                );\n            }\n            newSide = Types.Side.LONG;\n            newDeltaB = sellBaseAmount.sub(backToOnePayBase); // newDeltaB = sellBaseAmount.sub(_POOL_MARGIN_ACCOUNT.SIZE)?\n        }\n    }\n\n    function _querySellBaseToken(uint256 sellBaseAmount)\n        public\n        view\n        returns (\n            uint256 receiveQuote,\n            uint256 lpFeeQuote,\n            uint256 mtFeeQuote,\n            uint256 baseTarget,\n            uint256 baseBalance,\n            uint256 quoteTarget,\n            uint256 quoteBalance,\n            Types.Side newSide\n        )\n    {\n        (baseTarget, baseBalance, quoteTarget, quoteBalance,) = getExpectedTarget();\n        uint256 price = ADMIN.getOraclePrice();\n        uint256 K = ADMIN._K_();\n        uint256 newDeltaB;\n\n        if (ACCOUNT._R_STATUS_() == Types.Side.FLAT) {\n            // case 1: R=1\n            // R falls below one\n            receiveQuote = PMMCurve._ROneSellBaseToken(price, K, sellBaseAmount, quoteTarget);\n            newSide = Types.Side.LONG;\n            newDeltaB = sellBaseAmount;\n        }\n        else if (ACCOUNT._R_STATUS_() == Types.Side.SHORT) {\n            (receiveQuote, newSide, newDeltaB) = _sellHelperRAboveOne(sellBaseAmount, K, price, baseTarget, baseBalance, quoteTarget);\n        } else {\n            // ACCOUNT._R_STATUS_() == Types.Side.LONG\n            // case 3: R<1\n            receiveQuote = PMMCurve._RBelowSellBaseToken(\n                price,\n                K,\n                sellBaseAmount,\n                quoteBalance,\n                quoteTarget\n            );\n            newSide = Types.Side.LONG;\n            newDeltaB = ACCOUNT.getPoolMarginSize().add(sellBaseAmount);\n        }\n\n        // count fees\n        lpFeeQuote = DecimalMath.mul(receiveQuote, ADMIN._LP_FEE_RATE_());\n        mtFeeQuote = DecimalMath.mul(receiveQuote, ADMIN._MT_FEE_RATE_());\n\n        if (newSide == Types.Side.FLAT) {\n            (baseTarget, baseBalance, quoteTarget, quoteBalance,) = _expectedTargetHelperWhenBalanced(ACCOUNT._QUOTE_BALANCE_().sub(receiveQuote).add(lpFeeQuote), price);\n        } else {\n            (baseTarget, baseBalance, quoteTarget, quoteBalance,) = _expectedTargetHelperWhenBiased(newSide, ACCOUNT._QUOTE_BALANCE_().sub(receiveQuote).add(lpFeeQuote), price, newDeltaB, K);\n        }\n\n        return (\n            receiveQuote,\n            lpFeeQuote,\n            mtFeeQuote,\n            baseTarget,\n            baseBalance,\n            quoteTarget,\n            quoteBalance,\n            newSide\n        );\n    }\n\n    // to avoid stack too deep\n    function _buyHelperRBelowOne(\n        uint256 buyBaseAmount,\n        uint256 K,\n        uint256 price,\n        uint256 backToOneReceiveBase,\n        uint256 baseTarget,\n        uint256 quoteTarget,\n        uint256 quoteBalance\n    ) internal view returns (\n        uint256 payQuote,\n        Types.Side newSide,\n        uint256 newDeltaB\n    ) {\n        // case 3: R<1\n        // complex case, R status may change\n        if (buyBaseAmount < backToOneReceiveBase) {\n            // case 3.1: R status do not change\n            // no need to check payQuote because spare base token must be greater than zero\n            payQuote = PMMCurve._RBelowBuyBaseToken(\n                price,\n                K,\n                buyBaseAmount,\n                quoteBalance,\n                quoteTarget\n            );\n\n            newSide = Types.Side.LONG;\n            newDeltaB = ACCOUNT.getPoolMarginSize().sub(buyBaseAmount);\n\n        } else if (buyBaseAmount == backToOneReceiveBase) {\n            // case 3.2: R status changes to ONE\n            payQuote = PMMCurve._RBelowBuyBaseToken(price, K, backToOneReceiveBase, quoteBalance, quoteTarget);\n            newSide = Types.Side.FLAT;\n            newDeltaB = 0;\n        } else {\n            // case 3.3: R status changes to ABOVE_ONE\n            uint256 addQuote = PMMCurve._ROneBuyBaseToken(\n                price,\n                K,\n                buyBaseAmount.sub(backToOneReceiveBase),\n                baseTarget);\n            payQuote = PMMCurve._RBelowBuyBaseToken(price, K, backToOneReceiveBase, quoteBalance, quoteTarget).add(addQuote);\n            newSide = Types.Side.SHORT;\n            newDeltaB = buyBaseAmount.sub(backToOneReceiveBase);\n        }\n    }\n\n\n    function _queryBuyBaseToken(uint256 buyBaseAmount)\n        public\n        view\n        returns (\n            uint256 payQuote,\n            uint256 lpFeeQuote,\n            uint256 mtFeeQuote,\n            uint256 baseTarget,\n            uint256 baseBalance,\n            uint256 quoteTarget,\n            uint256 quoteBalance,\n            Types.Side newSide\n        )\n    {\n        (baseTarget, baseBalance, quoteTarget, quoteBalance,) = getExpectedTarget();\n        uint256 price = ADMIN.getOraclePrice();\n        uint256 K = ADMIN._K_();\n        uint256 newDeltaB;\n        {\n            if (ACCOUNT._R_STATUS_() == Types.Side.FLAT) {\n                // case 1: R=1\n                payQuote = PMMCurve._ROneBuyBaseToken(price, K, buyBaseAmount, baseTarget);\n                newSide = Types.Side.SHORT;\n                newDeltaB = buyBaseAmount;\n            } else if (ACCOUNT._R_STATUS_() == Types.Side.SHORT) {\n                // case 2: R>1\n                payQuote = PMMCurve._RAboveBuyBaseToken(\n                    price,\n                    K,\n                    buyBaseAmount,\n                    baseBalance,\n                    baseTarget\n                );\n                newSide = Types.Side.SHORT;\n                newDeltaB = ACCOUNT.getPoolMarginSize().add(buyBaseAmount);\n            } else if (ACCOUNT._R_STATUS_() == Types.Side.LONG) {\n                (payQuote, newSide, newDeltaB) = _buyHelperRBelowOne(buyBaseAmount, K, price, baseBalance.sub(baseTarget), baseTarget, quoteTarget, quoteBalance);\n            }\n        }\n\n        lpFeeQuote = DecimalMath.mul(payQuote, ADMIN._LP_FEE_RATE_());\n        mtFeeQuote = DecimalMath.mul(payQuote, ADMIN._MT_FEE_RATE_());\n\n        if (newSide == Types.Side.FLAT) {\n            (baseTarget, baseBalance, quoteTarget, quoteBalance,) = _expectedTargetHelperWhenBalanced(ACCOUNT._QUOTE_BALANCE_().add(payQuote).add(lpFeeQuote), price);\n        } else {\n            (baseTarget, baseBalance, quoteTarget, quoteBalance,) = _expectedTargetHelperWhenBiased(newSide, ACCOUNT._QUOTE_BALANCE_().add(payQuote).add(lpFeeQuote), price, newDeltaB, K);\n        }\n\n        return (\n            payQuote,\n            lpFeeQuote,\n            mtFeeQuote,\n            baseTarget,\n            baseBalance,\n            quoteTarget,\n            quoteBalance,\n            newSide\n        );\n    }\n\n}\n",
  "sourcePath": "/Users/daniel/Codes/parapara/para_dapp_v6/contracts/perpetual/Pricing.sol",
  "compiler": {
    "name": "solc",
    "version": "0.6.9+commit.3e3065ac.Emscripten.clang"
  },
  "schemaVersion": "3.3.4",
  "updatedAt": "2021-03-26T06:46:20.178Z",
  "devdoc": {
    "author": "Parapara",
    "methods": {},
    "title": "Pricing"
  },
  "userdoc": {
    "methods": {},
    "notice": "Parapara Pricing model"
  }
}