{
  "contractName": "Settlement",
  "abi": [
    {
      "anonymous": false,
      "inputs": [
        {
          "indexed": true,
          "internalType": "address",
          "name": "user",
          "type": "address"
        },
        {
          "indexed": false,
          "internalType": "uint256",
          "name": "baseTokenAmount",
          "type": "uint256"
        },
        {
          "indexed": false,
          "internalType": "uint256",
          "name": "quoteTokenAmount",
          "type": "uint256"
        }
      ],
      "name": "ClaimAssets",
      "type": "event"
    },
    {
      "anonymous": false,
      "inputs": [
        {
          "indexed": false,
          "internalType": "uint256",
          "name": "amount",
          "type": "uint256"
        }
      ],
      "name": "Donate",
      "type": "event"
    },
    {
      "anonymous": false,
      "inputs": [
        {
          "indexed": true,
          "internalType": "address",
          "name": "previousOwner",
          "type": "address"
        },
        {
          "indexed": true,
          "internalType": "address",
          "name": "newOwner",
          "type": "address"
        }
      ],
      "name": "OwnershipTransferPrepared",
      "type": "event"
    },
    {
      "anonymous": false,
      "inputs": [
        {
          "indexed": true,
          "internalType": "address",
          "name": "previousOwner",
          "type": "address"
        },
        {
          "indexed": true,
          "internalType": "address",
          "name": "newOwner",
          "type": "address"
        }
      ],
      "name": "OwnershipTransferred",
      "type": "event"
    },
    {
      "inputs": [],
      "name": "ADMIN",
      "outputs": [
        {
          "internalType": "contract Admin",
          "name": "",
          "type": "address"
        }
      ],
      "stateMutability": "view",
      "type": "function"
    },
    {
      "inputs": [],
      "name": "PRICING",
      "outputs": [
        {
          "internalType": "contract Pricing",
          "name": "",
          "type": "address"
        }
      ],
      "stateMutability": "view",
      "type": "function"
    },
    {
      "inputs": [],
      "name": "_BASE_BALANCE_",
      "outputs": [
        {
          "internalType": "uint256",
          "name": "",
          "type": "uint256"
        }
      ],
      "stateMutability": "view",
      "type": "function"
    },
    {
      "inputs": [],
      "name": "_COLLATERAL_POOL_TOKEN_",
      "outputs": [
        {
          "internalType": "address",
          "name": "",
          "type": "address"
        }
      ],
      "stateMutability": "view",
      "type": "function"
    },
    {
      "inputs": [
        {
          "internalType": "address",
          "name": "",
          "type": "address"
        }
      ],
      "name": "_MARGIN_ACCOUNT_",
      "outputs": [
        {
          "internalType": "enum Types.Side",
          "name": "SIDE",
          "type": "uint8"
        },
        {
          "internalType": "uint256",
          "name": "SIZE",
          "type": "uint256"
        },
        {
          "internalType": "uint256",
          "name": "ENTRY_VALUE",
          "type": "uint256"
        },
        {
          "internalType": "int256",
          "name": "CASH_BALANCE",
          "type": "int256"
        }
      ],
      "stateMutability": "view",
      "type": "function"
    },
    {
      "inputs": [],
      "name": "_NEW_OWNER_",
      "outputs": [
        {
          "internalType": "address",
          "name": "",
          "type": "address"
        }
      ],
      "stateMutability": "view",
      "type": "function"
    },
    {
      "inputs": [],
      "name": "_OWNER_",
      "outputs": [
        {
          "internalType": "address",
          "name": "",
          "type": "address"
        }
      ],
      "stateMutability": "view",
      "type": "function"
    },
    {
      "inputs": [],
      "name": "_POOL_INSURANCE_BALANCE_",
      "outputs": [
        {
          "internalType": "uint256",
          "name": "",
          "type": "uint256"
        }
      ],
      "stateMutability": "view",
      "type": "function"
    },
    {
      "inputs": [],
      "name": "_POOL_MARGIN_ACCOUNT_",
      "outputs": [
        {
          "internalType": "enum Types.Side",
          "name": "SIDE",
          "type": "uint8"
        },
        {
          "internalType": "uint256",
          "name": "SIZE",
          "type": "uint256"
        },
        {
          "internalType": "uint256",
          "name": "ENTRY_VALUE",
          "type": "uint256"
        },
        {
          "internalType": "int256",
          "name": "CASH_BALANCE",
          "type": "int256"
        }
      ],
      "stateMutability": "view",
      "type": "function"
    },
    {
      "inputs": [],
      "name": "_QUOTE_BALANCE_",
      "outputs": [
        {
          "internalType": "uint256",
          "name": "",
          "type": "uint256"
        }
      ],
      "stateMutability": "view",
      "type": "function"
    },
    {
      "inputs": [],
      "name": "_R_STATUS_",
      "outputs": [
        {
          "internalType": "enum Types.Side",
          "name": "",
          "type": "uint8"
        }
      ],
      "stateMutability": "view",
      "type": "function"
    },
    {
      "inputs": [],
      "name": "_TARGET_BASE_TOKEN_AMOUNT_",
      "outputs": [
        {
          "internalType": "uint256",
          "name": "",
          "type": "uint256"
        }
      ],
      "stateMutability": "view",
      "type": "function"
    },
    {
      "inputs": [],
      "name": "_TARGET_QUOTE_TOKEN_AMOUNT_",
      "outputs": [
        {
          "internalType": "uint256",
          "name": "",
          "type": "uint256"
        }
      ],
      "stateMutability": "view",
      "type": "function"
    },
    {
      "inputs": [],
      "name": "claimOwnership",
      "outputs": [],
      "stateMutability": "nonpayable",
      "type": "function"
    },
    {
      "inputs": [],
      "name": "getPoolMarginCashBalance",
      "outputs": [
        {
          "internalType": "int256",
          "name": "",
          "type": "int256"
        }
      ],
      "stateMutability": "view",
      "type": "function"
    },
    {
      "inputs": [],
      "name": "getPoolMarginEntryValue",
      "outputs": [
        {
          "internalType": "uint256",
          "name": "",
          "type": "uint256"
        }
      ],
      "stateMutability": "view",
      "type": "function"
    },
    {
      "inputs": [],
      "name": "getPoolMarginSide",
      "outputs": [
        {
          "internalType": "enum Types.Side",
          "name": "",
          "type": "uint8"
        }
      ],
      "stateMutability": "view",
      "type": "function"
    },
    {
      "inputs": [],
      "name": "getPoolMarginSize",
      "outputs": [
        {
          "internalType": "uint256",
          "name": "",
          "type": "uint256"
        }
      ],
      "stateMutability": "view",
      "type": "function"
    },
    {
      "inputs": [
        {
          "internalType": "address",
          "name": "newOwner",
          "type": "address"
        }
      ],
      "name": "transferOwnership",
      "outputs": [],
      "stateMutability": "nonpayable",
      "type": "function"
    },
    {
      "inputs": [
        {
          "internalType": "address",
          "name": "from",
          "type": "address"
        },
        {
          "internalType": "uint256",
          "name": "amount",
          "type": "uint256"
        }
      ],
      "name": "collateralTraderTransferIn",
      "outputs": [],
      "stateMutability": "nonpayable",
      "type": "function"
    },
    {
      "inputs": [
        {
          "internalType": "address",
          "name": "to",
          "type": "address"
        },
        {
          "internalType": "uint256",
          "name": "amount",
          "type": "uint256"
        }
      ],
      "name": "collateralTraderTransferOut",
      "outputs": [],
      "stateMutability": "nonpayable",
      "type": "function"
    }
  ],
  "bytecode": "0x6080604052600e805460ff1916905534801561001a57600080fd5b50610b908061002a6000396000f3fe608060405234801561001057600080fd5b50600436106101375760003560e01c80638bc60bff116100b8578063b4cab9551161007c578063b4cab9551461020c578063d6b4129814610214578063eab5d20e1461021c578063f2fde38b14610224578063f9f8eda814610237578063fa6a5eae1461023f57610137565b80638bc60bff146101c9578063a163805c146101e1578063b192a3eb146101e9578063b1e07366146101f1578063b2094fd31461020457610137565b80632b32812a116100ff5780632b32812a146101a15780634e71e0c8146101a957806372decd7a146101b15780637c9b8e89146101b95780638456db15146101c157610137565b806316048bc41461013c57806317be952e1461015a57806322d779cc1461016f578063245c9685146101845780632a0acc6a14610199575b600080fd5b610144610252565b604051610151919061090b565b60405180910390f35b610162610261565b604051610151919061095c565b61018261017d366004610887565b61026a565b005b61018c610278565b604051610151919061099a565b61014461027e565b61018c61028d565b610182610293565b61018c61032a565b61018c610330565b610144610336565b6101d1610345565b6040516101519493929190610970565b61014461035a565b610144610369565b6101d16101ff36600461084f565b610378565b61018c6103a3565b61018c6103a9565b6101626103af565b61018c6103b8565b61018261023236600461084f565b6103be565b61018c610469565b61018261024d366004610887565b61046f565b6000546001600160a01b031681565b600e5460ff1681565b6102748282610479565b5050565b600b5481565b6002546001600160a01b031681565b60065490565b6001546001600160a01b031633146102c65760405162461bcd60e51b81526004016102bd906109a3565b60405180910390fd5b600154600080546040516001600160a01b0393841693909116917f8be0079c531659141344cd1fd0a4f28419497f9722a3daafe3b4186f6b6457e091a360018054600080546001600160a01b03199081166001600160a01b03841617909155169055565b60085490565b600d5481565b6001546001600160a01b031681565b60055460065460075460085460ff9093169284565b6003546001600160a01b031681565b6004546001600160a01b031681565b600960205260009081526040902080546001820154600283015460039093015460ff90921692909184565b600a5481565b60075490565b60055460ff1690565b600c5481565b6000546001600160a01b031633146103e85760405162461bcd60e51b81526004016102bd90610a67565b6001600160a01b03811661040e5760405162461bcd60e51b81526004016102bd90610a40565b600080546040516001600160a01b03808516939216917fdcf55418cee3220104fef63f979ff3c4097ad240c0c43dcb33ce837748983e6291a3600180546001600160a01b0319166001600160a01b0392909216919091179055565b600f5481565b6102748282610573565b61051c823083600260009054906101000a90046001600160a01b03166001600160a01b031663cb102dd26040518163ffffffff1660e01b815260040160206040518083038186803b1580156104cd57600080fd5b505afa1580156104e1573d6000803e3d6000fd5b505050506040513d601f19601f82011682018060405250810190610505919061086b565b6001600160a01b031692919063ffffffff61065616565b610550610528826106b4565b6001600160a01b0384166000908152600960205260409020600301549063ffffffff6106e116565b6001600160a01b0390921660009081526009602052604090206003019190915550565b6105a761057f826106b4565b6001600160a01b0384166000908152600960205260409020600301549063ffffffff61072e16565b6001600160a01b0380841660009081526009602090815260409182902060030193909355600254815163658816e960e11b81529151610274948794879493169263cb102dd29260048083019392829003018186803b15801561060857600080fd5b505afa15801561061c573d6000803e3d6000fd5b505050506040513d601f19601f82011682018060405250810190610640919061086b565b6001600160a01b0316919063ffffffff61077416565b6106ae846323b872dd60e01b8585856040516024016106779392919061091f565b60408051601f198184030181529190526020810180516001600160e01b03166001600160e01b031990931692909217909152610798565b50505050565b60006001600160ff1b038211156106dd5760405162461bcd60e51b81526004016102bd90610b18565b5090565b60008282018183128015906106f65750838112155b8061070b575060008312801561070b57508381125b6107275760405162461bcd60e51b81526004016102bd906109ca565b9392505050565b60008183038183128015906107435750838113155b80610758575060008312801561075857508381135b6107275760405162461bcd60e51b81526004016102bd90610a8a565b6107938363a9059cbb60e01b8484604051602401610677929190610943565b505050565b60006060836001600160a01b0316836040516107b491906108d2565b6000604051808303816000865af19150503d80600081146107f1576040519150601f19603f3d011682016040523d82523d6000602084013e6107f6565b606091505b5091509150816108185760405162461bcd60e51b81526004016102bd90610a0b565b8051156106ae578080602001905181019061083391906108b2565b6106ae5760405162461bcd60e51b81526004016102bd90610ace565b600060208284031215610860578081fd5b813561072781610b42565b60006020828403121561087c578081fd5b815161072781610b42565b60008060408385031215610899578081fd5b82356108a481610b42565b946020939093013593505050565b6000602082840312156108c3578081fd5b81518015158114610727578182fd5b60008251815b818110156108f257602081860181015185830152016108d8565b818111156109005782828501525b509190910192915050565b6001600160a01b0391909116815260200190565b6001600160a01b039384168152919092166020820152604081019190915260600190565b6001600160a01b03929092168252602082015260400190565b602081016003831061096a57fe5b91905290565b608081016003861061097e57fe5b9481526020810193909352604083019190915260609091015290565b90815260200190565b6020808252600d908201526c494e56414c49445f434c41494d60981b604082015260600190565b60208082526021908201527f5369676e6564536166654d6174683a206164646974696f6e206f766572666c6f6040820152607760f81b606082015260800190565b6020808252818101527f5361666545524332303a206c6f772d6c6576656c2063616c6c206661696c6564604082015260600190565b6020808252600d908201526c24a72b20a624a22fa7aba722a960991b604082015260600190565b6020808252600990820152682727aa2fa7aba722a960b91b604082015260600190565b60208082526024908201527f5369676e6564536166654d6174683a207375627472616374696f6e206f766572604082015263666c6f7760e01b606082015260800190565b6020808252602a908201527f5361666545524332303a204552433230206f7065726174696f6e20646964206e6040820152691bdd081cdd58d8d9595960b21b606082015260800190565b60208082526010908201526f75696e74323536206f766572666c6f7760801b604082015260600190565b6001600160a01b0381168114610b5757600080fd5b5056fea2646970667358221220380af2a4e7c82315cd694e07453e87484179db3303fb2ca1554365047a0c3c2364736f6c63430006090033",
  "immutableReferences": {},
  "source": "/*\n\n    Copyright 2020 DODO ZOO.\n    SPDX-License-Identifier: Apache-2.0\n\n*/\n\npragma solidity 0.6.9;\npragma experimental ABIEncoderV2;\n\nimport {SafeMath} from \"../lib/SafeMath.sol\";\nimport {SignedSafeMath} from \"../lib/SignedSafeMath.sol\";\nimport {SafeERC20} from \"../lib/SafeERC20.sol\";\nimport {DecimalMath} from \"../lib/DecimalMath.sol\";\nimport {Types} from \"../lib/Types.sol\";\nimport {ILpToken} from \"../interface/ILpToken.sol\";\nimport {IERC20} from \"../interface/IERC20.sol\";\nimport {IAdmin} from \"../interface/IAdmin.sol\";\nimport {Account} from \"./Account.sol\";\n\n\n/**\n * @title Settlement\n * @author Parapara\n *\n * @notice Functions for assets settlement\n */\ncontract Settlement is Account {\n    using SafeMath for uint256;\n    using SignedSafeMath for int256;\n    using SafeERC20 for IERC20;\n\n    // ============ Events ============\n\n    event Donate(uint256 amount);\n\n    event ClaimAssets(address indexed user, uint256 baseTokenAmount, uint256 quoteTokenAmount);\n\n    // ============ Assets IN/OUT Functions ============\n\n    // ============ Donate to Liquidity Pool Functions ============\n\n\n    // ============ Assets IN/OUT Functions ============\n    /*\n     * @dev Trader transfer in Margin Account\n     * @param to trader address\n     * @param amount collateral amount\n     */\n    function _collateralTraderTransferIn(address from, uint256 amount)\n        internal\n    {\n        IERC20(ADMIN._COLLATERAL_TOKEN_()).safeTransferFrom(\n            from,\n            address(this),\n            amount\n        );\n        _MARGIN_ACCOUNT_[from].CASH_BALANCE = _MARGIN_ACCOUNT_[from]\n            .CASH_BALANCE\n            .add(amount.toint256());\n    }\n\n\n\n    /*\n     * @dev Trader withdraw from Margin Account\n     * @param to trader address\n     * @param amount collateral amount\n     */\n    function _collateralTraderTransferOut(address to, uint256 amount) internal {\n        _MARGIN_ACCOUNT_[to].CASH_BALANCE = _MARGIN_ACCOUNT_[to]\n            .CASH_BALANCE\n            .sub(amount.toint256());\n        IERC20(ADMIN._COLLATERAL_TOKEN_()).safeTransfer(to, amount);\n    }\n\n\n    function collateralTraderTransferIn(address from, uint256 amount) external {\n        _collateralTraderTransferIn(from, amount);\n    }\n\n    function collateralTraderTransferOut(address to, uint256 amount) external {\n        _collateralTraderTransferOut(to, amount);\n    }\n\n\n    // ============ Donate to Liquidity Pool Functions ============\n    function _donateCollateralToken(uint256 amount) internal {\n        _POOL_MARGIN_ACCOUNT_.CASH_BALANCE = _POOL_MARGIN_ACCOUNT_\n            .CASH_BALANCE\n            .add(amount.toint256());\n        emit Donate(amount);\n    }\n    // ============ Final Settlement Functions ============\n}\n",
  "sourcePath": "/Users/daniel/Codes/parapara/para_dapp_v6/contracts/perpetual/Settlement.sol",
  "compiler": {
    "name": "solc",
    "version": "0.6.9+commit.3e3065ac.Emscripten.clang"
  },
  "schemaVersion": "3.3.4",
  "updatedAt": "2021-03-25T08:51:25.738Z",
  "devdoc": {
    "author": "Parapara",
    "methods": {},
    "title": "Settlement"
  },
  "userdoc": {
    "methods": {},
    "notice": "Functions for assets settlement"
  }
}