{
  "contractName": "Settlement",
  "abi": [
    {
      "anonymous": false,
      "inputs": [
        {
          "indexed": true,
          "internalType": "address",
          "name": "user",
          "type": "address"
        },
        {
          "indexed": false,
          "internalType": "uint256",
          "name": "baseTokenAmount",
          "type": "uint256"
        },
        {
          "indexed": false,
          "internalType": "uint256",
          "name": "quoteTokenAmount",
          "type": "uint256"
        }
      ],
      "name": "ClaimAssets",
      "type": "event"
    },
    {
      "anonymous": false,
      "inputs": [
        {
          "indexed": false,
          "internalType": "uint256",
          "name": "amount",
          "type": "uint256"
        }
      ],
      "name": "Donate",
      "type": "event"
    },
    {
      "anonymous": false,
      "inputs": [
        {
          "indexed": true,
          "internalType": "address",
          "name": "previousOwner",
          "type": "address"
        },
        {
          "indexed": true,
          "internalType": "address",
          "name": "newOwner",
          "type": "address"
        }
      ],
      "name": "OwnershipTransferPrepared",
      "type": "event"
    },
    {
      "anonymous": false,
      "inputs": [
        {
          "indexed": true,
          "internalType": "address",
          "name": "previousOwner",
          "type": "address"
        },
        {
          "indexed": true,
          "internalType": "address",
          "name": "newOwner",
          "type": "address"
        }
      ],
      "name": "OwnershipTransferred",
      "type": "event"
    },
    {
      "inputs": [],
      "name": "ADMIN",
      "outputs": [
        {
          "internalType": "contract Admin",
          "name": "",
          "type": "address"
        }
      ],
      "stateMutability": "view",
      "type": "function"
    },
    {
      "inputs": [],
      "name": "PRICING",
      "outputs": [
        {
          "internalType": "contract Pricing",
          "name": "",
          "type": "address"
        }
      ],
      "stateMutability": "view",
      "type": "function"
    },
    {
      "inputs": [],
      "name": "_BASE_BALANCE_",
      "outputs": [
        {
          "internalType": "uint256",
          "name": "",
          "type": "uint256"
        }
      ],
      "stateMutability": "view",
      "type": "function"
    },
    {
      "inputs": [],
      "name": "_COLLATERAL_POOL_TOKEN_",
      "outputs": [
        {
          "internalType": "address",
          "name": "",
          "type": "address"
        }
      ],
      "stateMutability": "view",
      "type": "function"
    },
    {
      "inputs": [
        {
          "internalType": "address",
          "name": "",
          "type": "address"
        }
      ],
      "name": "_MARGIN_ACCOUNT_",
      "outputs": [
        {
          "internalType": "enum Types.Side",
          "name": "SIDE",
          "type": "uint8"
        },
        {
          "internalType": "uint256",
          "name": "SIZE",
          "type": "uint256"
        },
        {
          "internalType": "uint256",
          "name": "ENTRY_VALUE",
          "type": "uint256"
        },
        {
          "internalType": "int256",
          "name": "CASH_BALANCE",
          "type": "int256"
        },
        {
          "internalType": "uint256",
          "name": "ENTRY_SLOSS",
          "type": "uint256"
        }
      ],
      "stateMutability": "view",
      "type": "function"
    },
    {
      "inputs": [],
      "name": "_NEW_OWNER_",
      "outputs": [
        {
          "internalType": "address",
          "name": "",
          "type": "address"
        }
      ],
      "stateMutability": "view",
      "type": "function"
    },
    {
      "inputs": [],
      "name": "_OWNER_",
      "outputs": [
        {
          "internalType": "address",
          "name": "",
          "type": "address"
        }
      ],
      "stateMutability": "view",
      "type": "function"
    },
    {
      "inputs": [],
      "name": "_POOL_INSURANCE_BALANCE_",
      "outputs": [
        {
          "internalType": "uint256",
          "name": "",
          "type": "uint256"
        }
      ],
      "stateMutability": "view",
      "type": "function"
    },
    {
      "inputs": [],
      "name": "_QUOTE_BALANCE_",
      "outputs": [
        {
          "internalType": "uint256",
          "name": "",
          "type": "uint256"
        }
      ],
      "stateMutability": "view",
      "type": "function"
    },
    {
      "inputs": [],
      "name": "_R_STATUS_",
      "outputs": [
        {
          "internalType": "enum Types.Side",
          "name": "",
          "type": "uint8"
        }
      ],
      "stateMutability": "view",
      "type": "function"
    },
    {
      "inputs": [
        {
          "internalType": "uint256",
          "name": "",
          "type": "uint256"
        }
      ],
      "name": "_SLOSS_PER_CONTRACT_",
      "outputs": [
        {
          "internalType": "uint256",
          "name": "",
          "type": "uint256"
        }
      ],
      "stateMutability": "view",
      "type": "function"
    },
    {
      "inputs": [],
      "name": "_TARGET_BASE_TOKEN_AMOUNT_",
      "outputs": [
        {
          "internalType": "uint256",
          "name": "",
          "type": "uint256"
        }
      ],
      "stateMutability": "view",
      "type": "function"
    },
    {
      "inputs": [],
      "name": "_TARGET_QUOTE_TOKEN_AMOUNT_",
      "outputs": [
        {
          "internalType": "uint256",
          "name": "",
          "type": "uint256"
        }
      ],
      "stateMutability": "view",
      "type": "function"
    },
    {
      "inputs": [],
      "name": "_TOTAL_LONG_SIZE_",
      "outputs": [
        {
          "internalType": "uint256",
          "name": "",
          "type": "uint256"
        }
      ],
      "stateMutability": "view",
      "type": "function"
    },
    {
      "inputs": [],
      "name": "claimOwnership",
      "outputs": [],
      "stateMutability": "nonpayable",
      "type": "function"
    },
    {
      "inputs": [],
      "name": "getPoolMarginCashBalance",
      "outputs": [
        {
          "internalType": "int256",
          "name": "",
          "type": "int256"
        }
      ],
      "stateMutability": "view",
      "type": "function"
    },
    {
      "inputs": [],
      "name": "getPoolMarginEntrySloss",
      "outputs": [
        {
          "internalType": "uint256",
          "name": "",
          "type": "uint256"
        }
      ],
      "stateMutability": "view",
      "type": "function"
    },
    {
      "inputs": [],
      "name": "getPoolMarginEntryValue",
      "outputs": [
        {
          "internalType": "uint256",
          "name": "",
          "type": "uint256"
        }
      ],
      "stateMutability": "view",
      "type": "function"
    },
    {
      "inputs": [],
      "name": "getPoolMarginSide",
      "outputs": [
        {
          "internalType": "enum Types.Side",
          "name": "",
          "type": "uint8"
        }
      ],
      "stateMutability": "view",
      "type": "function"
    },
    {
      "inputs": [],
      "name": "getPoolMarginSize",
      "outputs": [
        {
          "internalType": "uint256",
          "name": "",
          "type": "uint256"
        }
      ],
      "stateMutability": "view",
      "type": "function"
    },
    {
      "inputs": [],
      "name": "getSloss",
      "outputs": [
        {
          "internalType": "uint256[3]",
          "name": "",
          "type": "uint256[3]"
        }
      ],
      "stateMutability": "view",
      "type": "function"
    },
    {
      "inputs": [],
      "name": "getTotalSize",
      "outputs": [
        {
          "internalType": "uint256[3]",
          "name": "",
          "type": "uint256[3]"
        }
      ],
      "stateMutability": "view",
      "type": "function"
    },
    {
      "inputs": [
        {
          "internalType": "address",
          "name": "newOwner",
          "type": "address"
        }
      ],
      "name": "transferOwnership",
      "outputs": [],
      "stateMutability": "nonpayable",
      "type": "function"
    },
    {
      "inputs": [
        {
          "internalType": "address",
          "name": "from",
          "type": "address"
        },
        {
          "internalType": "uint256",
          "name": "amount",
          "type": "uint256"
        }
      ],
      "name": "collateralTraderTransferIn",
      "outputs": [],
      "stateMutability": "nonpayable",
      "type": "function"
    },
    {
      "inputs": [
        {
          "internalType": "address",
          "name": "to",
          "type": "address"
        },
        {
          "internalType": "uint256",
          "name": "amount",
          "type": "uint256"
        }
      ],
      "name": "collateralTraderTransferOut",
      "outputs": [],
      "stateMutability": "nonpayable",
      "type": "function"
    }
  ],
  "bytecode": "0x6080604052600a805460ff1916905534801561001a57600080fd5b50610e408061002a6000396000f3fe608060405234801561001057600080fd5b50600436106101735760003560e01c8063a163805c116100de578063c438935111610097578063eab5d20e11610071578063eab5d20e14610291578063f2fde38b14610299578063f9f8eda8146102ac578063fa6a5eae146102b457610173565b8063c43893511461026e578063d38b520914610276578063d6b412981461028957610173565b8063a163805c14610222578063a8b13ddf1461022a578063b192a3eb14610232578063b1e073661461023a578063b2094fd31461025e578063b4cab9551461026657610173565b80632efc6ee7116101305780632efc6ee7146101e55780634e71e0c8146101fa57806372decd7a146102025780637c9b8e891461020a5780638456db15146102125780639103b8b71461021a57610173565b806316048bc41461017857806317be952e1461019657806322d779cc146101ab578063245c9685146101c05780632a0acc6a146101d55780632b32812a146101dd575b600080fd5b6101806102c7565b60405161018d9190610b3f565b60405180910390f35b61019e6102d6565b60405161018d9190610bc1565b6101be6101b9366004610aa3565b6102df565b005b6101c86102ed565b60405161018d9190610c04565b6101806102f3565b6101c8610302565b6101ed610318565b60405161018d9190610b90565b6101be6103b9565b6101c8610450565b6101c8610466565b61018061046c565b6101c861047b565b610180610491565b6101c86104a0565b6101806104a6565b61024d610248366004610a6b565b6104b5565b60405161018d959493929190610bd5565b6101c86104e8565b6101c86104ee565b6101ed610504565b6101c8610284366004610aee565b61053f565b61019e610553565b6101c8610569565b6101be6102a7366004610a6b565b61056f565b6101c861061a565b6101be6102c2366004610aa3565b610620565b6000546001600160a01b031681565b600a5460ff1681565b6102e9828261062a565b5050565b60075481565b6002546001600160a01b031681565b3060009081526005602052604090206001015490565b610320610a4d565b600060023060009081526005602052604090205460ff16600281111561034257fe5b146103715730600090815260056020526040902060010154600b5461036c9163ffffffff61072416565b610396565b30600090815260056020526040902060010154600b546103969163ffffffff61074c16565b60408051606081018252600081526020810192909252600b549082015291505090565b6001546001600160a01b031633146103ec5760405162461bcd60e51b81526004016103e390610c0d565b60405180910390fd5b600154600080546040516001600160a01b0393841693909116917f8be0079c531659141344cd1fd0a4f28419497f9722a3daafe3b4186f6b6457e091a360018054600080546001600160a01b03199081166001600160a01b03841617909155169055565b3060009081526005602052604090206003015490565b60095481565b6001546001600160a01b031681565b3060009081526005602052604090206004015490565b6003546001600160a01b031681565b600b5481565b6004546001600160a01b031681565b6005602052600090815260409020805460018201546002830154600384015460049094015460ff90931693919290919085565b60065481565b3060009081526005602052604090206002015490565b61050c610a4d565b60408051606081019182905290600c9060039082845b815481526020019060010190808311610522575050505050905090565b600c816003811061054c57fe5b0154905081565b3060009081526005602052604090205460ff1690565b60085481565b6000546001600160a01b031633146105995760405162461bcd60e51b81526004016103e390610cf4565b6001600160a01b0381166105bf5760405162461bcd60e51b81526004016103e390610ccd565b600080546040516001600160a01b03808516939216917fdcf55418cee3220104fef63f979ff3c4097ad240c0c43dcb33ce837748983e6291a3600180546001600160a01b0319166001600160a01b0392909216919091179055565b600f5481565b6102e98282610778565b6106cd823083600260009054906101000a90046001600160a01b03166001600160a01b031663cb102dd26040518163ffffffff1660e01b815260040160206040518083038186803b15801561067e57600080fd5b505afa158015610692573d6000803e3d6000fd5b505050506040513d601f19601f820116820180604052508101906106b69190610a87565b6001600160a01b031692919063ffffffff61085b16565b6107016106d9826108b9565b6001600160a01b0384166000908152600560205260409020600301549063ffffffff6108e616565b6001600160a01b0390921660009081526005602052604090206003019190915550565b6000828211156107465760405162461bcd60e51b81526004016103e390610caa565b50900390565b6000828201838110156107715760405162461bcd60e51b81526004016103e390610d17565b9392505050565b6107ac610784826108b9565b6001600160a01b0384166000908152600560205260409020600301549063ffffffff61092c16565b6001600160a01b0380841660009081526005602090815260409182902060030193909355600254815163658816e960e11b815291516102e9948794879493169263cb102dd29260048083019392829003018186803b15801561080d57600080fd5b505afa158015610821573d6000803e3d6000fd5b505050506040513d601f19601f820116820180604052508101906108459190610a87565b6001600160a01b0316919063ffffffff61097216565b6108b3846323b872dd60e01b85858560405160240161087c93929190610b53565b60408051601f198184030181529190526020810180516001600160e01b03166001600160e01b031990931692909217909152610996565b50505050565b60006001600160ff1b038211156108e25760405162461bcd60e51b81526004016103e390610dc8565b5090565b60008282018183128015906108fb5750838112155b80610910575060008312801561091057508381125b6107715760405162461bcd60e51b81526004016103e390610c34565b60008183038183128015906109415750838113155b80610956575060008312801561095657508381135b6107715760405162461bcd60e51b81526004016103e390610d3a565b6109918363a9059cbb60e01b848460405160240161087c929190610b77565b505050565b60006060836001600160a01b0316836040516109b29190610b06565b6000604051808303816000865af19150503d80600081146109ef576040519150601f19603f3d011682016040523d82523d6000602084013e6109f4565b606091505b509150915081610a165760405162461bcd60e51b81526004016103e390610c75565b8051156108b35780806020019051810190610a319190610ace565b6108b35760405162461bcd60e51b81526004016103e390610d7e565b60405180606001604052806003906020820280368337509192915050565b600060208284031215610a7c578081fd5b813561077181610df2565b600060208284031215610a98578081fd5b815161077181610df2565b60008060408385031215610ab5578081fd5b8235610ac081610df2565b946020939093013593505050565b600060208284031215610adf578081fd5b81518015158114610771578182fd5b600060208284031215610aff578081fd5b5035919050565b60008251815b81811015610b265760208186018101518583015201610b0c565b81811115610b345782828501525b509190910192915050565b6001600160a01b0391909116815260200190565b6001600160a01b039384168152919092166020820152604081019190915260600190565b6001600160a01b03929092168252602082015260400190565b60608101818360005b6003811015610bb8578151835260209283019290910190600101610b99565b50505092915050565b6020810160038310610bcf57fe5b91905290565b60a0810160038710610be357fe5b95815260208101949094526040840192909252606083015260809091015290565b90815260200190565b6020808252600d908201526c494e56414c49445f434c41494d60981b604082015260600190565b60208082526021908201527f5369676e6564536166654d6174683a206164646974696f6e206f766572666c6f6040820152607760f81b606082015260800190565b6020808252818101527f5361666545524332303a206c6f772d6c6576656c2063616c6c206661696c6564604082015260600190565b60208082526009908201526829aaa12fa2a92927a960b91b604082015260600190565b6020808252600d908201526c24a72b20a624a22fa7aba722a960991b604082015260600190565b6020808252600990820152682727aa2fa7aba722a960b91b604082015260600190565b60208082526009908201526820a2222fa2a92927a960b91b604082015260600190565b60208082526024908201527f5369676e6564536166654d6174683a207375627472616374696f6e206f766572604082015263666c6f7760e01b606082015260800190565b6020808252602a908201527f5361666545524332303a204552433230206f7065726174696f6e20646964206e6040820152691bdd081cdd58d8d9595960b21b606082015260800190565b60208082526010908201526f75696e74323536206f766572666c6f7760801b604082015260600190565b6001600160a01b0381168114610e0757600080fd5b5056fea2646970667358221220397605422b4cb8d54ece63528509485b52510c9ed2ef6a58913b14ca7335da4964736f6c63430006090033",
  "immutableReferences": {},
  "source": "/*\n\n    Copyright 2020 DODO ZOO.\n    SPDX-License-Identifier: Apache-2.0\n\n*/\n\npragma solidity 0.6.9;\npragma experimental ABIEncoderV2;\n\nimport {SafeMath} from \"../lib/SafeMath.sol\";\nimport {SignedSafeMath} from \"../lib/SignedSafeMath.sol\";\nimport {SafeERC20} from \"../lib/SafeERC20.sol\";\nimport {DecimalMath} from \"../lib/DecimalMath.sol\";\nimport {Types} from \"../lib/Types.sol\";\nimport {ILpToken} from \"../interface/ILpToken.sol\";\nimport {IERC20} from \"../interface/IERC20.sol\";\nimport {IAdmin} from \"../interface/IAdmin.sol\";\nimport {Account} from \"./Account.sol\";\n\n\n/**\n * @title Settlement\n * @author Parapara\n *\n * @notice Functions for assets settlement\n */\ncontract Settlement is Account {\n    using SafeMath for uint256;\n    using SignedSafeMath for int256;\n    using SafeERC20 for IERC20;\n\n    // ============ Events ============\n\n    event Donate(uint256 amount);\n\n    event ClaimAssets(address indexed user, uint256 baseTokenAmount, uint256 quoteTokenAmount);\n\n    // ============ Assets IN/OUT Functions ============\n\n    // ============ Donate to Liquidity Pool Functions ============\n\n\n    // ============ Assets IN/OUT Functions ============\n    /*\n     * @dev Trader transfer in Margin Account\n     * @param to trader address\n     * @param amount collateral amount\n     */\n    function _collateralTraderTransferIn(address from, uint256 amount)\n        internal\n    {\n        IERC20(ADMIN._COLLATERAL_TOKEN_()).safeTransferFrom(\n            from,\n            address(this),\n            amount\n        );\n        _MARGIN_ACCOUNT_[from].CASH_BALANCE = _MARGIN_ACCOUNT_[from]\n            .CASH_BALANCE\n            .add(amount.toint256());\n    }\n\n\n\n    /*\n     * @dev Trader withdraw from Margin Account\n     * @param to trader address\n     * @param amount collateral amount\n     */\n    function _collateralTraderTransferOut(address to, uint256 amount) internal {\n        _MARGIN_ACCOUNT_[to].CASH_BALANCE = _MARGIN_ACCOUNT_[to]\n            .CASH_BALANCE\n            .sub(amount.toint256());\n        IERC20(ADMIN._COLLATERAL_TOKEN_()).safeTransfer(to, amount);\n    }\n\n\n    function collateralTraderTransferIn(address from, uint256 amount) external {\n        _collateralTraderTransferIn(from, amount);\n    }\n\n    function collateralTraderTransferOut(address to, uint256 amount) external {\n        _collateralTraderTransferOut(to, amount);\n    }\n\n\n    // ============ Donate to Liquidity Pool Functions ============\n    function _donateCollateralToken(uint256 amount) internal {\n        _MARGIN_ACCOUNT_[address(this)].CASH_BALANCE = _MARGIN_ACCOUNT_[address(this)]\n            .CASH_BALANCE\n            .add(amount.toint256());\n        emit Donate(amount);\n    }\n    // ============ Final Settlement Functions ============\n}\n",
  "sourcePath": "/Users/daniel/Codes/parapara/para_dapp_v6/contracts/perpetual/Settlement.sol",
  "compiler": {
    "name": "solc",
    "version": "0.6.9+commit.3e3065ac.Emscripten.clang"
  },
  "schemaVersion": "3.3.4",
  "updatedAt": "2021-03-28T10:55:46.497Z",
  "devdoc": {
    "author": "Parapara",
    "methods": {},
    "title": "Settlement"
  },
  "userdoc": {
    "methods": {},
    "notice": "Functions for assets settlement"
  }
}