{
  "contractName": "Settlement",
  "abi": [
    {
      "anonymous": false,
      "inputs": [
        {
          "indexed": true,
          "internalType": "address",
          "name": "user",
          "type": "address"
        },
        {
          "indexed": false,
          "internalType": "uint256",
          "name": "baseTokenAmount",
          "type": "uint256"
        },
        {
          "indexed": false,
          "internalType": "uint256",
          "name": "quoteTokenAmount",
          "type": "uint256"
        }
      ],
      "name": "ClaimAssets",
      "type": "event"
    },
    {
      "anonymous": false,
      "inputs": [
        {
          "indexed": false,
          "internalType": "uint256",
          "name": "amount",
          "type": "uint256"
        }
      ],
      "name": "Donate",
      "type": "event"
    },
    {
      "anonymous": false,
      "inputs": [
        {
          "indexed": true,
          "internalType": "address",
          "name": "previousOwner",
          "type": "address"
        },
        {
          "indexed": true,
          "internalType": "address",
          "name": "newOwner",
          "type": "address"
        }
      ],
      "name": "OwnershipTransferPrepared",
      "type": "event"
    },
    {
      "anonymous": false,
      "inputs": [
        {
          "indexed": true,
          "internalType": "address",
          "name": "previousOwner",
          "type": "address"
        },
        {
          "indexed": true,
          "internalType": "address",
          "name": "newOwner",
          "type": "address"
        }
      ],
      "name": "OwnershipTransferred",
      "type": "event"
    },
    {
      "inputs": [],
      "name": "ADMIN",
      "outputs": [
        {
          "internalType": "contract Admin",
          "name": "",
          "type": "address"
        }
      ],
      "stateMutability": "view",
      "type": "function"
    },
    {
      "inputs": [],
      "name": "PRICING",
      "outputs": [
        {
          "internalType": "contract Pricing",
          "name": "",
          "type": "address"
        }
      ],
      "stateMutability": "view",
      "type": "function"
    },
    {
      "inputs": [],
      "name": "_BASE_BALANCE_",
      "outputs": [
        {
          "internalType": "uint256",
          "name": "",
          "type": "uint256"
        }
      ],
      "stateMutability": "view",
      "type": "function"
    },
    {
      "inputs": [],
      "name": "_COLLATERAL_POOL_TOKEN_",
      "outputs": [
        {
          "internalType": "address",
          "name": "",
          "type": "address"
        }
      ],
      "stateMutability": "view",
      "type": "function"
    },
    {
      "inputs": [
        {
          "internalType": "address",
          "name": "",
          "type": "address"
        }
      ],
      "name": "_MARGIN_ACCOUNT_",
      "outputs": [
        {
          "internalType": "enum Types.Side",
          "name": "SIDE",
          "type": "uint8"
        },
        {
          "internalType": "uint256",
          "name": "SIZE",
          "type": "uint256"
        },
        {
          "internalType": "uint256",
          "name": "ENTRY_VALUE",
          "type": "uint256"
        },
        {
          "internalType": "int256",
          "name": "CASH_BALANCE",
          "type": "int256"
        },
        {
          "internalType": "uint256",
          "name": "ENTRY_SLOSS",
          "type": "uint256"
        }
      ],
      "stateMutability": "view",
      "type": "function"
    },
    {
      "inputs": [],
      "name": "_NEW_OWNER_",
      "outputs": [
        {
          "internalType": "address",
          "name": "",
          "type": "address"
        }
      ],
      "stateMutability": "view",
      "type": "function"
    },
    {
      "inputs": [],
      "name": "_OWNER_",
      "outputs": [
        {
          "internalType": "address",
          "name": "",
          "type": "address"
        }
      ],
      "stateMutability": "view",
      "type": "function"
    },
    {
      "inputs": [],
      "name": "_POOL_INSURANCE_BALANCE_",
      "outputs": [
        {
          "internalType": "uint256",
          "name": "",
          "type": "uint256"
        }
      ],
      "stateMutability": "view",
      "type": "function"
    },
    {
      "inputs": [],
      "name": "_POOL_MARGIN_ACCOUNT_",
      "outputs": [
        {
          "internalType": "enum Types.Side",
          "name": "SIDE",
          "type": "uint8"
        },
        {
          "internalType": "uint256",
          "name": "SIZE",
          "type": "uint256"
        },
        {
          "internalType": "uint256",
          "name": "ENTRY_VALUE",
          "type": "uint256"
        },
        {
          "internalType": "int256",
          "name": "CASH_BALANCE",
          "type": "int256"
        },
        {
          "internalType": "uint256",
          "name": "ENTRY_SLOSS",
          "type": "uint256"
        }
      ],
      "stateMutability": "view",
      "type": "function"
    },
    {
      "inputs": [],
      "name": "_QUOTE_BALANCE_",
      "outputs": [
        {
          "internalType": "uint256",
          "name": "",
          "type": "uint256"
        }
      ],
      "stateMutability": "view",
      "type": "function"
    },
    {
      "inputs": [],
      "name": "_R_STATUS_",
      "outputs": [
        {
          "internalType": "enum Types.Side",
          "name": "",
          "type": "uint8"
        }
      ],
      "stateMutability": "view",
      "type": "function"
    },
    {
      "inputs": [
        {
          "internalType": "uint256",
          "name": "",
          "type": "uint256"
        }
      ],
      "name": "_SLOSS_PER_CONTRACT_",
      "outputs": [
        {
          "internalType": "uint256",
          "name": "",
          "type": "uint256"
        }
      ],
      "stateMutability": "view",
      "type": "function"
    },
    {
      "inputs": [],
      "name": "_TARGET_BASE_TOKEN_AMOUNT_",
      "outputs": [
        {
          "internalType": "uint256",
          "name": "",
          "type": "uint256"
        }
      ],
      "stateMutability": "view",
      "type": "function"
    },
    {
      "inputs": [],
      "name": "_TARGET_QUOTE_TOKEN_AMOUNT_",
      "outputs": [
        {
          "internalType": "uint256",
          "name": "",
          "type": "uint256"
        }
      ],
      "stateMutability": "view",
      "type": "function"
    },
    {
      "inputs": [],
      "name": "_TOTAL_LONG_SIZE_",
      "outputs": [
        {
          "internalType": "uint256",
          "name": "",
          "type": "uint256"
        }
      ],
      "stateMutability": "view",
      "type": "function"
    },
    {
      "inputs": [],
      "name": "claimOwnership",
      "outputs": [],
      "stateMutability": "nonpayable",
      "type": "function"
    },
    {
      "inputs": [],
      "name": "getPoolMarginCashBalance",
      "outputs": [
        {
          "internalType": "int256",
          "name": "",
          "type": "int256"
        }
      ],
      "stateMutability": "view",
      "type": "function"
    },
    {
      "inputs": [],
      "name": "getPoolMarginEntrySloss",
      "outputs": [
        {
          "internalType": "uint256",
          "name": "",
          "type": "uint256"
        }
      ],
      "stateMutability": "view",
      "type": "function"
    },
    {
      "inputs": [],
      "name": "getPoolMarginEntryValue",
      "outputs": [
        {
          "internalType": "uint256",
          "name": "",
          "type": "uint256"
        }
      ],
      "stateMutability": "view",
      "type": "function"
    },
    {
      "inputs": [],
      "name": "getPoolMarginSide",
      "outputs": [
        {
          "internalType": "enum Types.Side",
          "name": "",
          "type": "uint8"
        }
      ],
      "stateMutability": "view",
      "type": "function"
    },
    {
      "inputs": [],
      "name": "getPoolMarginSize",
      "outputs": [
        {
          "internalType": "uint256",
          "name": "",
          "type": "uint256"
        }
      ],
      "stateMutability": "view",
      "type": "function"
    },
    {
      "inputs": [],
      "name": "getTotalSize",
      "outputs": [
        {
          "internalType": "uint256[3]",
          "name": "",
          "type": "uint256[3]"
        }
      ],
      "stateMutability": "view",
      "type": "function"
    },
    {
      "inputs": [
        {
          "internalType": "address",
          "name": "newOwner",
          "type": "address"
        }
      ],
      "name": "transferOwnership",
      "outputs": [],
      "stateMutability": "nonpayable",
      "type": "function"
    },
    {
      "inputs": [
        {
          "internalType": "address",
          "name": "from",
          "type": "address"
        },
        {
          "internalType": "uint256",
          "name": "amount",
          "type": "uint256"
        }
      ],
      "name": "collateralTraderTransferIn",
      "outputs": [],
      "stateMutability": "nonpayable",
      "type": "function"
    },
    {
      "inputs": [
        {
          "internalType": "address",
          "name": "to",
          "type": "address"
        },
        {
          "internalType": "uint256",
          "name": "amount",
          "type": "uint256"
        }
      ],
      "name": "collateralTraderTransferOut",
      "outputs": [],
      "stateMutability": "nonpayable",
      "type": "function"
    }
  ],
  "bytecode": "0x6080604052600f805460ff1916905534801561001a57600080fd5b50610db58061002a6000396000f3fe608060405234801561001057600080fd5b50600436106101735760003560e01c80639103b8b7116100de578063b4cab95511610097578063eab5d20e11610071578063eab5d20e14610291578063f2fde38b14610299578063f9f8eda8146102ac578063fa6a5eae146102b457610173565b8063b4cab9551461026e578063d38b520914610276578063d6b412981461028957610173565b80639103b8b714610233578063a163805c1461023b578063a8b13ddf14610243578063b192a3eb1461024b578063b1e0736614610253578063b2094fd31461026657610173565b80632efc6ee7116101305780632efc6ee7146101e55780634e71e0c8146101fa57806372decd7a146102025780637c9b8e891461020a5780638456db15146102125780638bc60bff1461021a57610173565b806316048bc41461017857806317be952e1461019657806322d779cc146101ab578063245c9685146101c05780632a0acc6a146101d55780632b32812a146101dd575b600080fd5b6101806102c7565b60405161018d9190610aa6565b60405180910390f35b61019e6102d6565b60405161018d9190610b28565b6101be6101b9366004610a0a565b6102df565b005b6101c86102ed565b60405161018d9190610b6e565b6101806102f3565b6101c8610302565b6101ed610308565b60405161018d9190610af7565b6101be61037c565b6101c8610413565b6101c8610419565b61018061041f565b61022261042e565b60405161018d959493929190610b3d565b6101c8610446565b61018061044c565b6101c861045b565b610180610461565b6102226102613660046109d2565b610470565b6101c86104a3565b6101c86104a9565b6101c8610284366004610a55565b6104af565b61019e6104c3565b6101c86104cc565b6101be6102a73660046109d2565b6104d2565b6101c861057d565b6101be6102c2366004610a0a565b610583565b6000546001600160a01b031681565b600f5460ff1681565b6102e9828261058d565b5050565b600c5481565b6002546001600160a01b031681565b60065490565b6103106109b4565b6000600260055460ff16600281111561032557fe5b146103445760065460105461033f9163ffffffff61068716565b610359565b6006546010546103599163ffffffff6106af16565b604080516060810182526000815260208101929092526010549082015291505090565b6001546001600160a01b031633146103af5760405162461bcd60e51b81526004016103a690610b77565b60405180910390fd5b600154600080546040516001600160a01b0393841693909116917f8be0079c531659141344cd1fd0a4f28419497f9722a3daafe3b4186f6b6457e091a360018054600080546001600160a01b03199081166001600160a01b03841617909155169055565b60085490565b600e5481565b6001546001600160a01b031681565b60055460065460075460085460095460ff9094169385565b60095490565b6003546001600160a01b031681565b60105481565b6004546001600160a01b031681565b600a602052600090815260409020805460018201546002830154600384015460049094015460ff90931693919290919085565b600b5481565b60075490565b601181600381106104bc57fe5b0154905081565b60055460ff1690565b600d5481565b6000546001600160a01b031633146104fc5760405162461bcd60e51b81526004016103a690610c5e565b6001600160a01b0381166105225760405162461bcd60e51b81526004016103a690610c37565b600080546040516001600160a01b03808516939216917fdcf55418cee3220104fef63f979ff3c4097ad240c0c43dcb33ce837748983e6291a3600180546001600160a01b0319166001600160a01b0392909216919091179055565b60145481565b6102e982826106db565b610630823083600260009054906101000a90046001600160a01b03166001600160a01b031663cb102dd26040518163ffffffff1660e01b815260040160206040518083038186803b1580156105e157600080fd5b505afa1580156105f5573d6000803e3d6000fd5b505050506040513d601f19601f8201168201806040525081019061061991906109ee565b6001600160a01b031692919063ffffffff6107be16565b61066461063c8261081c565b6001600160a01b0384166000908152600a60205260409020600301549063ffffffff61084d16565b6001600160a01b039092166000908152600a602052604090206003019190915550565b6000828211156106a95760405162461bcd60e51b81526004016103a690610c14565b50900390565b6000828201838110156106d45760405162461bcd60e51b81526004016103a690610c81565b9392505050565b61070f6106e78261081c565b6001600160a01b0384166000908152600a60205260409020600301549063ffffffff61089316565b6001600160a01b038084166000908152600a602090815260409182902060030193909355600254815163658816e960e11b815291516102e9948794879493169263cb102dd29260048083019392829003018186803b15801561077057600080fd5b505afa158015610784573d6000803e3d6000fd5b505050506040513d601f19601f820116820180604052508101906107a891906109ee565b6001600160a01b0316919063ffffffff6108d916565b610816846323b872dd60e01b8585856040516024016107df93929190610aba565b60408051601f198184030181529190526020810180516001600160e01b03166001600160e01b0319909316929092179091526108fd565b50505050565b60006001600160ff1b038211156108455760405162461bcd60e51b81526004016103a690610d32565b50805b919050565b60008282018183128015906108625750838112155b80610877575060008312801561087757508381125b6106d45760405162461bcd60e51b81526004016103a690610b9e565b60008183038183128015906108a85750838113155b806108bd57506000831280156108bd57508381135b6106d45760405162461bcd60e51b81526004016103a690610ca4565b6108f88363a9059cbb60e01b84846040516024016107df929190610ade565b505050565b60006060836001600160a01b0316836040516109199190610a6d565b6000604051808303816000865af19150503d8060008114610956576040519150601f19603f3d011682016040523d82523d6000602084013e61095b565b606091505b50915091508161097d5760405162461bcd60e51b81526004016103a690610bdf565b80511561081657808060200190518101906109989190610a35565b6108165760405162461bcd60e51b81526004016103a690610ce8565b60405180606001604052806003906020820280368337509192915050565b6000602082840312156109e3578081fd5b81356106d481610d67565b6000602082840312156109ff578081fd5b81516106d481610d67565b60008060408385031215610a1c578081fd5b8235610a2781610d67565b946020939093013593505050565b600060208284031215610a46578081fd5b815180151581146106d4578182fd5b600060208284031215610a66578081fd5b5035919050565b60008251815b81811015610a8d5760208186018101518583015201610a73565b81811115610a9b5782828501525b509190910192915050565b6001600160a01b0391909116815260200190565b6001600160a01b039384168152919092166020820152604081019190915260600190565b6001600160a01b03929092168252602082015260400190565b60608101818360005b6003811015610b1f578151835260209283019290910190600101610b00565b50505092915050565b60208101610b3583610d5c565b825292915050565b60a08101610b4a87610d5c565b82528560208301528460408301528360608301528260808301529695505050505050565b90815260200190565b6020808252600d908201526c494e56414c49445f434c41494d60981b604082015260600190565b60208082526021908201527f5369676e6564536166654d6174683a206164646974696f6e206f766572666c6f6040820152607760f81b606082015260800190565b6020808252818101527f5361666545524332303a206c6f772d6c6576656c2063616c6c206661696c6564604082015260600190565b60208082526009908201526829aaa12fa2a92927a960b91b604082015260600190565b6020808252600d908201526c24a72b20a624a22fa7aba722a960991b604082015260600190565b6020808252600990820152682727aa2fa7aba722a960b91b604082015260600190565b60208082526009908201526820a2222fa2a92927a960b91b604082015260600190565b60208082526024908201527f5369676e6564536166654d6174683a207375627472616374696f6e206f766572604082015263666c6f7760e01b606082015260800190565b6020808252602a908201527f5361666545524332303a204552433230206f7065726174696f6e20646964206e6040820152691bdd081cdd58d8d9595960b21b606082015260800190565b60208082526010908201526f75696e74323536206f766572666c6f7760801b604082015260600190565b806003811061084857fe5b6001600160a01b0381168114610d7c57600080fd5b5056fea264697066735822122013ec8c36cf5c8dec8e2c5a5914a90ad7c43625ac567bebfbc0f3517454235f3d64736f6c63430006090033",
  "immutableReferences": {},
  "source": "/*\n\n    Copyright 2020 DODO ZOO.\n    SPDX-License-Identifier: Apache-2.0\n\n*/\n\npragma solidity 0.6.9;\npragma experimental ABIEncoderV2;\n\nimport {SafeMath} from \"../lib/SafeMath.sol\";\nimport {SignedSafeMath} from \"../lib/SignedSafeMath.sol\";\nimport {SafeERC20} from \"../lib/SafeERC20.sol\";\nimport {DecimalMath} from \"../lib/DecimalMath.sol\";\nimport {Types} from \"../lib/Types.sol\";\nimport {ILpToken} from \"../interface/ILpToken.sol\";\nimport {IERC20} from \"../interface/IERC20.sol\";\nimport {IAdmin} from \"../interface/IAdmin.sol\";\nimport {Account} from \"./Account.sol\";\n\n\n/**\n * @title Settlement\n * @author Parapara\n *\n * @notice Functions for assets settlement\n */\ncontract Settlement is Account {\n    using SafeMath for uint256;\n    using SignedSafeMath for int256;\n    using SafeERC20 for IERC20;\n\n    // ============ Events ============\n\n    event Donate(uint256 amount);\n\n    event ClaimAssets(address indexed user, uint256 baseTokenAmount, uint256 quoteTokenAmount);\n\n    // ============ Assets IN/OUT Functions ============\n\n    // ============ Donate to Liquidity Pool Functions ============\n\n\n    // ============ Assets IN/OUT Functions ============\n    /*\n     * @dev Trader transfer in Margin Account\n     * @param to trader address\n     * @param amount collateral amount\n     */\n    function _collateralTraderTransferIn(address from, uint256 amount)\n        internal\n    {\n        IERC20(ADMIN._COLLATERAL_TOKEN_()).safeTransferFrom(\n            from,\n            address(this),\n            amount\n        );\n        _MARGIN_ACCOUNT_[from].CASH_BALANCE = _MARGIN_ACCOUNT_[from]\n            .CASH_BALANCE\n            .add(amount.toint256());\n    }\n\n\n\n    /*\n     * @dev Trader withdraw from Margin Account\n     * @param to trader address\n     * @param amount collateral amount\n     */\n    function _collateralTraderTransferOut(address to, uint256 amount) internal {\n        _MARGIN_ACCOUNT_[to].CASH_BALANCE = _MARGIN_ACCOUNT_[to]\n            .CASH_BALANCE\n            .sub(amount.toint256());\n        IERC20(ADMIN._COLLATERAL_TOKEN_()).safeTransfer(to, amount);\n    }\n\n\n    function collateralTraderTransferIn(address from, uint256 amount) external {\n        _collateralTraderTransferIn(from, amount);\n    }\n\n    function collateralTraderTransferOut(address to, uint256 amount) external {\n        _collateralTraderTransferOut(to, amount);\n    }\n\n\n    // ============ Donate to Liquidity Pool Functions ============\n    function _donateCollateralToken(uint256 amount) internal {\n        _POOL_MARGIN_ACCOUNT_.CASH_BALANCE = _POOL_MARGIN_ACCOUNT_\n            .CASH_BALANCE\n            .add(amount.toint256());\n        emit Donate(amount);\n    }\n    // ============ Final Settlement Functions ============\n}\n",
  "sourcePath": "/Users/daniel/Codes/parapara/para_dapp_v6/contracts/perpetual/Settlement.sol",
  "compiler": {
    "name": "solc",
    "version": "0.6.9+commit.3e3065ac.Emscripten.clang"
  },
  "schemaVersion": "3.3.4",
  "updatedAt": "2021-03-26T05:07:53.864Z",
  "devdoc": {
    "author": "Parapara",
    "methods": {},
    "title": "Settlement"
  },
  "userdoc": {
    "methods": {},
    "notice": "Functions for assets settlement"
  }
}