{
  "contractName": "Storage",
  "abi": [
    {
      "anonymous": false,
      "inputs": [
        {
          "indexed": true,
          "internalType": "address",
          "name": "previousOwner",
          "type": "address"
        },
        {
          "indexed": true,
          "internalType": "address",
          "name": "newOwner",
          "type": "address"
        }
      ],
      "name": "OwnershipTransferPrepared",
      "type": "event"
    },
    {
      "anonymous": false,
      "inputs": [
        {
          "indexed": true,
          "internalType": "address",
          "name": "previousOwner",
          "type": "address"
        },
        {
          "indexed": true,
          "internalType": "address",
          "name": "newOwner",
          "type": "address"
        }
      ],
      "name": "OwnershipTransferred",
      "type": "event"
    },
    {
      "inputs": [],
      "name": "_BUYING_ALLOWED_",
      "outputs": [
        {
          "internalType": "bool",
          "name": "",
          "type": "bool"
        }
      ],
      "stateMutability": "view",
      "type": "function"
    },
    {
      "inputs": [],
      "name": "_CLOSED_",
      "outputs": [
        {
          "internalType": "bool",
          "name": "",
          "type": "bool"
        }
      ],
      "stateMutability": "view",
      "type": "function"
    },
    {
      "inputs": [],
      "name": "_COLLATERAL_TOKEN_",
      "outputs": [
        {
          "internalType": "address",
          "name": "",
          "type": "address"
        }
      ],
      "stateMutability": "view",
      "type": "function"
    },
    {
      "inputs": [],
      "name": "_DEPOSIT_ALLOWED_",
      "outputs": [
        {
          "internalType": "bool",
          "name": "",
          "type": "bool"
        }
      ],
      "stateMutability": "view",
      "type": "function"
    },
    {
      "inputs": [],
      "name": "_GAS_PRICE_LIMIT_",
      "outputs": [
        {
          "internalType": "uint256",
          "name": "",
          "type": "uint256"
        }
      ],
      "stateMutability": "view",
      "type": "function"
    },
    {
      "inputs": [],
      "name": "_INITIAL_MARGIN_RATE_",
      "outputs": [
        {
          "internalType": "uint256",
          "name": "",
          "type": "uint256"
        }
      ],
      "stateMutability": "view",
      "type": "function"
    },
    {
      "inputs": [],
      "name": "_K_",
      "outputs": [
        {
          "internalType": "uint256",
          "name": "",
          "type": "uint256"
        }
      ],
      "stateMutability": "view",
      "type": "function"
    },
    {
      "inputs": [],
      "name": "_LIQUIDATION_PENALTY_POOL_RATE_",
      "outputs": [
        {
          "internalType": "uint256",
          "name": "",
          "type": "uint256"
        }
      ],
      "stateMutability": "view",
      "type": "function"
    },
    {
      "inputs": [],
      "name": "_LIQUIDATION_PENALTY_RATE_",
      "outputs": [
        {
          "internalType": "uint256",
          "name": "",
          "type": "uint256"
        }
      ],
      "stateMutability": "view",
      "type": "function"
    },
    {
      "inputs": [],
      "name": "_LP_FEE_RATE_",
      "outputs": [
        {
          "internalType": "uint256",
          "name": "",
          "type": "uint256"
        }
      ],
      "stateMutability": "view",
      "type": "function"
    },
    {
      "inputs": [],
      "name": "_MAINTAINER_",
      "outputs": [
        {
          "internalType": "address",
          "name": "",
          "type": "address"
        }
      ],
      "stateMutability": "view",
      "type": "function"
    },
    {
      "inputs": [],
      "name": "_MAINTENANCE_MARGIN_RATE_",
      "outputs": [
        {
          "internalType": "uint256",
          "name": "",
          "type": "uint256"
        }
      ],
      "stateMutability": "view",
      "type": "function"
    },
    {
      "inputs": [],
      "name": "_MT_FEE_RATE_",
      "outputs": [
        {
          "internalType": "uint256",
          "name": "",
          "type": "uint256"
        }
      ],
      "stateMutability": "view",
      "type": "function"
    },
    {
      "inputs": [],
      "name": "_NEW_OWNER_",
      "outputs": [
        {
          "internalType": "address",
          "name": "",
          "type": "address"
        }
      ],
      "stateMutability": "view",
      "type": "function"
    },
    {
      "inputs": [],
      "name": "_ORACLE_",
      "outputs": [
        {
          "internalType": "address",
          "name": "",
          "type": "address"
        }
      ],
      "stateMutability": "view",
      "type": "function"
    },
    {
      "inputs": [],
      "name": "_OWNER_",
      "outputs": [
        {
          "internalType": "address",
          "name": "",
          "type": "address"
        }
      ],
      "stateMutability": "view",
      "type": "function"
    },
    {
      "inputs": [],
      "name": "_PAUSED_",
      "outputs": [
        {
          "internalType": "bool",
          "name": "",
          "type": "bool"
        }
      ],
      "stateMutability": "view",
      "type": "function"
    },
    {
      "inputs": [],
      "name": "_POOL_LIQUIDATE_TH_",
      "outputs": [
        {
          "internalType": "uint256",
          "name": "",
          "type": "uint256"
        }
      ],
      "stateMutability": "view",
      "type": "function"
    },
    {
      "inputs": [],
      "name": "_POOL_OPEN_TH_",
      "outputs": [
        {
          "internalType": "uint256",
          "name": "",
          "type": "uint256"
        }
      ],
      "stateMutability": "view",
      "type": "function"
    },
    {
      "inputs": [],
      "name": "_SELLING_ALLOWED_",
      "outputs": [
        {
          "internalType": "bool",
          "name": "",
          "type": "bool"
        }
      ],
      "stateMutability": "view",
      "type": "function"
    },
    {
      "inputs": [],
      "name": "_SUPERVISOR_",
      "outputs": [
        {
          "internalType": "address",
          "name": "",
          "type": "address"
        }
      ],
      "stateMutability": "view",
      "type": "function"
    },
    {
      "inputs": [],
      "name": "claimOwnership",
      "outputs": [],
      "stateMutability": "nonpayable",
      "type": "function"
    },
    {
      "inputs": [
        {
          "internalType": "address",
          "name": "newOwner",
          "type": "address"
        }
      ],
      "name": "transferOwnership",
      "outputs": [],
      "stateMutability": "nonpayable",
      "type": "function"
    },
    {
      "inputs": [],
      "name": "checkOnlySupervisorOrOwner",
      "outputs": [],
      "stateMutability": "view",
      "type": "function"
    },
    {
      "inputs": [],
      "name": "checkNotClosed",
      "outputs": [],
      "stateMutability": "view",
      "type": "function"
    },
    {
      "inputs": [],
      "name": "checkNotPaused",
      "outputs": [],
      "stateMutability": "view",
      "type": "function"
    },
    {
      "inputs": [],
      "name": "depositAllowed",
      "outputs": [],
      "stateMutability": "view",
      "type": "function"
    },
    {
      "inputs": [],
      "name": "tradeAllowed",
      "outputs": [],
      "stateMutability": "view",
      "type": "function"
    },
    {
      "inputs": [],
      "name": "buyingAllowed",
      "outputs": [],
      "stateMutability": "view",
      "type": "function"
    },
    {
      "inputs": [],
      "name": "sellingAllowed",
      "outputs": [],
      "stateMutability": "view",
      "type": "function"
    },
    {
      "inputs": [],
      "name": "gasPriceLimit",
      "outputs": [],
      "stateMutability": "view",
      "type": "function"
    },
    {
      "inputs": [],
      "name": "checkParaParameters",
      "outputs": [],
      "stateMutability": "view",
      "type": "function"
    },
    {
      "inputs": [],
      "name": "version",
      "outputs": [
        {
          "internalType": "uint256",
          "name": "",
          "type": "uint256"
        }
      ],
      "stateMutability": "pure",
      "type": "function"
    }
  ],
  "bytecode": "0x608060405234801561001057600080fd5b50610a5c806100206000396000f3fe608060405234801561001057600080fd5b50600436106101fb5760003560e01c80638ff5e7421161011a578063c0ffa178116100ad578063ec2fd46d1161007c578063ec2fd46d14610312578063ee3dfe2b1461031a578063f2fde38b14610322578063f5cdd20214610335578063fe73ee731461033d576101fb565b8063c0ffa178146102f2578063c30ea2a2146102fa578063cb102dd214610302578063d76bfbd91461030a576101fb565b8063a3161a56116100e9578063a3161a56146102d2578063a4a5e9ad146102da578063ab44a7a3146102e2578063bfdf0611146102ea576101fb565b80638ff5e742146102b2578063961a929c146102ba57806398a0a53d146102c25780639c6d79be146102ca576101fb565b8063580ee2a61161019257806373a2ab7c1161016157806373a2ab7c146102925780637a32bae41461029a5780638456db15146102a25780638f8f7eb2146102aa576101fb565b8063580ee2a6146102655780636ec6a58d1461026d57806370e4b3bd146102825780637246772c1461028a576101fb565b80634322ec83116101ce5780634322ec83146102455780634de4527e1461024d5780634e71e0c81461025557806354fd4d501461025d576101fb565b806311187e36146102005780631493ba6a1461021e57806316048bc4146102285780633960f1421461023d575b600080fd5b610208610345565b6040516102159190610a1d565b60405180910390f35b61022661034b565b005b61023061039b565b60405161021591906107ae565b6102306103aa565b6102306103bf565b6102086103ce565b6102266103d4565b610208610462565b610208610467565b61027561046d565b60405161021591906107c2565b61027561047d565b61027561048d565b61023061049d565b6102266104ac565b6102306104e1565b6102266104f0565b610275610512565b610226610520565b610208610542565b610208610548565b61027561054e565b610226610557565b610208610581565b610226610587565b61020861060f565b610226610615565b61023061063e565b61022661064d565b610208610677565b61022661067d565b610226610330366004610787565b6106a4565b61020861074f565b610208610755565b600f5481565b6003546201000090046001600160a01b031633148061037457506000546001600160a01b031633145b6103995760405162461bcd60e51b815260040161039090610811565b60405180910390fd5b565b6000546001600160a01b031681565b6003546201000090046001600160a01b031681565b6004546001600160a01b031681565b60025481565b6001546001600160a01b031633146103fe5760405162461bcd60e51b8152600401610390906107ea565b600154600080546040516001600160a01b0393841693909116917f8be0079c531659141344cd1fd0a4f28419497f9722a3daafe3b4186f6b6457e091a360018054600080546001600160a01b03199081166001600160a01b03841617909155169055565b606590565b600d5481565b600154600160b81b900460ff1681565b600154600160c01b900460ff1681565b600154600160b01b900460ff1681565b6006546001600160a01b031681565b60035460ff1680156104c55750600354610100900460ff165b6103995760405162461bcd60e51b815260040161039090610875565b6001546001600160a01b031681565b60035460ff166103995760405162461bcd60e51b8152600401610390906109f1565b600354610100900460ff1681565b6002543a11156103995760405162461bcd60e51b8152600401610390906109c7565b600a5481565b600c5481565b60035460ff1681565b600154600160b81b900460ff16156103995760405162461bcd60e51b8152600401610390906108c7565b60075481565b670de0b6b3a7640000600954106105b05760405162461bcd60e51b8152600401610390906109a9565b6000600954116105d25760405162461bcd60e51b8152600401610390906107cd565b670de0b6b3a76400006105f260085460075461075b90919063ffffffff16565b106103995760405162461bcd60e51b815260040161039090610919565b60085481565b600154600160c01b900460ff166103995760405162461bcd60e51b815260040161039090610848565b6005546001600160a01b031681565b600154600160b01b900460ff16156103995760405162461bcd60e51b81526004016103909061093e565b60095481565b600354610100900460ff166103995760405162461bcd60e51b8152600401610390906108ec565b6000546001600160a01b031633146106ce5760405162461bcd60e51b815260040161039090610963565b6001600160a01b0381166106f45760405162461bcd60e51b8152600401610390906108a0565b600080546040516001600160a01b03808516939216917fdcf55418cee3220104fef63f979ff3c4097ad240c0c43dcb33ce837748983e6291a3600180546001600160a01b0319166001600160a01b0392909216919091179055565b600e5481565b600b5481565b6000828201838110156107805760405162461bcd60e51b815260040161039090610986565b9392505050565b600060208284031215610798578081fd5b81356001600160a01b0381168114610780578182fd5b6001600160a01b0391909116815260200190565b901515815260200190565b60208082526003908201526204b3d360ec1b604082015260600190565b6020808252600d908201526c494e56414c49445f434c41494d60981b604082015260600190565b60208082526017908201527f4e4f545f53555045525649534f525f4f525f4f574e4552000000000000000000604082015260600190565b60208082526013908201527211115413d4d25517d393d517d0531313d5d151606a1b604082015260600190565b602080825260119082015270151490511157d393d517d0531313d5d151607a1b604082015260600190565b6020808252600d908201526c24a72b20a624a22fa7aba722a960991b604082015260600190565b6020808252600b908201526a1410549057d0d313d4d15160aa1b604082015260600190565b60208082526013908201527214d15313125391d7d393d517d0531313d5d151606a1b604082015260600190565b6020808252600b908201526a4645455f524154453e3d3160a81b604082015260600190565b6020808252600b908201526a1410549057d4105554d15160aa1b604082015260600190565b6020808252600990820152682727aa2fa7aba722a960b91b604082015260600190565b60208082526009908201526820a2222fa2a92927a960b91b604082015260600190565b6020808252600490820152634b3e3d3160e01b604082015260600190565b60208082526010908201526f11d054d7d4149250d157d15610d1515160821b604082015260600190565b602080825260129082015271109556525391d7d393d517d0531313d5d15160721b604082015260600190565b9081526020019056fea26469706673582212200b62f7a1064d011226bddc922d37572abb6c14312fb3c32069be75b93b7c993a64736f6c63430006090033",
  "immutableReferences": {},
  "source": "/*\n\n    Copyright 2020 DODO ZOO.\n    SPDX-License-Identifier: Apache-2.0\n\n*/\n\npragma solidity 0.6.9;\npragma experimental ABIEncoderV2;\n\nimport {InitializableOwnable} from \"../lib/InitializableOwnable.sol\";\nimport {ReentrancyGuard} from \"../lib/ReentrancyGuard.sol\";\nimport {SafeMath} from \"../lib/SafeMath.sol\";\nimport {SignedSafeMath} from \"../lib/SignedSafeMath.sol\";\nimport {DecimalMath} from \"../lib/DecimalMath.sol\";\nimport {ILpToken} from \"../interface/ILpToken.sol\";\nimport {Types} from \"../lib/Types.sol\";\n\n/**\n * @title Storage\n * @author Parapara\n *\n * @notice Local Variables\n */\ncontract Storage is InitializableOwnable, ReentrancyGuard {\n    using SafeMath for uint256;\n    using SignedSafeMath for int256;\n\n    // ============ Variables for Control ============\n\n    bool internal _INITIALIZED_;\n    // 暂停\n    bool public _PAUSED_;\n    bool public _CLOSED_;\n    bool public _DEPOSIT_ALLOWED_;\n    uint256 public _GAS_PRICE_LIMIT_;\n\n    // ============ Advanced Controls ============\n    // BUYING BASE TOKEN ALLOWED\n    bool public _BUYING_ALLOWED_;\n    // SELLING BASE TOKEN ALLOWED\n    bool public _SELLING_ALLOWED_;\n\n    // ============ Core Address ============\n    address public _SUPERVISOR_; // could freeze system in emergency\n    address public _MAINTAINER_; // collect maintainer fee to buy food for DODO\n\n    // 保证金币种\n    address public _COLLATERAL_TOKEN_;\n    address public _ORACLE_;\n\n    // ============ Variables for AMM Algorithm ============\n    // 交易手续费\n    uint256 public _LP_FEE_RATE_;\n    // 管理费\n    uint256 public _MT_FEE_RATE_;\n    uint256 public _K_;\n\n\n    // Variable for Margin Trading Governance\n    uint256 public _INITIAL_MARGIN_RATE_;\n    uint256 public _MAINTENANCE_MARGIN_RATE_;\n    // POOL ENP<50% 无法开新仓\n    uint256 public _POOL_OPEN_TH_;\n    // POOL ENP<20% 触发强平\n    uint256 public _POOL_LIQUIDATE_TH_;\n    // reward to liquidators when trader got liquidated\n    uint256 public _LIQUIDATION_PENALTY_RATE_;\n    // reward to pool when trader got liquidated\n    uint256 public _LIQUIDATION_PENALTY_POOL_RATE_;\n\n\n    // ============ Modifiers ============\n\n    function checkOnlySupervisorOrOwner() public view {\n        require(\n            msg.sender == _SUPERVISOR_ || msg.sender == _OWNER_,\n            \"NOT_SUPERVISOR_OR_OWNER\"\n        );\n    }\n\n    function checkNotClosed() public view {\n        require(!_CLOSED_, \"PARA_CLOSED\");\n    }\n\n    function checkNotPaused() public view {\n        require(!_PAUSED_, \"PARA_PAUSED\");\n    }\n\n    function depositAllowed() public view {\n        require(_DEPOSIT_ALLOWED_, \"DEPOSIT_NOT_ALLOWED\");\n    }\n\n    function tradeAllowed() public view {\n        require(_BUYING_ALLOWED_ && _SELLING_ALLOWED_, \"TRADE_NOT_ALLOWED\");\n    }\n\n    function buyingAllowed() public view {\n        require(_BUYING_ALLOWED_, \"BUYING_NOT_ALLOWED\");\n    }\n\n    function sellingAllowed() public view {\n        require(_SELLING_ALLOWED_, \"SELLING_NOT_ALLOWED\");\n    }\n\n    function gasPriceLimit() public view {\n        require(tx.gasprice <= _GAS_PRICE_LIMIT_, \"GAS_PRICE_EXCEED\");\n    }\n\n    // ============ Helper Functions ============\n    function checkParaParameters() public view {\n        require(_K_ < DecimalMath.ONE, \"K>=1\");\n        require(_K_ > 0, \"K=0\");\n        require(\n            _LP_FEE_RATE_.add(_MT_FEE_RATE_) < DecimalMath.ONE,\n            \"FEE_RATE>=1\"\n        );\n    }\n\n\n    // ============ Version Control ============\n    function version() external pure returns (uint256) {\n        return 101; // 1.0.1\n    }\n}\n",
  "sourcePath": "/Users/daniel/Codes/parapara/para_dapp_v6/contracts/admin/Storage.sol",
  "compiler": {
    "name": "solc",
    "version": "0.6.9+commit.3e3065ac.Emscripten.clang"
  },
  "schemaVersion": "3.3.4",
  "updatedAt": "2021-03-28T10:55:46.381Z",
  "devdoc": {
    "author": "Parapara",
    "methods": {},
    "title": "Storage"
  },
  "userdoc": {
    "methods": {},
    "notice": "Local Variables"
  }
}