{
  "contractName": "Trader",
  "abi": [
    {
      "anonymous": false,
      "inputs": [
        {
          "indexed": true,
          "internalType": "address",
          "name": "buyer",
          "type": "address"
        },
        {
          "indexed": false,
          "internalType": "uint256",
          "name": "receiveBase",
          "type": "uint256"
        },
        {
          "indexed": false,
          "internalType": "uint256",
          "name": "payQuote",
          "type": "uint256"
        }
      ],
      "name": "BuyBaseToken",
      "type": "event"
    },
    {
      "anonymous": false,
      "inputs": [
        {
          "indexed": true,
          "internalType": "address",
          "name": "maintainer",
          "type": "address"
        },
        {
          "indexed": false,
          "internalType": "bool",
          "name": "isBaseToken",
          "type": "bool"
        },
        {
          "indexed": false,
          "internalType": "uint256",
          "name": "amount",
          "type": "uint256"
        }
      ],
      "name": "ChargeMaintainerFee",
      "type": "event"
    },
    {
      "anonymous": false,
      "inputs": [
        {
          "indexed": true,
          "internalType": "address",
          "name": "user",
          "type": "address"
        },
        {
          "indexed": false,
          "internalType": "uint256",
          "name": "baseTokenAmount",
          "type": "uint256"
        },
        {
          "indexed": false,
          "internalType": "uint256",
          "name": "quoteTokenAmount",
          "type": "uint256"
        }
      ],
      "name": "ClaimAssets",
      "type": "event"
    },
    {
      "anonymous": false,
      "inputs": [
        {
          "indexed": true,
          "internalType": "address",
          "name": "trader",
          "type": "address"
        },
        {
          "indexed": false,
          "internalType": "uint256",
          "name": "amount",
          "type": "uint256"
        },
        {
          "indexed": false,
          "internalType": "int256",
          "name": "balance",
          "type": "int256"
        }
      ],
      "name": "Deposit",
      "type": "event"
    },
    {
      "anonymous": false,
      "inputs": [
        {
          "indexed": false,
          "internalType": "uint256",
          "name": "amount",
          "type": "uint256"
        }
      ],
      "name": "Donate",
      "type": "event"
    },
    {
      "anonymous": false,
      "inputs": [
        {
          "indexed": true,
          "internalType": "address",
          "name": "trader",
          "type": "address"
        },
        {
          "indexed": false,
          "internalType": "int256",
          "name": "amount",
          "type": "int256"
        },
        {
          "indexed": false,
          "internalType": "int256",
          "name": "balanceAfter",
          "type": "int256"
        }
      ],
      "name": "InternalUpdateBalance",
      "type": "event"
    },
    {
      "anonymous": false,
      "inputs": [
        {
          "indexed": true,
          "internalType": "address",
          "name": "trader",
          "type": "address"
        },
        {
          "indexed": true,
          "internalType": "address",
          "name": "liquidator",
          "type": "address"
        },
        {
          "indexed": false,
          "internalType": "enum Types.Side",
          "name": "liquidationSide",
          "type": "uint8"
        },
        {
          "indexed": false,
          "internalType": "uint256",
          "name": "liquidationValue",
          "type": "uint256"
        },
        {
          "indexed": false,
          "internalType": "uint256",
          "name": "liquidationAmount",
          "type": "uint256"
        }
      ],
      "name": "Liquidate",
      "type": "event"
    },
    {
      "anonymous": false,
      "inputs": [
        {
          "indexed": true,
          "internalType": "address",
          "name": "previousOwner",
          "type": "address"
        },
        {
          "indexed": true,
          "internalType": "address",
          "name": "newOwner",
          "type": "address"
        }
      ],
      "name": "OwnershipTransferPrepared",
      "type": "event"
    },
    {
      "anonymous": false,
      "inputs": [
        {
          "indexed": true,
          "internalType": "address",
          "name": "previousOwner",
          "type": "address"
        },
        {
          "indexed": true,
          "internalType": "address",
          "name": "newOwner",
          "type": "address"
        }
      ],
      "name": "OwnershipTransferred",
      "type": "event"
    },
    {
      "anonymous": false,
      "inputs": [
        {
          "indexed": true,
          "internalType": "address",
          "name": "seller",
          "type": "address"
        },
        {
          "indexed": false,
          "internalType": "uint256",
          "name": "payBase",
          "type": "uint256"
        },
        {
          "indexed": false,
          "internalType": "uint256",
          "name": "receiveQuote",
          "type": "uint256"
        }
      ],
      "name": "SellBaseToken",
      "type": "event"
    },
    {
      "anonymous": false,
      "inputs": [
        {
          "indexed": false,
          "internalType": "enum Types.Side",
          "name": "lossSide",
          "type": "uint8"
        },
        {
          "indexed": false,
          "internalType": "int256",
          "name": "sloss",
          "type": "int256"
        },
        {
          "indexed": false,
          "internalType": "uint256",
          "name": "totalSize",
          "type": "uint256"
        }
      ],
      "name": "SocialLossUpdate",
      "type": "event"
    },
    {
      "anonymous": false,
      "inputs": [
        {
          "indexed": true,
          "internalType": "address",
          "name": "trader",
          "type": "address"
        },
        {
          "indexed": false,
          "internalType": "uint256",
          "name": "amount",
          "type": "uint256"
        },
        {
          "indexed": false,
          "internalType": "int256",
          "name": "balance",
          "type": "int256"
        }
      ],
      "name": "Withdraw",
      "type": "event"
    },
    {
      "inputs": [],
      "name": "ADMIN",
      "outputs": [
        {
          "internalType": "contract Admin",
          "name": "",
          "type": "address"
        }
      ],
      "stateMutability": "view",
      "type": "function"
    },
    {
      "inputs": [],
      "name": "PRICING",
      "outputs": [
        {
          "internalType": "contract Pricing",
          "name": "",
          "type": "address"
        }
      ],
      "stateMutability": "view",
      "type": "function"
    },
    {
      "inputs": [],
      "name": "_BASE_BALANCE_",
      "outputs": [
        {
          "internalType": "uint256",
          "name": "",
          "type": "uint256"
        }
      ],
      "stateMutability": "view",
      "type": "function"
    },
    {
      "inputs": [],
      "name": "_COLLATERAL_POOL_TOKEN_",
      "outputs": [
        {
          "internalType": "address",
          "name": "",
          "type": "address"
        }
      ],
      "stateMutability": "view",
      "type": "function"
    },
    {
      "inputs": [
        {
          "internalType": "address",
          "name": "",
          "type": "address"
        }
      ],
      "name": "_MARGIN_ACCOUNT_",
      "outputs": [
        {
          "internalType": "enum Types.Side",
          "name": "SIDE",
          "type": "uint8"
        },
        {
          "internalType": "uint256",
          "name": "SIZE",
          "type": "uint256"
        },
        {
          "internalType": "uint256",
          "name": "ENTRY_VALUE",
          "type": "uint256"
        },
        {
          "internalType": "int256",
          "name": "CASH_BALANCE",
          "type": "int256"
        },
        {
          "internalType": "uint256",
          "name": "ENTRY_SLOSS",
          "type": "uint256"
        }
      ],
      "stateMutability": "view",
      "type": "function"
    },
    {
      "inputs": [],
      "name": "_NEW_OWNER_",
      "outputs": [
        {
          "internalType": "address",
          "name": "",
          "type": "address"
        }
      ],
      "stateMutability": "view",
      "type": "function"
    },
    {
      "inputs": [],
      "name": "_OWNER_",
      "outputs": [
        {
          "internalType": "address",
          "name": "",
          "type": "address"
        }
      ],
      "stateMutability": "view",
      "type": "function"
    },
    {
      "inputs": [],
      "name": "_POOL_INSURANCE_BALANCE_",
      "outputs": [
        {
          "internalType": "uint256",
          "name": "",
          "type": "uint256"
        }
      ],
      "stateMutability": "view",
      "type": "function"
    },
    {
      "inputs": [],
      "name": "_QUOTE_BALANCE_",
      "outputs": [
        {
          "internalType": "uint256",
          "name": "",
          "type": "uint256"
        }
      ],
      "stateMutability": "view",
      "type": "function"
    },
    {
      "inputs": [],
      "name": "_R_STATUS_",
      "outputs": [
        {
          "internalType": "enum Types.Side",
          "name": "",
          "type": "uint8"
        }
      ],
      "stateMutability": "view",
      "type": "function"
    },
    {
      "inputs": [
        {
          "internalType": "uint256",
          "name": "",
          "type": "uint256"
        }
      ],
      "name": "_SLOSS_PER_CONTRACT_",
      "outputs": [
        {
          "internalType": "uint256",
          "name": "",
          "type": "uint256"
        }
      ],
      "stateMutability": "view",
      "type": "function"
    },
    {
      "inputs": [],
      "name": "_TARGET_BASE_TOKEN_AMOUNT_",
      "outputs": [
        {
          "internalType": "uint256",
          "name": "",
          "type": "uint256"
        }
      ],
      "stateMutability": "view",
      "type": "function"
    },
    {
      "inputs": [],
      "name": "_TARGET_QUOTE_TOKEN_AMOUNT_",
      "outputs": [
        {
          "internalType": "uint256",
          "name": "",
          "type": "uint256"
        }
      ],
      "stateMutability": "view",
      "type": "function"
    },
    {
      "inputs": [],
      "name": "_TOTAL_LONG_SIZE_",
      "outputs": [
        {
          "internalType": "uint256",
          "name": "",
          "type": "uint256"
        }
      ],
      "stateMutability": "view",
      "type": "function"
    },
    {
      "inputs": [
        {
          "components": [
            {
              "internalType": "enum Types.Side",
              "name": "SIDE",
              "type": "uint8"
            },
            {
              "internalType": "uint256",
              "name": "SIZE",
              "type": "uint256"
            },
            {
              "internalType": "uint256",
              "name": "ENTRY_VALUE",
              "type": "uint256"
            },
            {
              "internalType": "int256",
              "name": "CASH_BALANCE",
              "type": "int256"
            },
            {
              "internalType": "uint256",
              "name": "ENTRY_SLOSS",
              "type": "uint256"
            }
          ],
          "internalType": "struct Types.MarginAccount",
          "name": "account",
          "type": "tuple"
        },
        {
          "internalType": "uint256",
          "name": "markPrice",
          "type": "uint256"
        }
      ],
      "name": "availableMargin",
      "outputs": [
        {
          "internalType": "int256",
          "name": "",
          "type": "int256"
        }
      ],
      "stateMutability": "view",
      "type": "function"
    },
    {
      "inputs": [
        {
          "components": [
            {
              "internalType": "enum Types.Side",
              "name": "SIDE",
              "type": "uint8"
            },
            {
              "internalType": "uint256",
              "name": "SIZE",
              "type": "uint256"
            },
            {
              "internalType": "uint256",
              "name": "ENTRY_VALUE",
              "type": "uint256"
            },
            {
              "internalType": "int256",
              "name": "CASH_BALANCE",
              "type": "int256"
            },
            {
              "internalType": "uint256",
              "name": "ENTRY_SLOSS",
              "type": "uint256"
            }
          ],
          "internalType": "struct Types.MarginAccount",
          "name": "account",
          "type": "tuple"
        }
      ],
      "name": "balanceMargin",
      "outputs": [
        {
          "internalType": "int256",
          "name": "",
          "type": "int256"
        }
      ],
      "stateMutability": "view",
      "type": "function"
    },
    {
      "inputs": [],
      "name": "claimOwnership",
      "outputs": [],
      "stateMutability": "nonpayable",
      "type": "function"
    },
    {
      "inputs": [
        {
          "internalType": "address",
          "name": "from",
          "type": "address"
        },
        {
          "internalType": "uint256",
          "name": "amount",
          "type": "uint256"
        }
      ],
      "name": "collateralTraderTransferIn",
      "outputs": [],
      "stateMutability": "nonpayable",
      "type": "function"
    },
    {
      "inputs": [
        {
          "internalType": "address",
          "name": "to",
          "type": "address"
        },
        {
          "internalType": "uint256",
          "name": "amount",
          "type": "uint256"
        }
      ],
      "name": "collateralTraderTransferOut",
      "outputs": [],
      "stateMutability": "nonpayable",
      "type": "function"
    },
    {
      "inputs": [],
      "name": "getPoolMarginCashBalance",
      "outputs": [
        {
          "internalType": "int256",
          "name": "",
          "type": "int256"
        }
      ],
      "stateMutability": "view",
      "type": "function"
    },
    {
      "inputs": [],
      "name": "getPoolMarginEntrySloss",
      "outputs": [
        {
          "internalType": "uint256",
          "name": "",
          "type": "uint256"
        }
      ],
      "stateMutability": "view",
      "type": "function"
    },
    {
      "inputs": [],
      "name": "getPoolMarginEntryValue",
      "outputs": [
        {
          "internalType": "uint256",
          "name": "",
          "type": "uint256"
        }
      ],
      "stateMutability": "view",
      "type": "function"
    },
    {
      "inputs": [],
      "name": "getPoolMarginSide",
      "outputs": [
        {
          "internalType": "enum Types.Side",
          "name": "",
          "type": "uint8"
        }
      ],
      "stateMutability": "view",
      "type": "function"
    },
    {
      "inputs": [],
      "name": "getPoolMarginSize",
      "outputs": [
        {
          "internalType": "uint256",
          "name": "",
          "type": "uint256"
        }
      ],
      "stateMutability": "view",
      "type": "function"
    },
    {
      "inputs": [],
      "name": "getSloss",
      "outputs": [
        {
          "internalType": "uint256[3]",
          "name": "",
          "type": "uint256[3]"
        }
      ],
      "stateMutability": "view",
      "type": "function"
    },
    {
      "inputs": [],
      "name": "getTotalSize",
      "outputs": [
        {
          "internalType": "uint256[3]",
          "name": "",
          "type": "uint256[3]"
        }
      ],
      "stateMutability": "view",
      "type": "function"
    },
    {
      "inputs": [
        {
          "internalType": "uint256",
          "name": "amount",
          "type": "uint256"
        },
        {
          "internalType": "uint256",
          "name": "markPrice",
          "type": "uint256"
        }
      ],
      "name": "initialMargin",
      "outputs": [
        {
          "internalType": "uint256",
          "name": "",
          "type": "uint256"
        }
      ],
      "stateMutability": "view",
      "type": "function"
    },
    {
      "inputs": [
        {
          "internalType": "address",
          "name": "trader",
          "type": "address"
        }
      ],
      "name": "isSafeMaintain",
      "outputs": [
        {
          "internalType": "bool",
          "name": "",
          "type": "bool"
        }
      ],
      "stateMutability": "view",
      "type": "function"
    },
    {
      "inputs": [
        {
          "components": [
            {
              "internalType": "enum Types.Side",
              "name": "SIDE",
              "type": "uint8"
            },
            {
              "internalType": "uint256",
              "name": "SIZE",
              "type": "uint256"
            },
            {
              "internalType": "uint256",
              "name": "ENTRY_VALUE",
              "type": "uint256"
            },
            {
              "internalType": "int256",
              "name": "CASH_BALANCE",
              "type": "int256"
            },
            {
              "internalType": "uint256",
              "name": "ENTRY_SLOSS",
              "type": "uint256"
            }
          ],
          "internalType": "struct Types.MarginAccount",
          "name": "account",
          "type": "tuple"
        },
        {
          "internalType": "uint256",
          "name": "openValue",
          "type": "uint256"
        }
      ],
      "name": "isSafeOpen",
      "outputs": [
        {
          "internalType": "bool",
          "name": "",
          "type": "bool"
        }
      ],
      "stateMutability": "view",
      "type": "function"
    },
    {
      "inputs": [
        {
          "internalType": "address",
          "name": "liquidator",
          "type": "address"
        },
        {
          "internalType": "address",
          "name": "trader",
          "type": "address"
        }
      ],
      "name": "liquidate",
      "outputs": [],
      "stateMutability": "nonpayable",
      "type": "function"
    },
    {
      "inputs": [
        {
          "internalType": "uint256",
          "name": "amount",
          "type": "uint256"
        },
        {
          "internalType": "uint256",
          "name": "markPrice",
          "type": "uint256"
        }
      ],
      "name": "maintenanceMargin",
      "outputs": [
        {
          "internalType": "uint256",
          "name": "",
          "type": "uint256"
        }
      ],
      "stateMutability": "view",
      "type": "function"
    },
    {
      "inputs": [
        {
          "internalType": "address",
          "name": "newOwner",
          "type": "address"
        }
      ],
      "name": "transferOwnership",
      "outputs": [],
      "stateMutability": "nonpayable",
      "type": "function"
    },
    {
      "inputs": [
        {
          "internalType": "uint256",
          "name": "amount",
          "type": "uint256"
        },
        {
          "internalType": "uint256",
          "name": "minReceiveQuote",
          "type": "uint256"
        }
      ],
      "name": "sellBaseToken",
      "outputs": [
        {
          "internalType": "uint256",
          "name": "",
          "type": "uint256"
        }
      ],
      "stateMutability": "nonpayable",
      "type": "function"
    },
    {
      "inputs": [
        {
          "internalType": "uint256",
          "name": "amount",
          "type": "uint256"
        },
        {
          "internalType": "uint256",
          "name": "maxPayQuote",
          "type": "uint256"
        }
      ],
      "name": "buyBaseToken",
      "outputs": [
        {
          "internalType": "uint256",
          "name": "",
          "type": "uint256"
        }
      ],
      "stateMutability": "nonpayable",
      "type": "function"
    }
  ],
  "bytecode": "0x6080604052600a805460ff1916905534801561001a57600080fd5b506131fd8061002a6000396000f3fe608060405234801561001057600080fd5b50600436106102065760003560e01c8063952d7c571161011a578063b4cab955116100ad578063da3a4c311161007c578063da3a4c31146103c9578063eab5d20e146103dc578063f2fde38b146103e4578063f9f8eda8146103f7578063fa6a5eae146103ff57610206565b8063b4cab9551461039e578063c4389351146103a6578063d38b5209146103ae578063d6b41298146103c157610206565b8063b192a3eb116100e9578063b192a3eb14610357578063b1e073661461035f578063b2094fd314610383578063b35b08e91461038b57610206565b8063952d7c5714610321578063a163805c14610334578063a51843ef1461033c578063a8b13ddf1461034f57610206565b80632efc6ee71161019d57806372decd7a1161016c57806372decd7a146102ee5780637c9b8e89146102f65780638456db15146102fe57806386b9d81f146103065780639103b8b71461031957610206565b80632efc6ee7146102ab57806338873925146102c05780634a2473c3146102d35780634e71e0c8146102e657610206565b806322d779cc116101d957806322d779cc1461027e578063245c9685146102935780632a0acc6a1461029b5780632b32812a146102a357610206565b80630be4cea91461020b57806313ddd8fb1461023457806316048bc41461025457806317be952e14610269575b600080fd5b61021e610219366004612b7c565b610412565b60405161022b9190612dae565b60405180910390f35b610247610242366004612a8e565b61044b565b60405161022b9190612d03565b61025c610567565b60405161022b9190612c81565b610271610576565b60405161022b9190612d0e565b61029161028c366004612afe565b61057f565b005b61021e61058d565b61025c610593565b61021e6105a2565b6102b36105b8565b60405161022b9190612cd2565b61021e6102ce366004612bbe565b610659565b61021e6102e1366004612b61565b6106f3565b6102916107a2565b61021e610839565b61021e61084f565b61025c610855565b610291610314366004612ac6565b610864565b61021e610a52565b61021e61032f366004612bbe565b610a68565b61025c6110a6565b61021e61034a366004612bbe565b6110b5565b61021e6115fd565b61025c611603565b61037261036d366004612a8e565b611612565b60405161022b959493929190612d80565b61021e611645565b61021e610399366004612bbe565b61164b565b61021e6116a8565b6102b36116be565b61021e6103bc366004612ba6565b6116f9565b61027161170d565b6102476103d7366004612b7c565b611723565b61021e61180c565b6102916103f2366004612a8e565b611812565b61021e6118bd565b61029161040d366004612afe565b6118c3565b600061044261042d610428856020015185610659565b6118cd565b610436856106f3565b9063ffffffff6118fa16565b90505b92915050565b6000610455612993565b6001600160a01b03831660009081526005602052604090819020815160a081019092528054829060ff16600281111561048a57fe5b600281111561049557fe5b815260200160018201548152602001600282015481526020016003820154815260200160048201548152505090506105546104288260200151600360009054906101000a90046001600160a01b03166001600160a01b031663ee27c6896040518163ffffffff1660e01b815260040160206040518083038186803b15801561051c57600080fd5b505afa158015610530573d6000803e3d6000fd5b505050506040513d601f19601f820116820180604052508101906103999190612b49565b61055d826106f3565b139150505b919050565b6000546001600160a01b031681565b600a5460ff1681565b6105898282611940565b5050565b60075481565b6002546001600160a01b031681565b3060009081526005602052604090206001015490565b6105c06129c3565b600060023060009081526005602052604090205460ff1660028111156105e257fe5b146106115730600090815260056020526040902060010154600b5461060c9163ffffffff611a3a16565b610636565b30600090815260056020526040902060010154600b546106369163ffffffff611a6216565b60408051606081018252600081526020810192909252600b549082015291505090565b60006104426106688385611a87565b600260009054906101000a90046001600160a01b03166001600160a01b03166398a0a53d6040518163ffffffff1660e01b815260040160206040518083038186803b1580156106b657600080fd5b505afa1580156106ca573d6000803e3d6000fd5b505050506040513d601f19601f820116820180604052508101906106ee9190612b49565b611a87565b600354815160208301516040808501516080860151915163b69437cd60e01b8152600095610445956001600160a01b039091169463b69437cd94610741949293919291839190600401612d80565b60206040518083038186803b15801561075957600080fd5b505afa15801561076d573d6000803e3d6000fd5b505050506040513d601f19601f820116820180604052508101906107919190612b49565b60608401519063ffffffff611ab116565b6001546001600160a01b031633146107d55760405162461bcd60e51b81526004016107cc90612db7565b60405180910390fd5b600154600080546040516001600160a01b0393841693909116917f8be0079c531659141344cd1fd0a4f28419497f9722a3daafe3b4186f6b6457e091a360018054600080546001600160a01b03199081166001600160a01b03841617909155169055565b3060009081526005602052604090206003015490565b60095481565b6001546001600160a01b031681565b61086d8161044b565b1561088a5760405162461bcd60e51b81526004016107cc90612fca565b610892612993565b6001600160a01b03831660009081526005602052604090819020815160a081019092528054829060ff1660028111156108c757fe5b60028111156108d257fe5b81526020016001820154815260200160028201548152602001600382015481526020016004820154815250509050610908612993565b6001600160a01b03831660009081526005602052604090819020815160a081019092528054829060ff16600281111561093d57fe5b600281111561094857fe5b815260200160018201548152602001600282015481526020016003820154815260200160048201548152505090506000600360009054906101000a90046001600160a01b03166001600160a01b0316634b0301a5836000015184602001516040518363ffffffff1660e01b81526004016109c3929190612d44565b60206040518083038186803b1580156109db57600080fd5b505afa1580156109ef573d6000803e3d6000fd5b505050506040513d601f19601f82011682018060405250810190610a139190612b49565b9050610a1f8382611723565b610a3b5760405162461bcd60e51b81526004016107cc90612ea5565b610a4b8585838560200151611af7565b5050505050565b3060009081526005602052604090206004015490565b600154600090600160a01b900460ff1615610a955760405162461bcd60e51b81526004016107cc90612e0c565b6001805460ff60a01b1916600160a01b17905582610ac55760405162461bcd60e51b81526004016107cc90612dde565b600260009054906101000a90046001600160a01b03166001600160a01b031663ee3dfe2b6040518163ffffffff1660e01b815260040160006040518083038186803b158015610b1357600080fd5b505afa158015610b27573d6000803e3d6000fd5b50505050600260009054906101000a90046001600160a01b03166001600160a01b031663961a929c6040518163ffffffff1660e01b815260040160006040518083038186803b158015610b7957600080fd5b505afa158015610b8d573d6000803e3d6000fd5b50505050610b996129e1565b60035460405163f0d8a75960e01b8152600091829182916001600160a01b03169063f0d8a75990610bce908a90600401612dae565b6101006040518083038186803b158015610be757600080fd5b505afa158015610bfb573d6000803e3d6000fd5b505050506040513d601f19601f82011682018060405250810190610c1f9190612bdf565b8b60208101604082016060830160808401856002811115610c3c57fe5b6002811115610c4757fe5b9052949094529390925250919052529194509250905085831015610c7d5760405162461bcd60e51b81526004016107cc906130a5565b610c85612993565b3360009081526005602052604090819020815160a081019092528054829060ff166002811115610cb157fe5b6002811115610cbc57fe5b81526020016001820154815260200160028201548152602001600382015481526020016004820154815250509050610cf2612993565b3060009081526005602052604090819020815160a081019092528054829060ff166002811115610d1e57fe5b6002811115610d2957fe5b81526020016001820154815260200160028201548152602001600382015481526020016004820154815250509050610d618286611723565b610d7d5760405162461bcd60e51b81526004016107cc90612edc565b610d8a826001878c6121f1565b9150610d99816002878c6121f1565b90508315610dd557610dbe610dad856118cd565b60608401519063ffffffff6118fa16565b6060830152610dcf610791856118cd565b60608201525b8215610f5357610de7610dad846118cd565b6060830152610eab610df8846118cd565b60056000600260009054906101000a90046001600160a01b03166001600160a01b0316634322ec836040518163ffffffff1660e01b815260040160206040518083038186803b158015610e4a57600080fd5b505afa158015610e5e573d6000803e3d6000fd5b505050506040513d601f19601f82011682018060405250810190610e829190612aaa565b6001600160a01b031681526020810191909152604001600020600301549063ffffffff611ab116565b60056000600260009054906101000a90046001600160a01b03166001600160a01b0316634322ec836040518163ffffffff1660e01b815260040160206040518083038186803b158015610efd57600080fd5b505afa158015610f11573d6000803e3d6000fd5b505050506040513d601f19601f82011682018060405250810190610f359190612aaa565b6001600160a01b031681526020810191909152604001600020600301555b3360009081526005602052604090208251815484929190829060ff19166001836002811115610f7e57fe5b0217905550602082015181600101556040820151816002015560608201518160030155608082015181600401559050508060056000306001600160a01b03166001600160a01b0316815260200190815260200160002060008201518160000160006101000a81548160ff02191690836002811115610ff857fe5b02179055506020820151816001015560408201518160020155606082015181600301556080820151816004015590505061104986600001518760200151886040015189606001518a608001516122bc565b336001600160a01b03167fd8648b6ac54162763c86fd54bf2005af8ecd2f9cb273a5775921fd7f91e17b2d8a8760405161108492919061317f565b60405180910390a250506001805460ff60a01b19169055509095945050505050565b6003546001600160a01b031681565b600154600090600160a01b900460ff16156110e25760405162461bcd60e51b81526004016107cc90612e0c565b6001805460ff60a01b1916600160a01b179055600254604080516347c7bf5960e11b815290516001600160a01b0390921691638f8f7eb291600480820192600092909190829003018186803b15801561113a57600080fd5b505afa15801561114e573d6000803e3d6000fd5b50505050600260009054906101000a90046001600160a01b03166001600160a01b031663961a929c6040518163ffffffff1660e01b815260040160006040518083038186803b1580156111a057600080fd5b505afa1580156111b4573d6000803e3d6000fd5b505050506111c06129e1565b6003546040516321d39cbb60e11b8152600091829182916001600160a01b0316906343a73976906111f5908a90600401612dae565b6101006040518083038186803b15801561120e57600080fd5b505afa158015611222573d6000803e3d6000fd5b505050506040513d601f19601f820116820180604052508101906112469190612bdf565b8b6020810160408201606083016080840185600281111561126357fe5b600281111561126e57fe5b90529490945293909252509190525291945092509050856112a582611299868663ffffffff611a6216565b9063ffffffff611a6216565b11156112c35760405162461bcd60e51b81526004016107cc9061312c565b6112cb612993565b3360009081526005602052604090819020815160a081019092528054829060ff1660028111156112f757fe5b600281111561130257fe5b81526020016001820154815260200160028201548152602001600382015481526020016004820154815250509050611338612993565b3060009081526005602052604090819020815160a081019092528054829060ff16600281111561136457fe5b600281111561136f57fe5b815260200160018201548152602001600282015481526020016003820154815260200160048201548152505090506113a78286611723565b6113c35760405162461bcd60e51b81526004016107cc90612edc565b6113d0826002878c6121f1565b91506113df816001878c6121f1565b9050831561140a576113f3610dad856118cd565b6060830152611404610791856118cd565b60608201525b82156114d55761141c610dad846118cd565b606083015261142d610df8846118cd565b60056000600260009054906101000a90046001600160a01b03166001600160a01b0316634322ec836040518163ffffffff1660e01b815260040160206040518083038186803b15801561147f57600080fd5b505afa158015611493573d6000803e3d6000fd5b505050506040513d601f19601f820116820180604052508101906114b79190612aaa565b6001600160a01b031681526020810191909152604001600020600301555b6114f686600001518760200151886040015189606001518a608001516122bc565b3360009081526005602052604090208251815484929190829060ff1916600183600281111561152157fe5b0217905550602082015181600101556040820151816002015560608201518160030155608082015181600401559050508060056000306001600160a01b03166001600160a01b0316815260200190815260200160002060008201518160000160006101000a81548160ff0219169083600281111561159b57fe5b0217905550602082015160018201556040808301516002830155606083015160038301556080909201516004909101555133907fe93ad76094f247c0dafc1c61adc2187de1ac2738f7a3b49cb20b2263420251a390611084908c90899061317f565b600b5481565b6004546001600160a01b031681565b6005602052600090815260409020805460018201546002830154600384015460049094015460ff90931693919290919085565b60065481565b600061044261165a8385611a87565b600260009054906101000a90046001600160a01b03166001600160a01b031663fe73ee736040518163ffffffff1660e01b815260040160206040518083038186803b1580156106b657600080fd5b3060009081526005602052604090206002015490565b6116c66129c3565b60408051606081019182905290600c9060039082845b8154815260200190600101908083116116dc575050505050905090565b600c816003811061170657fe5b0154905081565b3060009081526005602052604090205460ff1690565b600061177a61042883600260009054906101000a90046001600160a01b03166001600160a01b03166398a0a53d6040518163ffffffff1660e01b815260040160206040518083038186803b1580156106b657600080fd5b61180484600360009054906101000a90046001600160a01b03166001600160a01b031663ee27c6896040518163ffffffff1660e01b815260040160206040518083038186803b1580156117cc57600080fd5b505afa1580156117e0573d6000803e3d6000fd5b505050506040513d601f19601f820116820180604052508101906102199190612b49565b139392505050565b60085481565b6000546001600160a01b0316331461183c5760405162461bcd60e51b81526004016107cc90612fa7565b6001600160a01b0381166118625760405162461bcd60e51b81526004016107cc90612f80565b600080546040516001600160a01b03808516939216917fdcf55418cee3220104fef63f979ff3c4097ad240c0c43dcb33ce837748983e6291a3600180546001600160a01b0319166001600160a01b0392909216919091179055565b600f5481565b610589828261233f565b60006001600160ff1b038211156118f65760405162461bcd60e51b81526004016107cc906130dc565b5090565b600081830381831280159061190f5750838113155b80611924575060008312801561192457508381135b6104425760405162461bcd60e51b81526004016107cc90613017565b6119e3823083600260009054906101000a90046001600160a01b03166001600160a01b031663cb102dd26040518163ffffffff1660e01b815260040160206040518083038186803b15801561199457600080fd5b505afa1580156119a8573d6000803e3d6000fd5b505050506040513d601f19601f820116820180604052508101906119cc9190612aaa565b6001600160a01b031692919063ffffffff61242216565b611a176119ef826118cd565b6001600160a01b0384166000908152600560205260409020600301549063ffffffff611ab116565b6001600160a01b0390921660009081526005602052604090206003019190915550565b600082821115611a5c5760405162461bcd60e51b81526004016107cc90612f2e565b50900390565b6000828201838110156104425760405162461bcd60e51b81526004016107cc90612ff4565b6000670de0b6b3a7640000611aa2848463ffffffff61248016565b81611aa957fe5b049392505050565b6000828201818312801590611ac65750838112155b80611adb5750600083128015611adb57508381125b6104425760405162461bcd60e51b81526004016107cc90612e2f565b611aff612993565b6001600160a01b03851660009081526005602052604090819020815160a081019092528054829060ff166002811115611b3457fe5b6002811115611b3f57fe5b81526020016001820154815260200160028201548152602001600382015481526020016004820154815250509050611b75612993565b6001600160a01b03851660009081526005602052604090819020815160a081019092528054829060ff166002811115611baa57fe5b6002811115611bb557fe5b81526020016001820154815260200160028201548152602001600382015481526020016004820154815250509050611beb612993565b3060009081526005602052604090819020815160a081019092528054829060ff166002811115611c1757fe5b6002811115611c2257fe5b815260018201546020820152600282015460408201526003820154606082015260049091015460809091015282519091506000611c5e826124ba565b90506000611cf4610428600260009054906101000a90046001600160a01b03166001600160a01b031663f5cdd2026040518163ffffffff1660e01b815260040160206040518083038186803b158015611cb657600080fd5b505afa158015611cca573d6000803e3d6000fd5b505050506040513d601f19601f82011682018060405250810190611cee9190612b49565b8a611a87565b90506000611d8a610428600260009054906101000a90046001600160a01b03166001600160a01b03166311187e366040518163ffffffff1660e01b815260040160206040518083038186803b158015611d4c57600080fd5b505afa158015611d60573d6000803e3d6000fd5b505050506040513d601f19601f82011682018060405250810190611d849190612b49565b8b611a87565b9050611da086611d99866124ba565b8b8b6121f1565b9550611dae87858b8b6121f1565b9650611dc0828263ffffffff611ab116565b866060015112611e2757611de5816104368489606001516118fa90919063ffffffff16565b606080880191909152870151611e01908363ffffffff611ab116565b606080890191909152850151611e1d908263ffffffff611ab116565b6060860152612028565b81866060015112611e8c576060870151611e47908363ffffffff611ab116565b606080890191909152860151611e7890611e67908463ffffffff6118fa16565b60608701519063ffffffff611ab116565b606080870191909152600090870152612028565b81611eac611e9b600f546118cd565b60608901519063ffffffff611ab116565b12611f13576060870151611ec6908363ffffffff611ab116565b606080890191909152860151600090611ee690849063ffffffff6118fa16565b9050611f03611ef4826124f4565b600f549063ffffffff611a3a16565b600f555060006060870152612028565b6060870151611f28908363ffffffff611ab116565b8760600181815250506000611f62611f55611f44600f546118cd565b60608a01519063ffffffff611ab116565b849063ffffffff6118fa16565b6000600f81905560608901529050611f786129c3565b611f806105b8565b9050611faf611f8e836124f4565b82876002811115611f9b57fe5b60038110611fa557fe5b6020020151612516565b600c866002811115611fbd57fe5b60038110611fc757fe5b01805490910190557fe7c36d6fb87e3948a53ae9860b822817eeadf4473006f88cecd0180fcaae75ed858383826002811115611fff57fe5b6003811061200957fe5b602002015160405161201d93929190612d23565b60405180910390a150505b6001600160a01b038a1660009081526005602052604090208651815488929190829060ff1916600183600281111561205c57fe5b02179055506020820151816001015560408201518160020155606082015181600301556080820151816004015590505086600560008d6001600160a01b03166001600160a01b0316815260200190815260200160002060008201518160000160006101000a81548160ff021916908360028111156120d657fe5b02179055506020820151816001015560408201518160020155606082015181600301556080820151816004015590505060056000306001600160a01b03166001600160a01b031681526020019081526020016000206003015485606001511415612195573060009081526005602052604090208551815487929190829060ff1916600183600281111561216557fe5b02179055506020820151600182015560408201516002820155606082015160038201556080909101516004909101555b896001600160a01b03168b6001600160a01b03167f54f9b006b19a44694e56b0d6a57f34c420bf88da7373f9d0f3380e5f4b70951e868c8c6040516121dc93929190612d60565b60405180910390a35050505050505050505050565b6121f9612993565b6020850151600090839015801590612228575085600281111561221857fe5b8751600281111561222557fe5b14155b1561228d578660200151841161224e57612243878587612540565b96506000905061228d565b612260856106ee896020015187612516565b915061227187886020015184612540565b965061228a876020015185611a3a90919063ffffffff16565b90505b80156122b1576122ae8787836122a9898763ffffffff611a3a16565b612744565b96505b509495945050505050565b82600754146122cb5760078390555b84600654146122da5760068590555b83600854146122e95760088490555b81600954146122f85760098290555b80600281111561230457fe5b600a5460ff16600281111561231557fe5b14610a4b57600a805482919060ff1916600183600281111561233357fe5b02179055505050505050565b61237361234b826118cd565b6001600160a01b0384166000908152600560205260409020600301549063ffffffff6118fa16565b6001600160a01b0380841660009081526005602090815260409182902060030193909355600254815163658816e960e11b81529151610589948794879493169263cb102dd29260048083019392829003018186803b1580156123d457600080fd5b505afa1580156123e8573d6000803e3d6000fd5b505050506040513d601f19601f8201168201806040525081019061240c9190612aaa565b6001600160a01b0316919063ffffffff61283716565b61247a846323b872dd60e01b85858560405160240161244393929190612c95565b60408051601f198184030181529190526020810180516001600160e01b03166001600160e01b03199093169290921790915261285b565b50505050565b60008261248f57506000610445565b8282028284828161249c57fe5b04146104425760405162461bcd60e51b81526004016107cc9061315c565b600060028260028111156124ca57fe5b14156124d857506001610562565b60018260028111156124e657fe5b14156118f657506002610562565b6000808212156118f65760405162461bcd60e51b81526004016107cc90613106565b60006104428261253485670de0b6b3a764000063ffffffff61248016565b9063ffffffff61291216565b612548612993565b600083116125685760405162461bcd60e51b81526004016107cc90612f51565b6000808560200151851415612588575050604084015160808501516125b9565b61259e86604001516106ee87896020015161293f565b91506125b686608001516106ee87896020015161293f565b90505b60006125e2600c886000015160028111156125d057fe5b600381106125da57fe5b015487611a87565b600354885160405163b709a7fd60e01b81529293506000926001600160a01b039092169163b709a7fd916126209188908b9089908990600401612d80565b60206040518083038186803b15801561263857600080fd5b505afa15801561264c573d6000803e3d6000fd5b505050506040513d601f19601f820116820180604052508101906126709190612b49565b6060890151909150612688908263ffffffff611ab116565b6060890152604088015160208901516126ba91906106ee906126b0908b63ffffffff611a3a16565b8b6020015161293f565b6040890152608088015160208901516126e291906106ee906126b0908b63ffffffff611a3a16565b608089015260208801516126fc908863ffffffff611a3a16565b6020890181905261270c57600088525b60028851600281111561271b57fe5b141561273857600b54612734908863ffffffff611a3a16565b600b555b50959695505050505050565b61274c612993565b6000831161276c5760405162461bcd60e51b81526004016107cc90612dde565b6020850151612793578484600281111561278257fe5b9081600281111561278f57fe5b9052505b60208501516127a8908463ffffffff611a6216565b602086015260408501516127c2908363ffffffff611a6216565b60408601526127fe6127ed600c8660028111156127db57fe5b600381106127e557fe5b015485611a87565b60808701519063ffffffff611a6216565b6080860152600284600281111561281157fe5b141561282e57600b5461282a908463ffffffff611a6216565b600b555b50929392505050565b6128568363a9059cbb60e01b8484604051602401612443929190612cb9565b505050565b60006060836001600160a01b0316836040516128779190612c48565b6000604051808303816000865af19150503d80600081146128b4576040519150601f19603f3d011682016040523d82523d6000602084013e6128b9565b606091505b5091509150816128db5760405162461bcd60e51b81526004016107cc90612e70565b80511561247a57808060200190518101906128f69190612b29565b61247a5760405162461bcd60e51b81526004016107cc9061305b565b60008061291f8484612969565b90508281028403801561293757506001019050610445565b509050610445565b60006104428261295d85670de0b6b3a764000063ffffffff61248016565b9063ffffffff61296916565b600080821161298a5760405162461bcd60e51b81526004016107cc90612f06565b818381611aa957fe5b6040805160a081019091528060008152602001600081526020016000815260200160008152602001600081525090565b60405180606001604052806003906020820280368337509192915050565b6040518060a001604052806000815260200160008152602001600081526020016000815260200160006002811115612a1557fe5b905290565b600060a08284031215612a2b578081fd5b60405160a0810181811067ffffffffffffffff82111715612a4a578283fd5b6040529050808235612a5b816131ba565b80825250602083013560208201526040830135604082015260608301356060820152608083013560808201525092915050565b600060208284031215612a9f578081fd5b8135610442816131a5565b600060208284031215612abb578081fd5b8151610442816131a5565b60008060408385031215612ad8578081fd5b8235612ae3816131a5565b91506020830135612af3816131a5565b809150509250929050565b60008060408385031215612b10578182fd5b8235612b1b816131a5565b946020939093013593505050565b600060208284031215612b3a578081fd5b81518015158114610442578182fd5b600060208284031215612b5a578081fd5b5051919050565b600060a08284031215612b72578081fd5b6104428383612a1a565b60008060c08385031215612b8e578182fd5b612b988484612a1a565b9460a0939093013593505050565b600060208284031215612bb7578081fd5b5035919050565b60008060408385031215612bd0578182fd5b50508035926020909101359150565b600080600080600080600080610100898b031215612bfb578384fd5b885197506020890151965060408901519550606089015194506080890151935060a0890151925060c0890151915060e0890151612c37816131ba565b809150509295985092959890939650565b60008251815b81811015612c685760208186018101518583015201612c4e565b81811115612c765782828501525b509190910192915050565b6001600160a01b0391909116815260200190565b6001600160a01b039384168152919092166020820152604081019190915260600190565b6001600160a01b03929092168252602082015260400190565b60608101818360005b6003811015612cfa578151835260209283019290910190600101612cdb565b50505092915050565b901515815260200190565b60208101612d1b8361318d565b825292915050565b60608101612d3085613198565b938152602081019290925260409091015290565b60408101612d518461318d565b82528260208301529392505050565b60608101612d6d8561318d565b8252602082019390935260400152919050565b60a08101612d8d87613198565b95815260208101949094526040840192909252606083015260809091015290565b90815260200190565b6020808252600d908201526c494e56414c49445f434c41494d60981b604082015260600190565b6020808252601490820152731bdc195b8e881a5b9d985b1a5908185b5bdd5b9d60621b604082015260600190565b60208082526009908201526814915153951490539560ba1b604082015260600190565b60208082526021908201527f5369676e6564536166654d6174683a206164646974696f6e206f766572666c6f6040820152607760f81b606082015260800190565b6020808252818101527f5361666545524332303a206c6f772d6c6576656c2063616c6c206661696c6564604082015260600190565b6020808252601a908201527f4c495155494441544f525f4e4f545f454e4f5547485f46554e44000000000000604082015260600190565b60208082526010908201526f2727aa2fa9a0a322afaa27afa7a822a760811b604082015260600190565b6020808252600e908201526d2224ab24a224a723afa2a92927a960911b604082015260600190565b60208082526009908201526829aaa12fa2a92927a960b91b604082015260600190565b60208082526015908201527418db1bdcd94e881a5b9d985b1a5908185b5bdd5b9d605a1b604082015260600190565b6020808252600d908201526c24a72b20a624a22fa7aba722a960991b604082015260600190565b6020808252600990820152682727aa2fa7aba722a960b91b604082015260600190565b60208082526010908201526f29a0a322afaa27afa6a0a4a72a20a4a760811b604082015260600190565b60208082526009908201526820a2222fa2a92927a960b91b604082015260600190565b60208082526024908201527f5369676e6564536166654d6174683a207375627472616374696f6e206f766572604082015263666c6f7760e01b606082015260800190565b6020808252602a908201527f5361666545524332303a204552433230206f7065726174696f6e20646964206e6040820152691bdd081cdd58d8d9595960b21b606082015260800190565b6020808252601c908201527f53454c4c5f424153455f524543454956455f4e4f545f454e4f55474800000000604082015260600190565b60208082526010908201526f75696e74323536206f766572666c6f7760801b604082015260600190565b6020808252600c908201526b696e74206f766572666c6f7760a01b604082015260600190565b602080825260169082015275084aab2be8482a68abe869ea6a8bea89e9ebe9aaa86960531b604082015260600190565b60208082526009908201526826aaa62fa2a92927a960b91b604082015260600190565b918252602082015260400190565b806003811061056257fe5b600381106131a257fe5b50565b6001600160a01b03811681146131a257600080fd5b600381106131a257600080fdfea26469706673582212201a11e5ff38d07147e7a154d61fc0997a4ee471cea9fba7daebb5c2528602910964736f6c63430006090033",
  "immutableReferences": {},
  "source": "/*\n\n    Copyright 2020 DODO ZOO.\n    SPDX-License-Identifier: Apache-2.0\n\n*/\n\npragma solidity 0.6.9;\npragma experimental ABIEncoderV2;\n\nimport {SafeMath} from \"../lib/SafeMath.sol\";\nimport {SignedSafeMath} from \"../lib/SignedSafeMath.sol\";\nimport {DecimalMath} from \"../lib/DecimalMath.sol\";\nimport {Types} from \"../lib/Types.sol\";\nimport {Margin} from \"./Margin.sol\";\nimport {IERC20} from \"../interface/IERC20.sol\";\nimport {SafeERC20} from \"../lib/SafeERC20.sol\";\nimport {IAdmin} from \"../interface/IAdmin.sol\";\n\n/**\n * @title Trader\n * @author Parapara\n *\n * @notice Functions for trader operations\n */\ncontract Trader is Margin {\n    using SafeMath for uint256;\n    using SignedSafeMath for int256;\n    using SafeERC20 for IERC20;\n\n    // ============ Events ============\n\n    event SellBaseToken(\n        address indexed seller,\n        uint256 payBase,\n        uint256 receiveQuote\n    );\n\n    event BuyBaseToken(\n        address indexed buyer,\n        uint256 receiveBase,\n        uint256 payQuote\n    );\n\n    event ChargeMaintainerFee(\n        address indexed maintainer,\n        bool isBaseToken,\n        uint256 amount\n    );\n\n    // ============ Modifiers ============\n\n\n\n    // ============ Trade Functions ============\n    function sellBaseToken(\n        uint256 amount,\n        uint256 minReceiveQuote\n    )\n        external\n        preventReentrant\n        returns (uint256)\n    {\n        // query price\n        require(amount > 0, \"open: invalid amount\");\n        ADMIN.sellingAllowed();\n        ADMIN.gasPriceLimit();\n        Types.VirtualBalance memory updateBalance;\n        uint256 receiveQuote;\n        uint256 lpFeeQuote;\n        uint256 mtFeeQuote;\n        (\n        receiveQuote,\n        lpFeeQuote,\n        mtFeeQuote,\n        updateBalance.baseTarget,\n        updateBalance.baseBalance,\n        updateBalance.quoteTarget,\n        updateBalance.quoteBalance,\n        updateBalance.newSide\n        ) = PRICING._querySellBaseToken(amount);\n        require(\n            receiveQuote >= minReceiveQuote,\n            \"SELL_BASE_RECEIVE_NOT_ENOUGH\"\n        );\n\n        // settle assets\n\n        Types.MarginAccount memory traderAccount = _MARGIN_ACCOUNT_[msg.sender];\n        Types.MarginAccount memory poolAccount = _MARGIN_ACCOUNT_[address(this)];\n\n        require(isSafeOpen(traderAccount, receiveQuote), \"NOT_SAFE_TO_OPEN\"); // check traderAccount safety\n        traderAccount = trade(traderAccount, Types.Side.SHORT, receiveQuote, amount);\n        poolAccount = trade(poolAccount, Types.Side.LONG, receiveQuote, amount);\n\n\n        if (lpFeeQuote > 0) {\n            traderAccount.CASH_BALANCE = traderAccount.CASH_BALANCE.sub(lpFeeQuote.toint256());\n            poolAccount.CASH_BALANCE = traderAccount.CASH_BALANCE.add(lpFeeQuote.toint256());\n        }\n\n        if (mtFeeQuote > 0) {\n            traderAccount.CASH_BALANCE = traderAccount.CASH_BALANCE.sub(mtFeeQuote.toint256());\n            _MARGIN_ACCOUNT_[ADMIN._MAINTAINER_()].CASH_BALANCE = _MARGIN_ACCOUNT_[ADMIN._MAINTAINER_()].CASH_BALANCE.add(mtFeeQuote.toint256());\n        }\n\n        // update storage\n        _MARGIN_ACCOUNT_[msg.sender] = traderAccount;\n        _MARGIN_ACCOUNT_[address(this)] = poolAccount;\n        updateVirtualBalance(\n            updateBalance.baseTarget,\n            updateBalance.baseBalance,\n            updateBalance.quoteTarget,\n            updateBalance.quoteBalance,\n            updateBalance.newSide);\n\n        emit SellBaseToken(msg.sender, amount, receiveQuote);\n\n        return receiveQuote;\n    }\n\n    function buyBaseToken(\n        uint256 amount,\n        uint256 maxPayQuote\n    )\n        external\n        preventReentrant\n        returns (uint256)\n    {\n        ADMIN.buyingAllowed();\n        ADMIN.gasPriceLimit();\n        // query price\n        Types.VirtualBalance memory updateBalance;\n        uint256 payQuote;\n        uint256 lpFeeQuote;\n        uint256 mtFeeQuote;\n        (\n            payQuote,\n            lpFeeQuote,\n            mtFeeQuote,\n            updateBalance.baseTarget,\n            updateBalance.baseBalance,\n            updateBalance.quoteTarget,\n            updateBalance.quoteBalance,\n            updateBalance.newSide\n        ) = PRICING._queryBuyBaseToken(amount);\n        require(payQuote.add(lpFeeQuote).add(mtFeeQuote) <= maxPayQuote, \"BUY_BASE_COST_TOO_MUCH\");\n\n        // settle assets\n        Types.MarginAccount memory traderAccount = _MARGIN_ACCOUNT_[msg.sender];\n        Types.MarginAccount memory poolAccount = _MARGIN_ACCOUNT_[address(this)];\n        require(isSafeOpen(traderAccount, payQuote), \"NOT_SAFE_TO_OPEN\"); // check traderAccount safety\n        traderAccount = trade(traderAccount, Types.Side.LONG, payQuote, amount);\n        poolAccount = trade(poolAccount, Types.Side.SHORT, payQuote, amount);\n\n\n        if (lpFeeQuote > 0) {\n            traderAccount.CASH_BALANCE = traderAccount.CASH_BALANCE.sub(lpFeeQuote.toint256());\n            poolAccount.CASH_BALANCE = traderAccount.CASH_BALANCE.add(lpFeeQuote.toint256());\n        }\n        if (mtFeeQuote > 0) {\n             traderAccount.CASH_BALANCE = traderAccount.CASH_BALANCE.sub(mtFeeQuote.toint256());\n            _MARGIN_ACCOUNT_[ADMIN._MAINTAINER_()].CASH_BALANCE = _MARGIN_ACCOUNT_[ADMIN._MAINTAINER_()].CASH_BALANCE.add(mtFeeQuote.toint256());\n\n        }\n\n        // update storage\n        updateVirtualBalance(updateBalance.baseTarget, updateBalance.baseBalance, updateBalance.quoteTarget, updateBalance.quoteBalance, updateBalance.newSide);\n        _MARGIN_ACCOUNT_[msg.sender] = traderAccount;\n        _MARGIN_ACCOUNT_[address(this)] = poolAccount;\n        emit BuyBaseToken(msg.sender, amount, payQuote);\n\n        return payQuote;\n    }\n\n}\n",
  "sourcePath": "/Users/daniel/Codes/parapara/para_dapp_v6/contracts/perpetual/Trader.sol",
  "compiler": {
    "name": "solc",
    "version": "0.6.9+commit.3e3065ac.Emscripten.clang"
  },
  "schemaVersion": "3.3.4",
  "updatedAt": "2021-03-28T10:55:46.501Z",
  "devdoc": {
    "author": "Parapara",
    "methods": {},
    "title": "Trader"
  },
  "userdoc": {
    "methods": {},
    "notice": "Functions for trader operations"
  }
}