{
  "contractName": "Trader",
  "abi": [
    {
      "anonymous": false,
      "inputs": [
        {
          "indexed": true,
          "internalType": "address",
          "name": "buyer",
          "type": "address"
        },
        {
          "indexed": false,
          "internalType": "uint256",
          "name": "receiveBase",
          "type": "uint256"
        },
        {
          "indexed": false,
          "internalType": "uint256",
          "name": "payQuote",
          "type": "uint256"
        }
      ],
      "name": "BuyBaseToken",
      "type": "event"
    },
    {
      "anonymous": false,
      "inputs": [
        {
          "indexed": true,
          "internalType": "address",
          "name": "maintainer",
          "type": "address"
        },
        {
          "indexed": false,
          "internalType": "bool",
          "name": "isBaseToken",
          "type": "bool"
        },
        {
          "indexed": false,
          "internalType": "uint256",
          "name": "amount",
          "type": "uint256"
        }
      ],
      "name": "ChargeMaintainerFee",
      "type": "event"
    },
    {
      "anonymous": false,
      "inputs": [
        {
          "indexed": true,
          "internalType": "address",
          "name": "user",
          "type": "address"
        },
        {
          "indexed": false,
          "internalType": "uint256",
          "name": "baseTokenAmount",
          "type": "uint256"
        },
        {
          "indexed": false,
          "internalType": "uint256",
          "name": "quoteTokenAmount",
          "type": "uint256"
        }
      ],
      "name": "ClaimAssets",
      "type": "event"
    },
    {
      "anonymous": false,
      "inputs": [
        {
          "indexed": true,
          "internalType": "address",
          "name": "trader",
          "type": "address"
        },
        {
          "indexed": false,
          "internalType": "uint256",
          "name": "amount",
          "type": "uint256"
        },
        {
          "indexed": false,
          "internalType": "int256",
          "name": "balance",
          "type": "int256"
        }
      ],
      "name": "Deposit",
      "type": "event"
    },
    {
      "anonymous": false,
      "inputs": [
        {
          "indexed": false,
          "internalType": "uint256",
          "name": "amount",
          "type": "uint256"
        }
      ],
      "name": "Donate",
      "type": "event"
    },
    {
      "anonymous": false,
      "inputs": [
        {
          "indexed": true,
          "internalType": "address",
          "name": "trader",
          "type": "address"
        },
        {
          "indexed": false,
          "internalType": "int256",
          "name": "amount",
          "type": "int256"
        },
        {
          "indexed": false,
          "internalType": "int256",
          "name": "balanceAfter",
          "type": "int256"
        }
      ],
      "name": "InternalUpdateBalance",
      "type": "event"
    },
    {
      "anonymous": false,
      "inputs": [
        {
          "indexed": true,
          "internalType": "address",
          "name": "trader",
          "type": "address"
        },
        {
          "indexed": true,
          "internalType": "address",
          "name": "liquidator",
          "type": "address"
        },
        {
          "indexed": false,
          "internalType": "enum Types.Side",
          "name": "liquidationSide",
          "type": "uint8"
        },
        {
          "indexed": false,
          "internalType": "uint256",
          "name": "liquidationValue",
          "type": "uint256"
        },
        {
          "indexed": false,
          "internalType": "uint256",
          "name": "liquidationAmount",
          "type": "uint256"
        }
      ],
      "name": "Liquidate",
      "type": "event"
    },
    {
      "anonymous": false,
      "inputs": [
        {
          "indexed": true,
          "internalType": "address",
          "name": "previousOwner",
          "type": "address"
        },
        {
          "indexed": true,
          "internalType": "address",
          "name": "newOwner",
          "type": "address"
        }
      ],
      "name": "OwnershipTransferPrepared",
      "type": "event"
    },
    {
      "anonymous": false,
      "inputs": [
        {
          "indexed": true,
          "internalType": "address",
          "name": "previousOwner",
          "type": "address"
        },
        {
          "indexed": true,
          "internalType": "address",
          "name": "newOwner",
          "type": "address"
        }
      ],
      "name": "OwnershipTransferred",
      "type": "event"
    },
    {
      "anonymous": false,
      "inputs": [
        {
          "indexed": true,
          "internalType": "address",
          "name": "seller",
          "type": "address"
        },
        {
          "indexed": false,
          "internalType": "uint256",
          "name": "payBase",
          "type": "uint256"
        },
        {
          "indexed": false,
          "internalType": "uint256",
          "name": "receiveQuote",
          "type": "uint256"
        }
      ],
      "name": "SellBaseToken",
      "type": "event"
    },
    {
      "anonymous": false,
      "inputs": [
        {
          "indexed": true,
          "internalType": "address",
          "name": "trader",
          "type": "address"
        },
        {
          "indexed": false,
          "internalType": "uint256",
          "name": "amount",
          "type": "uint256"
        },
        {
          "indexed": false,
          "internalType": "int256",
          "name": "balance",
          "type": "int256"
        }
      ],
      "name": "Withdraw",
      "type": "event"
    },
    {
      "inputs": [],
      "name": "ADMIN",
      "outputs": [
        {
          "internalType": "contract Admin",
          "name": "",
          "type": "address"
        }
      ],
      "stateMutability": "view",
      "type": "function"
    },
    {
      "inputs": [],
      "name": "PRICING",
      "outputs": [
        {
          "internalType": "contract Pricing",
          "name": "",
          "type": "address"
        }
      ],
      "stateMutability": "view",
      "type": "function"
    },
    {
      "inputs": [],
      "name": "_BASE_BALANCE_",
      "outputs": [
        {
          "internalType": "uint256",
          "name": "",
          "type": "uint256"
        }
      ],
      "stateMutability": "view",
      "type": "function"
    },
    {
      "inputs": [],
      "name": "_COLLATERAL_POOL_TOKEN_",
      "outputs": [
        {
          "internalType": "address",
          "name": "",
          "type": "address"
        }
      ],
      "stateMutability": "view",
      "type": "function"
    },
    {
      "inputs": [
        {
          "internalType": "address",
          "name": "",
          "type": "address"
        }
      ],
      "name": "_MARGIN_ACCOUNT_",
      "outputs": [
        {
          "internalType": "enum Types.Side",
          "name": "SIDE",
          "type": "uint8"
        },
        {
          "internalType": "uint256",
          "name": "SIZE",
          "type": "uint256"
        },
        {
          "internalType": "uint256",
          "name": "ENTRY_VALUE",
          "type": "uint256"
        },
        {
          "internalType": "int256",
          "name": "CASH_BALANCE",
          "type": "int256"
        }
      ],
      "stateMutability": "view",
      "type": "function"
    },
    {
      "inputs": [],
      "name": "_NEW_OWNER_",
      "outputs": [
        {
          "internalType": "address",
          "name": "",
          "type": "address"
        }
      ],
      "stateMutability": "view",
      "type": "function"
    },
    {
      "inputs": [],
      "name": "_OWNER_",
      "outputs": [
        {
          "internalType": "address",
          "name": "",
          "type": "address"
        }
      ],
      "stateMutability": "view",
      "type": "function"
    },
    {
      "inputs": [],
      "name": "_POOL_INSURANCE_BALANCE_",
      "outputs": [
        {
          "internalType": "uint256",
          "name": "",
          "type": "uint256"
        }
      ],
      "stateMutability": "view",
      "type": "function"
    },
    {
      "inputs": [],
      "name": "_POOL_MARGIN_ACCOUNT_",
      "outputs": [
        {
          "internalType": "enum Types.Side",
          "name": "SIDE",
          "type": "uint8"
        },
        {
          "internalType": "uint256",
          "name": "SIZE",
          "type": "uint256"
        },
        {
          "internalType": "uint256",
          "name": "ENTRY_VALUE",
          "type": "uint256"
        },
        {
          "internalType": "int256",
          "name": "CASH_BALANCE",
          "type": "int256"
        }
      ],
      "stateMutability": "view",
      "type": "function"
    },
    {
      "inputs": [],
      "name": "_QUOTE_BALANCE_",
      "outputs": [
        {
          "internalType": "uint256",
          "name": "",
          "type": "uint256"
        }
      ],
      "stateMutability": "view",
      "type": "function"
    },
    {
      "inputs": [],
      "name": "_R_STATUS_",
      "outputs": [
        {
          "internalType": "enum Types.Side",
          "name": "",
          "type": "uint8"
        }
      ],
      "stateMutability": "view",
      "type": "function"
    },
    {
      "inputs": [],
      "name": "_TARGET_BASE_TOKEN_AMOUNT_",
      "outputs": [
        {
          "internalType": "uint256",
          "name": "",
          "type": "uint256"
        }
      ],
      "stateMutability": "view",
      "type": "function"
    },
    {
      "inputs": [],
      "name": "_TARGET_QUOTE_TOKEN_AMOUNT_",
      "outputs": [
        {
          "internalType": "uint256",
          "name": "",
          "type": "uint256"
        }
      ],
      "stateMutability": "view",
      "type": "function"
    },
    {
      "inputs": [
        {
          "components": [
            {
              "internalType": "enum Types.Side",
              "name": "SIDE",
              "type": "uint8"
            },
            {
              "internalType": "uint256",
              "name": "SIZE",
              "type": "uint256"
            },
            {
              "internalType": "uint256",
              "name": "ENTRY_VALUE",
              "type": "uint256"
            },
            {
              "internalType": "int256",
              "name": "CASH_BALANCE",
              "type": "int256"
            }
          ],
          "internalType": "struct Types.MarginAccount",
          "name": "account",
          "type": "tuple"
        },
        {
          "internalType": "uint256",
          "name": "markPrice",
          "type": "uint256"
        }
      ],
      "name": "availableMargin",
      "outputs": [
        {
          "internalType": "int256",
          "name": "",
          "type": "int256"
        }
      ],
      "stateMutability": "view",
      "type": "function"
    },
    {
      "inputs": [
        {
          "components": [
            {
              "internalType": "enum Types.Side",
              "name": "SIDE",
              "type": "uint8"
            },
            {
              "internalType": "uint256",
              "name": "SIZE",
              "type": "uint256"
            },
            {
              "internalType": "uint256",
              "name": "ENTRY_VALUE",
              "type": "uint256"
            },
            {
              "internalType": "int256",
              "name": "CASH_BALANCE",
              "type": "int256"
            }
          ],
          "internalType": "struct Types.MarginAccount",
          "name": "account",
          "type": "tuple"
        }
      ],
      "name": "balanceMargin",
      "outputs": [
        {
          "internalType": "int256",
          "name": "",
          "type": "int256"
        }
      ],
      "stateMutability": "view",
      "type": "function"
    },
    {
      "inputs": [],
      "name": "claimOwnership",
      "outputs": [],
      "stateMutability": "nonpayable",
      "type": "function"
    },
    {
      "inputs": [
        {
          "internalType": "address",
          "name": "from",
          "type": "address"
        },
        {
          "internalType": "uint256",
          "name": "amount",
          "type": "uint256"
        }
      ],
      "name": "collateralTraderTransferIn",
      "outputs": [],
      "stateMutability": "nonpayable",
      "type": "function"
    },
    {
      "inputs": [
        {
          "internalType": "address",
          "name": "to",
          "type": "address"
        },
        {
          "internalType": "uint256",
          "name": "amount",
          "type": "uint256"
        }
      ],
      "name": "collateralTraderTransferOut",
      "outputs": [],
      "stateMutability": "nonpayable",
      "type": "function"
    },
    {
      "inputs": [],
      "name": "getPoolMarginCashBalance",
      "outputs": [
        {
          "internalType": "int256",
          "name": "",
          "type": "int256"
        }
      ],
      "stateMutability": "view",
      "type": "function"
    },
    {
      "inputs": [],
      "name": "getPoolMarginEntryValue",
      "outputs": [
        {
          "internalType": "uint256",
          "name": "",
          "type": "uint256"
        }
      ],
      "stateMutability": "view",
      "type": "function"
    },
    {
      "inputs": [],
      "name": "getPoolMarginSide",
      "outputs": [
        {
          "internalType": "enum Types.Side",
          "name": "",
          "type": "uint8"
        }
      ],
      "stateMutability": "view",
      "type": "function"
    },
    {
      "inputs": [],
      "name": "getPoolMarginSize",
      "outputs": [
        {
          "internalType": "uint256",
          "name": "",
          "type": "uint256"
        }
      ],
      "stateMutability": "view",
      "type": "function"
    },
    {
      "inputs": [
        {
          "internalType": "uint256",
          "name": "amount",
          "type": "uint256"
        },
        {
          "internalType": "uint256",
          "name": "markPrice",
          "type": "uint256"
        }
      ],
      "name": "initialMargin",
      "outputs": [
        {
          "internalType": "uint256",
          "name": "",
          "type": "uint256"
        }
      ],
      "stateMutability": "view",
      "type": "function"
    },
    {
      "inputs": [
        {
          "internalType": "address",
          "name": "trader",
          "type": "address"
        }
      ],
      "name": "isSafeMaintain",
      "outputs": [
        {
          "internalType": "bool",
          "name": "",
          "type": "bool"
        }
      ],
      "stateMutability": "view",
      "type": "function"
    },
    {
      "inputs": [
        {
          "components": [
            {
              "internalType": "enum Types.Side",
              "name": "SIDE",
              "type": "uint8"
            },
            {
              "internalType": "uint256",
              "name": "SIZE",
              "type": "uint256"
            },
            {
              "internalType": "uint256",
              "name": "ENTRY_VALUE",
              "type": "uint256"
            },
            {
              "internalType": "int256",
              "name": "CASH_BALANCE",
              "type": "int256"
            }
          ],
          "internalType": "struct Types.MarginAccount",
          "name": "account",
          "type": "tuple"
        },
        {
          "internalType": "uint256",
          "name": "openValue",
          "type": "uint256"
        }
      ],
      "name": "isSafeOpen",
      "outputs": [
        {
          "internalType": "bool",
          "name": "",
          "type": "bool"
        }
      ],
      "stateMutability": "view",
      "type": "function"
    },
    {
      "inputs": [
        {
          "internalType": "address",
          "name": "liquidator",
          "type": "address"
        },
        {
          "internalType": "address",
          "name": "trader",
          "type": "address"
        }
      ],
      "name": "liquidate",
      "outputs": [],
      "stateMutability": "nonpayable",
      "type": "function"
    },
    {
      "inputs": [
        {
          "internalType": "uint256",
          "name": "amount",
          "type": "uint256"
        },
        {
          "internalType": "uint256",
          "name": "markPrice",
          "type": "uint256"
        }
      ],
      "name": "maintenanceMargin",
      "outputs": [
        {
          "internalType": "uint256",
          "name": "",
          "type": "uint256"
        }
      ],
      "stateMutability": "view",
      "type": "function"
    },
    {
      "inputs": [
        {
          "internalType": "address",
          "name": "newOwner",
          "type": "address"
        }
      ],
      "name": "transferOwnership",
      "outputs": [],
      "stateMutability": "nonpayable",
      "type": "function"
    },
    {
      "inputs": [
        {
          "internalType": "uint256",
          "name": "amount",
          "type": "uint256"
        },
        {
          "internalType": "uint256",
          "name": "minReceiveQuote",
          "type": "uint256"
        }
      ],
      "name": "sellBaseToken",
      "outputs": [
        {
          "internalType": "uint256",
          "name": "",
          "type": "uint256"
        }
      ],
      "stateMutability": "nonpayable",
      "type": "function"
    },
    {
      "inputs": [
        {
          "internalType": "uint256",
          "name": "amount",
          "type": "uint256"
        },
        {
          "internalType": "uint256",
          "name": "maxPayQuote",
          "type": "uint256"
        }
      ],
      "name": "buyBaseToken",
      "outputs": [
        {
          "internalType": "uint256",
          "name": "",
          "type": "uint256"
        }
      ],
      "stateMutability": "nonpayable",
      "type": "function"
    }
  ],
  "bytecode": "0x6080604052600e805460ff1916905534801561001a57600080fd5b50612bb18061002a6000396000f3fe608060405234801561001057600080fd5b50600436106101da5760003560e01c80638bc60bff11610104578063b35b08e9116100a2578063f2fde38b11610071578063f2fde38b1461036c578063f5027dd41461037f578063f9f8eda814610392578063fa6a5eae1461039a576101da565b8063b35b08e914610341578063b4cab95514610354578063d6b412981461035c578063eab5d20e14610364576101da565b8063a51843ef116100de578063a51843ef1461030b578063b192a3eb1461031e578063b1e0736614610326578063b2094fd314610339576101da565b80638bc60bff146102d8578063952d7c57146102f0578063a163805c14610303576101da565b80632b32812a1161017c57806372decd7a1161014b57806372decd7a146102ad5780637c9b8e89146102b55780638456db15146102bd57806386b9d81f146102c5576101da565b80632b32812a14610277578063319be7601461027f57806338873925146102925780634e71e0c8146102a5576101da565b806317be952e116101b857806317be952e1461023d57806322d779cc14610252578063245c9685146102675780632a0acc6a1461026f576101da565b80630e23d644146101df57806313ddd8fb1461020857806316048bc414610228575b600080fd5b6101f26101ed366004612589565b6103ad565b6040516101ff9190612792565b60405180910390f35b61021b6102163660046124b6565b610459565b6040516101ff91906126e2565b61023061056e565b6040516101ff9190612691565b61024561057d565b6040516101ff91906126ed565b610265610260366004612526565b610586565b005b6101f2610594565b61023061059a565b6101f26105a9565b6101f261028d3660046125a4565b6105af565b6101f26102a03660046125ce565b6105e3565b61026561067d565b6101f2610714565b6101f261071a565b610230610720565b6102656102d33660046124ee565b61072f565b6102e0610909565b6040516101ff949392919061273e565b6101f26102fe3660046125ce565b61091e565b610230610f04565b6101f26103193660046125ce565b610f13565b610230611403565b6102e06103343660046124b6565b611412565b6101f261143d565b6101f261034f3660046125ce565b611443565b6101f26114a0565b6102456114a6565b6101f26114af565b61026561037a3660046124b6565b6114b5565b61021b61038d3660046125a4565b611560565b6101f2611641565b6102656103a8366004612526565b611647565b60035481516020830151604080850151905163a3ffd1cb60e01b8152600094610451946001600160a01b039091169363a3ffd1cb936103f0938290600401612768565b60206040518083038186803b15801561040857600080fd5b505afa15801561041c573d6000803e3d6000fd5b505050506040513d601f19601f820116820180604052508101906104409190612571565b60608401519063ffffffff61165116565b90505b919050565b60006104636123ea565b6001600160a01b038316600090815260096020526040908190208151608081019092528054829060ff16600281111561049857fe5b60028111156104a357fe5b81526020016001820154815260200160028201548152602001600382015481525050905061055d6105588260200151600360009054906101000a90046001600160a01b03166001600160a01b031663ee27c6896040518163ffffffff1660e01b815260040160206040518083038186803b15801561052057600080fd5b505afa158015610534573d6000803e3d6000fd5b505050506040513d601f19601f8201168201806040525081019061034f9190612571565b611697565b610566826103ad565b139392505050565b6000546001600160a01b031681565b600e5460ff1681565b61059082826116c4565b5050565b600b5481565b6002546001600160a01b031681565b60065490565b60006105da6105c56105588560200151856105e3565b6105ce856103ad565b9063ffffffff6117be16565b90505b92915050565b60006105da6105f28385611804565b600260009054906101000a90046001600160a01b03166001600160a01b03166398a0a53d6040518163ffffffff1660e01b815260040160206040518083038186803b15801561064057600080fd5b505afa158015610654573d6000803e3d6000fd5b505050506040513d601f19601f820116820180604052508101906106789190612571565b611804565b6001546001600160a01b031633146106b05760405162461bcd60e51b81526004016106a79061279b565b60405180910390fd5b600154600080546040516001600160a01b0393841693909116917f8be0079c531659141344cd1fd0a4f28419497f9722a3daafe3b4186f6b6457e091a360018054600080546001600160a01b03199081166001600160a01b03841617909155169055565b60085490565b600d5481565b6001546001600160a01b031681565b61073881610459565b156107555760405162461bcd60e51b81526004016106a7906129ae565b61075d6123ea565b6001600160a01b038316600090815260096020526040908190208151608081019092528054829060ff16600281111561079257fe5b600281111561079d57fe5b8152602001600182015481526020016002820154815260200160038201548152505090506107c96123ea565b6001600160a01b038316600090815260096020526040908190208151608081019092528054829060ff1660028111156107fe57fe5b600281111561080957fe5b8152602001600182015481526020016002820154815260200160038201548152505090506000600360009054906101000a90046001600160a01b03166001600160a01b0316634b0301a5836000015184602001516040518363ffffffff1660e01b815260040161087a929190612702565b60206040518083038186803b15801561089257600080fd5b505afa1580156108a6573d6000803e3d6000fd5b505050506040513d601f19601f820116820180604052508101906108ca9190612571565b90506108d68382611560565b6108f25760405162461bcd60e51b81526004016106a790612889565b610902858583856020015161182e565b5050505050565b60055460065460075460085460ff9093169284565b600154600090600160a01b900460ff161561094b5760405162461bcd60e51b81526004016106a7906127f0565b6001805460ff60a01b1916600160a01b1790558261097b5760405162461bcd60e51b81526004016106a7906127c2565b600260009054906101000a90046001600160a01b03166001600160a01b031663ee3dfe2b6040518163ffffffff1660e01b815260040160006040518083038186803b1580156109c957600080fd5b505afa1580156109dd573d6000803e3d6000fd5b50505050600260009054906101000a90046001600160a01b03166001600160a01b031663961a929c6040518163ffffffff1660e01b815260040160006040518083038186803b158015610a2f57600080fd5b505afa158015610a43573d6000803e3d6000fd5b50505050610a4f612413565b60035460405163f0d8a75960e01b8152600091829182916001600160a01b03169063f0d8a75990610a84908a90600401612792565b6101006040518083038186803b158015610a9d57600080fd5b505afa158015610ab1573d6000803e3d6000fd5b505050506040513d601f19601f82011682018060405250810190610ad591906125ef565b8b60208101604082016060830160808401856002811115610af257fe5b6002811115610afd57fe5b9052949094529390925250919052529194509250905085831015610b335760405162461bcd60e51b81526004016106a790612a89565b610b3b6123ea565b33600090815260096020526040908190208151608081019092528054829060ff166002811115610b6757fe5b6002811115610b7257fe5b815260200160018201548152602001600282015481526020016003820154815250509050610b9e6123ea565b604080516080810190915260058054829060ff166002811115610bbd57fe5b6002811115610bc857fe5b815260200160018201548152602001600282015481526020016003820154815250509050610bf68286611560565b610c125760405162461bcd60e51b81526004016106a7906128c0565b610c1f826001878c611d2a565b9150610c2e816002878c611d2a565b90508315610c6a57610c53610c4285611697565b60608401519063ffffffff6117be16565b6060830152610c6461044085611697565b60608201525b8215610de857610c7c610c4284611697565b6060830152610d40610c8d84611697565b60096000600260009054906101000a90046001600160a01b03166001600160a01b0316634322ec836040518163ffffffff1660e01b815260040160206040518083038186803b158015610cdf57600080fd5b505afa158015610cf3573d6000803e3d6000fd5b505050506040513d601f19601f82011682018060405250810190610d1791906124d2565b6001600160a01b031681526020810191909152604001600020600301549063ffffffff61165116565b60096000600260009054906101000a90046001600160a01b03166001600160a01b0316634322ec836040518163ffffffff1660e01b815260040160206040518083038186803b158015610d9257600080fd5b505afa158015610da6573d6000803e3d6000fd5b505050506040513d601f19601f82011682018060405250810190610dca91906124d2565b6001600160a01b031681526020810191909152604001600020600301555b3360009081526009602052604090208251815484929190829060ff19166001836002811115610e1357fe5b021790555060208201518160010155604082015181600201556060820151816003015590505080600560008201518160000160006101000a81548160ff02191690836002811115610e6057fe5b0217905550602082015181600101556040820151816002015560608201518160030155905050610ea786600001518760200151886040015189606001518a60800151611df5565b336001600160a01b03167fd8648b6ac54162763c86fd54bf2005af8ecd2f9cb273a5775921fd7f91e17b2d8a87604051610ee2929190612b3d565b60405180910390a250506001805460ff60a01b19169055509095945050505050565b6003546001600160a01b031681565b600154600090600160a01b900460ff1615610f405760405162461bcd60e51b81526004016106a7906127f0565b6001805460ff60a01b1916600160a01b179055600254604080516347c7bf5960e11b815290516001600160a01b0390921691638f8f7eb291600480820192600092909190829003018186803b158015610f9857600080fd5b505afa158015610fac573d6000803e3d6000fd5b50505050600260009054906101000a90046001600160a01b03166001600160a01b031663961a929c6040518163ffffffff1660e01b815260040160006040518083038186803b158015610ffe57600080fd5b505afa158015611012573d6000803e3d6000fd5b5050505061101e612413565b6003546040516321d39cbb60e11b8152600091829182916001600160a01b0316906343a7397690611053908a90600401612792565b6101006040518083038186803b15801561106c57600080fd5b505afa158015611080573d6000803e3d6000fd5b505050506040513d601f19601f820116820180604052508101906110a491906125ef565b8b602081016040820160608301608084018560028111156110c157fe5b60028111156110cc57fe5b9052949094529390925250919052529194509250905085611103826110f7868663ffffffff611e7816565b9063ffffffff611e7816565b11156111215760405162461bcd60e51b81526004016106a790612aea565b6111296123ea565b33600090815260096020526040908190208151608081019092528054829060ff16600281111561115557fe5b600281111561116057fe5b81526020016001820154815260200160028201548152602001600382015481525050905061118c6123ea565b604080516080810190915260058054829060ff1660028111156111ab57fe5b60028111156111b657fe5b8152602001600182015481526020016002820154815260200160038201548152505090506111e48286611560565b6112005760405162461bcd60e51b81526004016106a7906128c0565b61120d826002878c611d2a565b915061121c816001878c611d2a565b9050831561124757611230610c4285611697565b606083015261124161044085611697565b60608201525b821561131257611259610c4284611697565b606083015261126a610c8d84611697565b60096000600260009054906101000a90046001600160a01b03166001600160a01b0316634322ec836040518163ffffffff1660e01b815260040160206040518083038186803b1580156112bc57600080fd5b505afa1580156112d0573d6000803e3d6000fd5b505050506040513d601f19601f820116820180604052508101906112f491906124d2565b6001600160a01b031681526020810191909152604001600020600301555b61133386600001518760200151886040015189606001518a60800151611df5565b3360009081526009602052604090208251815484929190829060ff1916600183600281111561135e57fe5b021790555060208201518160010155604082015181600201556060820151816003015590505080600560008201518160000160006101000a81548160ff021916908360028111156113ab57fe5b02179055506020820151600182015560408083015160028301556060909201516003909101555133907fe93ad76094f247c0dafc1c61adc2187de1ac2738f7a3b49cb20b2263420251a390610ee2908c908990612b3d565b6004546001600160a01b031681565b600960205260009081526040902080546001820154600283015460039093015460ff90921692909184565b600a5481565b60006105da6114528385611804565b600260009054906101000a90046001600160a01b03166001600160a01b031663fe73ee736040518163ffffffff1660e01b815260040160206040518083038186803b15801561064057600080fd5b60075490565b60055460ff1690565b600c5481565b6000546001600160a01b031633146114df5760405162461bcd60e51b81526004016106a79061298b565b6001600160a01b0381166115055760405162461bcd60e51b81526004016106a790612964565b600080546040516001600160a01b03808516939216917fdcf55418cee3220104fef63f979ff3c4097ad240c0c43dcb33ce837748983e6291a3600180546001600160a01b0319166001600160a01b0392909216919091179055565b60006115b761055883600260009054906101000a90046001600160a01b03166001600160a01b03166398a0a53d6040518163ffffffff1660e01b815260040160206040518083038186803b15801561064057600080fd5b61056684600360009054906101000a90046001600160a01b03166001600160a01b031663ee27c6896040518163ffffffff1660e01b815260040160206040518083038186803b15801561160957600080fd5b505afa15801561161d573d6000803e3d6000fd5b505050506040513d601f19601f8201168201806040525081019061028d9190612571565b600f5481565b6105908282611e9d565b60008282018183128015906116665750838112155b8061167b575060008312801561167b57508381125b6105da5760405162461bcd60e51b81526004016106a790612813565b60006001600160ff1b038211156116c05760405162461bcd60e51b81526004016106a790612ac0565b5090565b611767823083600260009054906101000a90046001600160a01b03166001600160a01b031663cb102dd26040518163ffffffff1660e01b815260040160206040518083038186803b15801561171857600080fd5b505afa15801561172c573d6000803e3d6000fd5b505050506040513d601f19601f8201168201806040525081019061175091906124d2565b6001600160a01b031692919063ffffffff611f8016565b61179b61177382611697565b6001600160a01b0384166000908152600960205260409020600301549063ffffffff61165116565b6001600160a01b0390921660009081526009602052604090206003019190915550565b60008183038183128015906117d35750838113155b806117e857506000831280156117e857508381135b6105da5760405162461bcd60e51b81526004016106a7906129fb565b6000670de0b6b3a764000061181f848463ffffffff611fde16565b8161182657fe5b049392505050565b6118366123ea565b6001600160a01b038516600090815260096020526040908190208151608081019092528054829060ff16600281111561186b57fe5b600281111561187657fe5b8152602001600182015481526020016002820154815260200160038201548152505090506118a26123ea565b6001600160a01b038516600090815260096020526040908190208151608081019092528054829060ff1660028111156118d757fe5b60028111156118e257fe5b81526020016001820154815260200160028201548152602001600382015481525050905061190e6123ea565b604080516080810190915260058054829060ff16600281111561192d57fe5b600281111561193857fe5b81526020016001820154815260200160028201548152602001600382015481525050905060008260000151905060006119f9610558600260009054906101000a90046001600160a01b03166001600160a01b031663f5cdd2026040518163ffffffff1660e01b815260040160206040518083038186803b1580156119bb57600080fd5b505afa1580156119cf573d6000803e3d6000fd5b505050506040513d601f19601f820116820180604052508101906119f39190612571565b89611804565b90506000611a8f610558600260009054906101000a90046001600160a01b03166001600160a01b03166311187e366040518163ffffffff1660e01b815260040160206040518083038186803b158015611a5157600080fd5b505afa158015611a65573d6000803e3d6000fd5b505050506040513d601f19601f82011682018060405250810190611a899190612571565b8a611804565b9050611aa585611a9e85612018565b8a8a611d2a565b9450611ab386848a8a611d2a565b9550611ac5828263ffffffff61165116565b856060015112611b2c57611aea816105ce8488606001516117be90919063ffffffff16565b606080870191909152860151611b06908363ffffffff61165116565b606080880191909152840151611b22908263ffffffff61165116565b6060850152611bb6565b81856060015112611b91576060850151611b6190611b50908463ffffffff6117be16565b60608601519063ffffffff61165116565b606080860191909152860151611b7d908363ffffffff61165116565b606080880191909152600090860152611bb6565b6000856060015112611bb65760608086015190870151611b7d9163ffffffff61165116565b6001600160a01b03891660009081526009602052604090208551815487929190829060ff19166001836002811115611bea57fe5b021790555060208201518160010155604082015181600201556060820151816003015590505085600960008c6001600160a01b03166001600160a01b0316815260200190815260200160002060008201518160000160006101000a81548160ff02191690836002811115611c5a57fe5b02179055506020820151600182015560408201516002820155606091820151600390910155600854908501511415611ccf57835160058054869290829060ff19166001836002811115611ca957fe5b021790555060208201516001820155604082015160028201556060909101516003909101555b886001600160a01b03168a6001600160a01b03167f54f9b006b19a44694e56b0d6a57f34c420bf88da7373f9d0f3380e5f4b70951e858b8b604051611d169392919061271e565b60405180910390a350505050505050505050565b611d326123ea565b6020850151600090839015801590611d615750856002811115611d5157fe5b87516002811115611d5e57fe5b14155b15611dc65786602001518411611d8757611d7c878587612052565b965060009050611dc6565b611d99856106788960200151876121b0565b9150611daa87886020015184612052565b9650611dc38760200151856121da90919063ffffffff16565b90505b8015611dea57611de7878783611de2898763ffffffff6121da16565b612202565b96505b509495945050505050565b82600b5414611e0457600b8390555b84600a5414611e1357600a8590555b83600c5414611e2257600c8490555b81600d5414611e3157600d8290555b806002811115611e3d57fe5b600e5460ff166002811115611e4e57fe5b1461090257600e805482919060ff19166001836002811115611e6c57fe5b02179055505050505050565b6000828201838110156105da5760405162461bcd60e51b81526004016106a7906129d8565b611ed1611ea982611697565b6001600160a01b0384166000908152600960205260409020600301549063ffffffff6117be16565b6001600160a01b0380841660009081526009602090815260409182902060030193909355600254815163658816e960e11b81529151610590948794879493169263cb102dd29260048083019392829003018186803b158015611f3257600080fd5b505afa158015611f46573d6000803e3d6000fd5b505050506040513d601f19601f82011682018060405250810190611f6a91906124d2565b6001600160a01b0316919063ffffffff61228e16565b611fd8846323b872dd60e01b858585604051602401611fa1939291906126a5565b60408051601f198184030181529190526020810180516001600160e01b03166001600160e01b0319909316929092179091526122b2565b50505050565b600082611fed575060006105dd565b82820282848281611ffa57fe5b04146105da5760405162461bcd60e51b81526004016106a790612b1a565b6000600282600281111561202857fe5b141561203657506001610454565b600182600281111561204457fe5b14156116c057506002610454565b61205a6123ea565b6000831161207a5760405162461bcd60e51b81526004016106a790612935565b60008460200151841415612093575060408401516120ac565b6120a98560400151610678868860200151612369565b90505b6003548551604051632d50ce1d60e21b81526000926001600160a01b03169163b5433874916120e291908690899060040161271e565b60206040518083038186803b1580156120fa57600080fd5b505afa15801561210e573d6000803e3d6000fd5b505050506040513d601f19601f820116820180604052508101906121329190612571565b606087015190915061214a908263ffffffff61165116565b60608701526040860151602087015161217c919061067890612172908963ffffffff6121da16565b8960200151612369565b60408701526020860151612196908663ffffffff6121da16565b602087018190526121a657600086525b5093949350505050565b60006105da826121ce85670de0b6b3a764000063ffffffff611fde16565b9063ffffffff61239316565b6000828211156121fc5760405162461bcd60e51b81526004016106a790612912565b50900390565b61220a6123ea565b6000831161222a5760405162461bcd60e51b81526004016106a7906127c2565b6020850151612251578484600281111561224057fe5b9081600281111561224d57fe5b9052505b6020850151612266908463ffffffff611e7816565b60208601526040850151612280908363ffffffff611e7816565b604086015250929392505050565b6122ad8363a9059cbb60e01b8484604051602401611fa19291906126c9565b505050565b60006060836001600160a01b0316836040516122ce9190612658565b6000604051808303816000865af19150503d806000811461230b576040519150601f19603f3d011682016040523d82523d6000602084013e612310565b606091505b5091509150816123325760405162461bcd60e51b81526004016106a790612854565b805115611fd8578080602001905181019061234d9190612551565b611fd85760405162461bcd60e51b81526004016106a790612a3f565b60006105da8261238785670de0b6b3a764000063ffffffff611fde16565b9063ffffffff6123c016565b6000806123a084846123c0565b9050828102840380156123b8575060010190506105dd565b5090506105dd565b60008082116123e15760405162461bcd60e51b81526004016106a7906128ea565b81838161182657fe5b604080516080810190915280600081526020016000815260200160008152602001600081525090565b6040518060a00160405280600081526020016000815260200160008152602001600081526020016000600281111561244757fe5b905290565b60006080828403121561245d578081fd5b6040516080810181811067ffffffffffffffff8211171561247c578283fd5b604052905080823561248d81612b6e565b808252506020830135602082015260408301356040820152606083013560608201525092915050565b6000602082840312156124c7578081fd5b81356105da81612b56565b6000602082840312156124e3578081fd5b81516105da81612b56565b60008060408385031215612500578081fd5b823561250b81612b56565b9150602083013561251b81612b56565b809150509250929050565b60008060408385031215612538578182fd5b823561254381612b56565b946020939093013593505050565b600060208284031215612562578081fd5b815180151581146105da578182fd5b600060208284031215612582578081fd5b5051919050565b60006080828403121561259a578081fd5b6105da838361244c565b60008060a083850312156125b6578182fd5b6125c0848461244c565b946080939093013593505050565b600080604083850312156125e0578182fd5b50508035926020909101359150565b600080600080600080600080610100898b03121561260b578384fd5b885197506020890151965060408901519550606089015194506080890151935060a0890151925060c0890151915060e089015161264781612b6e565b809150509295985092959890939650565b60008251815b81811015612678576020818601810151858301520161265e565b818111156126865782828501525b509190910192915050565b6001600160a01b0391909116815260200190565b6001600160a01b039384168152919092166020820152604081019190915260600190565b6001600160a01b03929092168252602082015260400190565b901515815260200190565b602081016126fa83612b4b565b825292915050565b6040810161270f84612b4b565b82528260208301529392505050565b6060810161272b85612b4b565b8252602082019390935260400152919050565b608081016003861061274c57fe5b9481526020810193909352604083019190915260609091015290565b6080810161277586612b4b565b825284602083015283604083015282606083015295945050505050565b90815260200190565b6020808252600d908201526c494e56414c49445f434c41494d60981b604082015260600190565b6020808252601490820152731bdc195b8e881a5b9d985b1a5908185b5bdd5b9d60621b604082015260600190565b60208082526009908201526814915153951490539560ba1b604082015260600190565b60208082526021908201527f5369676e6564536166654d6174683a206164646974696f6e206f766572666c6f6040820152607760f81b606082015260800190565b6020808252818101527f5361666545524332303a206c6f772d6c6576656c2063616c6c206661696c6564604082015260600190565b6020808252601a908201527f4c495155494441544f525f4e4f545f454e4f5547485f46554e44000000000000604082015260600190565b60208082526010908201526f2727aa2fa9a0a322afaa27afa7a822a760811b604082015260600190565b6020808252600e908201526d2224ab24a224a723afa2a92927a960911b604082015260600190565b60208082526009908201526829aaa12fa2a92927a960b91b604082015260600190565b60208082526015908201527418db1bdcd94e881a5b9d985b1a5908185b5bdd5b9d605a1b604082015260600190565b6020808252600d908201526c24a72b20a624a22fa7aba722a960991b604082015260600190565b6020808252600990820152682727aa2fa7aba722a960b91b604082015260600190565b60208082526010908201526f29a0a322afaa27afa6a0a4a72a20a4a760811b604082015260600190565b60208082526009908201526820a2222fa2a92927a960b91b604082015260600190565b60208082526024908201527f5369676e6564536166654d6174683a207375627472616374696f6e206f766572604082015263666c6f7760e01b606082015260800190565b6020808252602a908201527f5361666545524332303a204552433230206f7065726174696f6e20646964206e6040820152691bdd081cdd58d8d9595960b21b606082015260800190565b6020808252601c908201527f53454c4c5f424153455f524543454956455f4e4f545f454e4f55474800000000604082015260600190565b60208082526010908201526f75696e74323536206f766572666c6f7760801b604082015260600190565b602080825260169082015275084aab2be8482a68abe869ea6a8bea89e9ebe9aaa86960531b604082015260600190565b60208082526009908201526826aaa62fa2a92927a960b91b604082015260600190565b918252602082015260400190565b806003811061045457fe5b6001600160a01b0381168114612b6b57600080fd5b50565b60038110612b6b57600080fdfea264697066735822122054e7167e5b2b521edfc74f11efaa565f2f91744e014de2107f7b48f3947283a964736f6c63430006090033",
  "immutableReferences": {},
  "source": "/*\n\n    Copyright 2020 DODO ZOO.\n    SPDX-License-Identifier: Apache-2.0\n\n*/\n\npragma solidity 0.6.9;\npragma experimental ABIEncoderV2;\n\nimport {SafeMath} from \"../lib/SafeMath.sol\";\nimport {SignedSafeMath} from \"../lib/SignedSafeMath.sol\";\nimport {DecimalMath} from \"../lib/DecimalMath.sol\";\nimport {Types} from \"../lib/Types.sol\";\nimport {Margin} from \"./Margin.sol\";\nimport {IERC20} from \"../interface/IERC20.sol\";\nimport {SafeERC20} from \"../lib/SafeERC20.sol\";\nimport {IAdmin} from \"../interface/IAdmin.sol\";\n\n/**\n * @title Trader\n * @author Parapara\n *\n * @notice Functions for trader operations\n */\ncontract Trader is Margin {\n    using SafeMath for uint256;\n    using SignedSafeMath for int256;\n    using SafeERC20 for IERC20;\n\n    // ============ Events ============\n\n    event SellBaseToken(\n        address indexed seller,\n        uint256 payBase,\n        uint256 receiveQuote\n    );\n\n    event BuyBaseToken(\n        address indexed buyer,\n        uint256 receiveBase,\n        uint256 payQuote\n    );\n\n    event ChargeMaintainerFee(\n        address indexed maintainer,\n        bool isBaseToken,\n        uint256 amount\n    );\n\n    // ============ Modifiers ============\n\n\n\n    // ============ Trade Functions ============\n    function sellBaseToken(\n        uint256 amount,\n        uint256 minReceiveQuote\n    )\n        external\n        preventReentrant\n        returns (uint256)\n    {\n        // query price\n        require(amount > 0, \"open: invalid amount\");\n        ADMIN.sellingAllowed();\n        ADMIN.gasPriceLimit();\n        Types.VirtualBalance memory updateBalance;\n        uint256 receiveQuote;\n        uint256 lpFeeQuote;\n        uint256 mtFeeQuote;\n        (\n        receiveQuote,\n        lpFeeQuote,\n        mtFeeQuote,\n        updateBalance.baseTarget,\n        updateBalance.baseBalance,\n        updateBalance.quoteTarget,\n        updateBalance.quoteBalance,\n        updateBalance.newSide\n        ) = PRICING._querySellBaseToken(amount);\n        require(\n            receiveQuote >= minReceiveQuote,\n            \"SELL_BASE_RECEIVE_NOT_ENOUGH\"\n        );\n\n        // settle assets\n\n        Types.MarginAccount memory traderAccount = _MARGIN_ACCOUNT_[msg.sender];\n        Types.MarginAccount memory poolAccount = _POOL_MARGIN_ACCOUNT_;\n\n        require(isSafeOpen(traderAccount, receiveQuote), \"NOT_SAFE_TO_OPEN\"); // check traderAccount safety\n\n        traderAccount = trade(traderAccount, Types.Side.SHORT, receiveQuote, amount);\n        poolAccount = trade(poolAccount, Types.Side.LONG, receiveQuote, amount);\n\n        if (lpFeeQuote > 0) {\n            traderAccount.CASH_BALANCE = traderAccount.CASH_BALANCE.sub(lpFeeQuote.toint256());\n            poolAccount.CASH_BALANCE = traderAccount.CASH_BALANCE.add(lpFeeQuote.toint256());\n        }\n\n        if (mtFeeQuote > 0) {\n            traderAccount.CASH_BALANCE = traderAccount.CASH_BALANCE.sub(mtFeeQuote.toint256());\n            _MARGIN_ACCOUNT_[ADMIN._MAINTAINER_()].CASH_BALANCE = _MARGIN_ACCOUNT_[ADMIN._MAINTAINER_()].CASH_BALANCE.add(mtFeeQuote.toint256());\n        }\n\n        // update storage\n        _MARGIN_ACCOUNT_[msg.sender] = traderAccount;\n        _POOL_MARGIN_ACCOUNT_ = poolAccount;\n        updateVirtualBalance(\n            updateBalance.baseTarget,\n            updateBalance.baseBalance,\n            updateBalance.quoteTarget,\n            updateBalance.quoteBalance,\n            updateBalance.newSide);\n\n        emit SellBaseToken(msg.sender, amount, receiveQuote);\n\n        return receiveQuote;\n    }\n\n    function buyBaseToken(\n        uint256 amount,\n        uint256 maxPayQuote\n    )\n        external\n        preventReentrant\n        returns (uint256)\n    {\n        ADMIN.buyingAllowed();\n        ADMIN.gasPriceLimit();\n        // query price\n        Types.VirtualBalance memory updateBalance;\n        uint256 payQuote;\n        uint256 lpFeeQuote;\n        uint256 mtFeeQuote;\n        (\n            payQuote,\n            lpFeeQuote,\n            mtFeeQuote,\n            updateBalance.baseTarget,\n            updateBalance.baseBalance,\n            updateBalance.quoteTarget,\n            updateBalance.quoteBalance,\n            updateBalance.newSide\n        ) = PRICING._queryBuyBaseToken(amount);\n        require(payQuote.add(lpFeeQuote).add(mtFeeQuote) <= maxPayQuote, \"BUY_BASE_COST_TOO_MUCH\");\n\n        // settle assets\n        Types.MarginAccount memory traderAccount = _MARGIN_ACCOUNT_[msg.sender];\n        Types.MarginAccount memory poolAccount = _POOL_MARGIN_ACCOUNT_;\n        require(isSafeOpen(traderAccount, payQuote), \"NOT_SAFE_TO_OPEN\"); // check traderAccount safety\n        traderAccount = trade(traderAccount, Types.Side.LONG, payQuote, amount);\n        poolAccount = trade(poolAccount, Types.Side.SHORT, payQuote, amount);\n\n\n        if (lpFeeQuote > 0) {\n            traderAccount.CASH_BALANCE = traderAccount.CASH_BALANCE.sub(lpFeeQuote.toint256());\n            poolAccount.CASH_BALANCE = traderAccount.CASH_BALANCE.add(lpFeeQuote.toint256());\n        }\n        if (mtFeeQuote > 0) {\n             traderAccount.CASH_BALANCE = traderAccount.CASH_BALANCE.sub(mtFeeQuote.toint256());\n            _MARGIN_ACCOUNT_[ADMIN._MAINTAINER_()].CASH_BALANCE = _MARGIN_ACCOUNT_[ADMIN._MAINTAINER_()].CASH_BALANCE.add(mtFeeQuote.toint256());\n\n        }\n\n        // update storage\n        updateVirtualBalance(updateBalance.baseTarget, updateBalance.baseBalance, updateBalance.quoteTarget, updateBalance.quoteBalance, updateBalance.newSide);\n        _MARGIN_ACCOUNT_[msg.sender] = traderAccount;\n        _POOL_MARGIN_ACCOUNT_ = poolAccount;\n        emit BuyBaseToken(msg.sender, amount, payQuote);\n\n        return payQuote;\n    }\n\n}\n",
  "sourcePath": "/Users/daniel/Codes/parapara/para_dapp_v6/contracts/perpetual/Trader.sol",
  "compiler": {
    "name": "solc",
    "version": "0.6.9+commit.3e3065ac.Emscripten.clang"
  },
  "schemaVersion": "3.3.4",
  "updatedAt": "2021-03-25T08:51:25.742Z",
  "devdoc": {
    "author": "Parapara",
    "methods": {},
    "title": "Trader"
  },
  "userdoc": {
    "methods": {},
    "notice": "Functions for trader operations"
  }
}