{
  "contractName": "Trader",
  "abi": [
    {
      "anonymous": false,
      "inputs": [
        {
          "indexed": true,
          "internalType": "address",
          "name": "buyer",
          "type": "address"
        },
        {
          "indexed": false,
          "internalType": "uint256",
          "name": "receiveBase",
          "type": "uint256"
        },
        {
          "indexed": false,
          "internalType": "uint256",
          "name": "payQuote",
          "type": "uint256"
        }
      ],
      "name": "BuyBaseToken",
      "type": "event"
    },
    {
      "anonymous": false,
      "inputs": [
        {
          "indexed": true,
          "internalType": "address",
          "name": "maintainer",
          "type": "address"
        },
        {
          "indexed": false,
          "internalType": "bool",
          "name": "isBaseToken",
          "type": "bool"
        },
        {
          "indexed": false,
          "internalType": "uint256",
          "name": "amount",
          "type": "uint256"
        }
      ],
      "name": "ChargeMaintainerFee",
      "type": "event"
    },
    {
      "anonymous": false,
      "inputs": [
        {
          "indexed": true,
          "internalType": "address",
          "name": "user",
          "type": "address"
        },
        {
          "indexed": false,
          "internalType": "uint256",
          "name": "baseTokenAmount",
          "type": "uint256"
        },
        {
          "indexed": false,
          "internalType": "uint256",
          "name": "quoteTokenAmount",
          "type": "uint256"
        }
      ],
      "name": "ClaimAssets",
      "type": "event"
    },
    {
      "anonymous": false,
      "inputs": [
        {
          "indexed": true,
          "internalType": "address",
          "name": "trader",
          "type": "address"
        },
        {
          "indexed": false,
          "internalType": "uint256",
          "name": "amount",
          "type": "uint256"
        },
        {
          "indexed": false,
          "internalType": "int256",
          "name": "balance",
          "type": "int256"
        }
      ],
      "name": "Deposit",
      "type": "event"
    },
    {
      "anonymous": false,
      "inputs": [
        {
          "indexed": false,
          "internalType": "uint256",
          "name": "amount",
          "type": "uint256"
        }
      ],
      "name": "Donate",
      "type": "event"
    },
    {
      "anonymous": false,
      "inputs": [
        {
          "indexed": true,
          "internalType": "address",
          "name": "trader",
          "type": "address"
        },
        {
          "indexed": false,
          "internalType": "int256",
          "name": "amount",
          "type": "int256"
        },
        {
          "indexed": false,
          "internalType": "int256",
          "name": "balanceAfter",
          "type": "int256"
        }
      ],
      "name": "InternalUpdateBalance",
      "type": "event"
    },
    {
      "anonymous": false,
      "inputs": [
        {
          "indexed": true,
          "internalType": "address",
          "name": "trader",
          "type": "address"
        },
        {
          "indexed": true,
          "internalType": "address",
          "name": "liquidator",
          "type": "address"
        },
        {
          "indexed": false,
          "internalType": "enum Types.Side",
          "name": "liquidationSide",
          "type": "uint8"
        },
        {
          "indexed": false,
          "internalType": "uint256",
          "name": "liquidationValue",
          "type": "uint256"
        },
        {
          "indexed": false,
          "internalType": "uint256",
          "name": "liquidationAmount",
          "type": "uint256"
        }
      ],
      "name": "Liquidate",
      "type": "event"
    },
    {
      "anonymous": false,
      "inputs": [
        {
          "indexed": true,
          "internalType": "address",
          "name": "previousOwner",
          "type": "address"
        },
        {
          "indexed": true,
          "internalType": "address",
          "name": "newOwner",
          "type": "address"
        }
      ],
      "name": "OwnershipTransferPrepared",
      "type": "event"
    },
    {
      "anonymous": false,
      "inputs": [
        {
          "indexed": true,
          "internalType": "address",
          "name": "previousOwner",
          "type": "address"
        },
        {
          "indexed": true,
          "internalType": "address",
          "name": "newOwner",
          "type": "address"
        }
      ],
      "name": "OwnershipTransferred",
      "type": "event"
    },
    {
      "anonymous": false,
      "inputs": [
        {
          "indexed": true,
          "internalType": "address",
          "name": "seller",
          "type": "address"
        },
        {
          "indexed": false,
          "internalType": "uint256",
          "name": "payBase",
          "type": "uint256"
        },
        {
          "indexed": false,
          "internalType": "uint256",
          "name": "receiveQuote",
          "type": "uint256"
        }
      ],
      "name": "SellBaseToken",
      "type": "event"
    },
    {
      "anonymous": false,
      "inputs": [
        {
          "indexed": false,
          "internalType": "enum Types.Side",
          "name": "lossSide",
          "type": "uint8"
        },
        {
          "indexed": false,
          "internalType": "int256",
          "name": "sloss",
          "type": "int256"
        },
        {
          "indexed": false,
          "internalType": "uint256",
          "name": "totalSize",
          "type": "uint256"
        }
      ],
      "name": "SocialLossUpdate",
      "type": "event"
    },
    {
      "anonymous": false,
      "inputs": [
        {
          "indexed": true,
          "internalType": "address",
          "name": "trader",
          "type": "address"
        },
        {
          "indexed": false,
          "internalType": "uint256",
          "name": "amount",
          "type": "uint256"
        },
        {
          "indexed": false,
          "internalType": "int256",
          "name": "balance",
          "type": "int256"
        }
      ],
      "name": "Withdraw",
      "type": "event"
    },
    {
      "inputs": [],
      "name": "ADMIN",
      "outputs": [
        {
          "internalType": "contract Admin",
          "name": "",
          "type": "address"
        }
      ],
      "stateMutability": "view",
      "type": "function"
    },
    {
      "inputs": [],
      "name": "PRICING",
      "outputs": [
        {
          "internalType": "contract Pricing",
          "name": "",
          "type": "address"
        }
      ],
      "stateMutability": "view",
      "type": "function"
    },
    {
      "inputs": [],
      "name": "_BASE_BALANCE_",
      "outputs": [
        {
          "internalType": "uint256",
          "name": "",
          "type": "uint256"
        }
      ],
      "stateMutability": "view",
      "type": "function"
    },
    {
      "inputs": [],
      "name": "_COLLATERAL_POOL_TOKEN_",
      "outputs": [
        {
          "internalType": "address",
          "name": "",
          "type": "address"
        }
      ],
      "stateMutability": "view",
      "type": "function"
    },
    {
      "inputs": [
        {
          "internalType": "address",
          "name": "",
          "type": "address"
        }
      ],
      "name": "_MARGIN_ACCOUNT_",
      "outputs": [
        {
          "internalType": "enum Types.Side",
          "name": "SIDE",
          "type": "uint8"
        },
        {
          "internalType": "uint256",
          "name": "SIZE",
          "type": "uint256"
        },
        {
          "internalType": "uint256",
          "name": "ENTRY_VALUE",
          "type": "uint256"
        },
        {
          "internalType": "int256",
          "name": "CASH_BALANCE",
          "type": "int256"
        },
        {
          "internalType": "uint256",
          "name": "ENTRY_SLOSS",
          "type": "uint256"
        }
      ],
      "stateMutability": "view",
      "type": "function"
    },
    {
      "inputs": [],
      "name": "_NEW_OWNER_",
      "outputs": [
        {
          "internalType": "address",
          "name": "",
          "type": "address"
        }
      ],
      "stateMutability": "view",
      "type": "function"
    },
    {
      "inputs": [],
      "name": "_OWNER_",
      "outputs": [
        {
          "internalType": "address",
          "name": "",
          "type": "address"
        }
      ],
      "stateMutability": "view",
      "type": "function"
    },
    {
      "inputs": [],
      "name": "_POOL_INSURANCE_BALANCE_",
      "outputs": [
        {
          "internalType": "uint256",
          "name": "",
          "type": "uint256"
        }
      ],
      "stateMutability": "view",
      "type": "function"
    },
    {
      "inputs": [],
      "name": "_POOL_MARGIN_ACCOUNT_",
      "outputs": [
        {
          "internalType": "enum Types.Side",
          "name": "SIDE",
          "type": "uint8"
        },
        {
          "internalType": "uint256",
          "name": "SIZE",
          "type": "uint256"
        },
        {
          "internalType": "uint256",
          "name": "ENTRY_VALUE",
          "type": "uint256"
        },
        {
          "internalType": "int256",
          "name": "CASH_BALANCE",
          "type": "int256"
        },
        {
          "internalType": "uint256",
          "name": "ENTRY_SLOSS",
          "type": "uint256"
        }
      ],
      "stateMutability": "view",
      "type": "function"
    },
    {
      "inputs": [],
      "name": "_QUOTE_BALANCE_",
      "outputs": [
        {
          "internalType": "uint256",
          "name": "",
          "type": "uint256"
        }
      ],
      "stateMutability": "view",
      "type": "function"
    },
    {
      "inputs": [],
      "name": "_R_STATUS_",
      "outputs": [
        {
          "internalType": "enum Types.Side",
          "name": "",
          "type": "uint8"
        }
      ],
      "stateMutability": "view",
      "type": "function"
    },
    {
      "inputs": [
        {
          "internalType": "uint256",
          "name": "",
          "type": "uint256"
        }
      ],
      "name": "_SLOSS_PER_CONTRACT_",
      "outputs": [
        {
          "internalType": "uint256",
          "name": "",
          "type": "uint256"
        }
      ],
      "stateMutability": "view",
      "type": "function"
    },
    {
      "inputs": [],
      "name": "_TARGET_BASE_TOKEN_AMOUNT_",
      "outputs": [
        {
          "internalType": "uint256",
          "name": "",
          "type": "uint256"
        }
      ],
      "stateMutability": "view",
      "type": "function"
    },
    {
      "inputs": [],
      "name": "_TARGET_QUOTE_TOKEN_AMOUNT_",
      "outputs": [
        {
          "internalType": "uint256",
          "name": "",
          "type": "uint256"
        }
      ],
      "stateMutability": "view",
      "type": "function"
    },
    {
      "inputs": [],
      "name": "_TOTAL_LONG_SIZE_",
      "outputs": [
        {
          "internalType": "uint256",
          "name": "",
          "type": "uint256"
        }
      ],
      "stateMutability": "view",
      "type": "function"
    },
    {
      "inputs": [
        {
          "components": [
            {
              "internalType": "enum Types.Side",
              "name": "SIDE",
              "type": "uint8"
            },
            {
              "internalType": "uint256",
              "name": "SIZE",
              "type": "uint256"
            },
            {
              "internalType": "uint256",
              "name": "ENTRY_VALUE",
              "type": "uint256"
            },
            {
              "internalType": "int256",
              "name": "CASH_BALANCE",
              "type": "int256"
            },
            {
              "internalType": "uint256",
              "name": "ENTRY_SLOSS",
              "type": "uint256"
            }
          ],
          "internalType": "struct Types.MarginAccount",
          "name": "account",
          "type": "tuple"
        },
        {
          "internalType": "uint256",
          "name": "markPrice",
          "type": "uint256"
        }
      ],
      "name": "availableMargin",
      "outputs": [
        {
          "internalType": "int256",
          "name": "",
          "type": "int256"
        }
      ],
      "stateMutability": "view",
      "type": "function"
    },
    {
      "inputs": [
        {
          "components": [
            {
              "internalType": "enum Types.Side",
              "name": "SIDE",
              "type": "uint8"
            },
            {
              "internalType": "uint256",
              "name": "SIZE",
              "type": "uint256"
            },
            {
              "internalType": "uint256",
              "name": "ENTRY_VALUE",
              "type": "uint256"
            },
            {
              "internalType": "int256",
              "name": "CASH_BALANCE",
              "type": "int256"
            },
            {
              "internalType": "uint256",
              "name": "ENTRY_SLOSS",
              "type": "uint256"
            }
          ],
          "internalType": "struct Types.MarginAccount",
          "name": "account",
          "type": "tuple"
        }
      ],
      "name": "balanceMargin",
      "outputs": [
        {
          "internalType": "int256",
          "name": "",
          "type": "int256"
        }
      ],
      "stateMutability": "view",
      "type": "function"
    },
    {
      "inputs": [],
      "name": "claimOwnership",
      "outputs": [],
      "stateMutability": "nonpayable",
      "type": "function"
    },
    {
      "inputs": [
        {
          "internalType": "address",
          "name": "from",
          "type": "address"
        },
        {
          "internalType": "uint256",
          "name": "amount",
          "type": "uint256"
        }
      ],
      "name": "collateralTraderTransferIn",
      "outputs": [],
      "stateMutability": "nonpayable",
      "type": "function"
    },
    {
      "inputs": [
        {
          "internalType": "address",
          "name": "to",
          "type": "address"
        },
        {
          "internalType": "uint256",
          "name": "amount",
          "type": "uint256"
        }
      ],
      "name": "collateralTraderTransferOut",
      "outputs": [],
      "stateMutability": "nonpayable",
      "type": "function"
    },
    {
      "inputs": [],
      "name": "getPoolMarginCashBalance",
      "outputs": [
        {
          "internalType": "int256",
          "name": "",
          "type": "int256"
        }
      ],
      "stateMutability": "view",
      "type": "function"
    },
    {
      "inputs": [],
      "name": "getPoolMarginEntrySloss",
      "outputs": [
        {
          "internalType": "uint256",
          "name": "",
          "type": "uint256"
        }
      ],
      "stateMutability": "view",
      "type": "function"
    },
    {
      "inputs": [],
      "name": "getPoolMarginEntryValue",
      "outputs": [
        {
          "internalType": "uint256",
          "name": "",
          "type": "uint256"
        }
      ],
      "stateMutability": "view",
      "type": "function"
    },
    {
      "inputs": [],
      "name": "getPoolMarginSide",
      "outputs": [
        {
          "internalType": "enum Types.Side",
          "name": "",
          "type": "uint8"
        }
      ],
      "stateMutability": "view",
      "type": "function"
    },
    {
      "inputs": [],
      "name": "getPoolMarginSize",
      "outputs": [
        {
          "internalType": "uint256",
          "name": "",
          "type": "uint256"
        }
      ],
      "stateMutability": "view",
      "type": "function"
    },
    {
      "inputs": [],
      "name": "getTotalSize",
      "outputs": [
        {
          "internalType": "uint256[3]",
          "name": "",
          "type": "uint256[3]"
        }
      ],
      "stateMutability": "view",
      "type": "function"
    },
    {
      "inputs": [
        {
          "internalType": "uint256",
          "name": "amount",
          "type": "uint256"
        },
        {
          "internalType": "uint256",
          "name": "markPrice",
          "type": "uint256"
        }
      ],
      "name": "initialMargin",
      "outputs": [
        {
          "internalType": "uint256",
          "name": "",
          "type": "uint256"
        }
      ],
      "stateMutability": "view",
      "type": "function"
    },
    {
      "inputs": [
        {
          "internalType": "address",
          "name": "trader",
          "type": "address"
        }
      ],
      "name": "isSafeMaintain",
      "outputs": [
        {
          "internalType": "bool",
          "name": "",
          "type": "bool"
        }
      ],
      "stateMutability": "view",
      "type": "function"
    },
    {
      "inputs": [
        {
          "components": [
            {
              "internalType": "enum Types.Side",
              "name": "SIDE",
              "type": "uint8"
            },
            {
              "internalType": "uint256",
              "name": "SIZE",
              "type": "uint256"
            },
            {
              "internalType": "uint256",
              "name": "ENTRY_VALUE",
              "type": "uint256"
            },
            {
              "internalType": "int256",
              "name": "CASH_BALANCE",
              "type": "int256"
            },
            {
              "internalType": "uint256",
              "name": "ENTRY_SLOSS",
              "type": "uint256"
            }
          ],
          "internalType": "struct Types.MarginAccount",
          "name": "account",
          "type": "tuple"
        },
        {
          "internalType": "uint256",
          "name": "openValue",
          "type": "uint256"
        }
      ],
      "name": "isSafeOpen",
      "outputs": [
        {
          "internalType": "bool",
          "name": "",
          "type": "bool"
        }
      ],
      "stateMutability": "view",
      "type": "function"
    },
    {
      "inputs": [
        {
          "internalType": "address",
          "name": "liquidator",
          "type": "address"
        },
        {
          "internalType": "address",
          "name": "trader",
          "type": "address"
        }
      ],
      "name": "liquidate",
      "outputs": [],
      "stateMutability": "nonpayable",
      "type": "function"
    },
    {
      "inputs": [
        {
          "internalType": "uint256",
          "name": "amount",
          "type": "uint256"
        },
        {
          "internalType": "uint256",
          "name": "markPrice",
          "type": "uint256"
        }
      ],
      "name": "maintenanceMargin",
      "outputs": [
        {
          "internalType": "uint256",
          "name": "",
          "type": "uint256"
        }
      ],
      "stateMutability": "view",
      "type": "function"
    },
    {
      "inputs": [
        {
          "internalType": "address",
          "name": "newOwner",
          "type": "address"
        }
      ],
      "name": "transferOwnership",
      "outputs": [],
      "stateMutability": "nonpayable",
      "type": "function"
    },
    {
      "inputs": [
        {
          "internalType": "uint256",
          "name": "amount",
          "type": "uint256"
        },
        {
          "internalType": "uint256",
          "name": "minReceiveQuote",
          "type": "uint256"
        }
      ],
      "name": "sellBaseToken",
      "outputs": [
        {
          "internalType": "uint256",
          "name": "",
          "type": "uint256"
        }
      ],
      "stateMutability": "nonpayable",
      "type": "function"
    },
    {
      "inputs": [
        {
          "internalType": "uint256",
          "name": "amount",
          "type": "uint256"
        },
        {
          "internalType": "uint256",
          "name": "maxPayQuote",
          "type": "uint256"
        }
      ],
      "name": "buyBaseToken",
      "outputs": [
        {
          "internalType": "uint256",
          "name": "",
          "type": "uint256"
        }
      ],
      "stateMutability": "nonpayable",
      "type": "function"
    }
  ],
  "bytecode": "0x6080604052600f805460ff1916905534801561001a57600080fd5b50612fff8061002a6000396000f3fe608060405234801561001057600080fd5b50600436106102065760003560e01c80639103b8b71161011a578063b35b08e9116100ad578063da3a4c311161007c578063da3a4c31146103c9578063eab5d20e146103dc578063f2fde38b146103e4578063f9f8eda8146103f7578063fa6a5eae146103ff57610206565b8063b35b08e914610393578063b4cab955146103a6578063d38b5209146103ae578063d6b41298146103c157610206565b8063a8b13ddf116100e9578063a8b13ddf14610368578063b192a3eb14610370578063b1e0736614610378578063b2094fd31461038b57610206565b80639103b8b714610332578063952d7c571461033a578063a163805c1461034d578063a51843ef1461035557610206565b80632efc6ee71161019d57806372decd7a1161016c57806372decd7a146102ee5780637c9b8e89146102f65780638456db15146102fe57806386b9d81f146103065780638bc60bff1461031957610206565b80632efc6ee7146102ab57806338873925146102c05780634a2473c3146102d35780634e71e0c8146102e657610206565b806322d779cc116101d957806322d779cc1461027e578063245c9685146102935780632a0acc6a1461029b5780632b32812a146102a357610206565b80630be4cea91461020b57806313ddd8fb1461023457806316048bc41461025457806317be952e14610269575b600080fd5b61021e610219366004612954565b610412565b60405161022b9190612bb0565b60405180910390f35b610247610242366004612866565b61044b565b60405161022b9190612adb565b61025c610567565b60405161022b9190612a59565b610271610576565b60405161022b9190612ae6565b61029161028c3660046128d6565b61057f565b005b61021e61058d565b61025c610593565b61021e6105a2565b6102b36105a8565b60405161022b9190612aaa565b61021e6102ce366004612996565b61061c565b61021e6102e1366004612939565b6106b6565b61029161075a565b61021e6107f1565b61021e6107f7565b61025c6107fd565b61029161031436600461289e565b61080c565b6103216109fa565b60405161022b959493929190612b58565b61021e610a12565b61021e610348366004612996565b610a18565b61025c61103e565b61021e610363366004612996565b61104d565b61021e61157c565b61025c611582565b610321610386366004612866565b611591565b61021e6115c4565b61021e6103a1366004612996565b6115ca565b61021e611627565b61021e6103bc36600461297e565b61162d565b610271611641565b6102476103d7366004612954565b61164a565b61021e611733565b6102916103f2366004612866565b611739565b61021e6117e4565b61029161040d3660046128d6565b6117ea565b600061044261042d61042885602001518561061c565b6117f4565b610436856106b6565b9063ffffffff61182116565b90505b92915050565b600061045561276b565b6001600160a01b0383166000908152600a602052604090819020815160a081019092528054829060ff16600281111561048a57fe5b600281111561049557fe5b815260200160018201548152602001600282015481526020016003820154815260200160048201548152505090506105546104288260200151600360009054906101000a90046001600160a01b03166001600160a01b031663ee27c6896040518163ffffffff1660e01b815260040160206040518083038186803b15801561051c57600080fd5b505afa158015610530573d6000803e3d6000fd5b505050506040513d601f19601f820116820180604052508101906103a19190612921565b61055d826106b6565b139150505b919050565b6000546001600160a01b031681565b600f5460ff1681565b6105898282611867565b5050565b600c5481565b6002546001600160a01b031681565b60065490565b6105b061279b565b6000600260055460ff1660028111156105c557fe5b146105e4576006546010546105df9163ffffffff61196116565b6105f9565b6006546010546105f99163ffffffff61198916565b604080516060810182526000815260208101929092526010549082015291505090565b600061044261062b83856119ae565b600260009054906101000a90046001600160a01b03166001600160a01b03166398a0a53d6040518163ffffffff1660e01b815260040160206040518083038186803b15801561067957600080fd5b505afa15801561068d573d6000803e3d6000fd5b505050506040513d601f19601f820116820180604052508101906106b19190612921565b6119ae565b60035481516020830151604080850151905163a3ffd1cb60e01b8152600094610445946001600160a01b039091169363a3ffd1cb936106f9938290600401612b86565b60206040518083038186803b15801561071157600080fd5b505afa158015610725573d6000803e3d6000fd5b505050506040513d601f19601f820116820180604052508101906107499190612921565b60608401519063ffffffff6119d816565b6001546001600160a01b0316331461078d5760405162461bcd60e51b815260040161078490612bb9565b60405180910390fd5b600154600080546040516001600160a01b0393841693909116917f8be0079c531659141344cd1fd0a4f28419497f9722a3daafe3b4186f6b6457e091a360018054600080546001600160a01b03199081166001600160a01b03841617909155169055565b60085490565b600e5481565b6001546001600160a01b031681565b6108158161044b565b156108325760405162461bcd60e51b815260040161078490612dcc565b61083a61276b565b6001600160a01b0383166000908152600a602052604090819020815160a081019092528054829060ff16600281111561086f57fe5b600281111561087a57fe5b815260200160018201548152602001600282015481526020016003820154815260200160048201548152505090506108b061276b565b6001600160a01b0383166000908152600a602052604090819020815160a081019092528054829060ff1660028111156108e557fe5b60028111156108f057fe5b815260200160018201548152602001600282015481526020016003820154815260200160048201548152505090506000600360009054906101000a90046001600160a01b03166001600160a01b0316634b0301a5836000015184602001516040518363ffffffff1660e01b815260040161096b929190612b1c565b60206040518083038186803b15801561098357600080fd5b505afa158015610997573d6000803e3d6000fd5b505050506040513d601f19601f820116820180604052508101906109bb9190612921565b90506109c7838261164a565b6109e35760405162461bcd60e51b815260040161078490612ca7565b6109f38585838560200151611a1e565b5050505050565b60055460065460075460085460095460ff9094169385565b60095490565b600154600090600160a01b900460ff1615610a455760405162461bcd60e51b815260040161078490612c0e565b6001805460ff60a01b1916600160a01b17905582610a755760405162461bcd60e51b815260040161078490612be0565b600260009054906101000a90046001600160a01b03166001600160a01b031663ee3dfe2b6040518163ffffffff1660e01b815260040160006040518083038186803b158015610ac357600080fd5b505afa158015610ad7573d6000803e3d6000fd5b50505050600260009054906101000a90046001600160a01b03166001600160a01b031663961a929c6040518163ffffffff1660e01b815260040160006040518083038186803b158015610b2957600080fd5b505afa158015610b3d573d6000803e3d6000fd5b50505050610b496127b9565b60035460405163f0d8a75960e01b8152600091829182916001600160a01b03169063f0d8a75990610b7e908a90600401612bb0565b6101006040518083038186803b158015610b9757600080fd5b505afa158015610bab573d6000803e3d6000fd5b505050506040513d601f19601f82011682018060405250810190610bcf91906129b7565b8b60208101604082016060830160808401856002811115610bec57fe5b6002811115610bf757fe5b9052949094529390925250919052529194509250905085831015610c2d5760405162461bcd60e51b815260040161078490612ea7565b610c3561276b565b336000908152600a602052604090819020815160a081019092528054829060ff166002811115610c6157fe5b6002811115610c6c57fe5b81526020016001820154815260200160028201548152602001600382015481526020016004820154815250509050610ca261276b565b6040805160a0810190915260058054829060ff166002811115610cc157fe5b6002811115610ccc57fe5b81526020016001820154815260200160028201548152602001600382015481526020016004820154815250509050610d04828661164a565b610d205760405162461bcd60e51b815260040161078490612cde565b610d2d826001878c6120d6565b9150610d3c816002878c6120d6565b90508315610d7857610d61610d50856117f4565b60608401519063ffffffff61182116565b6060830152610d72610749856117f4565b60608201525b8215610ef657610d8a610d50846117f4565b6060830152610e4e610d9b846117f4565b600a6000600260009054906101000a90046001600160a01b03166001600160a01b0316634322ec836040518163ffffffff1660e01b815260040160206040518083038186803b158015610ded57600080fd5b505afa158015610e01573d6000803e3d6000fd5b505050506040513d601f19601f82011682018060405250810190610e259190612882565b6001600160a01b031681526020810191909152604001600020600301549063ffffffff6119d816565b600a6000600260009054906101000a90046001600160a01b03166001600160a01b0316634322ec836040518163ffffffff1660e01b815260040160206040518083038186803b158015610ea057600080fd5b505afa158015610eb4573d6000803e3d6000fd5b505050506040513d601f19601f82011682018060405250810190610ed89190612882565b6001600160a01b031681526020810191909152604001600020600301555b336000908152600a602052604090208251815484929190829060ff19166001836002811115610f2157fe5b02179055506020820151816001015560408201518160020155606082015181600301556080820151816004015590505080600560008201518160000160006101000a81548160ff02191690836002811115610f7857fe5b0217905550602082015160018201556040820151600282015560608201516003820155608090910151600490910155601054610fba908a63ffffffff61196116565b601081905550610fe186600001518760200151886040015189606001518a608001516121a1565b336001600160a01b03167fd8648b6ac54162763c86fd54bf2005af8ecd2f9cb273a5775921fd7f91e17b2d8a8760405161101c929190612f81565b60405180910390a250506001805460ff60a01b19169055509095945050505050565b6003546001600160a01b031681565b600154600090600160a01b900460ff161561107a5760405162461bcd60e51b815260040161078490612c0e565b6001805460ff60a01b1916600160a01b179055600254604080516347c7bf5960e11b815290516001600160a01b0390921691638f8f7eb291600480820192600092909190829003018186803b1580156110d257600080fd5b505afa1580156110e6573d6000803e3d6000fd5b50505050600260009054906101000a90046001600160a01b03166001600160a01b031663961a929c6040518163ffffffff1660e01b815260040160006040518083038186803b15801561113857600080fd5b505afa15801561114c573d6000803e3d6000fd5b505050506111586127b9565b6003546040516321d39cbb60e11b8152600091829182916001600160a01b0316906343a739769061118d908a90600401612bb0565b6101006040518083038186803b1580156111a657600080fd5b505afa1580156111ba573d6000803e3d6000fd5b505050506040513d601f19601f820116820180604052508101906111de91906129b7565b8b602081016040820160608301608084018560028111156111fb57fe5b600281111561120657fe5b905294909452939092525091905252919450925090508561123d82611231868663ffffffff61198916565b9063ffffffff61198916565b111561125b5760405162461bcd60e51b815260040161078490612f2e565b61126361276b565b336000908152600a602052604090819020815160a081019092528054829060ff16600281111561128f57fe5b600281111561129a57fe5b815260200160018201548152602001600282015481526020016003820154815260200160048201548152505090506112d061276b565b6040805160a0810190915260058054829060ff1660028111156112ef57fe5b60028111156112fa57fe5b81526020016001820154815260200160028201548152602001600382015481526020016004820154815250509050611332828661164a565b61134e5760405162461bcd60e51b815260040161078490612cde565b61135b826002878c6120d6565b915061136a816001878c6120d6565b905083156113955761137e610d50856117f4565b606083015261138f610749856117f4565b60608201525b8215611460576113a7610d50846117f4565b60608301526113b8610d9b846117f4565b600a6000600260009054906101000a90046001600160a01b03166001600160a01b0316634322ec836040518163ffffffff1660e01b815260040160206040518083038186803b15801561140a57600080fd5b505afa15801561141e573d6000803e3d6000fd5b505050506040513d601f19601f820116820180604052508101906114429190612882565b6001600160a01b031681526020810191909152604001600020600301555b61148186600001518760200151886040015189606001518a608001516121a1565b336000908152600a602052604090208251815484929190829060ff191660018360028111156114ac57fe5b02179055506020820151816001015560408201518160020155606082015181600301556080820151816004015590505080600560008201518160000160006101000a81548160ff0219169083600281111561150357fe5b0217905550602082015160018201556040820151600282015560608201516003820155608090910151600490910155601054611545908a63ffffffff61198916565b60105560405133907fe93ad76094f247c0dafc1c61adc2187de1ac2738f7a3b49cb20b2263420251a39061101c908c908990612f81565b60105481565b6004546001600160a01b031681565b600a602052600090815260409020805460018201546002830154600384015460049094015460ff90931693919290919085565b600b5481565b60006104426115d983856119ae565b600260009054906101000a90046001600160a01b03166001600160a01b031663fe73ee736040518163ffffffff1660e01b815260040160206040518083038186803b15801561067957600080fd5b60075490565b6011816003811061163a57fe5b0154905081565b60055460ff1690565b60006116a161042883600260009054906101000a90046001600160a01b03166001600160a01b03166398a0a53d6040518163ffffffff1660e01b815260040160206040518083038186803b15801561067957600080fd5b61172b84600360009054906101000a90046001600160a01b03166001600160a01b031663ee27c6896040518163ffffffff1660e01b815260040160206040518083038186803b1580156116f357600080fd5b505afa158015611707573d6000803e3d6000fd5b505050506040513d601f19601f820116820180604052508101906102199190612921565b139392505050565b600d5481565b6000546001600160a01b031633146117635760405162461bcd60e51b815260040161078490612da9565b6001600160a01b0381166117895760405162461bcd60e51b815260040161078490612d82565b600080546040516001600160a01b03808516939216917fdcf55418cee3220104fef63f979ff3c4097ad240c0c43dcb33ce837748983e6291a3600180546001600160a01b0319166001600160a01b0392909216919091179055565b60145481565b6105898282612224565b60006001600160ff1b0382111561181d5760405162461bcd60e51b815260040161078490612ede565b5090565b60008183038183128015906118365750838113155b8061184b575060008312801561184b57508381135b6104425760405162461bcd60e51b815260040161078490612e19565b61190a823083600260009054906101000a90046001600160a01b03166001600160a01b031663cb102dd26040518163ffffffff1660e01b815260040160206040518083038186803b1580156118bb57600080fd5b505afa1580156118cf573d6000803e3d6000fd5b505050506040513d601f19601f820116820180604052508101906118f39190612882565b6001600160a01b031692919063ffffffff61230716565b61193e611916826117f4565b6001600160a01b0384166000908152600a60205260409020600301549063ffffffff6119d816565b6001600160a01b039092166000908152600a602052604090206003019190915550565b6000828211156119835760405162461bcd60e51b815260040161078490612d30565b50900390565b6000828201838110156104425760405162461bcd60e51b815260040161078490612df6565b6000670de0b6b3a76400006119c9848463ffffffff61236516565b816119d057fe5b049392505050565b60008282018183128015906119ed5750838112155b80611a025750600083128015611a0257508381125b6104425760405162461bcd60e51b815260040161078490612c31565b611a2661276b565b6001600160a01b0385166000908152600a602052604090819020815160a081019092528054829060ff166002811115611a5b57fe5b6002811115611a6657fe5b81526020016001820154815260200160028201548152602001600382015481526020016004820154815250509050611a9c61276b565b6001600160a01b0385166000908152600a602052604090819020815160a081019092528054829060ff166002811115611ad157fe5b6002811115611adc57fe5b81526020016001820154815260200160028201548152602001600382015481526020016004820154815250509050611b1261276b565b6040805160a0810190915260058054829060ff166002811115611b3157fe5b6002811115611b3c57fe5b815260018201546020820152600282015460408201526003820154606082015260049091015460809091015282519091506000611b788261239f565b90506000611c0e610428600260009054906101000a90046001600160a01b03166001600160a01b031663f5cdd2026040518163ffffffff1660e01b815260040160206040518083038186803b158015611bd057600080fd5b505afa158015611be4573d6000803e3d6000fd5b505050506040513d601f19601f82011682018060405250810190611c089190612921565b8a6119ae565b90506000611ca4610428600260009054906101000a90046001600160a01b03166001600160a01b03166311187e366040518163ffffffff1660e01b815260040160206040518083038186803b158015611c6657600080fd5b505afa158015611c7a573d6000803e3d6000fd5b505050506040513d601f19601f82011682018060405250810190611c9e9190612921565b8b6119ae565b9050611cba86611cb38661239f565b8b8b6120d6565b9550611cc887858b8b6120d6565b9650611cda828263ffffffff6119d816565b866060015112611d4157611cff8161043684896060015161182190919063ffffffff16565b606080880191909152870151611d1b908363ffffffff6119d816565b606080890191909152850151611d37908263ffffffff6119d816565b6060860152611f42565b81866060015112611da6576060870151611d61908363ffffffff6119d816565b606080890191909152860151611d9290611d81908463ffffffff61182116565b60608701519063ffffffff6119d816565b606080870191909152600090870152611f42565b81611dc6611db56014546117f4565b60608901519063ffffffff6119d816565b12611e2d576060870151611de0908363ffffffff6119d816565b606080890191909152860151600090611e0090849063ffffffff61182116565b9050611e1d611e0e826123d9565b6014549063ffffffff61196116565b6014555060006060870152611f42565b6060870151611e42908363ffffffff6119d816565b8760600181815250506000611e7c611e6f611e5e6014546117f4565b60608a01519063ffffffff6119d816565b849063ffffffff61182116565b6000601481905560608901529050611e9261279b565b611e9a6105a8565b9050611ec9611ea8836123d9565b82876002811115611eb557fe5b60038110611ebf57fe5b60200201516123fb565b6011866002811115611ed757fe5b60038110611ee157fe5b01805490910190557fe7c36d6fb87e3948a53ae9860b822817eeadf4473006f88cecd0180fcaae75ed858383826002811115611f1957fe5b60038110611f2357fe5b6020020151604051611f3793929190612afb565b60405180910390a150505b6001600160a01b038a166000908152600a602052604090208651815488929190829060ff19166001836002811115611f7657fe5b02179055506020820151816001015560408201518160020155606082015181600301556080820151816004015590505086600a60008d6001600160a01b03166001600160a01b0316815260200190815260200160002060008201518160000160006101000a81548160ff02191690836002811115611ff057fe5b02179055506020820151600182015560408201516002820155606080830151600383015560809092015160049091015560085490860151141561207a57845160058054879290829060ff1916600183600281111561204a57fe5b02179055506020820151600182015560408201516002820155606082015160038201556080909101516004909101555b896001600160a01b03168b6001600160a01b03167f54f9b006b19a44694e56b0d6a57f34c420bf88da7373f9d0f3380e5f4b70951e868c8c6040516120c193929190612b38565b60405180910390a35050505050505050505050565b6120de61276b565b602085015160009083901580159061210d57508560028111156120fd57fe5b8751600281111561210a57fe5b14155b15612172578660200151841161213357612128878587612425565b965060009050612172565b612145856106b18960200151876123fb565b915061215687886020015184612425565b965061216f87602001518561196190919063ffffffff16565b90505b80156121965761219387878361218e898763ffffffff61196116565b612583565b96505b509495945050505050565b82600c54146121b057600c8390555b84600b54146121bf57600b8590555b83600d54146121ce57600d8490555b81600e54146121dd57600e8290555b8060028111156121e957fe5b600f5460ff1660028111156121fa57fe5b146109f357600f805482919060ff1916600183600281111561221857fe5b02179055505050505050565b612258612230826117f4565b6001600160a01b0384166000908152600a60205260409020600301549063ffffffff61182116565b6001600160a01b038084166000908152600a602090815260409182902060030193909355600254815163658816e960e11b81529151610589948794879493169263cb102dd29260048083019392829003018186803b1580156122b957600080fd5b505afa1580156122cd573d6000803e3d6000fd5b505050506040513d601f19601f820116820180604052508101906122f19190612882565b6001600160a01b0316919063ffffffff61260f16565b61235f846323b872dd60e01b85858560405160240161232893929190612a6d565b60408051601f198184030181529190526020810180516001600160e01b03166001600160e01b031990931692909217909152612633565b50505050565b60008261237457506000610445565b8282028284828161238157fe5b04146104425760405162461bcd60e51b815260040161078490612f5e565b600060028260028111156123af57fe5b14156123bd57506001610562565b60018260028111156123cb57fe5b141561181d57506002610562565b60008082121561181d5760405162461bcd60e51b815260040161078490612f08565b60006104428261241985670de0b6b3a764000063ffffffff61236516565b9063ffffffff6126ea16565b61242d61276b565b6000831161244d5760405162461bcd60e51b815260040161078490612d53565b600084602001518414156124665750604084015161247f565b61247c85604001516106b1868860200151612717565b90505b6003548551604051632d50ce1d60e21b81526000926001600160a01b03169163b5433874916124b5919086908990600401612b38565b60206040518083038186803b1580156124cd57600080fd5b505afa1580156124e1573d6000803e3d6000fd5b505050506040513d601f19601f820116820180604052508101906125059190612921565b606087015190915061251d908263ffffffff6119d816565b60608701526040860151602087015161254f91906106b190612545908963ffffffff61196116565b8960200151612717565b60408701526020860151612569908663ffffffff61196116565b6020870181905261257957600086525b5093949350505050565b61258b61276b565b600083116125ab5760405162461bcd60e51b815260040161078490612be0565b60208501516125d257848460028111156125c157fe5b908160028111156125ce57fe5b9052505b60208501516125e7908463ffffffff61198916565b60208601526040850151612601908363ffffffff61198916565b604086015250929392505050565b61262e8363a9059cbb60e01b8484604051602401612328929190612a91565b505050565b60006060836001600160a01b03168360405161264f9190612a20565b6000604051808303816000865af19150503d806000811461268c576040519150601f19603f3d011682016040523d82523d6000602084013e612691565b606091505b5091509150816126b35760405162461bcd60e51b815260040161078490612c72565b80511561235f57808060200190518101906126ce9190612901565b61235f5760405162461bcd60e51b815260040161078490612e5d565b6000806126f78484612741565b90508281028403801561270f57506001019050610445565b509050610445565b60006104428261273585670de0b6b3a764000063ffffffff61236516565b9063ffffffff61274116565b60008082116127625760405162461bcd60e51b815260040161078490612d08565b8183816119d057fe5b6040805160a081019091528060008152602001600081526020016000815260200160008152602001600081525090565b60405180606001604052806003906020820280368337509192915050565b6040518060a0016040528060008152602001600081526020016000815260200160008152602001600060028111156127ed57fe5b905290565b600060a08284031215612803578081fd5b60405160a0810181811067ffffffffffffffff82111715612822578283fd5b604052905080823561283381612fbc565b80825250602083013560208201526040830135604082015260608301356060820152608083013560808201525092915050565b600060208284031215612877578081fd5b813561044281612fa7565b600060208284031215612893578081fd5b815161044281612fa7565b600080604083850312156128b0578081fd5b82356128bb81612fa7565b915060208301356128cb81612fa7565b809150509250929050565b600080604083850312156128e8578182fd5b82356128f381612fa7565b946020939093013593505050565b600060208284031215612912578081fd5b81518015158114610442578182fd5b600060208284031215612932578081fd5b5051919050565b600060a0828403121561294a578081fd5b61044283836127f2565b60008060c08385031215612966578182fd5b61297084846127f2565b9460a0939093013593505050565b60006020828403121561298f578081fd5b5035919050565b600080604083850312156129a8578182fd5b50508035926020909101359150565b600080600080600080600080610100898b0312156129d3578384fd5b885197506020890151965060408901519550606089015194506080890151935060a0890151925060c0890151915060e0890151612a0f81612fbc565b809150509295985092959890939650565b60008251815b81811015612a405760208186018101518583015201612a26565b81811115612a4e5782828501525b509190910192915050565b6001600160a01b0391909116815260200190565b6001600160a01b039384168152919092166020820152604081019190915260600190565b6001600160a01b03929092168252602082015260400190565b60608101818360005b6003811015612ad2578151835260209283019290910190600101612ab3565b50505092915050565b901515815260200190565b60208101612af383612f8f565b825292915050565b60608101612b0885612f9a565b938152602081019290925260409091015290565b60408101612b2984612f8f565b82528260208301529392505050565b60608101612b4585612f8f565b8252602082019390935260400152919050565b60a08101612b6587612f9a565b95815260208101949094526040840192909252606083015260809091015290565b60808101612b9386612f8f565b825284602083015283604083015282606083015295945050505050565b90815260200190565b6020808252600d908201526c494e56414c49445f434c41494d60981b604082015260600190565b6020808252601490820152731bdc195b8e881a5b9d985b1a5908185b5bdd5b9d60621b604082015260600190565b60208082526009908201526814915153951490539560ba1b604082015260600190565b60208082526021908201527f5369676e6564536166654d6174683a206164646974696f6e206f766572666c6f6040820152607760f81b606082015260800190565b6020808252818101527f5361666545524332303a206c6f772d6c6576656c2063616c6c206661696c6564604082015260600190565b6020808252601a908201527f4c495155494441544f525f4e4f545f454e4f5547485f46554e44000000000000604082015260600190565b60208082526010908201526f2727aa2fa9a0a322afaa27afa7a822a760811b604082015260600190565b6020808252600e908201526d2224ab24a224a723afa2a92927a960911b604082015260600190565b60208082526009908201526829aaa12fa2a92927a960b91b604082015260600190565b60208082526015908201527418db1bdcd94e881a5b9d985b1a5908185b5bdd5b9d605a1b604082015260600190565b6020808252600d908201526c24a72b20a624a22fa7aba722a960991b604082015260600190565b6020808252600990820152682727aa2fa7aba722a960b91b604082015260600190565b60208082526010908201526f29a0a322afaa27afa6a0a4a72a20a4a760811b604082015260600190565b60208082526009908201526820a2222fa2a92927a960b91b604082015260600190565b60208082526024908201527f5369676e6564536166654d6174683a207375627472616374696f6e206f766572604082015263666c6f7760e01b606082015260800190565b6020808252602a908201527f5361666545524332303a204552433230206f7065726174696f6e20646964206e6040820152691bdd081cdd58d8d9595960b21b606082015260800190565b6020808252601c908201527f53454c4c5f424153455f524543454956455f4e4f545f454e4f55474800000000604082015260600190565b60208082526010908201526f75696e74323536206f766572666c6f7760801b604082015260600190565b6020808252600c908201526b696e74206f766572666c6f7760a01b604082015260600190565b602080825260169082015275084aab2be8482a68abe869ea6a8bea89e9ebe9aaa86960531b604082015260600190565b60208082526009908201526826aaa62fa2a92927a960b91b604082015260600190565b918252602082015260400190565b806003811061056257fe5b60038110612fa457fe5b50565b6001600160a01b0381168114612fa457600080fd5b60038110612fa457600080fdfea26469706673582212204ae2c3ca7293ceeac63a53ee76eec5d3f0f4f37e39c307be788120de83332e8b64736f6c63430006090033",
  "immutableReferences": {},
  "source": "/*\n\n    Copyright 2020 DODO ZOO.\n    SPDX-License-Identifier: Apache-2.0\n\n*/\n\npragma solidity 0.6.9;\npragma experimental ABIEncoderV2;\n\nimport {SafeMath} from \"../lib/SafeMath.sol\";\nimport {SignedSafeMath} from \"../lib/SignedSafeMath.sol\";\nimport {DecimalMath} from \"../lib/DecimalMath.sol\";\nimport {Types} from \"../lib/Types.sol\";\nimport {Margin} from \"./Margin.sol\";\nimport {IERC20} from \"../interface/IERC20.sol\";\nimport {SafeERC20} from \"../lib/SafeERC20.sol\";\nimport {IAdmin} from \"../interface/IAdmin.sol\";\n\n/**\n * @title Trader\n * @author Parapara\n *\n * @notice Functions for trader operations\n */\ncontract Trader is Margin {\n    using SafeMath for uint256;\n    using SignedSafeMath for int256;\n    using SafeERC20 for IERC20;\n\n    // ============ Events ============\n\n    event SellBaseToken(\n        address indexed seller,\n        uint256 payBase,\n        uint256 receiveQuote\n    );\n\n    event BuyBaseToken(\n        address indexed buyer,\n        uint256 receiveBase,\n        uint256 payQuote\n    );\n\n    event ChargeMaintainerFee(\n        address indexed maintainer,\n        bool isBaseToken,\n        uint256 amount\n    );\n\n    // ============ Modifiers ============\n\n\n\n    // ============ Trade Functions ============\n    function sellBaseToken(\n        uint256 amount,\n        uint256 minReceiveQuote\n    )\n        external\n        preventReentrant\n        returns (uint256)\n    {\n        // query price\n        require(amount > 0, \"open: invalid amount\");\n        ADMIN.sellingAllowed();\n        ADMIN.gasPriceLimit();\n        Types.VirtualBalance memory updateBalance;\n        uint256 receiveQuote;\n        uint256 lpFeeQuote;\n        uint256 mtFeeQuote;\n        (\n        receiveQuote,\n        lpFeeQuote,\n        mtFeeQuote,\n        updateBalance.baseTarget,\n        updateBalance.baseBalance,\n        updateBalance.quoteTarget,\n        updateBalance.quoteBalance,\n        updateBalance.newSide\n        ) = PRICING._querySellBaseToken(amount);\n        require(\n            receiveQuote >= minReceiveQuote,\n            \"SELL_BASE_RECEIVE_NOT_ENOUGH\"\n        );\n\n        // settle assets\n\n        Types.MarginAccount memory traderAccount = _MARGIN_ACCOUNT_[msg.sender];\n        Types.MarginAccount memory poolAccount = _POOL_MARGIN_ACCOUNT_;\n\n        require(isSafeOpen(traderAccount, receiveQuote), \"NOT_SAFE_TO_OPEN\"); // check traderAccount safety\n\n        traderAccount = trade(traderAccount, Types.Side.SHORT, receiveQuote, amount);\n        poolAccount = trade(poolAccount, Types.Side.LONG, receiveQuote, amount);\n\n\n        if (lpFeeQuote > 0) {\n            traderAccount.CASH_BALANCE = traderAccount.CASH_BALANCE.sub(lpFeeQuote.toint256());\n            poolAccount.CASH_BALANCE = traderAccount.CASH_BALANCE.add(lpFeeQuote.toint256());\n        }\n\n        if (mtFeeQuote > 0) {\n            traderAccount.CASH_BALANCE = traderAccount.CASH_BALANCE.sub(mtFeeQuote.toint256());\n            _MARGIN_ACCOUNT_[ADMIN._MAINTAINER_()].CASH_BALANCE = _MARGIN_ACCOUNT_[ADMIN._MAINTAINER_()].CASH_BALANCE.add(mtFeeQuote.toint256());\n        }\n\n        // update storage\n        _MARGIN_ACCOUNT_[msg.sender] = traderAccount;\n        _POOL_MARGIN_ACCOUNT_ = poolAccount;\n        _TOTAL_LONG_SIZE_ =  _TOTAL_LONG_SIZE_.sub(amount);\n        updateVirtualBalance(\n            updateBalance.baseTarget,\n            updateBalance.baseBalance,\n            updateBalance.quoteTarget,\n            updateBalance.quoteBalance,\n            updateBalance.newSide);\n\n        emit SellBaseToken(msg.sender, amount, receiveQuote);\n\n        return receiveQuote;\n    }\n\n    function buyBaseToken(\n        uint256 amount,\n        uint256 maxPayQuote\n    )\n        external\n        preventReentrant\n        returns (uint256)\n    {\n        ADMIN.buyingAllowed();\n        ADMIN.gasPriceLimit();\n        // query price\n        Types.VirtualBalance memory updateBalance;\n        uint256 payQuote;\n        uint256 lpFeeQuote;\n        uint256 mtFeeQuote;\n        (\n            payQuote,\n            lpFeeQuote,\n            mtFeeQuote,\n            updateBalance.baseTarget,\n            updateBalance.baseBalance,\n            updateBalance.quoteTarget,\n            updateBalance.quoteBalance,\n            updateBalance.newSide\n        ) = PRICING._queryBuyBaseToken(amount);\n        require(payQuote.add(lpFeeQuote).add(mtFeeQuote) <= maxPayQuote, \"BUY_BASE_COST_TOO_MUCH\");\n\n        // settle assets\n        Types.MarginAccount memory traderAccount = _MARGIN_ACCOUNT_[msg.sender];\n        Types.MarginAccount memory poolAccount = _POOL_MARGIN_ACCOUNT_;\n        require(isSafeOpen(traderAccount, payQuote), \"NOT_SAFE_TO_OPEN\"); // check traderAccount safety\n        traderAccount = trade(traderAccount, Types.Side.LONG, payQuote, amount);\n        poolAccount = trade(poolAccount, Types.Side.SHORT, payQuote, amount);\n\n\n        if (lpFeeQuote > 0) {\n            traderAccount.CASH_BALANCE = traderAccount.CASH_BALANCE.sub(lpFeeQuote.toint256());\n            poolAccount.CASH_BALANCE = traderAccount.CASH_BALANCE.add(lpFeeQuote.toint256());\n        }\n        if (mtFeeQuote > 0) {\n             traderAccount.CASH_BALANCE = traderAccount.CASH_BALANCE.sub(mtFeeQuote.toint256());\n            _MARGIN_ACCOUNT_[ADMIN._MAINTAINER_()].CASH_BALANCE = _MARGIN_ACCOUNT_[ADMIN._MAINTAINER_()].CASH_BALANCE.add(mtFeeQuote.toint256());\n\n        }\n\n        // update storage\n        updateVirtualBalance(updateBalance.baseTarget, updateBalance.baseBalance, updateBalance.quoteTarget, updateBalance.quoteBalance, updateBalance.newSide);\n        _MARGIN_ACCOUNT_[msg.sender] = traderAccount;\n        _POOL_MARGIN_ACCOUNT_ = poolAccount;\n        _TOTAL_LONG_SIZE_ = _TOTAL_LONG_SIZE_.add(amount);\n        emit BuyBaseToken(msg.sender, amount, payQuote);\n\n        return payQuote;\n    }\n\n}\n",
  "sourcePath": "/Users/daniel/Codes/parapara/para_dapp_v6/contracts/perpetual/Trader.sol",
  "compiler": {
    "name": "solc",
    "version": "0.6.9+commit.3e3065ac.Emscripten.clang"
  },
  "schemaVersion": "3.3.4",
  "updatedAt": "2021-03-26T06:46:20.194Z",
  "devdoc": {
    "author": "Parapara",
    "methods": {},
    "title": "Trader"
  },
  "userdoc": {
    "methods": {},
    "notice": "Functions for trader operations"
  }
}